{
	"chapter07/EventHistoryTest.sol": {
		"EventHistoryTest": {
			"abi": [
				{
					"anonymous": false,
					"inputs": [
						{
							"indexed": true,
							"internalType": "address",
							"name": "sender",
							"type": "address"
						},
						{
							"indexed": false,
							"internalType": "uint256",
							"name": "newValue",
							"type": "uint256"
						},
						{
							"indexed": false,
							"internalType": "string",
							"name": "message",
							"type": "string"
						}
					],
					"name": "DataChanged",
					"type": "event"
				},
				{
					"inputs": [
						{
							"internalType": "uint256",
							"name": "_data",
							"type": "uint256"
						},
						{
							"internalType": "string",
							"name": "_message",
							"type": "string"
						}
					],
					"name": "updateData",
					"outputs": [],
					"stateMutability": "nonpayable",
					"type": "function"
				}
			],
			"devdoc": {
				"kind": "dev",
				"methods": {},
				"version": 1
			},
			"evm": {
				"assembly": "    /* \"chapter07/EventHistoryTest.sol\":61:395  contract EventHistoryTest {... */\n  mstore(0x40, 0x80)\n  callvalue\n  dup1\n  iszero\n  tag_1\n  jumpi\n  0x00\n  dup1\n  revert\ntag_1:\n  pop\n  dataSize(sub_0)\n  dup1\n  dataOffset(sub_0)\n  0x00\n  codecopy\n  0x00\n  return\nstop\n\nsub_0: assembly {\n        /* \"chapter07/EventHistoryTest.sol\":61:395  contract EventHistoryTest {... */\n      mstore(0x40, 0x80)\n      callvalue\n      dup1\n      iszero\n      tag_1\n      jumpi\n      0x00\n      dup1\n      revert\n    tag_1:\n      pop\n      jumpi(tag_2, lt(calldatasize, 0x04))\n      shr(0xe0, calldataload(0x00))\n      dup1\n      0x89a8e2a7\n      eq\n      tag_3\n      jumpi\n    tag_2:\n      0x00\n      dup1\n      revert\n        /* \"chapter07/EventHistoryTest.sol\":260:392  function updateData(uint256 _data, string calldata _message) public {... */\n    tag_3:\n      tag_4\n      0x04\n      dup1\n      calldatasize\n      sub\n      dup2\n      add\n      swap1\n      tag_5\n      swap2\n      swap1\n      tag_6\n      jump\t// in\n    tag_5:\n      tag_7\n      jump\t// in\n    tag_4:\n      stop\n    tag_7:\n        /* \"chapter07/EventHistoryTest.sol\":356:366  msg.sender */\n      caller\n        /* \"chapter07/EventHistoryTest.sol\":344:384  DataChanged(msg.sender, _data, _message) */\n      0xffffffffffffffffffffffffffffffffffffffff\n      and\n      0x2c59ca8ece54c6eb184cf50feb693388ef0257b266adc345b1404ee1165a71da\n        /* \"chapter07/EventHistoryTest.sol\":368:373  _data */\n      dup5\n        /* \"chapter07/EventHistoryTest.sol\":375:383  _message */\n      dup5\n      dup5\n        /* \"chapter07/EventHistoryTest.sol\":344:384  DataChanged(msg.sender, _data, _message) */\n      mload(0x40)\n      tag_9\n      swap4\n      swap3\n      swap2\n      swap1\n      tag_10\n      jump\t// in\n    tag_9:\n      mload(0x40)\n      dup1\n      swap2\n      sub\n      swap1\n      log2\n        /* \"chapter07/EventHistoryTest.sol\":260:392  function updateData(uint256 _data, string calldata _message) public {... */\n      pop\n      pop\n      pop\n      jump\t// out\n        /* \"#utility.yul\":88:205   */\n    tag_12:\n        /* \"#utility.yul\":197:198   */\n      0x00\n        /* \"#utility.yul\":194:195   */\n      dup1\n        /* \"#utility.yul\":187:199   */\n      revert\n        /* \"#utility.yul\":211:328   */\n    tag_13:\n        /* \"#utility.yul\":320:321   */\n      0x00\n        /* \"#utility.yul\":317:318   */\n      dup1\n        /* \"#utility.yul\":310:322   */\n      revert\n        /* \"#utility.yul\":334:411   */\n    tag_14:\n        /* \"#utility.yul\":371:378   */\n      0x00\n        /* \"#utility.yul\":400:405   */\n      dup2\n        /* \"#utility.yul\":389:405   */\n      swap1\n      pop\n        /* \"#utility.yul\":334:411   */\n      swap2\n      swap1\n      pop\n      jump\t// out\n        /* \"#utility.yul\":417:539   */\n    tag_15:\n        /* \"#utility.yul\":490:514   */\n      tag_32\n        /* \"#utility.yul\":508:513   */\n      dup2\n        /* \"#utility.yul\":490:514   */\n      tag_14\n      jump\t// in\n    tag_32:\n        /* \"#utility.yul\":483:488   */\n      dup2\n        /* \"#utility.yul\":480:515   */\n      eq\n        /* \"#utility.yul\":470:533   */\n      tag_33\n      jumpi\n        /* \"#utility.yul\":529:530   */\n      0x00\n        /* \"#utility.yul\":526:527   */\n      dup1\n        /* \"#utility.yul\":519:531   */\n      revert\n        /* \"#utility.yul\":470:533   */\n    tag_33:\n        /* \"#utility.yul\":417:539   */\n      pop\n      jump\t// out\n        /* \"#utility.yul\":545:684   */\n    tag_16:\n        /* \"#utility.yul\":591:596   */\n      0x00\n        /* \"#utility.yul\":629:635   */\n      dup2\n        /* \"#utility.yul\":616:636   */\n      calldataload\n        /* \"#utility.yul\":607:636   */\n      swap1\n      pop\n        /* \"#utility.yul\":645:678   */\n      tag_35\n        /* \"#utility.yul\":672:677   */\n      dup2\n        /* \"#utility.yul\":645:678   */\n      tag_15\n      jump\t// in\n    tag_35:\n        /* \"#utility.yul\":545:684   */\n      swap3\n      swap2\n      pop\n      pop\n      jump\t// out\n        /* \"#utility.yul\":690:807   */\n    tag_17:\n        /* \"#utility.yul\":799:800   */\n      0x00\n        /* \"#utility.yul\":796:797   */\n      dup1\n        /* \"#utility.yul\":789:801   */\n      revert\n        /* \"#utility.yul\":813:930   */\n    tag_18:\n        /* \"#utility.yul\":922:923   */\n      0x00\n        /* \"#utility.yul\":919:920   */\n      dup1\n        /* \"#utility.yul\":912:924   */\n      revert\n        /* \"#utility.yul\":936:1053   */\n    tag_19:\n        /* \"#utility.yul\":1045:1046   */\n      0x00\n        /* \"#utility.yul\":1042:1043   */\n      dup1\n        /* \"#utility.yul\":1035:1047   */\n      revert\n        /* \"#utility.yul\":1073:1626   */\n    tag_20:\n        /* \"#utility.yul\":1131:1139   */\n      0x00\n        /* \"#utility.yul\":1141:1147   */\n      dup1\n        /* \"#utility.yul\":1191:1194   */\n      dup4\n        /* \"#utility.yul\":1184:1188   */\n      0x1f\n        /* \"#utility.yul\":1176:1182   */\n      dup5\n        /* \"#utility.yul\":1172:1189   */\n      add\n        /* \"#utility.yul\":1168:1195   */\n      slt\n        /* \"#utility.yul\":1158:1280   */\n      tag_40\n      jumpi\n        /* \"#utility.yul\":1199:1278   */\n      tag_41\n      tag_17\n      jump\t// in\n    tag_41:\n        /* \"#utility.yul\":1158:1280   */\n    tag_40:\n        /* \"#utility.yul\":1312:1318   */\n      dup3\n        /* \"#utility.yul\":1299:1319   */\n      calldataload\n        /* \"#utility.yul\":1289:1319   */\n      swap1\n      pop\n        /* \"#utility.yul\":1342:1360   */\n      0xffffffffffffffff\n        /* \"#utility.yul\":1334:1340   */\n      dup2\n        /* \"#utility.yul\":1331:1361   */\n      gt\n        /* \"#utility.yul\":1328:1445   */\n      iszero\n      tag_42\n      jumpi\n        /* \"#utility.yul\":1364:1443   */\n      tag_43\n      tag_18\n      jump\t// in\n    tag_43:\n        /* \"#utility.yul\":1328:1445   */\n    tag_42:\n        /* \"#utility.yul\":1478:1482   */\n      0x20\n        /* \"#utility.yul\":1470:1476   */\n      dup4\n        /* \"#utility.yul\":1466:1483   */\n      add\n        /* \"#utility.yul\":1454:1483   */\n      swap2\n      pop\n        /* \"#utility.yul\":1532:1535   */\n      dup4\n        /* \"#utility.yul\":1524:1528   */\n      0x01\n        /* \"#utility.yul\":1516:1522   */\n      dup3\n        /* \"#utility.yul\":1512:1529   */\n      mul\n        /* \"#utility.yul\":1502:1510   */\n      dup4\n        /* \"#utility.yul\":1498:1530   */\n      add\n        /* \"#utility.yul\":1495:1536   */\n      gt\n        /* \"#utility.yul\":1492:1620   */\n      iszero\n      tag_44\n      jumpi\n        /* \"#utility.yul\":1539:1618   */\n      tag_45\n      tag_19\n      jump\t// in\n    tag_45:\n        /* \"#utility.yul\":1492:1620   */\n    tag_44:\n        /* \"#utility.yul\":1073:1626   */\n      swap3\n      pop\n      swap3\n      swap1\n      pop\n      jump\t// out\n        /* \"#utility.yul\":1632:2306   */\n    tag_6:\n        /* \"#utility.yul\":1712:1718   */\n      0x00\n        /* \"#utility.yul\":1720:1726   */\n      dup1\n        /* \"#utility.yul\":1728:1734   */\n      0x00\n        /* \"#utility.yul\":1777:1779   */\n      0x40\n        /* \"#utility.yul\":1765:1774   */\n      dup5\n        /* \"#utility.yul\":1756:1763   */\n      dup7\n        /* \"#utility.yul\":1752:1775   */\n      sub\n        /* \"#utility.yul\":1748:1780   */\n      slt\n        /* \"#utility.yul\":1745:1864   */\n      iszero\n      tag_47\n      jumpi\n        /* \"#utility.yul\":1783:1862   */\n      tag_48\n      tag_12\n      jump\t// in\n    tag_48:\n        /* \"#utility.yul\":1745:1864   */\n    tag_47:\n        /* \"#utility.yul\":1903:1904   */\n      0x00\n        /* \"#utility.yul\":1928:1981   */\n      tag_49\n        /* \"#utility.yul\":1973:1980   */\n      dup7\n        /* \"#utility.yul\":1964:1970   */\n      dup3\n        /* \"#utility.yul\":1953:1962   */\n      dup8\n        /* \"#utility.yul\":1949:1971   */\n      add\n        /* \"#utility.yul\":1928:1981   */\n      tag_16\n      jump\t// in\n    tag_49:\n        /* \"#utility.yul\":1918:1981   */\n      swap4\n      pop\n        /* \"#utility.yul\":1874:1991   */\n      pop\n        /* \"#utility.yul\":2058:2060   */\n      0x20\n        /* \"#utility.yul\":2047:2056   */\n      dup5\n        /* \"#utility.yul\":2043:2061   */\n      add\n        /* \"#utility.yul\":2030:2062   */\n      calldataload\n        /* \"#utility.yul\":2089:2107   */\n      0xffffffffffffffff\n        /* \"#utility.yul\":2081:2087   */\n      dup2\n        /* \"#utility.yul\":2078:2108   */\n      gt\n        /* \"#utility.yul\":2075:2192   */\n      iszero\n      tag_50\n      jumpi\n        /* \"#utility.yul\":2111:2190   */\n      tag_51\n      tag_13\n      jump\t// in\n    tag_51:\n        /* \"#utility.yul\":2075:2192   */\n    tag_50:\n        /* \"#utility.yul\":2224:2289   */\n      tag_52\n        /* \"#utility.yul\":2281:2288   */\n      dup7\n        /* \"#utility.yul\":2272:2278   */\n      dup3\n        /* \"#utility.yul\":2261:2270   */\n      dup8\n        /* \"#utility.yul\":2257:2279   */\n      add\n        /* \"#utility.yul\":2224:2289   */\n      tag_20\n      jump\t// in\n    tag_52:\n        /* \"#utility.yul\":2206:2289   */\n      swap3\n      pop\n      swap3\n      pop\n        /* \"#utility.yul\":2001:2299   */\n      pop\n        /* \"#utility.yul\":1632:2306   */\n      swap3\n      pop\n      swap3\n      pop\n      swap3\n      jump\t// out\n        /* \"#utility.yul\":2312:2430   */\n    tag_21:\n        /* \"#utility.yul\":2399:2423   */\n      tag_54\n        /* \"#utility.yul\":2417:2422   */\n      dup2\n        /* \"#utility.yul\":2399:2423   */\n      tag_14\n      jump\t// in\n    tag_54:\n        /* \"#utility.yul\":2394:2397   */\n      dup3\n        /* \"#utility.yul\":2387:2424   */\n      mstore\n        /* \"#utility.yul\":2312:2430   */\n      pop\n      pop\n      jump\t// out\n        /* \"#utility.yul\":2436:2605   */\n    tag_22:\n        /* \"#utility.yul\":2520:2531   */\n      0x00\n        /* \"#utility.yul\":2554:2560   */\n      dup3\n        /* \"#utility.yul\":2549:2552   */\n      dup3\n        /* \"#utility.yul\":2542:2561   */\n      mstore\n        /* \"#utility.yul\":2594:2598   */\n      0x20\n        /* \"#utility.yul\":2589:2592   */\n      dup3\n        /* \"#utility.yul\":2585:2599   */\n      add\n        /* \"#utility.yul\":2570:2599   */\n      swap1\n      pop\n        /* \"#utility.yul\":2436:2605   */\n      swap3\n      swap2\n      pop\n      pop\n      jump\t// out\n        /* \"#utility.yul\":2611:2757   */\n    tag_23:\n        /* \"#utility.yul\":2708:2714   */\n      dup3\n        /* \"#utility.yul\":2703:2706   */\n      dup2\n        /* \"#utility.yul\":2698:2701   */\n      dup4\n        /* \"#utility.yul\":2685:2715   */\n      calldatacopy\n        /* \"#utility.yul\":2749:2750   */\n      0x00\n        /* \"#utility.yul\":2740:2746   */\n      dup4\n        /* \"#utility.yul\":2735:2738   */\n      dup4\n        /* \"#utility.yul\":2731:2747   */\n      add\n        /* \"#utility.yul\":2724:2751   */\n      mstore\n        /* \"#utility.yul\":2611:2757   */\n      pop\n      pop\n      pop\n      jump\t// out\n        /* \"#utility.yul\":2763:2865   */\n    tag_24:\n        /* \"#utility.yul\":2804:2810   */\n      0x00\n        /* \"#utility.yul\":2855:2857   */\n      0x1f\n        /* \"#utility.yul\":2851:2858   */\n      not\n        /* \"#utility.yul\":2846:2848   */\n      0x1f\n        /* \"#utility.yul\":2839:2844   */\n      dup4\n        /* \"#utility.yul\":2835:2849   */\n      add\n        /* \"#utility.yul\":2831:2859   */\n      and\n        /* \"#utility.yul\":2821:2859   */\n      swap1\n      pop\n        /* \"#utility.yul\":2763:2865   */\n      swap2\n      swap1\n      pop\n      jump\t// out\n        /* \"#utility.yul\":2895:3212   */\n    tag_25:\n        /* \"#utility.yul\":2993:2996   */\n      0x00\n        /* \"#utility.yul\":3014:3085   */\n      tag_59\n        /* \"#utility.yul\":3078:3084   */\n      dup4\n        /* \"#utility.yul\":3073:3076   */\n      dup6\n        /* \"#utility.yul\":3014:3085   */\n      tag_22\n      jump\t// in\n    tag_59:\n        /* \"#utility.yul\":3007:3085   */\n      swap4\n      pop\n        /* \"#utility.yul\":3095:3151   */\n      tag_60\n        /* \"#utility.yul\":3144:3150   */\n      dup4\n        /* \"#utility.yul\":3139:3142   */\n      dup6\n        /* \"#utility.yul\":3132:3137   */\n      dup5\n        /* \"#utility.yul\":3095:3151   */\n      tag_23\n      jump\t// in\n    tag_60:\n        /* \"#utility.yul\":3176:3205   */\n      tag_61\n        /* \"#utility.yul\":3198:3204   */\n      dup4\n        /* \"#utility.yul\":3176:3205   */\n      tag_24\n      jump\t// in\n    tag_61:\n        /* \"#utility.yul\":3171:3174   */\n      dup5\n        /* \"#utility.yul\":3167:3206   */\n      add\n        /* \"#utility.yul\":3160:3206   */\n      swap1\n      pop\n        /* \"#utility.yul\":2895:3212   */\n      swap4\n      swap3\n      pop\n      pop\n      pop\n      jump\t// out\n        /* \"#utility.yul\":3218:3661   */\n    tag_10:\n        /* \"#utility.yul\":3369:3373   */\n      0x00\n        /* \"#utility.yul\":3407:3409   */\n      0x40\n        /* \"#utility.yul\":3396:3405   */\n      dup3\n        /* \"#utility.yul\":3392:3410   */\n      add\n        /* \"#utility.yul\":3384:3410   */\n      swap1\n      pop\n        /* \"#utility.yul\":3420:3491   */\n      tag_63\n        /* \"#utility.yul\":3488:3489   */\n      0x00\n        /* \"#utility.yul\":3477:3486   */\n      dup4\n        /* \"#utility.yul\":3473:3490   */\n      add\n        /* \"#utility.yul\":3464:3470   */\n      dup7\n        /* \"#utility.yul\":3420:3491   */\n      tag_21\n      jump\t// in\n    tag_63:\n        /* \"#utility.yul\":3538:3547   */\n      dup2\n        /* \"#utility.yul\":3532:3536   */\n      dup2\n        /* \"#utility.yul\":3528:3548   */\n      sub\n        /* \"#utility.yul\":3523:3525   */\n      0x20\n        /* \"#utility.yul\":3512:3521   */\n      dup4\n        /* \"#utility.yul\":3508:3526   */\n      add\n        /* \"#utility.yul\":3501:3549   */\n      mstore\n        /* \"#utility.yul\":3566:3654   */\n      tag_64\n        /* \"#utility.yul\":3649:3653   */\n      dup2\n        /* \"#utility.yul\":3640:3646   */\n      dup5\n        /* \"#utility.yul\":3632:3638   */\n      dup7\n        /* \"#utility.yul\":3566:3654   */\n      tag_25\n      jump\t// in\n    tag_64:\n        /* \"#utility.yul\":3558:3654   */\n      swap1\n      pop\n        /* \"#utility.yul\":3218:3661   */\n      swap5\n      swap4\n      pop\n      pop\n      pop\n      pop\n      jump\t// out\n\n    auxdata: 0xa2646970667358221220706063831da6c00a6f977934b9505975cba3096f405ae9bb8d2ded82e510322264736f6c63430008180033\n}\n",
				"bytecode": {
					"linkReferences": {},
					"object": "608060405234801561000f575f80fd5b506102688061001d5f395ff3fe608060405234801561000f575f80fd5b5060043610610029575f3560e01c806389a8e2a71461002d575b5f80fd5b6100476004803603810190610042919061013c565b610049565b005b3373ffffffffffffffffffffffffffffffffffffffff167f2c59ca8ece54c6eb184cf50feb693388ef0257b266adc345b1404ee1165a71da84848460405161009393929190610202565b60405180910390a2505050565b5f80fd5b5f80fd5b5f819050919050565b6100ba816100a8565b81146100c4575f80fd5b50565b5f813590506100d5816100b1565b92915050565b5f80fd5b5f80fd5b5f80fd5b5f8083601f8401126100fc576100fb6100db565b5b8235905067ffffffffffffffff811115610119576101186100df565b5b602083019150836001820283011115610135576101346100e3565b5b9250929050565b5f805f60408486031215610153576101526100a0565b5b5f610160868287016100c7565b935050602084013567ffffffffffffffff811115610181576101806100a4565b5b61018d868287016100e7565b92509250509250925092565b6101a2816100a8565b82525050565b5f82825260208201905092915050565b828183375f83830152505050565b5f601f19601f8301169050919050565b5f6101e183856101a8565b93506101ee8385846101b8565b6101f7836101c6565b840190509392505050565b5f6040820190506102155f830186610199565b81810360208301526102288184866101d6565b905094935050505056fea2646970667358221220706063831da6c00a6f977934b9505975cba3096f405ae9bb8d2ded82e510322264736f6c63430008180033",
					"opcodes": "PUSH1 0x80 PUSH1 0x40 MSTORE CALLVALUE DUP1 ISZERO PUSH2 0xF JUMPI PUSH0 DUP1 REVERT JUMPDEST POP PUSH2 0x268 DUP1 PUSH2 0x1D PUSH0 CODECOPY PUSH0 RETURN INVALID PUSH1 0x80 PUSH1 0x40 MSTORE CALLVALUE DUP1 ISZERO PUSH2 0xF JUMPI PUSH0 DUP1 REVERT JUMPDEST POP PUSH1 0x4 CALLDATASIZE LT PUSH2 0x29 JUMPI PUSH0 CALLDATALOAD PUSH1 0xE0 SHR DUP1 PUSH4 0x89A8E2A7 EQ PUSH2 0x2D JUMPI JUMPDEST PUSH0 DUP1 REVERT JUMPDEST PUSH2 0x47 PUSH1 0x4 DUP1 CALLDATASIZE SUB DUP2 ADD SWAP1 PUSH2 0x42 SWAP2 SWAP1 PUSH2 0x13C JUMP JUMPDEST PUSH2 0x49 JUMP JUMPDEST STOP JUMPDEST CALLER PUSH20 0xFFFFFFFFFFFFFFFFFFFFFFFFFFFFFFFFFFFFFFFF AND PUSH32 0x2C59CA8ECE54C6EB184CF50FEB693388EF0257B266ADC345B1404EE1165A71DA DUP5 DUP5 DUP5 PUSH1 0x40 MLOAD PUSH2 0x93 SWAP4 SWAP3 SWAP2 SWAP1 PUSH2 0x202 JUMP JUMPDEST PUSH1 0x40 MLOAD DUP1 SWAP2 SUB SWAP1 LOG2 POP POP POP JUMP JUMPDEST PUSH0 DUP1 REVERT JUMPDEST PUSH0 DUP1 REVERT JUMPDEST PUSH0 DUP2 SWAP1 POP SWAP2 SWAP1 POP JUMP JUMPDEST PUSH2 0xBA DUP2 PUSH2 0xA8 JUMP JUMPDEST DUP2 EQ PUSH2 0xC4 JUMPI PUSH0 DUP1 REVERT JUMPDEST POP JUMP JUMPDEST PUSH0 DUP2 CALLDATALOAD SWAP1 POP PUSH2 0xD5 DUP2 PUSH2 0xB1 JUMP JUMPDEST SWAP3 SWAP2 POP POP JUMP JUMPDEST PUSH0 DUP1 REVERT JUMPDEST PUSH0 DUP1 REVERT JUMPDEST PUSH0 DUP1 REVERT JUMPDEST PUSH0 DUP1 DUP4 PUSH1 0x1F DUP5 ADD SLT PUSH2 0xFC JUMPI PUSH2 0xFB PUSH2 0xDB JUMP JUMPDEST JUMPDEST DUP3 CALLDATALOAD SWAP1 POP PUSH8 0xFFFFFFFFFFFFFFFF DUP2 GT ISZERO PUSH2 0x119 JUMPI PUSH2 0x118 PUSH2 0xDF JUMP JUMPDEST JUMPDEST PUSH1 0x20 DUP4 ADD SWAP2 POP DUP4 PUSH1 0x1 DUP3 MUL DUP4 ADD GT ISZERO PUSH2 0x135 JUMPI PUSH2 0x134 PUSH2 0xE3 JUMP JUMPDEST JUMPDEST SWAP3 POP SWAP3 SWAP1 POP JUMP JUMPDEST PUSH0 DUP1 PUSH0 PUSH1 0x40 DUP5 DUP7 SUB SLT ISZERO PUSH2 0x153 JUMPI PUSH2 0x152 PUSH2 0xA0 JUMP JUMPDEST JUMPDEST PUSH0 PUSH2 0x160 DUP7 DUP3 DUP8 ADD PUSH2 0xC7 JUMP JUMPDEST SWAP4 POP POP PUSH1 0x20 DUP5 ADD CALLDATALOAD PUSH8 0xFFFFFFFFFFFFFFFF DUP2 GT ISZERO PUSH2 0x181 JUMPI PUSH2 0x180 PUSH2 0xA4 JUMP JUMPDEST JUMPDEST PUSH2 0x18D DUP7 DUP3 DUP8 ADD PUSH2 0xE7 JUMP JUMPDEST SWAP3 POP SWAP3 POP POP SWAP3 POP SWAP3 POP SWAP3 JUMP JUMPDEST PUSH2 0x1A2 DUP2 PUSH2 0xA8 JUMP JUMPDEST DUP3 MSTORE POP POP JUMP JUMPDEST PUSH0 DUP3 DUP3 MSTORE PUSH1 0x20 DUP3 ADD SWAP1 POP SWAP3 SWAP2 POP POP JUMP JUMPDEST DUP3 DUP2 DUP4 CALLDATACOPY PUSH0 DUP4 DUP4 ADD MSTORE POP POP POP JUMP JUMPDEST PUSH0 PUSH1 0x1F NOT PUSH1 0x1F DUP4 ADD AND SWAP1 POP SWAP2 SWAP1 POP JUMP JUMPDEST PUSH0 PUSH2 0x1E1 DUP4 DUP6 PUSH2 0x1A8 JUMP JUMPDEST SWAP4 POP PUSH2 0x1EE DUP4 DUP6 DUP5 PUSH2 0x1B8 JUMP JUMPDEST PUSH2 0x1F7 DUP4 PUSH2 0x1C6 JUMP JUMPDEST DUP5 ADD SWAP1 POP SWAP4 SWAP3 POP POP POP JUMP JUMPDEST PUSH0 PUSH1 0x40 DUP3 ADD SWAP1 POP PUSH2 0x215 PUSH0 DUP4 ADD DUP7 PUSH2 0x199 JUMP JUMPDEST DUP2 DUP2 SUB PUSH1 0x20 DUP4 ADD MSTORE PUSH2 0x228 DUP2 DUP5 DUP7 PUSH2 0x1D6 JUMP JUMPDEST SWAP1 POP SWAP5 SWAP4 POP POP POP POP JUMP INVALID LOG2 PUSH5 0x6970667358 0x22 SLT KECCAK256 PUSH17 0x6063831DA6C00A6F977934B9505975CBA3 MULMOD PUSH16 0x405AE9BB8D2DED82E510322264736F6C PUSH4 0x43000818 STOP CALLER "
				},
				"gasEstimates": {
					"creation": {
						"codeDepositCost": "123200",
						"executionCost": "169",
						"totalCost": "123369"
					},
					"external": {
						"updateData(uint256,string)": "infinite"
					}
				},
				"methodIdentifiers": {
					"updateData(uint256,string)": "89a8e2a7"
				}
			},
			"storageLayout": {
				"storage": [],
				"types": null
			},
			"userdoc": {
				"kind": "user",
				"methods": {},
				"version": 1
			}
		}
	}
}