{
	"chapter04/review2.sol": {
		"SimpleCrowdFund": {
			"abi": [
				{
					"inputs": [],
					"name": "MINIMUM_DURATION",
					"outputs": [
						{
							"internalType": "uint256",
							"name": "",
							"type": "uint256"
						}
					],
					"stateMutability": "view",
					"type": "function"
				},
				{
					"inputs": [
						{
							"internalType": "uint256",
							"name": "",
							"type": "uint256"
						}
					],
					"name": "campaigns",
					"outputs": [
						{
							"internalType": "address payable",
							"name": "creator",
							"type": "address"
						},
						{
							"internalType": "uint256",
							"name": "goal",
							"type": "uint256"
						},
						{
							"internalType": "uint256",
							"name": "deadline",
							"type": "uint256"
						},
						{
							"internalType": "uint256",
							"name": "raisedAmount",
							"type": "uint256"
						},
						{
							"internalType": "bool",
							"name": "completed",
							"type": "bool"
						}
					],
					"stateMutability": "view",
					"type": "function"
				},
				{
					"inputs": [
						{
							"internalType": "uint256",
							"name": "_campaignId",
							"type": "uint256"
						}
					],
					"name": "contribute",
					"outputs": [],
					"stateMutability": "payable",
					"type": "function"
				},
				{
					"inputs": [
						{
							"internalType": "uint256",
							"name": "",
							"type": "uint256"
						},
						{
							"internalType": "address",
							"name": "",
							"type": "address"
						}
					],
					"name": "contributions",
					"outputs": [
						{
							"internalType": "uint256",
							"name": "",
							"type": "uint256"
						}
					],
					"stateMutability": "view",
					"type": "function"
				},
				{
					"inputs": [
						{
							"internalType": "uint256",
							"name": "_goal",
							"type": "uint256"
						},
						{
							"internalType": "uint256",
							"name": "_durationInDays",
							"type": "uint256"
						}
					],
					"name": "createCampaign",
					"outputs": [],
					"stateMutability": "nonpayable",
					"type": "function"
				},
				{
					"inputs": [
						{
							"internalType": "uint256",
							"name": "_campaignId",
							"type": "uint256"
						}
					],
					"name": "withdrawFunds",
					"outputs": [],
					"stateMutability": "nonpayable",
					"type": "function"
				}
			],
			"devdoc": {
				"kind": "dev",
				"methods": {
					"contribute(uint256)": {
						"details": "为一个项目捐款",
						"params": {
							"_campaignId": "项目的ID (即它在数组中的索引)"
						}
					},
					"createCampaign(uint256,uint256)": {
						"details": "创建一个新的众筹项目",
						"params": {
							"_durationInDays": "众筹持续天数",
							"_goal": "筹款目标 (以 ether 为单位)"
						}
					},
					"withdrawFunds(uint256)": {
						"details": "项目发起人提取资金",
						"params": {
							"_campaignId": "项目ID"
						}
					}
				},
				"version": 1
			},
			"evm": {
				"assembly": "    /* \"chapter04/review2.sol\":61:3541  contract SimpleCrowdFund {... */\n  mstore(0x40, 0x80)\n  callvalue\n  dup1\n  iszero\n  tag_1\n  jumpi\n  0x00\n  dup1\n  revert\ntag_1:\n  pop\n  dataSize(sub_0)\n  dup1\n  dataOffset(sub_0)\n  0x00\n  codecopy\n  0x00\n  return\nstop\n\nsub_0: assembly {\n        /* \"chapter04/review2.sol\":61:3541  contract SimpleCrowdFund {... */\n      mstore(0x40, 0x80)\n      jumpi(tag_1, lt(calldatasize, 0x04))\n      shr(0xe0, calldataload(0x00))\n      dup1\n      0x141961bc\n      eq\n      tag_2\n      jumpi\n      dup1\n      0x155dd5ee\n      eq\n      tag_3\n      jumpi\n      dup1\n      0x22502268\n      eq\n      tag_4\n      jumpi\n      dup1\n      0x2d28e89d\n      eq\n      tag_5\n      jumpi\n      dup1\n      0x3d891f59\n      eq\n      tag_6\n      jumpi\n      dup1\n      0xc1cbbca7\n      eq\n      tag_7\n      jumpi\n    tag_1:\n      0x00\n      dup1\n      revert\n        /* \"chapter04/review2.sol\":666:693  Campaign[] public campaigns */\n    tag_2:\n      callvalue\n      dup1\n      iszero\n      tag_8\n      jumpi\n      0x00\n      dup1\n      revert\n    tag_8:\n      pop\n      tag_9\n      0x04\n      dup1\n      calldatasize\n      sub\n      dup2\n      add\n      swap1\n      tag_10\n      swap2\n      swap1\n      tag_11\n      jump\t// in\n    tag_10:\n      tag_12\n      jump\t// in\n    tag_9:\n      mload(0x40)\n      tag_13\n      swap6\n      swap5\n      swap4\n      swap3\n      swap2\n      swap1\n      tag_14\n      jump\t// in\n    tag_13:\n      mload(0x40)\n      dup1\n      swap2\n      sub\n      swap1\n      return\n        /* \"chapter04/review2.sol\":2756:3538  function withdrawFunds(uint _campaignId) public {... */\n    tag_3:\n      callvalue\n      dup1\n      iszero\n      tag_15\n      jumpi\n      0x00\n      dup1\n      revert\n    tag_15:\n      pop\n      tag_16\n      0x04\n      dup1\n      calldatasize\n      sub\n      dup2\n      add\n      swap1\n      tag_17\n      swap2\n      swap1\n      tag_11\n      jump\t// in\n    tag_17:\n      tag_18\n      jump\t// in\n    tag_16:\n      stop\n        /* \"chapter04/review2.sol\":1016:1807  function createCampaign(uint _goal, uint _durationInDays) public {... */\n    tag_4:\n      callvalue\n      dup1\n      iszero\n      tag_19\n      jumpi\n      0x00\n      dup1\n      revert\n    tag_19:\n      pop\n      tag_20\n      0x04\n      dup1\n      calldatasize\n      sub\n      dup2\n      add\n      swap1\n      tag_21\n      swap2\n      swap1\n      tag_22\n      jump\t// in\n    tag_21:\n      tag_23\n      jump\t// in\n    tag_20:\n      stop\n        /* \"chapter04/review2.sol\":560:606  uint constant public MINIMUM_DURATION = 7 days */\n    tag_5:\n      callvalue\n      dup1\n      iszero\n      tag_24\n      jumpi\n      0x00\n      dup1\n      revert\n    tag_24:\n      pop\n      tag_25\n      tag_26\n      jump\t// in\n    tag_25:\n      mload(0x40)\n      tag_27\n      swap2\n      swap1\n      tag_28\n      jump\t// in\n    tag_27:\n      mload(0x40)\n      dup1\n      swap2\n      sub\n      swap1\n      return\n        /* \"chapter04/review2.sol\":777:839  mapping(uint => mapping(address => uint)) public contributions */\n    tag_6:\n      callvalue\n      dup1\n      iszero\n      tag_29\n      jumpi\n      0x00\n      dup1\n      revert\n    tag_29:\n      pop\n      tag_30\n      0x04\n      dup1\n      calldatasize\n      sub\n      dup2\n      add\n      swap1\n      tag_31\n      swap2\n      swap1\n      tag_32\n      jump\t// in\n    tag_31:\n      tag_33\n      jump\t// in\n    tag_30:\n      mload(0x40)\n      tag_34\n      swap2\n      swap1\n      tag_28\n      jump\t// in\n    tag_34:\n      mload(0x40)\n      dup1\n      swap2\n      sub\n      swap1\n      return\n        /* \"chapter04/review2.sol\":1937:2653  function contribute(uint _campaignId) public payable {... */\n    tag_7:\n      tag_35\n      0x04\n      dup1\n      calldatasize\n      sub\n      dup2\n      add\n      swap1\n      tag_36\n      swap2\n      swap1\n      tag_11\n      jump\t// in\n    tag_36:\n      tag_37\n      jump\t// in\n    tag_35:\n      stop\n        /* \"chapter04/review2.sol\":666:693  Campaign[] public campaigns */\n    tag_12:\n      0x00\n      dup2\n      dup2\n      sload\n      dup2\n      lt\n      tag_38\n      jumpi\n      0x00\n      dup1\n      revert\n    tag_38:\n      swap1\n      0x00\n      mstore\n      keccak256(0x00, 0x20)\n      swap1\n      0x05\n      mul\n      add\n      0x00\n      swap2\n      pop\n      swap1\n      pop\n      dup1\n      0x00\n      add\n      0x00\n      swap1\n      sload\n      swap1\n      0x0100\n      exp\n      swap1\n      div\n      0xffffffffffffffffffffffffffffffffffffffff\n      and\n      swap1\n      dup1\n      0x01\n      add\n      sload\n      swap1\n      dup1\n      0x02\n      add\n      sload\n      swap1\n      dup1\n      0x03\n      add\n      sload\n      swap1\n      dup1\n      0x04\n      add\n      0x00\n      swap1\n      sload\n      swap1\n      0x0100\n      exp\n      swap1\n      div\n      0xff\n      and\n      swap1\n      pop\n      dup6\n      jump\t// out\n        /* \"chapter04/review2.sol\":2756:3538  function withdrawFunds(uint _campaignId) public {... */\n    tag_18:\n        /* \"chapter04/review2.sol\":2837:2846  campaigns */\n      0x00\n        /* \"chapter04/review2.sol\":2837:2853  campaigns.length */\n      dup1\n      sload\n      swap1\n      pop\n        /* \"chapter04/review2.sol\":2823:2834  _campaignId */\n      dup2\n        /* \"chapter04/review2.sol\":2823:2853  _campaignId < campaigns.length */\n      lt\n        /* \"chapter04/review2.sol\":2815:2882  require(_campaignId < campaigns.length, \"Campaign does not exist.\") */\n      tag_41\n      jumpi\n      mload(0x40)\n      0x08c379a000000000000000000000000000000000000000000000000000000000\n      dup2\n      mstore\n      0x04\n      add\n      tag_42\n      swap1\n      tag_43\n      jump\t// in\n    tag_42:\n      mload(0x40)\n      dup1\n      swap2\n      sub\n      swap1\n      revert\n    tag_41:\n        /* \"chapter04/review2.sol\":2903:2928  Campaign storage campaign */\n      0x00\n        /* \"chapter04/review2.sol\":2931:2940  campaigns */\n      dup1\n        /* \"chapter04/review2.sol\":2941:2952  _campaignId */\n      dup3\n        /* \"chapter04/review2.sol\":2931:2953  campaigns[_campaignId] */\n      dup2\n      sload\n      dup2\n      lt\n      tag_44\n      jumpi\n      tag_45\n      tag_46\n      jump\t// in\n    tag_45:\n    tag_44:\n      swap1\n      0x00\n      mstore\n      keccak256(0x00, 0x20)\n      swap1\n      0x05\n      mul\n      add\n        /* \"chapter04/review2.sol\":2903:2953  Campaign storage campaign = campaigns[_campaignId] */\n      swap1\n      pop\n        /* \"chapter04/review2.sol\":2988:2996  campaign */\n      dup1\n        /* \"chapter04/review2.sol\":2988:3004  campaign.creator */\n      0x00\n      add\n      0x00\n      swap1\n      sload\n      swap1\n      0x0100\n      exp\n      swap1\n      div\n      0xffffffffffffffffffffffffffffffffffffffff\n      and\n        /* \"chapter04/review2.sol\":2974:3004  msg.sender == campaign.creator */\n      0xffffffffffffffffffffffffffffffffffffffff\n      and\n        /* \"chapter04/review2.sol\":2974:2984  msg.sender */\n      caller\n        /* \"chapter04/review2.sol\":2974:3004  msg.sender == campaign.creator */\n      0xffffffffffffffffffffffffffffffffffffffff\n      and\n      eq\n        /* \"chapter04/review2.sol\":2966:3039  require(msg.sender == campaign.creator, \"Only the creator can withdraw.\") */\n      tag_48\n      jumpi\n      mload(0x40)\n      0x08c379a000000000000000000000000000000000000000000000000000000000\n      dup2\n      mstore\n      0x04\n      add\n      tag_49\n      swap1\n      tag_50\n      jump\t// in\n    tag_49:\n      mload(0x40)\n      dup1\n      swap2\n      sub\n      swap1\n      revert\n    tag_48:\n        /* \"chapter04/review2.sol\":3077:3085  campaign */\n      dup1\n        /* \"chapter04/review2.sol\":3077:3094  campaign.deadline */\n      0x02\n      add\n      sload\n        /* \"chapter04/review2.sol\":3058:3073  block.timestamp */\n      timestamp\n        /* \"chapter04/review2.sol\":3058:3094  block.timestamp >= campaign.deadline */\n      lt\n      iszero\n        /* \"chapter04/review2.sol\":3050:3126  require(block.timestamp >= campaign.deadline, \"Campaign has not ended yet.\") */\n      tag_51\n      jumpi\n      mload(0x40)\n      0x08c379a000000000000000000000000000000000000000000000000000000000\n      dup2\n      mstore\n      0x04\n      add\n      tag_52\n      swap1\n      tag_53\n      jump\t// in\n    tag_52:\n      mload(0x40)\n      dup1\n      swap2\n      sub\n      swap1\n      revert\n    tag_51:\n        /* \"chapter04/review2.sol\":3170:3178  campaign */\n      dup1\n        /* \"chapter04/review2.sol\":3170:3183  campaign.goal */\n      0x01\n      add\n      sload\n        /* \"chapter04/review2.sol\":3145:3153  campaign */\n      dup2\n        /* \"chapter04/review2.sol\":3145:3166  campaign.raisedAmount */\n      0x03\n      add\n      sload\n        /* \"chapter04/review2.sol\":3145:3183  campaign.raisedAmount >= campaign.goal */\n      lt\n      iszero\n        /* \"chapter04/review2.sol\":3137:3214  require(campaign.raisedAmount >= campaign.goal, \"Campaign goal not reached.\") */\n      tag_54\n      jumpi\n      mload(0x40)\n      0x08c379a000000000000000000000000000000000000000000000000000000000\n      dup2\n      mstore\n      0x04\n      add\n      tag_55\n      swap1\n      tag_56\n      jump\t// in\n    tag_55:\n      mload(0x40)\n      dup1\n      swap2\n      sub\n      swap1\n      revert\n    tag_54:\n        /* \"chapter04/review2.sol\":3234:3242  campaign */\n      dup1\n        /* \"chapter04/review2.sol\":3234:3252  campaign.completed */\n      0x04\n      add\n      0x00\n      swap1\n      sload\n      swap1\n      0x0100\n      exp\n      swap1\n      div\n      0xff\n      and\n        /* \"chapter04/review2.sol\":3233:3252  !campaign.completed */\n      iszero\n        /* \"chapter04/review2.sol\":3225:3291  require(!campaign.completed, \"Funds have already been withdrawn.\") */\n      tag_57\n      jumpi\n      mload(0x40)\n      0x08c379a000000000000000000000000000000000000000000000000000000000\n      dup2\n      mstore\n      0x04\n      add\n      tag_58\n      swap1\n      tag_59\n      jump\t// in\n    tag_58:\n      mload(0x40)\n      dup1\n      swap2\n      sub\n      swap1\n      revert\n    tag_57:\n        /* \"chapter04/review2.sol\":3325:3329  true */\n      0x01\n        /* \"chapter04/review2.sol\":3304:3312  campaign */\n      dup2\n        /* \"chapter04/review2.sol\":3304:3322  campaign.completed */\n      0x04\n      add\n      0x00\n        /* \"chapter04/review2.sol\":3304:3329  campaign.completed = true */\n      0x0100\n      exp\n      dup2\n      sload\n      dup2\n      0xff\n      mul\n      not\n      and\n      swap1\n      dup4\n      iszero\n      iszero\n      mul\n      or\n      swap1\n      sstore\n      pop\n        /* \"chapter04/review2.sol\":3412:3421  bool sent */\n      0x00\n        /* \"chapter04/review2.sol\":3427:3435  campaign */\n      dup2\n        /* \"chapter04/review2.sol\":3427:3443  campaign.creator */\n      0x00\n      add\n      0x00\n      swap1\n      sload\n      swap1\n      0x0100\n      exp\n      swap1\n      div\n      0xffffffffffffffffffffffffffffffffffffffff\n      and\n        /* \"chapter04/review2.sol\":3427:3448  campaign.creator.call */\n      0xffffffffffffffffffffffffffffffffffffffff\n      and\n        /* \"chapter04/review2.sol\":3456:3464  campaign */\n      dup3\n        /* \"chapter04/review2.sol\":3456:3477  campaign.raisedAmount */\n      0x03\n      add\n      sload\n        /* \"chapter04/review2.sol\":3427:3482  campaign.creator.call{value: campaign.raisedAmount}(\"\") */\n      mload(0x40)\n      tag_60\n      swap1\n      tag_61\n      jump\t// in\n    tag_60:\n      0x00\n      mload(0x40)\n      dup1\n      dup4\n      sub\n      dup2\n      dup6\n      dup8\n      gas\n      call\n      swap3\n      pop\n      pop\n      pop\n      returndatasize\n      dup1\n      0x00\n      dup2\n      eq\n      tag_64\n      jumpi\n      mload(0x40)\n      swap2\n      pop\n      and(add(returndatasize, 0x3f), not(0x1f))\n      dup3\n      add\n      0x40\n      mstore\n      returndatasize\n      dup3\n      mstore\n      returndatasize\n      0x00\n      0x20\n      dup5\n      add\n      returndatacopy\n      jump(tag_63)\n    tag_64:\n      0x60\n      swap2\n      pop\n    tag_63:\n      pop\n        /* \"chapter04/review2.sol\":3411:3482  (bool sent, ) = campaign.creator.call{value: campaign.raisedAmount}(\"\") */\n      pop\n      swap1\n      pop\n        /* \"chapter04/review2.sol\":3501:3505  sent */\n      dup1\n        /* \"chapter04/review2.sol\":3493:3530  require(sent, \"Failed to send Ether\") */\n      tag_65\n      jumpi\n      mload(0x40)\n      0x08c379a000000000000000000000000000000000000000000000000000000000\n      dup2\n      mstore\n      0x04\n      add\n      tag_66\n      swap1\n      tag_67\n      jump\t// in\n    tag_66:\n      mload(0x40)\n      dup1\n      swap2\n      sub\n      swap1\n      revert\n    tag_65:\n        /* \"chapter04/review2.sol\":2804:3538  {... */\n      pop\n      pop\n        /* \"chapter04/review2.sol\":2756:3538  function withdrawFunds(uint _campaignId) public {... */\n      pop\n      jump\t// out\n        /* \"chapter04/review2.sol\":1016:1807  function createCampaign(uint _goal, uint _durationInDays) public {... */\n    tag_23:\n        /* \"chapter04/review2.sol\":600:606  7 days */\n      0x093a80\n        /* \"chapter04/review2.sol\":1118:1124  1 days */\n      0x015180\n        /* \"chapter04/review2.sol\":1100:1115  _durationInDays */\n      dup3\n        /* \"chapter04/review2.sol\":1100:1124  _durationInDays * 1 days */\n      tag_69\n      swap2\n      swap1\n      tag_70\n      jump\t// in\n    tag_69:\n        /* \"chapter04/review2.sol\":1100:1144  _durationInDays * 1 days >= MINIMUM_DURATION */\n      lt\n      iszero\n        /* \"chapter04/review2.sol\":1092:1180  require(_durationInDays * 1 days >= MINIMUM_DURATION, \"Campaign duration is too short.\") */\n      tag_71\n      jumpi\n      mload(0x40)\n      0x08c379a000000000000000000000000000000000000000000000000000000000\n      dup2\n      mstore\n      0x04\n      add\n      tag_72\n      swap1\n      tag_73\n      jump\t// in\n    tag_72:\n      mload(0x40)\n      dup1\n      swap2\n      sub\n      swap1\n      revert\n    tag_71:\n        /* \"chapter04/review2.sol\":1303:1317  uint goalInWei */\n      0x00\n        /* \"chapter04/review2.sol\":1329:1335  10**18 */\n      0x0de0b6b3a7640000\n        /* \"chapter04/review2.sol\":1320:1325  _goal */\n      dup4\n        /* \"chapter04/review2.sol\":1320:1336  _goal * (10**18) */\n      tag_74\n      swap2\n      swap1\n      tag_70\n      jump\t// in\n    tag_74:\n        /* \"chapter04/review2.sol\":1303:1336  uint goalInWei = _goal * (10**18) */\n      swap1\n      pop\n        /* \"chapter04/review2.sol\":1498:1526  Campaign storage newCampaign */\n      0x00\n        /* \"chapter04/review2.sol\":1529:1538  campaigns */\n      dup1\n        /* \"chapter04/review2.sol\":1529:1545  campaigns.push() */\n      0x01\n      dup2\n      0x01\n      dup2\n      sload\n      add\n      dup1\n      dup3\n      sstore\n      dup1\n      swap2\n      pop\n      pop\n      sub\n      swap1\n      0x00\n      mstore\n      keccak256(0x00, 0x20)\n      swap1\n      0x05\n      mul\n      add\n        /* \"chapter04/review2.sol\":1498:1545  Campaign storage newCampaign = campaigns.push() */\n      swap1\n      pop\n        /* \"chapter04/review2.sol\":1628:1638  msg.sender */\n      caller\n        /* \"chapter04/review2.sol\":1598:1609  newCampaign */\n      dup2\n        /* \"chapter04/review2.sol\":1598:1617  newCampaign.creator */\n      0x00\n      add\n      0x00\n        /* \"chapter04/review2.sol\":1598:1639  newCampaign.creator = payable(msg.sender) */\n      0x0100\n      exp\n      dup2\n      sload\n      dup2\n      0xffffffffffffffffffffffffffffffffffffffff\n      mul\n      not\n      and\n      swap1\n      dup4\n      0xffffffffffffffffffffffffffffffffffffffff\n      and\n      mul\n      or\n      swap1\n      sstore\n      pop\n        /* \"chapter04/review2.sol\":1669:1678  goalInWei */\n      dup2\n        /* \"chapter04/review2.sol\":1650:1661  newCampaign */\n      dup2\n        /* \"chapter04/review2.sol\":1650:1666  newCampaign.goal */\n      0x01\n      add\n        /* \"chapter04/review2.sol\":1650:1678  newCampaign.goal = goalInWei */\n      dup2\n      swap1\n      sstore\n      pop\n        /* \"chapter04/review2.sol\":1792:1798  1 days */\n      0x015180\n        /* \"chapter04/review2.sol\":1774:1789  _durationInDays */\n      dup4\n        /* \"chapter04/review2.sol\":1774:1798  _durationInDays * 1 days */\n      tag_76\n      swap2\n      swap1\n      tag_70\n      jump\t// in\n    tag_76:\n        /* \"chapter04/review2.sol\":1755:1770  block.timestamp */\n      timestamp\n        /* \"chapter04/review2.sol\":1755:1799  block.timestamp + (_durationInDays * 1 days) */\n      tag_77\n      swap2\n      swap1\n      tag_78\n      jump\t// in\n    tag_77:\n        /* \"chapter04/review2.sol\":1732:1743  newCampaign */\n      dup2\n        /* \"chapter04/review2.sol\":1732:1752  newCampaign.deadline */\n      0x02\n      add\n        /* \"chapter04/review2.sol\":1732:1799  newCampaign.deadline = block.timestamp + (_durationInDays * 1 days) */\n      dup2\n      swap1\n      sstore\n      pop\n        /* \"chapter04/review2.sol\":1081:1807  {... */\n      pop\n      pop\n        /* \"chapter04/review2.sol\":1016:1807  function createCampaign(uint _goal, uint _durationInDays) public {... */\n      pop\n      pop\n      jump\t// out\n        /* \"chapter04/review2.sol\":560:606  uint constant public MINIMUM_DURATION = 7 days */\n    tag_26:\n        /* \"chapter04/review2.sol\":600:606  7 days */\n      0x093a80\n        /* \"chapter04/review2.sol\":560:606  uint constant public MINIMUM_DURATION = 7 days */\n      dup2\n      jump\t// out\n        /* \"chapter04/review2.sol\":777:839  mapping(uint => mapping(address => uint)) public contributions */\n    tag_33:\n      mstore(0x20, 0x01)\n      dup2\n      0x00\n      mstore\n      mstore(0x20, keccak256(0x00, 0x40))\n      dup1\n      0x00\n      mstore\n      keccak256(0x00, 0x40)\n      0x00\n      swap2\n      pop\n      swap2\n      pop\n      pop\n      sload\n      dup2\n      jump\t// out\n        /* \"chapter04/review2.sol\":1937:2653  function contribute(uint _campaignId) public payable {... */\n    tag_37:\n        /* \"chapter04/review2.sol\":2073:2082  campaigns */\n      0x00\n        /* \"chapter04/review2.sol\":2073:2089  campaigns.length */\n      dup1\n      sload\n      swap1\n      pop\n        /* \"chapter04/review2.sol\":2059:2070  _campaignId */\n      dup2\n        /* \"chapter04/review2.sol\":2059:2089  _campaignId < campaigns.length */\n      lt\n        /* \"chapter04/review2.sol\":2051:2118  require(_campaignId < campaigns.length, \"Campaign does not exist.\") */\n      tag_80\n      jumpi\n      mload(0x40)\n      0x08c379a000000000000000000000000000000000000000000000000000000000\n      dup2\n      mstore\n      0x04\n      add\n      tag_81\n      swap1\n      tag_43\n      jump\t// in\n    tag_81:\n      mload(0x40)\n      dup1\n      swap2\n      sub\n      swap1\n      revert\n    tag_80:\n        /* \"chapter04/review2.sol\":2139:2164  Campaign storage campaign */\n      0x00\n        /* \"chapter04/review2.sol\":2167:2176  campaigns */\n      dup1\n        /* \"chapter04/review2.sol\":2177:2188  _campaignId */\n      dup3\n        /* \"chapter04/review2.sol\":2167:2189  campaigns[_campaignId] */\n      dup2\n      sload\n      dup2\n      lt\n      tag_82\n      jumpi\n      tag_83\n      tag_46\n      jump\t// in\n    tag_83:\n    tag_82:\n      swap1\n      0x00\n      mstore\n      keccak256(0x00, 0x20)\n      swap1\n      0x05\n      mul\n      add\n        /* \"chapter04/review2.sol\":2139:2189  Campaign storage campaign = campaigns[_campaignId] */\n      swap1\n      pop\n        /* \"chapter04/review2.sol\":2300:2308  campaign */\n      dup1\n        /* \"chapter04/review2.sol\":2300:2317  campaign.deadline */\n      0x02\n      add\n      sload\n        /* \"chapter04/review2.sol\":2282:2297  block.timestamp */\n      timestamp\n        /* \"chapter04/review2.sol\":2282:2317  block.timestamp < campaign.deadline */\n      lt\n        /* \"chapter04/review2.sol\":2274:2341  require(block.timestamp < campaign.deadline, \"Campaign has ended.\") */\n      tag_85\n      jumpi\n      mload(0x40)\n      0x08c379a000000000000000000000000000000000000000000000000000000000\n      dup2\n      mstore\n      0x04\n      add\n      tag_86\n      swap1\n      tag_87\n      jump\t// in\n    tag_86:\n      mload(0x40)\n      dup1\n      swap2\n      sub\n      swap1\n      revert\n    tag_85:\n        /* \"chapter04/review2.sol\":2361:2369  campaign */\n      dup1\n        /* \"chapter04/review2.sol\":2361:2379  campaign.completed */\n      0x04\n      add\n      0x00\n      swap1\n      sload\n      swap1\n      0x0100\n      exp\n      swap1\n      div\n      0xff\n      and\n        /* \"chapter04/review2.sol\":2360:2379  !campaign.completed */\n      iszero\n        /* \"chapter04/review2.sol\":2352:2414  require(!campaign.completed, \"Campaign is already completed.\") */\n      tag_88\n      jumpi\n      mload(0x40)\n      0x08c379a000000000000000000000000000000000000000000000000000000000\n      dup2\n      mstore\n      0x04\n      add\n      tag_89\n      swap1\n      tag_90\n      jump\t// in\n    tag_89:\n      mload(0x40)\n      dup1\n      swap2\n      sub\n      swap1\n      revert\n    tag_88:\n        /* \"chapter04/review2.sol\":2445:2446  0 */\n      0x00\n        /* \"chapter04/review2.sol\":2433:2442  msg.value */\n      callvalue\n        /* \"chapter04/review2.sol\":2433:2446  msg.value > 0 */\n      gt\n        /* \"chapter04/review2.sol\":2425:2487  require(msg.value > 0, \"Contribution must be greater than 0.\") */\n      tag_91\n      jumpi\n      mload(0x40)\n      0x08c379a000000000000000000000000000000000000000000000000000000000\n      dup2\n      mstore\n      0x04\n      add\n      tag_92\n      swap1\n      tag_93\n      jump\t// in\n    tag_92:\n      mload(0x40)\n      dup1\n      swap2\n      sub\n      swap1\n      revert\n    tag_91:\n        /* \"chapter04/review2.sol\":2591:2600  msg.value */\n      callvalue\n        /* \"chapter04/review2.sol\":2549:2562  contributions */\n      0x01\n        /* \"chapter04/review2.sol\":2549:2575  contributions[_campaignId] */\n      0x00\n        /* \"chapter04/review2.sol\":2563:2574  _campaignId */\n      dup5\n        /* \"chapter04/review2.sol\":2549:2575  contributions[_campaignId] */\n      dup2\n      mstore\n      0x20\n      add\n      swap1\n      dup2\n      mstore\n      0x20\n      add\n      0x00\n      keccak256\n        /* \"chapter04/review2.sol\":2549:2587  contributions[_campaignId][msg.sender] */\n      0x00\n        /* \"chapter04/review2.sol\":2576:2586  msg.sender */\n      caller\n        /* \"chapter04/review2.sol\":2549:2587  contributions[_campaignId][msg.sender] */\n      0xffffffffffffffffffffffffffffffffffffffff\n      and\n      0xffffffffffffffffffffffffffffffffffffffff\n      and\n      dup2\n      mstore\n      0x20\n      add\n      swap1\n      dup2\n      mstore\n      0x20\n      add\n      0x00\n      keccak256\n      0x00\n        /* \"chapter04/review2.sol\":2549:2600  contributions[_campaignId][msg.sender] += msg.value */\n      dup3\n      dup3\n      sload\n      tag_94\n      swap2\n      swap1\n      tag_78\n      jump\t// in\n    tag_94:\n      swap3\n      pop\n      pop\n      dup2\n      swap1\n      sstore\n      pop\n        /* \"chapter04/review2.sol\":2636:2645  msg.value */\n      callvalue\n        /* \"chapter04/review2.sol\":2611:2619  campaign */\n      dup2\n        /* \"chapter04/review2.sol\":2611:2632  campaign.raisedAmount */\n      0x03\n      add\n      0x00\n        /* \"chapter04/review2.sol\":2611:2645  campaign.raisedAmount += msg.value */\n      dup3\n      dup3\n      sload\n      tag_95\n      swap2\n      swap1\n      tag_78\n      jump\t// in\n    tag_95:\n      swap3\n      pop\n      pop\n      dup2\n      swap1\n      sstore\n      pop\n        /* \"chapter04/review2.sol\":1990:2653  {... */\n      pop\n        /* \"chapter04/review2.sol\":1937:2653  function contribute(uint _campaignId) public payable {... */\n      pop\n      jump\t// out\n        /* \"#utility.yul\":88:205   */\n    tag_97:\n        /* \"#utility.yul\":197:198   */\n      0x00\n        /* \"#utility.yul\":194:195   */\n      dup1\n        /* \"#utility.yul\":187:199   */\n      revert\n        /* \"#utility.yul\":334:411   */\n    tag_99:\n        /* \"#utility.yul\":371:378   */\n      0x00\n        /* \"#utility.yul\":400:405   */\n      dup2\n        /* \"#utility.yul\":389:405   */\n      swap1\n      pop\n        /* \"#utility.yul\":334:411   */\n      swap2\n      swap1\n      pop\n      jump\t// out\n        /* \"#utility.yul\":417:539   */\n    tag_100:\n        /* \"#utility.yul\":490:514   */\n      tag_142\n        /* \"#utility.yul\":508:513   */\n      dup2\n        /* \"#utility.yul\":490:514   */\n      tag_99\n      jump\t// in\n    tag_142:\n        /* \"#utility.yul\":483:488   */\n      dup2\n        /* \"#utility.yul\":480:515   */\n      eq\n        /* \"#utility.yul\":470:533   */\n      tag_143\n      jumpi\n        /* \"#utility.yul\":529:530   */\n      0x00\n        /* \"#utility.yul\":526:527   */\n      dup1\n        /* \"#utility.yul\":519:531   */\n      revert\n        /* \"#utility.yul\":470:533   */\n    tag_143:\n        /* \"#utility.yul\":417:539   */\n      pop\n      jump\t// out\n        /* \"#utility.yul\":545:684   */\n    tag_101:\n        /* \"#utility.yul\":591:596   */\n      0x00\n        /* \"#utility.yul\":629:635   */\n      dup2\n        /* \"#utility.yul\":616:636   */\n      calldataload\n        /* \"#utility.yul\":607:636   */\n      swap1\n      pop\n        /* \"#utility.yul\":645:678   */\n      tag_145\n        /* \"#utility.yul\":672:677   */\n      dup2\n        /* \"#utility.yul\":645:678   */\n      tag_100\n      jump\t// in\n    tag_145:\n        /* \"#utility.yul\":545:684   */\n      swap3\n      swap2\n      pop\n      pop\n      jump\t// out\n        /* \"#utility.yul\":690:1019   */\n    tag_11:\n        /* \"#utility.yul\":749:755   */\n      0x00\n        /* \"#utility.yul\":798:800   */\n      0x20\n        /* \"#utility.yul\":786:795   */\n      dup3\n        /* \"#utility.yul\":777:784   */\n      dup5\n        /* \"#utility.yul\":773:796   */\n      sub\n        /* \"#utility.yul\":769:801   */\n      slt\n        /* \"#utility.yul\":766:885   */\n      iszero\n      tag_147\n      jumpi\n        /* \"#utility.yul\":804:883   */\n      tag_148\n      tag_97\n      jump\t// in\n    tag_148:\n        /* \"#utility.yul\":766:885   */\n    tag_147:\n        /* \"#utility.yul\":924:925   */\n      0x00\n        /* \"#utility.yul\":949:1002   */\n      tag_149\n        /* \"#utility.yul\":994:1001   */\n      dup5\n        /* \"#utility.yul\":985:991   */\n      dup3\n        /* \"#utility.yul\":974:983   */\n      dup6\n        /* \"#utility.yul\":970:992   */\n      add\n        /* \"#utility.yul\":949:1002   */\n      tag_101\n      jump\t// in\n    tag_149:\n        /* \"#utility.yul\":939:1002   */\n      swap2\n      pop\n        /* \"#utility.yul\":895:1012   */\n      pop\n        /* \"#utility.yul\":690:1019   */\n      swap3\n      swap2\n      pop\n      pop\n      jump\t// out\n        /* \"#utility.yul\":1025:1151   */\n    tag_102:\n        /* \"#utility.yul\":1062:1069   */\n      0x00\n        /* \"#utility.yul\":1102:1144   */\n      0xffffffffffffffffffffffffffffffffffffffff\n        /* \"#utility.yul\":1095:1100   */\n      dup3\n        /* \"#utility.yul\":1091:1145   */\n      and\n        /* \"#utility.yul\":1080:1145   */\n      swap1\n      pop\n        /* \"#utility.yul\":1025:1151   */\n      swap2\n      swap1\n      pop\n      jump\t// out\n        /* \"#utility.yul\":1157:1261   */\n    tag_103:\n        /* \"#utility.yul\":1202:1209   */\n      0x00\n        /* \"#utility.yul\":1231:1255   */\n      tag_152\n        /* \"#utility.yul\":1249:1254   */\n      dup3\n        /* \"#utility.yul\":1231:1255   */\n      tag_102\n      jump\t// in\n    tag_152:\n        /* \"#utility.yul\":1220:1255   */\n      swap1\n      pop\n        /* \"#utility.yul\":1157:1261   */\n      swap2\n      swap1\n      pop\n      jump\t// out\n        /* \"#utility.yul\":1267:1409   */\n    tag_104:\n        /* \"#utility.yul\":1370:1402   */\n      tag_154\n        /* \"#utility.yul\":1396:1401   */\n      dup2\n        /* \"#utility.yul\":1370:1402   */\n      tag_103\n      jump\t// in\n    tag_154:\n        /* \"#utility.yul\":1365:1368   */\n      dup3\n        /* \"#utility.yul\":1358:1403   */\n      mstore\n        /* \"#utility.yul\":1267:1409   */\n      pop\n      pop\n      jump\t// out\n        /* \"#utility.yul\":1415:1533   */\n    tag_105:\n        /* \"#utility.yul\":1502:1526   */\n      tag_156\n        /* \"#utility.yul\":1520:1525   */\n      dup2\n        /* \"#utility.yul\":1502:1526   */\n      tag_99\n      jump\t// in\n    tag_156:\n        /* \"#utility.yul\":1497:1500   */\n      dup3\n        /* \"#utility.yul\":1490:1527   */\n      mstore\n        /* \"#utility.yul\":1415:1533   */\n      pop\n      pop\n      jump\t// out\n        /* \"#utility.yul\":1539:1629   */\n    tag_106:\n        /* \"#utility.yul\":1573:1580   */\n      0x00\n        /* \"#utility.yul\":1616:1621   */\n      dup2\n        /* \"#utility.yul\":1609:1622   */\n      iszero\n        /* \"#utility.yul\":1602:1623   */\n      iszero\n        /* \"#utility.yul\":1591:1623   */\n      swap1\n      pop\n        /* \"#utility.yul\":1539:1629   */\n      swap2\n      swap1\n      pop\n      jump\t// out\n        /* \"#utility.yul\":1635:1744   */\n    tag_107:\n        /* \"#utility.yul\":1716:1737   */\n      tag_159\n        /* \"#utility.yul\":1731:1736   */\n      dup2\n        /* \"#utility.yul\":1716:1737   */\n      tag_106\n      jump\t// in\n    tag_159:\n        /* \"#utility.yul\":1711:1714   */\n      dup3\n        /* \"#utility.yul\":1704:1738   */\n      mstore\n        /* \"#utility.yul\":1635:1744   */\n      pop\n      pop\n      jump\t// out\n        /* \"#utility.yul\":1750:2434   */\n    tag_14:\n        /* \"#utility.yul\":1965:1969   */\n      0x00\n        /* \"#utility.yul\":2003:2006   */\n      0xa0\n        /* \"#utility.yul\":1992:2001   */\n      dup3\n        /* \"#utility.yul\":1988:2007   */\n      add\n        /* \"#utility.yul\":1980:2007   */\n      swap1\n      pop\n        /* \"#utility.yul\":2017:2104   */\n      tag_161\n        /* \"#utility.yul\":2101:2102   */\n      0x00\n        /* \"#utility.yul\":2090:2099   */\n      dup4\n        /* \"#utility.yul\":2086:2103   */\n      add\n        /* \"#utility.yul\":2077:2083   */\n      dup9\n        /* \"#utility.yul\":2017:2104   */\n      tag_104\n      jump\t// in\n    tag_161:\n        /* \"#utility.yul\":2114:2186   */\n      tag_162\n        /* \"#utility.yul\":2182:2184   */\n      0x20\n        /* \"#utility.yul\":2171:2180   */\n      dup4\n        /* \"#utility.yul\":2167:2185   */\n      add\n        /* \"#utility.yul\":2158:2164   */\n      dup8\n        /* \"#utility.yul\":2114:2186   */\n      tag_105\n      jump\t// in\n    tag_162:\n        /* \"#utility.yul\":2196:2268   */\n      tag_163\n        /* \"#utility.yul\":2264:2266   */\n      0x40\n        /* \"#utility.yul\":2253:2262   */\n      dup4\n        /* \"#utility.yul\":2249:2267   */\n      add\n        /* \"#utility.yul\":2240:2246   */\n      dup7\n        /* \"#utility.yul\":2196:2268   */\n      tag_105\n      jump\t// in\n    tag_163:\n        /* \"#utility.yul\":2278:2350   */\n      tag_164\n        /* \"#utility.yul\":2346:2348   */\n      0x60\n        /* \"#utility.yul\":2335:2344   */\n      dup4\n        /* \"#utility.yul\":2331:2349   */\n      add\n        /* \"#utility.yul\":2322:2328   */\n      dup6\n        /* \"#utility.yul\":2278:2350   */\n      tag_105\n      jump\t// in\n    tag_164:\n        /* \"#utility.yul\":2360:2427   */\n      tag_165\n        /* \"#utility.yul\":2422:2425   */\n      0x80\n        /* \"#utility.yul\":2411:2420   */\n      dup4\n        /* \"#utility.yul\":2407:2426   */\n      add\n        /* \"#utility.yul\":2398:2404   */\n      dup5\n        /* \"#utility.yul\":2360:2427   */\n      tag_107\n      jump\t// in\n    tag_165:\n        /* \"#utility.yul\":1750:2434   */\n      swap7\n      swap6\n      pop\n      pop\n      pop\n      pop\n      pop\n      pop\n      jump\t// out\n        /* \"#utility.yul\":2440:2914   */\n    tag_22:\n        /* \"#utility.yul\":2508:2514   */\n      0x00\n        /* \"#utility.yul\":2516:2522   */\n      dup1\n        /* \"#utility.yul\":2565:2567   */\n      0x40\n        /* \"#utility.yul\":2553:2562   */\n      dup4\n        /* \"#utility.yul\":2544:2551   */\n      dup6\n        /* \"#utility.yul\":2540:2563   */\n      sub\n        /* \"#utility.yul\":2536:2568   */\n      slt\n        /* \"#utility.yul\":2533:2652   */\n      iszero\n      tag_167\n      jumpi\n        /* \"#utility.yul\":2571:2650   */\n      tag_168\n      tag_97\n      jump\t// in\n    tag_168:\n        /* \"#utility.yul\":2533:2652   */\n    tag_167:\n        /* \"#utility.yul\":2691:2692   */\n      0x00\n        /* \"#utility.yul\":2716:2769   */\n      tag_169\n        /* \"#utility.yul\":2761:2768   */\n      dup6\n        /* \"#utility.yul\":2752:2758   */\n      dup3\n        /* \"#utility.yul\":2741:2750   */\n      dup7\n        /* \"#utility.yul\":2737:2759   */\n      add\n        /* \"#utility.yul\":2716:2769   */\n      tag_101\n      jump\t// in\n    tag_169:\n        /* \"#utility.yul\":2706:2769   */\n      swap3\n      pop\n        /* \"#utility.yul\":2662:2779   */\n      pop\n        /* \"#utility.yul\":2818:2820   */\n      0x20\n        /* \"#utility.yul\":2844:2897   */\n      tag_170\n        /* \"#utility.yul\":2889:2896   */\n      dup6\n        /* \"#utility.yul\":2880:2886   */\n      dup3\n        /* \"#utility.yul\":2869:2878   */\n      dup7\n        /* \"#utility.yul\":2865:2887   */\n      add\n        /* \"#utility.yul\":2844:2897   */\n      tag_101\n      jump\t// in\n    tag_170:\n        /* \"#utility.yul\":2834:2897   */\n      swap2\n      pop\n        /* \"#utility.yul\":2789:2907   */\n      pop\n        /* \"#utility.yul\":2440:2914   */\n      swap3\n      pop\n      swap3\n      swap1\n      pop\n      jump\t// out\n        /* \"#utility.yul\":2920:3142   */\n    tag_28:\n        /* \"#utility.yul\":3013:3017   */\n      0x00\n        /* \"#utility.yul\":3051:3053   */\n      0x20\n        /* \"#utility.yul\":3040:3049   */\n      dup3\n        /* \"#utility.yul\":3036:3054   */\n      add\n        /* \"#utility.yul\":3028:3054   */\n      swap1\n      pop\n        /* \"#utility.yul\":3064:3135   */\n      tag_172\n        /* \"#utility.yul\":3132:3133   */\n      0x00\n        /* \"#utility.yul\":3121:3130   */\n      dup4\n        /* \"#utility.yul\":3117:3134   */\n      add\n        /* \"#utility.yul\":3108:3114   */\n      dup5\n        /* \"#utility.yul\":3064:3135   */\n      tag_105\n      jump\t// in\n    tag_172:\n        /* \"#utility.yul\":2920:3142   */\n      swap3\n      swap2\n      pop\n      pop\n      jump\t// out\n        /* \"#utility.yul\":3148:3244   */\n    tag_108:\n        /* \"#utility.yul\":3185:3192   */\n      0x00\n        /* \"#utility.yul\":3214:3238   */\n      tag_174\n        /* \"#utility.yul\":3232:3237   */\n      dup3\n        /* \"#utility.yul\":3214:3238   */\n      tag_102\n      jump\t// in\n    tag_174:\n        /* \"#utility.yul\":3203:3238   */\n      swap1\n      pop\n        /* \"#utility.yul\":3148:3244   */\n      swap2\n      swap1\n      pop\n      jump\t// out\n        /* \"#utility.yul\":3250:3372   */\n    tag_109:\n        /* \"#utility.yul\":3323:3347   */\n      tag_176\n        /* \"#utility.yul\":3341:3346   */\n      dup2\n        /* \"#utility.yul\":3323:3347   */\n      tag_108\n      jump\t// in\n    tag_176:\n        /* \"#utility.yul\":3316:3321   */\n      dup2\n        /* \"#utility.yul\":3313:3348   */\n      eq\n        /* \"#utility.yul\":3303:3366   */\n      tag_177\n      jumpi\n        /* \"#utility.yul\":3362:3363   */\n      0x00\n        /* \"#utility.yul\":3359:3360   */\n      dup1\n        /* \"#utility.yul\":3352:3364   */\n      revert\n        /* \"#utility.yul\":3303:3366   */\n    tag_177:\n        /* \"#utility.yul\":3250:3372   */\n      pop\n      jump\t// out\n        /* \"#utility.yul\":3378:3517   */\n    tag_110:\n        /* \"#utility.yul\":3424:3429   */\n      0x00\n        /* \"#utility.yul\":3462:3468   */\n      dup2\n        /* \"#utility.yul\":3449:3469   */\n      calldataload\n        /* \"#utility.yul\":3440:3469   */\n      swap1\n      pop\n        /* \"#utility.yul\":3478:3511   */\n      tag_179\n        /* \"#utility.yul\":3505:3510   */\n      dup2\n        /* \"#utility.yul\":3478:3511   */\n      tag_109\n      jump\t// in\n    tag_179:\n        /* \"#utility.yul\":3378:3517   */\n      swap3\n      swap2\n      pop\n      pop\n      jump\t// out\n        /* \"#utility.yul\":3523:3997   */\n    tag_32:\n        /* \"#utility.yul\":3591:3597   */\n      0x00\n        /* \"#utility.yul\":3599:3605   */\n      dup1\n        /* \"#utility.yul\":3648:3650   */\n      0x40\n        /* \"#utility.yul\":3636:3645   */\n      dup4\n        /* \"#utility.yul\":3627:3634   */\n      dup6\n        /* \"#utility.yul\":3623:3646   */\n      sub\n        /* \"#utility.yul\":3619:3651   */\n      slt\n        /* \"#utility.yul\":3616:3735   */\n      iszero\n      tag_181\n      jumpi\n        /* \"#utility.yul\":3654:3733   */\n      tag_182\n      tag_97\n      jump\t// in\n    tag_182:\n        /* \"#utility.yul\":3616:3735   */\n    tag_181:\n        /* \"#utility.yul\":3774:3775   */\n      0x00\n        /* \"#utility.yul\":3799:3852   */\n      tag_183\n        /* \"#utility.yul\":3844:3851   */\n      dup6\n        /* \"#utility.yul\":3835:3841   */\n      dup3\n        /* \"#utility.yul\":3824:3833   */\n      dup7\n        /* \"#utility.yul\":3820:3842   */\n      add\n        /* \"#utility.yul\":3799:3852   */\n      tag_101\n      jump\t// in\n    tag_183:\n        /* \"#utility.yul\":3789:3852   */\n      swap3\n      pop\n        /* \"#utility.yul\":3745:3862   */\n      pop\n        /* \"#utility.yul\":3901:3903   */\n      0x20\n        /* \"#utility.yul\":3927:3980   */\n      tag_184\n        /* \"#utility.yul\":3972:3979   */\n      dup6\n        /* \"#utility.yul\":3963:3969   */\n      dup3\n        /* \"#utility.yul\":3952:3961   */\n      dup7\n        /* \"#utility.yul\":3948:3970   */\n      add\n        /* \"#utility.yul\":3927:3980   */\n      tag_110\n      jump\t// in\n    tag_184:\n        /* \"#utility.yul\":3917:3980   */\n      swap2\n      pop\n        /* \"#utility.yul\":3872:3990   */\n      pop\n        /* \"#utility.yul\":3523:3997   */\n      swap3\n      pop\n      swap3\n      swap1\n      pop\n      jump\t// out\n        /* \"#utility.yul\":4003:4172   */\n    tag_111:\n        /* \"#utility.yul\":4087:4098   */\n      0x00\n        /* \"#utility.yul\":4121:4127   */\n      dup3\n        /* \"#utility.yul\":4116:4119   */\n      dup3\n        /* \"#utility.yul\":4109:4128   */\n      mstore\n        /* \"#utility.yul\":4161:4165   */\n      0x20\n        /* \"#utility.yul\":4156:4159   */\n      dup3\n        /* \"#utility.yul\":4152:4166   */\n      add\n        /* \"#utility.yul\":4137:4166   */\n      swap1\n      pop\n        /* \"#utility.yul\":4003:4172   */\n      swap3\n      swap2\n      pop\n      pop\n      jump\t// out\n        /* \"#utility.yul\":4178:4352   */\n    tag_112:\n        /* \"#utility.yul\":4318:4344   */\n      0x43616d706169676e20646f6573206e6f742065786973742e0000000000000000\n        /* \"#utility.yul\":4314:4315   */\n      0x00\n        /* \"#utility.yul\":4306:4312   */\n      dup3\n        /* \"#utility.yul\":4302:4316   */\n      add\n        /* \"#utility.yul\":4295:4345   */\n      mstore\n        /* \"#utility.yul\":4178:4352   */\n      pop\n      jump\t// out\n        /* \"#utility.yul\":4358:4724   */\n    tag_113:\n        /* \"#utility.yul\":4500:4503   */\n      0x00\n        /* \"#utility.yul\":4521:4588   */\n      tag_188\n        /* \"#utility.yul\":4585:4587   */\n      0x18\n        /* \"#utility.yul\":4580:4583   */\n      dup4\n        /* \"#utility.yul\":4521:4588   */\n      tag_111\n      jump\t// in\n    tag_188:\n        /* \"#utility.yul\":4514:4588   */\n      swap2\n      pop\n        /* \"#utility.yul\":4597:4690   */\n      tag_189\n        /* \"#utility.yul\":4686:4689   */\n      dup3\n        /* \"#utility.yul\":4597:4690   */\n      tag_112\n      jump\t// in\n    tag_189:\n        /* \"#utility.yul\":4715:4717   */\n      0x20\n        /* \"#utility.yul\":4710:4713   */\n      dup3\n        /* \"#utility.yul\":4706:4718   */\n      add\n        /* \"#utility.yul\":4699:4718   */\n      swap1\n      pop\n        /* \"#utility.yul\":4358:4724   */\n      swap2\n      swap1\n      pop\n      jump\t// out\n        /* \"#utility.yul\":4730:5149   */\n    tag_43:\n        /* \"#utility.yul\":4896:4900   */\n      0x00\n        /* \"#utility.yul\":4934:4936   */\n      0x20\n        /* \"#utility.yul\":4923:4932   */\n      dup3\n        /* \"#utility.yul\":4919:4937   */\n      add\n        /* \"#utility.yul\":4911:4937   */\n      swap1\n      pop\n        /* \"#utility.yul\":4983:4992   */\n      dup2\n        /* \"#utility.yul\":4977:4981   */\n      dup2\n        /* \"#utility.yul\":4973:4993   */\n      sub\n        /* \"#utility.yul\":4969:4970   */\n      0x00\n        /* \"#utility.yul\":4958:4967   */\n      dup4\n        /* \"#utility.yul\":4954:4971   */\n      add\n        /* \"#utility.yul\":4947:4994   */\n      mstore\n        /* \"#utility.yul\":5011:5142   */\n      tag_191\n        /* \"#utility.yul\":5137:5141   */\n      dup2\n        /* \"#utility.yul\":5011:5142   */\n      tag_113\n      jump\t// in\n    tag_191:\n        /* \"#utility.yul\":5003:5142   */\n      swap1\n      pop\n        /* \"#utility.yul\":4730:5149   */\n      swap2\n      swap1\n      pop\n      jump\t// out\n        /* \"#utility.yul\":5155:5335   */\n    tag_46:\n        /* \"#utility.yul\":5203:5280   */\n      0x4e487b7100000000000000000000000000000000000000000000000000000000\n        /* \"#utility.yul\":5200:5201   */\n      0x00\n        /* \"#utility.yul\":5193:5281   */\n      mstore\n        /* \"#utility.yul\":5300:5304   */\n      0x32\n        /* \"#utility.yul\":5297:5298   */\n      0x04\n        /* \"#utility.yul\":5290:5305   */\n      mstore\n        /* \"#utility.yul\":5324:5328   */\n      0x24\n        /* \"#utility.yul\":5321:5322   */\n      0x00\n        /* \"#utility.yul\":5314:5329   */\n      revert\n        /* \"#utility.yul\":5341:5521   */\n    tag_114:\n        /* \"#utility.yul\":5481:5513   */\n      0x4f6e6c79207468652063726561746f722063616e2077697468647261772e0000\n        /* \"#utility.yul\":5477:5478   */\n      0x00\n        /* \"#utility.yul\":5469:5475   */\n      dup3\n        /* \"#utility.yul\":5465:5479   */\n      add\n        /* \"#utility.yul\":5458:5514   */\n      mstore\n        /* \"#utility.yul\":5341:5521   */\n      pop\n      jump\t// out\n        /* \"#utility.yul\":5527:5893   */\n    tag_115:\n        /* \"#utility.yul\":5669:5672   */\n      0x00\n        /* \"#utility.yul\":5690:5757   */\n      tag_195\n        /* \"#utility.yul\":5754:5756   */\n      0x1e\n        /* \"#utility.yul\":5749:5752   */\n      dup4\n        /* \"#utility.yul\":5690:5757   */\n      tag_111\n      jump\t// in\n    tag_195:\n        /* \"#utility.yul\":5683:5757   */\n      swap2\n      pop\n        /* \"#utility.yul\":5766:5859   */\n      tag_196\n        /* \"#utility.yul\":5855:5858   */\n      dup3\n        /* \"#utility.yul\":5766:5859   */\n      tag_114\n      jump\t// in\n    tag_196:\n        /* \"#utility.yul\":5884:5886   */\n      0x20\n        /* \"#utility.yul\":5879:5882   */\n      dup3\n        /* \"#utility.yul\":5875:5887   */\n      add\n        /* \"#utility.yul\":5868:5887   */\n      swap1\n      pop\n        /* \"#utility.yul\":5527:5893   */\n      swap2\n      swap1\n      pop\n      jump\t// out\n        /* \"#utility.yul\":5899:6318   */\n    tag_50:\n        /* \"#utility.yul\":6065:6069   */\n      0x00\n        /* \"#utility.yul\":6103:6105   */\n      0x20\n        /* \"#utility.yul\":6092:6101   */\n      dup3\n        /* \"#utility.yul\":6088:6106   */\n      add\n        /* \"#utility.yul\":6080:6106   */\n      swap1\n      pop\n        /* \"#utility.yul\":6152:6161   */\n      dup2\n        /* \"#utility.yul\":6146:6150   */\n      dup2\n        /* \"#utility.yul\":6142:6162   */\n      sub\n        /* \"#utility.yul\":6138:6139   */\n      0x00\n        /* \"#utility.yul\":6127:6136   */\n      dup4\n        /* \"#utility.yul\":6123:6140   */\n      add\n        /* \"#utility.yul\":6116:6163   */\n      mstore\n        /* \"#utility.yul\":6180:6311   */\n      tag_198\n        /* \"#utility.yul\":6306:6310   */\n      dup2\n        /* \"#utility.yul\":6180:6311   */\n      tag_115\n      jump\t// in\n    tag_198:\n        /* \"#utility.yul\":6172:6311   */\n      swap1\n      pop\n        /* \"#utility.yul\":5899:6318   */\n      swap2\n      swap1\n      pop\n      jump\t// out\n        /* \"#utility.yul\":6324:6501   */\n    tag_116:\n        /* \"#utility.yul\":6464:6493   */\n      0x43616d706169676e20686173206e6f7420656e646564207965742e0000000000\n        /* \"#utility.yul\":6460:6461   */\n      0x00\n        /* \"#utility.yul\":6452:6458   */\n      dup3\n        /* \"#utility.yul\":6448:6462   */\n      add\n        /* \"#utility.yul\":6441:6494   */\n      mstore\n        /* \"#utility.yul\":6324:6501   */\n      pop\n      jump\t// out\n        /* \"#utility.yul\":6507:6873   */\n    tag_117:\n        /* \"#utility.yul\":6649:6652   */\n      0x00\n        /* \"#utility.yul\":6670:6737   */\n      tag_201\n        /* \"#utility.yul\":6734:6736   */\n      0x1b\n        /* \"#utility.yul\":6729:6732   */\n      dup4\n        /* \"#utility.yul\":6670:6737   */\n      tag_111\n      jump\t// in\n    tag_201:\n        /* \"#utility.yul\":6663:6737   */\n      swap2\n      pop\n        /* \"#utility.yul\":6746:6839   */\n      tag_202\n        /* \"#utility.yul\":6835:6838   */\n      dup3\n        /* \"#utility.yul\":6746:6839   */\n      tag_116\n      jump\t// in\n    tag_202:\n        /* \"#utility.yul\":6864:6866   */\n      0x20\n        /* \"#utility.yul\":6859:6862   */\n      dup3\n        /* \"#utility.yul\":6855:6867   */\n      add\n        /* \"#utility.yul\":6848:6867   */\n      swap1\n      pop\n        /* \"#utility.yul\":6507:6873   */\n      swap2\n      swap1\n      pop\n      jump\t// out\n        /* \"#utility.yul\":6879:7298   */\n    tag_53:\n        /* \"#utility.yul\":7045:7049   */\n      0x00\n        /* \"#utility.yul\":7083:7085   */\n      0x20\n        /* \"#utility.yul\":7072:7081   */\n      dup3\n        /* \"#utility.yul\":7068:7086   */\n      add\n        /* \"#utility.yul\":7060:7086   */\n      swap1\n      pop\n        /* \"#utility.yul\":7132:7141   */\n      dup2\n        /* \"#utility.yul\":7126:7130   */\n      dup2\n        /* \"#utility.yul\":7122:7142   */\n      sub\n        /* \"#utility.yul\":7118:7119   */\n      0x00\n        /* \"#utility.yul\":7107:7116   */\n      dup4\n        /* \"#utility.yul\":7103:7120   */\n      add\n        /* \"#utility.yul\":7096:7143   */\n      mstore\n        /* \"#utility.yul\":7160:7291   */\n      tag_204\n        /* \"#utility.yul\":7286:7290   */\n      dup2\n        /* \"#utility.yul\":7160:7291   */\n      tag_117\n      jump\t// in\n    tag_204:\n        /* \"#utility.yul\":7152:7291   */\n      swap1\n      pop\n        /* \"#utility.yul\":6879:7298   */\n      swap2\n      swap1\n      pop\n      jump\t// out\n        /* \"#utility.yul\":7304:7480   */\n    tag_118:\n        /* \"#utility.yul\":7444:7472   */\n      0x43616d706169676e20676f616c206e6f7420726561636865642e000000000000\n        /* \"#utility.yul\":7440:7441   */\n      0x00\n        /* \"#utility.yul\":7432:7438   */\n      dup3\n        /* \"#utility.yul\":7428:7442   */\n      add\n        /* \"#utility.yul\":7421:7473   */\n      mstore\n        /* \"#utility.yul\":7304:7480   */\n      pop\n      jump\t// out\n        /* \"#utility.yul\":7486:7852   */\n    tag_119:\n        /* \"#utility.yul\":7628:7631   */\n      0x00\n        /* \"#utility.yul\":7649:7716   */\n      tag_207\n        /* \"#utility.yul\":7713:7715   */\n      0x1a\n        /* \"#utility.yul\":7708:7711   */\n      dup4\n        /* \"#utility.yul\":7649:7716   */\n      tag_111\n      jump\t// in\n    tag_207:\n        /* \"#utility.yul\":7642:7716   */\n      swap2\n      pop\n        /* \"#utility.yul\":7725:7818   */\n      tag_208\n        /* \"#utility.yul\":7814:7817   */\n      dup3\n        /* \"#utility.yul\":7725:7818   */\n      tag_118\n      jump\t// in\n    tag_208:\n        /* \"#utility.yul\":7843:7845   */\n      0x20\n        /* \"#utility.yul\":7838:7841   */\n      dup3\n        /* \"#utility.yul\":7834:7846   */\n      add\n        /* \"#utility.yul\":7827:7846   */\n      swap1\n      pop\n        /* \"#utility.yul\":7486:7852   */\n      swap2\n      swap1\n      pop\n      jump\t// out\n        /* \"#utility.yul\":7858:8277   */\n    tag_56:\n        /* \"#utility.yul\":8024:8028   */\n      0x00\n        /* \"#utility.yul\":8062:8064   */\n      0x20\n        /* \"#utility.yul\":8051:8060   */\n      dup3\n        /* \"#utility.yul\":8047:8065   */\n      add\n        /* \"#utility.yul\":8039:8065   */\n      swap1\n      pop\n        /* \"#utility.yul\":8111:8120   */\n      dup2\n        /* \"#utility.yul\":8105:8109   */\n      dup2\n        /* \"#utility.yul\":8101:8121   */\n      sub\n        /* \"#utility.yul\":8097:8098   */\n      0x00\n        /* \"#utility.yul\":8086:8095   */\n      dup4\n        /* \"#utility.yul\":8082:8099   */\n      add\n        /* \"#utility.yul\":8075:8122   */\n      mstore\n        /* \"#utility.yul\":8139:8270   */\n      tag_210\n        /* \"#utility.yul\":8265:8269   */\n      dup2\n        /* \"#utility.yul\":8139:8270   */\n      tag_119\n      jump\t// in\n    tag_210:\n        /* \"#utility.yul\":8131:8270   */\n      swap1\n      pop\n        /* \"#utility.yul\":7858:8277   */\n      swap2\n      swap1\n      pop\n      jump\t// out\n        /* \"#utility.yul\":8283:8504   */\n    tag_120:\n        /* \"#utility.yul\":8423:8457   */\n      0x46756e6473206861766520616c7265616479206265656e207769746864726177\n        /* \"#utility.yul\":8419:8420   */\n      0x00\n        /* \"#utility.yul\":8411:8417   */\n      dup3\n        /* \"#utility.yul\":8407:8421   */\n      add\n        /* \"#utility.yul\":8400:8458   */\n      mstore\n        /* \"#utility.yul\":8492:8496   */\n      0x6e2e000000000000000000000000000000000000000000000000000000000000\n        /* \"#utility.yul\":8487:8489   */\n      0x20\n        /* \"#utility.yul\":8479:8485   */\n      dup3\n        /* \"#utility.yul\":8475:8490   */\n      add\n        /* \"#utility.yul\":8468:8497   */\n      mstore\n        /* \"#utility.yul\":8283:8504   */\n      pop\n      jump\t// out\n        /* \"#utility.yul\":8510:8876   */\n    tag_121:\n        /* \"#utility.yul\":8652:8655   */\n      0x00\n        /* \"#utility.yul\":8673:8740   */\n      tag_213\n        /* \"#utility.yul\":8737:8739   */\n      0x22\n        /* \"#utility.yul\":8732:8735   */\n      dup4\n        /* \"#utility.yul\":8673:8740   */\n      tag_111\n      jump\t// in\n    tag_213:\n        /* \"#utility.yul\":8666:8740   */\n      swap2\n      pop\n        /* \"#utility.yul\":8749:8842   */\n      tag_214\n        /* \"#utility.yul\":8838:8841   */\n      dup3\n        /* \"#utility.yul\":8749:8842   */\n      tag_120\n      jump\t// in\n    tag_214:\n        /* \"#utility.yul\":8867:8869   */\n      0x40\n        /* \"#utility.yul\":8862:8865   */\n      dup3\n        /* \"#utility.yul\":8858:8870   */\n      add\n        /* \"#utility.yul\":8851:8870   */\n      swap1\n      pop\n        /* \"#utility.yul\":8510:8876   */\n      swap2\n      swap1\n      pop\n      jump\t// out\n        /* \"#utility.yul\":8882:9301   */\n    tag_59:\n        /* \"#utility.yul\":9048:9052   */\n      0x00\n        /* \"#utility.yul\":9086:9088   */\n      0x20\n        /* \"#utility.yul\":9075:9084   */\n      dup3\n        /* \"#utility.yul\":9071:9089   */\n      add\n        /* \"#utility.yul\":9063:9089   */\n      swap1\n      pop\n        /* \"#utility.yul\":9135:9144   */\n      dup2\n        /* \"#utility.yul\":9129:9133   */\n      dup2\n        /* \"#utility.yul\":9125:9145   */\n      sub\n        /* \"#utility.yul\":9121:9122   */\n      0x00\n        /* \"#utility.yul\":9110:9119   */\n      dup4\n        /* \"#utility.yul\":9106:9123   */\n      add\n        /* \"#utility.yul\":9099:9146   */\n      mstore\n        /* \"#utility.yul\":9163:9294   */\n      tag_216\n        /* \"#utility.yul\":9289:9293   */\n      dup2\n        /* \"#utility.yul\":9163:9294   */\n      tag_121\n      jump\t// in\n    tag_216:\n        /* \"#utility.yul\":9155:9294   */\n      swap1\n      pop\n        /* \"#utility.yul\":8882:9301   */\n      swap2\n      swap1\n      pop\n      jump\t// out\n        /* \"#utility.yul\":9307:9454   */\n    tag_122:\n        /* \"#utility.yul\":9408:9419   */\n      0x00\n        /* \"#utility.yul\":9445:9448   */\n      dup2\n        /* \"#utility.yul\":9430:9448   */\n      swap1\n      pop\n        /* \"#utility.yul\":9307:9454   */\n      swap3\n      swap2\n      pop\n      pop\n      jump\t// out\n        /* \"#utility.yul\":9460:9574   */\n    tag_123:\n      pop\n      jump\t// out\n        /* \"#utility.yul\":9580:9978   */\n    tag_124:\n        /* \"#utility.yul\":9739:9742   */\n      0x00\n        /* \"#utility.yul\":9760:9843   */\n      tag_220\n        /* \"#utility.yul\":9841:9842   */\n      0x00\n        /* \"#utility.yul\":9836:9839   */\n      dup4\n        /* \"#utility.yul\":9760:9843   */\n      tag_122\n      jump\t// in\n    tag_220:\n        /* \"#utility.yul\":9753:9843   */\n      swap2\n      pop\n        /* \"#utility.yul\":9852:9945   */\n      tag_221\n        /* \"#utility.yul\":9941:9944   */\n      dup3\n        /* \"#utility.yul\":9852:9945   */\n      tag_123\n      jump\t// in\n    tag_221:\n        /* \"#utility.yul\":9970:9971   */\n      0x00\n        /* \"#utility.yul\":9965:9968   */\n      dup3\n        /* \"#utility.yul\":9961:9972   */\n      add\n        /* \"#utility.yul\":9954:9972   */\n      swap1\n      pop\n        /* \"#utility.yul\":9580:9978   */\n      swap2\n      swap1\n      pop\n      jump\t// out\n        /* \"#utility.yul\":9984:10363   */\n    tag_61:\n        /* \"#utility.yul\":10168:10171   */\n      0x00\n        /* \"#utility.yul\":10190:10337   */\n      tag_223\n        /* \"#utility.yul\":10333:10336   */\n      dup3\n        /* \"#utility.yul\":10190:10337   */\n      tag_124\n      jump\t// in\n    tag_223:\n        /* \"#utility.yul\":10183:10337   */\n      swap2\n      pop\n        /* \"#utility.yul\":10354:10357   */\n      dup2\n        /* \"#utility.yul\":10347:10357   */\n      swap1\n      pop\n        /* \"#utility.yul\":9984:10363   */\n      swap2\n      swap1\n      pop\n      jump\t// out\n        /* \"#utility.yul\":10369:10539   */\n    tag_125:\n        /* \"#utility.yul\":10509:10531   */\n      0x4661696c656420746f2073656e64204574686572000000000000000000000000\n        /* \"#utility.yul\":10505:10506   */\n      0x00\n        /* \"#utility.yul\":10497:10503   */\n      dup3\n        /* \"#utility.yul\":10493:10507   */\n      add\n        /* \"#utility.yul\":10486:10532   */\n      mstore\n        /* \"#utility.yul\":10369:10539   */\n      pop\n      jump\t// out\n        /* \"#utility.yul\":10545:10911   */\n    tag_126:\n        /* \"#utility.yul\":10687:10690   */\n      0x00\n        /* \"#utility.yul\":10708:10775   */\n      tag_226\n        /* \"#utility.yul\":10772:10774   */\n      0x14\n        /* \"#utility.yul\":10767:10770   */\n      dup4\n        /* \"#utility.yul\":10708:10775   */\n      tag_111\n      jump\t// in\n    tag_226:\n        /* \"#utility.yul\":10701:10775   */\n      swap2\n      pop\n        /* \"#utility.yul\":10784:10877   */\n      tag_227\n        /* \"#utility.yul\":10873:10876   */\n      dup3\n        /* \"#utility.yul\":10784:10877   */\n      tag_125\n      jump\t// in\n    tag_227:\n        /* \"#utility.yul\":10902:10904   */\n      0x20\n        /* \"#utility.yul\":10897:10900   */\n      dup3\n        /* \"#utility.yul\":10893:10905   */\n      add\n        /* \"#utility.yul\":10886:10905   */\n      swap1\n      pop\n        /* \"#utility.yul\":10545:10911   */\n      swap2\n      swap1\n      pop\n      jump\t// out\n        /* \"#utility.yul\":10917:11336   */\n    tag_67:\n        /* \"#utility.yul\":11083:11087   */\n      0x00\n        /* \"#utility.yul\":11121:11123   */\n      0x20\n        /* \"#utility.yul\":11110:11119   */\n      dup3\n        /* \"#utility.yul\":11106:11124   */\n      add\n        /* \"#utility.yul\":11098:11124   */\n      swap1\n      pop\n        /* \"#utility.yul\":11170:11179   */\n      dup2\n        /* \"#utility.yul\":11164:11168   */\n      dup2\n        /* \"#utility.yul\":11160:11180   */\n      sub\n        /* \"#utility.yul\":11156:11157   */\n      0x00\n        /* \"#utility.yul\":11145:11154   */\n      dup4\n        /* \"#utility.yul\":11141:11158   */\n      add\n        /* \"#utility.yul\":11134:11181   */\n      mstore\n        /* \"#utility.yul\":11198:11329   */\n      tag_229\n        /* \"#utility.yul\":11324:11328   */\n      dup2\n        /* \"#utility.yul\":11198:11329   */\n      tag_126\n      jump\t// in\n    tag_229:\n        /* \"#utility.yul\":11190:11329   */\n      swap1\n      pop\n        /* \"#utility.yul\":10917:11336   */\n      swap2\n      swap1\n      pop\n      jump\t// out\n        /* \"#utility.yul\":11342:11522   */\n    tag_127:\n        /* \"#utility.yul\":11390:11467   */\n      0x4e487b7100000000000000000000000000000000000000000000000000000000\n        /* \"#utility.yul\":11387:11388   */\n      0x00\n        /* \"#utility.yul\":11380:11468   */\n      mstore\n        /* \"#utility.yul\":11487:11491   */\n      0x11\n        /* \"#utility.yul\":11484:11485   */\n      0x04\n        /* \"#utility.yul\":11477:11492   */\n      mstore\n        /* \"#utility.yul\":11511:11515   */\n      0x24\n        /* \"#utility.yul\":11508:11509   */\n      0x00\n        /* \"#utility.yul\":11501:11516   */\n      revert\n        /* \"#utility.yul\":11528:11938   */\n    tag_70:\n        /* \"#utility.yul\":11568:11575   */\n      0x00\n        /* \"#utility.yul\":11591:11611   */\n      tag_232\n        /* \"#utility.yul\":11609:11610   */\n      dup3\n        /* \"#utility.yul\":11591:11611   */\n      tag_99\n      jump\t// in\n    tag_232:\n        /* \"#utility.yul\":11586:11611   */\n      swap2\n      pop\n        /* \"#utility.yul\":11625:11645   */\n      tag_233\n        /* \"#utility.yul\":11643:11644   */\n      dup4\n        /* \"#utility.yul\":11625:11645   */\n      tag_99\n      jump\t// in\n    tag_233:\n        /* \"#utility.yul\":11620:11645   */\n      swap3\n      pop\n        /* \"#utility.yul\":11680:11681   */\n      dup3\n        /* \"#utility.yul\":11677:11678   */\n      dup3\n        /* \"#utility.yul\":11673:11682   */\n      mul\n        /* \"#utility.yul\":11702:11732   */\n      tag_234\n        /* \"#utility.yul\":11720:11731   */\n      dup2\n        /* \"#utility.yul\":11702:11732   */\n      tag_99\n      jump\t// in\n    tag_234:\n        /* \"#utility.yul\":11691:11732   */\n      swap2\n      pop\n        /* \"#utility.yul\":11881:11882   */\n      dup3\n        /* \"#utility.yul\":11872:11879   */\n      dup3\n        /* \"#utility.yul\":11868:11883   */\n      div\n        /* \"#utility.yul\":11865:11866   */\n      dup5\n        /* \"#utility.yul\":11862:11884   */\n      eq\n        /* \"#utility.yul\":11842:11843   */\n      dup4\n        /* \"#utility.yul\":11835:11844   */\n      iszero\n        /* \"#utility.yul\":11815:11898   */\n      or\n        /* \"#utility.yul\":11792:11931   */\n      tag_235\n      jumpi\n        /* \"#utility.yul\":11911:11929   */\n      tag_236\n      tag_127\n      jump\t// in\n    tag_236:\n        /* \"#utility.yul\":11792:11931   */\n    tag_235:\n        /* \"#utility.yul\":11576:11938   */\n      pop\n        /* \"#utility.yul\":11528:11938   */\n      swap3\n      swap2\n      pop\n      pop\n      jump\t// out\n        /* \"#utility.yul\":11944:12125   */\n    tag_128:\n        /* \"#utility.yul\":12084:12117   */\n      0x43616d706169676e206475726174696f6e20697320746f6f2073686f72742e00\n        /* \"#utility.yul\":12080:12081   */\n      0x00\n        /* \"#utility.yul\":12072:12078   */\n      dup3\n        /* \"#utility.yul\":12068:12082   */\n      add\n        /* \"#utility.yul\":12061:12118   */\n      mstore\n        /* \"#utility.yul\":11944:12125   */\n      pop\n      jump\t// out\n        /* \"#utility.yul\":12131:12497   */\n    tag_129:\n        /* \"#utility.yul\":12273:12276   */\n      0x00\n        /* \"#utility.yul\":12294:12361   */\n      tag_239\n        /* \"#utility.yul\":12358:12360   */\n      0x1f\n        /* \"#utility.yul\":12353:12356   */\n      dup4\n        /* \"#utility.yul\":12294:12361   */\n      tag_111\n      jump\t// in\n    tag_239:\n        /* \"#utility.yul\":12287:12361   */\n      swap2\n      pop\n        /* \"#utility.yul\":12370:12463   */\n      tag_240\n        /* \"#utility.yul\":12459:12462   */\n      dup3\n        /* \"#utility.yul\":12370:12463   */\n      tag_128\n      jump\t// in\n    tag_240:\n        /* \"#utility.yul\":12488:12490   */\n      0x20\n        /* \"#utility.yul\":12483:12486   */\n      dup3\n        /* \"#utility.yul\":12479:12491   */\n      add\n        /* \"#utility.yul\":12472:12491   */\n      swap1\n      pop\n        /* \"#utility.yul\":12131:12497   */\n      swap2\n      swap1\n      pop\n      jump\t// out\n        /* \"#utility.yul\":12503:12922   */\n    tag_73:\n        /* \"#utility.yul\":12669:12673   */\n      0x00\n        /* \"#utility.yul\":12707:12709   */\n      0x20\n        /* \"#utility.yul\":12696:12705   */\n      dup3\n        /* \"#utility.yul\":12692:12710   */\n      add\n        /* \"#utility.yul\":12684:12710   */\n      swap1\n      pop\n        /* \"#utility.yul\":12756:12765   */\n      dup2\n        /* \"#utility.yul\":12750:12754   */\n      dup2\n        /* \"#utility.yul\":12746:12766   */\n      sub\n        /* \"#utility.yul\":12742:12743   */\n      0x00\n        /* \"#utility.yul\":12731:12740   */\n      dup4\n        /* \"#utility.yul\":12727:12744   */\n      add\n        /* \"#utility.yul\":12720:12767   */\n      mstore\n        /* \"#utility.yul\":12784:12915   */\n      tag_242\n        /* \"#utility.yul\":12910:12914   */\n      dup2\n        /* \"#utility.yul\":12784:12915   */\n      tag_129\n      jump\t// in\n    tag_242:\n        /* \"#utility.yul\":12776:12915   */\n      swap1\n      pop\n        /* \"#utility.yul\":12503:12922   */\n      swap2\n      swap1\n      pop\n      jump\t// out\n        /* \"#utility.yul\":12928:13119   */\n    tag_78:\n        /* \"#utility.yul\":12968:12971   */\n      0x00\n        /* \"#utility.yul\":12987:13007   */\n      tag_244\n        /* \"#utility.yul\":13005:13006   */\n      dup3\n        /* \"#utility.yul\":12987:13007   */\n      tag_99\n      jump\t// in\n    tag_244:\n        /* \"#utility.yul\":12982:13007   */\n      swap2\n      pop\n        /* \"#utility.yul\":13021:13041   */\n      tag_245\n        /* \"#utility.yul\":13039:13040   */\n      dup4\n        /* \"#utility.yul\":13021:13041   */\n      tag_99\n      jump\t// in\n    tag_245:\n        /* \"#utility.yul\":13016:13041   */\n      swap3\n      pop\n        /* \"#utility.yul\":13064:13065   */\n      dup3\n        /* \"#utility.yul\":13061:13062   */\n      dup3\n        /* \"#utility.yul\":13057:13066   */\n      add\n        /* \"#utility.yul\":13050:13066   */\n      swap1\n      pop\n        /* \"#utility.yul\":13085:13088   */\n      dup1\n        /* \"#utility.yul\":13082:13083   */\n      dup3\n        /* \"#utility.yul\":13079:13089   */\n      gt\n        /* \"#utility.yul\":13076:13112   */\n      iszero\n      tag_246\n      jumpi\n        /* \"#utility.yul\":13092:13110   */\n      tag_247\n      tag_127\n      jump\t// in\n    tag_247:\n        /* \"#utility.yul\":13076:13112   */\n    tag_246:\n        /* \"#utility.yul\":12928:13119   */\n      swap3\n      swap2\n      pop\n      pop\n      jump\t// out\n        /* \"#utility.yul\":13125:13294   */\n    tag_130:\n        /* \"#utility.yul\":13265:13286   */\n      0x43616d706169676e2068617320656e6465642e00000000000000000000000000\n        /* \"#utility.yul\":13261:13262   */\n      0x00\n        /* \"#utility.yul\":13253:13259   */\n      dup3\n        /* \"#utility.yul\":13249:13263   */\n      add\n        /* \"#utility.yul\":13242:13287   */\n      mstore\n        /* \"#utility.yul\":13125:13294   */\n      pop\n      jump\t// out\n        /* \"#utility.yul\":13300:13666   */\n    tag_131:\n        /* \"#utility.yul\":13442:13445   */\n      0x00\n        /* \"#utility.yul\":13463:13530   */\n      tag_250\n        /* \"#utility.yul\":13527:13529   */\n      0x13\n        /* \"#utility.yul\":13522:13525   */\n      dup4\n        /* \"#utility.yul\":13463:13530   */\n      tag_111\n      jump\t// in\n    tag_250:\n        /* \"#utility.yul\":13456:13530   */\n      swap2\n      pop\n        /* \"#utility.yul\":13539:13632   */\n      tag_251\n        /* \"#utility.yul\":13628:13631   */\n      dup3\n        /* \"#utility.yul\":13539:13632   */\n      tag_130\n      jump\t// in\n    tag_251:\n        /* \"#utility.yul\":13657:13659   */\n      0x20\n        /* \"#utility.yul\":13652:13655   */\n      dup3\n        /* \"#utility.yul\":13648:13660   */\n      add\n        /* \"#utility.yul\":13641:13660   */\n      swap1\n      pop\n        /* \"#utility.yul\":13300:13666   */\n      swap2\n      swap1\n      pop\n      jump\t// out\n        /* \"#utility.yul\":13672:14091   */\n    tag_87:\n        /* \"#utility.yul\":13838:13842   */\n      0x00\n        /* \"#utility.yul\":13876:13878   */\n      0x20\n        /* \"#utility.yul\":13865:13874   */\n      dup3\n        /* \"#utility.yul\":13861:13879   */\n      add\n        /* \"#utility.yul\":13853:13879   */\n      swap1\n      pop\n        /* \"#utility.yul\":13925:13934   */\n      dup2\n        /* \"#utility.yul\":13919:13923   */\n      dup2\n        /* \"#utility.yul\":13915:13935   */\n      sub\n        /* \"#utility.yul\":13911:13912   */\n      0x00\n        /* \"#utility.yul\":13900:13909   */\n      dup4\n        /* \"#utility.yul\":13896:13913   */\n      add\n        /* \"#utility.yul\":13889:13936   */\n      mstore\n        /* \"#utility.yul\":13953:14084   */\n      tag_253\n        /* \"#utility.yul\":14079:14083   */\n      dup2\n        /* \"#utility.yul\":13953:14084   */\n      tag_131\n      jump\t// in\n    tag_253:\n        /* \"#utility.yul\":13945:14084   */\n      swap1\n      pop\n        /* \"#utility.yul\":13672:14091   */\n      swap2\n      swap1\n      pop\n      jump\t// out\n        /* \"#utility.yul\":14097:14277   */\n    tag_132:\n        /* \"#utility.yul\":14237:14269   */\n      0x43616d706169676e20697320616c726561647920636f6d706c657465642e0000\n        /* \"#utility.yul\":14233:14234   */\n      0x00\n        /* \"#utility.yul\":14225:14231   */\n      dup3\n        /* \"#utility.yul\":14221:14235   */\n      add\n        /* \"#utility.yul\":14214:14270   */\n      mstore\n        /* \"#utility.yul\":14097:14277   */\n      pop\n      jump\t// out\n        /* \"#utility.yul\":14283:14649   */\n    tag_133:\n        /* \"#utility.yul\":14425:14428   */\n      0x00\n        /* \"#utility.yul\":14446:14513   */\n      tag_256\n        /* \"#utility.yul\":14510:14512   */\n      0x1e\n        /* \"#utility.yul\":14505:14508   */\n      dup4\n        /* \"#utility.yul\":14446:14513   */\n      tag_111\n      jump\t// in\n    tag_256:\n        /* \"#utility.yul\":14439:14513   */\n      swap2\n      pop\n        /* \"#utility.yul\":14522:14615   */\n      tag_257\n        /* \"#utility.yul\":14611:14614   */\n      dup3\n        /* \"#utility.yul\":14522:14615   */\n      tag_132\n      jump\t// in\n    tag_257:\n        /* \"#utility.yul\":14640:14642   */\n      0x20\n        /* \"#utility.yul\":14635:14638   */\n      dup3\n        /* \"#utility.yul\":14631:14643   */\n      add\n        /* \"#utility.yul\":14624:14643   */\n      swap1\n      pop\n        /* \"#utility.yul\":14283:14649   */\n      swap2\n      swap1\n      pop\n      jump\t// out\n        /* \"#utility.yul\":14655:15074   */\n    tag_90:\n        /* \"#utility.yul\":14821:14825   */\n      0x00\n        /* \"#utility.yul\":14859:14861   */\n      0x20\n        /* \"#utility.yul\":14848:14857   */\n      dup3\n        /* \"#utility.yul\":14844:14862   */\n      add\n        /* \"#utility.yul\":14836:14862   */\n      swap1\n      pop\n        /* \"#utility.yul\":14908:14917   */\n      dup2\n        /* \"#utility.yul\":14902:14906   */\n      dup2\n        /* \"#utility.yul\":14898:14918   */\n      sub\n        /* \"#utility.yul\":14894:14895   */\n      0x00\n        /* \"#utility.yul\":14883:14892   */\n      dup4\n        /* \"#utility.yul\":14879:14896   */\n      add\n        /* \"#utility.yul\":14872:14919   */\n      mstore\n        /* \"#utility.yul\":14936:15067   */\n      tag_259\n        /* \"#utility.yul\":15062:15066   */\n      dup2\n        /* \"#utility.yul\":14936:15067   */\n      tag_133\n      jump\t// in\n    tag_259:\n        /* \"#utility.yul\":14928:15067   */\n      swap1\n      pop\n        /* \"#utility.yul\":14655:15074   */\n      swap2\n      swap1\n      pop\n      jump\t// out\n        /* \"#utility.yul\":15080:15303   */\n    tag_134:\n        /* \"#utility.yul\":15220:15254   */\n      0x436f6e747269627574696f6e206d757374206265206772656174657220746861\n        /* \"#utility.yul\":15216:15217   */\n      0x00\n        /* \"#utility.yul\":15208:15214   */\n      dup3\n        /* \"#utility.yul\":15204:15218   */\n      add\n        /* \"#utility.yul\":15197:15255   */\n      mstore\n        /* \"#utility.yul\":15289:15295   */\n      0x6e20302e00000000000000000000000000000000000000000000000000000000\n        /* \"#utility.yul\":15284:15286   */\n      0x20\n        /* \"#utility.yul\":15276:15282   */\n      dup3\n        /* \"#utility.yul\":15272:15287   */\n      add\n        /* \"#utility.yul\":15265:15296   */\n      mstore\n        /* \"#utility.yul\":15080:15303   */\n      pop\n      jump\t// out\n        /* \"#utility.yul\":15309:15675   */\n    tag_135:\n        /* \"#utility.yul\":15451:15454   */\n      0x00\n        /* \"#utility.yul\":15472:15539   */\n      tag_262\n        /* \"#utility.yul\":15536:15538   */\n      0x24\n        /* \"#utility.yul\":15531:15534   */\n      dup4\n        /* \"#utility.yul\":15472:15539   */\n      tag_111\n      jump\t// in\n    tag_262:\n        /* \"#utility.yul\":15465:15539   */\n      swap2\n      pop\n        /* \"#utility.yul\":15548:15641   */\n      tag_263\n        /* \"#utility.yul\":15637:15640   */\n      dup3\n        /* \"#utility.yul\":15548:15641   */\n      tag_134\n      jump\t// in\n    tag_263:\n        /* \"#utility.yul\":15666:15668   */\n      0x40\n        /* \"#utility.yul\":15661:15664   */\n      dup3\n        /* \"#utility.yul\":15657:15669   */\n      add\n        /* \"#utility.yul\":15650:15669   */\n      swap1\n      pop\n        /* \"#utility.yul\":15309:15675   */\n      swap2\n      swap1\n      pop\n      jump\t// out\n        /* \"#utility.yul\":15681:16100   */\n    tag_93:\n        /* \"#utility.yul\":15847:15851   */\n      0x00\n        /* \"#utility.yul\":15885:15887   */\n      0x20\n        /* \"#utility.yul\":15874:15883   */\n      dup3\n        /* \"#utility.yul\":15870:15888   */\n      add\n        /* \"#utility.yul\":15862:15888   */\n      swap1\n      pop\n        /* \"#utility.yul\":15934:15943   */\n      dup2\n        /* \"#utility.yul\":15928:15932   */\n      dup2\n        /* \"#utility.yul\":15924:15944   */\n      sub\n        /* \"#utility.yul\":15920:15921   */\n      0x00\n        /* \"#utility.yul\":15909:15918   */\n      dup4\n        /* \"#utility.yul\":15905:15922   */\n      add\n        /* \"#utility.yul\":15898:15945   */\n      mstore\n        /* \"#utility.yul\":15962:16093   */\n      tag_265\n        /* \"#utility.yul\":16088:16092   */\n      dup2\n        /* \"#utility.yul\":15962:16093   */\n      tag_135\n      jump\t// in\n    tag_265:\n        /* \"#utility.yul\":15954:16093   */\n      swap1\n      pop\n        /* \"#utility.yul\":15681:16100   */\n      swap2\n      swap1\n      pop\n      jump\t// out\n\n    auxdata: 0xa2646970667358221220ae942d5fd094d9547b8388daf7a5f358081b7c3d1c6be96dd7ed3e5624a2498564736f6c63430008180033\n}\n",
				"bytecode": {
					"linkReferences": {},
					"object": "608060405234801561000f575f80fd5b50610f208061001d5f395ff3fe608060405260043610610054575f3560e01c8063141961bc14610058578063155dd5ee1461009857806322502268146100c05780632d28e89d146100e85780633d891f5914610112578063c1cbbca71461014e575b5f80fd5b348015610063575f80fd5b5061007e600480360381019061007991906107bb565b61016a565b60405161008f95949392919061084e565b60405180910390f35b3480156100a3575f80fd5b506100be60048036038101906100b991906107bb565b6101d5565b005b3480156100cb575f80fd5b506100e660048036038101906100e1919061089f565b61049f565b005b3480156100f3575f80fd5b506100fc61059c565b60405161010991906108dd565b60405180910390f35b34801561011d575f80fd5b5061013860048036038101906101339190610931565b6105a3565b60405161014591906108dd565b60405180910390f35b610168600480360381019061016391906107bb565b6105c3565b005b5f8181548110610178575f80fd5b905f5260205f2090600502015f91509050805f015f9054906101000a900473ffffffffffffffffffffffffffffffffffffffff1690806001015490806002015490806003015490806004015f9054906101000a900460ff16905085565b5f80549050811061021b576040517f08c379a0000000000000000000000000000000000000000000000000000000008152600401610212906109c9565b60405180910390fd5b5f80828154811061022f5761022e6109e7565b5b905f5260205f2090600502019050805f015f9054906101000a900473ffffffffffffffffffffffffffffffffffffffff1673ffffffffffffffffffffffffffffffffffffffff163373ffffffffffffffffffffffffffffffffffffffff16146102cd576040517f08c379a00000000000000000000000000000000000000000000000000000000081526004016102c490610a5e565b60405180910390fd5b8060020154421015610314576040517f08c379a000000000000000000000000000000000000000000000000000000000815260040161030b90610ac6565b60405180910390fd5b80600101548160030154101561035f576040517f08c379a000000000000000000000000000000000000000000000000000000000815260040161035690610b2e565b60405180910390fd5b806004015f9054906101000a900460ff16156103b0576040517f08c379a00000000000000000000000000000000000000000000000000000000081526004016103a790610bbc565b60405180910390fd5b6001816004015f6101000a81548160ff0219169083151502179055505f815f015f9054906101000a900473ffffffffffffffffffffffffffffffffffffffff1673ffffffffffffffffffffffffffffffffffffffff16826003015460405161041790610c07565b5f6040518083038185875af1925050503d805f8114610451576040519150601f19603f3d011682016040523d82523d5f602084013e610456565b606091505b505090508061049a576040517f08c379a000000000000000000000000000000000000000000000000000000000815260040161049190610c65565b60405180910390fd5b505050565b62093a8062015180826104b29190610cb0565b10156104f3576040517f08c379a00000000000000000000000000000000000000000000000000000000081526004016104ea90610d3b565b60405180910390fd5b5f670de0b6b3a7640000836105089190610cb0565b90505f8060018160018154018082558091505003905f5260205f209060050201905033815f015f6101000a81548173ffffffffffffffffffffffffffffffffffffffff021916908373ffffffffffffffffffffffffffffffffffffffff16021790555081816001018190555062015180836105839190610cb0565b4261058e9190610d59565b816002018190555050505050565b62093a8081565b6001602052815f5260405f20602052805f5260405f205f91509150505481565b5f805490508110610609576040517f08c379a0000000000000000000000000000000000000000000000000000000008152600401610600906109c9565b60405180910390fd5b5f80828154811061061d5761061c6109e7565b5b905f5260205f209060050201905080600201544210610671576040517f08c379a000000000000000000000000000000000000000000000000000000000815260040161066890610dd6565b60405180910390fd5b806004015f9054906101000a900460ff16156106c2576040517f08c379a00000000000000000000000000000000000000000000000000000000081526004016106b990610e3e565b60405180910390fd5b5f3411610704576040517f08c379a00000000000000000000000000000000000000000000000000000000081526004016106fb90610ecc565b60405180910390fd5b3460015f8481526020019081526020015f205f3373ffffffffffffffffffffffffffffffffffffffff1673ffffffffffffffffffffffffffffffffffffffff1681526020019081526020015f205f82825461075f9190610d59565b9250508190555034816003015f8282546107799190610d59565b925050819055505050565b5f80fd5b5f819050919050565b61079a81610788565b81146107a4575f80fd5b50565b5f813590506107b581610791565b92915050565b5f602082840312156107d0576107cf610784565b5b5f6107dd848285016107a7565b91505092915050565b5f73ffffffffffffffffffffffffffffffffffffffff82169050919050565b5f61080f826107e6565b9050919050565b61081f81610805565b82525050565b61082e81610788565b82525050565b5f8115159050919050565b61084881610834565b82525050565b5f60a0820190506108615f830188610816565b61086e6020830187610825565b61087b6040830186610825565b6108886060830185610825565b610895608083018461083f565b9695505050505050565b5f80604083850312156108b5576108b4610784565b5b5f6108c2858286016107a7565b92505060206108d3858286016107a7565b9150509250929050565b5f6020820190506108f05f830184610825565b92915050565b5f610900826107e6565b9050919050565b610910816108f6565b811461091a575f80fd5b50565b5f8135905061092b81610907565b92915050565b5f806040838503121561094757610946610784565b5b5f610954858286016107a7565b92505060206109658582860161091d565b9150509250929050565b5f82825260208201905092915050565b7f43616d706169676e20646f6573206e6f742065786973742e00000000000000005f82015250565b5f6109b360188361096f565b91506109be8261097f565b602082019050919050565b5f6020820190508181035f8301526109e0816109a7565b9050919050565b7f4e487b71000000000000000000000000000000000000000000000000000000005f52603260045260245ffd5b7f4f6e6c79207468652063726561746f722063616e2077697468647261772e00005f82015250565b5f610a48601e8361096f565b9150610a5382610a14565b602082019050919050565b5f6020820190508181035f830152610a7581610a3c565b9050919050565b7f43616d706169676e20686173206e6f7420656e646564207965742e00000000005f82015250565b5f610ab0601b8361096f565b9150610abb82610a7c565b602082019050919050565b5f6020820190508181035f830152610add81610aa4565b9050919050565b7f43616d706169676e20676f616c206e6f7420726561636865642e0000000000005f82015250565b5f610b18601a8361096f565b9150610b2382610ae4565b602082019050919050565b5f6020820190508181035f830152610b4581610b0c565b9050919050565b7f46756e6473206861766520616c7265616479206265656e2077697468647261775f8201527f6e2e000000000000000000000000000000000000000000000000000000000000602082015250565b5f610ba660228361096f565b9150610bb182610b4c565b604082019050919050565b5f6020820190508181035f830152610bd381610b9a565b9050919050565b5f81905092915050565b50565b5f610bf25f83610bda565b9150610bfd82610be4565b5f82019050919050565b5f610c1182610be7565b9150819050919050565b7f4661696c656420746f2073656e642045746865720000000000000000000000005f82015250565b5f610c4f60148361096f565b9150610c5a82610c1b565b602082019050919050565b5f6020820190508181035f830152610c7c81610c43565b9050919050565b7f4e487b71000000000000000000000000000000000000000000000000000000005f52601160045260245ffd5b5f610cba82610788565b9150610cc583610788565b9250828202610cd381610788565b91508282048414831517610cea57610ce9610c83565b5b5092915050565b7f43616d706169676e206475726174696f6e20697320746f6f2073686f72742e005f82015250565b5f610d25601f8361096f565b9150610d3082610cf1565b602082019050919050565b5f6020820190508181035f830152610d5281610d19565b9050919050565b5f610d6382610788565b9150610d6e83610788565b9250828201905080821115610d8657610d85610c83565b5b92915050565b7f43616d706169676e2068617320656e6465642e000000000000000000000000005f82015250565b5f610dc060138361096f565b9150610dcb82610d8c565b602082019050919050565b5f6020820190508181035f830152610ded81610db4565b9050919050565b7f43616d706169676e20697320616c726561647920636f6d706c657465642e00005f82015250565b5f610e28601e8361096f565b9150610e3382610df4565b602082019050919050565b5f6020820190508181035f830152610e5581610e1c565b9050919050565b7f436f6e747269627574696f6e206d7573742062652067726561746572207468615f8201527f6e20302e00000000000000000000000000000000000000000000000000000000602082015250565b5f610eb660248361096f565b9150610ec182610e5c565b604082019050919050565b5f6020820190508181035f830152610ee381610eaa565b905091905056fea2646970667358221220ae942d5fd094d9547b8388daf7a5f358081b7c3d1c6be96dd7ed3e5624a2498564736f6c63430008180033",
					"opcodes": "PUSH1 0x80 PUSH1 0x40 MSTORE CALLVALUE DUP1 ISZERO PUSH2 0xF JUMPI PUSH0 DUP1 REVERT JUMPDEST POP PUSH2 0xF20 DUP1 PUSH2 0x1D PUSH0 CODECOPY PUSH0 RETURN INVALID PUSH1 0x80 PUSH1 0x40 MSTORE PUSH1 0x4 CALLDATASIZE LT PUSH2 0x54 JUMPI PUSH0 CALLDATALOAD PUSH1 0xE0 SHR DUP1 PUSH4 0x141961BC EQ PUSH2 0x58 JUMPI DUP1 PUSH4 0x155DD5EE EQ PUSH2 0x98 JUMPI DUP1 PUSH4 0x22502268 EQ PUSH2 0xC0 JUMPI DUP1 PUSH4 0x2D28E89D EQ PUSH2 0xE8 JUMPI DUP1 PUSH4 0x3D891F59 EQ PUSH2 0x112 JUMPI DUP1 PUSH4 0xC1CBBCA7 EQ PUSH2 0x14E JUMPI JUMPDEST PUSH0 DUP1 REVERT JUMPDEST CALLVALUE DUP1 ISZERO PUSH2 0x63 JUMPI PUSH0 DUP1 REVERT JUMPDEST POP PUSH2 0x7E PUSH1 0x4 DUP1 CALLDATASIZE SUB DUP2 ADD SWAP1 PUSH2 0x79 SWAP2 SWAP1 PUSH2 0x7BB JUMP JUMPDEST PUSH2 0x16A JUMP JUMPDEST PUSH1 0x40 MLOAD PUSH2 0x8F SWAP6 SWAP5 SWAP4 SWAP3 SWAP2 SWAP1 PUSH2 0x84E JUMP JUMPDEST PUSH1 0x40 MLOAD DUP1 SWAP2 SUB SWAP1 RETURN JUMPDEST CALLVALUE DUP1 ISZERO PUSH2 0xA3 JUMPI PUSH0 DUP1 REVERT JUMPDEST POP PUSH2 0xBE PUSH1 0x4 DUP1 CALLDATASIZE SUB DUP2 ADD SWAP1 PUSH2 0xB9 SWAP2 SWAP1 PUSH2 0x7BB JUMP JUMPDEST PUSH2 0x1D5 JUMP JUMPDEST STOP JUMPDEST CALLVALUE DUP1 ISZERO PUSH2 0xCB JUMPI PUSH0 DUP1 REVERT JUMPDEST POP PUSH2 0xE6 PUSH1 0x4 DUP1 CALLDATASIZE SUB DUP2 ADD SWAP1 PUSH2 0xE1 SWAP2 SWAP1 PUSH2 0x89F JUMP JUMPDEST PUSH2 0x49F JUMP JUMPDEST STOP JUMPDEST CALLVALUE DUP1 ISZERO PUSH2 0xF3 JUMPI PUSH0 DUP1 REVERT JUMPDEST POP PUSH2 0xFC PUSH2 0x59C JUMP JUMPDEST PUSH1 0x40 MLOAD PUSH2 0x109 SWAP2 SWAP1 PUSH2 0x8DD JUMP JUMPDEST PUSH1 0x40 MLOAD DUP1 SWAP2 SUB SWAP1 RETURN JUMPDEST CALLVALUE DUP1 ISZERO PUSH2 0x11D JUMPI PUSH0 DUP1 REVERT JUMPDEST POP PUSH2 0x138 PUSH1 0x4 DUP1 CALLDATASIZE SUB DUP2 ADD SWAP1 PUSH2 0x133 SWAP2 SWAP1 PUSH2 0x931 JUMP JUMPDEST PUSH2 0x5A3 JUMP JUMPDEST PUSH1 0x40 MLOAD PUSH2 0x145 SWAP2 SWAP1 PUSH2 0x8DD JUMP JUMPDEST PUSH1 0x40 MLOAD DUP1 SWAP2 SUB SWAP1 RETURN JUMPDEST PUSH2 0x168 PUSH1 0x4 DUP1 CALLDATASIZE SUB DUP2 ADD SWAP1 PUSH2 0x163 SWAP2 SWAP1 PUSH2 0x7BB JUMP JUMPDEST PUSH2 0x5C3 JUMP JUMPDEST STOP JUMPDEST PUSH0 DUP2 DUP2 SLOAD DUP2 LT PUSH2 0x178 JUMPI PUSH0 DUP1 REVERT JUMPDEST SWAP1 PUSH0 MSTORE PUSH1 0x20 PUSH0 KECCAK256 SWAP1 PUSH1 0x5 MUL ADD PUSH0 SWAP2 POP SWAP1 POP DUP1 PUSH0 ADD PUSH0 SWAP1 SLOAD SWAP1 PUSH2 0x100 EXP SWAP1 DIV PUSH20 0xFFFFFFFFFFFFFFFFFFFFFFFFFFFFFFFFFFFFFFFF AND SWAP1 DUP1 PUSH1 0x1 ADD SLOAD SWAP1 DUP1 PUSH1 0x2 ADD SLOAD SWAP1 DUP1 PUSH1 0x3 ADD SLOAD SWAP1 DUP1 PUSH1 0x4 ADD PUSH0 SWAP1 SLOAD SWAP1 PUSH2 0x100 EXP SWAP1 DIV PUSH1 0xFF AND SWAP1 POP DUP6 JUMP JUMPDEST PUSH0 DUP1 SLOAD SWAP1 POP DUP2 LT PUSH2 0x21B JUMPI PUSH1 0x40 MLOAD PUSH32 0x8C379A000000000000000000000000000000000000000000000000000000000 DUP2 MSTORE PUSH1 0x4 ADD PUSH2 0x212 SWAP1 PUSH2 0x9C9 JUMP JUMPDEST PUSH1 0x40 MLOAD DUP1 SWAP2 SUB SWAP1 REVERT JUMPDEST PUSH0 DUP1 DUP3 DUP2 SLOAD DUP2 LT PUSH2 0x22F JUMPI PUSH2 0x22E PUSH2 0x9E7 JUMP JUMPDEST JUMPDEST SWAP1 PUSH0 MSTORE PUSH1 0x20 PUSH0 KECCAK256 SWAP1 PUSH1 0x5 MUL ADD SWAP1 POP DUP1 PUSH0 ADD PUSH0 SWAP1 SLOAD SWAP1 PUSH2 0x100 EXP SWAP1 DIV PUSH20 0xFFFFFFFFFFFFFFFFFFFFFFFFFFFFFFFFFFFFFFFF AND PUSH20 0xFFFFFFFFFFFFFFFFFFFFFFFFFFFFFFFFFFFFFFFF AND CALLER PUSH20 0xFFFFFFFFFFFFFFFFFFFFFFFFFFFFFFFFFFFFFFFF AND EQ PUSH2 0x2CD JUMPI PUSH1 0x40 MLOAD PUSH32 0x8C379A000000000000000000000000000000000000000000000000000000000 DUP2 MSTORE PUSH1 0x4 ADD PUSH2 0x2C4 SWAP1 PUSH2 0xA5E JUMP JUMPDEST PUSH1 0x40 MLOAD DUP1 SWAP2 SUB SWAP1 REVERT JUMPDEST DUP1 PUSH1 0x2 ADD SLOAD TIMESTAMP LT ISZERO PUSH2 0x314 JUMPI PUSH1 0x40 MLOAD PUSH32 0x8C379A000000000000000000000000000000000000000000000000000000000 DUP2 MSTORE PUSH1 0x4 ADD PUSH2 0x30B SWAP1 PUSH2 0xAC6 JUMP JUMPDEST PUSH1 0x40 MLOAD DUP1 SWAP2 SUB SWAP1 REVERT JUMPDEST DUP1 PUSH1 0x1 ADD SLOAD DUP2 PUSH1 0x3 ADD SLOAD LT ISZERO PUSH2 0x35F JUMPI PUSH1 0x40 MLOAD PUSH32 0x8C379A000000000000000000000000000000000000000000000000000000000 DUP2 MSTORE PUSH1 0x4 ADD PUSH2 0x356 SWAP1 PUSH2 0xB2E JUMP JUMPDEST PUSH1 0x40 MLOAD DUP1 SWAP2 SUB SWAP1 REVERT JUMPDEST DUP1 PUSH1 0x4 ADD PUSH0 SWAP1 SLOAD SWAP1 PUSH2 0x100 EXP SWAP1 DIV PUSH1 0xFF AND ISZERO PUSH2 0x3B0 JUMPI PUSH1 0x40 MLOAD PUSH32 0x8C379A000000000000000000000000000000000000000000000000000000000 DUP2 MSTORE PUSH1 0x4 ADD PUSH2 0x3A7 SWAP1 PUSH2 0xBBC JUMP JUMPDEST PUSH1 0x40 MLOAD DUP1 SWAP2 SUB SWAP1 REVERT JUMPDEST PUSH1 0x1 DUP2 PUSH1 0x4 ADD PUSH0 PUSH2 0x100 EXP DUP2 SLOAD DUP2 PUSH1 0xFF MUL NOT AND SWAP1 DUP4 ISZERO ISZERO MUL OR SWAP1 SSTORE POP PUSH0 DUP2 PUSH0 ADD PUSH0 SWAP1 SLOAD SWAP1 PUSH2 0x100 EXP SWAP1 DIV PUSH20 0xFFFFFFFFFFFFFFFFFFFFFFFFFFFFFFFFFFFFFFFF AND PUSH20 0xFFFFFFFFFFFFFFFFFFFFFFFFFFFFFFFFFFFFFFFF AND DUP3 PUSH1 0x3 ADD SLOAD PUSH1 0x40 MLOAD PUSH2 0x417 SWAP1 PUSH2 0xC07 JUMP JUMPDEST PUSH0 PUSH1 0x40 MLOAD DUP1 DUP4 SUB DUP2 DUP6 DUP8 GAS CALL SWAP3 POP POP POP RETURNDATASIZE DUP1 PUSH0 DUP2 EQ PUSH2 0x451 JUMPI PUSH1 0x40 MLOAD SWAP2 POP PUSH1 0x1F NOT PUSH1 0x3F RETURNDATASIZE ADD AND DUP3 ADD PUSH1 0x40 MSTORE RETURNDATASIZE DUP3 MSTORE RETURNDATASIZE PUSH0 PUSH1 0x20 DUP5 ADD RETURNDATACOPY PUSH2 0x456 JUMP JUMPDEST PUSH1 0x60 SWAP2 POP JUMPDEST POP POP SWAP1 POP DUP1 PUSH2 0x49A JUMPI PUSH1 0x40 MLOAD PUSH32 0x8C379A000000000000000000000000000000000000000000000000000000000 DUP2 MSTORE PUSH1 0x4 ADD PUSH2 0x491 SWAP1 PUSH2 0xC65 JUMP JUMPDEST PUSH1 0x40 MLOAD DUP1 SWAP2 SUB SWAP1 REVERT JUMPDEST POP POP POP JUMP JUMPDEST PUSH3 0x93A80 PUSH3 0x15180 DUP3 PUSH2 0x4B2 SWAP2 SWAP1 PUSH2 0xCB0 JUMP JUMPDEST LT ISZERO PUSH2 0x4F3 JUMPI PUSH1 0x40 MLOAD PUSH32 0x8C379A000000000000000000000000000000000000000000000000000000000 DUP2 MSTORE PUSH1 0x4 ADD PUSH2 0x4EA SWAP1 PUSH2 0xD3B JUMP JUMPDEST PUSH1 0x40 MLOAD DUP1 SWAP2 SUB SWAP1 REVERT JUMPDEST PUSH0 PUSH8 0xDE0B6B3A7640000 DUP4 PUSH2 0x508 SWAP2 SWAP1 PUSH2 0xCB0 JUMP JUMPDEST SWAP1 POP PUSH0 DUP1 PUSH1 0x1 DUP2 PUSH1 0x1 DUP2 SLOAD ADD DUP1 DUP3 SSTORE DUP1 SWAP2 POP POP SUB SWAP1 PUSH0 MSTORE PUSH1 0x20 PUSH0 KECCAK256 SWAP1 PUSH1 0x5 MUL ADD SWAP1 POP CALLER DUP2 PUSH0 ADD PUSH0 PUSH2 0x100 EXP DUP2 SLOAD DUP2 PUSH20 0xFFFFFFFFFFFFFFFFFFFFFFFFFFFFFFFFFFFFFFFF MUL NOT AND SWAP1 DUP4 PUSH20 0xFFFFFFFFFFFFFFFFFFFFFFFFFFFFFFFFFFFFFFFF AND MUL OR SWAP1 SSTORE POP DUP2 DUP2 PUSH1 0x1 ADD DUP2 SWAP1 SSTORE POP PUSH3 0x15180 DUP4 PUSH2 0x583 SWAP2 SWAP1 PUSH2 0xCB0 JUMP JUMPDEST TIMESTAMP PUSH2 0x58E SWAP2 SWAP1 PUSH2 0xD59 JUMP JUMPDEST DUP2 PUSH1 0x2 ADD DUP2 SWAP1 SSTORE POP POP POP POP POP JUMP JUMPDEST PUSH3 0x93A80 DUP2 JUMP JUMPDEST PUSH1 0x1 PUSH1 0x20 MSTORE DUP2 PUSH0 MSTORE PUSH1 0x40 PUSH0 KECCAK256 PUSH1 0x20 MSTORE DUP1 PUSH0 MSTORE PUSH1 0x40 PUSH0 KECCAK256 PUSH0 SWAP2 POP SWAP2 POP POP SLOAD DUP2 JUMP JUMPDEST PUSH0 DUP1 SLOAD SWAP1 POP DUP2 LT PUSH2 0x609 JUMPI PUSH1 0x40 MLOAD PUSH32 0x8C379A000000000000000000000000000000000000000000000000000000000 DUP2 MSTORE PUSH1 0x4 ADD PUSH2 0x600 SWAP1 PUSH2 0x9C9 JUMP JUMPDEST PUSH1 0x40 MLOAD DUP1 SWAP2 SUB SWAP1 REVERT JUMPDEST PUSH0 DUP1 DUP3 DUP2 SLOAD DUP2 LT PUSH2 0x61D JUMPI PUSH2 0x61C PUSH2 0x9E7 JUMP JUMPDEST JUMPDEST SWAP1 PUSH0 MSTORE PUSH1 0x20 PUSH0 KECCAK256 SWAP1 PUSH1 0x5 MUL ADD SWAP1 POP DUP1 PUSH1 0x2 ADD SLOAD TIMESTAMP LT PUSH2 0x671 JUMPI PUSH1 0x40 MLOAD PUSH32 0x8C379A000000000000000000000000000000000000000000000000000000000 DUP2 MSTORE PUSH1 0x4 ADD PUSH2 0x668 SWAP1 PUSH2 0xDD6 JUMP JUMPDEST PUSH1 0x40 MLOAD DUP1 SWAP2 SUB SWAP1 REVERT JUMPDEST DUP1 PUSH1 0x4 ADD PUSH0 SWAP1 SLOAD SWAP1 PUSH2 0x100 EXP SWAP1 DIV PUSH1 0xFF AND ISZERO PUSH2 0x6C2 JUMPI PUSH1 0x40 MLOAD PUSH32 0x8C379A000000000000000000000000000000000000000000000000000000000 DUP2 MSTORE PUSH1 0x4 ADD PUSH2 0x6B9 SWAP1 PUSH2 0xE3E JUMP JUMPDEST PUSH1 0x40 MLOAD DUP1 SWAP2 SUB SWAP1 REVERT JUMPDEST PUSH0 CALLVALUE GT PUSH2 0x704 JUMPI PUSH1 0x40 MLOAD PUSH32 0x8C379A000000000000000000000000000000000000000000000000000000000 DUP2 MSTORE PUSH1 0x4 ADD PUSH2 0x6FB SWAP1 PUSH2 0xECC JUMP JUMPDEST PUSH1 0x40 MLOAD DUP1 SWAP2 SUB SWAP1 REVERT JUMPDEST CALLVALUE PUSH1 0x1 PUSH0 DUP5 DUP2 MSTORE PUSH1 0x20 ADD SWAP1 DUP2 MSTORE PUSH1 0x20 ADD PUSH0 KECCAK256 PUSH0 CALLER PUSH20 0xFFFFFFFFFFFFFFFFFFFFFFFFFFFFFFFFFFFFFFFF AND PUSH20 0xFFFFFFFFFFFFFFFFFFFFFFFFFFFFFFFFFFFFFFFF AND DUP2 MSTORE PUSH1 0x20 ADD SWAP1 DUP2 MSTORE PUSH1 0x20 ADD PUSH0 KECCAK256 PUSH0 DUP3 DUP3 SLOAD PUSH2 0x75F SWAP2 SWAP1 PUSH2 0xD59 JUMP JUMPDEST SWAP3 POP POP DUP2 SWAP1 SSTORE POP CALLVALUE DUP2 PUSH1 0x3 ADD PUSH0 DUP3 DUP3 SLOAD PUSH2 0x779 SWAP2 SWAP1 PUSH2 0xD59 JUMP JUMPDEST SWAP3 POP POP DUP2 SWAP1 SSTORE POP POP POP JUMP JUMPDEST PUSH0 DUP1 REVERT JUMPDEST PUSH0 DUP2 SWAP1 POP SWAP2 SWAP1 POP JUMP JUMPDEST PUSH2 0x79A DUP2 PUSH2 0x788 JUMP JUMPDEST DUP2 EQ PUSH2 0x7A4 JUMPI PUSH0 DUP1 REVERT JUMPDEST POP JUMP JUMPDEST PUSH0 DUP2 CALLDATALOAD SWAP1 POP PUSH2 0x7B5 DUP2 PUSH2 0x791 JUMP JUMPDEST SWAP3 SWAP2 POP POP JUMP JUMPDEST PUSH0 PUSH1 0x20 DUP3 DUP5 SUB SLT ISZERO PUSH2 0x7D0 JUMPI PUSH2 0x7CF PUSH2 0x784 JUMP JUMPDEST JUMPDEST PUSH0 PUSH2 0x7DD DUP5 DUP3 DUP6 ADD PUSH2 0x7A7 JUMP JUMPDEST SWAP2 POP POP SWAP3 SWAP2 POP POP JUMP JUMPDEST PUSH0 PUSH20 0xFFFFFFFFFFFFFFFFFFFFFFFFFFFFFFFFFFFFFFFF DUP3 AND SWAP1 POP SWAP2 SWAP1 POP JUMP JUMPDEST PUSH0 PUSH2 0x80F DUP3 PUSH2 0x7E6 JUMP JUMPDEST SWAP1 POP SWAP2 SWAP1 POP JUMP JUMPDEST PUSH2 0x81F DUP2 PUSH2 0x805 JUMP JUMPDEST DUP3 MSTORE POP POP JUMP JUMPDEST PUSH2 0x82E DUP2 PUSH2 0x788 JUMP JUMPDEST DUP3 MSTORE POP POP JUMP JUMPDEST PUSH0 DUP2 ISZERO ISZERO SWAP1 POP SWAP2 SWAP1 POP JUMP JUMPDEST PUSH2 0x848 DUP2 PUSH2 0x834 JUMP JUMPDEST DUP3 MSTORE POP POP JUMP JUMPDEST PUSH0 PUSH1 0xA0 DUP3 ADD SWAP1 POP PUSH2 0x861 PUSH0 DUP4 ADD DUP9 PUSH2 0x816 JUMP JUMPDEST PUSH2 0x86E PUSH1 0x20 DUP4 ADD DUP8 PUSH2 0x825 JUMP JUMPDEST PUSH2 0x87B PUSH1 0x40 DUP4 ADD DUP7 PUSH2 0x825 JUMP JUMPDEST PUSH2 0x888 PUSH1 0x60 DUP4 ADD DUP6 PUSH2 0x825 JUMP JUMPDEST PUSH2 0x895 PUSH1 0x80 DUP4 ADD DUP5 PUSH2 0x83F JUMP JUMPDEST SWAP7 SWAP6 POP POP POP POP POP POP JUMP JUMPDEST PUSH0 DUP1 PUSH1 0x40 DUP4 DUP6 SUB SLT ISZERO PUSH2 0x8B5 JUMPI PUSH2 0x8B4 PUSH2 0x784 JUMP JUMPDEST JUMPDEST PUSH0 PUSH2 0x8C2 DUP6 DUP3 DUP7 ADD PUSH2 0x7A7 JUMP JUMPDEST SWAP3 POP POP PUSH1 0x20 PUSH2 0x8D3 DUP6 DUP3 DUP7 ADD PUSH2 0x7A7 JUMP JUMPDEST SWAP2 POP POP SWAP3 POP SWAP3 SWAP1 POP JUMP JUMPDEST PUSH0 PUSH1 0x20 DUP3 ADD SWAP1 POP PUSH2 0x8F0 PUSH0 DUP4 ADD DUP5 PUSH2 0x825 JUMP JUMPDEST SWAP3 SWAP2 POP POP JUMP JUMPDEST PUSH0 PUSH2 0x900 DUP3 PUSH2 0x7E6 JUMP JUMPDEST SWAP1 POP SWAP2 SWAP1 POP JUMP JUMPDEST PUSH2 0x910 DUP2 PUSH2 0x8F6 JUMP JUMPDEST DUP2 EQ PUSH2 0x91A JUMPI PUSH0 DUP1 REVERT JUMPDEST POP JUMP JUMPDEST PUSH0 DUP2 CALLDATALOAD SWAP1 POP PUSH2 0x92B DUP2 PUSH2 0x907 JUMP JUMPDEST SWAP3 SWAP2 POP POP JUMP JUMPDEST PUSH0 DUP1 PUSH1 0x40 DUP4 DUP6 SUB SLT ISZERO PUSH2 0x947 JUMPI PUSH2 0x946 PUSH2 0x784 JUMP JUMPDEST JUMPDEST PUSH0 PUSH2 0x954 DUP6 DUP3 DUP7 ADD PUSH2 0x7A7 JUMP JUMPDEST SWAP3 POP POP PUSH1 0x20 PUSH2 0x965 DUP6 DUP3 DUP7 ADD PUSH2 0x91D JUMP JUMPDEST SWAP2 POP POP SWAP3 POP SWAP3 SWAP1 POP JUMP JUMPDEST PUSH0 DUP3 DUP3 MSTORE PUSH1 0x20 DUP3 ADD SWAP1 POP SWAP3 SWAP2 POP POP JUMP JUMPDEST PUSH32 0x43616D706169676E20646F6573206E6F742065786973742E0000000000000000 PUSH0 DUP3 ADD MSTORE POP JUMP JUMPDEST PUSH0 PUSH2 0x9B3 PUSH1 0x18 DUP4 PUSH2 0x96F JUMP JUMPDEST SWAP2 POP PUSH2 0x9BE DUP3 PUSH2 0x97F JUMP JUMPDEST PUSH1 0x20 DUP3 ADD SWAP1 POP SWAP2 SWAP1 POP JUMP JUMPDEST PUSH0 PUSH1 0x20 DUP3 ADD SWAP1 POP DUP2 DUP2 SUB PUSH0 DUP4 ADD MSTORE PUSH2 0x9E0 DUP2 PUSH2 0x9A7 JUMP JUMPDEST SWAP1 POP SWAP2 SWAP1 POP JUMP JUMPDEST PUSH32 0x4E487B7100000000000000000000000000000000000000000000000000000000 PUSH0 MSTORE PUSH1 0x32 PUSH1 0x4 MSTORE PUSH1 0x24 PUSH0 REVERT JUMPDEST PUSH32 0x4F6E6C79207468652063726561746F722063616E2077697468647261772E0000 PUSH0 DUP3 ADD MSTORE POP JUMP JUMPDEST PUSH0 PUSH2 0xA48 PUSH1 0x1E DUP4 PUSH2 0x96F JUMP JUMPDEST SWAP2 POP PUSH2 0xA53 DUP3 PUSH2 0xA14 JUMP JUMPDEST PUSH1 0x20 DUP3 ADD SWAP1 POP SWAP2 SWAP1 POP JUMP JUMPDEST PUSH0 PUSH1 0x20 DUP3 ADD SWAP1 POP DUP2 DUP2 SUB PUSH0 DUP4 ADD MSTORE PUSH2 0xA75 DUP2 PUSH2 0xA3C JUMP JUMPDEST SWAP1 POP SWAP2 SWAP1 POP JUMP JUMPDEST PUSH32 0x43616D706169676E20686173206E6F7420656E646564207965742E0000000000 PUSH0 DUP3 ADD MSTORE POP JUMP JUMPDEST PUSH0 PUSH2 0xAB0 PUSH1 0x1B DUP4 PUSH2 0x96F JUMP JUMPDEST SWAP2 POP PUSH2 0xABB DUP3 PUSH2 0xA7C JUMP JUMPDEST PUSH1 0x20 DUP3 ADD SWAP1 POP SWAP2 SWAP1 POP JUMP JUMPDEST PUSH0 PUSH1 0x20 DUP3 ADD SWAP1 POP DUP2 DUP2 SUB PUSH0 DUP4 ADD MSTORE PUSH2 0xADD DUP2 PUSH2 0xAA4 JUMP JUMPDEST SWAP1 POP SWAP2 SWAP1 POP JUMP JUMPDEST PUSH32 0x43616D706169676E20676F616C206E6F7420726561636865642E000000000000 PUSH0 DUP3 ADD MSTORE POP JUMP JUMPDEST PUSH0 PUSH2 0xB18 PUSH1 0x1A DUP4 PUSH2 0x96F JUMP JUMPDEST SWAP2 POP PUSH2 0xB23 DUP3 PUSH2 0xAE4 JUMP JUMPDEST PUSH1 0x20 DUP3 ADD SWAP1 POP SWAP2 SWAP1 POP JUMP JUMPDEST PUSH0 PUSH1 0x20 DUP3 ADD SWAP1 POP DUP2 DUP2 SUB PUSH0 DUP4 ADD MSTORE PUSH2 0xB45 DUP2 PUSH2 0xB0C JUMP JUMPDEST SWAP1 POP SWAP2 SWAP1 POP JUMP JUMPDEST PUSH32 0x46756E6473206861766520616C7265616479206265656E207769746864726177 PUSH0 DUP3 ADD MSTORE PUSH32 0x6E2E000000000000000000000000000000000000000000000000000000000000 PUSH1 0x20 DUP3 ADD MSTORE POP JUMP JUMPDEST PUSH0 PUSH2 0xBA6 PUSH1 0x22 DUP4 PUSH2 0x96F JUMP JUMPDEST SWAP2 POP PUSH2 0xBB1 DUP3 PUSH2 0xB4C JUMP JUMPDEST PUSH1 0x40 DUP3 ADD SWAP1 POP SWAP2 SWAP1 POP JUMP JUMPDEST PUSH0 PUSH1 0x20 DUP3 ADD SWAP1 POP DUP2 DUP2 SUB PUSH0 DUP4 ADD MSTORE PUSH2 0xBD3 DUP2 PUSH2 0xB9A JUMP JUMPDEST SWAP1 POP SWAP2 SWAP1 POP JUMP JUMPDEST PUSH0 DUP2 SWAP1 POP SWAP3 SWAP2 POP POP JUMP JUMPDEST POP JUMP JUMPDEST PUSH0 PUSH2 0xBF2 PUSH0 DUP4 PUSH2 0xBDA JUMP JUMPDEST SWAP2 POP PUSH2 0xBFD DUP3 PUSH2 0xBE4 JUMP JUMPDEST PUSH0 DUP3 ADD SWAP1 POP SWAP2 SWAP1 POP JUMP JUMPDEST PUSH0 PUSH2 0xC11 DUP3 PUSH2 0xBE7 JUMP JUMPDEST SWAP2 POP DUP2 SWAP1 POP SWAP2 SWAP1 POP JUMP JUMPDEST PUSH32 0x4661696C656420746F2073656E64204574686572000000000000000000000000 PUSH0 DUP3 ADD MSTORE POP JUMP JUMPDEST PUSH0 PUSH2 0xC4F PUSH1 0x14 DUP4 PUSH2 0x96F JUMP JUMPDEST SWAP2 POP PUSH2 0xC5A DUP3 PUSH2 0xC1B JUMP JUMPDEST PUSH1 0x20 DUP3 ADD SWAP1 POP SWAP2 SWAP1 POP JUMP JUMPDEST PUSH0 PUSH1 0x20 DUP3 ADD SWAP1 POP DUP2 DUP2 SUB PUSH0 DUP4 ADD MSTORE PUSH2 0xC7C DUP2 PUSH2 0xC43 JUMP JUMPDEST SWAP1 POP SWAP2 SWAP1 POP JUMP JUMPDEST PUSH32 0x4E487B7100000000000000000000000000000000000000000000000000000000 PUSH0 MSTORE PUSH1 0x11 PUSH1 0x4 MSTORE PUSH1 0x24 PUSH0 REVERT JUMPDEST PUSH0 PUSH2 0xCBA DUP3 PUSH2 0x788 JUMP JUMPDEST SWAP2 POP PUSH2 0xCC5 DUP4 PUSH2 0x788 JUMP JUMPDEST SWAP3 POP DUP3 DUP3 MUL PUSH2 0xCD3 DUP2 PUSH2 0x788 JUMP JUMPDEST SWAP2 POP DUP3 DUP3 DIV DUP5 EQ DUP4 ISZERO OR PUSH2 0xCEA JUMPI PUSH2 0xCE9 PUSH2 0xC83 JUMP JUMPDEST JUMPDEST POP SWAP3 SWAP2 POP POP JUMP JUMPDEST PUSH32 0x43616D706169676E206475726174696F6E20697320746F6F2073686F72742E00 PUSH0 DUP3 ADD MSTORE POP JUMP JUMPDEST PUSH0 PUSH2 0xD25 PUSH1 0x1F DUP4 PUSH2 0x96F JUMP JUMPDEST SWAP2 POP PUSH2 0xD30 DUP3 PUSH2 0xCF1 JUMP JUMPDEST PUSH1 0x20 DUP3 ADD SWAP1 POP SWAP2 SWAP1 POP JUMP JUMPDEST PUSH0 PUSH1 0x20 DUP3 ADD SWAP1 POP DUP2 DUP2 SUB PUSH0 DUP4 ADD MSTORE PUSH2 0xD52 DUP2 PUSH2 0xD19 JUMP JUMPDEST SWAP1 POP SWAP2 SWAP1 POP JUMP JUMPDEST PUSH0 PUSH2 0xD63 DUP3 PUSH2 0x788 JUMP JUMPDEST SWAP2 POP PUSH2 0xD6E DUP4 PUSH2 0x788 JUMP JUMPDEST SWAP3 POP DUP3 DUP3 ADD SWAP1 POP DUP1 DUP3 GT ISZERO PUSH2 0xD86 JUMPI PUSH2 0xD85 PUSH2 0xC83 JUMP JUMPDEST JUMPDEST SWAP3 SWAP2 POP POP JUMP JUMPDEST PUSH32 0x43616D706169676E2068617320656E6465642E00000000000000000000000000 PUSH0 DUP3 ADD MSTORE POP JUMP JUMPDEST PUSH0 PUSH2 0xDC0 PUSH1 0x13 DUP4 PUSH2 0x96F JUMP JUMPDEST SWAP2 POP PUSH2 0xDCB DUP3 PUSH2 0xD8C JUMP JUMPDEST PUSH1 0x20 DUP3 ADD SWAP1 POP SWAP2 SWAP1 POP JUMP JUMPDEST PUSH0 PUSH1 0x20 DUP3 ADD SWAP1 POP DUP2 DUP2 SUB PUSH0 DUP4 ADD MSTORE PUSH2 0xDED DUP2 PUSH2 0xDB4 JUMP JUMPDEST SWAP1 POP SWAP2 SWAP1 POP JUMP JUMPDEST PUSH32 0x43616D706169676E20697320616C726561647920636F6D706C657465642E0000 PUSH0 DUP3 ADD MSTORE POP JUMP JUMPDEST PUSH0 PUSH2 0xE28 PUSH1 0x1E DUP4 PUSH2 0x96F JUMP JUMPDEST SWAP2 POP PUSH2 0xE33 DUP3 PUSH2 0xDF4 JUMP JUMPDEST PUSH1 0x20 DUP3 ADD SWAP1 POP SWAP2 SWAP1 POP JUMP JUMPDEST PUSH0 PUSH1 0x20 DUP3 ADD SWAP1 POP DUP2 DUP2 SUB PUSH0 DUP4 ADD MSTORE PUSH2 0xE55 DUP2 PUSH2 0xE1C JUMP JUMPDEST SWAP1 POP SWAP2 SWAP1 POP JUMP JUMPDEST PUSH32 0x436F6E747269627574696F6E206D757374206265206772656174657220746861 PUSH0 DUP3 ADD MSTORE PUSH32 0x6E20302E00000000000000000000000000000000000000000000000000000000 PUSH1 0x20 DUP3 ADD MSTORE POP JUMP JUMPDEST PUSH0 PUSH2 0xEB6 PUSH1 0x24 DUP4 PUSH2 0x96F JUMP JUMPDEST SWAP2 POP PUSH2 0xEC1 DUP3 PUSH2 0xE5C JUMP JUMPDEST PUSH1 0x40 DUP3 ADD SWAP1 POP SWAP2 SWAP1 POP JUMP JUMPDEST PUSH0 PUSH1 0x20 DUP3 ADD SWAP1 POP DUP2 DUP2 SUB PUSH0 DUP4 ADD MSTORE PUSH2 0xEE3 DUP2 PUSH2 0xEAA JUMP JUMPDEST SWAP1 POP SWAP2 SWAP1 POP JUMP INVALID LOG2 PUSH5 0x6970667358 0x22 SLT KECCAK256 0xAE SWAP5 0x2D PUSH0 0xD0 SWAP5 0xD9 SLOAD PUSH28 0x8388DAF7A5F358081B7C3D1C6BE96DD7ED3E5624A2498564736F6C63 NUMBER STOP ADDMOD XOR STOP CALLER "
				},
				"gasEstimates": {
					"creation": {
						"codeDepositCost": "774400",
						"executionCost": "803",
						"totalCost": "775203"
					},
					"external": {
						"MINIMUM_DURATION()": "369",
						"campaigns(uint256)": "infinite",
						"contribute(uint256)": "infinite",
						"contributions(uint256,address)": "infinite",
						"createCampaign(uint256,uint256)": "infinite",
						"withdrawFunds(uint256)": "infinite"
					}
				},
				"methodIdentifiers": {
					"MINIMUM_DURATION()": "2d28e89d",
					"campaigns(uint256)": "141961bc",
					"contribute(uint256)": "c1cbbca7",
					"contributions(uint256,address)": "3d891f59",
					"createCampaign(uint256,uint256)": "22502268",
					"withdrawFunds(uint256)": "155dd5ee"
				}
			},
			"storageLayout": {
				"storage": [
					{
						"astId": 19,
						"contract": "chapter04/review2.sol:SimpleCrowdFund",
						"label": "campaigns",
						"offset": 0,
						"slot": "0",
						"type": "t_array(t_struct(Campaign)12_storage)dyn_storage"
					},
					{
						"astId": 25,
						"contract": "chapter04/review2.sol:SimpleCrowdFund",
						"label": "contributions",
						"offset": 0,
						"slot": "1",
						"type": "t_mapping(t_uint256,t_mapping(t_address,t_uint256))"
					}
				],
				"types": {
					"t_address": {
						"encoding": "inplace",
						"label": "address",
						"numberOfBytes": "20"
					},
					"t_address_payable": {
						"encoding": "inplace",
						"label": "address payable",
						"numberOfBytes": "20"
					},
					"t_array(t_struct(Campaign)12_storage)dyn_storage": {
						"base": "t_struct(Campaign)12_storage",
						"encoding": "dynamic_array",
						"label": "struct SimpleCrowdFund.Campaign[]",
						"numberOfBytes": "32"
					},
					"t_bool": {
						"encoding": "inplace",
						"label": "bool",
						"numberOfBytes": "1"
					},
					"t_mapping(t_address,t_uint256)": {
						"encoding": "mapping",
						"key": "t_address",
						"label": "mapping(address => uint256)",
						"numberOfBytes": "32",
						"value": "t_uint256"
					},
					"t_mapping(t_uint256,t_mapping(t_address,t_uint256))": {
						"encoding": "mapping",
						"key": "t_uint256",
						"label": "mapping(uint256 => mapping(address => uint256))",
						"numberOfBytes": "32",
						"value": "t_mapping(t_address,t_uint256)"
					},
					"t_struct(Campaign)12_storage": {
						"encoding": "inplace",
						"label": "struct SimpleCrowdFund.Campaign",
						"members": [
							{
								"astId": 3,
								"contract": "chapter04/review2.sol:SimpleCrowdFund",
								"label": "creator",
								"offset": 0,
								"slot": "0",
								"type": "t_address_payable"
							},
							{
								"astId": 5,
								"contract": "chapter04/review2.sol:SimpleCrowdFund",
								"label": "goal",
								"offset": 0,
								"slot": "1",
								"type": "t_uint256"
							},
							{
								"astId": 7,
								"contract": "chapter04/review2.sol:SimpleCrowdFund",
								"label": "deadline",
								"offset": 0,
								"slot": "2",
								"type": "t_uint256"
							},
							{
								"astId": 9,
								"contract": "chapter04/review2.sol:SimpleCrowdFund",
								"label": "raisedAmount",
								"offset": 0,
								"slot": "3",
								"type": "t_uint256"
							},
							{
								"astId": 11,
								"contract": "chapter04/review2.sol:SimpleCrowdFund",
								"label": "completed",
								"offset": 0,
								"slot": "4",
								"type": "t_bool"
							}
						],
						"numberOfBytes": "160"
					},
					"t_uint256": {
						"encoding": "inplace",
						"label": "uint256",
						"numberOfBytes": "32"
					}
				}
			},
			"userdoc": {
				"kind": "user",
				"methods": {},
				"version": 1
			}
		}
	}
}