{
	"chapter07/EventTest.sol": {
		"EventTest": {
			"abi": [
				{
					"anonymous": false,
					"inputs": [
						{
							"indexed": true,
							"internalType": "address",
							"name": "sender",
							"type": "address"
						},
						{
							"indexed": false,
							"internalType": "uint256",
							"name": "newValue",
							"type": "uint256"
						},
						{
							"indexed": false,
							"internalType": "string",
							"name": "message",
							"type": "string"
						}
					],
					"name": "DataChanged",
					"type": "event"
				},
				{
					"inputs": [],
					"name": "data",
					"outputs": [
						{
							"internalType": "uint256",
							"name": "",
							"type": "uint256"
						}
					],
					"stateMutability": "view",
					"type": "function"
				},
				{
					"inputs": [],
					"name": "message",
					"outputs": [
						{
							"internalType": "string",
							"name": "",
							"type": "string"
						}
					],
					"stateMutability": "view",
					"type": "function"
				},
				{
					"inputs": [
						{
							"internalType": "uint256",
							"name": "_data",
							"type": "uint256"
						},
						{
							"internalType": "string",
							"name": "_message",
							"type": "string"
						}
					],
					"name": "updateData",
					"outputs": [],
					"stateMutability": "nonpayable",
					"type": "function"
				}
			],
			"devdoc": {
				"kind": "dev",
				"methods": {},
				"version": 1
			},
			"evm": {
				"assembly": "    /* \"chapter07/EventTest.sol\":61:628  contract EventTest {... */\n  mstore(0x40, 0x80)\n  callvalue\n  dup1\n  iszero\n  tag_1\n  jumpi\n  0x00\n  dup1\n  revert\ntag_1:\n  pop\n  dataSize(sub_0)\n  dup1\n  dataOffset(sub_0)\n  0x00\n  codecopy\n  0x00\n  return\nstop\n\nsub_0: assembly {\n        /* \"chapter07/EventTest.sol\":61:628  contract EventTest {... */\n      mstore(0x40, 0x80)\n      callvalue\n      dup1\n      iszero\n      tag_1\n      jumpi\n      0x00\n      dup1\n      revert\n    tag_1:\n      pop\n      jumpi(tag_2, lt(calldatasize, 0x04))\n      shr(0xe0, calldataload(0x00))\n      dup1\n      0x73d4a13a\n      eq\n      tag_3\n      jumpi\n      dup1\n      0x89a8e2a7\n      eq\n      tag_4\n      jumpi\n      dup1\n      0xe21f37ce\n      eq\n      tag_5\n      jumpi\n    tag_2:\n      0x00\n      dup1\n      revert\n        /* \"chapter07/EventTest.sol\":287:306  uint256 public data */\n    tag_3:\n      tag_6\n      tag_7\n      jump\t// in\n    tag_6:\n      mload(0x40)\n      tag_8\n      swap2\n      swap1\n      tag_9\n      jump\t// in\n    tag_8:\n      mload(0x40)\n      dup1\n      swap2\n      sub\n      swap1\n      return\n        /* \"chapter07/EventTest.sol\":373:625  function updateData(uint256 _data, string calldata _message) public {... */\n    tag_4:\n      tag_10\n      0x04\n      dup1\n      calldatasize\n      sub\n      dup2\n      add\n      swap1\n      tag_11\n      swap2\n      swap1\n      tag_12\n      jump\t// in\n    tag_11:\n      tag_13\n      jump\t// in\n    tag_10:\n      stop\n        /* \"chapter07/EventTest.sol\":313:334  string public message */\n    tag_5:\n      tag_14\n      tag_15\n      jump\t// in\n    tag_14:\n      mload(0x40)\n      tag_16\n      swap2\n      swap1\n      tag_17\n      jump\t// in\n    tag_16:\n      mload(0x40)\n      dup1\n      swap2\n      sub\n      swap1\n      return\n        /* \"chapter07/EventTest.sol\":287:306  uint256 public data */\n    tag_7:\n      sload(0x00)\n      dup2\n      jump\t// out\n        /* \"chapter07/EventTest.sol\":373:625  function updateData(uint256 _data, string calldata _message) public {... */\n    tag_13:\n        /* \"chapter07/EventTest.sol\":459:464  _data */\n      dup3\n        /* \"chapter07/EventTest.sol\":452:456  data */\n      0x00\n        /* \"chapter07/EventTest.sol\":452:464  data = _data */\n      dup2\n      swap1\n      sstore\n      pop\n        /* \"chapter07/EventTest.sol\":485:493  _message */\n      dup2\n      dup2\n        /* \"chapter07/EventTest.sol\":475:482  message */\n      0x01\n        /* \"chapter07/EventTest.sol\":475:493  message = _message */\n      swap2\n      dup3\n      tag_19\n      swap3\n      swap2\n      swap1\n      tag_20\n      jump\t// in\n    tag_19:\n      pop\n        /* \"chapter07/EventTest.sol\":589:599  msg.sender */\n      caller\n        /* \"chapter07/EventTest.sol\":577:617  DataChanged(msg.sender, _data, _message) */\n      0xffffffffffffffffffffffffffffffffffffffff\n      and\n      0x2c59ca8ece54c6eb184cf50feb693388ef0257b266adc345b1404ee1165a71da\n        /* \"chapter07/EventTest.sol\":601:606  _data */\n      dup5\n        /* \"chapter07/EventTest.sol\":608:616  _message */\n      dup5\n      dup5\n        /* \"chapter07/EventTest.sol\":577:617  DataChanged(msg.sender, _data, _message) */\n      mload(0x40)\n      tag_21\n      swap4\n      swap3\n      swap2\n      swap1\n      tag_22\n      jump\t// in\n    tag_21:\n      mload(0x40)\n      dup1\n      swap2\n      sub\n      swap1\n      log2\n        /* \"chapter07/EventTest.sol\":373:625  function updateData(uint256 _data, string calldata _message) public {... */\n      pop\n      pop\n      pop\n      jump\t// out\n        /* \"chapter07/EventTest.sol\":313:334  string public message */\n    tag_15:\n      0x01\n      dup1\n      sload\n      tag_23\n      swap1\n      tag_24\n      jump\t// in\n    tag_23:\n      dup1\n      0x1f\n      add\n      0x20\n      dup1\n      swap2\n      div\n      mul\n      0x20\n      add\n      mload(0x40)\n      swap1\n      dup2\n      add\n      0x40\n      mstore\n      dup1\n      swap3\n      swap2\n      swap1\n      dup2\n      dup2\n      mstore\n      0x20\n      add\n      dup3\n      dup1\n      sload\n      tag_25\n      swap1\n      tag_24\n      jump\t// in\n    tag_25:\n      dup1\n      iszero\n      tag_26\n      jumpi\n      dup1\n      0x1f\n      lt\n      tag_27\n      jumpi\n      0x0100\n      dup1\n      dup4\n      sload\n      div\n      mul\n      dup4\n      mstore\n      swap2\n      0x20\n      add\n      swap2\n      jump(tag_26)\n    tag_27:\n      dup3\n      add\n      swap2\n      swap1\n      0x00\n      mstore\n      keccak256(0x00, 0x20)\n      swap1\n    tag_28:\n      dup2\n      sload\n      dup2\n      mstore\n      swap1\n      0x01\n      add\n      swap1\n      0x20\n      add\n      dup1\n      dup4\n      gt\n      tag_28\n      jumpi\n      dup3\n      swap1\n      sub\n      0x1f\n      and\n      dup3\n      add\n      swap2\n    tag_26:\n      pop\n      pop\n      pop\n      pop\n      pop\n      dup2\n      jump\t// out\n        /* \"#utility.yul\":7:84   */\n    tag_29:\n        /* \"#utility.yul\":44:51   */\n      0x00\n        /* \"#utility.yul\":73:78   */\n      dup2\n        /* \"#utility.yul\":62:78   */\n      swap1\n      pop\n        /* \"#utility.yul\":7:84   */\n      swap2\n      swap1\n      pop\n      jump\t// out\n        /* \"#utility.yul\":90:208   */\n    tag_30:\n        /* \"#utility.yul\":177:201   */\n      tag_68\n        /* \"#utility.yul\":195:200   */\n      dup2\n        /* \"#utility.yul\":177:201   */\n      tag_29\n      jump\t// in\n    tag_68:\n        /* \"#utility.yul\":172:175   */\n      dup3\n        /* \"#utility.yul\":165:202   */\n      mstore\n        /* \"#utility.yul\":90:208   */\n      pop\n      pop\n      jump\t// out\n        /* \"#utility.yul\":214:436   */\n    tag_9:\n        /* \"#utility.yul\":307:311   */\n      0x00\n        /* \"#utility.yul\":345:347   */\n      0x20\n        /* \"#utility.yul\":334:343   */\n      dup3\n        /* \"#utility.yul\":330:348   */\n      add\n        /* \"#utility.yul\":322:348   */\n      swap1\n      pop\n        /* \"#utility.yul\":358:429   */\n      tag_70\n        /* \"#utility.yul\":426:427   */\n      0x00\n        /* \"#utility.yul\":415:424   */\n      dup4\n        /* \"#utility.yul\":411:428   */\n      add\n        /* \"#utility.yul\":402:408   */\n      dup5\n        /* \"#utility.yul\":358:429   */\n      tag_30\n      jump\t// in\n    tag_70:\n        /* \"#utility.yul\":214:436   */\n      swap3\n      swap2\n      pop\n      pop\n      jump\t// out\n        /* \"#utility.yul\":523:640   */\n    tag_32:\n        /* \"#utility.yul\":632:633   */\n      0x00\n        /* \"#utility.yul\":629:630   */\n      dup1\n        /* \"#utility.yul\":622:634   */\n      revert\n        /* \"#utility.yul\":646:763   */\n    tag_33:\n        /* \"#utility.yul\":755:756   */\n      0x00\n        /* \"#utility.yul\":752:753   */\n      dup1\n        /* \"#utility.yul\":745:757   */\n      revert\n        /* \"#utility.yul\":769:891   */\n    tag_34:\n        /* \"#utility.yul\":842:866   */\n      tag_75\n        /* \"#utility.yul\":860:865   */\n      dup2\n        /* \"#utility.yul\":842:866   */\n      tag_29\n      jump\t// in\n    tag_75:\n        /* \"#utility.yul\":835:840   */\n      dup2\n        /* \"#utility.yul\":832:867   */\n      eq\n        /* \"#utility.yul\":822:885   */\n      tag_76\n      jumpi\n        /* \"#utility.yul\":881:882   */\n      0x00\n        /* \"#utility.yul\":878:879   */\n      dup1\n        /* \"#utility.yul\":871:883   */\n      revert\n        /* \"#utility.yul\":822:885   */\n    tag_76:\n        /* \"#utility.yul\":769:891   */\n      pop\n      jump\t// out\n        /* \"#utility.yul\":897:1036   */\n    tag_35:\n        /* \"#utility.yul\":943:948   */\n      0x00\n        /* \"#utility.yul\":981:987   */\n      dup2\n        /* \"#utility.yul\":968:988   */\n      calldataload\n        /* \"#utility.yul\":959:988   */\n      swap1\n      pop\n        /* \"#utility.yul\":997:1030   */\n      tag_78\n        /* \"#utility.yul\":1024:1029   */\n      dup2\n        /* \"#utility.yul\":997:1030   */\n      tag_34\n      jump\t// in\n    tag_78:\n        /* \"#utility.yul\":897:1036   */\n      swap3\n      swap2\n      pop\n      pop\n      jump\t// out\n        /* \"#utility.yul\":1042:1159   */\n    tag_36:\n        /* \"#utility.yul\":1151:1152   */\n      0x00\n        /* \"#utility.yul\":1148:1149   */\n      dup1\n        /* \"#utility.yul\":1141:1153   */\n      revert\n        /* \"#utility.yul\":1165:1282   */\n    tag_37:\n        /* \"#utility.yul\":1274:1275   */\n      0x00\n        /* \"#utility.yul\":1271:1272   */\n      dup1\n        /* \"#utility.yul\":1264:1276   */\n      revert\n        /* \"#utility.yul\":1288:1405   */\n    tag_38:\n        /* \"#utility.yul\":1397:1398   */\n      0x00\n        /* \"#utility.yul\":1394:1395   */\n      dup1\n        /* \"#utility.yul\":1387:1399   */\n      revert\n        /* \"#utility.yul\":1425:1978   */\n    tag_39:\n        /* \"#utility.yul\":1483:1491   */\n      0x00\n        /* \"#utility.yul\":1493:1499   */\n      dup1\n        /* \"#utility.yul\":1543:1546   */\n      dup4\n        /* \"#utility.yul\":1536:1540   */\n      0x1f\n        /* \"#utility.yul\":1528:1534   */\n      dup5\n        /* \"#utility.yul\":1524:1541   */\n      add\n        /* \"#utility.yul\":1520:1547   */\n      slt\n        /* \"#utility.yul\":1510:1632   */\n      tag_83\n      jumpi\n        /* \"#utility.yul\":1551:1630   */\n      tag_84\n      tag_36\n      jump\t// in\n    tag_84:\n        /* \"#utility.yul\":1510:1632   */\n    tag_83:\n        /* \"#utility.yul\":1664:1670   */\n      dup3\n        /* \"#utility.yul\":1651:1671   */\n      calldataload\n        /* \"#utility.yul\":1641:1671   */\n      swap1\n      pop\n        /* \"#utility.yul\":1694:1712   */\n      0xffffffffffffffff\n        /* \"#utility.yul\":1686:1692   */\n      dup2\n        /* \"#utility.yul\":1683:1713   */\n      gt\n        /* \"#utility.yul\":1680:1797   */\n      iszero\n      tag_85\n      jumpi\n        /* \"#utility.yul\":1716:1795   */\n      tag_86\n      tag_37\n      jump\t// in\n    tag_86:\n        /* \"#utility.yul\":1680:1797   */\n    tag_85:\n        /* \"#utility.yul\":1830:1834   */\n      0x20\n        /* \"#utility.yul\":1822:1828   */\n      dup4\n        /* \"#utility.yul\":1818:1835   */\n      add\n        /* \"#utility.yul\":1806:1835   */\n      swap2\n      pop\n        /* \"#utility.yul\":1884:1887   */\n      dup4\n        /* \"#utility.yul\":1876:1880   */\n      0x01\n        /* \"#utility.yul\":1868:1874   */\n      dup3\n        /* \"#utility.yul\":1864:1881   */\n      mul\n        /* \"#utility.yul\":1854:1862   */\n      dup4\n        /* \"#utility.yul\":1850:1882   */\n      add\n        /* \"#utility.yul\":1847:1888   */\n      gt\n        /* \"#utility.yul\":1844:1972   */\n      iszero\n      tag_87\n      jumpi\n        /* \"#utility.yul\":1891:1970   */\n      tag_88\n      tag_38\n      jump\t// in\n    tag_88:\n        /* \"#utility.yul\":1844:1972   */\n    tag_87:\n        /* \"#utility.yul\":1425:1978   */\n      swap3\n      pop\n      swap3\n      swap1\n      pop\n      jump\t// out\n        /* \"#utility.yul\":1984:2658   */\n    tag_12:\n        /* \"#utility.yul\":2064:2070   */\n      0x00\n        /* \"#utility.yul\":2072:2078   */\n      dup1\n        /* \"#utility.yul\":2080:2086   */\n      0x00\n        /* \"#utility.yul\":2129:2131   */\n      0x40\n        /* \"#utility.yul\":2117:2126   */\n      dup5\n        /* \"#utility.yul\":2108:2115   */\n      dup7\n        /* \"#utility.yul\":2104:2127   */\n      sub\n        /* \"#utility.yul\":2100:2132   */\n      slt\n        /* \"#utility.yul\":2097:2216   */\n      iszero\n      tag_90\n      jumpi\n        /* \"#utility.yul\":2135:2214   */\n      tag_91\n      tag_32\n      jump\t// in\n    tag_91:\n        /* \"#utility.yul\":2097:2216   */\n    tag_90:\n        /* \"#utility.yul\":2255:2256   */\n      0x00\n        /* \"#utility.yul\":2280:2333   */\n      tag_92\n        /* \"#utility.yul\":2325:2332   */\n      dup7\n        /* \"#utility.yul\":2316:2322   */\n      dup3\n        /* \"#utility.yul\":2305:2314   */\n      dup8\n        /* \"#utility.yul\":2301:2323   */\n      add\n        /* \"#utility.yul\":2280:2333   */\n      tag_35\n      jump\t// in\n    tag_92:\n        /* \"#utility.yul\":2270:2333   */\n      swap4\n      pop\n        /* \"#utility.yul\":2226:2343   */\n      pop\n        /* \"#utility.yul\":2410:2412   */\n      0x20\n        /* \"#utility.yul\":2399:2408   */\n      dup5\n        /* \"#utility.yul\":2395:2413   */\n      add\n        /* \"#utility.yul\":2382:2414   */\n      calldataload\n        /* \"#utility.yul\":2441:2459   */\n      0xffffffffffffffff\n        /* \"#utility.yul\":2433:2439   */\n      dup2\n        /* \"#utility.yul\":2430:2460   */\n      gt\n        /* \"#utility.yul\":2427:2544   */\n      iszero\n      tag_93\n      jumpi\n        /* \"#utility.yul\":2463:2542   */\n      tag_94\n      tag_33\n      jump\t// in\n    tag_94:\n        /* \"#utility.yul\":2427:2544   */\n    tag_93:\n        /* \"#utility.yul\":2576:2641   */\n      tag_95\n        /* \"#utility.yul\":2633:2640   */\n      dup7\n        /* \"#utility.yul\":2624:2630   */\n      dup3\n        /* \"#utility.yul\":2613:2622   */\n      dup8\n        /* \"#utility.yul\":2609:2631   */\n      add\n        /* \"#utility.yul\":2576:2641   */\n      tag_39\n      jump\t// in\n    tag_95:\n        /* \"#utility.yul\":2558:2641   */\n      swap3\n      pop\n      swap3\n      pop\n        /* \"#utility.yul\":2353:2651   */\n      pop\n        /* \"#utility.yul\":1984:2658   */\n      swap3\n      pop\n      swap3\n      pop\n      swap3\n      jump\t// out\n        /* \"#utility.yul\":2664:2763   */\n    tag_40:\n        /* \"#utility.yul\":2716:2722   */\n      0x00\n        /* \"#utility.yul\":2750:2755   */\n      dup2\n        /* \"#utility.yul\":2744:2756   */\n      mload\n        /* \"#utility.yul\":2734:2756   */\n      swap1\n      pop\n        /* \"#utility.yul\":2664:2763   */\n      swap2\n      swap1\n      pop\n      jump\t// out\n        /* \"#utility.yul\":2769:2938   */\n    tag_41:\n        /* \"#utility.yul\":2853:2864   */\n      0x00\n        /* \"#utility.yul\":2887:2893   */\n      dup3\n        /* \"#utility.yul\":2882:2885   */\n      dup3\n        /* \"#utility.yul\":2875:2894   */\n      mstore\n        /* \"#utility.yul\":2927:2931   */\n      0x20\n        /* \"#utility.yul\":2922:2925   */\n      dup3\n        /* \"#utility.yul\":2918:2932   */\n      add\n        /* \"#utility.yul\":2903:2932   */\n      swap1\n      pop\n        /* \"#utility.yul\":2769:2938   */\n      swap3\n      swap2\n      pop\n      pop\n      jump\t// out\n        /* \"#utility.yul\":2944:3190   */\n    tag_42:\n        /* \"#utility.yul\":3025:3026   */\n      0x00\n        /* \"#utility.yul\":3035:3148   */\n    tag_99:\n        /* \"#utility.yul\":3049:3055   */\n      dup4\n        /* \"#utility.yul\":3046:3047   */\n      dup2\n        /* \"#utility.yul\":3043:3056   */\n      lt\n        /* \"#utility.yul\":3035:3148   */\n      iszero\n      tag_101\n      jumpi\n        /* \"#utility.yul\":3134:3135   */\n      dup1\n        /* \"#utility.yul\":3129:3132   */\n      dup3\n        /* \"#utility.yul\":3125:3136   */\n      add\n        /* \"#utility.yul\":3119:3137   */\n      mload\n        /* \"#utility.yul\":3115:3116   */\n      dup2\n        /* \"#utility.yul\":3110:3113   */\n      dup5\n        /* \"#utility.yul\":3106:3117   */\n      add\n        /* \"#utility.yul\":3099:3138   */\n      mstore\n        /* \"#utility.yul\":3071:3073   */\n      0x20\n        /* \"#utility.yul\":3068:3069   */\n      dup2\n        /* \"#utility.yul\":3064:3074   */\n      add\n        /* \"#utility.yul\":3059:3074   */\n      swap1\n      pop\n        /* \"#utility.yul\":3035:3148   */\n      jump(tag_99)\n    tag_101:\n        /* \"#utility.yul\":3182:3183   */\n      0x00\n        /* \"#utility.yul\":3173:3179   */\n      dup5\n        /* \"#utility.yul\":3168:3171   */\n      dup5\n        /* \"#utility.yul\":3164:3180   */\n      add\n        /* \"#utility.yul\":3157:3184   */\n      mstore\n        /* \"#utility.yul\":3006:3190   */\n      pop\n        /* \"#utility.yul\":2944:3190   */\n      pop\n      pop\n      pop\n      jump\t// out\n        /* \"#utility.yul\":3196:3298   */\n    tag_43:\n        /* \"#utility.yul\":3237:3243   */\n      0x00\n        /* \"#utility.yul\":3288:3290   */\n      0x1f\n        /* \"#utility.yul\":3284:3291   */\n      not\n        /* \"#utility.yul\":3279:3281   */\n      0x1f\n        /* \"#utility.yul\":3272:3277   */\n      dup4\n        /* \"#utility.yul\":3268:3282   */\n      add\n        /* \"#utility.yul\":3264:3292   */\n      and\n        /* \"#utility.yul\":3254:3292   */\n      swap1\n      pop\n        /* \"#utility.yul\":3196:3298   */\n      swap2\n      swap1\n      pop\n      jump\t// out\n        /* \"#utility.yul\":3304:3681   */\n    tag_44:\n        /* \"#utility.yul\":3392:3395   */\n      0x00\n        /* \"#utility.yul\":3420:3459   */\n      tag_104\n        /* \"#utility.yul\":3453:3458   */\n      dup3\n        /* \"#utility.yul\":3420:3459   */\n      tag_40\n      jump\t// in\n    tag_104:\n        /* \"#utility.yul\":3475:3546   */\n      tag_105\n        /* \"#utility.yul\":3539:3545   */\n      dup2\n        /* \"#utility.yul\":3534:3537   */\n      dup6\n        /* \"#utility.yul\":3475:3546   */\n      tag_41\n      jump\t// in\n    tag_105:\n        /* \"#utility.yul\":3468:3546   */\n      swap4\n      pop\n        /* \"#utility.yul\":3555:3620   */\n      tag_106\n        /* \"#utility.yul\":3613:3619   */\n      dup2\n        /* \"#utility.yul\":3608:3611   */\n      dup6\n        /* \"#utility.yul\":3601:3605   */\n      0x20\n        /* \"#utility.yul\":3594:3599   */\n      dup7\n        /* \"#utility.yul\":3590:3606   */\n      add\n        /* \"#utility.yul\":3555:3620   */\n      tag_42\n      jump\t// in\n    tag_106:\n        /* \"#utility.yul\":3645:3674   */\n      tag_107\n        /* \"#utility.yul\":3667:3673   */\n      dup2\n        /* \"#utility.yul\":3645:3674   */\n      tag_43\n      jump\t// in\n    tag_107:\n        /* \"#utility.yul\":3640:3643   */\n      dup5\n        /* \"#utility.yul\":3636:3675   */\n      add\n        /* \"#utility.yul\":3629:3675   */\n      swap2\n      pop\n        /* \"#utility.yul\":3396:3681   */\n      pop\n        /* \"#utility.yul\":3304:3681   */\n      swap3\n      swap2\n      pop\n      pop\n      jump\t// out\n        /* \"#utility.yul\":3687:4000   */\n    tag_17:\n        /* \"#utility.yul\":3800:3804   */\n      0x00\n        /* \"#utility.yul\":3838:3840   */\n      0x20\n        /* \"#utility.yul\":3827:3836   */\n      dup3\n        /* \"#utility.yul\":3823:3841   */\n      add\n        /* \"#utility.yul\":3815:3841   */\n      swap1\n      pop\n        /* \"#utility.yul\":3887:3896   */\n      dup2\n        /* \"#utility.yul\":3881:3885   */\n      dup2\n        /* \"#utility.yul\":3877:3897   */\n      sub\n        /* \"#utility.yul\":3873:3874   */\n      0x00\n        /* \"#utility.yul\":3862:3871   */\n      dup4\n        /* \"#utility.yul\":3858:3875   */\n      add\n        /* \"#utility.yul\":3851:3898   */\n      mstore\n        /* \"#utility.yul\":3915:3993   */\n      tag_109\n        /* \"#utility.yul\":3988:3992   */\n      dup2\n        /* \"#utility.yul\":3979:3985   */\n      dup5\n        /* \"#utility.yul\":3915:3993   */\n      tag_44\n      jump\t// in\n    tag_109:\n        /* \"#utility.yul\":3907:3993   */\n      swap1\n      pop\n        /* \"#utility.yul\":3687:4000   */\n      swap3\n      swap2\n      pop\n      pop\n      jump\t// out\n        /* \"#utility.yul\":4006:4103   */\n    tag_45:\n        /* \"#utility.yul\":4065:4071   */\n      0x00\n        /* \"#utility.yul\":4093:4096   */\n      dup3\n        /* \"#utility.yul\":4083:4096   */\n      swap1\n      pop\n        /* \"#utility.yul\":4006:4103   */\n      swap3\n      swap2\n      pop\n      pop\n      jump\t// out\n        /* \"#utility.yul\":4109:4289   */\n    tag_46:\n        /* \"#utility.yul\":4157:4234   */\n      0x4e487b7100000000000000000000000000000000000000000000000000000000\n        /* \"#utility.yul\":4154:4155   */\n      0x00\n        /* \"#utility.yul\":4147:4235   */\n      mstore\n        /* \"#utility.yul\":4254:4258   */\n      0x41\n        /* \"#utility.yul\":4251:4252   */\n      0x04\n        /* \"#utility.yul\":4244:4259   */\n      mstore\n        /* \"#utility.yul\":4278:4282   */\n      0x24\n        /* \"#utility.yul\":4275:4276   */\n      0x00\n        /* \"#utility.yul\":4268:4283   */\n      revert\n        /* \"#utility.yul\":4295:4475   */\n    tag_47:\n        /* \"#utility.yul\":4343:4420   */\n      0x4e487b7100000000000000000000000000000000000000000000000000000000\n        /* \"#utility.yul\":4340:4341   */\n      0x00\n        /* \"#utility.yul\":4333:4421   */\n      mstore\n        /* \"#utility.yul\":4440:4444   */\n      0x22\n        /* \"#utility.yul\":4437:4438   */\n      0x04\n        /* \"#utility.yul\":4430:4445   */\n      mstore\n        /* \"#utility.yul\":4464:4468   */\n      0x24\n        /* \"#utility.yul\":4461:4462   */\n      0x00\n        /* \"#utility.yul\":4454:4469   */\n      revert\n        /* \"#utility.yul\":4481:4801   */\n    tag_24:\n        /* \"#utility.yul\":4525:4531   */\n      0x00\n        /* \"#utility.yul\":4562:4563   */\n      0x02\n        /* \"#utility.yul\":4556:4560   */\n      dup3\n        /* \"#utility.yul\":4552:4564   */\n      div\n        /* \"#utility.yul\":4542:4564   */\n      swap1\n      pop\n        /* \"#utility.yul\":4609:4610   */\n      0x01\n        /* \"#utility.yul\":4603:4607   */\n      dup3\n        /* \"#utility.yul\":4599:4611   */\n      and\n        /* \"#utility.yul\":4630:4648   */\n      dup1\n        /* \"#utility.yul\":4620:4701   */\n      tag_114\n      jumpi\n        /* \"#utility.yul\":4686:4690   */\n      0x7f\n        /* \"#utility.yul\":4678:4684   */\n      dup3\n        /* \"#utility.yul\":4674:4691   */\n      and\n        /* \"#utility.yul\":4664:4691   */\n      swap2\n      pop\n        /* \"#utility.yul\":4620:4701   */\n    tag_114:\n        /* \"#utility.yul\":4748:4750   */\n      0x20\n        /* \"#utility.yul\":4740:4746   */\n      dup3\n        /* \"#utility.yul\":4737:4751   */\n      lt\n        /* \"#utility.yul\":4717:4735   */\n      dup2\n        /* \"#utility.yul\":4714:4752   */\n      sub\n        /* \"#utility.yul\":4711:4795   */\n      tag_115\n      jumpi\n        /* \"#utility.yul\":4767:4785   */\n      tag_116\n      tag_47\n      jump\t// in\n    tag_116:\n        /* \"#utility.yul\":4711:4795   */\n    tag_115:\n        /* \"#utility.yul\":4532:4801   */\n      pop\n        /* \"#utility.yul\":4481:4801   */\n      swap2\n      swap1\n      pop\n      jump\t// out\n        /* \"#utility.yul\":4807:4948   */\n    tag_48:\n        /* \"#utility.yul\":4856:4860   */\n      0x00\n        /* \"#utility.yul\":4879:4882   */\n      dup2\n        /* \"#utility.yul\":4871:4882   */\n      swap1\n      pop\n        /* \"#utility.yul\":4902:4905   */\n      dup2\n        /* \"#utility.yul\":4899:4900   */\n      0x00\n        /* \"#utility.yul\":4892:4906   */\n      mstore\n        /* \"#utility.yul\":4936:4940   */\n      0x20\n        /* \"#utility.yul\":4933:4934   */\n      0x00\n        /* \"#utility.yul\":4923:4941   */\n      keccak256\n        /* \"#utility.yul\":4915:4941   */\n      swap1\n      pop\n        /* \"#utility.yul\":4807:4948   */\n      swap2\n      swap1\n      pop\n      jump\t// out\n        /* \"#utility.yul\":4954:5047   */\n    tag_49:\n        /* \"#utility.yul\":4991:4997   */\n      0x00\n        /* \"#utility.yul\":5038:5040   */\n      0x20\n        /* \"#utility.yul\":5033:5035   */\n      0x1f\n        /* \"#utility.yul\":5026:5031   */\n      dup4\n        /* \"#utility.yul\":5022:5036   */\n      add\n        /* \"#utility.yul\":5018:5041   */\n      div\n        /* \"#utility.yul\":5008:5041   */\n      swap1\n      pop\n        /* \"#utility.yul\":4954:5047   */\n      swap2\n      swap1\n      pop\n      jump\t// out\n        /* \"#utility.yul\":5053:5160   */\n    tag_50:\n        /* \"#utility.yul\":5097:5105   */\n      0x00\n        /* \"#utility.yul\":5147:5152   */\n      dup3\n        /* \"#utility.yul\":5141:5145   */\n      dup3\n        /* \"#utility.yul\":5137:5153   */\n      shl\n        /* \"#utility.yul\":5116:5153   */\n      swap1\n      pop\n        /* \"#utility.yul\":5053:5160   */\n      swap3\n      swap2\n      pop\n      pop\n      jump\t// out\n        /* \"#utility.yul\":5166:5559   */\n    tag_51:\n        /* \"#utility.yul\":5235:5241   */\n      0x00\n        /* \"#utility.yul\":5285:5286   */\n      0x08\n        /* \"#utility.yul\":5273:5283   */\n      dup4\n        /* \"#utility.yul\":5269:5287   */\n      mul\n        /* \"#utility.yul\":5308:5405   */\n      tag_121\n        /* \"#utility.yul\":5338:5404   */\n      0xffffffffffffffffffffffffffffffffffffffffffffffffffffffffffffffff\n        /* \"#utility.yul\":5327:5336   */\n      dup3\n        /* \"#utility.yul\":5308:5405   */\n      tag_50\n      jump\t// in\n    tag_121:\n        /* \"#utility.yul\":5426:5465   */\n      tag_122\n        /* \"#utility.yul\":5456:5464   */\n      dup7\n        /* \"#utility.yul\":5445:5454   */\n      dup4\n        /* \"#utility.yul\":5426:5465   */\n      tag_50\n      jump\t// in\n    tag_122:\n        /* \"#utility.yul\":5414:5465   */\n      swap6\n      pop\n        /* \"#utility.yul\":5498:5502   */\n      dup1\n        /* \"#utility.yul\":5494:5503   */\n      not\n        /* \"#utility.yul\":5487:5492   */\n      dup5\n        /* \"#utility.yul\":5483:5504   */\n      and\n        /* \"#utility.yul\":5474:5504   */\n      swap4\n      pop\n        /* \"#utility.yul\":5547:5551   */\n      dup1\n        /* \"#utility.yul\":5537:5545   */\n      dup7\n        /* \"#utility.yul\":5533:5552   */\n      and\n        /* \"#utility.yul\":5526:5531   */\n      dup5\n        /* \"#utility.yul\":5523:5553   */\n      or\n        /* \"#utility.yul\":5513:5553   */\n      swap3\n      pop\n        /* \"#utility.yul\":5242:5559   */\n      pop\n      pop\n        /* \"#utility.yul\":5166:5559   */\n      swap4\n      swap3\n      pop\n      pop\n      pop\n      jump\t// out\n        /* \"#utility.yul\":5565:5625   */\n    tag_52:\n        /* \"#utility.yul\":5593:5596   */\n      0x00\n        /* \"#utility.yul\":5614:5619   */\n      dup2\n        /* \"#utility.yul\":5607:5619   */\n      swap1\n      pop\n        /* \"#utility.yul\":5565:5625   */\n      swap2\n      swap1\n      pop\n      jump\t// out\n        /* \"#utility.yul\":5631:5773   */\n    tag_53:\n        /* \"#utility.yul\":5681:5690   */\n      0x00\n        /* \"#utility.yul\":5714:5767   */\n      tag_125\n        /* \"#utility.yul\":5732:5766   */\n      tag_126\n        /* \"#utility.yul\":5741:5765   */\n      tag_127\n        /* \"#utility.yul\":5759:5764   */\n      dup5\n        /* \"#utility.yul\":5741:5765   */\n      tag_29\n      jump\t// in\n    tag_127:\n        /* \"#utility.yul\":5732:5766   */\n      tag_52\n      jump\t// in\n    tag_126:\n        /* \"#utility.yul\":5714:5767   */\n      tag_29\n      jump\t// in\n    tag_125:\n        /* \"#utility.yul\":5701:5767   */\n      swap1\n      pop\n        /* \"#utility.yul\":5631:5773   */\n      swap2\n      swap1\n      pop\n      jump\t// out\n        /* \"#utility.yul\":5779:5854   */\n    tag_54:\n        /* \"#utility.yul\":5822:5825   */\n      0x00\n        /* \"#utility.yul\":5843:5848   */\n      dup2\n        /* \"#utility.yul\":5836:5848   */\n      swap1\n      pop\n        /* \"#utility.yul\":5779:5854   */\n      swap2\n      swap1\n      pop\n      jump\t// out\n        /* \"#utility.yul\":5860:6129   */\n    tag_55:\n        /* \"#utility.yul\":5970:6009   */\n      tag_130\n        /* \"#utility.yul\":6001:6008   */\n      dup4\n        /* \"#utility.yul\":5970:6009   */\n      tag_53\n      jump\t// in\n    tag_130:\n        /* \"#utility.yul\":6031:6122   */\n      tag_131\n        /* \"#utility.yul\":6080:6121   */\n      tag_132\n        /* \"#utility.yul\":6104:6120   */\n      dup3\n        /* \"#utility.yul\":6080:6121   */\n      tag_54\n      jump\t// in\n    tag_132:\n        /* \"#utility.yul\":6072:6078   */\n      dup5\n        /* \"#utility.yul\":6065:6069   */\n      dup5\n        /* \"#utility.yul\":6059:6070   */\n      sload\n        /* \"#utility.yul\":6031:6122   */\n      tag_51\n      jump\t// in\n    tag_131:\n        /* \"#utility.yul\":6025:6029   */\n      dup3\n        /* \"#utility.yul\":6018:6123   */\n      sstore\n        /* \"#utility.yul\":5936:6129   */\n      pop\n        /* \"#utility.yul\":5860:6129   */\n      pop\n      pop\n      pop\n      jump\t// out\n        /* \"#utility.yul\":6135:6208   */\n    tag_56:\n        /* \"#utility.yul\":6180:6183   */\n      0x00\n        /* \"#utility.yul\":6135:6208   */\n      swap1\n      jump\t// out\n        /* \"#utility.yul\":6214:6403   */\n    tag_57:\n        /* \"#utility.yul\":6291:6323   */\n      tag_135\n      tag_56\n      jump\t// in\n    tag_135:\n        /* \"#utility.yul\":6332:6397   */\n      tag_136\n        /* \"#utility.yul\":6390:6396   */\n      dup2\n        /* \"#utility.yul\":6382:6388   */\n      dup5\n        /* \"#utility.yul\":6376:6380   */\n      dup5\n        /* \"#utility.yul\":6332:6397   */\n      tag_55\n      jump\t// in\n    tag_136:\n        /* \"#utility.yul\":6267:6403   */\n      pop\n        /* \"#utility.yul\":6214:6403   */\n      pop\n      pop\n      jump\t// out\n        /* \"#utility.yul\":6409:6595   */\n    tag_58:\n        /* \"#utility.yul\":6469:6589   */\n    tag_138:\n        /* \"#utility.yul\":6486:6489   */\n      dup2\n        /* \"#utility.yul\":6479:6484   */\n      dup2\n        /* \"#utility.yul\":6476:6490   */\n      lt\n        /* \"#utility.yul\":6469:6589   */\n      iszero\n      tag_140\n      jumpi\n        /* \"#utility.yul\":6540:6579   */\n      tag_141\n        /* \"#utility.yul\":6577:6578   */\n      0x00\n        /* \"#utility.yul\":6570:6575   */\n      dup3\n        /* \"#utility.yul\":6540:6579   */\n      tag_57\n      jump\t// in\n    tag_141:\n        /* \"#utility.yul\":6513:6514   */\n      0x01\n        /* \"#utility.yul\":6506:6511   */\n      dup2\n        /* \"#utility.yul\":6502:6515   */\n      add\n        /* \"#utility.yul\":6493:6515   */\n      swap1\n      pop\n        /* \"#utility.yul\":6469:6589   */\n      jump(tag_138)\n    tag_140:\n        /* \"#utility.yul\":6409:6595   */\n      pop\n      pop\n      jump\t// out\n        /* \"#utility.yul\":6601:7144   */\n    tag_59:\n        /* \"#utility.yul\":6702:6704   */\n      0x1f\n        /* \"#utility.yul\":6697:6700   */\n      dup3\n        /* \"#utility.yul\":6694:6705   */\n      gt\n        /* \"#utility.yul\":6691:7137   */\n      iszero\n      tag_143\n      jumpi\n        /* \"#utility.yul\":6736:6774   */\n      tag_144\n        /* \"#utility.yul\":6768:6773   */\n      dup2\n        /* \"#utility.yul\":6736:6774   */\n      tag_48\n      jump\t// in\n    tag_144:\n        /* \"#utility.yul\":6820:6849   */\n      tag_145\n        /* \"#utility.yul\":6838:6848   */\n      dup5\n        /* \"#utility.yul\":6820:6849   */\n      tag_49\n      jump\t// in\n    tag_145:\n        /* \"#utility.yul\":6810:6818   */\n      dup2\n        /* \"#utility.yul\":6806:6850   */\n      add\n        /* \"#utility.yul\":7003:7005   */\n      0x20\n        /* \"#utility.yul\":6991:7001   */\n      dup6\n        /* \"#utility.yul\":6988:7006   */\n      lt\n        /* \"#utility.yul\":6985:7034   */\n      iszero\n      tag_146\n      jumpi\n        /* \"#utility.yul\":7024:7032   */\n      dup2\n        /* \"#utility.yul\":7009:7032   */\n      swap1\n      pop\n        /* \"#utility.yul\":6985:7034   */\n    tag_146:\n        /* \"#utility.yul\":7047:7127   */\n      tag_147\n        /* \"#utility.yul\":7103:7125   */\n      tag_148\n        /* \"#utility.yul\":7121:7124   */\n      dup6\n        /* \"#utility.yul\":7103:7125   */\n      tag_49\n      jump\t// in\n    tag_148:\n        /* \"#utility.yul\":7093:7101   */\n      dup4\n        /* \"#utility.yul\":7089:7126   */\n      add\n        /* \"#utility.yul\":7076:7087   */\n      dup3\n        /* \"#utility.yul\":7047:7127   */\n      tag_58\n      jump\t// in\n    tag_147:\n        /* \"#utility.yul\":6706:7137   */\n      pop\n      pop\n        /* \"#utility.yul\":6691:7137   */\n    tag_143:\n        /* \"#utility.yul\":6601:7144   */\n      pop\n      pop\n      pop\n      jump\t// out\n        /* \"#utility.yul\":7150:7267   */\n    tag_60:\n        /* \"#utility.yul\":7204:7212   */\n      0x00\n        /* \"#utility.yul\":7254:7259   */\n      dup3\n        /* \"#utility.yul\":7248:7252   */\n      dup3\n        /* \"#utility.yul\":7244:7260   */\n      shr\n        /* \"#utility.yul\":7223:7260   */\n      swap1\n      pop\n        /* \"#utility.yul\":7150:7267   */\n      swap3\n      swap2\n      pop\n      pop\n      jump\t// out\n        /* \"#utility.yul\":7273:7442   */\n    tag_61:\n        /* \"#utility.yul\":7317:7323   */\n      0x00\n        /* \"#utility.yul\":7350:7401   */\n      tag_151\n        /* \"#utility.yul\":7398:7399   */\n      0x00\n        /* \"#utility.yul\":7394:7400   */\n      not\n        /* \"#utility.yul\":7386:7391   */\n      dup5\n        /* \"#utility.yul\":7383:7384   */\n      0x08\n        /* \"#utility.yul\":7379:7392   */\n      mul\n        /* \"#utility.yul\":7350:7401   */\n      tag_60\n      jump\t// in\n    tag_151:\n        /* \"#utility.yul\":7346:7402   */\n      not\n        /* \"#utility.yul\":7431:7435   */\n      dup1\n        /* \"#utility.yul\":7425:7429   */\n      dup4\n        /* \"#utility.yul\":7421:7436   */\n      and\n        /* \"#utility.yul\":7411:7436   */\n      swap2\n      pop\n        /* \"#utility.yul\":7324:7442   */\n      pop\n        /* \"#utility.yul\":7273:7442   */\n      swap3\n      swap2\n      pop\n      pop\n      jump\t// out\n        /* \"#utility.yul\":7447:7742   */\n    tag_62:\n        /* \"#utility.yul\":7523:7527   */\n      0x00\n        /* \"#utility.yul\":7669:7698   */\n      tag_153\n        /* \"#utility.yul\":7694:7697   */\n      dup4\n        /* \"#utility.yul\":7688:7692   */\n      dup4\n        /* \"#utility.yul\":7669:7698   */\n      tag_61\n      jump\t// in\n    tag_153:\n        /* \"#utility.yul\":7661:7698   */\n      swap2\n      pop\n        /* \"#utility.yul\":7731:7734   */\n      dup3\n        /* \"#utility.yul\":7728:7729   */\n      0x02\n        /* \"#utility.yul\":7724:7735   */\n      mul\n        /* \"#utility.yul\":7718:7722   */\n      dup3\n        /* \"#utility.yul\":7715:7736   */\n      or\n        /* \"#utility.yul\":7707:7736   */\n      swap1\n      pop\n        /* \"#utility.yul\":7447:7742   */\n      swap3\n      swap2\n      pop\n      pop\n      jump\t// out\n        /* \"#utility.yul\":7747:9150   */\n    tag_20:\n        /* \"#utility.yul\":7871:7915   */\n      tag_155\n        /* \"#utility.yul\":7911:7914   */\n      dup4\n        /* \"#utility.yul\":7906:7909   */\n      dup4\n        /* \"#utility.yul\":7871:7915   */\n      tag_45\n      jump\t// in\n    tag_155:\n        /* \"#utility.yul\":7980:7998   */\n      0xffffffffffffffff\n        /* \"#utility.yul\":7972:7978   */\n      dup2\n        /* \"#utility.yul\":7969:7999   */\n      gt\n        /* \"#utility.yul\":7966:8022   */\n      iszero\n      tag_156\n      jumpi\n        /* \"#utility.yul\":8002:8020   */\n      tag_157\n      tag_46\n      jump\t// in\n    tag_157:\n        /* \"#utility.yul\":7966:8022   */\n    tag_156:\n        /* \"#utility.yul\":8046:8084   */\n      tag_158\n        /* \"#utility.yul\":8078:8082   */\n      dup3\n        /* \"#utility.yul\":8072:8083   */\n      sload\n        /* \"#utility.yul\":8046:8084   */\n      tag_24\n      jump\t// in\n    tag_158:\n        /* \"#utility.yul\":8131:8198   */\n      tag_159\n        /* \"#utility.yul\":8191:8197   */\n      dup3\n        /* \"#utility.yul\":8183:8189   */\n      dup3\n        /* \"#utility.yul\":8177:8181   */\n      dup6\n        /* \"#utility.yul\":8131:8198   */\n      tag_59\n      jump\t// in\n    tag_159:\n        /* \"#utility.yul\":8225:8226   */\n      0x00\n        /* \"#utility.yul\":8254:8256   */\n      0x1f\n        /* \"#utility.yul\":8246:8252   */\n      dup4\n        /* \"#utility.yul\":8243:8257   */\n      gt\n        /* \"#utility.yul\":8271:8272   */\n      0x01\n        /* \"#utility.yul\":8266:8898   */\n      dup2\n      eq\n      tag_161\n      jumpi\n        /* \"#utility.yul\":8942:8943   */\n      0x00\n        /* \"#utility.yul\":8959:8965   */\n      dup5\n        /* \"#utility.yul\":8956:9040   */\n      iszero\n      tag_162\n      jumpi\n        /* \"#utility.yul\":9015:9024   */\n      dup3\n        /* \"#utility.yul\":9010:9013   */\n      dup8\n        /* \"#utility.yul\":9006:9025   */\n      add\n        /* \"#utility.yul\":8993:9026   */\n      calldataload\n        /* \"#utility.yul\":8984:9026   */\n      swap1\n      pop\n        /* \"#utility.yul\":8956:9040   */\n    tag_162:\n        /* \"#utility.yul\":9066:9133   */\n      tag_163\n        /* \"#utility.yul\":9126:9132   */\n      dup6\n        /* \"#utility.yul\":9119:9124   */\n      dup3\n        /* \"#utility.yul\":9066:9133   */\n      tag_62\n      jump\t// in\n    tag_163:\n        /* \"#utility.yul\":9060:9064   */\n      dup7\n        /* \"#utility.yul\":9053:9134   */\n      sstore\n        /* \"#utility.yul\":8915:9144   */\n      pop\n        /* \"#utility.yul\":8236:9144   */\n      jump(tag_160)\n        /* \"#utility.yul\":8266:8898   */\n    tag_161:\n        /* \"#utility.yul\":8318:8322   */\n      0x1f\n        /* \"#utility.yul\":8314:8323   */\n      not\n        /* \"#utility.yul\":8306:8312   */\n      dup5\n        /* \"#utility.yul\":8302:8324   */\n      and\n        /* \"#utility.yul\":8352:8389   */\n      tag_164\n        /* \"#utility.yul\":8384:8388   */\n      dup7\n        /* \"#utility.yul\":8352:8389   */\n      tag_48\n      jump\t// in\n    tag_164:\n        /* \"#utility.yul\":8411:8412   */\n      0x00\n        /* \"#utility.yul\":8425:8640   */\n    tag_165:\n        /* \"#utility.yul\":8439:8446   */\n      dup3\n        /* \"#utility.yul\":8436:8437   */\n      dup2\n        /* \"#utility.yul\":8433:8447   */\n      lt\n        /* \"#utility.yul\":8425:8640   */\n      iszero\n      tag_167\n      jumpi\n        /* \"#utility.yul\":8525:8534   */\n      dup5\n        /* \"#utility.yul\":8520:8523   */\n      dup10\n        /* \"#utility.yul\":8516:8535   */\n      add\n        /* \"#utility.yul\":8503:8536   */\n      calldataload\n        /* \"#utility.yul\":8495:8501   */\n      dup3\n        /* \"#utility.yul\":8488:8537   */\n      sstore\n        /* \"#utility.yul\":8576:8577   */\n      0x01\n        /* \"#utility.yul\":8568:8574   */\n      dup3\n        /* \"#utility.yul\":8564:8578   */\n      add\n        /* \"#utility.yul\":8554:8578   */\n      swap2\n      pop\n        /* \"#utility.yul\":8623:8625   */\n      0x20\n        /* \"#utility.yul\":8612:8621   */\n      dup6\n        /* \"#utility.yul\":8608:8626   */\n      add\n        /* \"#utility.yul\":8595:8626   */\n      swap5\n      pop\n        /* \"#utility.yul\":8462:8466   */\n      0x20\n        /* \"#utility.yul\":8459:8460   */\n      dup2\n        /* \"#utility.yul\":8455:8467   */\n      add\n        /* \"#utility.yul\":8450:8467   */\n      swap1\n      pop\n        /* \"#utility.yul\":8425:8640   */\n      jump(tag_165)\n    tag_167:\n        /* \"#utility.yul\":8668:8674   */\n      dup7\n        /* \"#utility.yul\":8659:8666   */\n      dup4\n        /* \"#utility.yul\":8656:8675   */\n      lt\n        /* \"#utility.yul\":8653:8839   */\n      iszero\n      tag_168\n      jumpi\n        /* \"#utility.yul\":8733:8742   */\n      dup5\n        /* \"#utility.yul\":8728:8731   */\n      dup10\n        /* \"#utility.yul\":8724:8743   */\n      add\n        /* \"#utility.yul\":8711:8744   */\n      calldataload\n        /* \"#utility.yul\":8776:8824   */\n      tag_169\n        /* \"#utility.yul\":8818:8822   */\n      0x1f\n        /* \"#utility.yul\":8810:8816   */\n      dup10\n        /* \"#utility.yul\":8806:8823   */\n      and\n        /* \"#utility.yul\":8795:8804   */\n      dup3\n        /* \"#utility.yul\":8776:8824   */\n      tag_61\n      jump\t// in\n    tag_169:\n        /* \"#utility.yul\":8768:8774   */\n      dup4\n        /* \"#utility.yul\":8761:8825   */\n      sstore\n        /* \"#utility.yul\":8676:8839   */\n      pop\n        /* \"#utility.yul\":8653:8839   */\n    tag_168:\n        /* \"#utility.yul\":8885:8886   */\n      0x01\n        /* \"#utility.yul\":8881:8882   */\n      0x02\n        /* \"#utility.yul\":8873:8879   */\n      dup9\n        /* \"#utility.yul\":8869:8883   */\n      mul\n        /* \"#utility.yul\":8865:8887   */\n      add\n        /* \"#utility.yul\":8859:8863   */\n      dup9\n        /* \"#utility.yul\":8852:8888   */\n      sstore\n        /* \"#utility.yul\":8273:8898   */\n      pop\n      pop\n      pop\n        /* \"#utility.yul\":8236:9144   */\n    tag_160:\n      pop\n        /* \"#utility.yul\":7846:9150   */\n      pop\n      pop\n      pop\n        /* \"#utility.yul\":7747:9150   */\n      pop\n      pop\n      pop\n      jump\t// out\n        /* \"#utility.yul\":9156:9302   */\n    tag_63:\n        /* \"#utility.yul\":9253:9259   */\n      dup3\n        /* \"#utility.yul\":9248:9251   */\n      dup2\n        /* \"#utility.yul\":9243:9246   */\n      dup4\n        /* \"#utility.yul\":9230:9260   */\n      calldatacopy\n        /* \"#utility.yul\":9294:9295   */\n      0x00\n        /* \"#utility.yul\":9285:9291   */\n      dup4\n        /* \"#utility.yul\":9280:9283   */\n      dup4\n        /* \"#utility.yul\":9276:9292   */\n      add\n        /* \"#utility.yul\":9269:9296   */\n      mstore\n        /* \"#utility.yul\":9156:9302   */\n      pop\n      pop\n      pop\n      jump\t// out\n        /* \"#utility.yul\":9332:9649   */\n    tag_64:\n        /* \"#utility.yul\":9430:9433   */\n      0x00\n        /* \"#utility.yul\":9451:9522   */\n      tag_172\n        /* \"#utility.yul\":9515:9521   */\n      dup4\n        /* \"#utility.yul\":9510:9513   */\n      dup6\n        /* \"#utility.yul\":9451:9522   */\n      tag_41\n      jump\t// in\n    tag_172:\n        /* \"#utility.yul\":9444:9522   */\n      swap4\n      pop\n        /* \"#utility.yul\":9532:9588   */\n      tag_173\n        /* \"#utility.yul\":9581:9587   */\n      dup4\n        /* \"#utility.yul\":9576:9579   */\n      dup6\n        /* \"#utility.yul\":9569:9574   */\n      dup5\n        /* \"#utility.yul\":9532:9588   */\n      tag_63\n      jump\t// in\n    tag_173:\n        /* \"#utility.yul\":9613:9642   */\n      tag_174\n        /* \"#utility.yul\":9635:9641   */\n      dup4\n        /* \"#utility.yul\":9613:9642   */\n      tag_43\n      jump\t// in\n    tag_174:\n        /* \"#utility.yul\":9608:9611   */\n      dup5\n        /* \"#utility.yul\":9604:9643   */\n      add\n        /* \"#utility.yul\":9597:9643   */\n      swap1\n      pop\n        /* \"#utility.yul\":9332:9649   */\n      swap4\n      swap3\n      pop\n      pop\n      pop\n      jump\t// out\n        /* \"#utility.yul\":9655:10098   */\n    tag_22:\n        /* \"#utility.yul\":9806:9810   */\n      0x00\n        /* \"#utility.yul\":9844:9846   */\n      0x40\n        /* \"#utility.yul\":9833:9842   */\n      dup3\n        /* \"#utility.yul\":9829:9847   */\n      add\n        /* \"#utility.yul\":9821:9847   */\n      swap1\n      pop\n        /* \"#utility.yul\":9857:9928   */\n      tag_176\n        /* \"#utility.yul\":9925:9926   */\n      0x00\n        /* \"#utility.yul\":9914:9923   */\n      dup4\n        /* \"#utility.yul\":9910:9927   */\n      add\n        /* \"#utility.yul\":9901:9907   */\n      dup7\n        /* \"#utility.yul\":9857:9928   */\n      tag_30\n      jump\t// in\n    tag_176:\n        /* \"#utility.yul\":9975:9984   */\n      dup2\n        /* \"#utility.yul\":9969:9973   */\n      dup2\n        /* \"#utility.yul\":9965:9985   */\n      sub\n        /* \"#utility.yul\":9960:9962   */\n      0x20\n        /* \"#utility.yul\":9949:9958   */\n      dup4\n        /* \"#utility.yul\":9945:9963   */\n      add\n        /* \"#utility.yul\":9938:9986   */\n      mstore\n        /* \"#utility.yul\":10003:10091   */\n      tag_177\n        /* \"#utility.yul\":10086:10090   */\n      dup2\n        /* \"#utility.yul\":10077:10083   */\n      dup5\n        /* \"#utility.yul\":10069:10075   */\n      dup7\n        /* \"#utility.yul\":10003:10091   */\n      tag_64\n      jump\t// in\n    tag_177:\n        /* \"#utility.yul\":9995:10091   */\n      swap1\n      pop\n        /* \"#utility.yul\":9655:10098   */\n      swap5\n      swap4\n      pop\n      pop\n      pop\n      pop\n      jump\t// out\n\n    auxdata: 0xa2646970667358221220b1f8b3b8f359edac48c299ee35dd5eb986664db084e3c687083dec7c771de1ba64736f6c63430008180033\n}\n",
				"bytecode": {
					"linkReferences": {},
					"object": "608060405234801561000f575f80fd5b506107048061001d5f395ff3fe608060405234801561000f575f80fd5b506004361061003f575f3560e01c806373d4a13a1461004357806389a8e2a714610061578063e21f37ce1461007d575b5f80fd5b61004b61009b565b60405161005891906101b3565b60405180910390f35b61007b6004803603810190610076919061025f565b6100a0565b005b61008561010f565b6040516100929190610346565b60405180910390f35b5f5481565b825f819055508181600191826100b7929190610597565b503373ffffffffffffffffffffffffffffffffffffffff167f2c59ca8ece54c6eb184cf50feb693388ef0257b266adc345b1404ee1165a71da8484846040516101029392919061069e565b60405180910390a2505050565b6001805461011c906103ca565b80601f0160208091040260200160405190810160405280929190818152602001828054610148906103ca565b80156101935780601f1061016a57610100808354040283529160200191610193565b820191905f5260205f20905b81548152906001019060200180831161017657829003601f168201915b505050505081565b5f819050919050565b6101ad8161019b565b82525050565b5f6020820190506101c65f8301846101a4565b92915050565b5f80fd5b5f80fd5b6101dd8161019b565b81146101e7575f80fd5b50565b5f813590506101f8816101d4565b92915050565b5f80fd5b5f80fd5b5f80fd5b5f8083601f84011261021f5761021e6101fe565b5b8235905067ffffffffffffffff81111561023c5761023b610202565b5b60208301915083600182028301111561025857610257610206565b5b9250929050565b5f805f60408486031215610276576102756101cc565b5b5f610283868287016101ea565b935050602084013567ffffffffffffffff8111156102a4576102a36101d0565b5b6102b08682870161020a565b92509250509250925092565b5f81519050919050565b5f82825260208201905092915050565b5f5b838110156102f35780820151818401526020810190506102d8565b5f8484015250505050565b5f601f19601f8301169050919050565b5f610318826102bc565b61032281856102c6565b93506103328185602086016102d6565b61033b816102fe565b840191505092915050565b5f6020820190508181035f83015261035e818461030e565b905092915050565b5f82905092915050565b7f4e487b71000000000000000000000000000000000000000000000000000000005f52604160045260245ffd5b7f4e487b71000000000000000000000000000000000000000000000000000000005f52602260045260245ffd5b5f60028204905060018216806103e157607f821691505b6020821081036103f4576103f361039d565b5b50919050565b5f819050815f5260205f209050919050565b5f6020601f8301049050919050565b5f82821b905092915050565b5f600883026104567fffffffffffffffffffffffffffffffffffffffffffffffffffffffffffffffff8261041b565b610460868361041b565b95508019841693508086168417925050509392505050565b5f819050919050565b5f61049b6104966104918461019b565b610478565b61019b565b9050919050565b5f819050919050565b6104b483610481565b6104c86104c0826104a2565b848454610427565b825550505050565b5f90565b6104dc6104d0565b6104e78184846104ab565b505050565b5b8181101561050a576104ff5f826104d4565b6001810190506104ed565b5050565b601f82111561054f57610520816103fa565b6105298461040c565b81016020851015610538578190505b61054c6105448561040c565b8301826104ec565b50505b505050565b5f82821c905092915050565b5f61056f5f1984600802610554565b1980831691505092915050565b5f6105878383610560565b9150826002028217905092915050565b6105a18383610366565b67ffffffffffffffff8111156105ba576105b9610370565b5b6105c482546103ca565b6105cf82828561050e565b5f601f8311600181146105fc575f84156105ea578287013590505b6105f4858261057c565b86555061065b565b601f19841661060a866103fa565b5f5b828110156106315784890135825560018201915060208501945060208101905061060c565b8683101561064e578489013561064a601f891682610560565b8355505b6001600288020188555050505b50505050505050565b828183375f83830152505050565b5f61067d83856102c6565b935061068a838584610664565b610693836102fe565b840190509392505050565b5f6040820190506106b15f8301866101a4565b81810360208301526106c4818486610672565b905094935050505056fea2646970667358221220b1f8b3b8f359edac48c299ee35dd5eb986664db084e3c687083dec7c771de1ba64736f6c63430008180033",
					"opcodes": "PUSH1 0x80 PUSH1 0x40 MSTORE CALLVALUE DUP1 ISZERO PUSH2 0xF JUMPI PUSH0 DUP1 REVERT JUMPDEST POP PUSH2 0x704 DUP1 PUSH2 0x1D PUSH0 CODECOPY PUSH0 RETURN INVALID PUSH1 0x80 PUSH1 0x40 MSTORE CALLVALUE DUP1 ISZERO PUSH2 0xF JUMPI PUSH0 DUP1 REVERT JUMPDEST POP PUSH1 0x4 CALLDATASIZE LT PUSH2 0x3F JUMPI PUSH0 CALLDATALOAD PUSH1 0xE0 SHR DUP1 PUSH4 0x73D4A13A EQ PUSH2 0x43 JUMPI DUP1 PUSH4 0x89A8E2A7 EQ PUSH2 0x61 JUMPI DUP1 PUSH4 0xE21F37CE EQ PUSH2 0x7D JUMPI JUMPDEST PUSH0 DUP1 REVERT JUMPDEST PUSH2 0x4B PUSH2 0x9B JUMP JUMPDEST PUSH1 0x40 MLOAD PUSH2 0x58 SWAP2 SWAP1 PUSH2 0x1B3 JUMP JUMPDEST PUSH1 0x40 MLOAD DUP1 SWAP2 SUB SWAP1 RETURN JUMPDEST PUSH2 0x7B PUSH1 0x4 DUP1 CALLDATASIZE SUB DUP2 ADD SWAP1 PUSH2 0x76 SWAP2 SWAP1 PUSH2 0x25F JUMP JUMPDEST PUSH2 0xA0 JUMP JUMPDEST STOP JUMPDEST PUSH2 0x85 PUSH2 0x10F JUMP JUMPDEST PUSH1 0x40 MLOAD PUSH2 0x92 SWAP2 SWAP1 PUSH2 0x346 JUMP JUMPDEST PUSH1 0x40 MLOAD DUP1 SWAP2 SUB SWAP1 RETURN JUMPDEST PUSH0 SLOAD DUP2 JUMP JUMPDEST DUP3 PUSH0 DUP2 SWAP1 SSTORE POP DUP2 DUP2 PUSH1 0x1 SWAP2 DUP3 PUSH2 0xB7 SWAP3 SWAP2 SWAP1 PUSH2 0x597 JUMP JUMPDEST POP CALLER PUSH20 0xFFFFFFFFFFFFFFFFFFFFFFFFFFFFFFFFFFFFFFFF AND PUSH32 0x2C59CA8ECE54C6EB184CF50FEB693388EF0257B266ADC345B1404EE1165A71DA DUP5 DUP5 DUP5 PUSH1 0x40 MLOAD PUSH2 0x102 SWAP4 SWAP3 SWAP2 SWAP1 PUSH2 0x69E JUMP JUMPDEST PUSH1 0x40 MLOAD DUP1 SWAP2 SUB SWAP1 LOG2 POP POP POP JUMP JUMPDEST PUSH1 0x1 DUP1 SLOAD PUSH2 0x11C SWAP1 PUSH2 0x3CA JUMP JUMPDEST DUP1 PUSH1 0x1F ADD PUSH1 0x20 DUP1 SWAP2 DIV MUL PUSH1 0x20 ADD PUSH1 0x40 MLOAD SWAP1 DUP2 ADD PUSH1 0x40 MSTORE DUP1 SWAP3 SWAP2 SWAP1 DUP2 DUP2 MSTORE PUSH1 0x20 ADD DUP3 DUP1 SLOAD PUSH2 0x148 SWAP1 PUSH2 0x3CA JUMP JUMPDEST DUP1 ISZERO PUSH2 0x193 JUMPI DUP1 PUSH1 0x1F LT PUSH2 0x16A JUMPI PUSH2 0x100 DUP1 DUP4 SLOAD DIV MUL DUP4 MSTORE SWAP2 PUSH1 0x20 ADD SWAP2 PUSH2 0x193 JUMP JUMPDEST DUP3 ADD SWAP2 SWAP1 PUSH0 MSTORE PUSH1 0x20 PUSH0 KECCAK256 SWAP1 JUMPDEST DUP2 SLOAD DUP2 MSTORE SWAP1 PUSH1 0x1 ADD SWAP1 PUSH1 0x20 ADD DUP1 DUP4 GT PUSH2 0x176 JUMPI DUP3 SWAP1 SUB PUSH1 0x1F AND DUP3 ADD SWAP2 JUMPDEST POP POP POP POP POP DUP2 JUMP JUMPDEST PUSH0 DUP2 SWAP1 POP SWAP2 SWAP1 POP JUMP JUMPDEST PUSH2 0x1AD DUP2 PUSH2 0x19B JUMP JUMPDEST DUP3 MSTORE POP POP JUMP JUMPDEST PUSH0 PUSH1 0x20 DUP3 ADD SWAP1 POP PUSH2 0x1C6 PUSH0 DUP4 ADD DUP5 PUSH2 0x1A4 JUMP JUMPDEST SWAP3 SWAP2 POP POP JUMP JUMPDEST PUSH0 DUP1 REVERT JUMPDEST PUSH0 DUP1 REVERT JUMPDEST PUSH2 0x1DD DUP2 PUSH2 0x19B JUMP JUMPDEST DUP2 EQ PUSH2 0x1E7 JUMPI PUSH0 DUP1 REVERT JUMPDEST POP JUMP JUMPDEST PUSH0 DUP2 CALLDATALOAD SWAP1 POP PUSH2 0x1F8 DUP2 PUSH2 0x1D4 JUMP JUMPDEST SWAP3 SWAP2 POP POP JUMP JUMPDEST PUSH0 DUP1 REVERT JUMPDEST PUSH0 DUP1 REVERT JUMPDEST PUSH0 DUP1 REVERT JUMPDEST PUSH0 DUP1 DUP4 PUSH1 0x1F DUP5 ADD SLT PUSH2 0x21F JUMPI PUSH2 0x21E PUSH2 0x1FE JUMP JUMPDEST JUMPDEST DUP3 CALLDATALOAD SWAP1 POP PUSH8 0xFFFFFFFFFFFFFFFF DUP2 GT ISZERO PUSH2 0x23C JUMPI PUSH2 0x23B PUSH2 0x202 JUMP JUMPDEST JUMPDEST PUSH1 0x20 DUP4 ADD SWAP2 POP DUP4 PUSH1 0x1 DUP3 MUL DUP4 ADD GT ISZERO PUSH2 0x258 JUMPI PUSH2 0x257 PUSH2 0x206 JUMP JUMPDEST JUMPDEST SWAP3 POP SWAP3 SWAP1 POP JUMP JUMPDEST PUSH0 DUP1 PUSH0 PUSH1 0x40 DUP5 DUP7 SUB SLT ISZERO PUSH2 0x276 JUMPI PUSH2 0x275 PUSH2 0x1CC JUMP JUMPDEST JUMPDEST PUSH0 PUSH2 0x283 DUP7 DUP3 DUP8 ADD PUSH2 0x1EA JUMP JUMPDEST SWAP4 POP POP PUSH1 0x20 DUP5 ADD CALLDATALOAD PUSH8 0xFFFFFFFFFFFFFFFF DUP2 GT ISZERO PUSH2 0x2A4 JUMPI PUSH2 0x2A3 PUSH2 0x1D0 JUMP JUMPDEST JUMPDEST PUSH2 0x2B0 DUP7 DUP3 DUP8 ADD PUSH2 0x20A JUMP JUMPDEST SWAP3 POP SWAP3 POP POP SWAP3 POP SWAP3 POP SWAP3 JUMP JUMPDEST PUSH0 DUP2 MLOAD SWAP1 POP SWAP2 SWAP1 POP JUMP JUMPDEST PUSH0 DUP3 DUP3 MSTORE PUSH1 0x20 DUP3 ADD SWAP1 POP SWAP3 SWAP2 POP POP JUMP JUMPDEST PUSH0 JUMPDEST DUP4 DUP2 LT ISZERO PUSH2 0x2F3 JUMPI DUP1 DUP3 ADD MLOAD DUP2 DUP5 ADD MSTORE PUSH1 0x20 DUP2 ADD SWAP1 POP PUSH2 0x2D8 JUMP JUMPDEST PUSH0 DUP5 DUP5 ADD MSTORE POP POP POP POP JUMP JUMPDEST PUSH0 PUSH1 0x1F NOT PUSH1 0x1F DUP4 ADD AND SWAP1 POP SWAP2 SWAP1 POP JUMP JUMPDEST PUSH0 PUSH2 0x318 DUP3 PUSH2 0x2BC JUMP JUMPDEST PUSH2 0x322 DUP2 DUP6 PUSH2 0x2C6 JUMP JUMPDEST SWAP4 POP PUSH2 0x332 DUP2 DUP6 PUSH1 0x20 DUP7 ADD PUSH2 0x2D6 JUMP JUMPDEST PUSH2 0x33B DUP2 PUSH2 0x2FE JUMP JUMPDEST DUP5 ADD SWAP2 POP POP SWAP3 SWAP2 POP POP JUMP JUMPDEST PUSH0 PUSH1 0x20 DUP3 ADD SWAP1 POP DUP2 DUP2 SUB PUSH0 DUP4 ADD MSTORE PUSH2 0x35E DUP2 DUP5 PUSH2 0x30E JUMP JUMPDEST SWAP1 POP SWAP3 SWAP2 POP POP JUMP JUMPDEST PUSH0 DUP3 SWAP1 POP SWAP3 SWAP2 POP POP JUMP JUMPDEST PUSH32 0x4E487B7100000000000000000000000000000000000000000000000000000000 PUSH0 MSTORE PUSH1 0x41 PUSH1 0x4 MSTORE PUSH1 0x24 PUSH0 REVERT JUMPDEST PUSH32 0x4E487B7100000000000000000000000000000000000000000000000000000000 PUSH0 MSTORE PUSH1 0x22 PUSH1 0x4 MSTORE PUSH1 0x24 PUSH0 REVERT JUMPDEST PUSH0 PUSH1 0x2 DUP3 DIV SWAP1 POP PUSH1 0x1 DUP3 AND DUP1 PUSH2 0x3E1 JUMPI PUSH1 0x7F DUP3 AND SWAP2 POP JUMPDEST PUSH1 0x20 DUP3 LT DUP2 SUB PUSH2 0x3F4 JUMPI PUSH2 0x3F3 PUSH2 0x39D JUMP JUMPDEST JUMPDEST POP SWAP2 SWAP1 POP JUMP JUMPDEST PUSH0 DUP2 SWAP1 POP DUP2 PUSH0 MSTORE PUSH1 0x20 PUSH0 KECCAK256 SWAP1 POP SWAP2 SWAP1 POP JUMP JUMPDEST PUSH0 PUSH1 0x20 PUSH1 0x1F DUP4 ADD DIV SWAP1 POP SWAP2 SWAP1 POP JUMP JUMPDEST PUSH0 DUP3 DUP3 SHL SWAP1 POP SWAP3 SWAP2 POP POP JUMP JUMPDEST PUSH0 PUSH1 0x8 DUP4 MUL PUSH2 0x456 PUSH32 0xFFFFFFFFFFFFFFFFFFFFFFFFFFFFFFFFFFFFFFFFFFFFFFFFFFFFFFFFFFFFFFFF DUP3 PUSH2 0x41B JUMP JUMPDEST PUSH2 0x460 DUP7 DUP4 PUSH2 0x41B JUMP JUMPDEST SWAP6 POP DUP1 NOT DUP5 AND SWAP4 POP DUP1 DUP7 AND DUP5 OR SWAP3 POP POP POP SWAP4 SWAP3 POP POP POP JUMP JUMPDEST PUSH0 DUP2 SWAP1 POP SWAP2 SWAP1 POP JUMP JUMPDEST PUSH0 PUSH2 0x49B PUSH2 0x496 PUSH2 0x491 DUP5 PUSH2 0x19B JUMP JUMPDEST PUSH2 0x478 JUMP JUMPDEST PUSH2 0x19B JUMP JUMPDEST SWAP1 POP SWAP2 SWAP1 POP JUMP JUMPDEST PUSH0 DUP2 SWAP1 POP SWAP2 SWAP1 POP JUMP JUMPDEST PUSH2 0x4B4 DUP4 PUSH2 0x481 JUMP JUMPDEST PUSH2 0x4C8 PUSH2 0x4C0 DUP3 PUSH2 0x4A2 JUMP JUMPDEST DUP5 DUP5 SLOAD PUSH2 0x427 JUMP JUMPDEST DUP3 SSTORE POP POP POP POP JUMP JUMPDEST PUSH0 SWAP1 JUMP JUMPDEST PUSH2 0x4DC PUSH2 0x4D0 JUMP JUMPDEST PUSH2 0x4E7 DUP2 DUP5 DUP5 PUSH2 0x4AB JUMP JUMPDEST POP POP POP JUMP JUMPDEST JUMPDEST DUP2 DUP2 LT ISZERO PUSH2 0x50A JUMPI PUSH2 0x4FF PUSH0 DUP3 PUSH2 0x4D4 JUMP JUMPDEST PUSH1 0x1 DUP2 ADD SWAP1 POP PUSH2 0x4ED JUMP JUMPDEST POP POP JUMP JUMPDEST PUSH1 0x1F DUP3 GT ISZERO PUSH2 0x54F JUMPI PUSH2 0x520 DUP2 PUSH2 0x3FA JUMP JUMPDEST PUSH2 0x529 DUP5 PUSH2 0x40C JUMP JUMPDEST DUP2 ADD PUSH1 0x20 DUP6 LT ISZERO PUSH2 0x538 JUMPI DUP2 SWAP1 POP JUMPDEST PUSH2 0x54C PUSH2 0x544 DUP6 PUSH2 0x40C JUMP JUMPDEST DUP4 ADD DUP3 PUSH2 0x4EC JUMP JUMPDEST POP POP JUMPDEST POP POP POP JUMP JUMPDEST PUSH0 DUP3 DUP3 SHR SWAP1 POP SWAP3 SWAP2 POP POP JUMP JUMPDEST PUSH0 PUSH2 0x56F PUSH0 NOT DUP5 PUSH1 0x8 MUL PUSH2 0x554 JUMP JUMPDEST NOT DUP1 DUP4 AND SWAP2 POP POP SWAP3 SWAP2 POP POP JUMP JUMPDEST PUSH0 PUSH2 0x587 DUP4 DUP4 PUSH2 0x560 JUMP JUMPDEST SWAP2 POP DUP3 PUSH1 0x2 MUL DUP3 OR SWAP1 POP SWAP3 SWAP2 POP POP JUMP JUMPDEST PUSH2 0x5A1 DUP4 DUP4 PUSH2 0x366 JUMP JUMPDEST PUSH8 0xFFFFFFFFFFFFFFFF DUP2 GT ISZERO PUSH2 0x5BA JUMPI PUSH2 0x5B9 PUSH2 0x370 JUMP JUMPDEST JUMPDEST PUSH2 0x5C4 DUP3 SLOAD PUSH2 0x3CA JUMP JUMPDEST PUSH2 0x5CF DUP3 DUP3 DUP6 PUSH2 0x50E JUMP JUMPDEST PUSH0 PUSH1 0x1F DUP4 GT PUSH1 0x1 DUP2 EQ PUSH2 0x5FC JUMPI PUSH0 DUP5 ISZERO PUSH2 0x5EA JUMPI DUP3 DUP8 ADD CALLDATALOAD SWAP1 POP JUMPDEST PUSH2 0x5F4 DUP6 DUP3 PUSH2 0x57C JUMP JUMPDEST DUP7 SSTORE POP PUSH2 0x65B JUMP JUMPDEST PUSH1 0x1F NOT DUP5 AND PUSH2 0x60A DUP7 PUSH2 0x3FA JUMP JUMPDEST PUSH0 JUMPDEST DUP3 DUP2 LT ISZERO PUSH2 0x631 JUMPI DUP5 DUP10 ADD CALLDATALOAD DUP3 SSTORE PUSH1 0x1 DUP3 ADD SWAP2 POP PUSH1 0x20 DUP6 ADD SWAP5 POP PUSH1 0x20 DUP2 ADD SWAP1 POP PUSH2 0x60C JUMP JUMPDEST DUP7 DUP4 LT ISZERO PUSH2 0x64E JUMPI DUP5 DUP10 ADD CALLDATALOAD PUSH2 0x64A PUSH1 0x1F DUP10 AND DUP3 PUSH2 0x560 JUMP JUMPDEST DUP4 SSTORE POP JUMPDEST PUSH1 0x1 PUSH1 0x2 DUP9 MUL ADD DUP9 SSTORE POP POP POP JUMPDEST POP POP POP POP POP POP POP JUMP JUMPDEST DUP3 DUP2 DUP4 CALLDATACOPY PUSH0 DUP4 DUP4 ADD MSTORE POP POP POP JUMP JUMPDEST PUSH0 PUSH2 0x67D DUP4 DUP6 PUSH2 0x2C6 JUMP JUMPDEST SWAP4 POP PUSH2 0x68A DUP4 DUP6 DUP5 PUSH2 0x664 JUMP JUMPDEST PUSH2 0x693 DUP4 PUSH2 0x2FE JUMP JUMPDEST DUP5 ADD SWAP1 POP SWAP4 SWAP3 POP POP POP JUMP JUMPDEST PUSH0 PUSH1 0x40 DUP3 ADD SWAP1 POP PUSH2 0x6B1 PUSH0 DUP4 ADD DUP7 PUSH2 0x1A4 JUMP JUMPDEST DUP2 DUP2 SUB PUSH1 0x20 DUP4 ADD MSTORE PUSH2 0x6C4 DUP2 DUP5 DUP7 PUSH2 0x672 JUMP JUMPDEST SWAP1 POP SWAP5 SWAP4 POP POP POP POP JUMP INVALID LOG2 PUSH5 0x6970667358 0x22 SLT KECCAK256 0xB1 0xF8 0xB3 0xB8 RETURN MSIZE 0xED 0xAC BASEFEE 0xC2 SWAP10 0xEE CALLDATALOAD 0xDD MCOPY 0xB9 DUP7 PUSH7 0x4DB084E3C68708 RETURNDATASIZE 0xEC PUSH29 0x771DE1BA64736F6C634300081800330000000000000000000000000000 "
				},
				"gasEstimates": {
					"creation": {
						"codeDepositCost": "359200",
						"executionCost": "397",
						"totalCost": "359597"
					},
					"external": {
						"data()": "2402",
						"message()": "infinite",
						"updateData(uint256,string)": "infinite"
					}
				},
				"methodIdentifiers": {
					"data()": "73d4a13a",
					"message()": "e21f37ce",
					"updateData(uint256,string)": "89a8e2a7"
				}
			},
			"storageLayout": {
				"storage": [
					{
						"astId": 11,
						"contract": "chapter07/EventTest.sol:EventTest",
						"label": "data",
						"offset": 0,
						"slot": "0",
						"type": "t_uint256"
					},
					{
						"astId": 13,
						"contract": "chapter07/EventTest.sol:EventTest",
						"label": "message",
						"offset": 0,
						"slot": "1",
						"type": "t_string_storage"
					}
				],
				"types": {
					"t_string_storage": {
						"encoding": "bytes",
						"label": "string",
						"numberOfBytes": "32"
					},
					"t_uint256": {
						"encoding": "inplace",
						"label": "uint256",
						"numberOfBytes": "32"
					}
				}
			},
			"userdoc": {
				"kind": "user",
				"methods": {},
				"version": 1
			}
		}
	}
}