{
	"chapter03/counter.sol": {
		"Counter": {
			"abi": [
				{
					"inputs": [],
					"name": "add",
					"outputs": [],
					"stateMutability": "nonpayable",
					"type": "function"
				},
				{
					"inputs": [],
					"name": "divide",
					"outputs": [
						{
							"internalType": "uint256",
							"name": "",
							"type": "uint256"
						}
					],
					"stateMutability": "nonpayable",
					"type": "function"
				},
				{
					"inputs": [],
					"name": "myNumber",
					"outputs": [
						{
							"internalType": "uint8",
							"name": "",
							"type": "uint8"
						}
					],
					"stateMutability": "view",
					"type": "function"
				}
			],
			"devdoc": {
				"kind": "dev",
				"methods": {},
				"version": 1
			},
			"evm": {
				"assembly": "    /* \"chapter03/counter.sol\":61:540  contract Counter {... */\n  mstore(0x40, 0x80)\n    /* \"chapter03/counter.sol\":109:112  254 */\n  0xfe\n    /* \"chapter03/counter.sol\":85:112  uint8 public myNumber = 254 */\n  0x00\n  dup1\n  0x0100\n  exp\n  dup2\n  sload\n  dup2\n  0xff\n  mul\n  not\n  and\n  swap1\n  dup4\n  0xff\n  and\n  mul\n  or\n  swap1\n  sstore\n  pop\n    /* \"chapter03/counter.sol\":61:540  contract Counter {... */\n  callvalue\n  dup1\n  iszero\n  tag_1\n  jumpi\n  0x00\n  dup1\n  revert\ntag_1:\n  pop\n  dataSize(sub_0)\n  dup1\n  dataOffset(sub_0)\n  0x00\n  codecopy\n  0x00\n  return\nstop\n\nsub_0: assembly {\n        /* \"chapter03/counter.sol\":61:540  contract Counter {... */\n      mstore(0x40, 0x80)\n      callvalue\n      dup1\n      iszero\n      tag_1\n      jumpi\n      0x00\n      dup1\n      revert\n    tag_1:\n      pop\n      jumpi(tag_2, lt(calldatasize, 0x04))\n      shr(0xe0, calldataload(0x00))\n      dup1\n      0x23fd0e40\n      eq\n      tag_3\n      jumpi\n      dup1\n      0x4f2be91f\n      eq\n      tag_4\n      jumpi\n      dup1\n      0xb53b8d7a\n      eq\n      tag_5\n      jumpi\n    tag_2:\n      0x00\n      dup1\n      revert\n        /* \"chapter03/counter.sol\":85:112  uint8 public myNumber = 254 */\n    tag_3:\n      tag_6\n      tag_7\n      jump\t// in\n    tag_6:\n      mload(0x40)\n      tag_8\n      swap2\n      swap1\n      tag_9\n      jump\t// in\n    tag_8:\n      mload(0x40)\n      dup1\n      swap2\n      sub\n      swap1\n      return\n        /* \"chapter03/counter.sol\":121:309  function add() public {... */\n    tag_4:\n      tag_10\n      tag_11\n      jump\t// in\n    tag_10:\n      stop\n        /* \"chapter03/counter.sol\":315:537  function divide() public returns(uint){... */\n    tag_5:\n      tag_12\n      tag_13\n      jump\t// in\n    tag_12:\n      mload(0x40)\n      tag_14\n      swap2\n      swap1\n      tag_15\n      jump\t// in\n    tag_14:\n      mload(0x40)\n      dup1\n      swap2\n      sub\n      swap1\n      return\n        /* \"chapter03/counter.sol\":85:112  uint8 public myNumber = 254 */\n    tag_7:\n      0x00\n      dup1\n      sload\n      swap1\n      0x0100\n      exp\n      swap1\n      div\n      0xff\n      and\n      dup2\n      jump\t// out\n        /* \"chapter03/counter.sol\":121:309  function add() public {... */\n    tag_11:\n        /* \"chapter03/counter.sol\":299:300  1 */\n      0x01\n        /* \"chapter03/counter.sol\":288:296  myNumber */\n      0x00\n      dup1\n      sload\n      swap1\n      0x0100\n      exp\n      swap1\n      div\n      0xff\n      and\n        /* \"chapter03/counter.sol\":288:300  myNumber + 1 */\n      tag_17\n      swap2\n      swap1\n      tag_18\n      jump\t// in\n    tag_17:\n        /* \"chapter03/counter.sol\":277:285  myNumber */\n      0x00\n      dup1\n        /* \"chapter03/counter.sol\":277:300  myNumber = myNumber + 1 */\n      0x0100\n      exp\n      dup2\n      sload\n      dup2\n      0xff\n      mul\n      not\n      and\n      swap1\n      dup4\n      0xff\n      and\n      mul\n      or\n      swap1\n      sstore\n      pop\n        /* \"chapter03/counter.sol\":121:309  function add() public {... */\n      jump\t// out\n        /* \"chapter03/counter.sol\":315:537  function divide() public returns(uint){... */\n    tag_13:\n        /* \"chapter03/counter.sol\":348:352  uint */\n      0x00\n        /* \"chapter03/counter.sol\":404:410  uint a */\n      dup1\n        /* \"chapter03/counter.sol\":413:414  5 */\n      0x05\n        /* \"chapter03/counter.sol\":404:414  uint a = 5 */\n      swap1\n      pop\n        /* \"chapter03/counter.sol\":425:431  uint b */\n      0x00\n        /* \"chapter03/counter.sol\":434:435  2 */\n      0x02\n        /* \"chapter03/counter.sol\":425:435  uint b = 2 */\n      swap1\n      pop\n        /* \"chapter03/counter.sol\":446:457  uint result */\n      0x00\n        /* \"chapter03/counter.sol\":464:465  b */\n      dup2\n        /* \"chapter03/counter.sol\":460:461  a */\n      dup4\n        /* \"chapter03/counter.sol\":460:465  a / b */\n      tag_20\n      swap2\n      swap1\n      tag_21\n      jump\t// in\n    tag_20:\n        /* \"chapter03/counter.sol\":446:465  uint result = a / b */\n      swap1\n      pop\n        /* \"chapter03/counter.sol\":523:529  result */\n      dup1\n        /* \"chapter03/counter.sol\":516:529  return result */\n      swap4\n      pop\n      pop\n      pop\n      pop\n        /* \"chapter03/counter.sol\":315:537  function divide() public returns(uint){... */\n      swap1\n      jump\t// out\n        /* \"#utility.yul\":7:93   */\n    tag_22:\n        /* \"#utility.yul\":42:49   */\n      0x00\n        /* \"#utility.yul\":82:86   */\n      0xff\n        /* \"#utility.yul\":75:80   */\n      dup3\n        /* \"#utility.yul\":71:87   */\n      and\n        /* \"#utility.yul\":60:87   */\n      swap1\n      pop\n        /* \"#utility.yul\":7:93   */\n      swap2\n      swap1\n      pop\n      jump\t// out\n        /* \"#utility.yul\":99:211   */\n    tag_23:\n        /* \"#utility.yul\":182:204   */\n      tag_31\n        /* \"#utility.yul\":198:203   */\n      dup2\n        /* \"#utility.yul\":182:204   */\n      tag_22\n      jump\t// in\n    tag_31:\n        /* \"#utility.yul\":177:180   */\n      dup3\n        /* \"#utility.yul\":170:205   */\n      mstore\n        /* \"#utility.yul\":99:211   */\n      pop\n      pop\n      jump\t// out\n        /* \"#utility.yul\":217:431   */\n    tag_9:\n        /* \"#utility.yul\":306:310   */\n      0x00\n        /* \"#utility.yul\":344:346   */\n      0x20\n        /* \"#utility.yul\":333:342   */\n      dup3\n        /* \"#utility.yul\":329:347   */\n      add\n        /* \"#utility.yul\":321:347   */\n      swap1\n      pop\n        /* \"#utility.yul\":357:424   */\n      tag_33\n        /* \"#utility.yul\":421:422   */\n      0x00\n        /* \"#utility.yul\":410:419   */\n      dup4\n        /* \"#utility.yul\":406:423   */\n      add\n        /* \"#utility.yul\":397:403   */\n      dup5\n        /* \"#utility.yul\":357:424   */\n      tag_23\n      jump\t// in\n    tag_33:\n        /* \"#utility.yul\":217:431   */\n      swap3\n      swap2\n      pop\n      pop\n      jump\t// out\n        /* \"#utility.yul\":437:514   */\n    tag_24:\n        /* \"#utility.yul\":474:481   */\n      0x00\n        /* \"#utility.yul\":503:508   */\n      dup2\n        /* \"#utility.yul\":492:508   */\n      swap1\n      pop\n        /* \"#utility.yul\":437:514   */\n      swap2\n      swap1\n      pop\n      jump\t// out\n        /* \"#utility.yul\":520:638   */\n    tag_25:\n        /* \"#utility.yul\":607:631   */\n      tag_36\n        /* \"#utility.yul\":625:630   */\n      dup2\n        /* \"#utility.yul\":607:631   */\n      tag_24\n      jump\t// in\n    tag_36:\n        /* \"#utility.yul\":602:605   */\n      dup3\n        /* \"#utility.yul\":595:632   */\n      mstore\n        /* \"#utility.yul\":520:638   */\n      pop\n      pop\n      jump\t// out\n        /* \"#utility.yul\":644:866   */\n    tag_15:\n        /* \"#utility.yul\":737:741   */\n      0x00\n        /* \"#utility.yul\":775:777   */\n      0x20\n        /* \"#utility.yul\":764:773   */\n      dup3\n        /* \"#utility.yul\":760:778   */\n      add\n        /* \"#utility.yul\":752:778   */\n      swap1\n      pop\n        /* \"#utility.yul\":788:859   */\n      tag_38\n        /* \"#utility.yul\":856:857   */\n      0x00\n        /* \"#utility.yul\":845:854   */\n      dup4\n        /* \"#utility.yul\":841:858   */\n      add\n        /* \"#utility.yul\":832:838   */\n      dup5\n        /* \"#utility.yul\":788:859   */\n      tag_25\n      jump\t// in\n    tag_38:\n        /* \"#utility.yul\":644:866   */\n      swap3\n      swap2\n      pop\n      pop\n      jump\t// out\n        /* \"#utility.yul\":872:1052   */\n    tag_26:\n        /* \"#utility.yul\":920:997   */\n      0x4e487b7100000000000000000000000000000000000000000000000000000000\n        /* \"#utility.yul\":917:918   */\n      0x00\n        /* \"#utility.yul\":910:998   */\n      mstore\n        /* \"#utility.yul\":1017:1021   */\n      0x11\n        /* \"#utility.yul\":1014:1015   */\n      0x04\n        /* \"#utility.yul\":1007:1022   */\n      mstore\n        /* \"#utility.yul\":1041:1045   */\n      0x24\n        /* \"#utility.yul\":1038:1039   */\n      0x00\n        /* \"#utility.yul\":1031:1046   */\n      revert\n        /* \"#utility.yul\":1058:1246   */\n    tag_18:\n        /* \"#utility.yul\":1096:1099   */\n      0x00\n        /* \"#utility.yul\":1115:1133   */\n      tag_41\n        /* \"#utility.yul\":1131:1132   */\n      dup3\n        /* \"#utility.yul\":1115:1133   */\n      tag_22\n      jump\t// in\n    tag_41:\n        /* \"#utility.yul\":1110:1133   */\n      swap2\n      pop\n        /* \"#utility.yul\":1147:1165   */\n      tag_42\n        /* \"#utility.yul\":1163:1164   */\n      dup4\n        /* \"#utility.yul\":1147:1165   */\n      tag_22\n      jump\t// in\n    tag_42:\n        /* \"#utility.yul\":1142:1165   */\n      swap3\n      pop\n        /* \"#utility.yul\":1188:1189   */\n      dup3\n        /* \"#utility.yul\":1185:1186   */\n      dup3\n        /* \"#utility.yul\":1181:1190   */\n      add\n        /* \"#utility.yul\":1174:1190   */\n      swap1\n      pop\n        /* \"#utility.yul\":1211:1215   */\n      0xff\n        /* \"#utility.yul\":1206:1209   */\n      dup2\n        /* \"#utility.yul\":1203:1216   */\n      gt\n        /* \"#utility.yul\":1200:1239   */\n      iszero\n      tag_43\n      jumpi\n        /* \"#utility.yul\":1219:1237   */\n      tag_44\n      tag_26\n      jump\t// in\n    tag_44:\n        /* \"#utility.yul\":1200:1239   */\n    tag_43:\n        /* \"#utility.yul\":1058:1246   */\n      swap3\n      swap2\n      pop\n      pop\n      jump\t// out\n        /* \"#utility.yul\":1252:1432   */\n    tag_27:\n        /* \"#utility.yul\":1300:1377   */\n      0x4e487b7100000000000000000000000000000000000000000000000000000000\n        /* \"#utility.yul\":1297:1298   */\n      0x00\n        /* \"#utility.yul\":1290:1378   */\n      mstore\n        /* \"#utility.yul\":1397:1401   */\n      0x12\n        /* \"#utility.yul\":1394:1395   */\n      0x04\n        /* \"#utility.yul\":1387:1402   */\n      mstore\n        /* \"#utility.yul\":1421:1425   */\n      0x24\n        /* \"#utility.yul\":1418:1419   */\n      0x00\n        /* \"#utility.yul\":1411:1426   */\n      revert\n        /* \"#utility.yul\":1438:1623   */\n    tag_21:\n        /* \"#utility.yul\":1478:1479   */\n      0x00\n        /* \"#utility.yul\":1495:1515   */\n      tag_47\n        /* \"#utility.yul\":1513:1514   */\n      dup3\n        /* \"#utility.yul\":1495:1515   */\n      tag_24\n      jump\t// in\n    tag_47:\n        /* \"#utility.yul\":1490:1515   */\n      swap2\n      pop\n        /* \"#utility.yul\":1529:1549   */\n      tag_48\n        /* \"#utility.yul\":1547:1548   */\n      dup4\n        /* \"#utility.yul\":1529:1549   */\n      tag_24\n      jump\t// in\n    tag_48:\n        /* \"#utility.yul\":1524:1549   */\n      swap3\n      pop\n        /* \"#utility.yul\":1568:1569   */\n      dup3\n        /* \"#utility.yul\":1558:1593   */\n      tag_49\n      jumpi\n        /* \"#utility.yul\":1573:1591   */\n      tag_50\n      tag_27\n      jump\t// in\n    tag_50:\n        /* \"#utility.yul\":1558:1593   */\n    tag_49:\n        /* \"#utility.yul\":1615:1616   */\n      dup3\n        /* \"#utility.yul\":1612:1613   */\n      dup3\n        /* \"#utility.yul\":1608:1617   */\n      div\n        /* \"#utility.yul\":1603:1617   */\n      swap1\n      pop\n        /* \"#utility.yul\":1438:1623   */\n      swap3\n      swap2\n      pop\n      pop\n      jump\t// out\n\n    auxdata: 0xa2646970667358221220945fbe0b41d16ef4e8fc544a918a66d3110d781561fd6513d1d29741ace4c13d64736f6c63430008180033\n}\n",
				"bytecode": {
					"linkReferences": {},
					"object": "608060405260fe5f806101000a81548160ff021916908360ff160217905550348015610029575f80fd5b50610248806100375f395ff3fe608060405234801561000f575f80fd5b506004361061003f575f3560e01c806323fd0e40146100435780634f2be91f14610061578063b53b8d7a1461006b575b5f80fd5b61004b610089565b604051610058919061010a565b60405180910390f35b610069610099565b005b6100736100cc565b604051610080919061013b565b60405180910390f35b5f8054906101000a900460ff1681565b60015f8054906101000a900460ff166100b29190610181565b5f806101000a81548160ff021916908360ff160217905550565b5f80600590505f600290505f81836100e491906101e2565b905080935050505090565b5f60ff82169050919050565b610104816100ef565b82525050565b5f60208201905061011d5f8301846100fb565b92915050565b5f819050919050565b61013581610123565b82525050565b5f60208201905061014e5f83018461012c565b92915050565b7f4e487b71000000000000000000000000000000000000000000000000000000005f52601160045260245ffd5b5f61018b826100ef565b9150610196836100ef565b9250828201905060ff8111156101af576101ae610154565b5b92915050565b7f4e487b71000000000000000000000000000000000000000000000000000000005f52601260045260245ffd5b5f6101ec82610123565b91506101f783610123565b925082610207576102066101b5565b5b82820490509291505056fea2646970667358221220945fbe0b41d16ef4e8fc544a918a66d3110d781561fd6513d1d29741ace4c13d64736f6c63430008180033",
					"opcodes": "PUSH1 0x80 PUSH1 0x40 MSTORE PUSH1 0xFE PUSH0 DUP1 PUSH2 0x100 EXP DUP2 SLOAD DUP2 PUSH1 0xFF MUL NOT AND SWAP1 DUP4 PUSH1 0xFF AND MUL OR SWAP1 SSTORE POP CALLVALUE DUP1 ISZERO PUSH2 0x29 JUMPI PUSH0 DUP1 REVERT JUMPDEST POP PUSH2 0x248 DUP1 PUSH2 0x37 PUSH0 CODECOPY PUSH0 RETURN INVALID PUSH1 0x80 PUSH1 0x40 MSTORE CALLVALUE DUP1 ISZERO PUSH2 0xF JUMPI PUSH0 DUP1 REVERT JUMPDEST POP PUSH1 0x4 CALLDATASIZE LT PUSH2 0x3F JUMPI PUSH0 CALLDATALOAD PUSH1 0xE0 SHR DUP1 PUSH4 0x23FD0E40 EQ PUSH2 0x43 JUMPI DUP1 PUSH4 0x4F2BE91F EQ PUSH2 0x61 JUMPI DUP1 PUSH4 0xB53B8D7A EQ PUSH2 0x6B JUMPI JUMPDEST PUSH0 DUP1 REVERT JUMPDEST PUSH2 0x4B PUSH2 0x89 JUMP JUMPDEST PUSH1 0x40 MLOAD PUSH2 0x58 SWAP2 SWAP1 PUSH2 0x10A JUMP JUMPDEST PUSH1 0x40 MLOAD DUP1 SWAP2 SUB SWAP1 RETURN JUMPDEST PUSH2 0x69 PUSH2 0x99 JUMP JUMPDEST STOP JUMPDEST PUSH2 0x73 PUSH2 0xCC JUMP JUMPDEST PUSH1 0x40 MLOAD PUSH2 0x80 SWAP2 SWAP1 PUSH2 0x13B JUMP JUMPDEST PUSH1 0x40 MLOAD DUP1 SWAP2 SUB SWAP1 RETURN JUMPDEST PUSH0 DUP1 SLOAD SWAP1 PUSH2 0x100 EXP SWAP1 DIV PUSH1 0xFF AND DUP2 JUMP JUMPDEST PUSH1 0x1 PUSH0 DUP1 SLOAD SWAP1 PUSH2 0x100 EXP SWAP1 DIV PUSH1 0xFF AND PUSH2 0xB2 SWAP2 SWAP1 PUSH2 0x181 JUMP JUMPDEST PUSH0 DUP1 PUSH2 0x100 EXP DUP2 SLOAD DUP2 PUSH1 0xFF MUL NOT AND SWAP1 DUP4 PUSH1 0xFF AND MUL OR SWAP1 SSTORE POP JUMP JUMPDEST PUSH0 DUP1 PUSH1 0x5 SWAP1 POP PUSH0 PUSH1 0x2 SWAP1 POP PUSH0 DUP2 DUP4 PUSH2 0xE4 SWAP2 SWAP1 PUSH2 0x1E2 JUMP JUMPDEST SWAP1 POP DUP1 SWAP4 POP POP POP POP SWAP1 JUMP JUMPDEST PUSH0 PUSH1 0xFF DUP3 AND SWAP1 POP SWAP2 SWAP1 POP JUMP JUMPDEST PUSH2 0x104 DUP2 PUSH2 0xEF JUMP JUMPDEST DUP3 MSTORE POP POP JUMP JUMPDEST PUSH0 PUSH1 0x20 DUP3 ADD SWAP1 POP PUSH2 0x11D PUSH0 DUP4 ADD DUP5 PUSH2 0xFB JUMP JUMPDEST SWAP3 SWAP2 POP POP JUMP JUMPDEST PUSH0 DUP2 SWAP1 POP SWAP2 SWAP1 POP JUMP JUMPDEST PUSH2 0x135 DUP2 PUSH2 0x123 JUMP JUMPDEST DUP3 MSTORE POP POP JUMP JUMPDEST PUSH0 PUSH1 0x20 DUP3 ADD SWAP1 POP PUSH2 0x14E PUSH0 DUP4 ADD DUP5 PUSH2 0x12C JUMP JUMPDEST SWAP3 SWAP2 POP POP JUMP JUMPDEST PUSH32 0x4E487B7100000000000000000000000000000000000000000000000000000000 PUSH0 MSTORE PUSH1 0x11 PUSH1 0x4 MSTORE PUSH1 0x24 PUSH0 REVERT JUMPDEST PUSH0 PUSH2 0x18B DUP3 PUSH2 0xEF JUMP JUMPDEST SWAP2 POP PUSH2 0x196 DUP4 PUSH2 0xEF JUMP JUMPDEST SWAP3 POP DUP3 DUP3 ADD SWAP1 POP PUSH1 0xFF DUP2 GT ISZERO PUSH2 0x1AF JUMPI PUSH2 0x1AE PUSH2 0x154 JUMP JUMPDEST JUMPDEST SWAP3 SWAP2 POP POP JUMP JUMPDEST PUSH32 0x4E487B7100000000000000000000000000000000000000000000000000000000 PUSH0 MSTORE PUSH1 0x12 PUSH1 0x4 MSTORE PUSH1 0x24 PUSH0 REVERT JUMPDEST PUSH0 PUSH2 0x1EC DUP3 PUSH2 0x123 JUMP JUMPDEST SWAP2 POP PUSH2 0x1F7 DUP4 PUSH2 0x123 JUMP JUMPDEST SWAP3 POP DUP3 PUSH2 0x207 JUMPI PUSH2 0x206 PUSH2 0x1B5 JUMP JUMPDEST JUMPDEST DUP3 DUP3 DIV SWAP1 POP SWAP3 SWAP2 POP POP JUMP INVALID LOG2 PUSH5 0x6970667358 0x22 SLT KECCAK256 SWAP5 PUSH0 0xBE SIGNEXTEND COINBASE 0xD1 PUSH15 0xF4E8FC544A918A66D3110D781561FD PUSH6 0x13D1D29741AC 0xE4 0xC1 RETURNDATASIZE PUSH5 0x736F6C6343 STOP ADDMOD XOR STOP CALLER "
				},
				"gasEstimates": {
					"creation": {
						"codeDepositCost": "116800",
						"executionCost": "24429",
						"totalCost": "141229"
					},
					"external": {
						"add()": "infinite",
						"divide()": "infinite",
						"myNumber()": "2441"
					}
				},
				"methodIdentifiers": {
					"add()": "4f2be91f",
					"divide()": "b53b8d7a",
					"myNumber()": "23fd0e40"
				}
			},
			"storageLayout": {
				"storage": [
					{
						"astId": 4,
						"contract": "chapter03/counter.sol:Counter",
						"label": "myNumber",
						"offset": 0,
						"slot": "0",
						"type": "t_uint8"
					}
				],
				"types": {
					"t_uint8": {
						"encoding": "inplace",
						"label": "uint8",
						"numberOfBytes": "1"
					}
				}
			},
			"userdoc": {
				"kind": "user",
				"methods": {},
				"version": 1
			}
		}
	}
}