{
	"test/NumberHuntPro.sol": {
		"NumberHuntPro": {
			"abi": [
				{
					"inputs": [],
					"name": "TRAP_NUMBER_1",
					"outputs": [
						{
							"internalType": "uint256",
							"name": "",
							"type": "uint256"
						}
					],
					"stateMutability": "view",
					"type": "function"
				},
				{
					"inputs": [],
					"name": "TRAP_NUMBER_2",
					"outputs": [
						{
							"internalType": "uint256",
							"name": "",
							"type": "uint256"
						}
					],
					"stateMutability": "view",
					"type": "function"
				},
				{
					"inputs": [],
					"name": "TREASURE_NUMBER",
					"outputs": [
						{
							"internalType": "uint256",
							"name": "",
							"type": "uint256"
						}
					],
					"stateMutability": "view",
					"type": "function"
				},
				{
					"inputs": [
						{
							"internalType": "uint256",
							"name": "_step",
							"type": "uint256"
						}
					],
					"name": "findTreasure",
					"outputs": [
						{
							"internalType": "string",
							"name": "result",
							"type": "string"
						}
					],
					"stateMutability": "pure",
					"type": "function"
				}
			],
			"devdoc": {
				"details": "一个带有陷阱的数字寻宝游戏合约。",
				"kind": "dev",
				"methods": {
					"findTreasure(uint256)": {
						"details": "从0开始，以_step为步长累加，看是否能找到宝藏或踩中陷阱。",
						"params": {
							"_step": "每次累加的步长。"
						},
						"returns": {
							"result": "返回一个字符串，描述寻宝的结果。"
						}
					}
				},
				"title": "NumberHuntPro",
				"version": 1
			},
			"evm": {
				"assembly": "    /* \"test/NumberHuntPro.sol\":154:1588  contract NumberHuntPro {... */\n  mstore(0x40, 0x80)\n  callvalue\n  dup1\n  iszero\n  tag_1\n  jumpi\n  0x00\n  dup1\n  revert\ntag_1:\n  pop\n  dataSize(sub_0)\n  dup1\n  dataOffset(sub_0)\n  0x00\n  codecopy\n  0x00\n  return\nstop\n\nsub_0: assembly {\n        /* \"test/NumberHuntPro.sol\":154:1588  contract NumberHuntPro {... */\n      mstore(0x40, 0x80)\n      callvalue\n      dup1\n      iszero\n      tag_1\n      jumpi\n      0x00\n      dup1\n      revert\n    tag_1:\n      pop\n      jumpi(tag_2, lt(calldatasize, 0x04))\n      shr(0xe0, calldataload(0x00))\n      dup1\n      0x023eb9a0\n      eq\n      tag_3\n      jumpi\n      dup1\n      0x0d7015ae\n      eq\n      tag_4\n      jumpi\n      dup1\n      0x39a1491c\n      eq\n      tag_5\n      jumpi\n      dup1\n      0xc8b67885\n      eq\n      tag_6\n      jumpi\n    tag_2:\n      0x00\n      dup1\n      revert\n        /* \"test/NumberHuntPro.sol\":339:378  uint public constant TRAP_NUMBER_2 = 84 */\n    tag_3:\n      tag_7\n      tag_8\n      jump\t// in\n    tag_7:\n      mload(0x40)\n      tag_9\n      swap2\n      swap1\n      tag_10\n      jump\t// in\n    tag_9:\n      mload(0x40)\n      dup1\n      swap2\n      sub\n      swap1\n      return\n        /* \"test/NumberHuntPro.sol\":214:256  uint public constant TREASURE_NUMBER = 100 */\n    tag_4:\n      tag_11\n      tag_12\n      jump\t// in\n    tag_11:\n      mload(0x40)\n      tag_13\n      swap2\n      swap1\n      tag_10\n      jump\t// in\n    tag_13:\n      mload(0x40)\n      dup1\n      swap2\n      sub\n      swap1\n      return\n        /* \"test/NumberHuntPro.sol\":293:332  uint public constant TRAP_NUMBER_1 = 42 */\n    tag_5:\n      tag_14\n      tag_15\n      jump\t// in\n    tag_14:\n      mload(0x40)\n      tag_16\n      swap2\n      swap1\n      tag_10\n      jump\t// in\n    tag_16:\n      mload(0x40)\n      dup1\n      swap2\n      sub\n      swap1\n      return\n        /* \"test/NumberHuntPro.sol\":618:1585  function findTreasure(uint _step) public pure returns (string memory result) {... */\n    tag_6:\n      tag_17\n      0x04\n      dup1\n      calldatasize\n      sub\n      dup2\n      add\n      swap1\n      tag_18\n      swap2\n      swap1\n      tag_19\n      jump\t// in\n    tag_18:\n      tag_20\n      jump\t// in\n    tag_17:\n      mload(0x40)\n      tag_21\n      swap2\n      swap1\n      tag_22\n      jump\t// in\n    tag_21:\n      mload(0x40)\n      dup1\n      swap2\n      sub\n      swap1\n      return\n        /* \"test/NumberHuntPro.sol\":339:378  uint public constant TRAP_NUMBER_2 = 84 */\n    tag_8:\n        /* \"test/NumberHuntPro.sol\":376:378  84 */\n      0x54\n        /* \"test/NumberHuntPro.sol\":339:378  uint public constant TRAP_NUMBER_2 = 84 */\n      dup2\n      jump\t// out\n        /* \"test/NumberHuntPro.sol\":214:256  uint public constant TREASURE_NUMBER = 100 */\n    tag_12:\n        /* \"test/NumberHuntPro.sol\":253:256  100 */\n      0x64\n        /* \"test/NumberHuntPro.sol\":214:256  uint public constant TREASURE_NUMBER = 100 */\n      dup2\n      jump\t// out\n        /* \"test/NumberHuntPro.sol\":293:332  uint public constant TRAP_NUMBER_1 = 42 */\n    tag_15:\n        /* \"test/NumberHuntPro.sol\":330:332  42 */\n      0x2a\n        /* \"test/NumberHuntPro.sol\":293:332  uint public constant TRAP_NUMBER_1 = 42 */\n      dup2\n      jump\t// out\n        /* \"test/NumberHuntPro.sol\":618:1585  function findTreasure(uint _step) public pure returns (string memory result) {... */\n    tag_20:\n        /* \"test/NumberHuntPro.sol\":673:693  string memory result */\n      0x60\n        /* \"test/NumberHuntPro.sol\":775:776  0 */\n      0x00\n        /* \"test/NumberHuntPro.sol\":767:772  _step */\n      dup3\n        /* \"test/NumberHuntPro.sol\":767:776  _step > 0 */\n      gt\n        /* \"test/NumberHuntPro.sol\":759:812  require(_step > 0, \"Step must be greater than zero.\") */\n      tag_24\n      jumpi\n      mload(0x40)\n      0x08c379a000000000000000000000000000000000000000000000000000000000\n      dup2\n      mstore\n      0x04\n      add\n      tag_25\n      swap1\n      tag_26\n      jump\t// in\n    tag_25:\n      mload(0x40)\n      dup1\n      swap2\n      sub\n      swap1\n      revert\n    tag_24:\n        /* \"test/NumberHuntPro.sol\":825:843  uint currentNumber */\n      0x00\n        /* \"test/NumberHuntPro.sol\":913:1411  while (currentNumber <= TREASURE_NUMBER) {... */\n    tag_27:\n        /* \"test/NumberHuntPro.sol\":253:256  100 */\n      0x64\n        /* \"test/NumberHuntPro.sol\":920:933  currentNumber */\n      dup2\n        /* \"test/NumberHuntPro.sol\":920:952  currentNumber <= TREASURE_NUMBER */\n      gt\n        /* \"test/NumberHuntPro.sol\":913:1411  while (currentNumber <= TREASURE_NUMBER) {... */\n      tag_28\n      jumpi\n        /* \"test/NumberHuntPro.sol\":330:332  42 */\n      0x2a\n        /* \"test/NumberHuntPro.sol\":1028:1041  currentNumber */\n      dup2\n        /* \"test/NumberHuntPro.sol\":1028:1058  currentNumber == TRAP_NUMBER_1 */\n      eq\n        /* \"test/NumberHuntPro.sol\":1028:1092  currentNumber == TRAP_NUMBER_1 || currentNumber == TRAP_NUMBER_2 */\n      dup1\n      tag_29\n      jumpi\n      pop\n        /* \"test/NumberHuntPro.sol\":376:378  84 */\n      0x54\n        /* \"test/NumberHuntPro.sol\":1062:1075  currentNumber */\n      dup2\n        /* \"test/NumberHuntPro.sol\":1062:1092  currentNumber == TRAP_NUMBER_2 */\n      eq\n        /* \"test/NumberHuntPro.sol\":1028:1092  currentNumber == TRAP_NUMBER_1 || currentNumber == TRAP_NUMBER_2 */\n    tag_29:\n        /* \"test/NumberHuntPro.sol\":1024:1159  if (currentNumber == TRAP_NUMBER_1 || currentNumber == TRAP_NUMBER_2) {... */\n      iszero\n      tag_30\n      jumpi\n        /* \"test/NumberHuntPro.sol\":1113:1143  return \"Oops! You hit a trap!\" */\n      mload(0x40)\n      dup1\n      0x40\n      add\n      0x40\n      mstore\n      dup1\n      0x15\n      dup2\n      mstore\n      0x20\n      add\n      0x4f6f70732120596f752068697420612074726170210000000000000000000000\n      dup2\n      mstore\n      pop\n      swap2\n      pop\n      pop\n      jump(tag_23)\n        /* \"test/NumberHuntPro.sol\":1024:1159  if (currentNumber == TRAP_NUMBER_1 || currentNumber == TRAP_NUMBER_2) {... */\n    tag_30:\n        /* \"test/NumberHuntPro.sol\":253:256  100 */\n      0x64\n        /* \"test/NumberHuntPro.sol\":1220:1233  currentNumber */\n      dup2\n        /* \"test/NumberHuntPro.sol\":1220:1252  currentNumber == TREASURE_NUMBER */\n      sub\n        /* \"test/NumberHuntPro.sol\":1216:1330  if (currentNumber == TREASURE_NUMBER) {... */\n      tag_31\n      jumpi\n        /* \"test/NumberHuntPro.sol\":1273:1314  return \"Success! You found the treasure!\" */\n      mload(0x40)\n      dup1\n      0x40\n      add\n      0x40\n      mstore\n      dup1\n      0x20\n      dup2\n      mstore\n      0x20\n      add\n      0x537563636573732120596f7520666f756e642074686520747265617375726521\n      dup2\n      mstore\n      pop\n      swap2\n      pop\n      pop\n      jump(tag_23)\n        /* \"test/NumberHuntPro.sol\":1216:1330  if (currentNumber == TREASURE_NUMBER) {... */\n    tag_31:\n        /* \"test/NumberHuntPro.sol\":1375:1380  _step */\n      dup3\n        /* \"test/NumberHuntPro.sol\":1358:1380  currentNumber += _step */\n      dup2\n      tag_32\n      swap2\n      swap1\n      tag_33\n      jump\t// in\n    tag_32:\n      swap1\n      pop\n        /* \"test/NumberHuntPro.sol\":913:1411  while (currentNumber <= TREASURE_NUMBER) {... */\n      jump(tag_27)\n    tag_28:\n        /* \"test/NumberHuntPro.sol\":1526:1577  return \"Missed! The treasure was not on this path.\" */\n      mload(0x40)\n      dup1\n      0x60\n      add\n      0x40\n      mstore\n      dup1\n      0x2a\n      dup2\n      mstore\n      0x20\n      add\n      data_1010b0c004f86578a3eb050d1d12fc7b3d75318d9e540f4e87b2bcfd3b3f8588\n      0x2a\n      swap2\n      codecopy\n      swap2\n      pop\n      pop\n        /* \"test/NumberHuntPro.sol\":618:1585  function findTreasure(uint _step) public pure returns (string memory result) {... */\n    tag_23:\n      swap2\n      swap1\n      pop\n      jump\t// out\n        /* \"#utility.yul\":7:84   */\n    tag_34:\n        /* \"#utility.yul\":44:51   */\n      0x00\n        /* \"#utility.yul\":73:78   */\n      dup2\n        /* \"#utility.yul\":62:78   */\n      swap1\n      pop\n        /* \"#utility.yul\":7:84   */\n      swap2\n      swap1\n      pop\n      jump\t// out\n        /* \"#utility.yul\":90:208   */\n    tag_35:\n        /* \"#utility.yul\":177:201   */\n      tag_52\n        /* \"#utility.yul\":195:200   */\n      dup2\n        /* \"#utility.yul\":177:201   */\n      tag_34\n      jump\t// in\n    tag_52:\n        /* \"#utility.yul\":172:175   */\n      dup3\n        /* \"#utility.yul\":165:202   */\n      mstore\n        /* \"#utility.yul\":90:208   */\n      pop\n      pop\n      jump\t// out\n        /* \"#utility.yul\":214:436   */\n    tag_10:\n        /* \"#utility.yul\":307:311   */\n      0x00\n        /* \"#utility.yul\":345:347   */\n      0x20\n        /* \"#utility.yul\":334:343   */\n      dup3\n        /* \"#utility.yul\":330:348   */\n      add\n        /* \"#utility.yul\":322:348   */\n      swap1\n      pop\n        /* \"#utility.yul\":358:429   */\n      tag_54\n        /* \"#utility.yul\":426:427   */\n      0x00\n        /* \"#utility.yul\":415:424   */\n      dup4\n        /* \"#utility.yul\":411:428   */\n      add\n        /* \"#utility.yul\":402:408   */\n      dup5\n        /* \"#utility.yul\":358:429   */\n      tag_35\n      jump\t// in\n    tag_54:\n        /* \"#utility.yul\":214:436   */\n      swap3\n      swap2\n      pop\n      pop\n      jump\t// out\n        /* \"#utility.yul\":523:640   */\n    tag_37:\n        /* \"#utility.yul\":632:633   */\n      0x00\n        /* \"#utility.yul\":629:630   */\n      dup1\n        /* \"#utility.yul\":622:634   */\n      revert\n        /* \"#utility.yul\":769:891   */\n    tag_39:\n        /* \"#utility.yul\":842:866   */\n      tag_59\n        /* \"#utility.yul\":860:865   */\n      dup2\n        /* \"#utility.yul\":842:866   */\n      tag_34\n      jump\t// in\n    tag_59:\n        /* \"#utility.yul\":835:840   */\n      dup2\n        /* \"#utility.yul\":832:867   */\n      eq\n        /* \"#utility.yul\":822:885   */\n      tag_60\n      jumpi\n        /* \"#utility.yul\":881:882   */\n      0x00\n        /* \"#utility.yul\":878:879   */\n      dup1\n        /* \"#utility.yul\":871:883   */\n      revert\n        /* \"#utility.yul\":822:885   */\n    tag_60:\n        /* \"#utility.yul\":769:891   */\n      pop\n      jump\t// out\n        /* \"#utility.yul\":897:1036   */\n    tag_40:\n        /* \"#utility.yul\":943:948   */\n      0x00\n        /* \"#utility.yul\":981:987   */\n      dup2\n        /* \"#utility.yul\":968:988   */\n      calldataload\n        /* \"#utility.yul\":959:988   */\n      swap1\n      pop\n        /* \"#utility.yul\":997:1030   */\n      tag_62\n        /* \"#utility.yul\":1024:1029   */\n      dup2\n        /* \"#utility.yul\":997:1030   */\n      tag_39\n      jump\t// in\n    tag_62:\n        /* \"#utility.yul\":897:1036   */\n      swap3\n      swap2\n      pop\n      pop\n      jump\t// out\n        /* \"#utility.yul\":1042:1371   */\n    tag_19:\n        /* \"#utility.yul\":1101:1107   */\n      0x00\n        /* \"#utility.yul\":1150:1152   */\n      0x20\n        /* \"#utility.yul\":1138:1147   */\n      dup3\n        /* \"#utility.yul\":1129:1136   */\n      dup5\n        /* \"#utility.yul\":1125:1148   */\n      sub\n        /* \"#utility.yul\":1121:1153   */\n      slt\n        /* \"#utility.yul\":1118:1237   */\n      iszero\n      tag_64\n      jumpi\n        /* \"#utility.yul\":1156:1235   */\n      tag_65\n      tag_37\n      jump\t// in\n    tag_65:\n        /* \"#utility.yul\":1118:1237   */\n    tag_64:\n        /* \"#utility.yul\":1276:1277   */\n      0x00\n        /* \"#utility.yul\":1301:1354   */\n      tag_66\n        /* \"#utility.yul\":1346:1353   */\n      dup5\n        /* \"#utility.yul\":1337:1343   */\n      dup3\n        /* \"#utility.yul\":1326:1335   */\n      dup6\n        /* \"#utility.yul\":1322:1344   */\n      add\n        /* \"#utility.yul\":1301:1354   */\n      tag_40\n      jump\t// in\n    tag_66:\n        /* \"#utility.yul\":1291:1354   */\n      swap2\n      pop\n        /* \"#utility.yul\":1247:1364   */\n      pop\n        /* \"#utility.yul\":1042:1371   */\n      swap3\n      swap2\n      pop\n      pop\n      jump\t// out\n        /* \"#utility.yul\":1377:1476   */\n    tag_41:\n        /* \"#utility.yul\":1429:1435   */\n      0x00\n        /* \"#utility.yul\":1463:1468   */\n      dup2\n        /* \"#utility.yul\":1457:1469   */\n      mload\n        /* \"#utility.yul\":1447:1469   */\n      swap1\n      pop\n        /* \"#utility.yul\":1377:1476   */\n      swap2\n      swap1\n      pop\n      jump\t// out\n        /* \"#utility.yul\":1482:1651   */\n    tag_42:\n        /* \"#utility.yul\":1566:1577   */\n      0x00\n        /* \"#utility.yul\":1600:1606   */\n      dup3\n        /* \"#utility.yul\":1595:1598   */\n      dup3\n        /* \"#utility.yul\":1588:1607   */\n      mstore\n        /* \"#utility.yul\":1640:1644   */\n      0x20\n        /* \"#utility.yul\":1635:1638   */\n      dup3\n        /* \"#utility.yul\":1631:1645   */\n      add\n        /* \"#utility.yul\":1616:1645   */\n      swap1\n      pop\n        /* \"#utility.yul\":1482:1651   */\n      swap3\n      swap2\n      pop\n      pop\n      jump\t// out\n        /* \"#utility.yul\":1657:1903   */\n    tag_43:\n        /* \"#utility.yul\":1738:1739   */\n      0x00\n        /* \"#utility.yul\":1748:1861   */\n    tag_70:\n        /* \"#utility.yul\":1762:1768   */\n      dup4\n        /* \"#utility.yul\":1759:1760   */\n      dup2\n        /* \"#utility.yul\":1756:1769   */\n      lt\n        /* \"#utility.yul\":1748:1861   */\n      iszero\n      tag_72\n      jumpi\n        /* \"#utility.yul\":1847:1848   */\n      dup1\n        /* \"#utility.yul\":1842:1845   */\n      dup3\n        /* \"#utility.yul\":1838:1849   */\n      add\n        /* \"#utility.yul\":1832:1850   */\n      mload\n        /* \"#utility.yul\":1828:1829   */\n      dup2\n        /* \"#utility.yul\":1823:1826   */\n      dup5\n        /* \"#utility.yul\":1819:1830   */\n      add\n        /* \"#utility.yul\":1812:1851   */\n      mstore\n        /* \"#utility.yul\":1784:1786   */\n      0x20\n        /* \"#utility.yul\":1781:1782   */\n      dup2\n        /* \"#utility.yul\":1777:1787   */\n      add\n        /* \"#utility.yul\":1772:1787   */\n      swap1\n      pop\n        /* \"#utility.yul\":1748:1861   */\n      jump(tag_70)\n    tag_72:\n        /* \"#utility.yul\":1895:1896   */\n      0x00\n        /* \"#utility.yul\":1886:1892   */\n      dup5\n        /* \"#utility.yul\":1881:1884   */\n      dup5\n        /* \"#utility.yul\":1877:1893   */\n      add\n        /* \"#utility.yul\":1870:1897   */\n      mstore\n        /* \"#utility.yul\":1719:1903   */\n      pop\n        /* \"#utility.yul\":1657:1903   */\n      pop\n      pop\n      pop\n      jump\t// out\n        /* \"#utility.yul\":1909:2011   */\n    tag_44:\n        /* \"#utility.yul\":1950:1956   */\n      0x00\n        /* \"#utility.yul\":2001:2003   */\n      0x1f\n        /* \"#utility.yul\":1997:2004   */\n      not\n        /* \"#utility.yul\":1992:1994   */\n      0x1f\n        /* \"#utility.yul\":1985:1990   */\n      dup4\n        /* \"#utility.yul\":1981:1995   */\n      add\n        /* \"#utility.yul\":1977:2005   */\n      and\n        /* \"#utility.yul\":1967:2005   */\n      swap1\n      pop\n        /* \"#utility.yul\":1909:2011   */\n      swap2\n      swap1\n      pop\n      jump\t// out\n        /* \"#utility.yul\":2017:2394   */\n    tag_45:\n        /* \"#utility.yul\":2105:2108   */\n      0x00\n        /* \"#utility.yul\":2133:2172   */\n      tag_75\n        /* \"#utility.yul\":2166:2171   */\n      dup3\n        /* \"#utility.yul\":2133:2172   */\n      tag_41\n      jump\t// in\n    tag_75:\n        /* \"#utility.yul\":2188:2259   */\n      tag_76\n        /* \"#utility.yul\":2252:2258   */\n      dup2\n        /* \"#utility.yul\":2247:2250   */\n      dup6\n        /* \"#utility.yul\":2188:2259   */\n      tag_42\n      jump\t// in\n    tag_76:\n        /* \"#utility.yul\":2181:2259   */\n      swap4\n      pop\n        /* \"#utility.yul\":2268:2333   */\n      tag_77\n        /* \"#utility.yul\":2326:2332   */\n      dup2\n        /* \"#utility.yul\":2321:2324   */\n      dup6\n        /* \"#utility.yul\":2314:2318   */\n      0x20\n        /* \"#utility.yul\":2307:2312   */\n      dup7\n        /* \"#utility.yul\":2303:2319   */\n      add\n        /* \"#utility.yul\":2268:2333   */\n      tag_43\n      jump\t// in\n    tag_77:\n        /* \"#utility.yul\":2358:2387   */\n      tag_78\n        /* \"#utility.yul\":2380:2386   */\n      dup2\n        /* \"#utility.yul\":2358:2387   */\n      tag_44\n      jump\t// in\n    tag_78:\n        /* \"#utility.yul\":2353:2356   */\n      dup5\n        /* \"#utility.yul\":2349:2388   */\n      add\n        /* \"#utility.yul\":2342:2388   */\n      swap2\n      pop\n        /* \"#utility.yul\":2109:2394   */\n      pop\n        /* \"#utility.yul\":2017:2394   */\n      swap3\n      swap2\n      pop\n      pop\n      jump\t// out\n        /* \"#utility.yul\":2400:2713   */\n    tag_22:\n        /* \"#utility.yul\":2513:2517   */\n      0x00\n        /* \"#utility.yul\":2551:2553   */\n      0x20\n        /* \"#utility.yul\":2540:2549   */\n      dup3\n        /* \"#utility.yul\":2536:2554   */\n      add\n        /* \"#utility.yul\":2528:2554   */\n      swap1\n      pop\n        /* \"#utility.yul\":2600:2609   */\n      dup2\n        /* \"#utility.yul\":2594:2598   */\n      dup2\n        /* \"#utility.yul\":2590:2610   */\n      sub\n        /* \"#utility.yul\":2586:2587   */\n      0x00\n        /* \"#utility.yul\":2575:2584   */\n      dup4\n        /* \"#utility.yul\":2571:2588   */\n      add\n        /* \"#utility.yul\":2564:2611   */\n      mstore\n        /* \"#utility.yul\":2628:2706   */\n      tag_80\n        /* \"#utility.yul\":2701:2705   */\n      dup2\n        /* \"#utility.yul\":2692:2698   */\n      dup5\n        /* \"#utility.yul\":2628:2706   */\n      tag_45\n      jump\t// in\n    tag_80:\n        /* \"#utility.yul\":2620:2706   */\n      swap1\n      pop\n        /* \"#utility.yul\":2400:2713   */\n      swap3\n      swap2\n      pop\n      pop\n      jump\t// out\n        /* \"#utility.yul\":2719:2900   */\n    tag_46:\n        /* \"#utility.yul\":2859:2892   */\n      0x53746570206d7573742062652067726561746572207468616e207a65726f2e00\n        /* \"#utility.yul\":2855:2856   */\n      0x00\n        /* \"#utility.yul\":2847:2853   */\n      dup3\n        /* \"#utility.yul\":2843:2857   */\n      add\n        /* \"#utility.yul\":2836:2893   */\n      mstore\n        /* \"#utility.yul\":2719:2900   */\n      pop\n      jump\t// out\n        /* \"#utility.yul\":2906:3272   */\n    tag_47:\n        /* \"#utility.yul\":3048:3051   */\n      0x00\n        /* \"#utility.yul\":3069:3136   */\n      tag_83\n        /* \"#utility.yul\":3133:3135   */\n      0x1f\n        /* \"#utility.yul\":3128:3131   */\n      dup4\n        /* \"#utility.yul\":3069:3136   */\n      tag_42\n      jump\t// in\n    tag_83:\n        /* \"#utility.yul\":3062:3136   */\n      swap2\n      pop\n        /* \"#utility.yul\":3145:3238   */\n      tag_84\n        /* \"#utility.yul\":3234:3237   */\n      dup3\n        /* \"#utility.yul\":3145:3238   */\n      tag_46\n      jump\t// in\n    tag_84:\n        /* \"#utility.yul\":3263:3265   */\n      0x20\n        /* \"#utility.yul\":3258:3261   */\n      dup3\n        /* \"#utility.yul\":3254:3266   */\n      add\n        /* \"#utility.yul\":3247:3266   */\n      swap1\n      pop\n        /* \"#utility.yul\":2906:3272   */\n      swap2\n      swap1\n      pop\n      jump\t// out\n        /* \"#utility.yul\":3278:3697   */\n    tag_26:\n        /* \"#utility.yul\":3444:3448   */\n      0x00\n        /* \"#utility.yul\":3482:3484   */\n      0x20\n        /* \"#utility.yul\":3471:3480   */\n      dup3\n        /* \"#utility.yul\":3467:3485   */\n      add\n        /* \"#utility.yul\":3459:3485   */\n      swap1\n      pop\n        /* \"#utility.yul\":3531:3540   */\n      dup2\n        /* \"#utility.yul\":3525:3529   */\n      dup2\n        /* \"#utility.yul\":3521:3541   */\n      sub\n        /* \"#utility.yul\":3517:3518   */\n      0x00\n        /* \"#utility.yul\":3506:3515   */\n      dup4\n        /* \"#utility.yul\":3502:3519   */\n      add\n        /* \"#utility.yul\":3495:3542   */\n      mstore\n        /* \"#utility.yul\":3559:3690   */\n      tag_86\n        /* \"#utility.yul\":3685:3689   */\n      dup2\n        /* \"#utility.yul\":3559:3690   */\n      tag_47\n      jump\t// in\n    tag_86:\n        /* \"#utility.yul\":3551:3690   */\n      swap1\n      pop\n        /* \"#utility.yul\":3278:3697   */\n      swap2\n      swap1\n      pop\n      jump\t// out\n        /* \"#utility.yul\":3703:3883   */\n    tag_48:\n        /* \"#utility.yul\":3751:3828   */\n      0x4e487b7100000000000000000000000000000000000000000000000000000000\n        /* \"#utility.yul\":3748:3749   */\n      0x00\n        /* \"#utility.yul\":3741:3829   */\n      mstore\n        /* \"#utility.yul\":3848:3852   */\n      0x11\n        /* \"#utility.yul\":3845:3846   */\n      0x04\n        /* \"#utility.yul\":3838:3853   */\n      mstore\n        /* \"#utility.yul\":3872:3876   */\n      0x24\n        /* \"#utility.yul\":3869:3870   */\n      0x00\n        /* \"#utility.yul\":3862:3877   */\n      revert\n        /* \"#utility.yul\":3889:4080   */\n    tag_33:\n        /* \"#utility.yul\":3929:3932   */\n      0x00\n        /* \"#utility.yul\":3948:3968   */\n      tag_89\n        /* \"#utility.yul\":3966:3967   */\n      dup3\n        /* \"#utility.yul\":3948:3968   */\n      tag_34\n      jump\t// in\n    tag_89:\n        /* \"#utility.yul\":3943:3968   */\n      swap2\n      pop\n        /* \"#utility.yul\":3982:4002   */\n      tag_90\n        /* \"#utility.yul\":4000:4001   */\n      dup4\n        /* \"#utility.yul\":3982:4002   */\n      tag_34\n      jump\t// in\n    tag_90:\n        /* \"#utility.yul\":3977:4002   */\n      swap3\n      pop\n        /* \"#utility.yul\":4025:4026   */\n      dup3\n        /* \"#utility.yul\":4022:4023   */\n      dup3\n        /* \"#utility.yul\":4018:4027   */\n      add\n        /* \"#utility.yul\":4011:4027   */\n      swap1\n      pop\n        /* \"#utility.yul\":4046:4049   */\n      dup1\n        /* \"#utility.yul\":4043:4044   */\n      dup3\n        /* \"#utility.yul\":4040:4050   */\n      gt\n        /* \"#utility.yul\":4037:4073   */\n      iszero\n      tag_91\n      jumpi\n        /* \"#utility.yul\":4053:4071   */\n      tag_92\n      tag_48\n      jump\t// in\n    tag_92:\n        /* \"#utility.yul\":4037:4073   */\n    tag_91:\n        /* \"#utility.yul\":3889:4080   */\n      swap3\n      swap2\n      pop\n      pop\n      jump\t// out\n    stop\n    data_1010b0c004f86578a3eb050d1d12fc7b3d75318d9e540f4e87b2bcfd3b3f8588 4d6973736564212054686520747265617375726520776173206e6f74206f6e207468697320706174682e\n\n    auxdata: 0xa264697066735822122015d800c0f8860a38b868790ff76099eeaa3ad49cf6d9d32ddf1be51dd13b6d5064736f6c63430008180033\n}\n",
				"bytecode": {
					"linkReferences": {},
					"object": "608060405234801561000f575f80fd5b5061045e8061001d5f395ff3fe608060405234801561000f575f80fd5b506004361061004a575f3560e01c8063023eb9a01461004e5780630d7015ae1461006c57806339a1491c1461008a578063c8b67885146100a8575b5f80fd5b6100566100d8565b604051610063919061021a565b60405180910390f35b6100746100dd565b604051610081919061021a565b60405180910390f35b6100926100e2565b60405161009f919061021a565b60405180910390f35b6100c260048036038101906100bd9190610261565b6100e7565b6040516100cf9190610316565b60405180910390f35b605481565b606481565b602a81565b60605f821161012b576040517f08c379a000000000000000000000000000000000000000000000000000000000815260040161012290610380565b60405180910390fd5b5f5b606481116101e057602a8114806101445750605481145b15610187576040518060400160405280601581526020017f4f6f70732120596f7520686974206120747261702100000000000000000000008152509150506101fd565b606481036101cd576040518060400160405280602081526020017f537563636573732120596f7520666f756e6420746865207472656173757265218152509150506101fd565b82816101d991906103cb565b905061012d565b6040518060600160405280602a81526020016103ff602a91399150505b919050565b5f819050919050565b61021481610202565b82525050565b5f60208201905061022d5f83018461020b565b92915050565b5f80fd5b61024081610202565b811461024a575f80fd5b50565b5f8135905061025b81610237565b92915050565b5f6020828403121561027657610275610233565b5b5f6102838482850161024d565b91505092915050565b5f81519050919050565b5f82825260208201905092915050565b5f5b838110156102c35780820151818401526020810190506102a8565b5f8484015250505050565b5f601f19601f8301169050919050565b5f6102e88261028c565b6102f28185610296565b93506103028185602086016102a6565b61030b816102ce565b840191505092915050565b5f6020820190508181035f83015261032e81846102de565b905092915050565b7f53746570206d7573742062652067726561746572207468616e207a65726f2e005f82015250565b5f61036a601f83610296565b915061037582610336565b602082019050919050565b5f6020820190508181035f8301526103978161035e565b9050919050565b7f4e487b71000000000000000000000000000000000000000000000000000000005f52601160045260245ffd5b5f6103d582610202565b91506103e083610202565b92508282019050808211156103f8576103f761039e565b5b9291505056fe4d6973736564212054686520747265617375726520776173206e6f74206f6e207468697320706174682ea264697066735822122015d800c0f8860a38b868790ff76099eeaa3ad49cf6d9d32ddf1be51dd13b6d5064736f6c63430008180033",
					"opcodes": "PUSH1 0x80 PUSH1 0x40 MSTORE CALLVALUE DUP1 ISZERO PUSH2 0xF JUMPI PUSH0 DUP1 REVERT JUMPDEST POP PUSH2 0x45E DUP1 PUSH2 0x1D PUSH0 CODECOPY PUSH0 RETURN INVALID PUSH1 0x80 PUSH1 0x40 MSTORE CALLVALUE DUP1 ISZERO PUSH2 0xF JUMPI PUSH0 DUP1 REVERT JUMPDEST POP PUSH1 0x4 CALLDATASIZE LT PUSH2 0x4A JUMPI PUSH0 CALLDATALOAD PUSH1 0xE0 SHR DUP1 PUSH4 0x23EB9A0 EQ PUSH2 0x4E JUMPI DUP1 PUSH4 0xD7015AE EQ PUSH2 0x6C JUMPI DUP1 PUSH4 0x39A1491C EQ PUSH2 0x8A JUMPI DUP1 PUSH4 0xC8B67885 EQ PUSH2 0xA8 JUMPI JUMPDEST PUSH0 DUP1 REVERT JUMPDEST PUSH2 0x56 PUSH2 0xD8 JUMP JUMPDEST PUSH1 0x40 MLOAD PUSH2 0x63 SWAP2 SWAP1 PUSH2 0x21A JUMP JUMPDEST PUSH1 0x40 MLOAD DUP1 SWAP2 SUB SWAP1 RETURN JUMPDEST PUSH2 0x74 PUSH2 0xDD JUMP JUMPDEST PUSH1 0x40 MLOAD PUSH2 0x81 SWAP2 SWAP1 PUSH2 0x21A JUMP JUMPDEST PUSH1 0x40 MLOAD DUP1 SWAP2 SUB SWAP1 RETURN JUMPDEST PUSH2 0x92 PUSH2 0xE2 JUMP JUMPDEST PUSH1 0x40 MLOAD PUSH2 0x9F SWAP2 SWAP1 PUSH2 0x21A JUMP JUMPDEST PUSH1 0x40 MLOAD DUP1 SWAP2 SUB SWAP1 RETURN JUMPDEST PUSH2 0xC2 PUSH1 0x4 DUP1 CALLDATASIZE SUB DUP2 ADD SWAP1 PUSH2 0xBD SWAP2 SWAP1 PUSH2 0x261 JUMP JUMPDEST PUSH2 0xE7 JUMP JUMPDEST PUSH1 0x40 MLOAD PUSH2 0xCF SWAP2 SWAP1 PUSH2 0x316 JUMP JUMPDEST PUSH1 0x40 MLOAD DUP1 SWAP2 SUB SWAP1 RETURN JUMPDEST PUSH1 0x54 DUP2 JUMP JUMPDEST PUSH1 0x64 DUP2 JUMP JUMPDEST PUSH1 0x2A DUP2 JUMP JUMPDEST PUSH1 0x60 PUSH0 DUP3 GT PUSH2 0x12B JUMPI PUSH1 0x40 MLOAD PUSH32 0x8C379A000000000000000000000000000000000000000000000000000000000 DUP2 MSTORE PUSH1 0x4 ADD PUSH2 0x122 SWAP1 PUSH2 0x380 JUMP JUMPDEST PUSH1 0x40 MLOAD DUP1 SWAP2 SUB SWAP1 REVERT JUMPDEST PUSH0 JUMPDEST PUSH1 0x64 DUP2 GT PUSH2 0x1E0 JUMPI PUSH1 0x2A DUP2 EQ DUP1 PUSH2 0x144 JUMPI POP PUSH1 0x54 DUP2 EQ JUMPDEST ISZERO PUSH2 0x187 JUMPI PUSH1 0x40 MLOAD DUP1 PUSH1 0x40 ADD PUSH1 0x40 MSTORE DUP1 PUSH1 0x15 DUP2 MSTORE PUSH1 0x20 ADD PUSH32 0x4F6F70732120596F752068697420612074726170210000000000000000000000 DUP2 MSTORE POP SWAP2 POP POP PUSH2 0x1FD JUMP JUMPDEST PUSH1 0x64 DUP2 SUB PUSH2 0x1CD JUMPI PUSH1 0x40 MLOAD DUP1 PUSH1 0x40 ADD PUSH1 0x40 MSTORE DUP1 PUSH1 0x20 DUP2 MSTORE PUSH1 0x20 ADD PUSH32 0x537563636573732120596F7520666F756E642074686520747265617375726521 DUP2 MSTORE POP SWAP2 POP POP PUSH2 0x1FD JUMP JUMPDEST DUP3 DUP2 PUSH2 0x1D9 SWAP2 SWAP1 PUSH2 0x3CB JUMP JUMPDEST SWAP1 POP PUSH2 0x12D JUMP JUMPDEST PUSH1 0x40 MLOAD DUP1 PUSH1 0x60 ADD PUSH1 0x40 MSTORE DUP1 PUSH1 0x2A DUP2 MSTORE PUSH1 0x20 ADD PUSH2 0x3FF PUSH1 0x2A SWAP2 CODECOPY SWAP2 POP POP JUMPDEST SWAP2 SWAP1 POP JUMP JUMPDEST PUSH0 DUP2 SWAP1 POP SWAP2 SWAP1 POP JUMP JUMPDEST PUSH2 0x214 DUP2 PUSH2 0x202 JUMP JUMPDEST DUP3 MSTORE POP POP JUMP JUMPDEST PUSH0 PUSH1 0x20 DUP3 ADD SWAP1 POP PUSH2 0x22D PUSH0 DUP4 ADD DUP5 PUSH2 0x20B JUMP JUMPDEST SWAP3 SWAP2 POP POP JUMP JUMPDEST PUSH0 DUP1 REVERT JUMPDEST PUSH2 0x240 DUP2 PUSH2 0x202 JUMP JUMPDEST DUP2 EQ PUSH2 0x24A JUMPI PUSH0 DUP1 REVERT JUMPDEST POP JUMP JUMPDEST PUSH0 DUP2 CALLDATALOAD SWAP1 POP PUSH2 0x25B DUP2 PUSH2 0x237 JUMP JUMPDEST SWAP3 SWAP2 POP POP JUMP JUMPDEST PUSH0 PUSH1 0x20 DUP3 DUP5 SUB SLT ISZERO PUSH2 0x276 JUMPI PUSH2 0x275 PUSH2 0x233 JUMP JUMPDEST JUMPDEST PUSH0 PUSH2 0x283 DUP5 DUP3 DUP6 ADD PUSH2 0x24D JUMP JUMPDEST SWAP2 POP POP SWAP3 SWAP2 POP POP JUMP JUMPDEST PUSH0 DUP2 MLOAD SWAP1 POP SWAP2 SWAP1 POP JUMP JUMPDEST PUSH0 DUP3 DUP3 MSTORE PUSH1 0x20 DUP3 ADD SWAP1 POP SWAP3 SWAP2 POP POP JUMP JUMPDEST PUSH0 JUMPDEST DUP4 DUP2 LT ISZERO PUSH2 0x2C3 JUMPI DUP1 DUP3 ADD MLOAD DUP2 DUP5 ADD MSTORE PUSH1 0x20 DUP2 ADD SWAP1 POP PUSH2 0x2A8 JUMP JUMPDEST PUSH0 DUP5 DUP5 ADD MSTORE POP POP POP POP JUMP JUMPDEST PUSH0 PUSH1 0x1F NOT PUSH1 0x1F DUP4 ADD AND SWAP1 POP SWAP2 SWAP1 POP JUMP JUMPDEST PUSH0 PUSH2 0x2E8 DUP3 PUSH2 0x28C JUMP JUMPDEST PUSH2 0x2F2 DUP2 DUP6 PUSH2 0x296 JUMP JUMPDEST SWAP4 POP PUSH2 0x302 DUP2 DUP6 PUSH1 0x20 DUP7 ADD PUSH2 0x2A6 JUMP JUMPDEST PUSH2 0x30B DUP2 PUSH2 0x2CE JUMP JUMPDEST DUP5 ADD SWAP2 POP POP SWAP3 SWAP2 POP POP JUMP JUMPDEST PUSH0 PUSH1 0x20 DUP3 ADD SWAP1 POP DUP2 DUP2 SUB PUSH0 DUP4 ADD MSTORE PUSH2 0x32E DUP2 DUP5 PUSH2 0x2DE JUMP JUMPDEST SWAP1 POP SWAP3 SWAP2 POP POP JUMP JUMPDEST PUSH32 0x53746570206D7573742062652067726561746572207468616E207A65726F2E00 PUSH0 DUP3 ADD MSTORE POP JUMP JUMPDEST PUSH0 PUSH2 0x36A PUSH1 0x1F DUP4 PUSH2 0x296 JUMP JUMPDEST SWAP2 POP PUSH2 0x375 DUP3 PUSH2 0x336 JUMP JUMPDEST PUSH1 0x20 DUP3 ADD SWAP1 POP SWAP2 SWAP1 POP JUMP JUMPDEST PUSH0 PUSH1 0x20 DUP3 ADD SWAP1 POP DUP2 DUP2 SUB PUSH0 DUP4 ADD MSTORE PUSH2 0x397 DUP2 PUSH2 0x35E JUMP JUMPDEST SWAP1 POP SWAP2 SWAP1 POP JUMP JUMPDEST PUSH32 0x4E487B7100000000000000000000000000000000000000000000000000000000 PUSH0 MSTORE PUSH1 0x11 PUSH1 0x4 MSTORE PUSH1 0x24 PUSH0 REVERT JUMPDEST PUSH0 PUSH2 0x3D5 DUP3 PUSH2 0x202 JUMP JUMPDEST SWAP2 POP PUSH2 0x3E0 DUP4 PUSH2 0x202 JUMP JUMPDEST SWAP3 POP DUP3 DUP3 ADD SWAP1 POP DUP1 DUP3 GT ISZERO PUSH2 0x3F8 JUMPI PUSH2 0x3F7 PUSH2 0x39E JUMP JUMPDEST JUMPDEST SWAP3 SWAP2 POP POP JUMP INVALID 0x4D PUSH10 0x73736564212054686520 PUSH21 0x7265617375726520776173206E6F74206F6E207468 PUSH10 0x7320706174682EA26469 PUSH17 0x66735822122015D800C0F8860A38B86879 0xF 0xF7 PUSH1 0x99 0xEE 0xAA GASPRICE 0xD4 SWAP13 0xF6 0xD9 0xD3 0x2D 0xDF SHL 0xE5 SAR 0xD1 EXTCODESIZE PUSH14 0x5064736F6C634300081800330000 "
				},
				"gasEstimates": {
					"creation": {
						"codeDepositCost": "223600",
						"executionCost": "261",
						"totalCost": "223861"
					},
					"external": {
						"TRAP_NUMBER_1()": "347",
						"TRAP_NUMBER_2()": "303",
						"TREASURE_NUMBER()": "325",
						"findTreasure(uint256)": "infinite"
					}
				},
				"methodIdentifiers": {
					"TRAP_NUMBER_1()": "39a1491c",
					"TRAP_NUMBER_2()": "023eb9a0",
					"TREASURE_NUMBER()": "0d7015ae",
					"findTreasure(uint256)": "c8b67885"
				}
			},
			"storageLayout": {
				"storage": [],
				"types": null
			},
			"userdoc": {
				"kind": "user",
				"methods": {},
				"version": 1
			}
		}
	}
}