{
	"chapter05/sample5-08.sol": {
		"modifierDemo": {
			"abi": [
				{
					"inputs": [],
					"name": "Abort",
					"outputs": [],
					"stateMutability": "view",
					"type": "function"
				},
				{
					"inputs": [],
					"name": "OnSell",
					"outputs": [],
					"stateMutability": "nonpayable",
					"type": "function"
				}
			],
			"devdoc": {
				"kind": "dev",
				"methods": {},
				"version": 1
			},
			"evm": {
				"assembly": "    /* \"chapter05/sample5-08.sol\":61:641  contract modifierDemo{... */\n  mstore(0x40, 0x80)\n  callvalue\n  dup1\n  iszero\n  tag_1\n  jumpi\n  0x00\n  dup1\n  revert\ntag_1:\n  pop\n  dataSize(sub_0)\n  dup1\n  dataOffset(sub_0)\n  0x00\n  codecopy\n  0x00\n  return\nstop\n\nsub_0: assembly {\n        /* \"chapter05/sample5-08.sol\":61:641  contract modifierDemo{... */\n      mstore(0x40, 0x80)\n      callvalue\n      dup1\n      iszero\n      tag_1\n      jumpi\n      0x00\n      dup1\n      revert\n    tag_1:\n      pop\n      jumpi(tag_2, lt(calldatasize, 0x04))\n      shr(0xe0, calldataload(0x00))\n      dup1\n      0x59e21217\n      eq\n      tag_3\n      jumpi\n      dup1\n      0xf033b199\n      eq\n      tag_4\n      jumpi\n    tag_2:\n      0x00\n      dup1\n      revert\n        /* \"chapter05/sample5-08.sol\":236:298  function OnSell() public{... */\n    tag_3:\n      tag_5\n      tag_6\n      jump\t// in\n    tag_5:\n      stop\n        /* \"chapter05/sample5-08.sol\":563:637  function Abort() view public OnlySeller {... */\n    tag_4:\n      tag_7\n      tag_8\n      jump\t// in\n    tag_7:\n      stop\n        /* \"chapter05/sample5-08.sol\":236:298  function OnSell() public{... */\n    tag_6:\n        /* \"chapter05/sample5-08.sol\":280:290  msg.sender */\n      caller\n        /* \"chapter05/sample5-08.sol\":271:277  seller */\n      0x00\n      dup1\n        /* \"chapter05/sample5-08.sol\":271:290  seller = msg.sender */\n      0x0100\n      exp\n      dup2\n      sload\n      dup2\n      0xffffffffffffffffffffffffffffffffffffffff\n      mul\n      not\n      and\n      swap1\n      dup4\n      0xffffffffffffffffffffffffffffffffffffffff\n      and\n      mul\n      or\n      swap1\n      sstore\n      pop\n        /* \"chapter05/sample5-08.sol\":236:298  function OnSell() public{... */\n      jump\t// out\n        /* \"chapter05/sample5-08.sol\":563:637  function Abort() view public OnlySeller {... */\n    tag_8:\n        /* \"chapter05/sample5-08.sol\":418:424  seller */\n      0x00\n      dup1\n      sload\n      swap1\n      0x0100\n      exp\n      swap1\n      div\n      0xffffffffffffffffffffffffffffffffffffffff\n      and\n        /* \"chapter05/sample5-08.sol\":406:424  msg.sender==seller */\n      0xffffffffffffffffffffffffffffffffffffffff\n      and\n        /* \"chapter05/sample5-08.sol\":406:416  msg.sender */\n      caller\n        /* \"chapter05/sample5-08.sol\":406:424  msg.sender==seller */\n      0xffffffffffffffffffffffffffffffffffffffff\n      and\n      eq\n        /* \"chapter05/sample5-08.sol\":397:451  require (msg.sender==seller, unicode\"必须是卖家\") */\n      tag_11\n      jumpi\n      mload(0x40)\n      0x08c379a000000000000000000000000000000000000000000000000000000000\n      dup2\n      mstore\n      0x04\n      add\n      tag_12\n      swap1\n      tag_13\n      jump\t// in\n    tag_12:\n      mload(0x40)\n      dup1\n      swap2\n      sub\n      swap1\n      revert\n    tag_11:\n        /* \"chapter05/sample5-08.sol\":563:637  function Abort() view public OnlySeller {... */\n      jump\t// out\n        /* \"#utility.yul\":7:176   */\n    tag_15:\n        /* \"#utility.yul\":91:102   */\n      0x00\n        /* \"#utility.yul\":125:131   */\n      dup3\n        /* \"#utility.yul\":120:123   */\n      dup3\n        /* \"#utility.yul\":113:132   */\n      mstore\n        /* \"#utility.yul\":165:169   */\n      0x20\n        /* \"#utility.yul\":160:163   */\n      dup3\n        /* \"#utility.yul\":156:170   */\n      add\n        /* \"#utility.yul\":141:170   */\n      swap1\n      pop\n        /* \"#utility.yul\":7:176   */\n      swap3\n      swap2\n      pop\n      pop\n      jump\t// out\n        /* \"#utility.yul\":182:396   */\n    tag_16:\n        /* \"#utility.yul\":322:388   */\n      0xe5bf85e9a1bbe698afe58d96e5aeb60000000000000000000000000000000000\n        /* \"#utility.yul\":318:319   */\n      0x00\n        /* \"#utility.yul\":310:316   */\n      dup3\n        /* \"#utility.yul\":306:320   */\n      add\n        /* \"#utility.yul\":299:389   */\n      mstore\n        /* \"#utility.yul\":182:396   */\n      pop\n      jump\t// out\n        /* \"#utility.yul\":402:768   */\n    tag_17:\n        /* \"#utility.yul\":544:547   */\n      0x00\n        /* \"#utility.yul\":565:632   */\n      tag_22\n        /* \"#utility.yul\":629:631   */\n      0x0f\n        /* \"#utility.yul\":624:627   */\n      dup4\n        /* \"#utility.yul\":565:632   */\n      tag_15\n      jump\t// in\n    tag_22:\n        /* \"#utility.yul\":558:632   */\n      swap2\n      pop\n        /* \"#utility.yul\":641:734   */\n      tag_23\n        /* \"#utility.yul\":730:733   */\n      dup3\n        /* \"#utility.yul\":641:734   */\n      tag_16\n      jump\t// in\n    tag_23:\n        /* \"#utility.yul\":759:761   */\n      0x20\n        /* \"#utility.yul\":754:757   */\n      dup3\n        /* \"#utility.yul\":750:762   */\n      add\n        /* \"#utility.yul\":743:762   */\n      swap1\n      pop\n        /* \"#utility.yul\":402:768   */\n      swap2\n      swap1\n      pop\n      jump\t// out\n        /* \"#utility.yul\":774:1193   */\n    tag_13:\n        /* \"#utility.yul\":940:944   */\n      0x00\n        /* \"#utility.yul\":978:980   */\n      0x20\n        /* \"#utility.yul\":967:976   */\n      dup3\n        /* \"#utility.yul\":963:981   */\n      add\n        /* \"#utility.yul\":955:981   */\n      swap1\n      pop\n        /* \"#utility.yul\":1027:1036   */\n      dup2\n        /* \"#utility.yul\":1021:1025   */\n      dup2\n        /* \"#utility.yul\":1017:1037   */\n      sub\n        /* \"#utility.yul\":1013:1014   */\n      0x00\n        /* \"#utility.yul\":1002:1011   */\n      dup4\n        /* \"#utility.yul\":998:1015   */\n      add\n        /* \"#utility.yul\":991:1038   */\n      mstore\n        /* \"#utility.yul\":1055:1186   */\n      tag_25\n        /* \"#utility.yul\":1181:1185   */\n      dup2\n        /* \"#utility.yul\":1055:1186   */\n      tag_17\n      jump\t// in\n    tag_25:\n        /* \"#utility.yul\":1047:1186   */\n      swap1\n      pop\n        /* \"#utility.yul\":774:1193   */\n      swap2\n      swap1\n      pop\n      jump\t// out\n\n    auxdata: 0xa2646970667358221220a3f10ae1567e6dbd0e22540fa6f33f9d5e7fe747d90d245914dee95c45e0e0a364736f6c63430008180033\n}\n",
				"bytecode": {
					"linkReferences": {},
					"object": "608060405234801561000f575f80fd5b506101ca8061001d5f395ff3fe608060405234801561000f575f80fd5b5060043610610034575f3560e01c806359e2121714610038578063f033b19914610042575b5f80fd5b61004061004c565b005b61004a61008d565b005b335f806101000a81548173ffffffffffffffffffffffffffffffffffffffff021916908373ffffffffffffffffffffffffffffffffffffffff160217905550565b5f8054906101000a900473ffffffffffffffffffffffffffffffffffffffff1673ffffffffffffffffffffffffffffffffffffffff163373ffffffffffffffffffffffffffffffffffffffff161461011a576040517f08c379a000000000000000000000000000000000000000000000000000000000815260040161011190610176565b60405180910390fd5b565b5f82825260208201905092915050565b7fe5bf85e9a1bbe698afe58d96e5aeb600000000000000000000000000000000005f82015250565b5f610160600f8361011c565b915061016b8261012c565b602082019050919050565b5f6020820190508181035f83015261018d81610154565b905091905056fea2646970667358221220a3f10ae1567e6dbd0e22540fa6f33f9d5e7fe747d90d245914dee95c45e0e0a364736f6c63430008180033",
					"opcodes": "PUSH1 0x80 PUSH1 0x40 MSTORE CALLVALUE DUP1 ISZERO PUSH2 0xF JUMPI PUSH0 DUP1 REVERT JUMPDEST POP PUSH2 0x1CA DUP1 PUSH2 0x1D PUSH0 CODECOPY PUSH0 RETURN INVALID PUSH1 0x80 PUSH1 0x40 MSTORE CALLVALUE DUP1 ISZERO PUSH2 0xF JUMPI PUSH0 DUP1 REVERT JUMPDEST POP PUSH1 0x4 CALLDATASIZE LT PUSH2 0x34 JUMPI PUSH0 CALLDATALOAD PUSH1 0xE0 SHR DUP1 PUSH4 0x59E21217 EQ PUSH2 0x38 JUMPI DUP1 PUSH4 0xF033B199 EQ PUSH2 0x42 JUMPI JUMPDEST PUSH0 DUP1 REVERT JUMPDEST PUSH2 0x40 PUSH2 0x4C JUMP JUMPDEST STOP JUMPDEST PUSH2 0x4A PUSH2 0x8D JUMP JUMPDEST STOP JUMPDEST CALLER PUSH0 DUP1 PUSH2 0x100 EXP DUP2 SLOAD DUP2 PUSH20 0xFFFFFFFFFFFFFFFFFFFFFFFFFFFFFFFFFFFFFFFF MUL NOT AND SWAP1 DUP4 PUSH20 0xFFFFFFFFFFFFFFFFFFFFFFFFFFFFFFFFFFFFFFFF AND MUL OR SWAP1 SSTORE POP JUMP JUMPDEST PUSH0 DUP1 SLOAD SWAP1 PUSH2 0x100 EXP SWAP1 DIV PUSH20 0xFFFFFFFFFFFFFFFFFFFFFFFFFFFFFFFFFFFFFFFF AND PUSH20 0xFFFFFFFFFFFFFFFFFFFFFFFFFFFFFFFFFFFFFFFF AND CALLER PUSH20 0xFFFFFFFFFFFFFFFFFFFFFFFFFFFFFFFFFFFFFFFF AND EQ PUSH2 0x11A JUMPI PUSH1 0x40 MLOAD PUSH32 0x8C379A000000000000000000000000000000000000000000000000000000000 DUP2 MSTORE PUSH1 0x4 ADD PUSH2 0x111 SWAP1 PUSH2 0x176 JUMP JUMPDEST PUSH1 0x40 MLOAD DUP1 SWAP2 SUB SWAP1 REVERT JUMPDEST JUMP JUMPDEST PUSH0 DUP3 DUP3 MSTORE PUSH1 0x20 DUP3 ADD SWAP1 POP SWAP3 SWAP2 POP POP JUMP JUMPDEST PUSH32 0xE5BF85E9A1BBE698AFE58D96E5AEB60000000000000000000000000000000000 PUSH0 DUP3 ADD MSTORE POP JUMP JUMPDEST PUSH0 PUSH2 0x160 PUSH1 0xF DUP4 PUSH2 0x11C JUMP JUMPDEST SWAP2 POP PUSH2 0x16B DUP3 PUSH2 0x12C JUMP JUMPDEST PUSH1 0x20 DUP3 ADD SWAP1 POP SWAP2 SWAP1 POP JUMP JUMPDEST PUSH0 PUSH1 0x20 DUP3 ADD SWAP1 POP DUP2 DUP2 SUB PUSH0 DUP4 ADD MSTORE PUSH2 0x18D DUP2 PUSH2 0x154 JUMP JUMPDEST SWAP1 POP SWAP2 SWAP1 POP JUMP INVALID LOG2 PUSH5 0x6970667358 0x22 SLT KECCAK256 LOG3 CALL EXP 0xE1 JUMP PUSH31 0x6DBD0E22540FA6F33F9D5E7FE747D90D245914DEE95C45E0E0A364736F6C63 NUMBER STOP ADDMOD XOR STOP CALLER "
				},
				"gasEstimates": {
					"creation": {
						"codeDepositCost": "91600",
						"executionCost": "139",
						"totalCost": "91739"
					},
					"external": {
						"Abort()": "2593",
						"OnSell()": "24386"
					}
				},
				"methodIdentifiers": {
					"Abort()": "f033b199",
					"OnSell()": "59e21217"
				}
			},
			"storageLayout": {
				"storage": [
					{
						"astId": 3,
						"contract": "chapter05/sample5-08.sol:modifierDemo",
						"label": "seller",
						"offset": 0,
						"slot": "0",
						"type": "t_address"
					}
				],
				"types": {
					"t_address": {
						"encoding": "inplace",
						"label": "address",
						"numberOfBytes": "20"
					}
				}
			},
			"userdoc": {
				"kind": "user",
				"methods": {},
				"version": 1
			}
		}
	}
}