{
	"chapter05/sample5-17.sol": {
		"VendingMachine": {
			"abi": [
				{
					"inputs": [
						{
							"internalType": "uint256",
							"name": "amount",
							"type": "uint256"
						}
					],
					"name": "buy",
					"outputs": [],
					"stateMutability": "payable",
					"type": "function"
				}
			],
			"devdoc": {
				"kind": "dev",
				"methods": {},
				"version": 1
			},
			"evm": {
				"assembly": "    /* \"chapter05/sample5-17.sol\":63:276  contract VendingMachine {... */\n  mstore(0x40, 0x80)\n  callvalue\n  dup1\n  iszero\n  tag_1\n  jumpi\n  0x00\n  dup1\n  revert\ntag_1:\n  pop\n  dataSize(sub_0)\n  dup1\n  dataOffset(sub_0)\n  0x00\n  codecopy\n  0x00\n  return\nstop\n\nsub_0: assembly {\n        /* \"chapter05/sample5-17.sol\":63:276  contract VendingMachine {... */\n      mstore(0x40, 0x80)\n      jumpi(tag_1, lt(calldatasize, 0x04))\n      shr(0xe0, calldataload(0x00))\n      dup1\n      0xd96a094a\n      eq\n      tag_2\n      jumpi\n    tag_1:\n      0x00\n      dup1\n      revert\n        /* \"chapter05/sample5-17.sol\":93:273  function buy(uint amount) public payable {... */\n    tag_2:\n      tag_3\n      0x04\n      dup1\n      calldatasize\n      sub\n      dup2\n      add\n      swap1\n      tag_4\n      swap2\n      swap1\n      tag_5\n      jump\t// in\n    tag_4:\n      tag_6\n      jump\t// in\n    tag_3:\n      stop\n    tag_6:\n        /* \"chapter05/sample5-17.sol\":169:176  2 ether */\n      0x1bc16d674ec80000\n        /* \"chapter05/sample5-17.sol\":157:166  msg.value */\n      callvalue\n        /* \"chapter05/sample5-17.sol\":157:176  msg.value / 2 ether */\n      tag_8\n      swap2\n      swap1\n      tag_9\n      jump\t// in\n    tag_8:\n        /* \"chapter05/sample5-17.sol\":148:154  amount */\n      dup2\n        /* \"chapter05/sample5-17.sol\":148:176  amount > msg.value / 2 ether */\n      gt\n        /* \"chapter05/sample5-17.sol\":144:239  if (amount > msg.value / 2 ether)... */\n      iszero\n      tag_10\n      jumpi\n        /* \"chapter05/sample5-17.sol\":189:239  revert(unicode\"没有支付足够的以太币。\") */\n      mload(0x40)\n      0x08c379a000000000000000000000000000000000000000000000000000000000\n      dup2\n      mstore\n      0x04\n      add\n      tag_11\n      swap1\n      tag_12\n      jump\t// in\n    tag_11:\n      mload(0x40)\n      dup1\n      swap2\n      sub\n      swap1\n      revert\n        /* \"chapter05/sample5-17.sol\":144:239  if (amount > msg.value / 2 ether)... */\n    tag_10:\n        /* \"chapter05/sample5-17.sol\":93:273  function buy(uint amount) public payable {... */\n      pop\n      jump\t// out\n        /* \"#utility.yul\":88:205   */\n    tag_14:\n        /* \"#utility.yul\":197:198   */\n      0x00\n        /* \"#utility.yul\":194:195   */\n      dup1\n        /* \"#utility.yul\":187:199   */\n      revert\n        /* \"#utility.yul\":334:411   */\n    tag_16:\n        /* \"#utility.yul\":371:378   */\n      0x00\n        /* \"#utility.yul\":400:405   */\n      dup2\n        /* \"#utility.yul\":389:405   */\n      swap1\n      pop\n        /* \"#utility.yul\":334:411   */\n      swap2\n      swap1\n      pop\n      jump\t// out\n        /* \"#utility.yul\":417:539   */\n    tag_17:\n        /* \"#utility.yul\":490:514   */\n      tag_30\n        /* \"#utility.yul\":508:513   */\n      dup2\n        /* \"#utility.yul\":490:514   */\n      tag_16\n      jump\t// in\n    tag_30:\n        /* \"#utility.yul\":483:488   */\n      dup2\n        /* \"#utility.yul\":480:515   */\n      eq\n        /* \"#utility.yul\":470:533   */\n      tag_31\n      jumpi\n        /* \"#utility.yul\":529:530   */\n      0x00\n        /* \"#utility.yul\":526:527   */\n      dup1\n        /* \"#utility.yul\":519:531   */\n      revert\n        /* \"#utility.yul\":470:533   */\n    tag_31:\n        /* \"#utility.yul\":417:539   */\n      pop\n      jump\t// out\n        /* \"#utility.yul\":545:684   */\n    tag_18:\n        /* \"#utility.yul\":591:596   */\n      0x00\n        /* \"#utility.yul\":629:635   */\n      dup2\n        /* \"#utility.yul\":616:636   */\n      calldataload\n        /* \"#utility.yul\":607:636   */\n      swap1\n      pop\n        /* \"#utility.yul\":645:678   */\n      tag_33\n        /* \"#utility.yul\":672:677   */\n      dup2\n        /* \"#utility.yul\":645:678   */\n      tag_17\n      jump\t// in\n    tag_33:\n        /* \"#utility.yul\":545:684   */\n      swap3\n      swap2\n      pop\n      pop\n      jump\t// out\n        /* \"#utility.yul\":690:1019   */\n    tag_5:\n        /* \"#utility.yul\":749:755   */\n      0x00\n        /* \"#utility.yul\":798:800   */\n      0x20\n        /* \"#utility.yul\":786:795   */\n      dup3\n        /* \"#utility.yul\":777:784   */\n      dup5\n        /* \"#utility.yul\":773:796   */\n      sub\n        /* \"#utility.yul\":769:801   */\n      slt\n        /* \"#utility.yul\":766:885   */\n      iszero\n      tag_35\n      jumpi\n        /* \"#utility.yul\":804:883   */\n      tag_36\n      tag_14\n      jump\t// in\n    tag_36:\n        /* \"#utility.yul\":766:885   */\n    tag_35:\n        /* \"#utility.yul\":924:925   */\n      0x00\n        /* \"#utility.yul\":949:1002   */\n      tag_37\n        /* \"#utility.yul\":994:1001   */\n      dup5\n        /* \"#utility.yul\":985:991   */\n      dup3\n        /* \"#utility.yul\":974:983   */\n      dup6\n        /* \"#utility.yul\":970:992   */\n      add\n        /* \"#utility.yul\":949:1002   */\n      tag_18\n      jump\t// in\n    tag_37:\n        /* \"#utility.yul\":939:1002   */\n      swap2\n      pop\n        /* \"#utility.yul\":895:1012   */\n      pop\n        /* \"#utility.yul\":690:1019   */\n      swap3\n      swap2\n      pop\n      pop\n      jump\t// out\n        /* \"#utility.yul\":1025:1205   */\n    tag_19:\n        /* \"#utility.yul\":1073:1150   */\n      0x4e487b7100000000000000000000000000000000000000000000000000000000\n        /* \"#utility.yul\":1070:1071   */\n      0x00\n        /* \"#utility.yul\":1063:1151   */\n      mstore\n        /* \"#utility.yul\":1170:1174   */\n      0x12\n        /* \"#utility.yul\":1167:1168   */\n      0x04\n        /* \"#utility.yul\":1160:1175   */\n      mstore\n        /* \"#utility.yul\":1194:1198   */\n      0x24\n        /* \"#utility.yul\":1191:1192   */\n      0x00\n        /* \"#utility.yul\":1184:1199   */\n      revert\n        /* \"#utility.yul\":1397:1582   */\n    tag_9:\n        /* \"#utility.yul\":1437:1438   */\n      0x00\n        /* \"#utility.yul\":1454:1474   */\n      tag_41\n        /* \"#utility.yul\":1472:1473   */\n      dup3\n        /* \"#utility.yul\":1454:1474   */\n      tag_16\n      jump\t// in\n    tag_41:\n        /* \"#utility.yul\":1449:1474   */\n      swap2\n      pop\n        /* \"#utility.yul\":1488:1508   */\n      tag_42\n        /* \"#utility.yul\":1506:1507   */\n      dup4\n        /* \"#utility.yul\":1488:1508   */\n      tag_16\n      jump\t// in\n    tag_42:\n        /* \"#utility.yul\":1483:1508   */\n      swap3\n      pop\n        /* \"#utility.yul\":1527:1528   */\n      dup3\n        /* \"#utility.yul\":1517:1552   */\n      tag_43\n      jumpi\n        /* \"#utility.yul\":1532:1550   */\n      tag_44\n      tag_19\n      jump\t// in\n    tag_44:\n        /* \"#utility.yul\":1517:1552   */\n    tag_43:\n        /* \"#utility.yul\":1574:1575   */\n      dup3\n        /* \"#utility.yul\":1571:1572   */\n      dup3\n        /* \"#utility.yul\":1567:1576   */\n      div\n        /* \"#utility.yul\":1562:1576   */\n      swap1\n      pop\n        /* \"#utility.yul\":1397:1582   */\n      swap3\n      swap2\n      pop\n      pop\n      jump\t// out\n        /* \"#utility.yul\":1588:1757   */\n    tag_21:\n        /* \"#utility.yul\":1672:1683   */\n      0x00\n        /* \"#utility.yul\":1706:1712   */\n      dup3\n        /* \"#utility.yul\":1701:1704   */\n      dup3\n        /* \"#utility.yul\":1694:1713   */\n      mstore\n        /* \"#utility.yul\":1746:1750   */\n      0x20\n        /* \"#utility.yul\":1741:1744   */\n      dup3\n        /* \"#utility.yul\":1737:1751   */\n      add\n        /* \"#utility.yul\":1722:1751   */\n      swap1\n      pop\n        /* \"#utility.yul\":1588:1757   */\n      swap3\n      swap2\n      pop\n      pop\n      jump\t// out\n        /* \"#utility.yul\":1763:2078   */\n    tag_22:\n        /* \"#utility.yul\":1903:1969   */\n      0xe6b2a1e69c89e694afe4bb98e8b6b3e5a49fe79a84e4bba5e5a4aae5b881e380\n        /* \"#utility.yul\":1899:1900   */\n      0x00\n        /* \"#utility.yul\":1891:1897   */\n      dup3\n        /* \"#utility.yul\":1887:1901   */\n      add\n        /* \"#utility.yul\":1880:1970   */\n      mstore\n        /* \"#utility.yul\":2004:2070   */\n      0x8200000000000000000000000000000000000000000000000000000000000000\n        /* \"#utility.yul\":1999:2001   */\n      0x20\n        /* \"#utility.yul\":1991:1997   */\n      dup3\n        /* \"#utility.yul\":1987:2002   */\n      add\n        /* \"#utility.yul\":1980:2071   */\n      mstore\n        /* \"#utility.yul\":1763:2078   */\n      pop\n      jump\t// out\n        /* \"#utility.yul\":2084:2450   */\n    tag_23:\n        /* \"#utility.yul\":2226:2229   */\n      0x00\n        /* \"#utility.yul\":2247:2314   */\n      tag_48\n        /* \"#utility.yul\":2311:2313   */\n      0x21\n        /* \"#utility.yul\":2306:2309   */\n      dup4\n        /* \"#utility.yul\":2247:2314   */\n      tag_21\n      jump\t// in\n    tag_48:\n        /* \"#utility.yul\":2240:2314   */\n      swap2\n      pop\n        /* \"#utility.yul\":2323:2416   */\n      tag_49\n        /* \"#utility.yul\":2412:2415   */\n      dup3\n        /* \"#utility.yul\":2323:2416   */\n      tag_22\n      jump\t// in\n    tag_49:\n        /* \"#utility.yul\":2441:2443   */\n      0x40\n        /* \"#utility.yul\":2436:2439   */\n      dup3\n        /* \"#utility.yul\":2432:2444   */\n      add\n        /* \"#utility.yul\":2425:2444   */\n      swap1\n      pop\n        /* \"#utility.yul\":2084:2450   */\n      swap2\n      swap1\n      pop\n      jump\t// out\n        /* \"#utility.yul\":2456:2875   */\n    tag_12:\n        /* \"#utility.yul\":2622:2626   */\n      0x00\n        /* \"#utility.yul\":2660:2662   */\n      0x20\n        /* \"#utility.yul\":2649:2658   */\n      dup3\n        /* \"#utility.yul\":2645:2663   */\n      add\n        /* \"#utility.yul\":2637:2663   */\n      swap1\n      pop\n        /* \"#utility.yul\":2709:2718   */\n      dup2\n        /* \"#utility.yul\":2703:2707   */\n      dup2\n        /* \"#utility.yul\":2699:2719   */\n      sub\n        /* \"#utility.yul\":2695:2696   */\n      0x00\n        /* \"#utility.yul\":2684:2693   */\n      dup4\n        /* \"#utility.yul\":2680:2697   */\n      add\n        /* \"#utility.yul\":2673:2720   */\n      mstore\n        /* \"#utility.yul\":2737:2868   */\n      tag_51\n        /* \"#utility.yul\":2863:2867   */\n      dup2\n        /* \"#utility.yul\":2737:2868   */\n      tag_23\n      jump\t// in\n    tag_51:\n        /* \"#utility.yul\":2729:2868   */\n      swap1\n      pop\n        /* \"#utility.yul\":2456:2875   */\n      swap2\n      swap1\n      pop\n      jump\t// out\n\n    auxdata: 0xa26469706673582212203d45f0736a429ae29782ea3fe1587716429ed8697437d584cc34c72d0fef0d6464736f6c63430008180033\n}\n",
				"bytecode": {
					"linkReferences": {},
					"object": "608060405234801561000f575f80fd5b506102298061001d5f395ff3fe60806040526004361061001d575f3560e01c8063d96a094a14610021575b5f80fd5b61003b600480360381019061003691906100cd565b61003d565b005b671bc16d674ec80000346100519190610125565b811115610093576040517f08c379a000000000000000000000000000000000000000000000000000000000815260040161008a906101d5565b60405180910390fd5b50565b5f80fd5b5f819050919050565b6100ac8161009a565b81146100b6575f80fd5b50565b5f813590506100c7816100a3565b92915050565b5f602082840312156100e2576100e1610096565b5b5f6100ef848285016100b9565b91505092915050565b7f4e487b71000000000000000000000000000000000000000000000000000000005f52601260045260245ffd5b5f61012f8261009a565b915061013a8361009a565b92508261014a576101496100f8565b5b828204905092915050565b5f82825260208201905092915050565b7fe6b2a1e69c89e694afe4bb98e8b6b3e5a49fe79a84e4bba5e5a4aae5b881e3805f8201527f8200000000000000000000000000000000000000000000000000000000000000602082015250565b5f6101bf602183610155565b91506101ca82610165565b604082019050919050565b5f6020820190508181035f8301526101ec816101b3565b905091905056fea26469706673582212203d45f0736a429ae29782ea3fe1587716429ed8697437d584cc34c72d0fef0d6464736f6c63430008180033",
					"opcodes": "PUSH1 0x80 PUSH1 0x40 MSTORE CALLVALUE DUP1 ISZERO PUSH2 0xF JUMPI PUSH0 DUP1 REVERT JUMPDEST POP PUSH2 0x229 DUP1 PUSH2 0x1D PUSH0 CODECOPY PUSH0 RETURN INVALID PUSH1 0x80 PUSH1 0x40 MSTORE PUSH1 0x4 CALLDATASIZE LT PUSH2 0x1D JUMPI PUSH0 CALLDATALOAD PUSH1 0xE0 SHR DUP1 PUSH4 0xD96A094A EQ PUSH2 0x21 JUMPI JUMPDEST PUSH0 DUP1 REVERT JUMPDEST PUSH2 0x3B PUSH1 0x4 DUP1 CALLDATASIZE SUB DUP2 ADD SWAP1 PUSH2 0x36 SWAP2 SWAP1 PUSH2 0xCD JUMP JUMPDEST PUSH2 0x3D JUMP JUMPDEST STOP JUMPDEST PUSH8 0x1BC16D674EC80000 CALLVALUE PUSH2 0x51 SWAP2 SWAP1 PUSH2 0x125 JUMP JUMPDEST DUP2 GT ISZERO PUSH2 0x93 JUMPI PUSH1 0x40 MLOAD PUSH32 0x8C379A000000000000000000000000000000000000000000000000000000000 DUP2 MSTORE PUSH1 0x4 ADD PUSH2 0x8A SWAP1 PUSH2 0x1D5 JUMP JUMPDEST PUSH1 0x40 MLOAD DUP1 SWAP2 SUB SWAP1 REVERT JUMPDEST POP JUMP JUMPDEST PUSH0 DUP1 REVERT JUMPDEST PUSH0 DUP2 SWAP1 POP SWAP2 SWAP1 POP JUMP JUMPDEST PUSH2 0xAC DUP2 PUSH2 0x9A JUMP JUMPDEST DUP2 EQ PUSH2 0xB6 JUMPI PUSH0 DUP1 REVERT JUMPDEST POP JUMP JUMPDEST PUSH0 DUP2 CALLDATALOAD SWAP1 POP PUSH2 0xC7 DUP2 PUSH2 0xA3 JUMP JUMPDEST SWAP3 SWAP2 POP POP JUMP JUMPDEST PUSH0 PUSH1 0x20 DUP3 DUP5 SUB SLT ISZERO PUSH2 0xE2 JUMPI PUSH2 0xE1 PUSH2 0x96 JUMP JUMPDEST JUMPDEST PUSH0 PUSH2 0xEF DUP5 DUP3 DUP6 ADD PUSH2 0xB9 JUMP JUMPDEST SWAP2 POP POP SWAP3 SWAP2 POP POP JUMP JUMPDEST PUSH32 0x4E487B7100000000000000000000000000000000000000000000000000000000 PUSH0 MSTORE PUSH1 0x12 PUSH1 0x4 MSTORE PUSH1 0x24 PUSH0 REVERT JUMPDEST PUSH0 PUSH2 0x12F DUP3 PUSH2 0x9A JUMP JUMPDEST SWAP2 POP PUSH2 0x13A DUP4 PUSH2 0x9A JUMP JUMPDEST SWAP3 POP DUP3 PUSH2 0x14A JUMPI PUSH2 0x149 PUSH2 0xF8 JUMP JUMPDEST JUMPDEST DUP3 DUP3 DIV SWAP1 POP SWAP3 SWAP2 POP POP JUMP JUMPDEST PUSH0 DUP3 DUP3 MSTORE PUSH1 0x20 DUP3 ADD SWAP1 POP SWAP3 SWAP2 POP POP JUMP JUMPDEST PUSH32 0xE6B2A1E69C89E694AFE4BB98E8B6B3E5A49FE79A84E4BBA5E5A4AAE5B881E380 PUSH0 DUP3 ADD MSTORE PUSH32 0x8200000000000000000000000000000000000000000000000000000000000000 PUSH1 0x20 DUP3 ADD MSTORE POP JUMP JUMPDEST PUSH0 PUSH2 0x1BF PUSH1 0x21 DUP4 PUSH2 0x155 JUMP JUMPDEST SWAP2 POP PUSH2 0x1CA DUP3 PUSH2 0x165 JUMP JUMPDEST PUSH1 0x40 DUP3 ADD SWAP1 POP SWAP2 SWAP1 POP JUMP JUMPDEST PUSH0 PUSH1 0x20 DUP3 ADD SWAP1 POP DUP2 DUP2 SUB PUSH0 DUP4 ADD MSTORE PUSH2 0x1EC DUP2 PUSH2 0x1B3 JUMP JUMPDEST SWAP1 POP SWAP2 SWAP1 POP JUMP INVALID LOG2 PUSH5 0x6970667358 0x22 SLT KECCAK256 RETURNDATASIZE GASLIMIT CREATE PUSH20 0x6A429AE29782EA3FE1587716429ED8697437D584 0xCC CALLVALUE 0xC7 0x2D 0xF 0xEF 0xD PUSH5 0x64736F6C63 NUMBER STOP ADDMOD XOR STOP CALLER "
				},
				"gasEstimates": {
					"creation": {
						"codeDepositCost": "110600",
						"executionCost": "157",
						"totalCost": "110757"
					},
					"external": {
						"buy(uint256)": "infinite"
					}
				},
				"methodIdentifiers": {
					"buy(uint256)": "d96a094a"
				}
			},
			"storageLayout": {
				"storage": [],
				"types": null
			},
			"userdoc": {
				"kind": "user",
				"methods": {},
				"version": 1
			}
		}
	}
}