{
	"chapter05/sample5-12.sol": {
		"TestMath": {
			"abi": [
				{
					"inputs": [],
					"name": "TestAdd",
					"outputs": [
						{
							"internalType": "uint256",
							"name": "",
							"type": "uint256"
						}
					],
					"stateMutability": "pure",
					"type": "function"
				},
				{
					"inputs": [],
					"name": "TestDivide",
					"outputs": [
						{
							"internalType": "uint256",
							"name": "",
							"type": "uint256"
						}
					],
					"stateMutability": "pure",
					"type": "function"
				},
				{
					"inputs": [],
					"name": "TestMinus",
					"outputs": [
						{
							"internalType": "uint256",
							"name": "",
							"type": "uint256"
						}
					],
					"stateMutability": "pure",
					"type": "function"
				},
				{
					"inputs": [],
					"name": "TestMultiple",
					"outputs": [
						{
							"internalType": "uint256",
							"name": "",
							"type": "uint256"
						}
					],
					"stateMutability": "pure",
					"type": "function"
				}
			],
			"devdoc": {
				"kind": "dev",
				"methods": {},
				"version": 1
			},
			"evm": {
				"assembly": "    /* \"chapter05/sample5-12.sol\":85:580  contract TestMath {... */\n  mstore(0x40, 0x80)\n  callvalue\n  dup1\n  iszero\n  tag_1\n  jumpi\n  revert(0x00, 0x00)\ntag_1:\n  pop\n  dataSize(sub_0)\n  dup1\n  dataOffset(sub_0)\n  0x00\n  codecopy\n  0x00\n  return\nstop\n\nsub_0: assembly {\n        /* \"chapter05/sample5-12.sol\":85:580  contract TestMath {... */\n      mstore(0x40, 0x80)\n      callvalue\n      dup1\n      iszero\n      tag_1\n      jumpi\n      revert(0x00, 0x00)\n    tag_1:\n      pop\n      jumpi(tag_2, lt(calldatasize, 0x04))\n      shr(0xe0, calldataload(0x00))\n      dup1\n      0x5d3100b1\n      eq\n      tag_3\n      jumpi\n      dup1\n      0x8ac6d103\n      eq\n      tag_4\n      jumpi\n      dup1\n      0xa6863644\n      eq\n      tag_5\n      jumpi\n      dup1\n      0xc9049616\n      eq\n      tag_6\n      jumpi\n    tag_2:\n      revert(0x00, 0x00)\n        /* \"chapter05/sample5-12.sol\":241:345  function TestMinus() public pure returns(uint){... */\n    tag_3:\n      tag_7\n      tag_8\n      jump\t// in\n    tag_7:\n      mload(0x40)\n      tag_9\n      swap2\n      swap1\n      tag_10\n      jump\t// in\n    tag_9:\n      mload(0x40)\n      dup1\n      swap2\n      sub\n      swap1\n      return\n        /* \"chapter05/sample5-12.sol\":136:235  function TestAdd() public pure returns(uint){... */\n    tag_4:\n      tag_11\n      tag_12\n      jump\t// in\n    tag_11:\n      mload(0x40)\n      tag_13\n      swap2\n      swap1\n      tag_10\n      jump\t// in\n    tag_13:\n      mload(0x40)\n      dup1\n      swap2\n      sub\n      swap1\n      return\n        /* \"chapter05/sample5-12.sol\":467:573  function TestDivide() public pure returns(uint){... */\n    tag_5:\n      tag_14\n      tag_15\n      jump\t// in\n    tag_14:\n      mload(0x40)\n      tag_16\n      swap2\n      swap1\n      tag_10\n      jump\t// in\n    tag_16:\n      mload(0x40)\n      dup1\n      swap2\n      sub\n      swap1\n      return\n        /* \"chapter05/sample5-12.sol\":351:461  function TestMultiple() public pure returns(uint){... */\n    tag_6:\n      tag_17\n      tag_18\n      jump\t// in\n    tag_17:\n      mload(0x40)\n      tag_19\n      swap2\n      swap1\n      tag_10\n      jump\t// in\n    tag_19:\n      mload(0x40)\n      dup1\n      swap2\n      sub\n      swap1\n      return\n        /* \"chapter05/sample5-12.sol\":241:345  function TestMinus() public pure returns(uint){... */\n    tag_8:\n        /* \"chapter05/sample5-12.sol\":282:286  uint */\n      0x00\n        /* \"chapter05/sample5-12.sol\":298:304  uint a */\n      0x00\n        /* \"chapter05/sample5-12.sol\":307:309  10 */\n      0x0a\n        /* \"chapter05/sample5-12.sol\":298:309  uint a = 10 */\n      swap1\n      pop\n        /* \"chapter05/sample5-12.sol\":327:328  a */\n      dup1\n        /* \"chapter05/sample5-12.sol\":327:334  a.minus */\n      linkerSymbol(\"07744401767f088b32ce46c0655e2e6fb2c2e010adca848fb7d770d5528c3212\")\n      0xf4f3bdc1\n      swap1\n      swap2\n        /* \"chapter05/sample5-12.sol\":335:336  2 */\n      0x02\n        /* \"chapter05/sample5-12.sol\":327:337  a.minus(2) */\n      mload(0x40)\n      dup4\n      0xffffffff\n      and\n      0xe0\n      shl\n      dup2\n      mstore\n      0x04\n      add\n      tag_21\n      swap3\n      swap2\n      swap1\n      tag_22\n      jump\t// in\n    tag_21:\n      0x20\n      mload(0x40)\n      dup1\n      dup4\n      sub\n      dup2\n      dup7\n      gas\n      delegatecall\n      iszero\n      dup1\n      iszero\n      tag_24\n      jumpi\n      returndatacopy(0x00, 0x00, returndatasize)\n      revert(0x00, returndatasize)\n    tag_24:\n      pop\n      pop\n      pop\n      pop\n      mload(0x40)\n      returndatasize\n      not(0x1f)\n      0x1f\n      dup3\n      add\n      and\n      dup3\n      add\n      dup1\n      0x40\n      mstore\n      pop\n      dup2\n      add\n      swap1\n      tag_25\n      swap2\n      swap1\n      tag_26\n      jump\t// in\n    tag_25:\n        /* \"chapter05/sample5-12.sol\":320:337  return a.minus(2) */\n      swap2\n      pop\n      pop\n        /* \"chapter05/sample5-12.sol\":241:345  function TestMinus() public pure returns(uint){... */\n      swap1\n      jump\t// out\n        /* \"chapter05/sample5-12.sol\":136:235  function TestAdd() public pure returns(uint){... */\n    tag_12:\n        /* \"chapter05/sample5-12.sol\":175:179  uint */\n      0x00\n        /* \"chapter05/sample5-12.sol\":191:197  uint a */\n      0x00\n        /* \"chapter05/sample5-12.sol\":200:201  1 */\n      0x01\n        /* \"chapter05/sample5-12.sol\":191:201  uint a = 1 */\n      swap1\n      pop\n        /* \"chapter05/sample5-12.sol\":219:220  a */\n      dup1\n        /* \"chapter05/sample5-12.sol\":219:224  a.add */\n      linkerSymbol(\"07744401767f088b32ce46c0655e2e6fb2c2e010adca848fb7d770d5528c3212\")\n      0x771602f7\n      swap1\n      swap2\n        /* \"chapter05/sample5-12.sol\":225:226  2 */\n      0x02\n        /* \"chapter05/sample5-12.sol\":219:227  a.add(2) */\n      mload(0x40)\n      dup4\n      0xffffffff\n      and\n      0xe0\n      shl\n      dup2\n      mstore\n      0x04\n      add\n      tag_28\n      swap3\n      swap2\n      swap1\n      tag_22\n      jump\t// in\n    tag_28:\n      0x20\n      mload(0x40)\n      dup1\n      dup4\n      sub\n      dup2\n      dup7\n      gas\n      delegatecall\n      iszero\n      dup1\n      iszero\n      tag_30\n      jumpi\n      returndatacopy(0x00, 0x00, returndatasize)\n      revert(0x00, returndatasize)\n    tag_30:\n      pop\n      pop\n      pop\n      pop\n      mload(0x40)\n      returndatasize\n      not(0x1f)\n      0x1f\n      dup3\n      add\n      and\n      dup3\n      add\n      dup1\n      0x40\n      mstore\n      pop\n      dup2\n      add\n      swap1\n      tag_31\n      swap2\n      swap1\n      tag_26\n      jump\t// in\n    tag_31:\n        /* \"chapter05/sample5-12.sol\":212:227  return a.add(2) */\n      swap2\n      pop\n      pop\n        /* \"chapter05/sample5-12.sol\":136:235  function TestAdd() public pure returns(uint){... */\n      swap1\n      jump\t// out\n        /* \"chapter05/sample5-12.sol\":467:573  function TestDivide() public pure returns(uint){... */\n    tag_15:\n        /* \"chapter05/sample5-12.sol\":509:513  uint */\n      0x00\n        /* \"chapter05/sample5-12.sol\":525:531  uint a */\n      0x00\n        /* \"chapter05/sample5-12.sol\":534:536  10 */\n      0x0a\n        /* \"chapter05/sample5-12.sol\":525:536  uint a = 10 */\n      swap1\n      pop\n        /* \"chapter05/sample5-12.sol\":554:555  a */\n      dup1\n        /* \"chapter05/sample5-12.sol\":554:562  a.divide */\n      linkerSymbol(\"07744401767f088b32ce46c0655e2e6fb2c2e010adca848fb7d770d5528c3212\")\n      0xf88e9fbf\n      swap1\n      swap2\n        /* \"chapter05/sample5-12.sol\":563:564  2 */\n      0x02\n        /* \"chapter05/sample5-12.sol\":554:565  a.divide(2) */\n      mload(0x40)\n      dup4\n      0xffffffff\n      and\n      0xe0\n      shl\n      dup2\n      mstore\n      0x04\n      add\n      tag_33\n      swap3\n      swap2\n      swap1\n      tag_22\n      jump\t// in\n    tag_33:\n      0x20\n      mload(0x40)\n      dup1\n      dup4\n      sub\n      dup2\n      dup7\n      gas\n      delegatecall\n      iszero\n      dup1\n      iszero\n      tag_35\n      jumpi\n      returndatacopy(0x00, 0x00, returndatasize)\n      revert(0x00, returndatasize)\n    tag_35:\n      pop\n      pop\n      pop\n      pop\n      mload(0x40)\n      returndatasize\n      not(0x1f)\n      0x1f\n      dup3\n      add\n      and\n      dup3\n      add\n      dup1\n      0x40\n      mstore\n      pop\n      dup2\n      add\n      swap1\n      tag_36\n      swap2\n      swap1\n      tag_26\n      jump\t// in\n    tag_36:\n        /* \"chapter05/sample5-12.sol\":547:565  return a.divide(2) */\n      swap2\n      pop\n      pop\n        /* \"chapter05/sample5-12.sol\":467:573  function TestDivide() public pure returns(uint){... */\n      swap1\n      jump\t// out\n        /* \"chapter05/sample5-12.sol\":351:461  function TestMultiple() public pure returns(uint){... */\n    tag_18:\n        /* \"chapter05/sample5-12.sol\":395:399  uint */\n      0x00\n        /* \"chapter05/sample5-12.sol\":411:417  uint a */\n      0x00\n        /* \"chapter05/sample5-12.sol\":420:422  10 */\n      0x0a\n        /* \"chapter05/sample5-12.sol\":411:422  uint a = 10 */\n      swap1\n      pop\n        /* \"chapter05/sample5-12.sol\":440:441  a */\n      dup1\n        /* \"chapter05/sample5-12.sol\":440:450  a.multiple */\n      linkerSymbol(\"07744401767f088b32ce46c0655e2e6fb2c2e010adca848fb7d770d5528c3212\")\n      0x5002bed7\n      swap1\n      swap2\n        /* \"chapter05/sample5-12.sol\":451:452  2 */\n      0x02\n        /* \"chapter05/sample5-12.sol\":440:453  a.multiple(2) */\n      mload(0x40)\n      dup4\n      0xffffffff\n      and\n      0xe0\n      shl\n      dup2\n      mstore\n      0x04\n      add\n      tag_38\n      swap3\n      swap2\n      swap1\n      tag_22\n      jump\t// in\n    tag_38:\n      0x20\n      mload(0x40)\n      dup1\n      dup4\n      sub\n      dup2\n      dup7\n      gas\n      delegatecall\n      iszero\n      dup1\n      iszero\n      tag_40\n      jumpi\n      returndatacopy(0x00, 0x00, returndatasize)\n      revert(0x00, returndatasize)\n    tag_40:\n      pop\n      pop\n      pop\n      pop\n      mload(0x40)\n      returndatasize\n      not(0x1f)\n      0x1f\n      dup3\n      add\n      and\n      dup3\n      add\n      dup1\n      0x40\n      mstore\n      pop\n      dup2\n      add\n      swap1\n      tag_41\n      swap2\n      swap1\n      tag_26\n      jump\t// in\n    tag_41:\n        /* \"chapter05/sample5-12.sol\":433:453  return a.multiple(2) */\n      swap2\n      pop\n      pop\n        /* \"chapter05/sample5-12.sol\":351:461  function TestMultiple() public pure returns(uint){... */\n      swap1\n      jump\t// out\n        /* \"#utility.yul\":7:84   */\n    tag_42:\n        /* \"#utility.yul\":44:51   */\n      0x00\n        /* \"#utility.yul\":73:78   */\n      dup2\n        /* \"#utility.yul\":62:78   */\n      swap1\n      pop\n        /* \"#utility.yul\":7:84   */\n      swap2\n      swap1\n      pop\n      jump\t// out\n        /* \"#utility.yul\":90:208   */\n    tag_43:\n        /* \"#utility.yul\":177:201   */\n      tag_57\n        /* \"#utility.yul\":195:200   */\n      dup2\n        /* \"#utility.yul\":177:201   */\n      tag_42\n      jump\t// in\n    tag_57:\n        /* \"#utility.yul\":172:175   */\n      dup3\n        /* \"#utility.yul\":165:202   */\n      mstore\n        /* \"#utility.yul\":90:208   */\n      pop\n      pop\n      jump\t// out\n        /* \"#utility.yul\":214:436   */\n    tag_10:\n        /* \"#utility.yul\":307:311   */\n      0x00\n        /* \"#utility.yul\":345:347   */\n      0x20\n        /* \"#utility.yul\":334:343   */\n      dup3\n        /* \"#utility.yul\":330:348   */\n      add\n        /* \"#utility.yul\":322:348   */\n      swap1\n      pop\n        /* \"#utility.yul\":358:429   */\n      tag_59\n        /* \"#utility.yul\":426:427   */\n      0x00\n        /* \"#utility.yul\":415:424   */\n      dup4\n        /* \"#utility.yul\":411:428   */\n      add\n        /* \"#utility.yul\":402:408   */\n      dup5\n        /* \"#utility.yul\":358:429   */\n      tag_43\n      jump\t// in\n    tag_59:\n        /* \"#utility.yul\":214:436   */\n      swap3\n      swap2\n      pop\n      pop\n      jump\t// out\n        /* \"#utility.yul\":442:568   */\n    tag_44:\n        /* \"#utility.yul\":537:561   */\n      tag_61\n        /* \"#utility.yul\":555:560   */\n      dup2\n        /* \"#utility.yul\":537:561   */\n      tag_42\n      jump\t// in\n    tag_61:\n        /* \"#utility.yul\":532:535   */\n      dup3\n        /* \"#utility.yul\":525:562   */\n      mstore\n        /* \"#utility.yul\":442:568   */\n      pop\n      pop\n      jump\t// out\n        /* \"#utility.yul\":574:659   */\n    tag_45:\n        /* \"#utility.yul\":619:626   */\n      0x00\n        /* \"#utility.yul\":648:653   */\n      dup2\n        /* \"#utility.yul\":637:653   */\n      swap1\n      pop\n        /* \"#utility.yul\":574:659   */\n      swap2\n      swap1\n      pop\n      jump\t// out\n        /* \"#utility.yul\":665:725   */\n    tag_46:\n        /* \"#utility.yul\":693:696   */\n      0x00\n        /* \"#utility.yul\":714:719   */\n      dup2\n        /* \"#utility.yul\":707:719   */\n      swap1\n      pop\n        /* \"#utility.yul\":665:725   */\n      swap2\n      swap1\n      pop\n      jump\t// out\n        /* \"#utility.yul\":731:889   */\n    tag_47:\n        /* \"#utility.yul\":789:798   */\n      0x00\n        /* \"#utility.yul\":822:883   */\n      tag_65\n        /* \"#utility.yul\":840:882   */\n      tag_66\n        /* \"#utility.yul\":849:881   */\n      tag_67\n        /* \"#utility.yul\":875:880   */\n      dup5\n        /* \"#utility.yul\":849:881   */\n      tag_45\n      jump\t// in\n    tag_67:\n        /* \"#utility.yul\":840:882   */\n      tag_46\n      jump\t// in\n    tag_66:\n        /* \"#utility.yul\":822:883   */\n      tag_42\n      jump\t// in\n    tag_65:\n        /* \"#utility.yul\":809:883   */\n      swap1\n      pop\n        /* \"#utility.yul\":731:889   */\n      swap2\n      swap1\n      pop\n      jump\t// out\n        /* \"#utility.yul\":895:1050   */\n    tag_48:\n        /* \"#utility.yul\":998:1043   */\n      tag_69\n        /* \"#utility.yul\":1037:1042   */\n      dup2\n        /* \"#utility.yul\":998:1043   */\n      tag_47\n      jump\t// in\n    tag_69:\n        /* \"#utility.yul\":993:996   */\n      dup3\n        /* \"#utility.yul\":986:1044   */\n      mstore\n        /* \"#utility.yul\":895:1050   */\n      pop\n      pop\n      jump\t// out\n        /* \"#utility.yul\":1056:1428   */\n    tag_22:\n        /* \"#utility.yul\":1193:1197   */\n      0x00\n        /* \"#utility.yul\":1231:1233   */\n      0x40\n        /* \"#utility.yul\":1220:1229   */\n      dup3\n        /* \"#utility.yul\":1216:1234   */\n      add\n        /* \"#utility.yul\":1208:1234   */\n      swap1\n      pop\n        /* \"#utility.yul\":1244:1323   */\n      tag_71\n        /* \"#utility.yul\":1320:1321   */\n      0x00\n        /* \"#utility.yul\":1309:1318   */\n      dup4\n        /* \"#utility.yul\":1305:1322   */\n      add\n        /* \"#utility.yul\":1296:1302   */\n      dup6\n        /* \"#utility.yul\":1244:1323   */\n      tag_44\n      jump\t// in\n    tag_71:\n        /* \"#utility.yul\":1333:1421   */\n      tag_72\n        /* \"#utility.yul\":1417:1419   */\n      0x20\n        /* \"#utility.yul\":1406:1415   */\n      dup4\n        /* \"#utility.yul\":1402:1420   */\n      add\n        /* \"#utility.yul\":1393:1399   */\n      dup5\n        /* \"#utility.yul\":1333:1421   */\n      tag_48\n      jump\t// in\n    tag_72:\n        /* \"#utility.yul\":1056:1428   */\n      swap4\n      swap3\n      pop\n      pop\n      pop\n      jump\t// out\n        /* \"#utility.yul\":1515:1632   */\n    tag_50:\n        /* \"#utility.yul\":1624:1625   */\n      0x00\n        /* \"#utility.yul\":1621:1622   */\n      0x00\n        /* \"#utility.yul\":1614:1626   */\n      revert\n        /* \"#utility.yul\":1761:1883   */\n    tag_52:\n        /* \"#utility.yul\":1834:1858   */\n      tag_77\n        /* \"#utility.yul\":1852:1857   */\n      dup2\n        /* \"#utility.yul\":1834:1858   */\n      tag_42\n      jump\t// in\n    tag_77:\n        /* \"#utility.yul\":1827:1832   */\n      dup2\n        /* \"#utility.yul\":1824:1859   */\n      eq\n        /* \"#utility.yul\":1814:1877   */\n      tag_78\n      jumpi\n        /* \"#utility.yul\":1873:1874   */\n      0x00\n        /* \"#utility.yul\":1870:1871   */\n      0x00\n        /* \"#utility.yul\":1863:1875   */\n      revert\n        /* \"#utility.yul\":1814:1877   */\n    tag_78:\n        /* \"#utility.yul\":1761:1883   */\n      pop\n      jump\t// out\n        /* \"#utility.yul\":1889:2032   */\n    tag_53:\n        /* \"#utility.yul\":1946:1951   */\n      0x00\n        /* \"#utility.yul\":1977:1983   */\n      dup2\n        /* \"#utility.yul\":1971:1984   */\n      mload\n        /* \"#utility.yul\":1962:1984   */\n      swap1\n      pop\n        /* \"#utility.yul\":1993:2026   */\n      tag_80\n        /* \"#utility.yul\":2020:2025   */\n      dup2\n        /* \"#utility.yul\":1993:2026   */\n      tag_52\n      jump\t// in\n    tag_80:\n        /* \"#utility.yul\":1889:2032   */\n      swap3\n      swap2\n      pop\n      pop\n      jump\t// out\n        /* \"#utility.yul\":2038:2389   */\n    tag_26:\n        /* \"#utility.yul\":2108:2114   */\n      0x00\n        /* \"#utility.yul\":2157:2159   */\n      0x20\n        /* \"#utility.yul\":2145:2154   */\n      dup3\n        /* \"#utility.yul\":2136:2143   */\n      dup5\n        /* \"#utility.yul\":2132:2155   */\n      sub\n        /* \"#utility.yul\":2128:2160   */\n      slt\n        /* \"#utility.yul\":2125:2244   */\n      iszero\n      tag_82\n      jumpi\n        /* \"#utility.yul\":2163:2242   */\n      tag_83\n      tag_50\n      jump\t// in\n    tag_83:\n        /* \"#utility.yul\":2125:2244   */\n    tag_82:\n        /* \"#utility.yul\":2283:2284   */\n      0x00\n        /* \"#utility.yul\":2308:2372   */\n      tag_84\n        /* \"#utility.yul\":2364:2371   */\n      dup5\n        /* \"#utility.yul\":2355:2361   */\n      dup3\n        /* \"#utility.yul\":2344:2353   */\n      dup6\n        /* \"#utility.yul\":2340:2362   */\n      add\n        /* \"#utility.yul\":2308:2372   */\n      tag_53\n      jump\t// in\n    tag_84:\n        /* \"#utility.yul\":2298:2372   */\n      swap2\n      pop\n        /* \"#utility.yul\":2254:2382   */\n      pop\n        /* \"#utility.yul\":2038:2389   */\n      swap3\n      swap2\n      pop\n      pop\n      jump\t// out\n\n    auxdata: 0xa2646970667358221220f2d19d055316ee6994d10b28ad8e3ab3651b7ad3cf9c695149351c6ed253b04a64736f6c634300081e0033\n}\n",
				"bytecode": {
					"linkReferences": {
						"chapter05/math.sol": {
							"Math": [
								{
									"length": 20,
									"start": 235
								},
								{
									"length": 20,
									"start": 370
								},
								{
									"length": 20,
									"start": 505
								},
								{
									"length": 20,
									"start": 640
								}
							]
						}
					},
					"object": "6080604052348015600e575f5ffd5b5061041a8061001c5f395ff3fe608060405234801561000f575f5ffd5b506004361061004a575f3560e01c80635d3100b11461004e5780638ac6d1031461006c578063a68636441461008a578063c9049616146100a8575b5f5ffd5b6100566100c6565b60405161006391906102fa565b60405180910390f35b61007461014d565b60405161008191906102fa565b60405180910390f35b6100926101d4565b60405161009f91906102fa565b60405180910390f35b6100b061025b565b6040516100bd91906102fa565b60405180910390f35b5f5f600a90508073__$07744401767f088b32ce46c0655e2e6fb2$__63f4f3bdc1909160026040518363ffffffff1660e01b8152600401610108929190610364565b602060405180830381865af4158015610123573d5f5f3e3d5ffd5b505050506040513d601f19601f8201168201806040525081019061014791906103b9565b91505090565b5f5f600190508073__$07744401767f088b32ce46c0655e2e6fb2$__63771602f7909160026040518363ffffffff1660e01b815260040161018f929190610364565b602060405180830381865af41580156101aa573d5f5f3e3d5ffd5b505050506040513d601f19601f820116820180604052508101906101ce91906103b9565b91505090565b5f5f600a90508073__$07744401767f088b32ce46c0655e2e6fb2$__63f88e9fbf909160026040518363ffffffff1660e01b8152600401610216929190610364565b602060405180830381865af4158015610231573d5f5f3e3d5ffd5b505050506040513d601f19601f8201168201806040525081019061025591906103b9565b91505090565b5f5f600a90508073__$07744401767f088b32ce46c0655e2e6fb2$__635002bed7909160026040518363ffffffff1660e01b815260040161029d929190610364565b602060405180830381865af41580156102b8573d5f5f3e3d5ffd5b505050506040513d601f19601f820116820180604052508101906102dc91906103b9565b91505090565b5f819050919050565b6102f4816102e2565b82525050565b5f60208201905061030d5f8301846102eb565b92915050565b61031c816102e2565b82525050565b5f819050919050565b5f819050919050565b5f61034e61034961034484610322565b61032b565b6102e2565b9050919050565b61035e81610334565b82525050565b5f6040820190506103775f830185610313565b6103846020830184610355565b9392505050565b5f5ffd5b610398816102e2565b81146103a2575f5ffd5b50565b5f815190506103b38161038f565b92915050565b5f602082840312156103ce576103cd61038b565b5b5f6103db848285016103a5565b9150509291505056fea2646970667358221220f2d19d055316ee6994d10b28ad8e3ab3651b7ad3cf9c695149351c6ed253b04a64736f6c634300081e0033",
					"opcodes": "PUSH1 0x80 PUSH1 0x40 MSTORE CALLVALUE DUP1 ISZERO PUSH1 0xE JUMPI PUSH0 PUSH0 REVERT JUMPDEST POP PUSH2 0x41A DUP1 PUSH2 0x1C PUSH0 CODECOPY PUSH0 RETURN INVALID PUSH1 0x80 PUSH1 0x40 MSTORE CALLVALUE DUP1 ISZERO PUSH2 0xF JUMPI PUSH0 PUSH0 REVERT JUMPDEST POP PUSH1 0x4 CALLDATASIZE LT PUSH2 0x4A JUMPI PUSH0 CALLDATALOAD PUSH1 0xE0 SHR DUP1 PUSH4 0x5D3100B1 EQ PUSH2 0x4E JUMPI DUP1 PUSH4 0x8AC6D103 EQ PUSH2 0x6C JUMPI DUP1 PUSH4 0xA6863644 EQ PUSH2 0x8A JUMPI DUP1 PUSH4 0xC9049616 EQ PUSH2 0xA8 JUMPI JUMPDEST PUSH0 PUSH0 REVERT JUMPDEST PUSH2 0x56 PUSH2 0xC6 JUMP JUMPDEST PUSH1 0x40 MLOAD PUSH2 0x63 SWAP2 SWAP1 PUSH2 0x2FA JUMP JUMPDEST PUSH1 0x40 MLOAD DUP1 SWAP2 SUB SWAP1 RETURN JUMPDEST PUSH2 0x74 PUSH2 0x14D JUMP JUMPDEST PUSH1 0x40 MLOAD PUSH2 0x81 SWAP2 SWAP1 PUSH2 0x2FA JUMP JUMPDEST PUSH1 0x40 MLOAD DUP1 SWAP2 SUB SWAP1 RETURN JUMPDEST PUSH2 0x92 PUSH2 0x1D4 JUMP JUMPDEST PUSH1 0x40 MLOAD PUSH2 0x9F SWAP2 SWAP1 PUSH2 0x2FA JUMP JUMPDEST PUSH1 0x40 MLOAD DUP1 SWAP2 SUB SWAP1 RETURN JUMPDEST PUSH2 0xB0 PUSH2 0x25B JUMP JUMPDEST PUSH1 0x40 MLOAD PUSH2 0xBD SWAP2 SWAP1 PUSH2 0x2FA JUMP JUMPDEST PUSH1 0x40 MLOAD DUP1 SWAP2 SUB SWAP1 RETURN JUMPDEST PUSH0 PUSH0 PUSH1 0xA SWAP1 POP DUP1 PUSH20 0x0 PUSH4 0xF4F3BDC1 SWAP1 SWAP2 PUSH1 0x2 PUSH1 0x40 MLOAD DUP4 PUSH4 0xFFFFFFFF AND PUSH1 0xE0 SHL DUP2 MSTORE PUSH1 0x4 ADD PUSH2 0x108 SWAP3 SWAP2 SWAP1 PUSH2 0x364 JUMP JUMPDEST PUSH1 0x20 PUSH1 0x40 MLOAD DUP1 DUP4 SUB DUP2 DUP7 GAS DELEGATECALL ISZERO DUP1 ISZERO PUSH2 0x123 JUMPI RETURNDATASIZE PUSH0 PUSH0 RETURNDATACOPY RETURNDATASIZE PUSH0 REVERT JUMPDEST POP POP POP POP PUSH1 0x40 MLOAD RETURNDATASIZE PUSH1 0x1F NOT PUSH1 0x1F DUP3 ADD AND DUP3 ADD DUP1 PUSH1 0x40 MSTORE POP DUP2 ADD SWAP1 PUSH2 0x147 SWAP2 SWAP1 PUSH2 0x3B9 JUMP JUMPDEST SWAP2 POP POP SWAP1 JUMP JUMPDEST PUSH0 PUSH0 PUSH1 0x1 SWAP1 POP DUP1 PUSH20 0x0 PUSH4 0x771602F7 SWAP1 SWAP2 PUSH1 0x2 PUSH1 0x40 MLOAD DUP4 PUSH4 0xFFFFFFFF AND PUSH1 0xE0 SHL DUP2 MSTORE PUSH1 0x4 ADD PUSH2 0x18F SWAP3 SWAP2 SWAP1 PUSH2 0x364 JUMP JUMPDEST PUSH1 0x20 PUSH1 0x40 MLOAD DUP1 DUP4 SUB DUP2 DUP7 GAS DELEGATECALL ISZERO DUP1 ISZERO PUSH2 0x1AA JUMPI RETURNDATASIZE PUSH0 PUSH0 RETURNDATACOPY RETURNDATASIZE PUSH0 REVERT JUMPDEST POP POP POP POP PUSH1 0x40 MLOAD RETURNDATASIZE PUSH1 0x1F NOT PUSH1 0x1F DUP3 ADD AND DUP3 ADD DUP1 PUSH1 0x40 MSTORE POP DUP2 ADD SWAP1 PUSH2 0x1CE SWAP2 SWAP1 PUSH2 0x3B9 JUMP JUMPDEST SWAP2 POP POP SWAP1 JUMP JUMPDEST PUSH0 PUSH0 PUSH1 0xA SWAP1 POP DUP1 PUSH20 0x0 PUSH4 0xF88E9FBF SWAP1 SWAP2 PUSH1 0x2 PUSH1 0x40 MLOAD DUP4 PUSH4 0xFFFFFFFF AND PUSH1 0xE0 SHL DUP2 MSTORE PUSH1 0x4 ADD PUSH2 0x216 SWAP3 SWAP2 SWAP1 PUSH2 0x364 JUMP JUMPDEST PUSH1 0x20 PUSH1 0x40 MLOAD DUP1 DUP4 SUB DUP2 DUP7 GAS DELEGATECALL ISZERO DUP1 ISZERO PUSH2 0x231 JUMPI RETURNDATASIZE PUSH0 PUSH0 RETURNDATACOPY RETURNDATASIZE PUSH0 REVERT JUMPDEST POP POP POP POP PUSH1 0x40 MLOAD RETURNDATASIZE PUSH1 0x1F NOT PUSH1 0x1F DUP3 ADD AND DUP3 ADD DUP1 PUSH1 0x40 MSTORE POP DUP2 ADD SWAP1 PUSH2 0x255 SWAP2 SWAP1 PUSH2 0x3B9 JUMP JUMPDEST SWAP2 POP POP SWAP1 JUMP JUMPDEST PUSH0 PUSH0 PUSH1 0xA SWAP1 POP DUP1 PUSH20 0x0 PUSH4 0x5002BED7 SWAP1 SWAP2 PUSH1 0x2 PUSH1 0x40 MLOAD DUP4 PUSH4 0xFFFFFFFF AND PUSH1 0xE0 SHL DUP2 MSTORE PUSH1 0x4 ADD PUSH2 0x29D SWAP3 SWAP2 SWAP1 PUSH2 0x364 JUMP JUMPDEST PUSH1 0x20 PUSH1 0x40 MLOAD DUP1 DUP4 SUB DUP2 DUP7 GAS DELEGATECALL ISZERO DUP1 ISZERO PUSH2 0x2B8 JUMPI RETURNDATASIZE PUSH0 PUSH0 RETURNDATACOPY RETURNDATASIZE PUSH0 REVERT JUMPDEST POP POP POP POP PUSH1 0x40 MLOAD RETURNDATASIZE PUSH1 0x1F NOT PUSH1 0x1F DUP3 ADD AND DUP3 ADD DUP1 PUSH1 0x40 MSTORE POP DUP2 ADD SWAP1 PUSH2 0x2DC SWAP2 SWAP1 PUSH2 0x3B9 JUMP JUMPDEST SWAP2 POP POP SWAP1 JUMP JUMPDEST PUSH0 DUP2 SWAP1 POP SWAP2 SWAP1 POP JUMP JUMPDEST PUSH2 0x2F4 DUP2 PUSH2 0x2E2 JUMP JUMPDEST DUP3 MSTORE POP POP JUMP JUMPDEST PUSH0 PUSH1 0x20 DUP3 ADD SWAP1 POP PUSH2 0x30D PUSH0 DUP4 ADD DUP5 PUSH2 0x2EB JUMP JUMPDEST SWAP3 SWAP2 POP POP JUMP JUMPDEST PUSH2 0x31C DUP2 PUSH2 0x2E2 JUMP JUMPDEST DUP3 MSTORE POP POP JUMP JUMPDEST PUSH0 DUP2 SWAP1 POP SWAP2 SWAP1 POP JUMP JUMPDEST PUSH0 DUP2 SWAP1 POP SWAP2 SWAP1 POP JUMP JUMPDEST PUSH0 PUSH2 0x34E PUSH2 0x349 PUSH2 0x344 DUP5 PUSH2 0x322 JUMP JUMPDEST PUSH2 0x32B JUMP JUMPDEST PUSH2 0x2E2 JUMP JUMPDEST SWAP1 POP SWAP2 SWAP1 POP JUMP JUMPDEST PUSH2 0x35E DUP2 PUSH2 0x334 JUMP JUMPDEST DUP3 MSTORE POP POP JUMP JUMPDEST PUSH0 PUSH1 0x40 DUP3 ADD SWAP1 POP PUSH2 0x377 PUSH0 DUP4 ADD DUP6 PUSH2 0x313 JUMP JUMPDEST PUSH2 0x384 PUSH1 0x20 DUP4 ADD DUP5 PUSH2 0x355 JUMP JUMPDEST SWAP4 SWAP3 POP POP POP JUMP JUMPDEST PUSH0 PUSH0 REVERT JUMPDEST PUSH2 0x398 DUP2 PUSH2 0x2E2 JUMP JUMPDEST DUP2 EQ PUSH2 0x3A2 JUMPI PUSH0 PUSH0 REVERT JUMPDEST POP JUMP JUMPDEST PUSH0 DUP2 MLOAD SWAP1 POP PUSH2 0x3B3 DUP2 PUSH2 0x38F JUMP JUMPDEST SWAP3 SWAP2 POP POP JUMP JUMPDEST PUSH0 PUSH1 0x20 DUP3 DUP5 SUB SLT ISZERO PUSH2 0x3CE JUMPI PUSH2 0x3CD PUSH2 0x38B JUMP JUMPDEST JUMPDEST PUSH0 PUSH2 0x3DB DUP5 DUP3 DUP6 ADD PUSH2 0x3A5 JUMP JUMPDEST SWAP2 POP POP SWAP3 SWAP2 POP POP JUMP INVALID LOG2 PUSH5 0x6970667358 0x22 SLT KECCAK256 CALLCODE DATALOADN 0x9D05 MSTORE8 AND RETURNCONTRACT 0x69 SWAP5 DATALOADN 0xB28 0xAD DUP15 GASPRICE 0xB3 PUSH6 0x1B7AD3CF9C69 MLOAD BLOBHASH CALLDATALOAD SHR PUSH15 0xD253B04A64736F6C634300081E0033 "
				},
				"gasEstimates": {
					"creation": {
						"codeDepositCost": "210000",
						"executionCost": "249",
						"totalCost": "210249"
					},
					"external": {
						"TestAdd()": "infinite",
						"TestDivide()": "infinite",
						"TestMinus()": "infinite",
						"TestMultiple()": "infinite"
					}
				},
				"methodIdentifiers": {
					"TestAdd()": "8ac6d103",
					"TestDivide()": "a6863644",
					"TestMinus()": "5d3100b1",
					"TestMultiple()": "c9049616"
				}
			},
			"storageLayout": {
				"storage": [],
				"types": null
			},
			"userdoc": {
				"kind": "user",
				"methods": {},
				"version": 1
			}
		}
	}
}