{
	"chapter06/voting.sol": {
		"Voting": {
			"abi": [
				{
					"inputs": [
						{
							"internalType": "string[]",
							"name": "_candidates",
							"type": "string[]"
						}
					],
					"stateMutability": "nonpayable",
					"type": "constructor"
				},
				{
					"anonymous": false,
					"inputs": [
						{
							"indexed": true,
							"internalType": "address",
							"name": "voter",
							"type": "address"
						},
						{
							"indexed": true,
							"internalType": "uint256",
							"name": "candidate",
							"type": "uint256"
						},
						{
							"indexed": false,
							"internalType": "uint256",
							"name": "total",
							"type": "uint256"
						}
					],
					"name": "Voted",
					"type": "event"
				},
				{
					"inputs": [
						{
							"internalType": "uint256",
							"name": "",
							"type": "uint256"
						}
					],
					"name": "candidates",
					"outputs": [
						{
							"internalType": "string",
							"name": "",
							"type": "string"
						}
					],
					"stateMutability": "view",
					"type": "function"
				},
				{
					"inputs": [
						{
							"internalType": "uint256",
							"name": "i",
							"type": "uint256"
						}
					],
					"name": "getCandidate",
					"outputs": [
						{
							"internalType": "string",
							"name": "",
							"type": "string"
						},
						{
							"internalType": "uint256",
							"name": "",
							"type": "uint256"
						}
					],
					"stateMutability": "view",
					"type": "function"
				},
				{
					"inputs": [
						{
							"internalType": "address",
							"name": "",
							"type": "address"
						}
					],
					"name": "hasVoted",
					"outputs": [
						{
							"internalType": "bool",
							"name": "",
							"type": "bool"
						}
					],
					"stateMutability": "view",
					"type": "function"
				},
				{
					"inputs": [],
					"name": "totalCandidates",
					"outputs": [
						{
							"internalType": "uint256",
							"name": "",
							"type": "uint256"
						}
					],
					"stateMutability": "view",
					"type": "function"
				},
				{
					"inputs": [
						{
							"internalType": "uint256",
							"name": "candidate",
							"type": "uint256"
						}
					],
					"name": "vote",
					"outputs": [],
					"stateMutability": "nonpayable",
					"type": "function"
				},
				{
					"inputs": [
						{
							"internalType": "uint256",
							"name": "",
							"type": "uint256"
						}
					],
					"name": "votes",
					"outputs": [
						{
							"internalType": "uint256",
							"name": "",
							"type": "uint256"
						}
					],
					"stateMutability": "view",
					"type": "function"
				}
			],
			"devdoc": {
				"kind": "dev",
				"methods": {},
				"version": 1
			},
			"evm": {
				"assembly": "    /* \"chapter06/voting.sol\":61:995  contract Voting {... */\n  mstore(0x40, 0x80)\n    /* \"chapter06/voting.sol\":294:437  constructor(string[] memory _candidates) {... */\n  callvalue\n  dup1\n  iszero\n  tag_1\n  jumpi\n  revert(0x00, 0x00)\ntag_1:\n  pop\n  mload(0x40)\n  sub(codesize, bytecodeSize)\n  dup1\n  bytecodeSize\n  dup4\n  codecopy\n  dup2\n  dup2\n  add\n  0x40\n  mstore\n  dup2\n  add\n  swap1\n  tag_2\n  swap2\n  swap1\n  tag_3\n  jump\t// in\ntag_2:\n    /* \"chapter06/voting.sol\":375:376  0 */\n  0x00\n    /* \"chapter06/voting.sol\":354:365  _candidates */\n  dup2\n    /* \"chapter06/voting.sol\":354:372  _candidates.length */\n  mload\n    /* \"chapter06/voting.sol\":354:376  _candidates.length > 0 */\n  gt\n    /* \"chapter06/voting.sol\":346:394  require(_candidates.length > 0, \"No candidates\") */\n  tag_6\n  jumpi\n  mload(0x40)\n  0x08c379a000000000000000000000000000000000000000000000000000000000\n  dup2\n  mstore\n  0x04\n  add\n  tag_7\n  swap1\n  tag_8\n  jump\t// in\ntag_7:\n  mload(0x40)\n  dup1\n  swap2\n  sub\n  swap1\n  revert\ntag_6:\n    /* \"chapter06/voting.sol\":418:429  _candidates */\n  dup1\n    /* \"chapter06/voting.sol\":405:415  candidates */\n  0x00\n    /* \"chapter06/voting.sol\":405:429  candidates = _candidates */\n  swap1\n  dup1\n  mload\n  swap1\n  0x20\n  add\n  swap1\n  tag_9\n  swap3\n  swap2\n  swap1\n  tag_10\n  jump\t// in\ntag_9:\n  pop\n    /* \"chapter06/voting.sol\":294:437  constructor(string[] memory _candidates) {... */\n  pop\n    /* \"chapter06/voting.sol\":61:995  contract Voting {... */\n  jump(tag_11)\ntag_10:\n  dup3\n  dup1\n  sload\n  dup3\n  dup3\n  sstore\n  swap1\n  0x00\n  mstore\n  keccak256(0x00, 0x20)\n  swap1\n  dup2\n  add\n  swap3\n  dup3\n  iszero\n  tag_12\n  jumpi\n  swap2\n  0x20\n  mul\n  dup3\n  add\ntag_13:\n  dup3\n  dup2\n  gt\n  iszero\n  tag_14\n  jumpi\n  dup3\n  mload\n  dup3\n  swap1\n  dup2\n  tag_15\n  swap2\n  swap1\n  tag_16\n  jump\t// in\ntag_15:\n  pop\n  swap2\n  0x20\n  add\n  swap2\n  swap1\n  0x01\n  add\n  swap1\n  jump(tag_13)\ntag_14:\ntag_12:\n  pop\n  swap1\n  pop\n  tag_17\n  swap2\n  swap1\n  tag_18\n  jump\t// in\ntag_17:\n  pop\n  swap1\n  jump\t// out\ntag_18:\ntag_19:\n  dup1\n  dup3\n  gt\n  iszero\n  tag_20\n  jumpi\n  0x00\n  dup2\n  dup2\n  tag_21\n  swap2\n  swap1\n  tag_22\n  jump\t// in\ntag_21:\n  pop\n  0x01\n  add\n  jump(tag_19)\ntag_20:\n  pop\n  swap1\n  jump\t// out\ntag_22:\n  pop\n  dup1\n  sload\n  tag_23\n  swap1\n  tag_24\n  jump\t// in\ntag_23:\n  0x00\n  dup3\n  sstore\n  dup1\n  0x1f\n  lt\n  tag_26\n  jumpi\n  pop\n  jump(tag_25)\ntag_26:\n  0x1f\n  add\n  0x20\n  swap1\n  div\n  swap1\n  0x00\n  mstore\n  keccak256(0x00, 0x20)\n  swap1\n  dup2\n  add\n  swap1\n  tag_27\n  swap2\n  swap1\n  tag_28\n  jump\t// in\ntag_27:\ntag_25:\n  pop\n  jump\t// out\ntag_28:\ntag_29:\n  dup1\n  dup3\n  gt\n  iszero\n  tag_30\n  jumpi\n  0x00\n  dup2\n  0x00\n  swap1\n  sstore\n  pop\n  0x01\n  add\n  jump(tag_29)\ntag_30:\n  pop\n  swap1\n  jump\t// out\n    /* \"#utility.yul\":7:82   */\ntag_31:\n    /* \"#utility.yul\":40:46   */\n  0x00\n    /* \"#utility.yul\":73:75   */\n  0x40\n    /* \"#utility.yul\":67:76   */\n  mload\n    /* \"#utility.yul\":57:76   */\n  swap1\n  pop\n    /* \"#utility.yul\":7:82   */\n  swap1\n  jump\t// out\n    /* \"#utility.yul\":88:205   */\ntag_32:\n    /* \"#utility.yul\":197:198   */\n  0x00\n    /* \"#utility.yul\":194:195   */\n  0x00\n    /* \"#utility.yul\":187:199   */\n  revert\n    /* \"#utility.yul\":211:328   */\ntag_33:\n    /* \"#utility.yul\":320:321   */\n  0x00\n    /* \"#utility.yul\":317:318   */\n  0x00\n    /* \"#utility.yul\":310:322   */\n  revert\n    /* \"#utility.yul\":334:451   */\ntag_34:\n    /* \"#utility.yul\":443:444   */\n  0x00\n    /* \"#utility.yul\":440:441   */\n  0x00\n    /* \"#utility.yul\":433:445   */\n  revert\n    /* \"#utility.yul\":457:559   */\ntag_35:\n    /* \"#utility.yul\":498:504   */\n  0x00\n    /* \"#utility.yul\":549:551   */\n  0x1f\n    /* \"#utility.yul\":545:552   */\n  not\n    /* \"#utility.yul\":540:542   */\n  0x1f\n    /* \"#utility.yul\":533:538   */\n  dup4\n    /* \"#utility.yul\":529:543   */\n  add\n    /* \"#utility.yul\":525:553   */\n  and\n    /* \"#utility.yul\":515:553   */\n  swap1\n  pop\n    /* \"#utility.yul\":457:559   */\n  swap2\n  swap1\n  pop\n  jump\t// out\n    /* \"#utility.yul\":565:745   */\ntag_36:\n    /* \"#utility.yul\":613:690   */\n  0x4e487b7100000000000000000000000000000000000000000000000000000000\n    /* \"#utility.yul\":610:611   */\n  0x00\n    /* \"#utility.yul\":603:691   */\n  mstore\n    /* \"#utility.yul\":710:714   */\n  0x41\n    /* \"#utility.yul\":707:708   */\n  0x04\n    /* \"#utility.yul\":700:715   */\n  mstore\n    /* \"#utility.yul\":734:738   */\n  0x24\n    /* \"#utility.yul\":731:732   */\n  0x00\n    /* \"#utility.yul\":724:739   */\n  revert\n    /* \"#utility.yul\":751:1032   */\ntag_37:\n    /* \"#utility.yul\":834:861   */\n  tag_77\n    /* \"#utility.yul\":856:860   */\n  dup3\n    /* \"#utility.yul\":834:861   */\n  tag_35\n  jump\t// in\ntag_77:\n    /* \"#utility.yul\":826:832   */\n  dup2\n    /* \"#utility.yul\":822:862   */\n  add\n    /* \"#utility.yul\":964:970   */\n  dup2\n    /* \"#utility.yul\":952:962   */\n  dup2\n    /* \"#utility.yul\":949:971   */\n  lt\n    /* \"#utility.yul\":928:946   */\n  0xffffffffffffffff\n    /* \"#utility.yul\":916:926   */\n  dup3\n    /* \"#utility.yul\":913:947   */\n  gt\n    /* \"#utility.yul\":910:972   */\n  or\n    /* \"#utility.yul\":907:995   */\n  iszero\n  tag_78\n  jumpi\n    /* \"#utility.yul\":975:993   */\n  tag_79\n  tag_36\n  jump\t// in\ntag_79:\n    /* \"#utility.yul\":907:995   */\ntag_78:\n    /* \"#utility.yul\":1015:1025   */\n  dup1\n    /* \"#utility.yul\":1011:1013   */\n  0x40\n    /* \"#utility.yul\":1004:1026   */\n  mstore\n    /* \"#utility.yul\":794:1032   */\n  pop\n    /* \"#utility.yul\":751:1032   */\n  pop\n  pop\n  jump\t// out\n    /* \"#utility.yul\":1038:1167   */\ntag_38:\n    /* \"#utility.yul\":1072:1078   */\n  0x00\n    /* \"#utility.yul\":1099:1119   */\n  tag_81\n  tag_31\n  jump\t// in\ntag_81:\n    /* \"#utility.yul\":1089:1119   */\n  swap1\n  pop\n    /* \"#utility.yul\":1128:1161   */\n  tag_82\n    /* \"#utility.yul\":1156:1160   */\n  dup3\n    /* \"#utility.yul\":1148:1154   */\n  dup3\n    /* \"#utility.yul\":1128:1161   */\n  tag_37\n  jump\t// in\ntag_82:\n    /* \"#utility.yul\":1038:1167   */\n  swap2\n  swap1\n  pop\n  jump\t// out\n    /* \"#utility.yul\":1173:1494   */\ntag_39:\n    /* \"#utility.yul\":1260:1264   */\n  0x00\n    /* \"#utility.yul\":1350:1368   */\n  0xffffffffffffffff\n    /* \"#utility.yul\":1342:1348   */\n  dup3\n    /* \"#utility.yul\":1339:1369   */\n  gt\n    /* \"#utility.yul\":1336:1392   */\n  iszero\n  tag_84\n  jumpi\n    /* \"#utility.yul\":1372:1390   */\n  tag_85\n  tag_36\n  jump\t// in\ntag_85:\n    /* \"#utility.yul\":1336:1392   */\ntag_84:\n    /* \"#utility.yul\":1422:1426   */\n  0x20\n    /* \"#utility.yul\":1414:1420   */\n  dup3\n    /* \"#utility.yul\":1410:1427   */\n  mul\n    /* \"#utility.yul\":1402:1427   */\n  swap1\n  pop\n    /* \"#utility.yul\":1482:1486   */\n  0x20\n    /* \"#utility.yul\":1476:1480   */\n  dup2\n    /* \"#utility.yul\":1472:1487   */\n  add\n    /* \"#utility.yul\":1464:1487   */\n  swap1\n  pop\n    /* \"#utility.yul\":1173:1494   */\n  swap2\n  swap1\n  pop\n  jump\t// out\n    /* \"#utility.yul\":1500:1617   */\ntag_40:\n    /* \"#utility.yul\":1609:1610   */\n  0x00\n    /* \"#utility.yul\":1606:1607   */\n  0x00\n    /* \"#utility.yul\":1599:1611   */\n  revert\n    /* \"#utility.yul\":1623:1740   */\ntag_41:\n    /* \"#utility.yul\":1732:1733   */\n  0x00\n    /* \"#utility.yul\":1729:1730   */\n  0x00\n    /* \"#utility.yul\":1722:1734   */\n  revert\n    /* \"#utility.yul\":1746:2054   */\ntag_42:\n    /* \"#utility.yul\":1808:1812   */\n  0x00\n    /* \"#utility.yul\":1898:1916   */\n  0xffffffffffffffff\n    /* \"#utility.yul\":1890:1896   */\n  dup3\n    /* \"#utility.yul\":1887:1917   */\n  gt\n    /* \"#utility.yul\":1884:1940   */\n  iszero\n  tag_89\n  jumpi\n    /* \"#utility.yul\":1920:1938   */\n  tag_90\n  tag_36\n  jump\t// in\ntag_90:\n    /* \"#utility.yul\":1884:1940   */\ntag_89:\n    /* \"#utility.yul\":1958:1987   */\n  tag_91\n    /* \"#utility.yul\":1980:1986   */\n  dup3\n    /* \"#utility.yul\":1958:1987   */\n  tag_35\n  jump\t// in\ntag_91:\n    /* \"#utility.yul\":1950:1987   */\n  swap1\n  pop\n    /* \"#utility.yul\":2042:2046   */\n  0x20\n    /* \"#utility.yul\":2036:2040   */\n  dup2\n    /* \"#utility.yul\":2032:2047   */\n  add\n    /* \"#utility.yul\":2024:2047   */\n  swap1\n  pop\n    /* \"#utility.yul\":1746:2054   */\n  swap2\n  swap1\n  pop\n  jump\t// out\n    /* \"#utility.yul\":2060:2199   */\ntag_43:\n    /* \"#utility.yul\":2149:2155   */\n  dup3\n    /* \"#utility.yul\":2144:2147   */\n  dup2\n    /* \"#utility.yul\":2139:2142   */\n  dup4\n    /* \"#utility.yul\":2133:2156   */\n  mcopy\n    /* \"#utility.yul\":2190:2191   */\n  0x00\n    /* \"#utility.yul\":2181:2187   */\n  dup4\n    /* \"#utility.yul\":2176:2179   */\n  dup4\n    /* \"#utility.yul\":2172:2188   */\n  add\n    /* \"#utility.yul\":2165:2192   */\n  mstore\n    /* \"#utility.yul\":2060:2199   */\n  pop\n  pop\n  pop\n  jump\t// out\n    /* \"#utility.yul\":2205:2639   */\ntag_44:\n    /* \"#utility.yul\":2294:2299   */\n  0x00\n    /* \"#utility.yul\":2319:2385   */\n  tag_94\n    /* \"#utility.yul\":2335:2384   */\n  tag_95\n    /* \"#utility.yul\":2377:2383   */\n  dup5\n    /* \"#utility.yul\":2335:2384   */\n  tag_42\n  jump\t// in\ntag_95:\n    /* \"#utility.yul\":2319:2385   */\n  tag_38\n  jump\t// in\ntag_94:\n    /* \"#utility.yul\":2310:2385   */\n  swap1\n  pop\n    /* \"#utility.yul\":2408:2414   */\n  dup3\n    /* \"#utility.yul\":2401:2406   */\n  dup2\n    /* \"#utility.yul\":2394:2415   */\n  mstore\n    /* \"#utility.yul\":2446:2450   */\n  0x20\n    /* \"#utility.yul\":2439:2444   */\n  dup2\n    /* \"#utility.yul\":2435:2451   */\n  add\n    /* \"#utility.yul\":2484:2487   */\n  dup5\n    /* \"#utility.yul\":2475:2481   */\n  dup5\n    /* \"#utility.yul\":2470:2473   */\n  dup5\n    /* \"#utility.yul\":2466:2482   */\n  add\n    /* \"#utility.yul\":2463:2488   */\n  gt\n    /* \"#utility.yul\":2460:2572   */\n  iszero\n  tag_96\n  jumpi\n    /* \"#utility.yul\":2491:2570   */\n  tag_97\n  tag_41\n  jump\t// in\ntag_97:\n    /* \"#utility.yul\":2460:2572   */\ntag_96:\n    /* \"#utility.yul\":2581:2633   */\n  tag_98\n    /* \"#utility.yul\":2626:2632   */\n  dup5\n    /* \"#utility.yul\":2621:2624   */\n  dup3\n    /* \"#utility.yul\":2616:2619   */\n  dup6\n    /* \"#utility.yul\":2581:2633   */\n  tag_43\n  jump\t// in\ntag_98:\n    /* \"#utility.yul\":2300:2639   */\n  pop\n    /* \"#utility.yul\":2205:2639   */\n  swap4\n  swap3\n  pop\n  pop\n  pop\n  jump\t// out\n    /* \"#utility.yul\":2659:3014   */\ntag_45:\n    /* \"#utility.yul\":2726:2731   */\n  0x00\n    /* \"#utility.yul\":2775:2778   */\n  dup3\n    /* \"#utility.yul\":2768:2772   */\n  0x1f\n    /* \"#utility.yul\":2760:2766   */\n  dup4\n    /* \"#utility.yul\":2756:2773   */\n  add\n    /* \"#utility.yul\":2752:2779   */\n  slt\n    /* \"#utility.yul\":2742:2864   */\n  tag_100\n  jumpi\n    /* \"#utility.yul\":2783:2862   */\n  tag_101\n  tag_34\n  jump\t// in\ntag_101:\n    /* \"#utility.yul\":2742:2864   */\ntag_100:\n    /* \"#utility.yul\":2893:2899   */\n  dup2\n    /* \"#utility.yul\":2887:2900   */\n  mload\n    /* \"#utility.yul\":2918:3008   */\n  tag_102\n    /* \"#utility.yul\":3004:3007   */\n  dup5\n    /* \"#utility.yul\":2996:3002   */\n  dup3\n    /* \"#utility.yul\":2989:2993   */\n  0x20\n    /* \"#utility.yul\":2981:2987   */\n  dup7\n    /* \"#utility.yul\":2977:2994   */\n  add\n    /* \"#utility.yul\":2918:3008   */\n  tag_44\n  jump\t// in\ntag_102:\n    /* \"#utility.yul\":2909:3008   */\n  swap2\n  pop\n    /* \"#utility.yul\":2732:3014   */\n  pop\n    /* \"#utility.yul\":2659:3014   */\n  swap3\n  swap2\n  pop\n  pop\n  jump\t// out\n    /* \"#utility.yul\":3036:3996   */\ntag_46:\n    /* \"#utility.yul\":3153:3158   */\n  0x00\n    /* \"#utility.yul\":3178:3269   */\n  tag_104\n    /* \"#utility.yul\":3194:3268   */\n  tag_105\n    /* \"#utility.yul\":3261:3267   */\n  dup5\n    /* \"#utility.yul\":3194:3268   */\n  tag_39\n  jump\t// in\ntag_105:\n    /* \"#utility.yul\":3178:3269   */\n  tag_38\n  jump\t// in\ntag_104:\n    /* \"#utility.yul\":3169:3269   */\n  swap1\n  pop\n    /* \"#utility.yul\":3289:3294   */\n  dup1\n    /* \"#utility.yul\":3318:3324   */\n  dup4\n    /* \"#utility.yul\":3311:3316   */\n  dup3\n    /* \"#utility.yul\":3304:3325   */\n  mstore\n    /* \"#utility.yul\":3352:3356   */\n  0x20\n    /* \"#utility.yul\":3345:3350   */\n  dup3\n    /* \"#utility.yul\":3341:3357   */\n  add\n    /* \"#utility.yul\":3334:3357   */\n  swap1\n  pop\n    /* \"#utility.yul\":3405:3409   */\n  0x20\n    /* \"#utility.yul\":3397:3403   */\n  dup5\n    /* \"#utility.yul\":3393:3410   */\n  mul\n    /* \"#utility.yul\":3385:3391   */\n  dup4\n    /* \"#utility.yul\":3381:3411   */\n  add\n    /* \"#utility.yul\":3434:3437   */\n  dup6\n    /* \"#utility.yul\":3426:3432   */\n  dup2\n    /* \"#utility.yul\":3423:3438   */\n  gt\n    /* \"#utility.yul\":3420:3542   */\n  iszero\n  tag_106\n  jumpi\n    /* \"#utility.yul\":3453:3532   */\n  tag_107\n  tag_40\n  jump\t// in\ntag_107:\n    /* \"#utility.yul\":3420:3542   */\ntag_106:\n    /* \"#utility.yul\":3568:3574   */\n  dup4\n    /* \"#utility.yul\":3551:3990   */\ntag_108:\n    /* \"#utility.yul\":3585:3591   */\n  dup2\n    /* \"#utility.yul\":3580:3583   */\n  dup2\n    /* \"#utility.yul\":3577:3592   */\n  lt\n    /* \"#utility.yul\":3551:3990   */\n  iszero\n  tag_110\n  jumpi\n    /* \"#utility.yul\":3667:3670   */\n  dup1\n    /* \"#utility.yul\":3661:3671   */\n  mload\n    /* \"#utility.yul\":3703:3721   */\n  0xffffffffffffffff\n    /* \"#utility.yul\":3690:3701   */\n  dup2\n    /* \"#utility.yul\":3687:3722   */\n  gt\n    /* \"#utility.yul\":3684:3806   */\n  iszero\n  tag_111\n  jumpi\n    /* \"#utility.yul\":3725:3804   */\n  tag_112\n  tag_34\n  jump\t// in\ntag_112:\n    /* \"#utility.yul\":3684:3806   */\ntag_111:\n    /* \"#utility.yul\":3849:3860   */\n  dup1\n    /* \"#utility.yul\":3841:3847   */\n  dup7\n    /* \"#utility.yul\":3837:3861   */\n  add\n    /* \"#utility.yul\":3887:3945   */\n  tag_113\n    /* \"#utility.yul\":3941:3944   */\n  dup10\n    /* \"#utility.yul\":3929:3939   */\n  dup3\n    /* \"#utility.yul\":3887:3945   */\n  tag_45\n  jump\t// in\ntag_113:\n    /* \"#utility.yul\":3882:3885   */\n  dup6\n    /* \"#utility.yul\":3875:3946   */\n  mstore\n    /* \"#utility.yul\":3975:3979   */\n  0x20\n    /* \"#utility.yul\":3970:3973   */\n  dup6\n    /* \"#utility.yul\":3966:3980   */\n  add\n    /* \"#utility.yul\":3959:3980   */\n  swap5\n  pop\n    /* \"#utility.yul\":3627:3990   */\n  pop\n  pop\n    /* \"#utility.yul\":3611:3615   */\n  0x20\n    /* \"#utility.yul\":3606:3609   */\n  dup2\n    /* \"#utility.yul\":3602:3616   */\n  add\n    /* \"#utility.yul\":3595:3616   */\n  swap1\n  pop\n    /* \"#utility.yul\":3551:3990   */\n  jump(tag_108)\ntag_110:\n    /* \"#utility.yul\":3555:3576   */\n  pop\n    /* \"#utility.yul\":3159:3996   */\n  pop\n  pop\n    /* \"#utility.yul\":3036:3996   */\n  swap4\n  swap3\n  pop\n  pop\n  pop\n  jump\t// out\n    /* \"#utility.yul\":4018:4423   */\ntag_47:\n    /* \"#utility.yul\":4110:4115   */\n  0x00\n    /* \"#utility.yul\":4159:4162   */\n  dup3\n    /* \"#utility.yul\":4152:4156   */\n  0x1f\n    /* \"#utility.yul\":4144:4150   */\n  dup4\n    /* \"#utility.yul\":4140:4157   */\n  add\n    /* \"#utility.yul\":4136:4163   */\n  slt\n    /* \"#utility.yul\":4126:4248   */\n  tag_115\n  jumpi\n    /* \"#utility.yul\":4167:4246   */\n  tag_116\n  tag_34\n  jump\t// in\ntag_116:\n    /* \"#utility.yul\":4126:4248   */\ntag_115:\n    /* \"#utility.yul\":4277:4283   */\n  dup2\n    /* \"#utility.yul\":4271:4284   */\n  mload\n    /* \"#utility.yul\":4302:4417   */\n  tag_117\n    /* \"#utility.yul\":4413:4416   */\n  dup5\n    /* \"#utility.yul\":4405:4411   */\n  dup3\n    /* \"#utility.yul\":4398:4402   */\n  0x20\n    /* \"#utility.yul\":4390:4396   */\n  dup7\n    /* \"#utility.yul\":4386:4403   */\n  add\n    /* \"#utility.yul\":4302:4417   */\n  tag_46\n  jump\t// in\ntag_117:\n    /* \"#utility.yul\":4293:4417   */\n  swap2\n  pop\n    /* \"#utility.yul\":4116:4423   */\n  pop\n    /* \"#utility.yul\":4018:4423   */\n  swap3\n  swap2\n  pop\n  pop\n  jump\t// out\n    /* \"#utility.yul\":4429:5003   */\ntag_3:\n    /* \"#utility.yul\":4534:4540   */\n  0x00\n    /* \"#utility.yul\":4583:4585   */\n  0x20\n    /* \"#utility.yul\":4571:4580   */\n  dup3\n    /* \"#utility.yul\":4562:4569   */\n  dup5\n    /* \"#utility.yul\":4558:4581   */\n  sub\n    /* \"#utility.yul\":4554:4586   */\n  slt\n    /* \"#utility.yul\":4551:4670   */\n  iszero\n  tag_119\n  jumpi\n    /* \"#utility.yul\":4589:4668   */\n  tag_120\n  tag_32\n  jump\t// in\ntag_120:\n    /* \"#utility.yul\":4551:4670   */\ntag_119:\n    /* \"#utility.yul\":4730:4731   */\n  0x00\n    /* \"#utility.yul\":4719:4728   */\n  dup3\n    /* \"#utility.yul\":4715:4732   */\n  add\n    /* \"#utility.yul\":4709:4733   */\n  mload\n    /* \"#utility.yul\":4760:4778   */\n  0xffffffffffffffff\n    /* \"#utility.yul\":4752:4758   */\n  dup2\n    /* \"#utility.yul\":4749:4779   */\n  gt\n    /* \"#utility.yul\":4746:4863   */\n  iszero\n  tag_121\n  jumpi\n    /* \"#utility.yul\":4782:4861   */\n  tag_122\n  tag_33\n  jump\t// in\ntag_122:\n    /* \"#utility.yul\":4746:4863   */\ntag_121:\n    /* \"#utility.yul\":4887:4986   */\n  tag_123\n    /* \"#utility.yul\":4978:4985   */\n  dup5\n    /* \"#utility.yul\":4969:4975   */\n  dup3\n    /* \"#utility.yul\":4958:4967   */\n  dup6\n    /* \"#utility.yul\":4954:4976   */\n  add\n    /* \"#utility.yul\":4887:4986   */\n  tag_47\n  jump\t// in\ntag_123:\n    /* \"#utility.yul\":4877:4986   */\n  swap2\n  pop\n    /* \"#utility.yul\":4680:4996   */\n  pop\n    /* \"#utility.yul\":4429:5003   */\n  swap3\n  swap2\n  pop\n  pop\n  jump\t// out\n    /* \"#utility.yul\":5009:5178   */\ntag_48:\n    /* \"#utility.yul\":5093:5104   */\n  0x00\n    /* \"#utility.yul\":5127:5133   */\n  dup3\n    /* \"#utility.yul\":5122:5125   */\n  dup3\n    /* \"#utility.yul\":5115:5134   */\n  mstore\n    /* \"#utility.yul\":5167:5171   */\n  0x20\n    /* \"#utility.yul\":5162:5165   */\n  dup3\n    /* \"#utility.yul\":5158:5172   */\n  add\n    /* \"#utility.yul\":5143:5172   */\n  swap1\n  pop\n    /* \"#utility.yul\":5009:5178   */\n  swap3\n  swap2\n  pop\n  pop\n  jump\t// out\n    /* \"#utility.yul\":5184:5347   */\ntag_49:\n    /* \"#utility.yul\":5324:5339   */\n  0x4e6f2063616e6469646174657300000000000000000000000000000000000000\n    /* \"#utility.yul\":5320:5321   */\n  0x00\n    /* \"#utility.yul\":5312:5318   */\n  dup3\n    /* \"#utility.yul\":5308:5322   */\n  add\n    /* \"#utility.yul\":5301:5340   */\n  mstore\n    /* \"#utility.yul\":5184:5347   */\n  pop\n  jump\t// out\n    /* \"#utility.yul\":5353:5719   */\ntag_50:\n    /* \"#utility.yul\":5495:5498   */\n  0x00\n    /* \"#utility.yul\":5516:5583   */\n  tag_127\n    /* \"#utility.yul\":5580:5582   */\n  0x0d\n    /* \"#utility.yul\":5575:5578   */\n  dup4\n    /* \"#utility.yul\":5516:5583   */\n  tag_48\n  jump\t// in\ntag_127:\n    /* \"#utility.yul\":5509:5583   */\n  swap2\n  pop\n    /* \"#utility.yul\":5592:5685   */\n  tag_128\n    /* \"#utility.yul\":5681:5684   */\n  dup3\n    /* \"#utility.yul\":5592:5685   */\n  tag_49\n  jump\t// in\ntag_128:\n    /* \"#utility.yul\":5710:5712   */\n  0x20\n    /* \"#utility.yul\":5705:5708   */\n  dup3\n    /* \"#utility.yul\":5701:5713   */\n  add\n    /* \"#utility.yul\":5694:5713   */\n  swap1\n  pop\n    /* \"#utility.yul\":5353:5719   */\n  swap2\n  swap1\n  pop\n  jump\t// out\n    /* \"#utility.yul\":5725:6144   */\ntag_8:\n    /* \"#utility.yul\":5891:5895   */\n  0x00\n    /* \"#utility.yul\":5929:5931   */\n  0x20\n    /* \"#utility.yul\":5918:5927   */\n  dup3\n    /* \"#utility.yul\":5914:5932   */\n  add\n    /* \"#utility.yul\":5906:5932   */\n  swap1\n  pop\n    /* \"#utility.yul\":5978:5987   */\n  dup2\n    /* \"#utility.yul\":5972:5976   */\n  dup2\n    /* \"#utility.yul\":5968:5988   */\n  sub\n    /* \"#utility.yul\":5964:5965   */\n  0x00\n    /* \"#utility.yul\":5953:5962   */\n  dup4\n    /* \"#utility.yul\":5949:5966   */\n  add\n    /* \"#utility.yul\":5942:5989   */\n  mstore\n    /* \"#utility.yul\":6006:6137   */\n  tag_130\n    /* \"#utility.yul\":6132:6136   */\n  dup2\n    /* \"#utility.yul\":6006:6137   */\n  tag_50\n  jump\t// in\ntag_130:\n    /* \"#utility.yul\":5998:6137   */\n  swap1\n  pop\n    /* \"#utility.yul\":5725:6144   */\n  swap2\n  swap1\n  pop\n  jump\t// out\n    /* \"#utility.yul\":6150:6249   */\ntag_51:\n    /* \"#utility.yul\":6202:6208   */\n  0x00\n    /* \"#utility.yul\":6236:6241   */\n  dup2\n    /* \"#utility.yul\":6230:6242   */\n  mload\n    /* \"#utility.yul\":6220:6242   */\n  swap1\n  pop\n    /* \"#utility.yul\":6150:6249   */\n  swap2\n  swap1\n  pop\n  jump\t// out\n    /* \"#utility.yul\":6255:6435   */\ntag_52:\n    /* \"#utility.yul\":6303:6380   */\n  0x4e487b7100000000000000000000000000000000000000000000000000000000\n    /* \"#utility.yul\":6300:6301   */\n  0x00\n    /* \"#utility.yul\":6293:6381   */\n  mstore\n    /* \"#utility.yul\":6400:6404   */\n  0x22\n    /* \"#utility.yul\":6397:6398   */\n  0x04\n    /* \"#utility.yul\":6390:6405   */\n  mstore\n    /* \"#utility.yul\":6424:6428   */\n  0x24\n    /* \"#utility.yul\":6421:6422   */\n  0x00\n    /* \"#utility.yul\":6414:6429   */\n  revert\n    /* \"#utility.yul\":6441:6761   */\ntag_24:\n    /* \"#utility.yul\":6485:6491   */\n  0x00\n    /* \"#utility.yul\":6522:6523   */\n  0x02\n    /* \"#utility.yul\":6516:6520   */\n  dup3\n    /* \"#utility.yul\":6512:6524   */\n  div\n    /* \"#utility.yul\":6502:6524   */\n  swap1\n  pop\n    /* \"#utility.yul\":6569:6570   */\n  0x01\n    /* \"#utility.yul\":6563:6567   */\n  dup3\n    /* \"#utility.yul\":6559:6571   */\n  and\n    /* \"#utility.yul\":6590:6608   */\n  dup1\n    /* \"#utility.yul\":6580:6661   */\n  tag_134\n  jumpi\n    /* \"#utility.yul\":6646:6650   */\n  0x7f\n    /* \"#utility.yul\":6638:6644   */\n  dup3\n    /* \"#utility.yul\":6634:6651   */\n  and\n    /* \"#utility.yul\":6624:6651   */\n  swap2\n  pop\n    /* \"#utility.yul\":6580:6661   */\ntag_134:\n    /* \"#utility.yul\":6708:6710   */\n  0x20\n    /* \"#utility.yul\":6700:6706   */\n  dup3\n    /* \"#utility.yul\":6697:6711   */\n  lt\n    /* \"#utility.yul\":6677:6695   */\n  dup2\n    /* \"#utility.yul\":6674:6712   */\n  sub\n    /* \"#utility.yul\":6671:6755   */\n  tag_135\n  jumpi\n    /* \"#utility.yul\":6727:6745   */\n  tag_136\n  tag_52\n  jump\t// in\ntag_136:\n    /* \"#utility.yul\":6671:6755   */\ntag_135:\n    /* \"#utility.yul\":6492:6761   */\n  pop\n    /* \"#utility.yul\":6441:6761   */\n  swap2\n  swap1\n  pop\n  jump\t// out\n    /* \"#utility.yul\":6767:6908   */\ntag_53:\n    /* \"#utility.yul\":6816:6820   */\n  0x00\n    /* \"#utility.yul\":6839:6842   */\n  dup2\n    /* \"#utility.yul\":6831:6842   */\n  swap1\n  pop\n    /* \"#utility.yul\":6862:6865   */\n  dup2\n    /* \"#utility.yul\":6859:6860   */\n  0x00\n    /* \"#utility.yul\":6852:6866   */\n  mstore\n    /* \"#utility.yul\":6896:6900   */\n  0x20\n    /* \"#utility.yul\":6893:6894   */\n  0x00\n    /* \"#utility.yul\":6883:6901   */\n  keccak256\n    /* \"#utility.yul\":6875:6901   */\n  swap1\n  pop\n    /* \"#utility.yul\":6767:6908   */\n  swap2\n  swap1\n  pop\n  jump\t// out\n    /* \"#utility.yul\":6914:7007   */\ntag_54:\n    /* \"#utility.yul\":6951:6957   */\n  0x00\n    /* \"#utility.yul\":6998:7000   */\n  0x20\n    /* \"#utility.yul\":6993:6995   */\n  0x1f\n    /* \"#utility.yul\":6986:6991   */\n  dup4\n    /* \"#utility.yul\":6982:6996   */\n  add\n    /* \"#utility.yul\":6978:7001   */\n  div\n    /* \"#utility.yul\":6968:7001   */\n  swap1\n  pop\n    /* \"#utility.yul\":6914:7007   */\n  swap2\n  swap1\n  pop\n  jump\t// out\n    /* \"#utility.yul\":7013:7120   */\ntag_55:\n    /* \"#utility.yul\":7057:7065   */\n  0x00\n    /* \"#utility.yul\":7107:7112   */\n  dup3\n    /* \"#utility.yul\":7101:7105   */\n  dup3\n    /* \"#utility.yul\":7097:7113   */\n  shl\n    /* \"#utility.yul\":7076:7113   */\n  swap1\n  pop\n    /* \"#utility.yul\":7013:7120   */\n  swap3\n  swap2\n  pop\n  pop\n  jump\t// out\n    /* \"#utility.yul\":7126:7519   */\ntag_56:\n    /* \"#utility.yul\":7195:7201   */\n  0x00\n    /* \"#utility.yul\":7245:7246   */\n  0x08\n    /* \"#utility.yul\":7233:7243   */\n  dup4\n    /* \"#utility.yul\":7229:7247   */\n  mul\n    /* \"#utility.yul\":7268:7365   */\n  tag_141\n    /* \"#utility.yul\":7298:7364   */\n  0xffffffffffffffffffffffffffffffffffffffffffffffffffffffffffffffff\n    /* \"#utility.yul\":7287:7296   */\n  dup3\n    /* \"#utility.yul\":7268:7365   */\n  tag_55\n  jump\t// in\ntag_141:\n    /* \"#utility.yul\":7386:7425   */\n  tag_142\n    /* \"#utility.yul\":7416:7424   */\n  dup7\n    /* \"#utility.yul\":7405:7414   */\n  dup4\n    /* \"#utility.yul\":7386:7425   */\n  tag_55\n  jump\t// in\ntag_142:\n    /* \"#utility.yul\":7374:7425   */\n  swap6\n  pop\n    /* \"#utility.yul\":7458:7462   */\n  dup1\n    /* \"#utility.yul\":7454:7463   */\n  not\n    /* \"#utility.yul\":7447:7452   */\n  dup5\n    /* \"#utility.yul\":7443:7464   */\n  and\n    /* \"#utility.yul\":7434:7464   */\n  swap4\n  pop\n    /* \"#utility.yul\":7507:7511   */\n  dup1\n    /* \"#utility.yul\":7497:7505   */\n  dup7\n    /* \"#utility.yul\":7493:7512   */\n  and\n    /* \"#utility.yul\":7486:7491   */\n  dup5\n    /* \"#utility.yul\":7483:7513   */\n  or\n    /* \"#utility.yul\":7473:7513   */\n  swap3\n  pop\n    /* \"#utility.yul\":7202:7519   */\n  pop\n  pop\n    /* \"#utility.yul\":7126:7519   */\n  swap4\n  swap3\n  pop\n  pop\n  pop\n  jump\t// out\n    /* \"#utility.yul\":7525:7602   */\ntag_57:\n    /* \"#utility.yul\":7562:7569   */\n  0x00\n    /* \"#utility.yul\":7591:7596   */\n  dup2\n    /* \"#utility.yul\":7580:7596   */\n  swap1\n  pop\n    /* \"#utility.yul\":7525:7602   */\n  swap2\n  swap1\n  pop\n  jump\t// out\n    /* \"#utility.yul\":7608:7668   */\ntag_58:\n    /* \"#utility.yul\":7636:7639   */\n  0x00\n    /* \"#utility.yul\":7657:7662   */\n  dup2\n    /* \"#utility.yul\":7650:7662   */\n  swap1\n  pop\n    /* \"#utility.yul\":7608:7668   */\n  swap2\n  swap1\n  pop\n  jump\t// out\n    /* \"#utility.yul\":7674:7816   */\ntag_59:\n    /* \"#utility.yul\":7724:7733   */\n  0x00\n    /* \"#utility.yul\":7757:7810   */\n  tag_146\n    /* \"#utility.yul\":7775:7809   */\n  tag_147\n    /* \"#utility.yul\":7784:7808   */\n  tag_148\n    /* \"#utility.yul\":7802:7807   */\n  dup5\n    /* \"#utility.yul\":7784:7808   */\n  tag_57\n  jump\t// in\ntag_148:\n    /* \"#utility.yul\":7775:7809   */\n  tag_58\n  jump\t// in\ntag_147:\n    /* \"#utility.yul\":7757:7810   */\n  tag_57\n  jump\t// in\ntag_146:\n    /* \"#utility.yul\":7744:7810   */\n  swap1\n  pop\n    /* \"#utility.yul\":7674:7816   */\n  swap2\n  swap1\n  pop\n  jump\t// out\n    /* \"#utility.yul\":7822:7897   */\ntag_60:\n    /* \"#utility.yul\":7865:7868   */\n  0x00\n    /* \"#utility.yul\":7886:7891   */\n  dup2\n    /* \"#utility.yul\":7879:7891   */\n  swap1\n  pop\n    /* \"#utility.yul\":7822:7897   */\n  swap2\n  swap1\n  pop\n  jump\t// out\n    /* \"#utility.yul\":7903:8172   */\ntag_61:\n    /* \"#utility.yul\":8013:8052   */\n  tag_151\n    /* \"#utility.yul\":8044:8051   */\n  dup4\n    /* \"#utility.yul\":8013:8052   */\n  tag_59\n  jump\t// in\ntag_151:\n    /* \"#utility.yul\":8074:8165   */\n  tag_152\n    /* \"#utility.yul\":8123:8164   */\n  tag_153\n    /* \"#utility.yul\":8147:8163   */\n  dup3\n    /* \"#utility.yul\":8123:8164   */\n  tag_60\n  jump\t// in\ntag_153:\n    /* \"#utility.yul\":8115:8121   */\n  dup5\n    /* \"#utility.yul\":8108:8112   */\n  dup5\n    /* \"#utility.yul\":8102:8113   */\n  sload\n    /* \"#utility.yul\":8074:8165   */\n  tag_56\n  jump\t// in\ntag_152:\n    /* \"#utility.yul\":8068:8072   */\n  dup3\n    /* \"#utility.yul\":8061:8166   */\n  sstore\n    /* \"#utility.yul\":7979:8172   */\n  pop\n    /* \"#utility.yul\":7903:8172   */\n  pop\n  pop\n  pop\n  jump\t// out\n    /* \"#utility.yul\":8178:8251   */\ntag_62:\n    /* \"#utility.yul\":8223:8226   */\n  0x00\n    /* \"#utility.yul\":8244:8245   */\n  0x00\n    /* \"#utility.yul\":8237:8245   */\n  swap1\n  pop\n    /* \"#utility.yul\":8178:8251   */\n  swap1\n  jump\t// out\n    /* \"#utility.yul\":8257:8446   */\ntag_63:\n    /* \"#utility.yul\":8334:8366   */\n  tag_156\n  tag_62\n  jump\t// in\ntag_156:\n    /* \"#utility.yul\":8375:8440   */\n  tag_157\n    /* \"#utility.yul\":8433:8439   */\n  dup2\n    /* \"#utility.yul\":8425:8431   */\n  dup5\n    /* \"#utility.yul\":8419:8423   */\n  dup5\n    /* \"#utility.yul\":8375:8440   */\n  tag_61\n  jump\t// in\ntag_157:\n    /* \"#utility.yul\":8310:8446   */\n  pop\n    /* \"#utility.yul\":8257:8446   */\n  pop\n  pop\n  jump\t// out\n    /* \"#utility.yul\":8452:8638   */\ntag_64:\n    /* \"#utility.yul\":8512:8632   */\ntag_159:\n    /* \"#utility.yul\":8529:8532   */\n  dup2\n    /* \"#utility.yul\":8522:8527   */\n  dup2\n    /* \"#utility.yul\":8519:8533   */\n  lt\n    /* \"#utility.yul\":8512:8632   */\n  iszero\n  tag_161\n  jumpi\n    /* \"#utility.yul\":8583:8622   */\n  tag_162\n    /* \"#utility.yul\":8620:8621   */\n  0x00\n    /* \"#utility.yul\":8613:8618   */\n  dup3\n    /* \"#utility.yul\":8583:8622   */\n  tag_63\n  jump\t// in\ntag_162:\n    /* \"#utility.yul\":8556:8557   */\n  0x01\n    /* \"#utility.yul\":8549:8554   */\n  dup2\n    /* \"#utility.yul\":8545:8558   */\n  add\n    /* \"#utility.yul\":8536:8558   */\n  swap1\n  pop\n    /* \"#utility.yul\":8512:8632   */\n  jump(tag_159)\ntag_161:\n    /* \"#utility.yul\":8452:8638   */\n  pop\n  pop\n  jump\t// out\n    /* \"#utility.yul\":8644:9187   */\ntag_65:\n    /* \"#utility.yul\":8745:8747   */\n  0x1f\n    /* \"#utility.yul\":8740:8743   */\n  dup3\n    /* \"#utility.yul\":8737:8748   */\n  gt\n    /* \"#utility.yul\":8734:9180   */\n  iszero\n  tag_164\n  jumpi\n    /* \"#utility.yul\":8779:8817   */\n  tag_165\n    /* \"#utility.yul\":8811:8816   */\n  dup2\n    /* \"#utility.yul\":8779:8817   */\n  tag_53\n  jump\t// in\ntag_165:\n    /* \"#utility.yul\":8863:8892   */\n  tag_166\n    /* \"#utility.yul\":8881:8891   */\n  dup5\n    /* \"#utility.yul\":8863:8892   */\n  tag_54\n  jump\t// in\ntag_166:\n    /* \"#utility.yul\":8853:8861   */\n  dup2\n    /* \"#utility.yul\":8849:8893   */\n  add\n    /* \"#utility.yul\":9046:9048   */\n  0x20\n    /* \"#utility.yul\":9034:9044   */\n  dup6\n    /* \"#utility.yul\":9031:9049   */\n  lt\n    /* \"#utility.yul\":9028:9077   */\n  iszero\n  tag_167\n  jumpi\n    /* \"#utility.yul\":9067:9075   */\n  dup2\n    /* \"#utility.yul\":9052:9075   */\n  swap1\n  pop\n    /* \"#utility.yul\":9028:9077   */\ntag_167:\n    /* \"#utility.yul\":9090:9170   */\n  tag_168\n    /* \"#utility.yul\":9146:9168   */\n  tag_169\n    /* \"#utility.yul\":9164:9167   */\n  dup6\n    /* \"#utility.yul\":9146:9168   */\n  tag_54\n  jump\t// in\ntag_169:\n    /* \"#utility.yul\":9136:9144   */\n  dup4\n    /* \"#utility.yul\":9132:9169   */\n  add\n    /* \"#utility.yul\":9119:9130   */\n  dup3\n    /* \"#utility.yul\":9090:9170   */\n  tag_64\n  jump\t// in\ntag_168:\n    /* \"#utility.yul\":8749:9180   */\n  pop\n  pop\n    /* \"#utility.yul\":8734:9180   */\ntag_164:\n    /* \"#utility.yul\":8644:9187   */\n  pop\n  pop\n  pop\n  jump\t// out\n    /* \"#utility.yul\":9193:9310   */\ntag_66:\n    /* \"#utility.yul\":9247:9255   */\n  0x00\n    /* \"#utility.yul\":9297:9302   */\n  dup3\n    /* \"#utility.yul\":9291:9295   */\n  dup3\n    /* \"#utility.yul\":9287:9303   */\n  shr\n    /* \"#utility.yul\":9266:9303   */\n  swap1\n  pop\n    /* \"#utility.yul\":9193:9310   */\n  swap3\n  swap2\n  pop\n  pop\n  jump\t// out\n    /* \"#utility.yul\":9316:9485   */\ntag_67:\n    /* \"#utility.yul\":9360:9366   */\n  0x00\n    /* \"#utility.yul\":9393:9444   */\n  tag_172\n    /* \"#utility.yul\":9441:9442   */\n  0x00\n    /* \"#utility.yul\":9437:9443   */\n  not\n    /* \"#utility.yul\":9429:9434   */\n  dup5\n    /* \"#utility.yul\":9426:9427   */\n  0x08\n    /* \"#utility.yul\":9422:9435   */\n  mul\n    /* \"#utility.yul\":9393:9444   */\n  tag_66\n  jump\t// in\ntag_172:\n    /* \"#utility.yul\":9389:9445   */\n  not\n    /* \"#utility.yul\":9474:9478   */\n  dup1\n    /* \"#utility.yul\":9468:9472   */\n  dup4\n    /* \"#utility.yul\":9464:9479   */\n  and\n    /* \"#utility.yul\":9454:9479   */\n  swap2\n  pop\n    /* \"#utility.yul\":9367:9485   */\n  pop\n    /* \"#utility.yul\":9316:9485   */\n  swap3\n  swap2\n  pop\n  pop\n  jump\t// out\n    /* \"#utility.yul\":9490:9785   */\ntag_68:\n    /* \"#utility.yul\":9566:9570   */\n  0x00\n    /* \"#utility.yul\":9712:9741   */\n  tag_174\n    /* \"#utility.yul\":9737:9740   */\n  dup4\n    /* \"#utility.yul\":9731:9735   */\n  dup4\n    /* \"#utility.yul\":9712:9741   */\n  tag_67\n  jump\t// in\ntag_174:\n    /* \"#utility.yul\":9704:9741   */\n  swap2\n  pop\n    /* \"#utility.yul\":9774:9777   */\n  dup3\n    /* \"#utility.yul\":9771:9772   */\n  0x02\n    /* \"#utility.yul\":9767:9778   */\n  mul\n    /* \"#utility.yul\":9761:9765   */\n  dup3\n    /* \"#utility.yul\":9758:9779   */\n  or\n    /* \"#utility.yul\":9750:9779   */\n  swap1\n  pop\n    /* \"#utility.yul\":9490:9785   */\n  swap3\n  swap2\n  pop\n  pop\n  jump\t// out\n    /* \"#utility.yul\":9790:11185   */\ntag_16:\n    /* \"#utility.yul\":9907:9944   */\n  tag_176\n    /* \"#utility.yul\":9940:9943   */\n  dup3\n    /* \"#utility.yul\":9907:9944   */\n  tag_51\n  jump\t// in\ntag_176:\n    /* \"#utility.yul\":10009:10027   */\n  0xffffffffffffffff\n    /* \"#utility.yul\":10001:10007   */\n  dup2\n    /* \"#utility.yul\":9998:10028   */\n  gt\n    /* \"#utility.yul\":9995:10051   */\n  iszero\n  tag_177\n  jumpi\n    /* \"#utility.yul\":10031:10049   */\n  tag_178\n  tag_36\n  jump\t// in\ntag_178:\n    /* \"#utility.yul\":9995:10051   */\ntag_177:\n    /* \"#utility.yul\":10075:10113   */\n  tag_179\n    /* \"#utility.yul\":10107:10111   */\n  dup3\n    /* \"#utility.yul\":10101:10112   */\n  sload\n    /* \"#utility.yul\":10075:10113   */\n  tag_24\n  jump\t// in\ntag_179:\n    /* \"#utility.yul\":10160:10227   */\n  tag_180\n    /* \"#utility.yul\":10220:10226   */\n  dup3\n    /* \"#utility.yul\":10212:10218   */\n  dup3\n    /* \"#utility.yul\":10206:10210   */\n  dup6\n    /* \"#utility.yul\":10160:10227   */\n  tag_65\n  jump\t// in\ntag_180:\n    /* \"#utility.yul\":10254:10255   */\n  0x00\n    /* \"#utility.yul\":10278:10282   */\n  0x20\n    /* \"#utility.yul\":10265:10282   */\n  swap1\n  pop\n    /* \"#utility.yul\":10310:10312   */\n  0x1f\n    /* \"#utility.yul\":10302:10308   */\n  dup4\n    /* \"#utility.yul\":10299:10313   */\n  gt\n    /* \"#utility.yul\":10327:10328   */\n  0x01\n    /* \"#utility.yul\":10322:10940   */\n  dup2\n  eq\n  tag_182\n  jumpi\n    /* \"#utility.yul\":10984:10985   */\n  0x00\n    /* \"#utility.yul\":11001:11007   */\n  dup5\n    /* \"#utility.yul\":10998:11075   */\n  iszero\n  tag_183\n  jumpi\n    /* \"#utility.yul\":11050:11059   */\n  dup3\n    /* \"#utility.yul\":11045:11048   */\n  dup8\n    /* \"#utility.yul\":11041:11060   */\n  add\n    /* \"#utility.yul\":11035:11061   */\n  mload\n    /* \"#utility.yul\":11026:11061   */\n  swap1\n  pop\n    /* \"#utility.yul\":10998:11075   */\ntag_183:\n    /* \"#utility.yul\":11101:11168   */\n  tag_184\n    /* \"#utility.yul\":11161:11167   */\n  dup6\n    /* \"#utility.yul\":11154:11159   */\n  dup3\n    /* \"#utility.yul\":11101:11168   */\n  tag_68\n  jump\t// in\ntag_184:\n    /* \"#utility.yul\":11095:11099   */\n  dup7\n    /* \"#utility.yul\":11088:11169   */\n  sstore\n    /* \"#utility.yul\":10957:11179   */\n  pop\n    /* \"#utility.yul\":10292:11179   */\n  jump(tag_181)\n    /* \"#utility.yul\":10322:10940   */\ntag_182:\n    /* \"#utility.yul\":10374:10378   */\n  0x1f\n    /* \"#utility.yul\":10370:10379   */\n  not\n    /* \"#utility.yul\":10362:10368   */\n  dup5\n    /* \"#utility.yul\":10358:10380   */\n  and\n    /* \"#utility.yul\":10408:10445   */\n  tag_185\n    /* \"#utility.yul\":10440:10444   */\n  dup7\n    /* \"#utility.yul\":10408:10445   */\n  tag_53\n  jump\t// in\ntag_185:\n    /* \"#utility.yul\":10467:10468   */\n  0x00\n    /* \"#utility.yul\":10481:10689   */\ntag_186:\n    /* \"#utility.yul\":10495:10502   */\n  dup3\n    /* \"#utility.yul\":10492:10493   */\n  dup2\n    /* \"#utility.yul\":10489:10503   */\n  lt\n    /* \"#utility.yul\":10481:10689   */\n  iszero\n  tag_188\n  jumpi\n    /* \"#utility.yul\":10574:10583   */\n  dup5\n    /* \"#utility.yul\":10569:10572   */\n  dup10\n    /* \"#utility.yul\":10565:10584   */\n  add\n    /* \"#utility.yul\":10559:10585   */\n  mload\n    /* \"#utility.yul\":10551:10557   */\n  dup3\n    /* \"#utility.yul\":10544:10586   */\n  sstore\n    /* \"#utility.yul\":10625:10626   */\n  0x01\n    /* \"#utility.yul\":10617:10623   */\n  dup3\n    /* \"#utility.yul\":10613:10627   */\n  add\n    /* \"#utility.yul\":10603:10627   */\n  swap2\n  pop\n    /* \"#utility.yul\":10672:10674   */\n  0x20\n    /* \"#utility.yul\":10661:10670   */\n  dup6\n    /* \"#utility.yul\":10657:10675   */\n  add\n    /* \"#utility.yul\":10644:10675   */\n  swap5\n  pop\n    /* \"#utility.yul\":10518:10522   */\n  0x20\n    /* \"#utility.yul\":10515:10516   */\n  dup2\n    /* \"#utility.yul\":10511:10523   */\n  add\n    /* \"#utility.yul\":10506:10523   */\n  swap1\n  pop\n    /* \"#utility.yul\":10481:10689   */\n  jump(tag_186)\ntag_188:\n    /* \"#utility.yul\":10717:10723   */\n  dup7\n    /* \"#utility.yul\":10708:10715   */\n  dup4\n    /* \"#utility.yul\":10705:10724   */\n  lt\n    /* \"#utility.yul\":10702:10881   */\n  iszero\n  tag_189\n  jumpi\n    /* \"#utility.yul\":10775:10784   */\n  dup5\n    /* \"#utility.yul\":10770:10773   */\n  dup10\n    /* \"#utility.yul\":10766:10785   */\n  add\n    /* \"#utility.yul\":10760:10786   */\n  mload\n    /* \"#utility.yul\":10818:10866   */\n  tag_190\n    /* \"#utility.yul\":10860:10864   */\n  0x1f\n    /* \"#utility.yul\":10852:10858   */\n  dup10\n    /* \"#utility.yul\":10848:10865   */\n  and\n    /* \"#utility.yul\":10837:10846   */\n  dup3\n    /* \"#utility.yul\":10818:10866   */\n  tag_67\n  jump\t// in\ntag_190:\n    /* \"#utility.yul\":10810:10816   */\n  dup4\n    /* \"#utility.yul\":10803:10867   */\n  sstore\n    /* \"#utility.yul\":10725:10881   */\n  pop\n    /* \"#utility.yul\":10702:10881   */\ntag_189:\n    /* \"#utility.yul\":10927:10928   */\n  0x01\n    /* \"#utility.yul\":10923:10924   */\n  0x02\n    /* \"#utility.yul\":10915:10921   */\n  dup9\n    /* \"#utility.yul\":10911:10925   */\n  mul\n    /* \"#utility.yul\":10907:10929   */\n  add\n    /* \"#utility.yul\":10901:10905   */\n  dup9\n    /* \"#utility.yul\":10894:10930   */\n  sstore\n    /* \"#utility.yul\":10329:10940   */\n  pop\n  pop\n  pop\n    /* \"#utility.yul\":10292:11179   */\ntag_181:\n  pop\n    /* \"#utility.yul\":9882:11185   */\n  pop\n  pop\n  pop\n    /* \"#utility.yul\":9790:11185   */\n  pop\n  pop\n  jump\t// out\n    /* \"chapter06/voting.sol\":61:995  contract Voting {... */\ntag_11:\n  dataSize(sub_0)\n  dup1\n  dataOffset(sub_0)\n  0x00\n  codecopy\n  0x00\n  return\nstop\n\nsub_0: assembly {\n        /* \"chapter06/voting.sol\":61:995  contract Voting {... */\n      mstore(0x40, 0x80)\n      callvalue\n      dup1\n      iszero\n      tag_1\n      jumpi\n      revert(0x00, 0x00)\n    tag_1:\n      pop\n      jumpi(tag_2, lt(calldatasize, 0x04))\n      shr(0xe0, calldataload(0x00))\n      dup1\n      0x0121b93f\n      eq\n      tag_3\n      jumpi\n      dup1\n      0x09eef43e\n      eq\n      tag_4\n      jumpi\n      dup1\n      0x3477ee2e\n      eq\n      tag_5\n      jumpi\n      dup1\n      0x35b8e820\n      eq\n      tag_6\n      jumpi\n      dup1\n      0x3866965c\n      eq\n      tag_7\n      jumpi\n      dup1\n      0x5df81330\n      eq\n      tag_8\n      jumpi\n    tag_2:\n      revert(0x00, 0x00)\n        /* \"chapter06/voting.sol\":443:751  function vote(uint256 candidate) public {... */\n    tag_3:\n      tag_9\n      0x04\n      dup1\n      calldatasize\n      sub\n      dup2\n      add\n      swap1\n      tag_10\n      swap2\n      swap1\n      tag_11\n      jump\t// in\n    tag_10:\n      tag_12\n      jump\t// in\n    tag_9:\n      stop\n        /* \"chapter06/voting.sol\":164:204  mapping(address => bool) public hasVoted */\n    tag_4:\n      tag_13\n      0x04\n      dup1\n      calldatasize\n      sub\n      dup2\n      add\n      swap1\n      tag_14\n      swap2\n      swap1\n      tag_15\n      jump\t// in\n    tag_14:\n      tag_16\n      jump\t// in\n    tag_13:\n      mload(0x40)\n      tag_17\n      swap2\n      swap1\n      tag_18\n      jump\t// in\n    tag_17:\n      mload(0x40)\n      dup1\n      swap2\n      sub\n      swap1\n      return\n        /* \"chapter06/voting.sol\":84:110  string[] public candidates */\n    tag_5:\n      tag_19\n      0x04\n      dup1\n      calldatasize\n      sub\n      dup2\n      add\n      swap1\n      tag_20\n      swap2\n      swap1\n      tag_11\n      jump\t// in\n    tag_20:\n      tag_21\n      jump\t// in\n    tag_19:\n      mload(0x40)\n      tag_22\n      swap2\n      swap1\n      tag_23\n      jump\t// in\n    tag_22:\n      mload(0x40)\n      dup1\n      swap2\n      sub\n      swap1\n      return\n        /* \"chapter06/voting.sol\":863:992  function getCandidate(uint256 i) public view returns (string memory, uint256) {... */\n    tag_6:\n      tag_24\n      0x04\n      dup1\n      calldatasize\n      sub\n      dup2\n      add\n      swap1\n      tag_25\n      swap2\n      swap1\n      tag_11\n      jump\t// in\n    tag_25:\n      tag_26\n      jump\t// in\n    tag_24:\n      mload(0x40)\n      tag_27\n      swap3\n      swap2\n      swap1\n      tag_28\n      jump\t// in\n    tag_27:\n      mload(0x40)\n      dup1\n      swap2\n      sub\n      swap1\n      return\n        /* \"chapter06/voting.sol\":757:857  function totalCandidates() public view returns (uint256) {... */\n    tag_7:\n      tag_29\n      tag_30\n      jump\t// in\n    tag_29:\n      mload(0x40)\n      tag_31\n      swap2\n      swap1\n      tag_32\n      jump\t// in\n    tag_31:\n      mload(0x40)\n      dup1\n      swap2\n      sub\n      swap1\n      return\n        /* \"chapter06/voting.sol\":117:157  mapping(uint256 => uint256) public votes */\n    tag_8:\n      tag_33\n      0x04\n      dup1\n      calldatasize\n      sub\n      dup2\n      add\n      swap1\n      tag_34\n      swap2\n      swap1\n      tag_11\n      jump\t// in\n    tag_34:\n      tag_35\n      jump\t// in\n    tag_33:\n      mload(0x40)\n      tag_36\n      swap2\n      swap1\n      tag_32\n      jump\t// in\n    tag_36:\n      mload(0x40)\n      dup1\n      swap2\n      sub\n      swap1\n      return\n        /* \"chapter06/voting.sol\":443:751  function vote(uint256 candidate) public {... */\n    tag_12:\n        /* \"chapter06/voting.sol\":514:524  candidates */\n      0x00\n        /* \"chapter06/voting.sol\":514:531  candidates.length */\n      dup1\n      sload\n      swap1\n      pop\n        /* \"chapter06/voting.sol\":502:511  candidate */\n      dup2\n        /* \"chapter06/voting.sol\":502:531  candidate < candidates.length */\n      lt\n        /* \"chapter06/voting.sol\":494:553  require(candidate < candidates.length, \"Invalid candidate\") */\n      tag_38\n      jumpi\n      mload(0x40)\n      0x08c379a000000000000000000000000000000000000000000000000000000000\n      dup2\n      mstore\n      0x04\n      add\n      tag_39\n      swap1\n      tag_40\n      jump\t// in\n    tag_39:\n      mload(0x40)\n      dup1\n      swap2\n      sub\n      swap1\n      revert\n    tag_38:\n        /* \"chapter06/voting.sol\":573:581  hasVoted */\n      0x02\n        /* \"chapter06/voting.sol\":573:593  hasVoted[msg.sender] */\n      0x00\n        /* \"chapter06/voting.sol\":582:592  msg.sender */\n      caller\n        /* \"chapter06/voting.sol\":573:593  hasVoted[msg.sender] */\n      0xffffffffffffffffffffffffffffffffffffffff\n      and\n      0xffffffffffffffffffffffffffffffffffffffff\n      and\n      dup2\n      mstore\n      0x20\n      add\n      swap1\n      dup2\n      mstore\n      0x20\n      add\n      0x00\n      keccak256\n      0x00\n      swap1\n      sload\n      swap1\n      0x0100\n      exp\n      swap1\n      div\n      0xff\n      and\n        /* \"chapter06/voting.sol\":572:593  !hasVoted[msg.sender] */\n      iszero\n        /* \"chapter06/voting.sol\":564:611  require(!hasVoted[msg.sender], \"Already voted\") */\n      tag_41\n      jumpi\n      mload(0x40)\n      0x08c379a000000000000000000000000000000000000000000000000000000000\n      dup2\n      mstore\n      0x04\n      add\n      tag_42\n      swap1\n      tag_43\n      jump\t// in\n    tag_42:\n      mload(0x40)\n      dup1\n      swap2\n      sub\n      swap1\n      revert\n    tag_41:\n        /* \"chapter06/voting.sol\":645:649  true */\n      0x01\n        /* \"chapter06/voting.sol\":622:630  hasVoted */\n      0x02\n        /* \"chapter06/voting.sol\":622:642  hasVoted[msg.sender] */\n      0x00\n        /* \"chapter06/voting.sol\":631:641  msg.sender */\n      caller\n        /* \"chapter06/voting.sol\":622:642  hasVoted[msg.sender] */\n      0xffffffffffffffffffffffffffffffffffffffff\n      and\n      0xffffffffffffffffffffffffffffffffffffffff\n      and\n      dup2\n      mstore\n      0x20\n      add\n      swap1\n      dup2\n      mstore\n      0x20\n      add\n      0x00\n      keccak256\n      0x00\n        /* \"chapter06/voting.sol\":622:649  hasVoted[msg.sender] = true */\n      0x0100\n      exp\n      dup2\n      sload\n      dup2\n      0xff\n      mul\n      not\n      and\n      swap1\n      dup4\n      iszero\n      iszero\n      mul\n      or\n      swap1\n      sstore\n      pop\n        /* \"chapter06/voting.sol\":680:681  1 */\n      0x01\n        /* \"chapter06/voting.sol\":660:665  votes */\n      dup1\n        /* \"chapter06/voting.sol\":660:676  votes[candidate] */\n      0x00\n        /* \"chapter06/voting.sol\":666:675  candidate */\n      dup4\n        /* \"chapter06/voting.sol\":660:676  votes[candidate] */\n      dup2\n      mstore\n      0x20\n      add\n      swap1\n      dup2\n      mstore\n      0x20\n      add\n      0x00\n      keccak256\n      0x00\n        /* \"chapter06/voting.sol\":660:681  votes[candidate] += 1 */\n      dup3\n      dup3\n      sload\n      tag_44\n      swap2\n      swap1\n      tag_45\n      jump\t// in\n    tag_44:\n      swap3\n      pop\n      pop\n      dup2\n      swap1\n      sstore\n      pop\n        /* \"chapter06/voting.sol\":715:724  candidate */\n      dup1\n        /* \"chapter06/voting.sol\":703:713  msg.sender */\n      caller\n        /* \"chapter06/voting.sol\":697:743  Voted(msg.sender, candidate, votes[candidate]) */\n      0xffffffffffffffffffffffffffffffffffffffff\n      and\n      0xea66f58e474bc09f580000e81f31b334d171db387d0c6098ba47bd897741679b\n        /* \"chapter06/voting.sol\":726:731  votes */\n      0x01\n        /* \"chapter06/voting.sol\":726:742  votes[candidate] */\n      0x00\n        /* \"chapter06/voting.sol\":732:741  candidate */\n      dup6\n        /* \"chapter06/voting.sol\":726:742  votes[candidate] */\n      dup2\n      mstore\n      0x20\n      add\n      swap1\n      dup2\n      mstore\n      0x20\n      add\n      0x00\n      keccak256\n      sload\n        /* \"chapter06/voting.sol\":697:743  Voted(msg.sender, candidate, votes[candidate]) */\n      mload(0x40)\n      tag_46\n      swap2\n      swap1\n      tag_32\n      jump\t// in\n    tag_46:\n      mload(0x40)\n      dup1\n      swap2\n      sub\n      swap1\n      log3\n        /* \"chapter06/voting.sol\":443:751  function vote(uint256 candidate) public {... */\n      pop\n      jump\t// out\n        /* \"chapter06/voting.sol\":164:204  mapping(address => bool) public hasVoted */\n    tag_16:\n      mstore(0x20, 0x02)\n      dup1\n      0x00\n      mstore\n      keccak256(0x00, 0x40)\n      0x00\n      swap2\n      pop\n      sload\n      swap1\n      0x0100\n      exp\n      swap1\n      div\n      0xff\n      and\n      dup2\n      jump\t// out\n        /* \"chapter06/voting.sol\":84:110  string[] public candidates */\n    tag_21:\n      0x00\n      dup2\n      dup2\n      sload\n      dup2\n      lt\n      tag_47\n      jumpi\n      0x00\n      dup1\n      revert\n    tag_47:\n      swap1\n      0x00\n      mstore\n      keccak256(0x00, 0x20)\n      add\n      0x00\n      swap2\n      pop\n      swap1\n      pop\n      dup1\n      sload\n      tag_49\n      swap1\n      tag_50\n      jump\t// in\n    tag_49:\n      dup1\n      0x1f\n      add\n      0x20\n      dup1\n      swap2\n      div\n      mul\n      0x20\n      add\n      mload(0x40)\n      swap1\n      dup2\n      add\n      0x40\n      mstore\n      dup1\n      swap3\n      swap2\n      swap1\n      dup2\n      dup2\n      mstore\n      0x20\n      add\n      dup3\n      dup1\n      sload\n      tag_51\n      swap1\n      tag_50\n      jump\t// in\n    tag_51:\n      dup1\n      iszero\n      tag_52\n      jumpi\n      dup1\n      0x1f\n      lt\n      tag_53\n      jumpi\n      0x0100\n      dup1\n      dup4\n      sload\n      div\n      mul\n      dup4\n      mstore\n      swap2\n      0x20\n      add\n      swap2\n      jump(tag_52)\n    tag_53:\n      dup3\n      add\n      swap2\n      swap1\n      0x00\n      mstore\n      keccak256(0x00, 0x20)\n      swap1\n    tag_54:\n      dup2\n      sload\n      dup2\n      mstore\n      swap1\n      0x01\n      add\n      swap1\n      0x20\n      add\n      dup1\n      dup4\n      gt\n      tag_54\n      jumpi\n      dup3\n      swap1\n      sub\n      0x1f\n      and\n      dup3\n      add\n      swap2\n    tag_52:\n      pop\n      pop\n      pop\n      pop\n      pop\n      dup2\n      jump\t// out\n        /* \"chapter06/voting.sol\":863:992  function getCandidate(uint256 i) public view returns (string memory, uint256) {... */\n    tag_26:\n        /* \"chapter06/voting.sol\":917:930  string memory */\n      0x60\n        /* \"chapter06/voting.sol\":932:939  uint256 */\n      0x00\n        /* \"chapter06/voting.sol\":960:970  candidates */\n      0x00\n        /* \"chapter06/voting.sol\":971:972  i */\n      dup4\n        /* \"chapter06/voting.sol\":960:973  candidates[i] */\n      dup2\n      sload\n      dup2\n      lt\n      tag_56\n      jumpi\n      tag_57\n      tag_58\n      jump\t// in\n    tag_57:\n    tag_56:\n      swap1\n      0x00\n      mstore\n      keccak256(0x00, 0x20)\n      add\n        /* \"chapter06/voting.sol\":975:980  votes */\n      0x01\n        /* \"chapter06/voting.sol\":975:983  votes[i] */\n      0x00\n        /* \"chapter06/voting.sol\":981:982  i */\n      dup6\n        /* \"chapter06/voting.sol\":975:983  votes[i] */\n      dup2\n      mstore\n      0x20\n      add\n      swap1\n      dup2\n      mstore\n      0x20\n      add\n      0x00\n      keccak256\n      sload\n        /* \"chapter06/voting.sol\":952:984  return (candidates[i], votes[i]) */\n      dup2\n      dup1\n      sload\n      tag_60\n      swap1\n      tag_50\n      jump\t// in\n    tag_60:\n      dup1\n      0x1f\n      add\n      0x20\n      dup1\n      swap2\n      div\n      mul\n      0x20\n      add\n      mload(0x40)\n      swap1\n      dup2\n      add\n      0x40\n      mstore\n      dup1\n      swap3\n      swap2\n      swap1\n      dup2\n      dup2\n      mstore\n      0x20\n      add\n      dup3\n      dup1\n      sload\n      tag_61\n      swap1\n      tag_50\n      jump\t// in\n    tag_61:\n      dup1\n      iszero\n      tag_62\n      jumpi\n      dup1\n      0x1f\n      lt\n      tag_63\n      jumpi\n      0x0100\n      dup1\n      dup4\n      sload\n      div\n      mul\n      dup4\n      mstore\n      swap2\n      0x20\n      add\n      swap2\n      jump(tag_62)\n    tag_63:\n      dup3\n      add\n      swap2\n      swap1\n      0x00\n      mstore\n      keccak256(0x00, 0x20)\n      swap1\n    tag_64:\n      dup2\n      sload\n      dup2\n      mstore\n      swap1\n      0x01\n      add\n      swap1\n      0x20\n      add\n      dup1\n      dup4\n      gt\n      tag_64\n      jumpi\n      dup3\n      swap1\n      sub\n      0x1f\n      and\n      dup3\n      add\n      swap2\n    tag_62:\n      pop\n      pop\n      pop\n      pop\n      pop\n      swap2\n      pop\n      swap2\n      pop\n      swap2\n      pop\n        /* \"chapter06/voting.sol\":863:992  function getCandidate(uint256 i) public view returns (string memory, uint256) {... */\n      swap2\n      pop\n      swap2\n      jump\t// out\n        /* \"chapter06/voting.sol\":757:857  function totalCandidates() public view returns (uint256) {... */\n    tag_30:\n        /* \"chapter06/voting.sol\":805:812  uint256 */\n      0x00\n        /* \"chapter06/voting.sol\":832:842  candidates */\n      0x00\n        /* \"chapter06/voting.sol\":832:849  candidates.length */\n      dup1\n      sload\n      swap1\n      pop\n        /* \"chapter06/voting.sol\":825:849  return candidates.length */\n      swap1\n      pop\n        /* \"chapter06/voting.sol\":757:857  function totalCandidates() public view returns (uint256) {... */\n      swap1\n      jump\t// out\n        /* \"chapter06/voting.sol\":117:157  mapping(uint256 => uint256) public votes */\n    tag_35:\n      mstore(0x20, 0x01)\n      dup1\n      0x00\n      mstore\n      keccak256(0x00, 0x40)\n      0x00\n      swap2\n      pop\n      swap1\n      pop\n      sload\n      dup2\n      jump\t// out\n        /* \"#utility.yul\":88:205   */\n    tag_67:\n        /* \"#utility.yul\":197:198   */\n      0x00\n        /* \"#utility.yul\":194:195   */\n      0x00\n        /* \"#utility.yul\":187:199   */\n      revert\n        /* \"#utility.yul\":334:411   */\n    tag_69:\n        /* \"#utility.yul\":371:378   */\n      0x00\n        /* \"#utility.yul\":400:405   */\n      dup2\n        /* \"#utility.yul\":389:405   */\n      swap1\n      pop\n        /* \"#utility.yul\":334:411   */\n      swap2\n      swap1\n      pop\n      jump\t// out\n        /* \"#utility.yul\":417:539   */\n    tag_70:\n        /* \"#utility.yul\":490:514   */\n      tag_96\n        /* \"#utility.yul\":508:513   */\n      dup2\n        /* \"#utility.yul\":490:514   */\n      tag_69\n      jump\t// in\n    tag_96:\n        /* \"#utility.yul\":483:488   */\n      dup2\n        /* \"#utility.yul\":480:515   */\n      eq\n        /* \"#utility.yul\":470:533   */\n      tag_97\n      jumpi\n        /* \"#utility.yul\":529:530   */\n      0x00\n        /* \"#utility.yul\":526:527   */\n      0x00\n        /* \"#utility.yul\":519:531   */\n      revert\n        /* \"#utility.yul\":470:533   */\n    tag_97:\n        /* \"#utility.yul\":417:539   */\n      pop\n      jump\t// out\n        /* \"#utility.yul\":545:684   */\n    tag_71:\n        /* \"#utility.yul\":591:596   */\n      0x00\n        /* \"#utility.yul\":629:635   */\n      dup2\n        /* \"#utility.yul\":616:636   */\n      calldataload\n        /* \"#utility.yul\":607:636   */\n      swap1\n      pop\n        /* \"#utility.yul\":645:678   */\n      tag_99\n        /* \"#utility.yul\":672:677   */\n      dup2\n        /* \"#utility.yul\":645:678   */\n      tag_70\n      jump\t// in\n    tag_99:\n        /* \"#utility.yul\":545:684   */\n      swap3\n      swap2\n      pop\n      pop\n      jump\t// out\n        /* \"#utility.yul\":690:1019   */\n    tag_11:\n        /* \"#utility.yul\":749:755   */\n      0x00\n        /* \"#utility.yul\":798:800   */\n      0x20\n        /* \"#utility.yul\":786:795   */\n      dup3\n        /* \"#utility.yul\":777:784   */\n      dup5\n        /* \"#utility.yul\":773:796   */\n      sub\n        /* \"#utility.yul\":769:801   */\n      slt\n        /* \"#utility.yul\":766:885   */\n      iszero\n      tag_101\n      jumpi\n        /* \"#utility.yul\":804:883   */\n      tag_102\n      tag_67\n      jump\t// in\n    tag_102:\n        /* \"#utility.yul\":766:885   */\n    tag_101:\n        /* \"#utility.yul\":924:925   */\n      0x00\n        /* \"#utility.yul\":949:1002   */\n      tag_103\n        /* \"#utility.yul\":994:1001   */\n      dup5\n        /* \"#utility.yul\":985:991   */\n      dup3\n        /* \"#utility.yul\":974:983   */\n      dup6\n        /* \"#utility.yul\":970:992   */\n      add\n        /* \"#utility.yul\":949:1002   */\n      tag_71\n      jump\t// in\n    tag_103:\n        /* \"#utility.yul\":939:1002   */\n      swap2\n      pop\n        /* \"#utility.yul\":895:1012   */\n      pop\n        /* \"#utility.yul\":690:1019   */\n      swap3\n      swap2\n      pop\n      pop\n      jump\t// out\n        /* \"#utility.yul\":1025:1151   */\n    tag_72:\n        /* \"#utility.yul\":1062:1069   */\n      0x00\n        /* \"#utility.yul\":1102:1144   */\n      0xffffffffffffffffffffffffffffffffffffffff\n        /* \"#utility.yul\":1095:1100   */\n      dup3\n        /* \"#utility.yul\":1091:1145   */\n      and\n        /* \"#utility.yul\":1080:1145   */\n      swap1\n      pop\n        /* \"#utility.yul\":1025:1151   */\n      swap2\n      swap1\n      pop\n      jump\t// out\n        /* \"#utility.yul\":1157:1253   */\n    tag_73:\n        /* \"#utility.yul\":1194:1201   */\n      0x00\n        /* \"#utility.yul\":1223:1247   */\n      tag_106\n        /* \"#utility.yul\":1241:1246   */\n      dup3\n        /* \"#utility.yul\":1223:1247   */\n      tag_72\n      jump\t// in\n    tag_106:\n        /* \"#utility.yul\":1212:1247   */\n      swap1\n      pop\n        /* \"#utility.yul\":1157:1253   */\n      swap2\n      swap1\n      pop\n      jump\t// out\n        /* \"#utility.yul\":1259:1381   */\n    tag_74:\n        /* \"#utility.yul\":1332:1356   */\n      tag_108\n        /* \"#utility.yul\":1350:1355   */\n      dup2\n        /* \"#utility.yul\":1332:1356   */\n      tag_73\n      jump\t// in\n    tag_108:\n        /* \"#utility.yul\":1325:1330   */\n      dup2\n        /* \"#utility.yul\":1322:1357   */\n      eq\n        /* \"#utility.yul\":1312:1375   */\n      tag_109\n      jumpi\n        /* \"#utility.yul\":1371:1372   */\n      0x00\n        /* \"#utility.yul\":1368:1369   */\n      0x00\n        /* \"#utility.yul\":1361:1373   */\n      revert\n        /* \"#utility.yul\":1312:1375   */\n    tag_109:\n        /* \"#utility.yul\":1259:1381   */\n      pop\n      jump\t// out\n        /* \"#utility.yul\":1387:1526   */\n    tag_75:\n        /* \"#utility.yul\":1433:1438   */\n      0x00\n        /* \"#utility.yul\":1471:1477   */\n      dup2\n        /* \"#utility.yul\":1458:1478   */\n      calldataload\n        /* \"#utility.yul\":1449:1478   */\n      swap1\n      pop\n        /* \"#utility.yul\":1487:1520   */\n      tag_111\n        /* \"#utility.yul\":1514:1519   */\n      dup2\n        /* \"#utility.yul\":1487:1520   */\n      tag_74\n      jump\t// in\n    tag_111:\n        /* \"#utility.yul\":1387:1526   */\n      swap3\n      swap2\n      pop\n      pop\n      jump\t// out\n        /* \"#utility.yul\":1532:1861   */\n    tag_15:\n        /* \"#utility.yul\":1591:1597   */\n      0x00\n        /* \"#utility.yul\":1640:1642   */\n      0x20\n        /* \"#utility.yul\":1628:1637   */\n      dup3\n        /* \"#utility.yul\":1619:1626   */\n      dup5\n        /* \"#utility.yul\":1615:1638   */\n      sub\n        /* \"#utility.yul\":1611:1643   */\n      slt\n        /* \"#utility.yul\":1608:1727   */\n      iszero\n      tag_113\n      jumpi\n        /* \"#utility.yul\":1646:1725   */\n      tag_114\n      tag_67\n      jump\t// in\n    tag_114:\n        /* \"#utility.yul\":1608:1727   */\n    tag_113:\n        /* \"#utility.yul\":1766:1767   */\n      0x00\n        /* \"#utility.yul\":1791:1844   */\n      tag_115\n        /* \"#utility.yul\":1836:1843   */\n      dup5\n        /* \"#utility.yul\":1827:1833   */\n      dup3\n        /* \"#utility.yul\":1816:1825   */\n      dup6\n        /* \"#utility.yul\":1812:1834   */\n      add\n        /* \"#utility.yul\":1791:1844   */\n      tag_75\n      jump\t// in\n    tag_115:\n        /* \"#utility.yul\":1781:1844   */\n      swap2\n      pop\n        /* \"#utility.yul\":1737:1854   */\n      pop\n        /* \"#utility.yul\":1532:1861   */\n      swap3\n      swap2\n      pop\n      pop\n      jump\t// out\n        /* \"#utility.yul\":1867:1957   */\n    tag_76:\n        /* \"#utility.yul\":1901:1908   */\n      0x00\n        /* \"#utility.yul\":1944:1949   */\n      dup2\n        /* \"#utility.yul\":1937:1950   */\n      iszero\n        /* \"#utility.yul\":1930:1951   */\n      iszero\n        /* \"#utility.yul\":1919:1951   */\n      swap1\n      pop\n        /* \"#utility.yul\":1867:1957   */\n      swap2\n      swap1\n      pop\n      jump\t// out\n        /* \"#utility.yul\":1963:2072   */\n    tag_77:\n        /* \"#utility.yul\":2044:2065   */\n      tag_118\n        /* \"#utility.yul\":2059:2064   */\n      dup2\n        /* \"#utility.yul\":2044:2065   */\n      tag_76\n      jump\t// in\n    tag_118:\n        /* \"#utility.yul\":2039:2042   */\n      dup3\n        /* \"#utility.yul\":2032:2066   */\n      mstore\n        /* \"#utility.yul\":1963:2072   */\n      pop\n      pop\n      jump\t// out\n        /* \"#utility.yul\":2078:2288   */\n    tag_18:\n        /* \"#utility.yul\":2165:2169   */\n      0x00\n        /* \"#utility.yul\":2203:2205   */\n      0x20\n        /* \"#utility.yul\":2192:2201   */\n      dup3\n        /* \"#utility.yul\":2188:2206   */\n      add\n        /* \"#utility.yul\":2180:2206   */\n      swap1\n      pop\n        /* \"#utility.yul\":2216:2281   */\n      tag_120\n        /* \"#utility.yul\":2278:2279   */\n      0x00\n        /* \"#utility.yul\":2267:2276   */\n      dup4\n        /* \"#utility.yul\":2263:2280   */\n      add\n        /* \"#utility.yul\":2254:2260   */\n      dup5\n        /* \"#utility.yul\":2216:2281   */\n      tag_77\n      jump\t// in\n    tag_120:\n        /* \"#utility.yul\":2078:2288   */\n      swap3\n      swap2\n      pop\n      pop\n      jump\t// out\n        /* \"#utility.yul\":2294:2393   */\n    tag_78:\n        /* \"#utility.yul\":2346:2352   */\n      0x00\n        /* \"#utility.yul\":2380:2385   */\n      dup2\n        /* \"#utility.yul\":2374:2386   */\n      mload\n        /* \"#utility.yul\":2364:2386   */\n      swap1\n      pop\n        /* \"#utility.yul\":2294:2393   */\n      swap2\n      swap1\n      pop\n      jump\t// out\n        /* \"#utility.yul\":2399:2568   */\n    tag_79:\n        /* \"#utility.yul\":2483:2494   */\n      0x00\n        /* \"#utility.yul\":2517:2523   */\n      dup3\n        /* \"#utility.yul\":2512:2515   */\n      dup3\n        /* \"#utility.yul\":2505:2524   */\n      mstore\n        /* \"#utility.yul\":2557:2561   */\n      0x20\n        /* \"#utility.yul\":2552:2555   */\n      dup3\n        /* \"#utility.yul\":2548:2562   */\n      add\n        /* \"#utility.yul\":2533:2562   */\n      swap1\n      pop\n        /* \"#utility.yul\":2399:2568   */\n      swap3\n      swap2\n      pop\n      pop\n      jump\t// out\n        /* \"#utility.yul\":2574:2713   */\n    tag_80:\n        /* \"#utility.yul\":2663:2669   */\n      dup3\n        /* \"#utility.yul\":2658:2661   */\n      dup2\n        /* \"#utility.yul\":2653:2656   */\n      dup4\n        /* \"#utility.yul\":2647:2670   */\n      mcopy\n        /* \"#utility.yul\":2704:2705   */\n      0x00\n        /* \"#utility.yul\":2695:2701   */\n      dup4\n        /* \"#utility.yul\":2690:2693   */\n      dup4\n        /* \"#utility.yul\":2686:2702   */\n      add\n        /* \"#utility.yul\":2679:2706   */\n      mstore\n        /* \"#utility.yul\":2574:2713   */\n      pop\n      pop\n      pop\n      jump\t// out\n        /* \"#utility.yul\":2719:2821   */\n    tag_81:\n        /* \"#utility.yul\":2760:2766   */\n      0x00\n        /* \"#utility.yul\":2811:2813   */\n      0x1f\n        /* \"#utility.yul\":2807:2814   */\n      not\n        /* \"#utility.yul\":2802:2804   */\n      0x1f\n        /* \"#utility.yul\":2795:2800   */\n      dup4\n        /* \"#utility.yul\":2791:2805   */\n      add\n        /* \"#utility.yul\":2787:2815   */\n      and\n        /* \"#utility.yul\":2777:2815   */\n      swap1\n      pop\n        /* \"#utility.yul\":2719:2821   */\n      swap2\n      swap1\n      pop\n      jump\t// out\n        /* \"#utility.yul\":2827:3204   */\n    tag_82:\n        /* \"#utility.yul\":2915:2918   */\n      0x00\n        /* \"#utility.yul\":2943:2982   */\n      tag_126\n        /* \"#utility.yul\":2976:2981   */\n      dup3\n        /* \"#utility.yul\":2943:2982   */\n      tag_78\n      jump\t// in\n    tag_126:\n        /* \"#utility.yul\":2998:3069   */\n      tag_127\n        /* \"#utility.yul\":3062:3068   */\n      dup2\n        /* \"#utility.yul\":3057:3060   */\n      dup6\n        /* \"#utility.yul\":2998:3069   */\n      tag_79\n      jump\t// in\n    tag_127:\n        /* \"#utility.yul\":2991:3069   */\n      swap4\n      pop\n        /* \"#utility.yul\":3078:3143   */\n      tag_128\n        /* \"#utility.yul\":3136:3142   */\n      dup2\n        /* \"#utility.yul\":3131:3134   */\n      dup6\n        /* \"#utility.yul\":3124:3128   */\n      0x20\n        /* \"#utility.yul\":3117:3122   */\n      dup7\n        /* \"#utility.yul\":3113:3129   */\n      add\n        /* \"#utility.yul\":3078:3143   */\n      tag_80\n      jump\t// in\n    tag_128:\n        /* \"#utility.yul\":3168:3197   */\n      tag_129\n        /* \"#utility.yul\":3190:3196   */\n      dup2\n        /* \"#utility.yul\":3168:3197   */\n      tag_81\n      jump\t// in\n    tag_129:\n        /* \"#utility.yul\":3163:3166   */\n      dup5\n        /* \"#utility.yul\":3159:3198   */\n      add\n        /* \"#utility.yul\":3152:3198   */\n      swap2\n      pop\n        /* \"#utility.yul\":2919:3204   */\n      pop\n        /* \"#utility.yul\":2827:3204   */\n      swap3\n      swap2\n      pop\n      pop\n      jump\t// out\n        /* \"#utility.yul\":3210:3523   */\n    tag_23:\n        /* \"#utility.yul\":3323:3327   */\n      0x00\n        /* \"#utility.yul\":3361:3363   */\n      0x20\n        /* \"#utility.yul\":3350:3359   */\n      dup3\n        /* \"#utility.yul\":3346:3364   */\n      add\n        /* \"#utility.yul\":3338:3364   */\n      swap1\n      pop\n        /* \"#utility.yul\":3410:3419   */\n      dup2\n        /* \"#utility.yul\":3404:3408   */\n      dup2\n        /* \"#utility.yul\":3400:3420   */\n      sub\n        /* \"#utility.yul\":3396:3397   */\n      0x00\n        /* \"#utility.yul\":3385:3394   */\n      dup4\n        /* \"#utility.yul\":3381:3398   */\n      add\n        /* \"#utility.yul\":3374:3421   */\n      mstore\n        /* \"#utility.yul\":3438:3516   */\n      tag_131\n        /* \"#utility.yul\":3511:3515   */\n      dup2\n        /* \"#utility.yul\":3502:3508   */\n      dup5\n        /* \"#utility.yul\":3438:3516   */\n      tag_82\n      jump\t// in\n    tag_131:\n        /* \"#utility.yul\":3430:3516   */\n      swap1\n      pop\n        /* \"#utility.yul\":3210:3523   */\n      swap3\n      swap2\n      pop\n      pop\n      jump\t// out\n        /* \"#utility.yul\":3529:3647   */\n    tag_83:\n        /* \"#utility.yul\":3616:3640   */\n      tag_133\n        /* \"#utility.yul\":3634:3639   */\n      dup2\n        /* \"#utility.yul\":3616:3640   */\n      tag_69\n      jump\t// in\n    tag_133:\n        /* \"#utility.yul\":3611:3614   */\n      dup3\n        /* \"#utility.yul\":3604:3641   */\n      mstore\n        /* \"#utility.yul\":3529:3647   */\n      pop\n      pop\n      jump\t// out\n        /* \"#utility.yul\":3653:4076   */\n    tag_28:\n        /* \"#utility.yul\":3794:3798   */\n      0x00\n        /* \"#utility.yul\":3832:3834   */\n      0x40\n        /* \"#utility.yul\":3821:3830   */\n      dup3\n        /* \"#utility.yul\":3817:3835   */\n      add\n        /* \"#utility.yul\":3809:3835   */\n      swap1\n      pop\n        /* \"#utility.yul\":3881:3890   */\n      dup2\n        /* \"#utility.yul\":3875:3879   */\n      dup2\n        /* \"#utility.yul\":3871:3891   */\n      sub\n        /* \"#utility.yul\":3867:3868   */\n      0x00\n        /* \"#utility.yul\":3856:3865   */\n      dup4\n        /* \"#utility.yul\":3852:3869   */\n      add\n        /* \"#utility.yul\":3845:3892   */\n      mstore\n        /* \"#utility.yul\":3909:3987   */\n      tag_135\n        /* \"#utility.yul\":3982:3986   */\n      dup2\n        /* \"#utility.yul\":3973:3979   */\n      dup6\n        /* \"#utility.yul\":3909:3987   */\n      tag_82\n      jump\t// in\n    tag_135:\n        /* \"#utility.yul\":3901:3987   */\n      swap1\n      pop\n        /* \"#utility.yul\":3997:4069   */\n      tag_136\n        /* \"#utility.yul\":4065:4067   */\n      0x20\n        /* \"#utility.yul\":4054:4063   */\n      dup4\n        /* \"#utility.yul\":4050:4068   */\n      add\n        /* \"#utility.yul\":4041:4047   */\n      dup5\n        /* \"#utility.yul\":3997:4069   */\n      tag_83\n      jump\t// in\n    tag_136:\n        /* \"#utility.yul\":3653:4076   */\n      swap4\n      swap3\n      pop\n      pop\n      pop\n      jump\t// out\n        /* \"#utility.yul\":4082:4304   */\n    tag_32:\n        /* \"#utility.yul\":4175:4179   */\n      0x00\n        /* \"#utility.yul\":4213:4215   */\n      0x20\n        /* \"#utility.yul\":4202:4211   */\n      dup3\n        /* \"#utility.yul\":4198:4216   */\n      add\n        /* \"#utility.yul\":4190:4216   */\n      swap1\n      pop\n        /* \"#utility.yul\":4226:4297   */\n      tag_138\n        /* \"#utility.yul\":4294:4295   */\n      0x00\n        /* \"#utility.yul\":4283:4292   */\n      dup4\n        /* \"#utility.yul\":4279:4296   */\n      add\n        /* \"#utility.yul\":4270:4276   */\n      dup5\n        /* \"#utility.yul\":4226:4297   */\n      tag_83\n      jump\t// in\n    tag_138:\n        /* \"#utility.yul\":4082:4304   */\n      swap3\n      swap2\n      pop\n      pop\n      jump\t// out\n        /* \"#utility.yul\":4310:4477   */\n    tag_84:\n        /* \"#utility.yul\":4450:4469   */\n      0x496e76616c69642063616e646964617465000000000000000000000000000000\n        /* \"#utility.yul\":4446:4447   */\n      0x00\n        /* \"#utility.yul\":4438:4444   */\n      dup3\n        /* \"#utility.yul\":4434:4448   */\n      add\n        /* \"#utility.yul\":4427:4470   */\n      mstore\n        /* \"#utility.yul\":4310:4477   */\n      pop\n      jump\t// out\n        /* \"#utility.yul\":4483:4849   */\n    tag_85:\n        /* \"#utility.yul\":4625:4628   */\n      0x00\n        /* \"#utility.yul\":4646:4713   */\n      tag_141\n        /* \"#utility.yul\":4710:4712   */\n      0x11\n        /* \"#utility.yul\":4705:4708   */\n      dup4\n        /* \"#utility.yul\":4646:4713   */\n      tag_79\n      jump\t// in\n    tag_141:\n        /* \"#utility.yul\":4639:4713   */\n      swap2\n      pop\n        /* \"#utility.yul\":4722:4815   */\n      tag_142\n        /* \"#utility.yul\":4811:4814   */\n      dup3\n        /* \"#utility.yul\":4722:4815   */\n      tag_84\n      jump\t// in\n    tag_142:\n        /* \"#utility.yul\":4840:4842   */\n      0x20\n        /* \"#utility.yul\":4835:4838   */\n      dup3\n        /* \"#utility.yul\":4831:4843   */\n      add\n        /* \"#utility.yul\":4824:4843   */\n      swap1\n      pop\n        /* \"#utility.yul\":4483:4849   */\n      swap2\n      swap1\n      pop\n      jump\t// out\n        /* \"#utility.yul\":4855:5274   */\n    tag_40:\n        /* \"#utility.yul\":5021:5025   */\n      0x00\n        /* \"#utility.yul\":5059:5061   */\n      0x20\n        /* \"#utility.yul\":5048:5057   */\n      dup3\n        /* \"#utility.yul\":5044:5062   */\n      add\n        /* \"#utility.yul\":5036:5062   */\n      swap1\n      pop\n        /* \"#utility.yul\":5108:5117   */\n      dup2\n        /* \"#utility.yul\":5102:5106   */\n      dup2\n        /* \"#utility.yul\":5098:5118   */\n      sub\n        /* \"#utility.yul\":5094:5095   */\n      0x00\n        /* \"#utility.yul\":5083:5092   */\n      dup4\n        /* \"#utility.yul\":5079:5096   */\n      add\n        /* \"#utility.yul\":5072:5119   */\n      mstore\n        /* \"#utility.yul\":5136:5267   */\n      tag_144\n        /* \"#utility.yul\":5262:5266   */\n      dup2\n        /* \"#utility.yul\":5136:5267   */\n      tag_85\n      jump\t// in\n    tag_144:\n        /* \"#utility.yul\":5128:5267   */\n      swap1\n      pop\n        /* \"#utility.yul\":4855:5274   */\n      swap2\n      swap1\n      pop\n      jump\t// out\n        /* \"#utility.yul\":5280:5443   */\n    tag_86:\n        /* \"#utility.yul\":5420:5435   */\n      0x416c726561647920766f74656400000000000000000000000000000000000000\n        /* \"#utility.yul\":5416:5417   */\n      0x00\n        /* \"#utility.yul\":5408:5414   */\n      dup3\n        /* \"#utility.yul\":5404:5418   */\n      add\n        /* \"#utility.yul\":5397:5436   */\n      mstore\n        /* \"#utility.yul\":5280:5443   */\n      pop\n      jump\t// out\n        /* \"#utility.yul\":5449:5815   */\n    tag_87:\n        /* \"#utility.yul\":5591:5594   */\n      0x00\n        /* \"#utility.yul\":5612:5679   */\n      tag_147\n        /* \"#utility.yul\":5676:5678   */\n      0x0d\n        /* \"#utility.yul\":5671:5674   */\n      dup4\n        /* \"#utility.yul\":5612:5679   */\n      tag_79\n      jump\t// in\n    tag_147:\n        /* \"#utility.yul\":5605:5679   */\n      swap2\n      pop\n        /* \"#utility.yul\":5688:5781   */\n      tag_148\n        /* \"#utility.yul\":5777:5780   */\n      dup3\n        /* \"#utility.yul\":5688:5781   */\n      tag_86\n      jump\t// in\n    tag_148:\n        /* \"#utility.yul\":5806:5808   */\n      0x20\n        /* \"#utility.yul\":5801:5804   */\n      dup3\n        /* \"#utility.yul\":5797:5809   */\n      add\n        /* \"#utility.yul\":5790:5809   */\n      swap1\n      pop\n        /* \"#utility.yul\":5449:5815   */\n      swap2\n      swap1\n      pop\n      jump\t// out\n        /* \"#utility.yul\":5821:6240   */\n    tag_43:\n        /* \"#utility.yul\":5987:5991   */\n      0x00\n        /* \"#utility.yul\":6025:6027   */\n      0x20\n        /* \"#utility.yul\":6014:6023   */\n      dup3\n        /* \"#utility.yul\":6010:6028   */\n      add\n        /* \"#utility.yul\":6002:6028   */\n      swap1\n      pop\n        /* \"#utility.yul\":6074:6083   */\n      dup2\n        /* \"#utility.yul\":6068:6072   */\n      dup2\n        /* \"#utility.yul\":6064:6084   */\n      sub\n        /* \"#utility.yul\":6060:6061   */\n      0x00\n        /* \"#utility.yul\":6049:6058   */\n      dup4\n        /* \"#utility.yul\":6045:6062   */\n      add\n        /* \"#utility.yul\":6038:6085   */\n      mstore\n        /* \"#utility.yul\":6102:6233   */\n      tag_150\n        /* \"#utility.yul\":6228:6232   */\n      dup2\n        /* \"#utility.yul\":6102:6233   */\n      tag_87\n      jump\t// in\n    tag_150:\n        /* \"#utility.yul\":6094:6233   */\n      swap1\n      pop\n        /* \"#utility.yul\":5821:6240   */\n      swap2\n      swap1\n      pop\n      jump\t// out\n        /* \"#utility.yul\":6246:6426   */\n    tag_88:\n        /* \"#utility.yul\":6294:6371   */\n      0x4e487b7100000000000000000000000000000000000000000000000000000000\n        /* \"#utility.yul\":6291:6292   */\n      0x00\n        /* \"#utility.yul\":6284:6372   */\n      mstore\n        /* \"#utility.yul\":6391:6395   */\n      0x11\n        /* \"#utility.yul\":6388:6389   */\n      0x04\n        /* \"#utility.yul\":6381:6396   */\n      mstore\n        /* \"#utility.yul\":6415:6419   */\n      0x24\n        /* \"#utility.yul\":6412:6413   */\n      0x00\n        /* \"#utility.yul\":6405:6420   */\n      revert\n        /* \"#utility.yul\":6432:6623   */\n    tag_45:\n        /* \"#utility.yul\":6472:6475   */\n      0x00\n        /* \"#utility.yul\":6491:6511   */\n      tag_153\n        /* \"#utility.yul\":6509:6510   */\n      dup3\n        /* \"#utility.yul\":6491:6511   */\n      tag_69\n      jump\t// in\n    tag_153:\n        /* \"#utility.yul\":6486:6511   */\n      swap2\n      pop\n        /* \"#utility.yul\":6525:6545   */\n      tag_154\n        /* \"#utility.yul\":6543:6544   */\n      dup4\n        /* \"#utility.yul\":6525:6545   */\n      tag_69\n      jump\t// in\n    tag_154:\n        /* \"#utility.yul\":6520:6545   */\n      swap3\n      pop\n        /* \"#utility.yul\":6568:6569   */\n      dup3\n        /* \"#utility.yul\":6565:6566   */\n      dup3\n        /* \"#utility.yul\":6561:6570   */\n      add\n        /* \"#utility.yul\":6554:6570   */\n      swap1\n      pop\n        /* \"#utility.yul\":6589:6592   */\n      dup1\n        /* \"#utility.yul\":6586:6587   */\n      dup3\n        /* \"#utility.yul\":6583:6593   */\n      gt\n        /* \"#utility.yul\":6580:6616   */\n      iszero\n      tag_155\n      jumpi\n        /* \"#utility.yul\":6596:6614   */\n      tag_156\n      tag_88\n      jump\t// in\n    tag_156:\n        /* \"#utility.yul\":6580:6616   */\n    tag_155:\n        /* \"#utility.yul\":6432:6623   */\n      swap3\n      swap2\n      pop\n      pop\n      jump\t// out\n        /* \"#utility.yul\":6629:6809   */\n    tag_89:\n        /* \"#utility.yul\":6677:6754   */\n      0x4e487b7100000000000000000000000000000000000000000000000000000000\n        /* \"#utility.yul\":6674:6675   */\n      0x00\n        /* \"#utility.yul\":6667:6755   */\n      mstore\n        /* \"#utility.yul\":6774:6778   */\n      0x22\n        /* \"#utility.yul\":6771:6772   */\n      0x04\n        /* \"#utility.yul\":6764:6779   */\n      mstore\n        /* \"#utility.yul\":6798:6802   */\n      0x24\n        /* \"#utility.yul\":6795:6796   */\n      0x00\n        /* \"#utility.yul\":6788:6803   */\n      revert\n        /* \"#utility.yul\":6815:7135   */\n    tag_50:\n        /* \"#utility.yul\":6859:6865   */\n      0x00\n        /* \"#utility.yul\":6896:6897   */\n      0x02\n        /* \"#utility.yul\":6890:6894   */\n      dup3\n        /* \"#utility.yul\":6886:6898   */\n      div\n        /* \"#utility.yul\":6876:6898   */\n      swap1\n      pop\n        /* \"#utility.yul\":6943:6944   */\n      0x01\n        /* \"#utility.yul\":6937:6941   */\n      dup3\n        /* \"#utility.yul\":6933:6945   */\n      and\n        /* \"#utility.yul\":6964:6982   */\n      dup1\n        /* \"#utility.yul\":6954:7035   */\n      tag_159\n      jumpi\n        /* \"#utility.yul\":7020:7024   */\n      0x7f\n        /* \"#utility.yul\":7012:7018   */\n      dup3\n        /* \"#utility.yul\":7008:7025   */\n      and\n        /* \"#utility.yul\":6998:7025   */\n      swap2\n      pop\n        /* \"#utility.yul\":6954:7035   */\n    tag_159:\n        /* \"#utility.yul\":7082:7084   */\n      0x20\n        /* \"#utility.yul\":7074:7080   */\n      dup3\n        /* \"#utility.yul\":7071:7085   */\n      lt\n        /* \"#utility.yul\":7051:7069   */\n      dup2\n        /* \"#utility.yul\":7048:7086   */\n      sub\n        /* \"#utility.yul\":7045:7129   */\n      tag_160\n      jumpi\n        /* \"#utility.yul\":7101:7119   */\n      tag_161\n      tag_89\n      jump\t// in\n    tag_161:\n        /* \"#utility.yul\":7045:7129   */\n    tag_160:\n        /* \"#utility.yul\":6866:7135   */\n      pop\n        /* \"#utility.yul\":6815:7135   */\n      swap2\n      swap1\n      pop\n      jump\t// out\n        /* \"#utility.yul\":7141:7321   */\n    tag_58:\n        /* \"#utility.yul\":7189:7266   */\n      0x4e487b7100000000000000000000000000000000000000000000000000000000\n        /* \"#utility.yul\":7186:7187   */\n      0x00\n        /* \"#utility.yul\":7179:7267   */\n      mstore\n        /* \"#utility.yul\":7286:7290   */\n      0x32\n        /* \"#utility.yul\":7283:7284   */\n      0x04\n        /* \"#utility.yul\":7276:7291   */\n      mstore\n        /* \"#utility.yul\":7310:7314   */\n      0x24\n        /* \"#utility.yul\":7307:7308   */\n      0x00\n        /* \"#utility.yul\":7300:7315   */\n      revert\n\n    auxdata: 0xa2646970667358221220f38b39aa15f1879d9fd38bb71e977a7c3a652943c62890b559af6d04f6dd078464736f6c634300081e0033\n}\n",
				"bytecode": {
					"linkReferences": {},
					"object": "608060405234801561000f575f5ffd5b50604051610fdf380380610fdf83398181016040528101906100319190610391565b5f815111610074576040517f08c379a000000000000000000000000000000000000000000000000000000000815260040161006b90610432565b60405180910390fd5b805f9080519060200190610089929190610090565b505061072f565b828054828255905f5260205f209081019282156100d6579160200282015b828111156100d55782518290816100c59190610660565b50916020019190600101906100ae565b5b5090506100e391906100e7565b5090565b5b80821115610106575f81816100fd919061010a565b506001016100e8565b5090565b50805461011690610487565b5f825580601f106101275750610144565b601f0160209004905f5260205f20908101906101439190610147565b5b50565b5b8082111561015e575f815f905550600101610148565b5090565b5f604051905090565b5f5ffd5b5f5ffd5b5f5ffd5b5f601f19601f8301169050919050565b7f4e487b71000000000000000000000000000000000000000000000000000000005f52604160045260245ffd5b6101bd82610177565b810181811067ffffffffffffffff821117156101dc576101db610187565b5b80604052505050565b5f6101ee610162565b90506101fa82826101b4565b919050565b5f67ffffffffffffffff82111561021957610218610187565b5b602082029050602081019050919050565b5f5ffd5b5f5ffd5b5f67ffffffffffffffff82111561024c5761024b610187565b5b61025582610177565b9050602081019050919050565b8281835e5f83830152505050565b5f61028261027d84610232565b6101e5565b90508281526020810184848401111561029e5761029d61022e565b5b6102a9848285610262565b509392505050565b5f82601f8301126102c5576102c4610173565b5b81516102d5848260208601610270565b91505092915050565b5f6102f06102eb846101ff565b6101e5565b905080838252602082019050602084028301858111156103135761031261022a565b5b835b8181101561035a57805167ffffffffffffffff81111561033857610337610173565b5b80860161034589826102b1565b85526020850194505050602081019050610315565b5050509392505050565b5f82601f83011261037857610377610173565b5b81516103888482602086016102de565b91505092915050565b5f602082840312156103a6576103a561016b565b5b5f82015167ffffffffffffffff8111156103c3576103c261016f565b5b6103cf84828501610364565b91505092915050565b5f82825260208201905092915050565b7f4e6f2063616e64696461746573000000000000000000000000000000000000005f82015250565b5f61041c600d836103d8565b9150610427826103e8565b602082019050919050565b5f6020820190508181035f83015261044981610410565b9050919050565b5f81519050919050565b7f4e487b71000000000000000000000000000000000000000000000000000000005f52602260045260245ffd5b5f600282049050600182168061049e57607f821691505b6020821081036104b1576104b061045a565b5b50919050565b5f819050815f5260205f209050919050565b5f6020601f8301049050919050565b5f82821b905092915050565b5f600883026105137fffffffffffffffffffffffffffffffffffffffffffffffffffffffffffffffff826104d8565b61051d86836104d8565b95508019841693508086168417925050509392505050565b5f819050919050565b5f819050919050565b5f61056161055c61055784610535565b61053e565b610535565b9050919050565b5f819050919050565b61057a83610547565b61058e61058682610568565b8484546104e4565b825550505050565b5f5f905090565b6105a5610596565b6105b0818484610571565b505050565b5b818110156105d3576105c85f8261059d565b6001810190506105b6565b5050565b601f821115610618576105e9816104b7565b6105f2846104c9565b81016020851015610601578190505b61061561060d856104c9565b8301826105b5565b50505b505050565b5f82821c905092915050565b5f6106385f198460080261061d565b1980831691505092915050565b5f6106508383610629565b9150826002028217905092915050565b61066982610450565b67ffffffffffffffff81111561068257610681610187565b5b61068c8254610487565b6106978282856105d7565b5f60209050601f8311600181146106c8575f84156106b6578287015190505b6106c08582610645565b865550610727565b601f1984166106d6866104b7565b5f5b828110156106fd578489015182556001820191506020850194506020810190506106d8565b8683101561071a5784890151610716601f891682610629565b8355505b6001600288020188555050505b505050505050565b6108a38061073c5f395ff3fe608060405234801561000f575f5ffd5b5060043610610060575f3560e01c80630121b93f1461006457806309eef43e146100805780633477ee2e146100b057806335b8e820146100e05780633866965c146101115780635df813301461012f575b5f5ffd5b61007e600480360381019061007991906104ea565b61015f565b005b61009a6004803603810190610095919061056f565b61030e565b6040516100a791906105b4565b60405180910390f35b6100ca60048036038101906100c591906104ea565b61032b565b6040516100d7919061063d565b60405180910390f35b6100fa60048036038101906100f591906104ea565b6103d0565b60405161010892919061066c565b60405180910390f35b610119610493565b604051610126919061069a565b60405180910390f35b610149600480360381019061014491906104ea565b61049e565b604051610156919061069a565b60405180910390f35b5f8054905081106101a5576040517f08c379a000000000000000000000000000000000000000000000000000000000815260040161019c906106fd565b60405180910390fd5b60025f3373ffffffffffffffffffffffffffffffffffffffff1673ffffffffffffffffffffffffffffffffffffffff1681526020019081526020015f205f9054906101000a900460ff161561022f576040517f08c379a000000000000000000000000000000000000000000000000000000000815260040161022690610765565b60405180910390fd5b600160025f3373ffffffffffffffffffffffffffffffffffffffff1673ffffffffffffffffffffffffffffffffffffffff1681526020019081526020015f205f6101000a81548160ff0219169083151502179055506001805f8381526020019081526020015f205f8282546102a491906107b0565b92505081905550803373ffffffffffffffffffffffffffffffffffffffff167fea66f58e474bc09f580000e81f31b334d171db387d0c6098ba47bd897741679b60015f8581526020019081526020015f2054604051610303919061069a565b60405180910390a350565b6002602052805f5260405f205f915054906101000a900460ff1681565b5f8181548110610339575f80fd5b905f5260205f20015f91509050805461035190610810565b80601f016020809104026020016040519081016040528092919081815260200182805461037d90610810565b80156103c85780601f1061039f576101008083540402835291602001916103c8565b820191905f5260205f20905b8154815290600101906020018083116103ab57829003601f168201915b505050505081565b60605f5f83815481106103e6576103e5610840565b5b905f5260205f200160015f8581526020019081526020015f205481805461040c90610810565b80601f016020809104026020016040519081016040528092919081815260200182805461043890610810565b80156104835780601f1061045a57610100808354040283529160200191610483565b820191905f5260205f20905b81548152906001019060200180831161046657829003601f168201915b5050505050915091509150915091565b5f5f80549050905090565b6001602052805f5260405f205f915090505481565b5f5ffd5b5f819050919050565b6104c9816104b7565b81146104d3575f5ffd5b50565b5f813590506104e4816104c0565b92915050565b5f602082840312156104ff576104fe6104b3565b5b5f61050c848285016104d6565b91505092915050565b5f73ffffffffffffffffffffffffffffffffffffffff82169050919050565b5f61053e82610515565b9050919050565b61054e81610534565b8114610558575f5ffd5b50565b5f8135905061056981610545565b92915050565b5f60208284031215610584576105836104b3565b5b5f6105918482850161055b565b91505092915050565b5f8115159050919050565b6105ae8161059a565b82525050565b5f6020820190506105c75f8301846105a5565b92915050565b5f81519050919050565b5f82825260208201905092915050565b8281835e5f83830152505050565b5f601f19601f8301169050919050565b5f61060f826105cd565b61061981856105d7565b93506106298185602086016105e7565b610632816105f5565b840191505092915050565b5f6020820190508181035f8301526106558184610605565b905092915050565b610666816104b7565b82525050565b5f6040820190508181035f8301526106848185610605565b9050610693602083018461065d565b9392505050565b5f6020820190506106ad5f83018461065d565b92915050565b7f496e76616c69642063616e6469646174650000000000000000000000000000005f82015250565b5f6106e76011836105d7565b91506106f2826106b3565b602082019050919050565b5f6020820190508181035f830152610714816106db565b9050919050565b7f416c726561647920766f746564000000000000000000000000000000000000005f82015250565b5f61074f600d836105d7565b915061075a8261071b565b602082019050919050565b5f6020820190508181035f83015261077c81610743565b9050919050565b7f4e487b71000000000000000000000000000000000000000000000000000000005f52601160045260245ffd5b5f6107ba826104b7565b91506107c5836104b7565b92508282019050808211156107dd576107dc610783565b5b92915050565b7f4e487b71000000000000000000000000000000000000000000000000000000005f52602260045260245ffd5b5f600282049050600182168061082757607f821691505b60208210810361083a576108396107e3565b5b50919050565b7f4e487b71000000000000000000000000000000000000000000000000000000005f52603260045260245ffdfea2646970667358221220f38b39aa15f1879d9fd38bb71e977a7c3a652943c62890b559af6d04f6dd078464736f6c634300081e0033",
					"opcodes": "PUSH1 0x80 PUSH1 0x40 MSTORE CALLVALUE DUP1 ISZERO PUSH2 0xF JUMPI PUSH0 PUSH0 REVERT JUMPDEST POP PUSH1 0x40 MLOAD PUSH2 0xFDF CODESIZE SUB DUP1 PUSH2 0xFDF DUP4 CODECOPY DUP2 DUP2 ADD PUSH1 0x40 MSTORE DUP2 ADD SWAP1 PUSH2 0x31 SWAP2 SWAP1 PUSH2 0x391 JUMP JUMPDEST PUSH0 DUP2 MLOAD GT PUSH2 0x74 JUMPI PUSH1 0x40 MLOAD PUSH32 0x8C379A000000000000000000000000000000000000000000000000000000000 DUP2 MSTORE PUSH1 0x4 ADD PUSH2 0x6B SWAP1 PUSH2 0x432 JUMP JUMPDEST PUSH1 0x40 MLOAD DUP1 SWAP2 SUB SWAP1 REVERT JUMPDEST DUP1 PUSH0 SWAP1 DUP1 MLOAD SWAP1 PUSH1 0x20 ADD SWAP1 PUSH2 0x89 SWAP3 SWAP2 SWAP1 PUSH2 0x90 JUMP JUMPDEST POP POP PUSH2 0x72F JUMP JUMPDEST DUP3 DUP1 SLOAD DUP3 DUP3 SSTORE SWAP1 PUSH0 MSTORE PUSH1 0x20 PUSH0 KECCAK256 SWAP1 DUP2 ADD SWAP3 DUP3 ISZERO PUSH2 0xD6 JUMPI SWAP2 PUSH1 0x20 MUL DUP3 ADD JUMPDEST DUP3 DUP2 GT ISZERO PUSH2 0xD5 JUMPI DUP3 MLOAD DUP3 SWAP1 DUP2 PUSH2 0xC5 SWAP2 SWAP1 PUSH2 0x660 JUMP JUMPDEST POP SWAP2 PUSH1 0x20 ADD SWAP2 SWAP1 PUSH1 0x1 ADD SWAP1 PUSH2 0xAE JUMP JUMPDEST JUMPDEST POP SWAP1 POP PUSH2 0xE3 SWAP2 SWAP1 PUSH2 0xE7 JUMP JUMPDEST POP SWAP1 JUMP JUMPDEST JUMPDEST DUP1 DUP3 GT ISZERO PUSH2 0x106 JUMPI PUSH0 DUP2 DUP2 PUSH2 0xFD SWAP2 SWAP1 PUSH2 0x10A JUMP JUMPDEST POP PUSH1 0x1 ADD PUSH2 0xE8 JUMP JUMPDEST POP SWAP1 JUMP JUMPDEST POP DUP1 SLOAD PUSH2 0x116 SWAP1 PUSH2 0x487 JUMP JUMPDEST PUSH0 DUP3 SSTORE DUP1 PUSH1 0x1F LT PUSH2 0x127 JUMPI POP PUSH2 0x144 JUMP JUMPDEST PUSH1 0x1F ADD PUSH1 0x20 SWAP1 DIV SWAP1 PUSH0 MSTORE PUSH1 0x20 PUSH0 KECCAK256 SWAP1 DUP2 ADD SWAP1 PUSH2 0x143 SWAP2 SWAP1 PUSH2 0x147 JUMP JUMPDEST JUMPDEST POP JUMP JUMPDEST JUMPDEST DUP1 DUP3 GT ISZERO PUSH2 0x15E JUMPI PUSH0 DUP2 PUSH0 SWAP1 SSTORE POP PUSH1 0x1 ADD PUSH2 0x148 JUMP JUMPDEST POP SWAP1 JUMP JUMPDEST PUSH0 PUSH1 0x40 MLOAD SWAP1 POP SWAP1 JUMP JUMPDEST PUSH0 PUSH0 REVERT JUMPDEST PUSH0 PUSH0 REVERT JUMPDEST PUSH0 PUSH0 REVERT JUMPDEST PUSH0 PUSH1 0x1F NOT PUSH1 0x1F DUP4 ADD AND SWAP1 POP SWAP2 SWAP1 POP JUMP JUMPDEST PUSH32 0x4E487B7100000000000000000000000000000000000000000000000000000000 PUSH0 MSTORE PUSH1 0x41 PUSH1 0x4 MSTORE PUSH1 0x24 PUSH0 REVERT JUMPDEST PUSH2 0x1BD DUP3 PUSH2 0x177 JUMP JUMPDEST DUP2 ADD DUP2 DUP2 LT PUSH8 0xFFFFFFFFFFFFFFFF DUP3 GT OR ISZERO PUSH2 0x1DC JUMPI PUSH2 0x1DB PUSH2 0x187 JUMP JUMPDEST JUMPDEST DUP1 PUSH1 0x40 MSTORE POP POP POP JUMP JUMPDEST PUSH0 PUSH2 0x1EE PUSH2 0x162 JUMP JUMPDEST SWAP1 POP PUSH2 0x1FA DUP3 DUP3 PUSH2 0x1B4 JUMP JUMPDEST SWAP2 SWAP1 POP JUMP JUMPDEST PUSH0 PUSH8 0xFFFFFFFFFFFFFFFF DUP3 GT ISZERO PUSH2 0x219 JUMPI PUSH2 0x218 PUSH2 0x187 JUMP JUMPDEST JUMPDEST PUSH1 0x20 DUP3 MUL SWAP1 POP PUSH1 0x20 DUP2 ADD SWAP1 POP SWAP2 SWAP1 POP JUMP JUMPDEST PUSH0 PUSH0 REVERT JUMPDEST PUSH0 PUSH0 REVERT JUMPDEST PUSH0 PUSH8 0xFFFFFFFFFFFFFFFF DUP3 GT ISZERO PUSH2 0x24C JUMPI PUSH2 0x24B PUSH2 0x187 JUMP JUMPDEST JUMPDEST PUSH2 0x255 DUP3 PUSH2 0x177 JUMP JUMPDEST SWAP1 POP PUSH1 0x20 DUP2 ADD SWAP1 POP SWAP2 SWAP1 POP JUMP JUMPDEST DUP3 DUP2 DUP4 MCOPY PUSH0 DUP4 DUP4 ADD MSTORE POP POP POP JUMP JUMPDEST PUSH0 PUSH2 0x282 PUSH2 0x27D DUP5 PUSH2 0x232 JUMP JUMPDEST PUSH2 0x1E5 JUMP JUMPDEST SWAP1 POP DUP3 DUP2 MSTORE PUSH1 0x20 DUP2 ADD DUP5 DUP5 DUP5 ADD GT ISZERO PUSH2 0x29E JUMPI PUSH2 0x29D PUSH2 0x22E JUMP JUMPDEST JUMPDEST PUSH2 0x2A9 DUP5 DUP3 DUP6 PUSH2 0x262 JUMP JUMPDEST POP SWAP4 SWAP3 POP POP POP JUMP JUMPDEST PUSH0 DUP3 PUSH1 0x1F DUP4 ADD SLT PUSH2 0x2C5 JUMPI PUSH2 0x2C4 PUSH2 0x173 JUMP JUMPDEST JUMPDEST DUP2 MLOAD PUSH2 0x2D5 DUP5 DUP3 PUSH1 0x20 DUP7 ADD PUSH2 0x270 JUMP JUMPDEST SWAP2 POP POP SWAP3 SWAP2 POP POP JUMP JUMPDEST PUSH0 PUSH2 0x2F0 PUSH2 0x2EB DUP5 PUSH2 0x1FF JUMP JUMPDEST PUSH2 0x1E5 JUMP JUMPDEST SWAP1 POP DUP1 DUP4 DUP3 MSTORE PUSH1 0x20 DUP3 ADD SWAP1 POP PUSH1 0x20 DUP5 MUL DUP4 ADD DUP6 DUP2 GT ISZERO PUSH2 0x313 JUMPI PUSH2 0x312 PUSH2 0x22A JUMP JUMPDEST JUMPDEST DUP4 JUMPDEST DUP2 DUP2 LT ISZERO PUSH2 0x35A JUMPI DUP1 MLOAD PUSH8 0xFFFFFFFFFFFFFFFF DUP2 GT ISZERO PUSH2 0x338 JUMPI PUSH2 0x337 PUSH2 0x173 JUMP JUMPDEST JUMPDEST DUP1 DUP7 ADD PUSH2 0x345 DUP10 DUP3 PUSH2 0x2B1 JUMP JUMPDEST DUP6 MSTORE PUSH1 0x20 DUP6 ADD SWAP5 POP POP POP PUSH1 0x20 DUP2 ADD SWAP1 POP PUSH2 0x315 JUMP JUMPDEST POP POP POP SWAP4 SWAP3 POP POP POP JUMP JUMPDEST PUSH0 DUP3 PUSH1 0x1F DUP4 ADD SLT PUSH2 0x378 JUMPI PUSH2 0x377 PUSH2 0x173 JUMP JUMPDEST JUMPDEST DUP2 MLOAD PUSH2 0x388 DUP5 DUP3 PUSH1 0x20 DUP7 ADD PUSH2 0x2DE JUMP JUMPDEST SWAP2 POP POP SWAP3 SWAP2 POP POP JUMP JUMPDEST PUSH0 PUSH1 0x20 DUP3 DUP5 SUB SLT ISZERO PUSH2 0x3A6 JUMPI PUSH2 0x3A5 PUSH2 0x16B JUMP JUMPDEST JUMPDEST PUSH0 DUP3 ADD MLOAD PUSH8 0xFFFFFFFFFFFFFFFF DUP2 GT ISZERO PUSH2 0x3C3 JUMPI PUSH2 0x3C2 PUSH2 0x16F JUMP JUMPDEST JUMPDEST PUSH2 0x3CF DUP5 DUP3 DUP6 ADD PUSH2 0x364 JUMP JUMPDEST SWAP2 POP POP SWAP3 SWAP2 POP POP JUMP JUMPDEST PUSH0 DUP3 DUP3 MSTORE PUSH1 0x20 DUP3 ADD SWAP1 POP SWAP3 SWAP2 POP POP JUMP JUMPDEST PUSH32 0x4E6F2063616E6469646174657300000000000000000000000000000000000000 PUSH0 DUP3 ADD MSTORE POP JUMP JUMPDEST PUSH0 PUSH2 0x41C PUSH1 0xD DUP4 PUSH2 0x3D8 JUMP JUMPDEST SWAP2 POP PUSH2 0x427 DUP3 PUSH2 0x3E8 JUMP JUMPDEST PUSH1 0x20 DUP3 ADD SWAP1 POP SWAP2 SWAP1 POP JUMP JUMPDEST PUSH0 PUSH1 0x20 DUP3 ADD SWAP1 POP DUP2 DUP2 SUB PUSH0 DUP4 ADD MSTORE PUSH2 0x449 DUP2 PUSH2 0x410 JUMP JUMPDEST SWAP1 POP SWAP2 SWAP1 POP JUMP JUMPDEST PUSH0 DUP2 MLOAD SWAP1 POP SWAP2 SWAP1 POP JUMP JUMPDEST PUSH32 0x4E487B7100000000000000000000000000000000000000000000000000000000 PUSH0 MSTORE PUSH1 0x22 PUSH1 0x4 MSTORE PUSH1 0x24 PUSH0 REVERT JUMPDEST PUSH0 PUSH1 0x2 DUP3 DIV SWAP1 POP PUSH1 0x1 DUP3 AND DUP1 PUSH2 0x49E JUMPI PUSH1 0x7F DUP3 AND SWAP2 POP JUMPDEST PUSH1 0x20 DUP3 LT DUP2 SUB PUSH2 0x4B1 JUMPI PUSH2 0x4B0 PUSH2 0x45A JUMP JUMPDEST JUMPDEST POP SWAP2 SWAP1 POP JUMP JUMPDEST PUSH0 DUP2 SWAP1 POP DUP2 PUSH0 MSTORE PUSH1 0x20 PUSH0 KECCAK256 SWAP1 POP SWAP2 SWAP1 POP JUMP JUMPDEST PUSH0 PUSH1 0x20 PUSH1 0x1F DUP4 ADD DIV SWAP1 POP SWAP2 SWAP1 POP JUMP JUMPDEST PUSH0 DUP3 DUP3 SHL SWAP1 POP SWAP3 SWAP2 POP POP JUMP JUMPDEST PUSH0 PUSH1 0x8 DUP4 MUL PUSH2 0x513 PUSH32 0xFFFFFFFFFFFFFFFFFFFFFFFFFFFFFFFFFFFFFFFFFFFFFFFFFFFFFFFFFFFFFFFF DUP3 PUSH2 0x4D8 JUMP JUMPDEST PUSH2 0x51D DUP7 DUP4 PUSH2 0x4D8 JUMP JUMPDEST SWAP6 POP DUP1 NOT DUP5 AND SWAP4 POP DUP1 DUP7 AND DUP5 OR SWAP3 POP POP POP SWAP4 SWAP3 POP POP POP JUMP JUMPDEST PUSH0 DUP2 SWAP1 POP SWAP2 SWAP1 POP JUMP JUMPDEST PUSH0 DUP2 SWAP1 POP SWAP2 SWAP1 POP JUMP JUMPDEST PUSH0 PUSH2 0x561 PUSH2 0x55C PUSH2 0x557 DUP5 PUSH2 0x535 JUMP JUMPDEST PUSH2 0x53E JUMP JUMPDEST PUSH2 0x535 JUMP JUMPDEST SWAP1 POP SWAP2 SWAP1 POP JUMP JUMPDEST PUSH0 DUP2 SWAP1 POP SWAP2 SWAP1 POP JUMP JUMPDEST PUSH2 0x57A DUP4 PUSH2 0x547 JUMP JUMPDEST PUSH2 0x58E PUSH2 0x586 DUP3 PUSH2 0x568 JUMP JUMPDEST DUP5 DUP5 SLOAD PUSH2 0x4E4 JUMP JUMPDEST DUP3 SSTORE POP POP POP POP JUMP JUMPDEST PUSH0 PUSH0 SWAP1 POP SWAP1 JUMP JUMPDEST PUSH2 0x5A5 PUSH2 0x596 JUMP JUMPDEST PUSH2 0x5B0 DUP2 DUP5 DUP5 PUSH2 0x571 JUMP JUMPDEST POP POP POP JUMP JUMPDEST JUMPDEST DUP2 DUP2 LT ISZERO PUSH2 0x5D3 JUMPI PUSH2 0x5C8 PUSH0 DUP3 PUSH2 0x59D JUMP JUMPDEST PUSH1 0x1 DUP2 ADD SWAP1 POP PUSH2 0x5B6 JUMP JUMPDEST POP POP JUMP JUMPDEST PUSH1 0x1F DUP3 GT ISZERO PUSH2 0x618 JUMPI PUSH2 0x5E9 DUP2 PUSH2 0x4B7 JUMP JUMPDEST PUSH2 0x5F2 DUP5 PUSH2 0x4C9 JUMP JUMPDEST DUP2 ADD PUSH1 0x20 DUP6 LT ISZERO PUSH2 0x601 JUMPI DUP2 SWAP1 POP JUMPDEST PUSH2 0x615 PUSH2 0x60D DUP6 PUSH2 0x4C9 JUMP JUMPDEST DUP4 ADD DUP3 PUSH2 0x5B5 JUMP JUMPDEST POP POP JUMPDEST POP POP POP JUMP JUMPDEST PUSH0 DUP3 DUP3 SHR SWAP1 POP SWAP3 SWAP2 POP POP JUMP JUMPDEST PUSH0 PUSH2 0x638 PUSH0 NOT DUP5 PUSH1 0x8 MUL PUSH2 0x61D JUMP JUMPDEST NOT DUP1 DUP4 AND SWAP2 POP POP SWAP3 SWAP2 POP POP JUMP JUMPDEST PUSH0 PUSH2 0x650 DUP4 DUP4 PUSH2 0x629 JUMP JUMPDEST SWAP2 POP DUP3 PUSH1 0x2 MUL DUP3 OR SWAP1 POP SWAP3 SWAP2 POP POP JUMP JUMPDEST PUSH2 0x669 DUP3 PUSH2 0x450 JUMP JUMPDEST PUSH8 0xFFFFFFFFFFFFFFFF DUP2 GT ISZERO PUSH2 0x682 JUMPI PUSH2 0x681 PUSH2 0x187 JUMP JUMPDEST JUMPDEST PUSH2 0x68C DUP3 SLOAD PUSH2 0x487 JUMP JUMPDEST PUSH2 0x697 DUP3 DUP3 DUP6 PUSH2 0x5D7 JUMP JUMPDEST PUSH0 PUSH1 0x20 SWAP1 POP PUSH1 0x1F DUP4 GT PUSH1 0x1 DUP2 EQ PUSH2 0x6C8 JUMPI PUSH0 DUP5 ISZERO PUSH2 0x6B6 JUMPI DUP3 DUP8 ADD MLOAD SWAP1 POP JUMPDEST PUSH2 0x6C0 DUP6 DUP3 PUSH2 0x645 JUMP JUMPDEST DUP7 SSTORE POP PUSH2 0x727 JUMP JUMPDEST PUSH1 0x1F NOT DUP5 AND PUSH2 0x6D6 DUP7 PUSH2 0x4B7 JUMP JUMPDEST PUSH0 JUMPDEST DUP3 DUP2 LT ISZERO PUSH2 0x6FD JUMPI DUP5 DUP10 ADD MLOAD DUP3 SSTORE PUSH1 0x1 DUP3 ADD SWAP2 POP PUSH1 0x20 DUP6 ADD SWAP5 POP PUSH1 0x20 DUP2 ADD SWAP1 POP PUSH2 0x6D8 JUMP JUMPDEST DUP7 DUP4 LT ISZERO PUSH2 0x71A JUMPI DUP5 DUP10 ADD MLOAD PUSH2 0x716 PUSH1 0x1F DUP10 AND DUP3 PUSH2 0x629 JUMP JUMPDEST DUP4 SSTORE POP JUMPDEST PUSH1 0x1 PUSH1 0x2 DUP9 MUL ADD DUP9 SSTORE POP POP POP JUMPDEST POP POP POP POP POP POP JUMP JUMPDEST PUSH2 0x8A3 DUP1 PUSH2 0x73C PUSH0 CODECOPY PUSH0 RETURN INVALID PUSH1 0x80 PUSH1 0x40 MSTORE CALLVALUE DUP1 ISZERO PUSH2 0xF JUMPI PUSH0 PUSH0 REVERT JUMPDEST POP PUSH1 0x4 CALLDATASIZE LT PUSH2 0x60 JUMPI PUSH0 CALLDATALOAD PUSH1 0xE0 SHR DUP1 PUSH4 0x121B93F EQ PUSH2 0x64 JUMPI DUP1 PUSH4 0x9EEF43E EQ PUSH2 0x80 JUMPI DUP1 PUSH4 0x3477EE2E EQ PUSH2 0xB0 JUMPI DUP1 PUSH4 0x35B8E820 EQ PUSH2 0xE0 JUMPI DUP1 PUSH4 0x3866965C EQ PUSH2 0x111 JUMPI DUP1 PUSH4 0x5DF81330 EQ PUSH2 0x12F JUMPI JUMPDEST PUSH0 PUSH0 REVERT JUMPDEST PUSH2 0x7E PUSH1 0x4 DUP1 CALLDATASIZE SUB DUP2 ADD SWAP1 PUSH2 0x79 SWAP2 SWAP1 PUSH2 0x4EA JUMP JUMPDEST PUSH2 0x15F JUMP JUMPDEST STOP JUMPDEST PUSH2 0x9A PUSH1 0x4 DUP1 CALLDATASIZE SUB DUP2 ADD SWAP1 PUSH2 0x95 SWAP2 SWAP1 PUSH2 0x56F JUMP JUMPDEST PUSH2 0x30E JUMP JUMPDEST PUSH1 0x40 MLOAD PUSH2 0xA7 SWAP2 SWAP1 PUSH2 0x5B4 JUMP JUMPDEST PUSH1 0x40 MLOAD DUP1 SWAP2 SUB SWAP1 RETURN JUMPDEST PUSH2 0xCA PUSH1 0x4 DUP1 CALLDATASIZE SUB DUP2 ADD SWAP1 PUSH2 0xC5 SWAP2 SWAP1 PUSH2 0x4EA JUMP JUMPDEST PUSH2 0x32B JUMP JUMPDEST PUSH1 0x40 MLOAD PUSH2 0xD7 SWAP2 SWAP1 PUSH2 0x63D JUMP JUMPDEST PUSH1 0x40 MLOAD DUP1 SWAP2 SUB SWAP1 RETURN JUMPDEST PUSH2 0xFA PUSH1 0x4 DUP1 CALLDATASIZE SUB DUP2 ADD SWAP1 PUSH2 0xF5 SWAP2 SWAP1 PUSH2 0x4EA JUMP JUMPDEST PUSH2 0x3D0 JUMP JUMPDEST PUSH1 0x40 MLOAD PUSH2 0x108 SWAP3 SWAP2 SWAP1 PUSH2 0x66C JUMP JUMPDEST PUSH1 0x40 MLOAD DUP1 SWAP2 SUB SWAP1 RETURN JUMPDEST PUSH2 0x119 PUSH2 0x493 JUMP JUMPDEST PUSH1 0x40 MLOAD PUSH2 0x126 SWAP2 SWAP1 PUSH2 0x69A JUMP JUMPDEST PUSH1 0x40 MLOAD DUP1 SWAP2 SUB SWAP1 RETURN JUMPDEST PUSH2 0x149 PUSH1 0x4 DUP1 CALLDATASIZE SUB DUP2 ADD SWAP1 PUSH2 0x144 SWAP2 SWAP1 PUSH2 0x4EA JUMP JUMPDEST PUSH2 0x49E JUMP JUMPDEST PUSH1 0x40 MLOAD PUSH2 0x156 SWAP2 SWAP1 PUSH2 0x69A JUMP JUMPDEST PUSH1 0x40 MLOAD DUP1 SWAP2 SUB SWAP1 RETURN JUMPDEST PUSH0 DUP1 SLOAD SWAP1 POP DUP2 LT PUSH2 0x1A5 JUMPI PUSH1 0x40 MLOAD PUSH32 0x8C379A000000000000000000000000000000000000000000000000000000000 DUP2 MSTORE PUSH1 0x4 ADD PUSH2 0x19C SWAP1 PUSH2 0x6FD JUMP JUMPDEST PUSH1 0x40 MLOAD DUP1 SWAP2 SUB SWAP1 REVERT JUMPDEST PUSH1 0x2 PUSH0 CALLER PUSH20 0xFFFFFFFFFFFFFFFFFFFFFFFFFFFFFFFFFFFFFFFF AND PUSH20 0xFFFFFFFFFFFFFFFFFFFFFFFFFFFFFFFFFFFFFFFF AND DUP2 MSTORE PUSH1 0x20 ADD SWAP1 DUP2 MSTORE PUSH1 0x20 ADD PUSH0 KECCAK256 PUSH0 SWAP1 SLOAD SWAP1 PUSH2 0x100 EXP SWAP1 DIV PUSH1 0xFF AND ISZERO PUSH2 0x22F JUMPI PUSH1 0x40 MLOAD PUSH32 0x8C379A000000000000000000000000000000000000000000000000000000000 DUP2 MSTORE PUSH1 0x4 ADD PUSH2 0x226 SWAP1 PUSH2 0x765 JUMP JUMPDEST PUSH1 0x40 MLOAD DUP1 SWAP2 SUB SWAP1 REVERT JUMPDEST PUSH1 0x1 PUSH1 0x2 PUSH0 CALLER PUSH20 0xFFFFFFFFFFFFFFFFFFFFFFFFFFFFFFFFFFFFFFFF AND PUSH20 0xFFFFFFFFFFFFFFFFFFFFFFFFFFFFFFFFFFFFFFFF AND DUP2 MSTORE PUSH1 0x20 ADD SWAP1 DUP2 MSTORE PUSH1 0x20 ADD PUSH0 KECCAK256 PUSH0 PUSH2 0x100 EXP DUP2 SLOAD DUP2 PUSH1 0xFF MUL NOT AND SWAP1 DUP4 ISZERO ISZERO MUL OR SWAP1 SSTORE POP PUSH1 0x1 DUP1 PUSH0 DUP4 DUP2 MSTORE PUSH1 0x20 ADD SWAP1 DUP2 MSTORE PUSH1 0x20 ADD PUSH0 KECCAK256 PUSH0 DUP3 DUP3 SLOAD PUSH2 0x2A4 SWAP2 SWAP1 PUSH2 0x7B0 JUMP JUMPDEST SWAP3 POP POP DUP2 SWAP1 SSTORE POP DUP1 CALLER PUSH20 0xFFFFFFFFFFFFFFFFFFFFFFFFFFFFFFFFFFFFFFFF AND PUSH32 0xEA66F58E474BC09F580000E81F31B334D171DB387D0C6098BA47BD897741679B PUSH1 0x1 PUSH0 DUP6 DUP2 MSTORE PUSH1 0x20 ADD SWAP1 DUP2 MSTORE PUSH1 0x20 ADD PUSH0 KECCAK256 SLOAD PUSH1 0x40 MLOAD PUSH2 0x303 SWAP2 SWAP1 PUSH2 0x69A JUMP JUMPDEST PUSH1 0x40 MLOAD DUP1 SWAP2 SUB SWAP1 LOG3 POP JUMP JUMPDEST PUSH1 0x2 PUSH1 0x20 MSTORE DUP1 PUSH0 MSTORE PUSH1 0x40 PUSH0 KECCAK256 PUSH0 SWAP2 POP SLOAD SWAP1 PUSH2 0x100 EXP SWAP1 DIV PUSH1 0xFF AND DUP2 JUMP JUMPDEST PUSH0 DUP2 DUP2 SLOAD DUP2 LT PUSH2 0x339 JUMPI PUSH0 DUP1 REVERT JUMPDEST SWAP1 PUSH0 MSTORE PUSH1 0x20 PUSH0 KECCAK256 ADD PUSH0 SWAP2 POP SWAP1 POP DUP1 SLOAD PUSH2 0x351 SWAP1 PUSH2 0x810 JUMP JUMPDEST DUP1 PUSH1 0x1F ADD PUSH1 0x20 DUP1 SWAP2 DIV MUL PUSH1 0x20 ADD PUSH1 0x40 MLOAD SWAP1 DUP2 ADD PUSH1 0x40 MSTORE DUP1 SWAP3 SWAP2 SWAP1 DUP2 DUP2 MSTORE PUSH1 0x20 ADD DUP3 DUP1 SLOAD PUSH2 0x37D SWAP1 PUSH2 0x810 JUMP JUMPDEST DUP1 ISZERO PUSH2 0x3C8 JUMPI DUP1 PUSH1 0x1F LT PUSH2 0x39F JUMPI PUSH2 0x100 DUP1 DUP4 SLOAD DIV MUL DUP4 MSTORE SWAP2 PUSH1 0x20 ADD SWAP2 PUSH2 0x3C8 JUMP JUMPDEST DUP3 ADD SWAP2 SWAP1 PUSH0 MSTORE PUSH1 0x20 PUSH0 KECCAK256 SWAP1 JUMPDEST DUP2 SLOAD DUP2 MSTORE SWAP1 PUSH1 0x1 ADD SWAP1 PUSH1 0x20 ADD DUP1 DUP4 GT PUSH2 0x3AB JUMPI DUP3 SWAP1 SUB PUSH1 0x1F AND DUP3 ADD SWAP2 JUMPDEST POP POP POP POP POP DUP2 JUMP JUMPDEST PUSH1 0x60 PUSH0 PUSH0 DUP4 DUP2 SLOAD DUP2 LT PUSH2 0x3E6 JUMPI PUSH2 0x3E5 PUSH2 0x840 JUMP JUMPDEST JUMPDEST SWAP1 PUSH0 MSTORE PUSH1 0x20 PUSH0 KECCAK256 ADD PUSH1 0x1 PUSH0 DUP6 DUP2 MSTORE PUSH1 0x20 ADD SWAP1 DUP2 MSTORE PUSH1 0x20 ADD PUSH0 KECCAK256 SLOAD DUP2 DUP1 SLOAD PUSH2 0x40C SWAP1 PUSH2 0x810 JUMP JUMPDEST DUP1 PUSH1 0x1F ADD PUSH1 0x20 DUP1 SWAP2 DIV MUL PUSH1 0x20 ADD PUSH1 0x40 MLOAD SWAP1 DUP2 ADD PUSH1 0x40 MSTORE DUP1 SWAP3 SWAP2 SWAP1 DUP2 DUP2 MSTORE PUSH1 0x20 ADD DUP3 DUP1 SLOAD PUSH2 0x438 SWAP1 PUSH2 0x810 JUMP JUMPDEST DUP1 ISZERO PUSH2 0x483 JUMPI DUP1 PUSH1 0x1F LT PUSH2 0x45A JUMPI PUSH2 0x100 DUP1 DUP4 SLOAD DIV MUL DUP4 MSTORE SWAP2 PUSH1 0x20 ADD SWAP2 PUSH2 0x483 JUMP JUMPDEST DUP3 ADD SWAP2 SWAP1 PUSH0 MSTORE PUSH1 0x20 PUSH0 KECCAK256 SWAP1 JUMPDEST DUP2 SLOAD DUP2 MSTORE SWAP1 PUSH1 0x1 ADD SWAP1 PUSH1 0x20 ADD DUP1 DUP4 GT PUSH2 0x466 JUMPI DUP3 SWAP1 SUB PUSH1 0x1F AND DUP3 ADD SWAP2 JUMPDEST POP POP POP POP POP SWAP2 POP SWAP2 POP SWAP2 POP SWAP2 POP SWAP2 JUMP JUMPDEST PUSH0 PUSH0 DUP1 SLOAD SWAP1 POP SWAP1 POP SWAP1 JUMP JUMPDEST PUSH1 0x1 PUSH1 0x20 MSTORE DUP1 PUSH0 MSTORE PUSH1 0x40 PUSH0 KECCAK256 PUSH0 SWAP2 POP SWAP1 POP SLOAD DUP2 JUMP JUMPDEST PUSH0 PUSH0 REVERT JUMPDEST PUSH0 DUP2 SWAP1 POP SWAP2 SWAP1 POP JUMP JUMPDEST PUSH2 0x4C9 DUP2 PUSH2 0x4B7 JUMP JUMPDEST DUP2 EQ PUSH2 0x4D3 JUMPI PUSH0 PUSH0 REVERT JUMPDEST POP JUMP JUMPDEST PUSH0 DUP2 CALLDATALOAD SWAP1 POP PUSH2 0x4E4 DUP2 PUSH2 0x4C0 JUMP JUMPDEST SWAP3 SWAP2 POP POP JUMP JUMPDEST PUSH0 PUSH1 0x20 DUP3 DUP5 SUB SLT ISZERO PUSH2 0x4FF JUMPI PUSH2 0x4FE PUSH2 0x4B3 JUMP JUMPDEST JUMPDEST PUSH0 PUSH2 0x50C DUP5 DUP3 DUP6 ADD PUSH2 0x4D6 JUMP JUMPDEST SWAP2 POP POP SWAP3 SWAP2 POP POP JUMP JUMPDEST PUSH0 PUSH20 0xFFFFFFFFFFFFFFFFFFFFFFFFFFFFFFFFFFFFFFFF DUP3 AND SWAP1 POP SWAP2 SWAP1 POP JUMP JUMPDEST PUSH0 PUSH2 0x53E DUP3 PUSH2 0x515 JUMP JUMPDEST SWAP1 POP SWAP2 SWAP1 POP JUMP JUMPDEST PUSH2 0x54E DUP2 PUSH2 0x534 JUMP JUMPDEST DUP2 EQ PUSH2 0x558 JUMPI PUSH0 PUSH0 REVERT JUMPDEST POP JUMP JUMPDEST PUSH0 DUP2 CALLDATALOAD SWAP1 POP PUSH2 0x569 DUP2 PUSH2 0x545 JUMP JUMPDEST SWAP3 SWAP2 POP POP JUMP JUMPDEST PUSH0 PUSH1 0x20 DUP3 DUP5 SUB SLT ISZERO PUSH2 0x584 JUMPI PUSH2 0x583 PUSH2 0x4B3 JUMP JUMPDEST JUMPDEST PUSH0 PUSH2 0x591 DUP5 DUP3 DUP6 ADD PUSH2 0x55B JUMP JUMPDEST SWAP2 POP POP SWAP3 SWAP2 POP POP JUMP JUMPDEST PUSH0 DUP2 ISZERO ISZERO SWAP1 POP SWAP2 SWAP1 POP JUMP JUMPDEST PUSH2 0x5AE DUP2 PUSH2 0x59A JUMP JUMPDEST DUP3 MSTORE POP POP JUMP JUMPDEST PUSH0 PUSH1 0x20 DUP3 ADD SWAP1 POP PUSH2 0x5C7 PUSH0 DUP4 ADD DUP5 PUSH2 0x5A5 JUMP JUMPDEST SWAP3 SWAP2 POP POP JUMP JUMPDEST PUSH0 DUP2 MLOAD SWAP1 POP SWAP2 SWAP1 POP JUMP JUMPDEST PUSH0 DUP3 DUP3 MSTORE PUSH1 0x20 DUP3 ADD SWAP1 POP SWAP3 SWAP2 POP POP JUMP JUMPDEST DUP3 DUP2 DUP4 MCOPY PUSH0 DUP4 DUP4 ADD MSTORE POP POP POP JUMP JUMPDEST PUSH0 PUSH1 0x1F NOT PUSH1 0x1F DUP4 ADD AND SWAP1 POP SWAP2 SWAP1 POP JUMP JUMPDEST PUSH0 PUSH2 0x60F DUP3 PUSH2 0x5CD JUMP JUMPDEST PUSH2 0x619 DUP2 DUP6 PUSH2 0x5D7 JUMP JUMPDEST SWAP4 POP PUSH2 0x629 DUP2 DUP6 PUSH1 0x20 DUP7 ADD PUSH2 0x5E7 JUMP JUMPDEST PUSH2 0x632 DUP2 PUSH2 0x5F5 JUMP JUMPDEST DUP5 ADD SWAP2 POP POP SWAP3 SWAP2 POP POP JUMP JUMPDEST PUSH0 PUSH1 0x20 DUP3 ADD SWAP1 POP DUP2 DUP2 SUB PUSH0 DUP4 ADD MSTORE PUSH2 0x655 DUP2 DUP5 PUSH2 0x605 JUMP JUMPDEST SWAP1 POP SWAP3 SWAP2 POP POP JUMP JUMPDEST PUSH2 0x666 DUP2 PUSH2 0x4B7 JUMP JUMPDEST DUP3 MSTORE POP POP JUMP JUMPDEST PUSH0 PUSH1 0x40 DUP3 ADD SWAP1 POP DUP2 DUP2 SUB PUSH0 DUP4 ADD MSTORE PUSH2 0x684 DUP2 DUP6 PUSH2 0x605 JUMP JUMPDEST SWAP1 POP PUSH2 0x693 PUSH1 0x20 DUP4 ADD DUP5 PUSH2 0x65D JUMP JUMPDEST SWAP4 SWAP3 POP POP POP JUMP JUMPDEST PUSH0 PUSH1 0x20 DUP3 ADD SWAP1 POP PUSH2 0x6AD PUSH0 DUP4 ADD DUP5 PUSH2 0x65D JUMP JUMPDEST SWAP3 SWAP2 POP POP JUMP JUMPDEST PUSH32 0x496E76616C69642063616E646964617465000000000000000000000000000000 PUSH0 DUP3 ADD MSTORE POP JUMP JUMPDEST PUSH0 PUSH2 0x6E7 PUSH1 0x11 DUP4 PUSH2 0x5D7 JUMP JUMPDEST SWAP2 POP PUSH2 0x6F2 DUP3 PUSH2 0x6B3 JUMP JUMPDEST PUSH1 0x20 DUP3 ADD SWAP1 POP SWAP2 SWAP1 POP JUMP JUMPDEST PUSH0 PUSH1 0x20 DUP3 ADD SWAP1 POP DUP2 DUP2 SUB PUSH0 DUP4 ADD MSTORE PUSH2 0x714 DUP2 PUSH2 0x6DB JUMP JUMPDEST SWAP1 POP SWAP2 SWAP1 POP JUMP JUMPDEST PUSH32 0x416C726561647920766F74656400000000000000000000000000000000000000 PUSH0 DUP3 ADD MSTORE POP JUMP JUMPDEST PUSH0 PUSH2 0x74F PUSH1 0xD DUP4 PUSH2 0x5D7 JUMP JUMPDEST SWAP2 POP PUSH2 0x75A DUP3 PUSH2 0x71B JUMP JUMPDEST PUSH1 0x20 DUP3 ADD SWAP1 POP SWAP2 SWAP1 POP JUMP JUMPDEST PUSH0 PUSH1 0x20 DUP3 ADD SWAP1 POP DUP2 DUP2 SUB PUSH0 DUP4 ADD MSTORE PUSH2 0x77C DUP2 PUSH2 0x743 JUMP JUMPDEST SWAP1 POP SWAP2 SWAP1 POP JUMP JUMPDEST PUSH32 0x4E487B7100000000000000000000000000000000000000000000000000000000 PUSH0 MSTORE PUSH1 0x11 PUSH1 0x4 MSTORE PUSH1 0x24 PUSH0 REVERT JUMPDEST PUSH0 PUSH2 0x7BA DUP3 PUSH2 0x4B7 JUMP JUMPDEST SWAP2 POP PUSH2 0x7C5 DUP4 PUSH2 0x4B7 JUMP JUMPDEST SWAP3 POP DUP3 DUP3 ADD SWAP1 POP DUP1 DUP3 GT ISZERO PUSH2 0x7DD JUMPI PUSH2 0x7DC PUSH2 0x783 JUMP JUMPDEST JUMPDEST SWAP3 SWAP2 POP POP JUMP JUMPDEST PUSH32 0x4E487B7100000000000000000000000000000000000000000000000000000000 PUSH0 MSTORE PUSH1 0x22 PUSH1 0x4 MSTORE PUSH1 0x24 PUSH0 REVERT JUMPDEST PUSH0 PUSH1 0x2 DUP3 DIV SWAP1 POP PUSH1 0x1 DUP3 AND DUP1 PUSH2 0x827 JUMPI PUSH1 0x7F DUP3 AND SWAP2 POP JUMPDEST PUSH1 0x20 DUP3 LT DUP2 SUB PUSH2 0x83A JUMPI PUSH2 0x839 PUSH2 0x7E3 JUMP JUMPDEST JUMPDEST POP SWAP2 SWAP1 POP JUMP JUMPDEST PUSH32 0x4E487B7100000000000000000000000000000000000000000000000000000000 PUSH0 MSTORE PUSH1 0x32 PUSH1 0x4 MSTORE PUSH1 0x24 PUSH0 REVERT INVALID LOG2 PUSH5 0x6970667358 0x22 SLT KECCAK256 RETURN DUP12 CODECOPY 0xAA ISZERO CALL DUP8 SWAP14 SWAP16 0xD3 DUP12 0xB7 0x1E SWAP8 PUSH27 0x7C3A652943C62890B559AF6D04F6DD078464736F6C634300081E00 CALLER "
				},
				"gasEstimates": {
					"creation": {
						"codeDepositCost": "442200",
						"executionCost": "infinite",
						"totalCost": "infinite"
					},
					"external": {
						"candidates(uint256)": "infinite",
						"getCandidate(uint256)": "infinite",
						"hasVoted(address)": "2833",
						"totalCandidates()": "2505",
						"vote(uint256)": "infinite",
						"votes(uint256)": "infinite"
					}
				},
				"methodIdentifiers": {
					"candidates(uint256)": "3477ee2e",
					"getCandidate(uint256)": "35b8e820",
					"hasVoted(address)": "09eef43e",
					"totalCandidates()": "3866965c",
					"vote(uint256)": "0121b93f",
					"votes(uint256)": "5df81330"
				}
			},
			"storageLayout": {
				"storage": [
					{
						"astId": 4,
						"contract": "chapter06/voting.sol:Voting",
						"label": "candidates",
						"offset": 0,
						"slot": "0",
						"type": "t_array(t_string_storage)dyn_storage"
					},
					{
						"astId": 8,
						"contract": "chapter06/voting.sol:Voting",
						"label": "votes",
						"offset": 0,
						"slot": "1",
						"type": "t_mapping(t_uint256,t_uint256)"
					},
					{
						"astId": 12,
						"contract": "chapter06/voting.sol:Voting",
						"label": "hasVoted",
						"offset": 0,
						"slot": "2",
						"type": "t_mapping(t_address,t_bool)"
					}
				],
				"types": {
					"t_address": {
						"encoding": "inplace",
						"label": "address",
						"numberOfBytes": "20"
					},
					"t_array(t_string_storage)dyn_storage": {
						"base": "t_string_storage",
						"encoding": "dynamic_array",
						"label": "string[]",
						"numberOfBytes": "32"
					},
					"t_bool": {
						"encoding": "inplace",
						"label": "bool",
						"numberOfBytes": "1"
					},
					"t_mapping(t_address,t_bool)": {
						"encoding": "mapping",
						"key": "t_address",
						"label": "mapping(address => bool)",
						"numberOfBytes": "32",
						"value": "t_bool"
					},
					"t_mapping(t_uint256,t_uint256)": {
						"encoding": "mapping",
						"key": "t_uint256",
						"label": "mapping(uint256 => uint256)",
						"numberOfBytes": "32",
						"value": "t_uint256"
					},
					"t_string_storage": {
						"encoding": "bytes",
						"label": "string",
						"numberOfBytes": "32"
					},
					"t_uint256": {
						"encoding": "inplace",
						"label": "uint256",
						"numberOfBytes": "32"
					}
				}
			},
			"userdoc": {
				"kind": "user",
				"methods": {},
				"version": 1
			}
		}
	}
}