{
	"chapter05/sample5-03.sol": {
		"Dog": {
			"abi": [
				{
					"inputs": [],
					"name": "buy",
					"outputs": [],
					"stateMutability": "nonpayable",
					"type": "function"
				},
				{
					"inputs": [],
					"name": "getAge",
					"outputs": [
						{
							"internalType": "uint256",
							"name": "",
							"type": "uint256"
						}
					],
					"stateMutability": "view",
					"type": "function"
				},
				{
					"inputs": [],
					"name": "getName",
					"outputs": [
						{
							"internalType": "string",
							"name": "",
							"type": "string"
						}
					],
					"stateMutability": "view",
					"type": "function"
				},
				{
					"inputs": [],
					"name": "getOwner",
					"outputs": [
						{
							"internalType": "address",
							"name": "",
							"type": "address"
						}
					],
					"stateMutability": "view",
					"type": "function"
				},
				{
					"inputs": [],
					"name": "getPrice",
					"outputs": [
						{
							"internalType": "uint256",
							"name": "",
							"type": "uint256"
						}
					],
					"stateMutability": "view",
					"type": "function"
				},
				{
					"inputs": [],
					"name": "name",
					"outputs": [
						{
							"internalType": "string",
							"name": "",
							"type": "string"
						}
					],
					"stateMutability": "view",
					"type": "function"
				},
				{
					"inputs": [],
					"name": "price",
					"outputs": [
						{
							"internalType": "uint256",
							"name": "",
							"type": "uint256"
						}
					],
					"stateMutability": "view",
					"type": "function"
				},
				{
					"inputs": [
						{
							"internalType": "uint256",
							"name": "_age",
							"type": "uint256"
						}
					],
					"name": "setAge",
					"outputs": [],
					"stateMutability": "nonpayable",
					"type": "function"
				},
				{
					"inputs": [
						{
							"internalType": "string",
							"name": "_name",
							"type": "string"
						}
					],
					"name": "setName",
					"outputs": [],
					"stateMutability": "nonpayable",
					"type": "function"
				},
				{
					"inputs": [
						{
							"internalType": "uint256",
							"name": "_price",
							"type": "uint256"
						}
					],
					"name": "setPrice",
					"outputs": [],
					"stateMutability": "nonpayable",
					"type": "function"
				}
			],
			"devdoc": {
				"kind": "dev",
				"methods": {},
				"version": 1
			},
			"evm": {
				"assembly": "    /* \"chapter05/sample5-03.sol\":651:821  contract Dog is Animal {... */\n  mstore(0x40, 0x80)\n  callvalue\n  dup1\n  iszero\n  tag_1\n  jumpi\n  revert(0x00, 0x00)\ntag_1:\n  pop\n  dataSize(sub_0)\n  dup1\n  dataOffset(sub_0)\n  0x00\n  codecopy\n  0x00\n  return\nstop\n\nsub_0: assembly {\n        /* \"chapter05/sample5-03.sol\":651:821  contract Dog is Animal {... */\n      mstore(0x40, 0x80)\n      callvalue\n      dup1\n      iszero\n      tag_1\n      jumpi\n      revert(0x00, 0x00)\n    tag_1:\n      pop\n      jumpi(tag_2, lt(calldatasize, 0x04))\n      shr(0xe0, calldataload(0x00))\n      dup1\n      0x98d5fdca\n      gt\n      tag_13\n      jumpi\n      dup1\n      0x98d5fdca\n      eq\n      tag_8\n      jumpi\n      dup1\n      0xa035b1fe\n      eq\n      tag_9\n      jumpi\n      dup1\n      0xa6f2ae3a\n      eq\n      tag_10\n      jumpi\n      dup1\n      0xc47f0027\n      eq\n      tag_11\n      jumpi\n      dup1\n      0xd5dcf127\n      eq\n      tag_12\n      jumpi\n      jump(tag_2)\n    tag_13:\n      dup1\n      0x06fdde03\n      eq\n      tag_3\n      jumpi\n      dup1\n      0x17d7de7c\n      eq\n      tag_4\n      jumpi\n      dup1\n      0x893d20e8\n      eq\n      tag_5\n      jumpi\n      dup1\n      0x91b7f5ed\n      eq\n      tag_6\n      jumpi\n      dup1\n      0x967e6e65\n      eq\n      tag_7\n      jumpi\n    tag_2:\n      revert(0x00, 0x00)\n        /* \"chapter05/sample5-03.sol\":80:98  string public name */\n    tag_3:\n      tag_14\n      tag_15\n      jump\t// in\n    tag_14:\n      mload(0x40)\n      tag_16\n      swap2\n      swap1\n      tag_17\n      jump\t// in\n    tag_16:\n      mload(0x40)\n      dup1\n      swap2\n      sub\n      swap1\n      return\n        /* \"chapter05/sample5-03.sol\":259:342  function getName() public view returns (string memory) {... */\n    tag_4:\n      tag_18\n      tag_19\n      jump\t// in\n    tag_18:\n      mload(0x40)\n      tag_20\n      swap2\n      swap1\n      tag_17\n      jump\t// in\n    tag_20:\n      mload(0x40)\n      dup1\n      swap2\n      sub\n      swap1\n      return\n        /* \"chapter05/sample5-03.sol\":568:647  function getOwner() public view returns (address) {... */\n    tag_5:\n      tag_21\n      tag_22\n      jump\t// in\n    tag_21:\n      mload(0x40)\n      tag_23\n      swap2\n      swap1\n      tag_24\n      jump\t// in\n    tag_23:\n      mload(0x40)\n      dup1\n      swap2\n      sub\n      swap1\n      return\n        /* \"chapter05/sample5-03.sol\":348:417  function setPrice(uint _price) public {... */\n    tag_6:\n      tag_25\n      0x04\n      dup1\n      calldatasize\n      sub\n      dup2\n      add\n      swap1\n      tag_26\n      swap2\n      swap1\n      tag_27\n      jump\t// in\n    tag_26:\n      tag_28\n      jump\t// in\n    tag_25:\n      stop\n        /* \"chapter05/sample5-03.sol\":747:819  function getAge() public view returns (uint) {... */\n    tag_7:\n      tag_29\n      tag_30\n      jump\t// in\n    tag_29:\n      mload(0x40)\n      tag_31\n      swap2\n      swap1\n      tag_32\n      jump\t// in\n    tag_31:\n      mload(0x40)\n      dup1\n      swap2\n      sub\n      swap1\n      return\n        /* \"chapter05/sample5-03.sol\":423:499  function getPrice() public view returns (uint) {... */\n    tag_8:\n      tag_33\n      tag_34\n      jump\t// in\n    tag_33:\n      mload(0x40)\n      tag_35\n      swap2\n      swap1\n      tag_32\n      jump\t// in\n    tag_35:\n      mload(0x40)\n      dup1\n      swap2\n      sub\n      swap1\n      return\n        /* \"chapter05/sample5-03.sol\":104:121  uint public price */\n    tag_9:\n      tag_36\n      tag_37\n      jump\t// in\n    tag_36:\n      mload(0x40)\n      tag_38\n      swap2\n      swap1\n      tag_32\n      jump\t// in\n    tag_38:\n      mload(0x40)\n      dup1\n      swap2\n      sub\n      swap1\n      return\n        /* \"chapter05/sample5-03.sol\":505:562  function buy() public {... */\n    tag_10:\n      tag_39\n      tag_40\n      jump\t// in\n    tag_39:\n      stop\n        /* \"chapter05/sample5-03.sol\":179:253  function setName(string memory _name) public {... */\n    tag_11:\n      tag_41\n      0x04\n      dup1\n      calldatasize\n      sub\n      dup2\n      add\n      swap1\n      tag_42\n      swap2\n      swap1\n      tag_43\n      jump\t// in\n    tag_42:\n      tag_44\n      jump\t// in\n    tag_41:\n      stop\n        /* \"chapter05/sample5-03.sol\":680:741  function setAge(uint _age) public {... */\n    tag_12:\n      tag_45\n      0x04\n      dup1\n      calldatasize\n      sub\n      dup2\n      add\n      swap1\n      tag_46\n      swap2\n      swap1\n      tag_27\n      jump\t// in\n    tag_46:\n      tag_47\n      jump\t// in\n    tag_45:\n      stop\n        /* \"chapter05/sample5-03.sol\":80:98  string public name */\n    tag_15:\n      0x00\n      dup1\n      sload\n      tag_48\n      swap1\n      tag_49\n      jump\t// in\n    tag_48:\n      dup1\n      0x1f\n      add\n      0x20\n      dup1\n      swap2\n      div\n      mul\n      0x20\n      add\n      mload(0x40)\n      swap1\n      dup2\n      add\n      0x40\n      mstore\n      dup1\n      swap3\n      swap2\n      swap1\n      dup2\n      dup2\n      mstore\n      0x20\n      add\n      dup3\n      dup1\n      sload\n      tag_50\n      swap1\n      tag_49\n      jump\t// in\n    tag_50:\n      dup1\n      iszero\n      tag_51\n      jumpi\n      dup1\n      0x1f\n      lt\n      tag_52\n      jumpi\n      0x0100\n      dup1\n      dup4\n      sload\n      div\n      mul\n      dup4\n      mstore\n      swap2\n      0x20\n      add\n      swap2\n      jump(tag_51)\n    tag_52:\n      dup3\n      add\n      swap2\n      swap1\n      0x00\n      mstore\n      keccak256(0x00, 0x20)\n      swap1\n    tag_53:\n      dup2\n      sload\n      dup2\n      mstore\n      swap1\n      0x01\n      add\n      swap1\n      0x20\n      add\n      dup1\n      dup4\n      gt\n      tag_53\n      jumpi\n      dup3\n      swap1\n      sub\n      0x1f\n      and\n      dup3\n      add\n      swap2\n    tag_51:\n      pop\n      pop\n      pop\n      pop\n      pop\n      dup2\n      jump\t// out\n        /* \"chapter05/sample5-03.sol\":259:342  function getName() public view returns (string memory) {... */\n    tag_19:\n        /* \"chapter05/sample5-03.sol\":299:312  string memory */\n      0x60\n        /* \"chapter05/sample5-03.sol\":331:335  name */\n      0x00\n        /* \"chapter05/sample5-03.sol\":324:335  return name */\n      dup1\n      sload\n      tag_55\n      swap1\n      tag_49\n      jump\t// in\n    tag_55:\n      dup1\n      0x1f\n      add\n      0x20\n      dup1\n      swap2\n      div\n      mul\n      0x20\n      add\n      mload(0x40)\n      swap1\n      dup2\n      add\n      0x40\n      mstore\n      dup1\n      swap3\n      swap2\n      swap1\n      dup2\n      dup2\n      mstore\n      0x20\n      add\n      dup3\n      dup1\n      sload\n      tag_56\n      swap1\n      tag_49\n      jump\t// in\n    tag_56:\n      dup1\n      iszero\n      tag_57\n      jumpi\n      dup1\n      0x1f\n      lt\n      tag_58\n      jumpi\n      0x0100\n      dup1\n      dup4\n      sload\n      div\n      mul\n      dup4\n      mstore\n      swap2\n      0x20\n      add\n      swap2\n      jump(tag_57)\n    tag_58:\n      dup3\n      add\n      swap2\n      swap1\n      0x00\n      mstore\n      keccak256(0x00, 0x20)\n      swap1\n    tag_59:\n      dup2\n      sload\n      dup2\n      mstore\n      swap1\n      0x01\n      add\n      swap1\n      0x20\n      add\n      dup1\n      dup4\n      gt\n      tag_59\n      jumpi\n      dup3\n      swap1\n      sub\n      0x1f\n      and\n      dup3\n      add\n      swap2\n    tag_57:\n      pop\n      pop\n      pop\n      pop\n      pop\n      swap1\n      pop\n        /* \"chapter05/sample5-03.sol\":259:342  function getName() public view returns (string memory) {... */\n      swap1\n      jump\t// out\n        /* \"chapter05/sample5-03.sol\":568:647  function getOwner() public view returns (address) {... */\n    tag_22:\n        /* \"chapter05/sample5-03.sol\":609:616  address */\n      0x00\n        /* \"chapter05/sample5-03.sol\":635:640  owner */\n      0x03\n      0x00\n      swap1\n      sload\n      swap1\n      0x0100\n      exp\n      swap1\n      div\n      0xffffffffffffffffffffffffffffffffffffffff\n      and\n        /* \"chapter05/sample5-03.sol\":628:640  return owner */\n      swap1\n      pop\n        /* \"chapter05/sample5-03.sol\":568:647  function getOwner() public view returns (address) {... */\n      swap1\n      jump\t// out\n        /* \"chapter05/sample5-03.sol\":348:417  function setPrice(uint _price) public {... */\n    tag_28:\n        /* \"chapter05/sample5-03.sol\":404:410  _price */\n      dup1\n        /* \"chapter05/sample5-03.sol\":396:401  price */\n      0x01\n        /* \"chapter05/sample5-03.sol\":396:410  price = _price */\n      dup2\n      swap1\n      sstore\n      pop\n        /* \"chapter05/sample5-03.sol\":348:417  function setPrice(uint _price) public {... */\n      pop\n      jump\t// out\n        /* \"chapter05/sample5-03.sol\":747:819  function getAge() public view returns (uint) {... */\n    tag_30:\n        /* \"chapter05/sample5-03.sol\":786:790  uint */\n      0x00\n        /* \"chapter05/sample5-03.sol\":809:812  age */\n      sload(0x02)\n        /* \"chapter05/sample5-03.sol\":802:812  return age */\n      swap1\n      pop\n        /* \"chapter05/sample5-03.sol\":747:819  function getAge() public view returns (uint) {... */\n      swap1\n      jump\t// out\n        /* \"chapter05/sample5-03.sol\":423:499  function getPrice() public view returns (uint) {... */\n    tag_34:\n        /* \"chapter05/sample5-03.sol\":464:468  uint */\n      0x00\n        /* \"chapter05/sample5-03.sol\":487:492  price */\n      sload(0x01)\n        /* \"chapter05/sample5-03.sol\":480:492  return price */\n      swap1\n      pop\n        /* \"chapter05/sample5-03.sol\":423:499  function getPrice() public view returns (uint) {... */\n      swap1\n      jump\t// out\n        /* \"chapter05/sample5-03.sol\":104:121  uint public price */\n    tag_37:\n      sload(0x01)\n      dup2\n      jump\t// out\n        /* \"chapter05/sample5-03.sol\":505:562  function buy() public {... */\n    tag_40:\n        /* \"chapter05/sample5-03.sol\":545:555  msg.sender */\n      caller\n        /* \"chapter05/sample5-03.sol\":537:542  owner */\n      0x03\n      0x00\n        /* \"chapter05/sample5-03.sol\":537:555  owner = msg.sender */\n      0x0100\n      exp\n      dup2\n      sload\n      dup2\n      0xffffffffffffffffffffffffffffffffffffffff\n      mul\n      not\n      and\n      swap1\n      dup4\n      0xffffffffffffffffffffffffffffffffffffffff\n      and\n      mul\n      or\n      swap1\n      sstore\n      pop\n        /* \"chapter05/sample5-03.sol\":505:562  function buy() public {... */\n      jump\t// out\n        /* \"chapter05/sample5-03.sol\":179:253  function setName(string memory _name) public {... */\n    tag_44:\n        /* \"chapter05/sample5-03.sol\":241:246  _name */\n      dup1\n        /* \"chapter05/sample5-03.sol\":234:238  name */\n      0x00\n        /* \"chapter05/sample5-03.sol\":234:246  name = _name */\n      swap1\n      dup2\n      tag_66\n      swap2\n      swap1\n      tag_67\n      jump\t// in\n    tag_66:\n      pop\n        /* \"chapter05/sample5-03.sol\":179:253  function setName(string memory _name) public {... */\n      pop\n      jump\t// out\n        /* \"chapter05/sample5-03.sol\":680:741  function setAge(uint _age) public {... */\n    tag_47:\n        /* \"chapter05/sample5-03.sol\":730:734  _age */\n      dup1\n        /* \"chapter05/sample5-03.sol\":724:727  age */\n      0x02\n        /* \"chapter05/sample5-03.sol\":724:734  age = _age */\n      dup2\n      swap1\n      sstore\n      pop\n        /* \"chapter05/sample5-03.sol\":680:741  function setAge(uint _age) public {... */\n      pop\n      jump\t// out\n        /* \"#utility.yul\":7:106   */\n    tag_69:\n        /* \"#utility.yul\":59:65   */\n      0x00\n        /* \"#utility.yul\":93:98   */\n      dup2\n        /* \"#utility.yul\":87:99   */\n      mload\n        /* \"#utility.yul\":77:99   */\n      swap1\n      pop\n        /* \"#utility.yul\":7:106   */\n      swap2\n      swap1\n      pop\n      jump\t// out\n        /* \"#utility.yul\":112:281   */\n    tag_70:\n        /* \"#utility.yul\":196:207   */\n      0x00\n        /* \"#utility.yul\":230:236   */\n      dup3\n        /* \"#utility.yul\":225:228   */\n      dup3\n        /* \"#utility.yul\":218:237   */\n      mstore\n        /* \"#utility.yul\":270:274   */\n      0x20\n        /* \"#utility.yul\":265:268   */\n      dup3\n        /* \"#utility.yul\":261:275   */\n      add\n        /* \"#utility.yul\":246:275   */\n      swap1\n      pop\n        /* \"#utility.yul\":112:281   */\n      swap3\n      swap2\n      pop\n      pop\n      jump\t// out\n        /* \"#utility.yul\":287:426   */\n    tag_71:\n        /* \"#utility.yul\":376:382   */\n      dup3\n        /* \"#utility.yul\":371:374   */\n      dup2\n        /* \"#utility.yul\":366:369   */\n      dup4\n        /* \"#utility.yul\":360:383   */\n      mcopy\n        /* \"#utility.yul\":417:418   */\n      0x00\n        /* \"#utility.yul\":408:414   */\n      dup4\n        /* \"#utility.yul\":403:406   */\n      dup4\n        /* \"#utility.yul\":399:415   */\n      add\n        /* \"#utility.yul\":392:419   */\n      mstore\n        /* \"#utility.yul\":287:426   */\n      pop\n      pop\n      pop\n      jump\t// out\n        /* \"#utility.yul\":432:534   */\n    tag_72:\n        /* \"#utility.yul\":473:479   */\n      0x00\n        /* \"#utility.yul\":524:526   */\n      0x1f\n        /* \"#utility.yul\":520:527   */\n      not\n        /* \"#utility.yul\":515:517   */\n      0x1f\n        /* \"#utility.yul\":508:513   */\n      dup4\n        /* \"#utility.yul\":504:518   */\n      add\n        /* \"#utility.yul\":500:528   */\n      and\n        /* \"#utility.yul\":490:528   */\n      swap1\n      pop\n        /* \"#utility.yul\":432:534   */\n      swap2\n      swap1\n      pop\n      jump\t// out\n        /* \"#utility.yul\":540:917   */\n    tag_73:\n        /* \"#utility.yul\":628:631   */\n      0x00\n        /* \"#utility.yul\":656:695   */\n      tag_115\n        /* \"#utility.yul\":689:694   */\n      dup3\n        /* \"#utility.yul\":656:695   */\n      tag_69\n      jump\t// in\n    tag_115:\n        /* \"#utility.yul\":711:782   */\n      tag_116\n        /* \"#utility.yul\":775:781   */\n      dup2\n        /* \"#utility.yul\":770:773   */\n      dup6\n        /* \"#utility.yul\":711:782   */\n      tag_70\n      jump\t// in\n    tag_116:\n        /* \"#utility.yul\":704:782   */\n      swap4\n      pop\n        /* \"#utility.yul\":791:856   */\n      tag_117\n        /* \"#utility.yul\":849:855   */\n      dup2\n        /* \"#utility.yul\":844:847   */\n      dup6\n        /* \"#utility.yul\":837:841   */\n      0x20\n        /* \"#utility.yul\":830:835   */\n      dup7\n        /* \"#utility.yul\":826:842   */\n      add\n        /* \"#utility.yul\":791:856   */\n      tag_71\n      jump\t// in\n    tag_117:\n        /* \"#utility.yul\":881:910   */\n      tag_118\n        /* \"#utility.yul\":903:909   */\n      dup2\n        /* \"#utility.yul\":881:910   */\n      tag_72\n      jump\t// in\n    tag_118:\n        /* \"#utility.yul\":876:879   */\n      dup5\n        /* \"#utility.yul\":872:911   */\n      add\n        /* \"#utility.yul\":865:911   */\n      swap2\n      pop\n        /* \"#utility.yul\":632:917   */\n      pop\n        /* \"#utility.yul\":540:917   */\n      swap3\n      swap2\n      pop\n      pop\n      jump\t// out\n        /* \"#utility.yul\":923:1236   */\n    tag_17:\n        /* \"#utility.yul\":1036:1040   */\n      0x00\n        /* \"#utility.yul\":1074:1076   */\n      0x20\n        /* \"#utility.yul\":1063:1072   */\n      dup3\n        /* \"#utility.yul\":1059:1077   */\n      add\n        /* \"#utility.yul\":1051:1077   */\n      swap1\n      pop\n        /* \"#utility.yul\":1123:1132   */\n      dup2\n        /* \"#utility.yul\":1117:1121   */\n      dup2\n        /* \"#utility.yul\":1113:1133   */\n      sub\n        /* \"#utility.yul\":1109:1110   */\n      0x00\n        /* \"#utility.yul\":1098:1107   */\n      dup4\n        /* \"#utility.yul\":1094:1111   */\n      add\n        /* \"#utility.yul\":1087:1134   */\n      mstore\n        /* \"#utility.yul\":1151:1229   */\n      tag_120\n        /* \"#utility.yul\":1224:1228   */\n      dup2\n        /* \"#utility.yul\":1215:1221   */\n      dup5\n        /* \"#utility.yul\":1151:1229   */\n      tag_73\n      jump\t// in\n    tag_120:\n        /* \"#utility.yul\":1143:1229   */\n      swap1\n      pop\n        /* \"#utility.yul\":923:1236   */\n      swap3\n      swap2\n      pop\n      pop\n      jump\t// out\n        /* \"#utility.yul\":1242:1368   */\n    tag_74:\n        /* \"#utility.yul\":1279:1286   */\n      0x00\n        /* \"#utility.yul\":1319:1361   */\n      0xffffffffffffffffffffffffffffffffffffffff\n        /* \"#utility.yul\":1312:1317   */\n      dup3\n        /* \"#utility.yul\":1308:1362   */\n      and\n        /* \"#utility.yul\":1297:1362   */\n      swap1\n      pop\n        /* \"#utility.yul\":1242:1368   */\n      swap2\n      swap1\n      pop\n      jump\t// out\n        /* \"#utility.yul\":1374:1470   */\n    tag_75:\n        /* \"#utility.yul\":1411:1418   */\n      0x00\n        /* \"#utility.yul\":1440:1464   */\n      tag_123\n        /* \"#utility.yul\":1458:1463   */\n      dup3\n        /* \"#utility.yul\":1440:1464   */\n      tag_74\n      jump\t// in\n    tag_123:\n        /* \"#utility.yul\":1429:1464   */\n      swap1\n      pop\n        /* \"#utility.yul\":1374:1470   */\n      swap2\n      swap1\n      pop\n      jump\t// out\n        /* \"#utility.yul\":1476:1594   */\n    tag_76:\n        /* \"#utility.yul\":1563:1587   */\n      tag_125\n        /* \"#utility.yul\":1581:1586   */\n      dup2\n        /* \"#utility.yul\":1563:1587   */\n      tag_75\n      jump\t// in\n    tag_125:\n        /* \"#utility.yul\":1558:1561   */\n      dup3\n        /* \"#utility.yul\":1551:1588   */\n      mstore\n        /* \"#utility.yul\":1476:1594   */\n      pop\n      pop\n      jump\t// out\n        /* \"#utility.yul\":1600:1822   */\n    tag_24:\n        /* \"#utility.yul\":1693:1697   */\n      0x00\n        /* \"#utility.yul\":1731:1733   */\n      0x20\n        /* \"#utility.yul\":1720:1729   */\n      dup3\n        /* \"#utility.yul\":1716:1734   */\n      add\n        /* \"#utility.yul\":1708:1734   */\n      swap1\n      pop\n        /* \"#utility.yul\":1744:1815   */\n      tag_127\n        /* \"#utility.yul\":1812:1813   */\n      0x00\n        /* \"#utility.yul\":1801:1810   */\n      dup4\n        /* \"#utility.yul\":1797:1814   */\n      add\n        /* \"#utility.yul\":1788:1794   */\n      dup5\n        /* \"#utility.yul\":1744:1815   */\n      tag_76\n      jump\t// in\n    tag_127:\n        /* \"#utility.yul\":1600:1822   */\n      swap3\n      swap2\n      pop\n      pop\n      jump\t// out\n        /* \"#utility.yul\":1828:1903   */\n    tag_77:\n        /* \"#utility.yul\":1861:1867   */\n      0x00\n        /* \"#utility.yul\":1894:1896   */\n      0x40\n        /* \"#utility.yul\":1888:1897   */\n      mload\n        /* \"#utility.yul\":1878:1897   */\n      swap1\n      pop\n        /* \"#utility.yul\":1828:1903   */\n      swap1\n      jump\t// out\n        /* \"#utility.yul\":1909:2026   */\n    tag_78:\n        /* \"#utility.yul\":2018:2019   */\n      0x00\n        /* \"#utility.yul\":2015:2016   */\n      0x00\n        /* \"#utility.yul\":2008:2020   */\n      revert\n        /* \"#utility.yul\":2032:2149   */\n    tag_79:\n        /* \"#utility.yul\":2141:2142   */\n      0x00\n        /* \"#utility.yul\":2138:2139   */\n      0x00\n        /* \"#utility.yul\":2131:2143   */\n      revert\n        /* \"#utility.yul\":2155:2232   */\n    tag_80:\n        /* \"#utility.yul\":2192:2199   */\n      0x00\n        /* \"#utility.yul\":2221:2226   */\n      dup2\n        /* \"#utility.yul\":2210:2226   */\n      swap1\n      pop\n        /* \"#utility.yul\":2155:2232   */\n      swap2\n      swap1\n      pop\n      jump\t// out\n        /* \"#utility.yul\":2238:2360   */\n    tag_81:\n        /* \"#utility.yul\":2311:2335   */\n      tag_133\n        /* \"#utility.yul\":2329:2334   */\n      dup2\n        /* \"#utility.yul\":2311:2335   */\n      tag_80\n      jump\t// in\n    tag_133:\n        /* \"#utility.yul\":2304:2309   */\n      dup2\n        /* \"#utility.yul\":2301:2336   */\n      eq\n        /* \"#utility.yul\":2291:2354   */\n      tag_134\n      jumpi\n        /* \"#utility.yul\":2350:2351   */\n      0x00\n        /* \"#utility.yul\":2347:2348   */\n      0x00\n        /* \"#utility.yul\":2340:2352   */\n      revert\n        /* \"#utility.yul\":2291:2354   */\n    tag_134:\n        /* \"#utility.yul\":2238:2360   */\n      pop\n      jump\t// out\n        /* \"#utility.yul\":2366:2505   */\n    tag_82:\n        /* \"#utility.yul\":2412:2417   */\n      0x00\n        /* \"#utility.yul\":2450:2456   */\n      dup2\n        /* \"#utility.yul\":2437:2457   */\n      calldataload\n        /* \"#utility.yul\":2428:2457   */\n      swap1\n      pop\n        /* \"#utility.yul\":2466:2499   */\n      tag_136\n        /* \"#utility.yul\":2493:2498   */\n      dup2\n        /* \"#utility.yul\":2466:2499   */\n      tag_81\n      jump\t// in\n    tag_136:\n        /* \"#utility.yul\":2366:2505   */\n      swap3\n      swap2\n      pop\n      pop\n      jump\t// out\n        /* \"#utility.yul\":2511:2840   */\n    tag_27:\n        /* \"#utility.yul\":2570:2576   */\n      0x00\n        /* \"#utility.yul\":2619:2621   */\n      0x20\n        /* \"#utility.yul\":2607:2616   */\n      dup3\n        /* \"#utility.yul\":2598:2605   */\n      dup5\n        /* \"#utility.yul\":2594:2617   */\n      sub\n        /* \"#utility.yul\":2590:2622   */\n      slt\n        /* \"#utility.yul\":2587:2706   */\n      iszero\n      tag_138\n      jumpi\n        /* \"#utility.yul\":2625:2704   */\n      tag_139\n      tag_78\n      jump\t// in\n    tag_139:\n        /* \"#utility.yul\":2587:2706   */\n    tag_138:\n        /* \"#utility.yul\":2745:2746   */\n      0x00\n        /* \"#utility.yul\":2770:2823   */\n      tag_140\n        /* \"#utility.yul\":2815:2822   */\n      dup5\n        /* \"#utility.yul\":2806:2812   */\n      dup3\n        /* \"#utility.yul\":2795:2804   */\n      dup6\n        /* \"#utility.yul\":2791:2813   */\n      add\n        /* \"#utility.yul\":2770:2823   */\n      tag_82\n      jump\t// in\n    tag_140:\n        /* \"#utility.yul\":2760:2823   */\n      swap2\n      pop\n        /* \"#utility.yul\":2716:2833   */\n      pop\n        /* \"#utility.yul\":2511:2840   */\n      swap3\n      swap2\n      pop\n      pop\n      jump\t// out\n        /* \"#utility.yul\":2846:2964   */\n    tag_83:\n        /* \"#utility.yul\":2933:2957   */\n      tag_142\n        /* \"#utility.yul\":2951:2956   */\n      dup2\n        /* \"#utility.yul\":2933:2957   */\n      tag_80\n      jump\t// in\n    tag_142:\n        /* \"#utility.yul\":2928:2931   */\n      dup3\n        /* \"#utility.yul\":2921:2958   */\n      mstore\n        /* \"#utility.yul\":2846:2964   */\n      pop\n      pop\n      jump\t// out\n        /* \"#utility.yul\":2970:3192   */\n    tag_32:\n        /* \"#utility.yul\":3063:3067   */\n      0x00\n        /* \"#utility.yul\":3101:3103   */\n      0x20\n        /* \"#utility.yul\":3090:3099   */\n      dup3\n        /* \"#utility.yul\":3086:3104   */\n      add\n        /* \"#utility.yul\":3078:3104   */\n      swap1\n      pop\n        /* \"#utility.yul\":3114:3185   */\n      tag_144\n        /* \"#utility.yul\":3182:3183   */\n      0x00\n        /* \"#utility.yul\":3171:3180   */\n      dup4\n        /* \"#utility.yul\":3167:3184   */\n      add\n        /* \"#utility.yul\":3158:3164   */\n      dup5\n        /* \"#utility.yul\":3114:3185   */\n      tag_83\n      jump\t// in\n    tag_144:\n        /* \"#utility.yul\":2970:3192   */\n      swap3\n      swap2\n      pop\n      pop\n      jump\t// out\n        /* \"#utility.yul\":3198:3315   */\n    tag_84:\n        /* \"#utility.yul\":3307:3308   */\n      0x00\n        /* \"#utility.yul\":3304:3305   */\n      0x00\n        /* \"#utility.yul\":3297:3309   */\n      revert\n        /* \"#utility.yul\":3321:3438   */\n    tag_85:\n        /* \"#utility.yul\":3430:3431   */\n      0x00\n        /* \"#utility.yul\":3427:3428   */\n      0x00\n        /* \"#utility.yul\":3420:3432   */\n      revert\n        /* \"#utility.yul\":3444:3624   */\n    tag_86:\n        /* \"#utility.yul\":3492:3569   */\n      0x4e487b7100000000000000000000000000000000000000000000000000000000\n        /* \"#utility.yul\":3489:3490   */\n      0x00\n        /* \"#utility.yul\":3482:3570   */\n      mstore\n        /* \"#utility.yul\":3589:3593   */\n      0x41\n        /* \"#utility.yul\":3586:3587   */\n      0x04\n        /* \"#utility.yul\":3579:3594   */\n      mstore\n        /* \"#utility.yul\":3613:3617   */\n      0x24\n        /* \"#utility.yul\":3610:3611   */\n      0x00\n        /* \"#utility.yul\":3603:3618   */\n      revert\n        /* \"#utility.yul\":3630:3911   */\n    tag_87:\n        /* \"#utility.yul\":3713:3740   */\n      tag_149\n        /* \"#utility.yul\":3735:3739   */\n      dup3\n        /* \"#utility.yul\":3713:3740   */\n      tag_72\n      jump\t// in\n    tag_149:\n        /* \"#utility.yul\":3705:3711   */\n      dup2\n        /* \"#utility.yul\":3701:3741   */\n      add\n        /* \"#utility.yul\":3843:3849   */\n      dup2\n        /* \"#utility.yul\":3831:3841   */\n      dup2\n        /* \"#utility.yul\":3828:3850   */\n      lt\n        /* \"#utility.yul\":3807:3825   */\n      0xffffffffffffffff\n        /* \"#utility.yul\":3795:3805   */\n      dup3\n        /* \"#utility.yul\":3792:3826   */\n      gt\n        /* \"#utility.yul\":3789:3851   */\n      or\n        /* \"#utility.yul\":3786:3874   */\n      iszero\n      tag_150\n      jumpi\n        /* \"#utility.yul\":3854:3872   */\n      tag_151\n      tag_86\n      jump\t// in\n    tag_151:\n        /* \"#utility.yul\":3786:3874   */\n    tag_150:\n        /* \"#utility.yul\":3894:3904   */\n      dup1\n        /* \"#utility.yul\":3890:3892   */\n      0x40\n        /* \"#utility.yul\":3883:3905   */\n      mstore\n        /* \"#utility.yul\":3673:3911   */\n      pop\n        /* \"#utility.yul\":3630:3911   */\n      pop\n      pop\n      jump\t// out\n        /* \"#utility.yul\":3917:4046   */\n    tag_88:\n        /* \"#utility.yul\":3951:3957   */\n      0x00\n        /* \"#utility.yul\":3978:3998   */\n      tag_153\n      tag_77\n      jump\t// in\n    tag_153:\n        /* \"#utility.yul\":3968:3998   */\n      swap1\n      pop\n        /* \"#utility.yul\":4007:4040   */\n      tag_154\n        /* \"#utility.yul\":4035:4039   */\n      dup3\n        /* \"#utility.yul\":4027:4033   */\n      dup3\n        /* \"#utility.yul\":4007:4040   */\n      tag_87\n      jump\t// in\n    tag_154:\n        /* \"#utility.yul\":3917:4046   */\n      swap2\n      swap1\n      pop\n      jump\t// out\n        /* \"#utility.yul\":4052:4360   */\n    tag_89:\n        /* \"#utility.yul\":4114:4118   */\n      0x00\n        /* \"#utility.yul\":4204:4222   */\n      0xffffffffffffffff\n        /* \"#utility.yul\":4196:4202   */\n      dup3\n        /* \"#utility.yul\":4193:4223   */\n      gt\n        /* \"#utility.yul\":4190:4246   */\n      iszero\n      tag_156\n      jumpi\n        /* \"#utility.yul\":4226:4244   */\n      tag_157\n      tag_86\n      jump\t// in\n    tag_157:\n        /* \"#utility.yul\":4190:4246   */\n    tag_156:\n        /* \"#utility.yul\":4264:4293   */\n      tag_158\n        /* \"#utility.yul\":4286:4292   */\n      dup3\n        /* \"#utility.yul\":4264:4293   */\n      tag_72\n      jump\t// in\n    tag_158:\n        /* \"#utility.yul\":4256:4293   */\n      swap1\n      pop\n        /* \"#utility.yul\":4348:4352   */\n      0x20\n        /* \"#utility.yul\":4342:4346   */\n      dup2\n        /* \"#utility.yul\":4338:4353   */\n      add\n        /* \"#utility.yul\":4330:4353   */\n      swap1\n      pop\n        /* \"#utility.yul\":4052:4360   */\n      swap2\n      swap1\n      pop\n      jump\t// out\n        /* \"#utility.yul\":4366:4514   */\n    tag_90:\n        /* \"#utility.yul\":4464:4470   */\n      dup3\n        /* \"#utility.yul\":4459:4462   */\n      dup2\n        /* \"#utility.yul\":4454:4457   */\n      dup4\n        /* \"#utility.yul\":4441:4471   */\n      calldatacopy\n        /* \"#utility.yul\":4505:4506   */\n      0x00\n        /* \"#utility.yul\":4496:4502   */\n      dup4\n        /* \"#utility.yul\":4491:4494   */\n      dup4\n        /* \"#utility.yul\":4487:4503   */\n      add\n        /* \"#utility.yul\":4480:4507   */\n      mstore\n        /* \"#utility.yul\":4366:4514   */\n      pop\n      pop\n      pop\n      jump\t// out\n        /* \"#utility.yul\":4520:4945   */\n    tag_91:\n        /* \"#utility.yul\":4598:4603   */\n      0x00\n        /* \"#utility.yul\":4623:4689   */\n      tag_161\n        /* \"#utility.yul\":4639:4688   */\n      tag_162\n        /* \"#utility.yul\":4681:4687   */\n      dup5\n        /* \"#utility.yul\":4639:4688   */\n      tag_89\n      jump\t// in\n    tag_162:\n        /* \"#utility.yul\":4623:4689   */\n      tag_88\n      jump\t// in\n    tag_161:\n        /* \"#utility.yul\":4614:4689   */\n      swap1\n      pop\n        /* \"#utility.yul\":4712:4718   */\n      dup3\n        /* \"#utility.yul\":4705:4710   */\n      dup2\n        /* \"#utility.yul\":4698:4719   */\n      mstore\n        /* \"#utility.yul\":4750:4754   */\n      0x20\n        /* \"#utility.yul\":4743:4748   */\n      dup2\n        /* \"#utility.yul\":4739:4755   */\n      add\n        /* \"#utility.yul\":4788:4791   */\n      dup5\n        /* \"#utility.yul\":4779:4785   */\n      dup5\n        /* \"#utility.yul\":4774:4777   */\n      dup5\n        /* \"#utility.yul\":4770:4786   */\n      add\n        /* \"#utility.yul\":4767:4792   */\n      gt\n        /* \"#utility.yul\":4764:4876   */\n      iszero\n      tag_163\n      jumpi\n        /* \"#utility.yul\":4795:4874   */\n      tag_164\n      tag_85\n      jump\t// in\n    tag_164:\n        /* \"#utility.yul\":4764:4876   */\n    tag_163:\n        /* \"#utility.yul\":4885:4939   */\n      tag_165\n        /* \"#utility.yul\":4932:4938   */\n      dup5\n        /* \"#utility.yul\":4927:4930   */\n      dup3\n        /* \"#utility.yul\":4922:4925   */\n      dup6\n        /* \"#utility.yul\":4885:4939   */\n      tag_90\n      jump\t// in\n    tag_165:\n        /* \"#utility.yul\":4604:4945   */\n      pop\n        /* \"#utility.yul\":4520:4945   */\n      swap4\n      swap3\n      pop\n      pop\n      pop\n      jump\t// out\n        /* \"#utility.yul\":4965:5305   */\n    tag_92:\n        /* \"#utility.yul\":5021:5026   */\n      0x00\n        /* \"#utility.yul\":5070:5073   */\n      dup3\n        /* \"#utility.yul\":5063:5067   */\n      0x1f\n        /* \"#utility.yul\":5055:5061   */\n      dup4\n        /* \"#utility.yul\":5051:5068   */\n      add\n        /* \"#utility.yul\":5047:5074   */\n      slt\n        /* \"#utility.yul\":5037:5159   */\n      tag_167\n      jumpi\n        /* \"#utility.yul\":5078:5157   */\n      tag_168\n      tag_84\n      jump\t// in\n    tag_168:\n        /* \"#utility.yul\":5037:5159   */\n    tag_167:\n        /* \"#utility.yul\":5195:5201   */\n      dup2\n        /* \"#utility.yul\":5182:5202   */\n      calldataload\n        /* \"#utility.yul\":5220:5299   */\n      tag_169\n        /* \"#utility.yul\":5295:5298   */\n      dup5\n        /* \"#utility.yul\":5287:5293   */\n      dup3\n        /* \"#utility.yul\":5280:5284   */\n      0x20\n        /* \"#utility.yul\":5272:5278   */\n      dup7\n        /* \"#utility.yul\":5268:5285   */\n      add\n        /* \"#utility.yul\":5220:5299   */\n      tag_91\n      jump\t// in\n    tag_169:\n        /* \"#utility.yul\":5211:5299   */\n      swap2\n      pop\n        /* \"#utility.yul\":5027:5305   */\n      pop\n        /* \"#utility.yul\":4965:5305   */\n      swap3\n      swap2\n      pop\n      pop\n      jump\t// out\n        /* \"#utility.yul\":5311:5820   */\n    tag_43:\n        /* \"#utility.yul\":5380:5386   */\n      0x00\n        /* \"#utility.yul\":5429:5431   */\n      0x20\n        /* \"#utility.yul\":5417:5426   */\n      dup3\n        /* \"#utility.yul\":5408:5415   */\n      dup5\n        /* \"#utility.yul\":5404:5427   */\n      sub\n        /* \"#utility.yul\":5400:5432   */\n      slt\n        /* \"#utility.yul\":5397:5516   */\n      iszero\n      tag_171\n      jumpi\n        /* \"#utility.yul\":5435:5514   */\n      tag_172\n      tag_78\n      jump\t// in\n    tag_172:\n        /* \"#utility.yul\":5397:5516   */\n    tag_171:\n        /* \"#utility.yul\":5583:5584   */\n      0x00\n        /* \"#utility.yul\":5572:5581   */\n      dup3\n        /* \"#utility.yul\":5568:5585   */\n      add\n        /* \"#utility.yul\":5555:5586   */\n      calldataload\n        /* \"#utility.yul\":5613:5631   */\n      0xffffffffffffffff\n        /* \"#utility.yul\":5605:5611   */\n      dup2\n        /* \"#utility.yul\":5602:5632   */\n      gt\n        /* \"#utility.yul\":5599:5716   */\n      iszero\n      tag_173\n      jumpi\n        /* \"#utility.yul\":5635:5714   */\n      tag_174\n      tag_79\n      jump\t// in\n    tag_174:\n        /* \"#utility.yul\":5599:5716   */\n    tag_173:\n        /* \"#utility.yul\":5740:5803   */\n      tag_175\n        /* \"#utility.yul\":5795:5802   */\n      dup5\n        /* \"#utility.yul\":5786:5792   */\n      dup3\n        /* \"#utility.yul\":5775:5784   */\n      dup6\n        /* \"#utility.yul\":5771:5793   */\n      add\n        /* \"#utility.yul\":5740:5803   */\n      tag_92\n      jump\t// in\n    tag_175:\n        /* \"#utility.yul\":5730:5803   */\n      swap2\n      pop\n        /* \"#utility.yul\":5526:5813   */\n      pop\n        /* \"#utility.yul\":5311:5820   */\n      swap3\n      swap2\n      pop\n      pop\n      jump\t// out\n        /* \"#utility.yul\":5826:6006   */\n    tag_93:\n        /* \"#utility.yul\":5874:5951   */\n      0x4e487b7100000000000000000000000000000000000000000000000000000000\n        /* \"#utility.yul\":5871:5872   */\n      0x00\n        /* \"#utility.yul\":5864:5952   */\n      mstore\n        /* \"#utility.yul\":5971:5975   */\n      0x22\n        /* \"#utility.yul\":5968:5969   */\n      0x04\n        /* \"#utility.yul\":5961:5976   */\n      mstore\n        /* \"#utility.yul\":5995:5999   */\n      0x24\n        /* \"#utility.yul\":5992:5993   */\n      0x00\n        /* \"#utility.yul\":5985:6000   */\n      revert\n        /* \"#utility.yul\":6012:6332   */\n    tag_49:\n        /* \"#utility.yul\":6056:6062   */\n      0x00\n        /* \"#utility.yul\":6093:6094   */\n      0x02\n        /* \"#utility.yul\":6087:6091   */\n      dup3\n        /* \"#utility.yul\":6083:6095   */\n      div\n        /* \"#utility.yul\":6073:6095   */\n      swap1\n      pop\n        /* \"#utility.yul\":6140:6141   */\n      0x01\n        /* \"#utility.yul\":6134:6138   */\n      dup3\n        /* \"#utility.yul\":6130:6142   */\n      and\n        /* \"#utility.yul\":6161:6179   */\n      dup1\n        /* \"#utility.yul\":6151:6232   */\n      tag_178\n      jumpi\n        /* \"#utility.yul\":6217:6221   */\n      0x7f\n        /* \"#utility.yul\":6209:6215   */\n      dup3\n        /* \"#utility.yul\":6205:6222   */\n      and\n        /* \"#utility.yul\":6195:6222   */\n      swap2\n      pop\n        /* \"#utility.yul\":6151:6232   */\n    tag_178:\n        /* \"#utility.yul\":6279:6281   */\n      0x20\n        /* \"#utility.yul\":6271:6277   */\n      dup3\n        /* \"#utility.yul\":6268:6282   */\n      lt\n        /* \"#utility.yul\":6248:6266   */\n      dup2\n        /* \"#utility.yul\":6245:6283   */\n      sub\n        /* \"#utility.yul\":6242:6326   */\n      tag_179\n      jumpi\n        /* \"#utility.yul\":6298:6316   */\n      tag_180\n      tag_93\n      jump\t// in\n    tag_180:\n        /* \"#utility.yul\":6242:6326   */\n    tag_179:\n        /* \"#utility.yul\":6063:6332   */\n      pop\n        /* \"#utility.yul\":6012:6332   */\n      swap2\n      swap1\n      pop\n      jump\t// out\n        /* \"#utility.yul\":6338:6479   */\n    tag_94:\n        /* \"#utility.yul\":6387:6391   */\n      0x00\n        /* \"#utility.yul\":6410:6413   */\n      dup2\n        /* \"#utility.yul\":6402:6413   */\n      swap1\n      pop\n        /* \"#utility.yul\":6433:6436   */\n      dup2\n        /* \"#utility.yul\":6430:6431   */\n      0x00\n        /* \"#utility.yul\":6423:6437   */\n      mstore\n        /* \"#utility.yul\":6467:6471   */\n      0x20\n        /* \"#utility.yul\":6464:6465   */\n      0x00\n        /* \"#utility.yul\":6454:6472   */\n      keccak256\n        /* \"#utility.yul\":6446:6472   */\n      swap1\n      pop\n        /* \"#utility.yul\":6338:6479   */\n      swap2\n      swap1\n      pop\n      jump\t// out\n        /* \"#utility.yul\":6485:6578   */\n    tag_95:\n        /* \"#utility.yul\":6522:6528   */\n      0x00\n        /* \"#utility.yul\":6569:6571   */\n      0x20\n        /* \"#utility.yul\":6564:6566   */\n      0x1f\n        /* \"#utility.yul\":6557:6562   */\n      dup4\n        /* \"#utility.yul\":6553:6567   */\n      add\n        /* \"#utility.yul\":6549:6572   */\n      div\n        /* \"#utility.yul\":6539:6572   */\n      swap1\n      pop\n        /* \"#utility.yul\":6485:6578   */\n      swap2\n      swap1\n      pop\n      jump\t// out\n        /* \"#utility.yul\":6584:6691   */\n    tag_96:\n        /* \"#utility.yul\":6628:6636   */\n      0x00\n        /* \"#utility.yul\":6678:6683   */\n      dup3\n        /* \"#utility.yul\":6672:6676   */\n      dup3\n        /* \"#utility.yul\":6668:6684   */\n      shl\n        /* \"#utility.yul\":6647:6684   */\n      swap1\n      pop\n        /* \"#utility.yul\":6584:6691   */\n      swap3\n      swap2\n      pop\n      pop\n      jump\t// out\n        /* \"#utility.yul\":6697:7090   */\n    tag_97:\n        /* \"#utility.yul\":6766:6772   */\n      0x00\n        /* \"#utility.yul\":6816:6817   */\n      0x08\n        /* \"#utility.yul\":6804:6814   */\n      dup4\n        /* \"#utility.yul\":6800:6818   */\n      mul\n        /* \"#utility.yul\":6839:6936   */\n      tag_185\n        /* \"#utility.yul\":6869:6935   */\n      0xffffffffffffffffffffffffffffffffffffffffffffffffffffffffffffffff\n        /* \"#utility.yul\":6858:6867   */\n      dup3\n        /* \"#utility.yul\":6839:6936   */\n      tag_96\n      jump\t// in\n    tag_185:\n        /* \"#utility.yul\":6957:6996   */\n      tag_186\n        /* \"#utility.yul\":6987:6995   */\n      dup7\n        /* \"#utility.yul\":6976:6985   */\n      dup4\n        /* \"#utility.yul\":6957:6996   */\n      tag_96\n      jump\t// in\n    tag_186:\n        /* \"#utility.yul\":6945:6996   */\n      swap6\n      pop\n        /* \"#utility.yul\":7029:7033   */\n      dup1\n        /* \"#utility.yul\":7025:7034   */\n      not\n        /* \"#utility.yul\":7018:7023   */\n      dup5\n        /* \"#utility.yul\":7014:7035   */\n      and\n        /* \"#utility.yul\":7005:7035   */\n      swap4\n      pop\n        /* \"#utility.yul\":7078:7082   */\n      dup1\n        /* \"#utility.yul\":7068:7076   */\n      dup7\n        /* \"#utility.yul\":7064:7083   */\n      and\n        /* \"#utility.yul\":7057:7062   */\n      dup5\n        /* \"#utility.yul\":7054:7084   */\n      or\n        /* \"#utility.yul\":7044:7084   */\n      swap3\n      pop\n        /* \"#utility.yul\":6773:7090   */\n      pop\n      pop\n        /* \"#utility.yul\":6697:7090   */\n      swap4\n      swap3\n      pop\n      pop\n      pop\n      jump\t// out\n        /* \"#utility.yul\":7096:7156   */\n    tag_98:\n        /* \"#utility.yul\":7124:7127   */\n      0x00\n        /* \"#utility.yul\":7145:7150   */\n      dup2\n        /* \"#utility.yul\":7138:7150   */\n      swap1\n      pop\n        /* \"#utility.yul\":7096:7156   */\n      swap2\n      swap1\n      pop\n      jump\t// out\n        /* \"#utility.yul\":7162:7304   */\n    tag_99:\n        /* \"#utility.yul\":7212:7221   */\n      0x00\n        /* \"#utility.yul\":7245:7298   */\n      tag_189\n        /* \"#utility.yul\":7263:7297   */\n      tag_190\n        /* \"#utility.yul\":7272:7296   */\n      tag_191\n        /* \"#utility.yul\":7290:7295   */\n      dup5\n        /* \"#utility.yul\":7272:7296   */\n      tag_80\n      jump\t// in\n    tag_191:\n        /* \"#utility.yul\":7263:7297   */\n      tag_98\n      jump\t// in\n    tag_190:\n        /* \"#utility.yul\":7245:7298   */\n      tag_80\n      jump\t// in\n    tag_189:\n        /* \"#utility.yul\":7232:7298   */\n      swap1\n      pop\n        /* \"#utility.yul\":7162:7304   */\n      swap2\n      swap1\n      pop\n      jump\t// out\n        /* \"#utility.yul\":7310:7385   */\n    tag_100:\n        /* \"#utility.yul\":7353:7356   */\n      0x00\n        /* \"#utility.yul\":7374:7379   */\n      dup2\n        /* \"#utility.yul\":7367:7379   */\n      swap1\n      pop\n        /* \"#utility.yul\":7310:7385   */\n      swap2\n      swap1\n      pop\n      jump\t// out\n        /* \"#utility.yul\":7391:7660   */\n    tag_101:\n        /* \"#utility.yul\":7501:7540   */\n      tag_194\n        /* \"#utility.yul\":7532:7539   */\n      dup4\n        /* \"#utility.yul\":7501:7540   */\n      tag_99\n      jump\t// in\n    tag_194:\n        /* \"#utility.yul\":7562:7653   */\n      tag_195\n        /* \"#utility.yul\":7611:7652   */\n      tag_196\n        /* \"#utility.yul\":7635:7651   */\n      dup3\n        /* \"#utility.yul\":7611:7652   */\n      tag_100\n      jump\t// in\n    tag_196:\n        /* \"#utility.yul\":7603:7609   */\n      dup5\n        /* \"#utility.yul\":7596:7600   */\n      dup5\n        /* \"#utility.yul\":7590:7601   */\n      sload\n        /* \"#utility.yul\":7562:7653   */\n      tag_97\n      jump\t// in\n    tag_195:\n        /* \"#utility.yul\":7556:7560   */\n      dup3\n        /* \"#utility.yul\":7549:7654   */\n      sstore\n        /* \"#utility.yul\":7467:7660   */\n      pop\n        /* \"#utility.yul\":7391:7660   */\n      pop\n      pop\n      pop\n      jump\t// out\n        /* \"#utility.yul\":7666:7739   */\n    tag_102:\n        /* \"#utility.yul\":7711:7714   */\n      0x00\n        /* \"#utility.yul\":7732:7733   */\n      0x00\n        /* \"#utility.yul\":7725:7733   */\n      swap1\n      pop\n        /* \"#utility.yul\":7666:7739   */\n      swap1\n      jump\t// out\n        /* \"#utility.yul\":7745:7934   */\n    tag_103:\n        /* \"#utility.yul\":7822:7854   */\n      tag_199\n      tag_102\n      jump\t// in\n    tag_199:\n        /* \"#utility.yul\":7863:7928   */\n      tag_200\n        /* \"#utility.yul\":7921:7927   */\n      dup2\n        /* \"#utility.yul\":7913:7919   */\n      dup5\n        /* \"#utility.yul\":7907:7911   */\n      dup5\n        /* \"#utility.yul\":7863:7928   */\n      tag_101\n      jump\t// in\n    tag_200:\n        /* \"#utility.yul\":7798:7934   */\n      pop\n        /* \"#utility.yul\":7745:7934   */\n      pop\n      pop\n      jump\t// out\n        /* \"#utility.yul\":7940:8126   */\n    tag_104:\n        /* \"#utility.yul\":8000:8120   */\n    tag_202:\n        /* \"#utility.yul\":8017:8020   */\n      dup2\n        /* \"#utility.yul\":8010:8015   */\n      dup2\n        /* \"#utility.yul\":8007:8021   */\n      lt\n        /* \"#utility.yul\":8000:8120   */\n      iszero\n      tag_204\n      jumpi\n        /* \"#utility.yul\":8071:8110   */\n      tag_205\n        /* \"#utility.yul\":8108:8109   */\n      0x00\n        /* \"#utility.yul\":8101:8106   */\n      dup3\n        /* \"#utility.yul\":8071:8110   */\n      tag_103\n      jump\t// in\n    tag_205:\n        /* \"#utility.yul\":8044:8045   */\n      0x01\n        /* \"#utility.yul\":8037:8042   */\n      dup2\n        /* \"#utility.yul\":8033:8046   */\n      add\n        /* \"#utility.yul\":8024:8046   */\n      swap1\n      pop\n        /* \"#utility.yul\":8000:8120   */\n      jump(tag_202)\n    tag_204:\n        /* \"#utility.yul\":7940:8126   */\n      pop\n      pop\n      jump\t// out\n        /* \"#utility.yul\":8132:8675   */\n    tag_105:\n        /* \"#utility.yul\":8233:8235   */\n      0x1f\n        /* \"#utility.yul\":8228:8231   */\n      dup3\n        /* \"#utility.yul\":8225:8236   */\n      gt\n        /* \"#utility.yul\":8222:8668   */\n      iszero\n      tag_207\n      jumpi\n        /* \"#utility.yul\":8267:8305   */\n      tag_208\n        /* \"#utility.yul\":8299:8304   */\n      dup2\n        /* \"#utility.yul\":8267:8305   */\n      tag_94\n      jump\t// in\n    tag_208:\n        /* \"#utility.yul\":8351:8380   */\n      tag_209\n        /* \"#utility.yul\":8369:8379   */\n      dup5\n        /* \"#utility.yul\":8351:8380   */\n      tag_95\n      jump\t// in\n    tag_209:\n        /* \"#utility.yul\":8341:8349   */\n      dup2\n        /* \"#utility.yul\":8337:8381   */\n      add\n        /* \"#utility.yul\":8534:8536   */\n      0x20\n        /* \"#utility.yul\":8522:8532   */\n      dup6\n        /* \"#utility.yul\":8519:8537   */\n      lt\n        /* \"#utility.yul\":8516:8565   */\n      iszero\n      tag_210\n      jumpi\n        /* \"#utility.yul\":8555:8563   */\n      dup2\n        /* \"#utility.yul\":8540:8563   */\n      swap1\n      pop\n        /* \"#utility.yul\":8516:8565   */\n    tag_210:\n        /* \"#utility.yul\":8578:8658   */\n      tag_211\n        /* \"#utility.yul\":8634:8656   */\n      tag_212\n        /* \"#utility.yul\":8652:8655   */\n      dup6\n        /* \"#utility.yul\":8634:8656   */\n      tag_95\n      jump\t// in\n    tag_212:\n        /* \"#utility.yul\":8624:8632   */\n      dup4\n        /* \"#utility.yul\":8620:8657   */\n      add\n        /* \"#utility.yul\":8607:8618   */\n      dup3\n        /* \"#utility.yul\":8578:8658   */\n      tag_104\n      jump\t// in\n    tag_211:\n        /* \"#utility.yul\":8237:8668   */\n      pop\n      pop\n        /* \"#utility.yul\":8222:8668   */\n    tag_207:\n        /* \"#utility.yul\":8132:8675   */\n      pop\n      pop\n      pop\n      jump\t// out\n        /* \"#utility.yul\":8681:8798   */\n    tag_106:\n        /* \"#utility.yul\":8735:8743   */\n      0x00\n        /* \"#utility.yul\":8785:8790   */\n      dup3\n        /* \"#utility.yul\":8779:8783   */\n      dup3\n        /* \"#utility.yul\":8775:8791   */\n      shr\n        /* \"#utility.yul\":8754:8791   */\n      swap1\n      pop\n        /* \"#utility.yul\":8681:8798   */\n      swap3\n      swap2\n      pop\n      pop\n      jump\t// out\n        /* \"#utility.yul\":8804:8973   */\n    tag_107:\n        /* \"#utility.yul\":8848:8854   */\n      0x00\n        /* \"#utility.yul\":8881:8932   */\n      tag_215\n        /* \"#utility.yul\":8929:8930   */\n      0x00\n        /* \"#utility.yul\":8925:8931   */\n      not\n        /* \"#utility.yul\":8917:8922   */\n      dup5\n        /* \"#utility.yul\":8914:8915   */\n      0x08\n        /* \"#utility.yul\":8910:8923   */\n      mul\n        /* \"#utility.yul\":8881:8932   */\n      tag_106\n      jump\t// in\n    tag_215:\n        /* \"#utility.yul\":8877:8933   */\n      not\n        /* \"#utility.yul\":8962:8966   */\n      dup1\n        /* \"#utility.yul\":8956:8960   */\n      dup4\n        /* \"#utility.yul\":8952:8967   */\n      and\n        /* \"#utility.yul\":8942:8967   */\n      swap2\n      pop\n        /* \"#utility.yul\":8855:8973   */\n      pop\n        /* \"#utility.yul\":8804:8973   */\n      swap3\n      swap2\n      pop\n      pop\n      jump\t// out\n        /* \"#utility.yul\":8978:9273   */\n    tag_108:\n        /* \"#utility.yul\":9054:9058   */\n      0x00\n        /* \"#utility.yul\":9200:9229   */\n      tag_217\n        /* \"#utility.yul\":9225:9228   */\n      dup4\n        /* \"#utility.yul\":9219:9223   */\n      dup4\n        /* \"#utility.yul\":9200:9229   */\n      tag_107\n      jump\t// in\n    tag_217:\n        /* \"#utility.yul\":9192:9229   */\n      swap2\n      pop\n        /* \"#utility.yul\":9262:9265   */\n      dup3\n        /* \"#utility.yul\":9259:9260   */\n      0x02\n        /* \"#utility.yul\":9255:9266   */\n      mul\n        /* \"#utility.yul\":9249:9253   */\n      dup3\n        /* \"#utility.yul\":9246:9267   */\n      or\n        /* \"#utility.yul\":9238:9267   */\n      swap1\n      pop\n        /* \"#utility.yul\":8978:9273   */\n      swap3\n      swap2\n      pop\n      pop\n      jump\t// out\n        /* \"#utility.yul\":9278:10673   */\n    tag_67:\n        /* \"#utility.yul\":9395:9432   */\n      tag_219\n        /* \"#utility.yul\":9428:9431   */\n      dup3\n        /* \"#utility.yul\":9395:9432   */\n      tag_69\n      jump\t// in\n    tag_219:\n        /* \"#utility.yul\":9497:9515   */\n      0xffffffffffffffff\n        /* \"#utility.yul\":9489:9495   */\n      dup2\n        /* \"#utility.yul\":9486:9516   */\n      gt\n        /* \"#utility.yul\":9483:9539   */\n      iszero\n      tag_220\n      jumpi\n        /* \"#utility.yul\":9519:9537   */\n      tag_221\n      tag_86\n      jump\t// in\n    tag_221:\n        /* \"#utility.yul\":9483:9539   */\n    tag_220:\n        /* \"#utility.yul\":9563:9601   */\n      tag_222\n        /* \"#utility.yul\":9595:9599   */\n      dup3\n        /* \"#utility.yul\":9589:9600   */\n      sload\n        /* \"#utility.yul\":9563:9601   */\n      tag_49\n      jump\t// in\n    tag_222:\n        /* \"#utility.yul\":9648:9715   */\n      tag_223\n        /* \"#utility.yul\":9708:9714   */\n      dup3\n        /* \"#utility.yul\":9700:9706   */\n      dup3\n        /* \"#utility.yul\":9694:9698   */\n      dup6\n        /* \"#utility.yul\":9648:9715   */\n      tag_105\n      jump\t// in\n    tag_223:\n        /* \"#utility.yul\":9742:9743   */\n      0x00\n        /* \"#utility.yul\":9766:9770   */\n      0x20\n        /* \"#utility.yul\":9753:9770   */\n      swap1\n      pop\n        /* \"#utility.yul\":9798:9800   */\n      0x1f\n        /* \"#utility.yul\":9790:9796   */\n      dup4\n        /* \"#utility.yul\":9787:9801   */\n      gt\n        /* \"#utility.yul\":9815:9816   */\n      0x01\n        /* \"#utility.yul\":9810:10428   */\n      dup2\n      eq\n      tag_225\n      jumpi\n        /* \"#utility.yul\":10472:10473   */\n      0x00\n        /* \"#utility.yul\":10489:10495   */\n      dup5\n        /* \"#utility.yul\":10486:10563   */\n      iszero\n      tag_226\n      jumpi\n        /* \"#utility.yul\":10538:10547   */\n      dup3\n        /* \"#utility.yul\":10533:10536   */\n      dup8\n        /* \"#utility.yul\":10529:10548   */\n      add\n        /* \"#utility.yul\":10523:10549   */\n      mload\n        /* \"#utility.yul\":10514:10549   */\n      swap1\n      pop\n        /* \"#utility.yul\":10486:10563   */\n    tag_226:\n        /* \"#utility.yul\":10589:10656   */\n      tag_227\n        /* \"#utility.yul\":10649:10655   */\n      dup6\n        /* \"#utility.yul\":10642:10647   */\n      dup3\n        /* \"#utility.yul\":10589:10656   */\n      tag_108\n      jump\t// in\n    tag_227:\n        /* \"#utility.yul\":10583:10587   */\n      dup7\n        /* \"#utility.yul\":10576:10657   */\n      sstore\n        /* \"#utility.yul\":10445:10667   */\n      pop\n        /* \"#utility.yul\":9780:10667   */\n      jump(tag_224)\n        /* \"#utility.yul\":9810:10428   */\n    tag_225:\n        /* \"#utility.yul\":9862:9866   */\n      0x1f\n        /* \"#utility.yul\":9858:9867   */\n      not\n        /* \"#utility.yul\":9850:9856   */\n      dup5\n        /* \"#utility.yul\":9846:9868   */\n      and\n        /* \"#utility.yul\":9896:9933   */\n      tag_228\n        /* \"#utility.yul\":9928:9932   */\n      dup7\n        /* \"#utility.yul\":9896:9933   */\n      tag_94\n      jump\t// in\n    tag_228:\n        /* \"#utility.yul\":9955:9956   */\n      0x00\n        /* \"#utility.yul\":9969:10177   */\n    tag_229:\n        /* \"#utility.yul\":9983:9990   */\n      dup3\n        /* \"#utility.yul\":9980:9981   */\n      dup2\n        /* \"#utility.yul\":9977:9991   */\n      lt\n        /* \"#utility.yul\":9969:10177   */\n      iszero\n      tag_231\n      jumpi\n        /* \"#utility.yul\":10062:10071   */\n      dup5\n        /* \"#utility.yul\":10057:10060   */\n      dup10\n        /* \"#utility.yul\":10053:10072   */\n      add\n        /* \"#utility.yul\":10047:10073   */\n      mload\n        /* \"#utility.yul\":10039:10045   */\n      dup3\n        /* \"#utility.yul\":10032:10074   */\n      sstore\n        /* \"#utility.yul\":10113:10114   */\n      0x01\n        /* \"#utility.yul\":10105:10111   */\n      dup3\n        /* \"#utility.yul\":10101:10115   */\n      add\n        /* \"#utility.yul\":10091:10115   */\n      swap2\n      pop\n        /* \"#utility.yul\":10160:10162   */\n      0x20\n        /* \"#utility.yul\":10149:10158   */\n      dup6\n        /* \"#utility.yul\":10145:10163   */\n      add\n        /* \"#utility.yul\":10132:10163   */\n      swap5\n      pop\n        /* \"#utility.yul\":10006:10010   */\n      0x20\n        /* \"#utility.yul\":10003:10004   */\n      dup2\n        /* \"#utility.yul\":9999:10011   */\n      add\n        /* \"#utility.yul\":9994:10011   */\n      swap1\n      pop\n        /* \"#utility.yul\":9969:10177   */\n      jump(tag_229)\n    tag_231:\n        /* \"#utility.yul\":10205:10211   */\n      dup7\n        /* \"#utility.yul\":10196:10203   */\n      dup4\n        /* \"#utility.yul\":10193:10212   */\n      lt\n        /* \"#utility.yul\":10190:10369   */\n      iszero\n      tag_232\n      jumpi\n        /* \"#utility.yul\":10263:10272   */\n      dup5\n        /* \"#utility.yul\":10258:10261   */\n      dup10\n        /* \"#utility.yul\":10254:10273   */\n      add\n        /* \"#utility.yul\":10248:10274   */\n      mload\n        /* \"#utility.yul\":10306:10354   */\n      tag_233\n        /* \"#utility.yul\":10348:10352   */\n      0x1f\n        /* \"#utility.yul\":10340:10346   */\n      dup10\n        /* \"#utility.yul\":10336:10353   */\n      and\n        /* \"#utility.yul\":10325:10334   */\n      dup3\n        /* \"#utility.yul\":10306:10354   */\n      tag_107\n      jump\t// in\n    tag_233:\n        /* \"#utility.yul\":10298:10304   */\n      dup4\n        /* \"#utility.yul\":10291:10355   */\n      sstore\n        /* \"#utility.yul\":10213:10369   */\n      pop\n        /* \"#utility.yul\":10190:10369   */\n    tag_232:\n        /* \"#utility.yul\":10415:10416   */\n      0x01\n        /* \"#utility.yul\":10411:10412   */\n      0x02\n        /* \"#utility.yul\":10403:10409   */\n      dup9\n        /* \"#utility.yul\":10399:10413   */\n      mul\n        /* \"#utility.yul\":10395:10417   */\n      add\n        /* \"#utility.yul\":10389:10393   */\n      dup9\n        /* \"#utility.yul\":10382:10418   */\n      sstore\n        /* \"#utility.yul\":9817:10428   */\n      pop\n      pop\n      pop\n        /* \"#utility.yul\":9780:10667   */\n    tag_224:\n      pop\n        /* \"#utility.yul\":9370:10673   */\n      pop\n      pop\n      pop\n        /* \"#utility.yul\":9278:10673   */\n      pop\n      pop\n      jump\t// out\n\n    auxdata: 0xa264697066735822122006573478a573a6cc0af725a816e00fd648064200b5da718e066a42a812fe65dc64736f6c634300081e0033\n}\n",
				"bytecode": {
					"linkReferences": {},
					"object": "6080604052348015600e575f5ffd5b506109688061001c5f395ff3fe608060405234801561000f575f5ffd5b506004361061009c575f3560e01c806398d5fdca1161006457806398d5fdca14610134578063a035b1fe14610152578063a6f2ae3a14610170578063c47f00271461017a578063d5dcf127146101965761009c565b806306fdde03146100a057806317d7de7c146100be578063893d20e8146100dc57806391b7f5ed146100fa578063967e6e6514610116575b5f5ffd5b6100a86101b2565b6040516100b591906103e4565b60405180910390f35b6100c661023d565b6040516100d391906103e4565b60405180910390f35b6100e46102cc565b6040516100f19190610443565b60405180910390f35b610114600480360381019061010f91906104a0565b6102f4565b005b61011e6102fe565b60405161012b91906104da565b60405180910390f35b61013c610307565b60405161014991906104da565b60405180910390f35b61015a610310565b60405161016791906104da565b60405180910390f35b610178610316565b005b610194600480360381019061018f919061061f565b610358565b005b6101b060048036038101906101ab91906104a0565b61036a565b005b5f80546101be90610693565b80601f01602080910402602001604051908101604052809291908181526020018280546101ea90610693565b80156102355780601f1061020c57610100808354040283529160200191610235565b820191905f5260205f20905b81548152906001019060200180831161021857829003601f168201915b505050505081565b60605f805461024b90610693565b80601f016020809104026020016040519081016040528092919081815260200182805461027790610693565b80156102c25780601f10610299576101008083540402835291602001916102c2565b820191905f5260205f20905b8154815290600101906020018083116102a557829003601f168201915b5050505050905090565b5f60035f9054906101000a900473ffffffffffffffffffffffffffffffffffffffff16905090565b8060018190555050565b5f600254905090565b5f600154905090565b60015481565b3360035f6101000a81548173ffffffffffffffffffffffffffffffffffffffff021916908373ffffffffffffffffffffffffffffffffffffffff160217905550565b805f90816103669190610863565b5050565b8060028190555050565b5f81519050919050565b5f82825260208201905092915050565b8281835e5f83830152505050565b5f601f19601f8301169050919050565b5f6103b682610374565b6103c0818561037e565b93506103d081856020860161038e565b6103d98161039c565b840191505092915050565b5f6020820190508181035f8301526103fc81846103ac565b905092915050565b5f73ffffffffffffffffffffffffffffffffffffffff82169050919050565b5f61042d82610404565b9050919050565b61043d81610423565b82525050565b5f6020820190506104565f830184610434565b92915050565b5f604051905090565b5f5ffd5b5f5ffd5b5f819050919050565b61047f8161046d565b8114610489575f5ffd5b50565b5f8135905061049a81610476565b92915050565b5f602082840312156104b5576104b4610465565b5b5f6104c28482850161048c565b91505092915050565b6104d48161046d565b82525050565b5f6020820190506104ed5f8301846104cb565b92915050565b5f5ffd5b5f5ffd5b7f4e487b71000000000000000000000000000000000000000000000000000000005f52604160045260245ffd5b6105318261039c565b810181811067ffffffffffffffff821117156105505761054f6104fb565b5b80604052505050565b5f61056261045c565b905061056e8282610528565b919050565b5f67ffffffffffffffff82111561058d5761058c6104fb565b5b6105968261039c565b9050602081019050919050565b828183375f83830152505050565b5f6105c36105be84610573565b610559565b9050828152602081018484840111156105df576105de6104f7565b5b6105ea8482856105a3565b509392505050565b5f82601f830112610606576106056104f3565b5b81356106168482602086016105b1565b91505092915050565b5f6020828403121561063457610633610465565b5b5f82013567ffffffffffffffff81111561065157610650610469565b5b61065d848285016105f2565b91505092915050565b7f4e487b71000000000000000000000000000000000000000000000000000000005f52602260045260245ffd5b5f60028204905060018216806106aa57607f821691505b6020821081036106bd576106bc610666565b5b50919050565b5f819050815f5260205f209050919050565b5f6020601f8301049050919050565b5f82821b905092915050565b5f6008830261071f7fffffffffffffffffffffffffffffffffffffffffffffffffffffffffffffffff826106e4565b61072986836106e4565b95508019841693508086168417925050509392505050565b5f819050919050565b5f61076461075f61075a8461046d565b610741565b61046d565b9050919050565b5f819050919050565b61077d8361074a565b6107916107898261076b565b8484546106f0565b825550505050565b5f5f905090565b6107a8610799565b6107b3818484610774565b505050565b5b818110156107d6576107cb5f826107a0565b6001810190506107b9565b5050565b601f82111561081b576107ec816106c3565b6107f5846106d5565b81016020851015610804578190505b610818610810856106d5565b8301826107b8565b50505b505050565b5f82821c905092915050565b5f61083b5f1984600802610820565b1980831691505092915050565b5f610853838361082c565b9150826002028217905092915050565b61086c82610374565b67ffffffffffffffff811115610885576108846104fb565b5b61088f8254610693565b61089a8282856107da565b5f60209050601f8311600181146108cb575f84156108b9578287015190505b6108c38582610848565b86555061092a565b601f1984166108d9866106c3565b5f5b82811015610900578489015182556001820191506020850194506020810190506108db565b8683101561091d5784890151610919601f89168261082c565b8355505b6001600288020188555050505b50505050505056fea264697066735822122006573478a573a6cc0af725a816e00fd648064200b5da718e066a42a812fe65dc64736f6c634300081e0033",
					"opcodes": "PUSH1 0x80 PUSH1 0x40 MSTORE CALLVALUE DUP1 ISZERO PUSH1 0xE JUMPI PUSH0 PUSH0 REVERT JUMPDEST POP PUSH2 0x968 DUP1 PUSH2 0x1C PUSH0 CODECOPY PUSH0 RETURN INVALID PUSH1 0x80 PUSH1 0x40 MSTORE CALLVALUE DUP1 ISZERO PUSH2 0xF JUMPI PUSH0 PUSH0 REVERT JUMPDEST POP PUSH1 0x4 CALLDATASIZE LT PUSH2 0x9C JUMPI PUSH0 CALLDATALOAD PUSH1 0xE0 SHR DUP1 PUSH4 0x98D5FDCA GT PUSH2 0x64 JUMPI DUP1 PUSH4 0x98D5FDCA EQ PUSH2 0x134 JUMPI DUP1 PUSH4 0xA035B1FE EQ PUSH2 0x152 JUMPI DUP1 PUSH4 0xA6F2AE3A EQ PUSH2 0x170 JUMPI DUP1 PUSH4 0xC47F0027 EQ PUSH2 0x17A JUMPI DUP1 PUSH4 0xD5DCF127 EQ PUSH2 0x196 JUMPI PUSH2 0x9C JUMP JUMPDEST DUP1 PUSH4 0x6FDDE03 EQ PUSH2 0xA0 JUMPI DUP1 PUSH4 0x17D7DE7C EQ PUSH2 0xBE JUMPI DUP1 PUSH4 0x893D20E8 EQ PUSH2 0xDC JUMPI DUP1 PUSH4 0x91B7F5ED EQ PUSH2 0xFA JUMPI DUP1 PUSH4 0x967E6E65 EQ PUSH2 0x116 JUMPI JUMPDEST PUSH0 PUSH0 REVERT JUMPDEST PUSH2 0xA8 PUSH2 0x1B2 JUMP JUMPDEST PUSH1 0x40 MLOAD PUSH2 0xB5 SWAP2 SWAP1 PUSH2 0x3E4 JUMP JUMPDEST PUSH1 0x40 MLOAD DUP1 SWAP2 SUB SWAP1 RETURN JUMPDEST PUSH2 0xC6 PUSH2 0x23D JUMP JUMPDEST PUSH1 0x40 MLOAD PUSH2 0xD3 SWAP2 SWAP1 PUSH2 0x3E4 JUMP JUMPDEST PUSH1 0x40 MLOAD DUP1 SWAP2 SUB SWAP1 RETURN JUMPDEST PUSH2 0xE4 PUSH2 0x2CC JUMP JUMPDEST PUSH1 0x40 MLOAD PUSH2 0xF1 SWAP2 SWAP1 PUSH2 0x443 JUMP JUMPDEST PUSH1 0x40 MLOAD DUP1 SWAP2 SUB SWAP1 RETURN JUMPDEST PUSH2 0x114 PUSH1 0x4 DUP1 CALLDATASIZE SUB DUP2 ADD SWAP1 PUSH2 0x10F SWAP2 SWAP1 PUSH2 0x4A0 JUMP JUMPDEST PUSH2 0x2F4 JUMP JUMPDEST STOP JUMPDEST PUSH2 0x11E PUSH2 0x2FE JUMP JUMPDEST PUSH1 0x40 MLOAD PUSH2 0x12B SWAP2 SWAP1 PUSH2 0x4DA JUMP JUMPDEST PUSH1 0x40 MLOAD DUP1 SWAP2 SUB SWAP1 RETURN JUMPDEST PUSH2 0x13C PUSH2 0x307 JUMP JUMPDEST PUSH1 0x40 MLOAD PUSH2 0x149 SWAP2 SWAP1 PUSH2 0x4DA JUMP JUMPDEST PUSH1 0x40 MLOAD DUP1 SWAP2 SUB SWAP1 RETURN JUMPDEST PUSH2 0x15A PUSH2 0x310 JUMP JUMPDEST PUSH1 0x40 MLOAD PUSH2 0x167 SWAP2 SWAP1 PUSH2 0x4DA JUMP JUMPDEST PUSH1 0x40 MLOAD DUP1 SWAP2 SUB SWAP1 RETURN JUMPDEST PUSH2 0x178 PUSH2 0x316 JUMP JUMPDEST STOP JUMPDEST PUSH2 0x194 PUSH1 0x4 DUP1 CALLDATASIZE SUB DUP2 ADD SWAP1 PUSH2 0x18F SWAP2 SWAP1 PUSH2 0x61F JUMP JUMPDEST PUSH2 0x358 JUMP JUMPDEST STOP JUMPDEST PUSH2 0x1B0 PUSH1 0x4 DUP1 CALLDATASIZE SUB DUP2 ADD SWAP1 PUSH2 0x1AB SWAP2 SWAP1 PUSH2 0x4A0 JUMP JUMPDEST PUSH2 0x36A JUMP JUMPDEST STOP JUMPDEST PUSH0 DUP1 SLOAD PUSH2 0x1BE SWAP1 PUSH2 0x693 JUMP JUMPDEST DUP1 PUSH1 0x1F ADD PUSH1 0x20 DUP1 SWAP2 DIV MUL PUSH1 0x20 ADD PUSH1 0x40 MLOAD SWAP1 DUP2 ADD PUSH1 0x40 MSTORE DUP1 SWAP3 SWAP2 SWAP1 DUP2 DUP2 MSTORE PUSH1 0x20 ADD DUP3 DUP1 SLOAD PUSH2 0x1EA SWAP1 PUSH2 0x693 JUMP JUMPDEST DUP1 ISZERO PUSH2 0x235 JUMPI DUP1 PUSH1 0x1F LT PUSH2 0x20C JUMPI PUSH2 0x100 DUP1 DUP4 SLOAD DIV MUL DUP4 MSTORE SWAP2 PUSH1 0x20 ADD SWAP2 PUSH2 0x235 JUMP JUMPDEST DUP3 ADD SWAP2 SWAP1 PUSH0 MSTORE PUSH1 0x20 PUSH0 KECCAK256 SWAP1 JUMPDEST DUP2 SLOAD DUP2 MSTORE SWAP1 PUSH1 0x1 ADD SWAP1 PUSH1 0x20 ADD DUP1 DUP4 GT PUSH2 0x218 JUMPI DUP3 SWAP1 SUB PUSH1 0x1F AND DUP3 ADD SWAP2 JUMPDEST POP POP POP POP POP DUP2 JUMP JUMPDEST PUSH1 0x60 PUSH0 DUP1 SLOAD PUSH2 0x24B SWAP1 PUSH2 0x693 JUMP JUMPDEST DUP1 PUSH1 0x1F ADD PUSH1 0x20 DUP1 SWAP2 DIV MUL PUSH1 0x20 ADD PUSH1 0x40 MLOAD SWAP1 DUP2 ADD PUSH1 0x40 MSTORE DUP1 SWAP3 SWAP2 SWAP1 DUP2 DUP2 MSTORE PUSH1 0x20 ADD DUP3 DUP1 SLOAD PUSH2 0x277 SWAP1 PUSH2 0x693 JUMP JUMPDEST DUP1 ISZERO PUSH2 0x2C2 JUMPI DUP1 PUSH1 0x1F LT PUSH2 0x299 JUMPI PUSH2 0x100 DUP1 DUP4 SLOAD DIV MUL DUP4 MSTORE SWAP2 PUSH1 0x20 ADD SWAP2 PUSH2 0x2C2 JUMP JUMPDEST DUP3 ADD SWAP2 SWAP1 PUSH0 MSTORE PUSH1 0x20 PUSH0 KECCAK256 SWAP1 JUMPDEST DUP2 SLOAD DUP2 MSTORE SWAP1 PUSH1 0x1 ADD SWAP1 PUSH1 0x20 ADD DUP1 DUP4 GT PUSH2 0x2A5 JUMPI DUP3 SWAP1 SUB PUSH1 0x1F AND DUP3 ADD SWAP2 JUMPDEST POP POP POP POP POP SWAP1 POP SWAP1 JUMP JUMPDEST PUSH0 PUSH1 0x3 PUSH0 SWAP1 SLOAD SWAP1 PUSH2 0x100 EXP SWAP1 DIV PUSH20 0xFFFFFFFFFFFFFFFFFFFFFFFFFFFFFFFFFFFFFFFF AND SWAP1 POP SWAP1 JUMP JUMPDEST DUP1 PUSH1 0x1 DUP2 SWAP1 SSTORE POP POP JUMP JUMPDEST PUSH0 PUSH1 0x2 SLOAD SWAP1 POP SWAP1 JUMP JUMPDEST PUSH0 PUSH1 0x1 SLOAD SWAP1 POP SWAP1 JUMP JUMPDEST PUSH1 0x1 SLOAD DUP2 JUMP JUMPDEST CALLER PUSH1 0x3 PUSH0 PUSH2 0x100 EXP DUP2 SLOAD DUP2 PUSH20 0xFFFFFFFFFFFFFFFFFFFFFFFFFFFFFFFFFFFFFFFF MUL NOT AND SWAP1 DUP4 PUSH20 0xFFFFFFFFFFFFFFFFFFFFFFFFFFFFFFFFFFFFFFFF AND MUL OR SWAP1 SSTORE POP JUMP JUMPDEST DUP1 PUSH0 SWAP1 DUP2 PUSH2 0x366 SWAP2 SWAP1 PUSH2 0x863 JUMP JUMPDEST POP POP JUMP JUMPDEST DUP1 PUSH1 0x2 DUP2 SWAP1 SSTORE POP POP JUMP JUMPDEST PUSH0 DUP2 MLOAD SWAP1 POP SWAP2 SWAP1 POP JUMP JUMPDEST PUSH0 DUP3 DUP3 MSTORE PUSH1 0x20 DUP3 ADD SWAP1 POP SWAP3 SWAP2 POP POP JUMP JUMPDEST DUP3 DUP2 DUP4 MCOPY PUSH0 DUP4 DUP4 ADD MSTORE POP POP POP JUMP JUMPDEST PUSH0 PUSH1 0x1F NOT PUSH1 0x1F DUP4 ADD AND SWAP1 POP SWAP2 SWAP1 POP JUMP JUMPDEST PUSH0 PUSH2 0x3B6 DUP3 PUSH2 0x374 JUMP JUMPDEST PUSH2 0x3C0 DUP2 DUP6 PUSH2 0x37E JUMP JUMPDEST SWAP4 POP PUSH2 0x3D0 DUP2 DUP6 PUSH1 0x20 DUP7 ADD PUSH2 0x38E JUMP JUMPDEST PUSH2 0x3D9 DUP2 PUSH2 0x39C JUMP JUMPDEST DUP5 ADD SWAP2 POP POP SWAP3 SWAP2 POP POP JUMP JUMPDEST PUSH0 PUSH1 0x20 DUP3 ADD SWAP1 POP DUP2 DUP2 SUB PUSH0 DUP4 ADD MSTORE PUSH2 0x3FC DUP2 DUP5 PUSH2 0x3AC JUMP JUMPDEST SWAP1 POP SWAP3 SWAP2 POP POP JUMP JUMPDEST PUSH0 PUSH20 0xFFFFFFFFFFFFFFFFFFFFFFFFFFFFFFFFFFFFFFFF DUP3 AND SWAP1 POP SWAP2 SWAP1 POP JUMP JUMPDEST PUSH0 PUSH2 0x42D DUP3 PUSH2 0x404 JUMP JUMPDEST SWAP1 POP SWAP2 SWAP1 POP JUMP JUMPDEST PUSH2 0x43D DUP2 PUSH2 0x423 JUMP JUMPDEST DUP3 MSTORE POP POP JUMP JUMPDEST PUSH0 PUSH1 0x20 DUP3 ADD SWAP1 POP PUSH2 0x456 PUSH0 DUP4 ADD DUP5 PUSH2 0x434 JUMP JUMPDEST SWAP3 SWAP2 POP POP JUMP JUMPDEST PUSH0 PUSH1 0x40 MLOAD SWAP1 POP SWAP1 JUMP JUMPDEST PUSH0 PUSH0 REVERT JUMPDEST PUSH0 PUSH0 REVERT JUMPDEST PUSH0 DUP2 SWAP1 POP SWAP2 SWAP1 POP JUMP JUMPDEST PUSH2 0x47F DUP2 PUSH2 0x46D JUMP JUMPDEST DUP2 EQ PUSH2 0x489 JUMPI PUSH0 PUSH0 REVERT JUMPDEST POP JUMP JUMPDEST PUSH0 DUP2 CALLDATALOAD SWAP1 POP PUSH2 0x49A DUP2 PUSH2 0x476 JUMP JUMPDEST SWAP3 SWAP2 POP POP JUMP JUMPDEST PUSH0 PUSH1 0x20 DUP3 DUP5 SUB SLT ISZERO PUSH2 0x4B5 JUMPI PUSH2 0x4B4 PUSH2 0x465 JUMP JUMPDEST JUMPDEST PUSH0 PUSH2 0x4C2 DUP5 DUP3 DUP6 ADD PUSH2 0x48C JUMP JUMPDEST SWAP2 POP POP SWAP3 SWAP2 POP POP JUMP JUMPDEST PUSH2 0x4D4 DUP2 PUSH2 0x46D JUMP JUMPDEST DUP3 MSTORE POP POP JUMP JUMPDEST PUSH0 PUSH1 0x20 DUP3 ADD SWAP1 POP PUSH2 0x4ED PUSH0 DUP4 ADD DUP5 PUSH2 0x4CB JUMP JUMPDEST SWAP3 SWAP2 POP POP JUMP JUMPDEST PUSH0 PUSH0 REVERT JUMPDEST PUSH0 PUSH0 REVERT JUMPDEST PUSH32 0x4E487B7100000000000000000000000000000000000000000000000000000000 PUSH0 MSTORE PUSH1 0x41 PUSH1 0x4 MSTORE PUSH1 0x24 PUSH0 REVERT JUMPDEST PUSH2 0x531 DUP3 PUSH2 0x39C JUMP JUMPDEST DUP2 ADD DUP2 DUP2 LT PUSH8 0xFFFFFFFFFFFFFFFF DUP3 GT OR ISZERO PUSH2 0x550 JUMPI PUSH2 0x54F PUSH2 0x4FB JUMP JUMPDEST JUMPDEST DUP1 PUSH1 0x40 MSTORE POP POP POP JUMP JUMPDEST PUSH0 PUSH2 0x562 PUSH2 0x45C JUMP JUMPDEST SWAP1 POP PUSH2 0x56E DUP3 DUP3 PUSH2 0x528 JUMP JUMPDEST SWAP2 SWAP1 POP JUMP JUMPDEST PUSH0 PUSH8 0xFFFFFFFFFFFFFFFF DUP3 GT ISZERO PUSH2 0x58D JUMPI PUSH2 0x58C PUSH2 0x4FB JUMP JUMPDEST JUMPDEST PUSH2 0x596 DUP3 PUSH2 0x39C JUMP JUMPDEST SWAP1 POP PUSH1 0x20 DUP2 ADD SWAP1 POP SWAP2 SWAP1 POP JUMP JUMPDEST DUP3 DUP2 DUP4 CALLDATACOPY PUSH0 DUP4 DUP4 ADD MSTORE POP POP POP JUMP JUMPDEST PUSH0 PUSH2 0x5C3 PUSH2 0x5BE DUP5 PUSH2 0x573 JUMP JUMPDEST PUSH2 0x559 JUMP JUMPDEST SWAP1 POP DUP3 DUP2 MSTORE PUSH1 0x20 DUP2 ADD DUP5 DUP5 DUP5 ADD GT ISZERO PUSH2 0x5DF JUMPI PUSH2 0x5DE PUSH2 0x4F7 JUMP JUMPDEST JUMPDEST PUSH2 0x5EA DUP5 DUP3 DUP6 PUSH2 0x5A3 JUMP JUMPDEST POP SWAP4 SWAP3 POP POP POP JUMP JUMPDEST PUSH0 DUP3 PUSH1 0x1F DUP4 ADD SLT PUSH2 0x606 JUMPI PUSH2 0x605 PUSH2 0x4F3 JUMP JUMPDEST JUMPDEST DUP2 CALLDATALOAD PUSH2 0x616 DUP5 DUP3 PUSH1 0x20 DUP7 ADD PUSH2 0x5B1 JUMP JUMPDEST SWAP2 POP POP SWAP3 SWAP2 POP POP JUMP JUMPDEST PUSH0 PUSH1 0x20 DUP3 DUP5 SUB SLT ISZERO PUSH2 0x634 JUMPI PUSH2 0x633 PUSH2 0x465 JUMP JUMPDEST JUMPDEST PUSH0 DUP3 ADD CALLDATALOAD PUSH8 0xFFFFFFFFFFFFFFFF DUP2 GT ISZERO PUSH2 0x651 JUMPI PUSH2 0x650 PUSH2 0x469 JUMP JUMPDEST JUMPDEST PUSH2 0x65D DUP5 DUP3 DUP6 ADD PUSH2 0x5F2 JUMP JUMPDEST SWAP2 POP POP SWAP3 SWAP2 POP POP JUMP JUMPDEST PUSH32 0x4E487B7100000000000000000000000000000000000000000000000000000000 PUSH0 MSTORE PUSH1 0x22 PUSH1 0x4 MSTORE PUSH1 0x24 PUSH0 REVERT JUMPDEST PUSH0 PUSH1 0x2 DUP3 DIV SWAP1 POP PUSH1 0x1 DUP3 AND DUP1 PUSH2 0x6AA JUMPI PUSH1 0x7F DUP3 AND SWAP2 POP JUMPDEST PUSH1 0x20 DUP3 LT DUP2 SUB PUSH2 0x6BD JUMPI PUSH2 0x6BC PUSH2 0x666 JUMP JUMPDEST JUMPDEST POP SWAP2 SWAP1 POP JUMP JUMPDEST PUSH0 DUP2 SWAP1 POP DUP2 PUSH0 MSTORE PUSH1 0x20 PUSH0 KECCAK256 SWAP1 POP SWAP2 SWAP1 POP JUMP JUMPDEST PUSH0 PUSH1 0x20 PUSH1 0x1F DUP4 ADD DIV SWAP1 POP SWAP2 SWAP1 POP JUMP JUMPDEST PUSH0 DUP3 DUP3 SHL SWAP1 POP SWAP3 SWAP2 POP POP JUMP JUMPDEST PUSH0 PUSH1 0x8 DUP4 MUL PUSH2 0x71F PUSH32 0xFFFFFFFFFFFFFFFFFFFFFFFFFFFFFFFFFFFFFFFFFFFFFFFFFFFFFFFFFFFFFFFF DUP3 PUSH2 0x6E4 JUMP JUMPDEST PUSH2 0x729 DUP7 DUP4 PUSH2 0x6E4 JUMP JUMPDEST SWAP6 POP DUP1 NOT DUP5 AND SWAP4 POP DUP1 DUP7 AND DUP5 OR SWAP3 POP POP POP SWAP4 SWAP3 POP POP POP JUMP JUMPDEST PUSH0 DUP2 SWAP1 POP SWAP2 SWAP1 POP JUMP JUMPDEST PUSH0 PUSH2 0x764 PUSH2 0x75F PUSH2 0x75A DUP5 PUSH2 0x46D JUMP JUMPDEST PUSH2 0x741 JUMP JUMPDEST PUSH2 0x46D JUMP JUMPDEST SWAP1 POP SWAP2 SWAP1 POP JUMP JUMPDEST PUSH0 DUP2 SWAP1 POP SWAP2 SWAP1 POP JUMP JUMPDEST PUSH2 0x77D DUP4 PUSH2 0x74A JUMP JUMPDEST PUSH2 0x791 PUSH2 0x789 DUP3 PUSH2 0x76B JUMP JUMPDEST DUP5 DUP5 SLOAD PUSH2 0x6F0 JUMP JUMPDEST DUP3 SSTORE POP POP POP POP JUMP JUMPDEST PUSH0 PUSH0 SWAP1 POP SWAP1 JUMP JUMPDEST PUSH2 0x7A8 PUSH2 0x799 JUMP JUMPDEST PUSH2 0x7B3 DUP2 DUP5 DUP5 PUSH2 0x774 JUMP JUMPDEST POP POP POP JUMP JUMPDEST JUMPDEST DUP2 DUP2 LT ISZERO PUSH2 0x7D6 JUMPI PUSH2 0x7CB PUSH0 DUP3 PUSH2 0x7A0 JUMP JUMPDEST PUSH1 0x1 DUP2 ADD SWAP1 POP PUSH2 0x7B9 JUMP JUMPDEST POP POP JUMP JUMPDEST PUSH1 0x1F DUP3 GT ISZERO PUSH2 0x81B JUMPI PUSH2 0x7EC DUP2 PUSH2 0x6C3 JUMP JUMPDEST PUSH2 0x7F5 DUP5 PUSH2 0x6D5 JUMP JUMPDEST DUP2 ADD PUSH1 0x20 DUP6 LT ISZERO PUSH2 0x804 JUMPI DUP2 SWAP1 POP JUMPDEST PUSH2 0x818 PUSH2 0x810 DUP6 PUSH2 0x6D5 JUMP JUMPDEST DUP4 ADD DUP3 PUSH2 0x7B8 JUMP JUMPDEST POP POP JUMPDEST POP POP POP JUMP JUMPDEST PUSH0 DUP3 DUP3 SHR SWAP1 POP SWAP3 SWAP2 POP POP JUMP JUMPDEST PUSH0 PUSH2 0x83B PUSH0 NOT DUP5 PUSH1 0x8 MUL PUSH2 0x820 JUMP JUMPDEST NOT DUP1 DUP4 AND SWAP2 POP POP SWAP3 SWAP2 POP POP JUMP JUMPDEST PUSH0 PUSH2 0x853 DUP4 DUP4 PUSH2 0x82C JUMP JUMPDEST SWAP2 POP DUP3 PUSH1 0x2 MUL DUP3 OR SWAP1 POP SWAP3 SWAP2 POP POP JUMP JUMPDEST PUSH2 0x86C DUP3 PUSH2 0x374 JUMP JUMPDEST PUSH8 0xFFFFFFFFFFFFFFFF DUP2 GT ISZERO PUSH2 0x885 JUMPI PUSH2 0x884 PUSH2 0x4FB JUMP JUMPDEST JUMPDEST PUSH2 0x88F DUP3 SLOAD PUSH2 0x693 JUMP JUMPDEST PUSH2 0x89A DUP3 DUP3 DUP6 PUSH2 0x7DA JUMP JUMPDEST PUSH0 PUSH1 0x20 SWAP1 POP PUSH1 0x1F DUP4 GT PUSH1 0x1 DUP2 EQ PUSH2 0x8CB JUMPI PUSH0 DUP5 ISZERO PUSH2 0x8B9 JUMPI DUP3 DUP8 ADD MLOAD SWAP1 POP JUMPDEST PUSH2 0x8C3 DUP6 DUP3 PUSH2 0x848 JUMP JUMPDEST DUP7 SSTORE POP PUSH2 0x92A JUMP JUMPDEST PUSH1 0x1F NOT DUP5 AND PUSH2 0x8D9 DUP7 PUSH2 0x6C3 JUMP JUMPDEST PUSH0 JUMPDEST DUP3 DUP2 LT ISZERO PUSH2 0x900 JUMPI DUP5 DUP10 ADD MLOAD DUP3 SSTORE PUSH1 0x1 DUP3 ADD SWAP2 POP PUSH1 0x20 DUP6 ADD SWAP5 POP PUSH1 0x20 DUP2 ADD SWAP1 POP PUSH2 0x8DB JUMP JUMPDEST DUP7 DUP4 LT ISZERO PUSH2 0x91D JUMPI DUP5 DUP10 ADD MLOAD PUSH2 0x919 PUSH1 0x1F DUP10 AND DUP3 PUSH2 0x82C JUMP JUMPDEST DUP4 SSTORE POP JUMPDEST PUSH1 0x1 PUSH1 0x2 DUP9 MUL ADD DUP9 SSTORE POP POP POP JUMPDEST POP POP POP POP POP POP JUMP INVALID LOG2 PUSH5 0x6970667358 0x22 SLT KECCAK256 MOD JUMPI CALLVALUE PUSH25 0xA573A6CC0AF725A816E00FD648064200B5DA718E066A42A812 INVALID PUSH6 0xDC64736F6C63 NUMBER STOP ADDMOD 0x1E STOP CALLER "
				},
				"gasEstimates": {
					"creation": {
						"codeDepositCost": "481600",
						"executionCost": "516",
						"totalCost": "482116"
					},
					"external": {
						"buy()": "24452",
						"getAge()": "2521",
						"getName()": "infinite",
						"getOwner()": "2560",
						"getPrice()": "2432",
						"name()": "infinite",
						"price()": "2447",
						"setAge(uint256)": "22603",
						"setName(string)": "infinite",
						"setPrice(uint256)": "22582"
					}
				},
				"methodIdentifiers": {
					"buy()": "a6f2ae3a",
					"getAge()": "967e6e65",
					"getName()": "17d7de7c",
					"getOwner()": "893d20e8",
					"getPrice()": "98d5fdca",
					"name()": "06fdde03",
					"price()": "a035b1fe",
					"setAge(uint256)": "d5dcf127",
					"setName(string)": "c47f0027",
					"setPrice(uint256)": "91b7f5ed"
				}
			},
			"storageLayout": {
				"storage": [
					{
						"astId": 3,
						"contract": "chapter05/sample5-03.sol:Dog",
						"label": "name",
						"offset": 0,
						"slot": "0",
						"type": "t_string_storage"
					},
					{
						"astId": 5,
						"contract": "chapter05/sample5-03.sol:Dog",
						"label": "price",
						"offset": 0,
						"slot": "1",
						"type": "t_uint256"
					},
					{
						"astId": 7,
						"contract": "chapter05/sample5-03.sol:Dog",
						"label": "age",
						"offset": 0,
						"slot": "2",
						"type": "t_uint256"
					},
					{
						"astId": 9,
						"contract": "chapter05/sample5-03.sol:Dog",
						"label": "owner",
						"offset": 0,
						"slot": "3",
						"type": "t_address"
					}
				],
				"types": {
					"t_address": {
						"encoding": "inplace",
						"label": "address",
						"numberOfBytes": "20"
					},
					"t_string_storage": {
						"encoding": "bytes",
						"label": "string",
						"numberOfBytes": "32"
					},
					"t_uint256": {
						"encoding": "inplace",
						"label": "uint256",
						"numberOfBytes": "32"
					}
				}
			},
			"userdoc": {
				"kind": "user",
				"methods": {},
				"version": 1
			}
		}
	}
}