{
	"test/WalletPro.sol": {
		"WalletPro": {
			"abi": [
				{
					"inputs": [],
					"stateMutability": "nonpayable",
					"type": "constructor"
				},
				{
					"inputs": [],
					"name": "balance",
					"outputs": [
						{
							"internalType": "uint256",
							"name": "",
							"type": "uint256"
						}
					],
					"stateMutability": "view",
					"type": "function"
				},
				{
					"inputs": [],
					"name": "deposit",
					"outputs": [],
					"stateMutability": "payable",
					"type": "function"
				},
				{
					"inputs": [],
					"name": "destroyWallet",
					"outputs": [],
					"stateMutability": "nonpayable",
					"type": "function"
				},
				{
					"inputs": [],
					"name": "owner",
					"outputs": [
						{
							"internalType": "address payable",
							"name": "",
							"type": "address"
						}
					],
					"stateMutability": "view",
					"type": "function"
				},
				{
					"stateMutability": "payable",
					"type": "receive"
				}
			],
			"devdoc": {
				"kind": "dev",
				"methods": {},
				"version": 1
			},
			"evm": {
				"assembly": "    /* \"test/WalletPro.sol\":529:1743  contract WalletPro {... */\n  mstore(0x40, 0x80)\n    /* \"test/WalletPro.sol\":775:918  constructor() {... */\n  callvalue\n  dup1\n  iszero\n  tag_1\n  jumpi\n  0x00\n  dup1\n  revert\ntag_1:\n  pop\n    /* \"test/WalletPro.sol\":899:909  msg.sender */\n  caller\n    /* \"test/WalletPro.sol\":883:888  owner */\n  0x00\n  dup1\n    /* \"test/WalletPro.sol\":883:910  owner = payable(msg.sender) */\n  0x0100\n  exp\n  dup2\n  sload\n  dup2\n  0xffffffffffffffffffffffffffffffffffffffff\n  mul\n  not\n  and\n  swap1\n  dup4\n  0xffffffffffffffffffffffffffffffffffffffff\n  and\n  mul\n  or\n  swap1\n  sstore\n  pop\n    /* \"test/WalletPro.sol\":529:1743  contract WalletPro {... */\n  dataSize(sub_0)\n  dup1\n  dataOffset(sub_0)\n  0x00\n  codecopy\n  0x00\n  return\nstop\n\nsub_0: assembly {\n        /* \"test/WalletPro.sol\":529:1743  contract WalletPro {... */\n      mstore(0x40, 0x80)\n      jumpi(tag_1, lt(calldatasize, 0x04))\n      shr(0xe0, calldataload(0x00))\n      dup1\n      0x15b9e025\n      eq\n      tag_3\n      jumpi\n      dup1\n      0x8da5cb5b\n      eq\n      tag_4\n      jumpi\n      dup1\n      0xb69ef8a8\n      eq\n      tag_5\n      jumpi\n      dup1\n      0xd0e30db0\n      eq\n      tag_6\n      jumpi\n      jump(tag_2)\n    tag_1:\n      jumpi(tag_2, calldatasize)\n        /* \"test/WalletPro.sol\":1419:1428  deposit() */\n      tag_9\n        /* \"test/WalletPro.sol\":1419:1426  deposit */\n      tag_10\n        /* \"test/WalletPro.sol\":1419:1428  deposit() */\n      jump\t// in\n    tag_9:\n        /* \"test/WalletPro.sol\":529:1743  contract WalletPro {... */\n      stop\n    tag_2:\n      0x00\n      dup1\n      revert\n        /* \"test/WalletPro.sol\":1488:1740  function destroyWallet() public {... */\n    tag_3:\n      callvalue\n      dup1\n      iszero\n      tag_11\n      jumpi\n      0x00\n      dup1\n      revert\n    tag_11:\n      pop\n      tag_12\n      tag_13\n      jump\t// in\n    tag_12:\n      stop\n        /* \"test/WalletPro.sol\":662:690  address payable public owner */\n    tag_4:\n      callvalue\n      dup1\n      iszero\n      tag_14\n      jumpi\n      0x00\n      dup1\n      revert\n    tag_14:\n      pop\n      tag_15\n      tag_16\n      jump\t// in\n    tag_15:\n      mload(0x40)\n      tag_17\n      swap2\n      swap1\n      tag_18\n      jump\t// in\n    tag_17:\n      mload(0x40)\n      dup1\n      swap2\n      sub\n      swap1\n      return\n        /* \"test/WalletPro.sol\":697:716  uint public balance */\n    tag_5:\n      callvalue\n      dup1\n      iszero\n      tag_19\n      jumpi\n      0x00\n      dup1\n      revert\n    tag_19:\n      pop\n      tag_20\n      tag_21\n      jump\t// in\n    tag_20:\n      mload(0x40)\n      tag_22\n      swap2\n      swap1\n      tag_23\n      jump\t// in\n    tag_22:\n      mload(0x40)\n      dup1\n      swap2\n      sub\n      swap1\n      return\n        /* \"test/WalletPro.sol\":964:1224  function deposit() public payable {... */\n    tag_6:\n      tag_24\n      tag_10\n      jump\t// in\n    tag_24:\n      stop\n    tag_10:\n        /* \"test/WalletPro.sol\":1077:1078  0 */\n      0x00\n        /* \"test/WalletPro.sol\":1065:1074  msg.value */\n      callvalue\n        /* \"test/WalletPro.sol\":1065:1078  msg.value > 0 */\n      gt\n        /* \"test/WalletPro.sol\":1057:1118  require(msg.value > 0, \";Deposit must be greater than zero;\") */\n      tag_26\n      jumpi\n      mload(0x40)\n      0x08c379a000000000000000000000000000000000000000000000000000000000\n      dup2\n      mstore\n      0x04\n      add\n      tag_27\n      swap1\n      tag_28\n      jump\t// in\n    tag_27:\n      mload(0x40)\n      dup1\n      swap2\n      sub\n      swap1\n      revert\n    tag_26:\n        /* \"test/WalletPro.sol\":1190:1216  balance.safeAdd(msg.value) */\n      tag_29\n        /* \"test/WalletPro.sol\":1206:1215  msg.value */\n      callvalue\n        /* \"test/WalletPro.sol\":1190:1197  balance */\n      sload(0x01)\n        /* \"test/WalletPro.sol\":1190:1205  balance.safeAdd */\n      tag_30\n      swap1\n        /* \"test/WalletPro.sol\":1190:1216  balance.safeAdd(msg.value) */\n      swap2\n      swap1\n      0xffffffff\n      and\n      jump\t// in\n    tag_29:\n        /* \"test/WalletPro.sol\":1180:1187  balance */\n      0x01\n        /* \"test/WalletPro.sol\":1180:1216  balance = balance.safeAdd(msg.value) */\n      dup2\n      swap1\n      sstore\n      pop\n        /* \"test/WalletPro.sol\":964:1224  function deposit() public payable {... */\n      jump\t// out\n        /* \"test/WalletPro.sol\":1488:1740  function destroyWallet() public {... */\n    tag_13:\n        /* \"test/WalletPro.sol\":1614:1619  owner */\n      0x00\n      dup1\n      sload\n      swap1\n      0x0100\n      exp\n      swap1\n      div\n      0xffffffffffffffffffffffffffffffffffffffff\n      and\n        /* \"test/WalletPro.sol\":1600:1619  msg.sender == owner */\n      0xffffffffffffffffffffffffffffffffffffffff\n      and\n        /* \"test/WalletPro.sol\":1600:1610  msg.sender */\n      caller\n        /* \"test/WalletPro.sol\":1600:1619  msg.sender == owner */\n      0xffffffffffffffffffffffffffffffffffffffff\n      and\n      eq\n        /* \"test/WalletPro.sol\":1592:1639  require(msg.sender == owner, \";Not the owner;\") */\n      tag_32\n      jumpi\n      mload(0x40)\n      0x08c379a000000000000000000000000000000000000000000000000000000000\n      dup2\n      mstore\n      0x04\n      add\n      tag_33\n      swap1\n      tag_34\n      jump\t// in\n    tag_33:\n      mload(0x40)\n      dup1\n      swap2\n      sub\n      swap1\n      revert\n    tag_32:\n        /* \"test/WalletPro.sol\":1726:1731  owner */\n      0x00\n      dup1\n      sload\n      swap1\n      0x0100\n      exp\n      swap1\n      div\n      0xffffffffffffffffffffffffffffffffffffffff\n      and\n        /* \"test/WalletPro.sol\":1713:1732  selfdestruct(owner) */\n      0xffffffffffffffffffffffffffffffffffffffff\n      and\n      selfdestruct\n        /* \"test/WalletPro.sol\":662:690  address payable public owner */\n    tag_16:\n      0x00\n      dup1\n      sload\n      swap1\n      0x0100\n      exp\n      swap1\n      div\n      0xffffffffffffffffffffffffffffffffffffffff\n      and\n      dup2\n      jump\t// out\n        /* \"test/WalletPro.sol\":697:716  uint public balance */\n    tag_21:\n      sload(0x01)\n      dup2\n      jump\t// out\n        /* \"test/WalletPro.sol\":250:522  function safeAdd(uint a, uint b) internal pure returns (uint) {... */\n    tag_30:\n        /* \"test/WalletPro.sol\":306:310  uint */\n      0x00\n        /* \"test/WalletPro.sol\":362:368  uint c */\n      dup1\n        /* \"test/WalletPro.sol\":375:376  b */\n      dup3\n        /* \"test/WalletPro.sol\":371:372  a */\n      dup5\n        /* \"test/WalletPro.sol\":371:376  a + b */\n      tag_36\n      swap2\n      swap1\n      tag_37\n      jump\t// in\n    tag_36:\n        /* \"test/WalletPro.sol\":362:376  uint c = a + b */\n      swap1\n      pop\n        /* \"test/WalletPro.sol\":493:494  a */\n      dup4\n        /* \"test/WalletPro.sol\":488:489  c */\n      dup2\n        /* \"test/WalletPro.sol\":488:494  c >= a */\n      lt\n      iszero\n        /* \"test/WalletPro.sol\":481:495  assert(c >= a) */\n      tag_38\n      jumpi\n      tag_39\n      tag_40\n      jump\t// in\n    tag_39:\n    tag_38:\n        /* \"test/WalletPro.sol\":513:514  c */\n      dup1\n        /* \"test/WalletPro.sol\":506:514  return c */\n      swap2\n      pop\n      pop\n        /* \"test/WalletPro.sol\":250:522  function safeAdd(uint a, uint b) internal pure returns (uint) {... */\n      swap3\n      swap2\n      pop\n      pop\n      jump\t// out\n        /* \"#utility.yul\":7:133   */\n    tag_41:\n        /* \"#utility.yul\":44:51   */\n      0x00\n        /* \"#utility.yul\":84:126   */\n      0xffffffffffffffffffffffffffffffffffffffff\n        /* \"#utility.yul\":77:82   */\n      dup3\n        /* \"#utility.yul\":73:127   */\n      and\n        /* \"#utility.yul\":62:127   */\n      swap1\n      pop\n        /* \"#utility.yul\":7:133   */\n      swap2\n      swap1\n      pop\n      jump\t// out\n        /* \"#utility.yul\":139:243   */\n    tag_42:\n        /* \"#utility.yul\":184:191   */\n      0x00\n        /* \"#utility.yul\":213:237   */\n      tag_55\n        /* \"#utility.yul\":231:236   */\n      dup3\n        /* \"#utility.yul\":213:237   */\n      tag_41\n      jump\t// in\n    tag_55:\n        /* \"#utility.yul\":202:237   */\n      swap1\n      pop\n        /* \"#utility.yul\":139:243   */\n      swap2\n      swap1\n      pop\n      jump\t// out\n        /* \"#utility.yul\":249:391   */\n    tag_43:\n        /* \"#utility.yul\":352:384   */\n      tag_57\n        /* \"#utility.yul\":378:383   */\n      dup2\n        /* \"#utility.yul\":352:384   */\n      tag_42\n      jump\t// in\n    tag_57:\n        /* \"#utility.yul\":347:350   */\n      dup3\n        /* \"#utility.yul\":340:385   */\n      mstore\n        /* \"#utility.yul\":249:391   */\n      pop\n      pop\n      jump\t// out\n        /* \"#utility.yul\":397:651   */\n    tag_18:\n        /* \"#utility.yul\":506:510   */\n      0x00\n        /* \"#utility.yul\":544:546   */\n      0x20\n        /* \"#utility.yul\":533:542   */\n      dup3\n        /* \"#utility.yul\":529:547   */\n      add\n        /* \"#utility.yul\":521:547   */\n      swap1\n      pop\n        /* \"#utility.yul\":557:644   */\n      tag_59\n        /* \"#utility.yul\":641:642   */\n      0x00\n        /* \"#utility.yul\":630:639   */\n      dup4\n        /* \"#utility.yul\":626:643   */\n      add\n        /* \"#utility.yul\":617:623   */\n      dup5\n        /* \"#utility.yul\":557:644   */\n      tag_43\n      jump\t// in\n    tag_59:\n        /* \"#utility.yul\":397:651   */\n      swap3\n      swap2\n      pop\n      pop\n      jump\t// out\n        /* \"#utility.yul\":657:734   */\n    tag_44:\n        /* \"#utility.yul\":694:701   */\n      0x00\n        /* \"#utility.yul\":723:728   */\n      dup2\n        /* \"#utility.yul\":712:728   */\n      swap1\n      pop\n        /* \"#utility.yul\":657:734   */\n      swap2\n      swap1\n      pop\n      jump\t// out\n        /* \"#utility.yul\":740:858   */\n    tag_45:\n        /* \"#utility.yul\":827:851   */\n      tag_62\n        /* \"#utility.yul\":845:850   */\n      dup2\n        /* \"#utility.yul\":827:851   */\n      tag_44\n      jump\t// in\n    tag_62:\n        /* \"#utility.yul\":822:825   */\n      dup3\n        /* \"#utility.yul\":815:852   */\n      mstore\n        /* \"#utility.yul\":740:858   */\n      pop\n      pop\n      jump\t// out\n        /* \"#utility.yul\":864:1086   */\n    tag_23:\n        /* \"#utility.yul\":957:961   */\n      0x00\n        /* \"#utility.yul\":995:997   */\n      0x20\n        /* \"#utility.yul\":984:993   */\n      dup3\n        /* \"#utility.yul\":980:998   */\n      add\n        /* \"#utility.yul\":972:998   */\n      swap1\n      pop\n        /* \"#utility.yul\":1008:1079   */\n      tag_64\n        /* \"#utility.yul\":1076:1077   */\n      0x00\n        /* \"#utility.yul\":1065:1074   */\n      dup4\n        /* \"#utility.yul\":1061:1078   */\n      add\n        /* \"#utility.yul\":1052:1058   */\n      dup5\n        /* \"#utility.yul\":1008:1079   */\n      tag_45\n      jump\t// in\n    tag_64:\n        /* \"#utility.yul\":864:1086   */\n      swap3\n      swap2\n      pop\n      pop\n      jump\t// out\n        /* \"#utility.yul\":1092:1261   */\n    tag_46:\n        /* \"#utility.yul\":1176:1187   */\n      0x00\n        /* \"#utility.yul\":1210:1216   */\n      dup3\n        /* \"#utility.yul\":1205:1208   */\n      dup3\n        /* \"#utility.yul\":1198:1217   */\n      mstore\n        /* \"#utility.yul\":1250:1254   */\n      0x20\n        /* \"#utility.yul\":1245:1248   */\n      dup3\n        /* \"#utility.yul\":1241:1255   */\n      add\n        /* \"#utility.yul\":1226:1255   */\n      swap1\n      pop\n        /* \"#utility.yul\":1092:1261   */\n      swap3\n      swap2\n      pop\n      pop\n      jump\t// out\n        /* \"#utility.yul\":1267:1489   */\n    tag_47:\n        /* \"#utility.yul\":1407:1441   */\n      0x3b4465706f736974206d7573742062652067726561746572207468616e207a65\n        /* \"#utility.yul\":1403:1404   */\n      0x00\n        /* \"#utility.yul\":1395:1401   */\n      dup3\n        /* \"#utility.yul\":1391:1405   */\n      add\n        /* \"#utility.yul\":1384:1442   */\n      mstore\n        /* \"#utility.yul\":1476:1481   */\n      0x726f3b0000000000000000000000000000000000000000000000000000000000\n        /* \"#utility.yul\":1471:1473   */\n      0x20\n        /* \"#utility.yul\":1463:1469   */\n      dup3\n        /* \"#utility.yul\":1459:1474   */\n      add\n        /* \"#utility.yul\":1452:1482   */\n      mstore\n        /* \"#utility.yul\":1267:1489   */\n      pop\n      jump\t// out\n        /* \"#utility.yul\":1495:1861   */\n    tag_48:\n        /* \"#utility.yul\":1637:1640   */\n      0x00\n        /* \"#utility.yul\":1658:1725   */\n      tag_68\n        /* \"#utility.yul\":1722:1724   */\n      0x23\n        /* \"#utility.yul\":1717:1720   */\n      dup4\n        /* \"#utility.yul\":1658:1725   */\n      tag_46\n      jump\t// in\n    tag_68:\n        /* \"#utility.yul\":1651:1725   */\n      swap2\n      pop\n        /* \"#utility.yul\":1734:1827   */\n      tag_69\n        /* \"#utility.yul\":1823:1826   */\n      dup3\n        /* \"#utility.yul\":1734:1827   */\n      tag_47\n      jump\t// in\n    tag_69:\n        /* \"#utility.yul\":1852:1854   */\n      0x40\n        /* \"#utility.yul\":1847:1850   */\n      dup3\n        /* \"#utility.yul\":1843:1855   */\n      add\n        /* \"#utility.yul\":1836:1855   */\n      swap1\n      pop\n        /* \"#utility.yul\":1495:1861   */\n      swap2\n      swap1\n      pop\n      jump\t// out\n        /* \"#utility.yul\":1867:2286   */\n    tag_28:\n        /* \"#utility.yul\":2033:2037   */\n      0x00\n        /* \"#utility.yul\":2071:2073   */\n      0x20\n        /* \"#utility.yul\":2060:2069   */\n      dup3\n        /* \"#utility.yul\":2056:2074   */\n      add\n        /* \"#utility.yul\":2048:2074   */\n      swap1\n      pop\n        /* \"#utility.yul\":2120:2129   */\n      dup2\n        /* \"#utility.yul\":2114:2118   */\n      dup2\n        /* \"#utility.yul\":2110:2130   */\n      sub\n        /* \"#utility.yul\":2106:2107   */\n      0x00\n        /* \"#utility.yul\":2095:2104   */\n      dup4\n        /* \"#utility.yul\":2091:2108   */\n      add\n        /* \"#utility.yul\":2084:2131   */\n      mstore\n        /* \"#utility.yul\":2148:2279   */\n      tag_71\n        /* \"#utility.yul\":2274:2278   */\n      dup2\n        /* \"#utility.yul\":2148:2279   */\n      tag_48\n      jump\t// in\n    tag_71:\n        /* \"#utility.yul\":2140:2279   */\n      swap1\n      pop\n        /* \"#utility.yul\":1867:2286   */\n      swap2\n      swap1\n      pop\n      jump\t// out\n        /* \"#utility.yul\":2292:2457   */\n    tag_49:\n        /* \"#utility.yul\":2432:2449   */\n      0x3b4e6f7420746865206f776e65723b0000000000000000000000000000000000\n        /* \"#utility.yul\":2428:2429   */\n      0x00\n        /* \"#utility.yul\":2420:2426   */\n      dup3\n        /* \"#utility.yul\":2416:2430   */\n      add\n        /* \"#utility.yul\":2409:2450   */\n      mstore\n        /* \"#utility.yul\":2292:2457   */\n      pop\n      jump\t// out\n        /* \"#utility.yul\":2463:2829   */\n    tag_50:\n        /* \"#utility.yul\":2605:2608   */\n      0x00\n        /* \"#utility.yul\":2626:2693   */\n      tag_74\n        /* \"#utility.yul\":2690:2692   */\n      0x0f\n        /* \"#utility.yul\":2685:2688   */\n      dup4\n        /* \"#utility.yul\":2626:2693   */\n      tag_46\n      jump\t// in\n    tag_74:\n        /* \"#utility.yul\":2619:2693   */\n      swap2\n      pop\n        /* \"#utility.yul\":2702:2795   */\n      tag_75\n        /* \"#utility.yul\":2791:2794   */\n      dup3\n        /* \"#utility.yul\":2702:2795   */\n      tag_49\n      jump\t// in\n    tag_75:\n        /* \"#utility.yul\":2820:2822   */\n      0x20\n        /* \"#utility.yul\":2815:2818   */\n      dup3\n        /* \"#utility.yul\":2811:2823   */\n      add\n        /* \"#utility.yul\":2804:2823   */\n      swap1\n      pop\n        /* \"#utility.yul\":2463:2829   */\n      swap2\n      swap1\n      pop\n      jump\t// out\n        /* \"#utility.yul\":2835:3254   */\n    tag_34:\n        /* \"#utility.yul\":3001:3005   */\n      0x00\n        /* \"#utility.yul\":3039:3041   */\n      0x20\n        /* \"#utility.yul\":3028:3037   */\n      dup3\n        /* \"#utility.yul\":3024:3042   */\n      add\n        /* \"#utility.yul\":3016:3042   */\n      swap1\n      pop\n        /* \"#utility.yul\":3088:3097   */\n      dup2\n        /* \"#utility.yul\":3082:3086   */\n      dup2\n        /* \"#utility.yul\":3078:3098   */\n      sub\n        /* \"#utility.yul\":3074:3075   */\n      0x00\n        /* \"#utility.yul\":3063:3072   */\n      dup4\n        /* \"#utility.yul\":3059:3076   */\n      add\n        /* \"#utility.yul\":3052:3099   */\n      mstore\n        /* \"#utility.yul\":3116:3247   */\n      tag_77\n        /* \"#utility.yul\":3242:3246   */\n      dup2\n        /* \"#utility.yul\":3116:3247   */\n      tag_50\n      jump\t// in\n    tag_77:\n        /* \"#utility.yul\":3108:3247   */\n      swap1\n      pop\n        /* \"#utility.yul\":2835:3254   */\n      swap2\n      swap1\n      pop\n      jump\t// out\n        /* \"#utility.yul\":3260:3440   */\n    tag_51:\n        /* \"#utility.yul\":3308:3385   */\n      0x4e487b7100000000000000000000000000000000000000000000000000000000\n        /* \"#utility.yul\":3305:3306   */\n      0x00\n        /* \"#utility.yul\":3298:3386   */\n      mstore\n        /* \"#utility.yul\":3405:3409   */\n      0x11\n        /* \"#utility.yul\":3402:3403   */\n      0x04\n        /* \"#utility.yul\":3395:3410   */\n      mstore\n        /* \"#utility.yul\":3429:3433   */\n      0x24\n        /* \"#utility.yul\":3426:3427   */\n      0x00\n        /* \"#utility.yul\":3419:3434   */\n      revert\n        /* \"#utility.yul\":3446:3637   */\n    tag_37:\n        /* \"#utility.yul\":3486:3489   */\n      0x00\n        /* \"#utility.yul\":3505:3525   */\n      tag_80\n        /* \"#utility.yul\":3523:3524   */\n      dup3\n        /* \"#utility.yul\":3505:3525   */\n      tag_44\n      jump\t// in\n    tag_80:\n        /* \"#utility.yul\":3500:3525   */\n      swap2\n      pop\n        /* \"#utility.yul\":3539:3559   */\n      tag_81\n        /* \"#utility.yul\":3557:3558   */\n      dup4\n        /* \"#utility.yul\":3539:3559   */\n      tag_44\n      jump\t// in\n    tag_81:\n        /* \"#utility.yul\":3534:3559   */\n      swap3\n      pop\n        /* \"#utility.yul\":3582:3583   */\n      dup3\n        /* \"#utility.yul\":3579:3580   */\n      dup3\n        /* \"#utility.yul\":3575:3584   */\n      add\n        /* \"#utility.yul\":3568:3584   */\n      swap1\n      pop\n        /* \"#utility.yul\":3603:3606   */\n      dup1\n        /* \"#utility.yul\":3600:3601   */\n      dup3\n        /* \"#utility.yul\":3597:3607   */\n      gt\n        /* \"#utility.yul\":3594:3630   */\n      iszero\n      tag_82\n      jumpi\n        /* \"#utility.yul\":3610:3628   */\n      tag_83\n      tag_51\n      jump\t// in\n    tag_83:\n        /* \"#utility.yul\":3594:3630   */\n    tag_82:\n        /* \"#utility.yul\":3446:3637   */\n      swap3\n      swap2\n      pop\n      pop\n      jump\t// out\n        /* \"#utility.yul\":3643:3823   */\n    tag_40:\n        /* \"#utility.yul\":3691:3768   */\n      0x4e487b7100000000000000000000000000000000000000000000000000000000\n        /* \"#utility.yul\":3688:3689   */\n      0x00\n        /* \"#utility.yul\":3681:3769   */\n      mstore\n        /* \"#utility.yul\":3788:3792   */\n      0x01\n        /* \"#utility.yul\":3785:3786   */\n      0x04\n        /* \"#utility.yul\":3778:3793   */\n      mstore\n        /* \"#utility.yul\":3812:3816   */\n      0x24\n        /* \"#utility.yul\":3809:3810   */\n      0x00\n        /* \"#utility.yul\":3802:3817   */\n      revert\n\n    auxdata: 0xa2646970667358221220524fea9c5060fd927d34cc436813efe43daee014b33eb30908318028c29d666864736f6c63430008180033\n}\n",
				"bytecode": {
					"linkReferences": {},
					"object": "608060405234801561000f575f80fd5b50335f806101000a81548173ffffffffffffffffffffffffffffffffffffffff021916908373ffffffffffffffffffffffffffffffffffffffff1602179055506104938061005c5f395ff3fe608060405260043610610042575f3560e01c806315b9e025146100555780638da5cb5b1461006b578063b69ef8a814610095578063d0e30db0146100bf57610051565b366100515761004f6100c9565b005b5f80fd5b348015610060575f80fd5b50610069610128565b005b348015610076575f80fd5b5061007f6101ed565b60405161008c9190610280565b60405180910390f35b3480156100a0575f80fd5b506100a9610210565b6040516100b691906102b1565b60405180910390f35b6100c76100c9565b005b5f341161010b576040517f08c379a00000000000000000000000000000000000000000000000000000000081526004016101029061034a565b60405180910390fd5b6101203460015461021690919063ffffffff16565b600181905550565b5f8054906101000a900473ffffffffffffffffffffffffffffffffffffffff1673ffffffffffffffffffffffffffffffffffffffff163373ffffffffffffffffffffffffffffffffffffffff16146101b5576040517f08c379a00000000000000000000000000000000000000000000000000000000081526004016101ac906103b2565b60405180910390fd5b5f8054906101000a900473ffffffffffffffffffffffffffffffffffffffff1673ffffffffffffffffffffffffffffffffffffffff16ff5b5f8054906101000a900473ffffffffffffffffffffffffffffffffffffffff1681565b60015481565b5f80828461022491906103fd565b90508381101561023757610236610430565b5b8091505092915050565b5f73ffffffffffffffffffffffffffffffffffffffff82169050919050565b5f61026a82610241565b9050919050565b61027a81610260565b82525050565b5f6020820190506102935f830184610271565b92915050565b5f819050919050565b6102ab81610299565b82525050565b5f6020820190506102c45f8301846102a2565b92915050565b5f82825260208201905092915050565b7f3b4465706f736974206d7573742062652067726561746572207468616e207a655f8201527f726f3b0000000000000000000000000000000000000000000000000000000000602082015250565b5f6103346023836102ca565b915061033f826102da565b604082019050919050565b5f6020820190508181035f83015261036181610328565b9050919050565b7f3b4e6f7420746865206f776e65723b00000000000000000000000000000000005f82015250565b5f61039c600f836102ca565b91506103a782610368565b602082019050919050565b5f6020820190508181035f8301526103c981610390565b9050919050565b7f4e487b71000000000000000000000000000000000000000000000000000000005f52601160045260245ffd5b5f61040782610299565b915061041283610299565b925082820190508082111561042a576104296103d0565b5b92915050565b7f4e487b71000000000000000000000000000000000000000000000000000000005f52600160045260245ffdfea2646970667358221220524fea9c5060fd927d34cc436813efe43daee014b33eb30908318028c29d666864736f6c63430008180033",
					"opcodes": "PUSH1 0x80 PUSH1 0x40 MSTORE CALLVALUE DUP1 ISZERO PUSH2 0xF JUMPI PUSH0 DUP1 REVERT JUMPDEST POP CALLER PUSH0 DUP1 PUSH2 0x100 EXP DUP2 SLOAD DUP2 PUSH20 0xFFFFFFFFFFFFFFFFFFFFFFFFFFFFFFFFFFFFFFFF MUL NOT AND SWAP1 DUP4 PUSH20 0xFFFFFFFFFFFFFFFFFFFFFFFFFFFFFFFFFFFFFFFF AND MUL OR SWAP1 SSTORE POP PUSH2 0x493 DUP1 PUSH2 0x5C PUSH0 CODECOPY PUSH0 RETURN INVALID PUSH1 0x80 PUSH1 0x40 MSTORE PUSH1 0x4 CALLDATASIZE LT PUSH2 0x42 JUMPI PUSH0 CALLDATALOAD PUSH1 0xE0 SHR DUP1 PUSH4 0x15B9E025 EQ PUSH2 0x55 JUMPI DUP1 PUSH4 0x8DA5CB5B EQ PUSH2 0x6B JUMPI DUP1 PUSH4 0xB69EF8A8 EQ PUSH2 0x95 JUMPI DUP1 PUSH4 0xD0E30DB0 EQ PUSH2 0xBF JUMPI PUSH2 0x51 JUMP JUMPDEST CALLDATASIZE PUSH2 0x51 JUMPI PUSH2 0x4F PUSH2 0xC9 JUMP JUMPDEST STOP JUMPDEST PUSH0 DUP1 REVERT JUMPDEST CALLVALUE DUP1 ISZERO PUSH2 0x60 JUMPI PUSH0 DUP1 REVERT JUMPDEST POP PUSH2 0x69 PUSH2 0x128 JUMP JUMPDEST STOP JUMPDEST CALLVALUE DUP1 ISZERO PUSH2 0x76 JUMPI PUSH0 DUP1 REVERT JUMPDEST POP PUSH2 0x7F PUSH2 0x1ED JUMP JUMPDEST PUSH1 0x40 MLOAD PUSH2 0x8C SWAP2 SWAP1 PUSH2 0x280 JUMP JUMPDEST PUSH1 0x40 MLOAD DUP1 SWAP2 SUB SWAP1 RETURN JUMPDEST CALLVALUE DUP1 ISZERO PUSH2 0xA0 JUMPI PUSH0 DUP1 REVERT JUMPDEST POP PUSH2 0xA9 PUSH2 0x210 JUMP JUMPDEST PUSH1 0x40 MLOAD PUSH2 0xB6 SWAP2 SWAP1 PUSH2 0x2B1 JUMP JUMPDEST PUSH1 0x40 MLOAD DUP1 SWAP2 SUB SWAP1 RETURN JUMPDEST PUSH2 0xC7 PUSH2 0xC9 JUMP JUMPDEST STOP JUMPDEST PUSH0 CALLVALUE GT PUSH2 0x10B JUMPI PUSH1 0x40 MLOAD PUSH32 0x8C379A000000000000000000000000000000000000000000000000000000000 DUP2 MSTORE PUSH1 0x4 ADD PUSH2 0x102 SWAP1 PUSH2 0x34A JUMP JUMPDEST PUSH1 0x40 MLOAD DUP1 SWAP2 SUB SWAP1 REVERT JUMPDEST PUSH2 0x120 CALLVALUE PUSH1 0x1 SLOAD PUSH2 0x216 SWAP1 SWAP2 SWAP1 PUSH4 0xFFFFFFFF AND JUMP JUMPDEST PUSH1 0x1 DUP2 SWAP1 SSTORE POP JUMP JUMPDEST PUSH0 DUP1 SLOAD SWAP1 PUSH2 0x100 EXP SWAP1 DIV PUSH20 0xFFFFFFFFFFFFFFFFFFFFFFFFFFFFFFFFFFFFFFFF AND PUSH20 0xFFFFFFFFFFFFFFFFFFFFFFFFFFFFFFFFFFFFFFFF AND CALLER PUSH20 0xFFFFFFFFFFFFFFFFFFFFFFFFFFFFFFFFFFFFFFFF AND EQ PUSH2 0x1B5 JUMPI PUSH1 0x40 MLOAD PUSH32 0x8C379A000000000000000000000000000000000000000000000000000000000 DUP2 MSTORE PUSH1 0x4 ADD PUSH2 0x1AC SWAP1 PUSH2 0x3B2 JUMP JUMPDEST PUSH1 0x40 MLOAD DUP1 SWAP2 SUB SWAP1 REVERT JUMPDEST PUSH0 DUP1 SLOAD SWAP1 PUSH2 0x100 EXP SWAP1 DIV PUSH20 0xFFFFFFFFFFFFFFFFFFFFFFFFFFFFFFFFFFFFFFFF AND PUSH20 0xFFFFFFFFFFFFFFFFFFFFFFFFFFFFFFFFFFFFFFFF AND SELFDESTRUCT JUMPDEST PUSH0 DUP1 SLOAD SWAP1 PUSH2 0x100 EXP SWAP1 DIV PUSH20 0xFFFFFFFFFFFFFFFFFFFFFFFFFFFFFFFFFFFFFFFF AND DUP2 JUMP JUMPDEST PUSH1 0x1 SLOAD DUP2 JUMP JUMPDEST PUSH0 DUP1 DUP3 DUP5 PUSH2 0x224 SWAP2 SWAP1 PUSH2 0x3FD JUMP JUMPDEST SWAP1 POP DUP4 DUP2 LT ISZERO PUSH2 0x237 JUMPI PUSH2 0x236 PUSH2 0x430 JUMP JUMPDEST JUMPDEST DUP1 SWAP2 POP POP SWAP3 SWAP2 POP POP JUMP JUMPDEST PUSH0 PUSH20 0xFFFFFFFFFFFFFFFFFFFFFFFFFFFFFFFFFFFFFFFF DUP3 AND SWAP1 POP SWAP2 SWAP1 POP JUMP JUMPDEST PUSH0 PUSH2 0x26A DUP3 PUSH2 0x241 JUMP JUMPDEST SWAP1 POP SWAP2 SWAP1 POP JUMP JUMPDEST PUSH2 0x27A DUP2 PUSH2 0x260 JUMP JUMPDEST DUP3 MSTORE POP POP JUMP JUMPDEST PUSH0 PUSH1 0x20 DUP3 ADD SWAP1 POP PUSH2 0x293 PUSH0 DUP4 ADD DUP5 PUSH2 0x271 JUMP JUMPDEST SWAP3 SWAP2 POP POP JUMP JUMPDEST PUSH0 DUP2 SWAP1 POP SWAP2 SWAP1 POP JUMP JUMPDEST PUSH2 0x2AB DUP2 PUSH2 0x299 JUMP JUMPDEST DUP3 MSTORE POP POP JUMP JUMPDEST PUSH0 PUSH1 0x20 DUP3 ADD SWAP1 POP PUSH2 0x2C4 PUSH0 DUP4 ADD DUP5 PUSH2 0x2A2 JUMP JUMPDEST SWAP3 SWAP2 POP POP JUMP JUMPDEST PUSH0 DUP3 DUP3 MSTORE PUSH1 0x20 DUP3 ADD SWAP1 POP SWAP3 SWAP2 POP POP JUMP JUMPDEST PUSH32 0x3B4465706F736974206D7573742062652067726561746572207468616E207A65 PUSH0 DUP3 ADD MSTORE PUSH32 0x726F3B0000000000000000000000000000000000000000000000000000000000 PUSH1 0x20 DUP3 ADD MSTORE POP JUMP JUMPDEST PUSH0 PUSH2 0x334 PUSH1 0x23 DUP4 PUSH2 0x2CA JUMP JUMPDEST SWAP2 POP PUSH2 0x33F DUP3 PUSH2 0x2DA JUMP JUMPDEST PUSH1 0x40 DUP3 ADD SWAP1 POP SWAP2 SWAP1 POP JUMP JUMPDEST PUSH0 PUSH1 0x20 DUP3 ADD SWAP1 POP DUP2 DUP2 SUB PUSH0 DUP4 ADD MSTORE PUSH2 0x361 DUP2 PUSH2 0x328 JUMP JUMPDEST SWAP1 POP SWAP2 SWAP1 POP JUMP JUMPDEST PUSH32 0x3B4E6F7420746865206F776E65723B0000000000000000000000000000000000 PUSH0 DUP3 ADD MSTORE POP JUMP JUMPDEST PUSH0 PUSH2 0x39C PUSH1 0xF DUP4 PUSH2 0x2CA JUMP JUMPDEST SWAP2 POP PUSH2 0x3A7 DUP3 PUSH2 0x368 JUMP JUMPDEST PUSH1 0x20 DUP3 ADD SWAP1 POP SWAP2 SWAP1 POP JUMP JUMPDEST PUSH0 PUSH1 0x20 DUP3 ADD SWAP1 POP DUP2 DUP2 SUB PUSH0 DUP4 ADD MSTORE PUSH2 0x3C9 DUP2 PUSH2 0x390 JUMP JUMPDEST SWAP1 POP SWAP2 SWAP1 POP JUMP JUMPDEST PUSH32 0x4E487B7100000000000000000000000000000000000000000000000000000000 PUSH0 MSTORE PUSH1 0x11 PUSH1 0x4 MSTORE PUSH1 0x24 PUSH0 REVERT JUMPDEST PUSH0 PUSH2 0x407 DUP3 PUSH2 0x299 JUMP JUMPDEST SWAP2 POP PUSH2 0x412 DUP4 PUSH2 0x299 JUMP JUMPDEST SWAP3 POP DUP3 DUP3 ADD SWAP1 POP DUP1 DUP3 GT ISZERO PUSH2 0x42A JUMPI PUSH2 0x429 PUSH2 0x3D0 JUMP JUMPDEST JUMPDEST SWAP3 SWAP2 POP POP JUMP JUMPDEST PUSH32 0x4E487B7100000000000000000000000000000000000000000000000000000000 PUSH0 MSTORE PUSH1 0x1 PUSH1 0x4 MSTORE PUSH1 0x24 PUSH0 REVERT INVALID LOG2 PUSH5 0x6970667358 0x22 SLT KECCAK256 MSTORE 0x4F 0xEA SWAP13 POP PUSH1 0xFD SWAP3 PUSH30 0x34CC436813EFE43DAEE014B33EB30908318028C29D666864736F6C634300 ADDMOD XOR STOP CALLER "
				},
				"gasEstimates": {
					"creation": {
						"codeDepositCost": "234200",
						"executionCost": "24538",
						"totalCost": "258738"
					},
					"external": {
						"balance()": "2447",
						"deposit()": "infinite",
						"destroyWallet()": "32019",
						"owner()": "2505"
					}
				},
				"methodIdentifiers": {
					"balance()": "b69ef8a8",
					"deposit()": "d0e30db0",
					"destroyWallet()": "15b9e025",
					"owner()": "8da5cb5b"
				}
			},
			"storageLayout": {
				"storage": [
					{
						"astId": 31,
						"contract": "test/WalletPro.sol:WalletPro",
						"label": "owner",
						"offset": 0,
						"slot": "0",
						"type": "t_address_payable"
					},
					{
						"astId": 33,
						"contract": "test/WalletPro.sol:WalletPro",
						"label": "balance",
						"offset": 0,
						"slot": "1",
						"type": "t_uint256"
					}
				],
				"types": {
					"t_address_payable": {
						"encoding": "inplace",
						"label": "address payable",
						"numberOfBytes": "20"
					},
					"t_uint256": {
						"encoding": "inplace",
						"label": "uint256",
						"numberOfBytes": "32"
					}
				}
			},
			"userdoc": {
				"kind": "user",
				"methods": {},
				"version": 1
			}
		}
	}
}