{
	"test/GradeBook.sol": {
		"GradeBookPro": {
			"abi": [
				{
					"inputs": [
						{
							"internalType": "uint256[]",
							"name": "_scores",
							"type": "uint256[]"
						}
					],
					"name": "processGrades",
					"outputs": [
						{
							"internalType": "uint256",
							"name": "average",
							"type": "uint256"
						},
						{
							"internalType": "uint256",
							"name": "highestScore",
							"type": "uint256"
						},
						{
							"internalType": "uint256",
							"name": "lowestScore",
							"type": "uint256"
						},
						{
							"internalType": "uint256",
							"name": "passingCount",
							"type": "uint256"
						}
					],
					"stateMutability": "pure",
					"type": "function"
				}
			],
			"devdoc": {
				"details": "一个用于处理班级成绩并提供多种统计功能的智能合约。",
				"kind": "dev",
				"methods": {
					"processGrades(uint256[])": {
						"details": "处理一个成绩数组，返回平均分、最高分、最低分以及及格人数。",
						"params": {
							"_scores": "一个包含多个学生成绩的数组。"
						},
						"returns": {
							"average": "返回计算出的平均分。",
							"highestScore": "返回数组中的最高分。",
							"lowestScore": "返回数组中的最低分。",
							"passingCount": "返回及格（>=60）的学生人数。"
						}
					}
				},
				"title": "GradeBookPro",
				"version": 1
			},
			"evm": {
				"assembly": "    /* \"test/GradeBook.sol\":180:1856  contract GradeBookPro {... */\n  mstore(0x40, 0x80)\n  callvalue\n  dup1\n  iszero\n  tag_1\n  jumpi\n  revert(0x00, 0x00)\ntag_1:\n  pop\n  dataSize(sub_0)\n  dup1\n  dataOffset(sub_0)\n  0x00\n  codecopy\n  0x00\n  return\nstop\n\nsub_0: assembly {\n        /* \"test/GradeBook.sol\":180:1856  contract GradeBookPro {... */\n      mstore(0x40, 0x80)\n      callvalue\n      dup1\n      iszero\n      tag_1\n      jumpi\n      revert(0x00, 0x00)\n    tag_1:\n      pop\n      jumpi(tag_2, lt(calldatasize, 0x04))\n      shr(0xe0, calldataload(0x00))\n      dup1\n      0x463952c3\n      eq\n      tag_3\n      jumpi\n    tag_2:\n      revert(0x00, 0x00)\n        /* \"test/GradeBook.sol\":638:1853  function processGrades(uint[] memory _scores) public pure returns (uint average, uint highestScore, uint lowestScore, uint passingCount) {... */\n    tag_3:\n      tag_4\n      0x04\n      dup1\n      calldatasize\n      sub\n      dup2\n      add\n      swap1\n      tag_5\n      swap2\n      swap1\n      tag_6\n      jump\t// in\n    tag_5:\n      tag_7\n      jump\t// in\n    tag_4:\n      mload(0x40)\n      tag_8\n      swap5\n      swap4\n      swap3\n      swap2\n      swap1\n      tag_9\n      jump\t// in\n    tag_8:\n      mload(0x40)\n      dup1\n      swap2\n      sub\n      swap1\n      return\n    tag_7:\n        /* \"test/GradeBook.sol\":705:717  uint average */\n      0x00\n        /* \"test/GradeBook.sol\":719:736  uint highestScore */\n      0x00\n        /* \"test/GradeBook.sol\":738:754  uint lowestScore */\n      0x00\n        /* \"test/GradeBook.sol\":756:773  uint passingCount */\n      0x00\n        /* \"test/GradeBook.sol\":854:855  0 */\n      0x00\n        /* \"test/GradeBook.sol\":836:843  _scores */\n      dup6\n        /* \"test/GradeBook.sol\":836:850  _scores.length */\n      mload\n        /* \"test/GradeBook.sol\":836:855  _scores.length == 0 */\n      sub\n        /* \"test/GradeBook.sol\":832:903  if (_scores.length == 0) {... */\n      tag_11\n      jumpi\n        /* \"test/GradeBook.sol\":880:881  0 */\n      0x00\n        /* \"test/GradeBook.sol\":883:884  0 */\n      0x00\n        /* \"test/GradeBook.sol\":886:887  0 */\n      0x00\n        /* \"test/GradeBook.sol\":889:890  0 */\n      0x00\n        /* \"test/GradeBook.sol\":872:891  return (0, 0, 0, 0) */\n      swap4\n      pop\n      swap4\n      pop\n      swap4\n      pop\n      swap4\n      pop\n      jump(tag_10)\n        /* \"test/GradeBook.sol\":832:903  if (_scores.length == 0) {... */\n    tag_11:\n        /* \"test/GradeBook.sol\":915:923  uint sum */\n      0x00\n        /* \"test/GradeBook.sol\":926:927  0 */\n      0x00\n        /* \"test/GradeBook.sol\":915:927  uint sum = 0 */\n      swap1\n      pop\n        /* \"test/GradeBook.sol\":1023:1030  _scores */\n      dup6\n        /* \"test/GradeBook.sol\":1031:1032  0 */\n      0x00\n        /* \"test/GradeBook.sol\":1023:1033  _scores[0] */\n      dup2\n      mload\n      dup2\n      lt\n      tag_12\n      jumpi\n      tag_13\n      tag_14\n      jump\t// in\n    tag_13:\n    tag_12:\n      0x20\n      mul\n      0x20\n      add\n      add\n      mload\n        /* \"test/GradeBook.sol\":1008:1033  highestScore = _scores[0] */\n      swap4\n      pop\n        /* \"test/GradeBook.sol\":1058:1065  _scores */\n      dup6\n        /* \"test/GradeBook.sol\":1066:1067  0 */\n      0x00\n        /* \"test/GradeBook.sol\":1058:1068  _scores[0] */\n      dup2\n      mload\n      dup2\n      lt\n      tag_15\n      jumpi\n      tag_16\n      tag_14\n      jump\t// in\n    tag_16:\n    tag_15:\n      0x20\n      mul\n      0x20\n      add\n      add\n      mload\n        /* \"test/GradeBook.sol\":1044:1068  lowestScore = _scores[0] */\n      swap3\n      pop\n        /* \"test/GradeBook.sol\":1094:1095  0 */\n      0x00\n        /* \"test/GradeBook.sol\":1079:1095  passingCount = 0 */\n      swap2\n      pop\n        /* \"test/GradeBook.sol\":1167:1173  uint i */\n      0x00\n        /* \"test/GradeBook.sol\":1176:1177  0 */\n      0x00\n        /* \"test/GradeBook.sol\":1167:1177  uint i = 0 */\n      swap1\n      pop\n        /* \"test/GradeBook.sol\":1162:1716  for (uint i = 0; i < _scores.length; i++) {... */\n    tag_17:\n        /* \"test/GradeBook.sol\":1183:1190  _scores */\n      dup7\n        /* \"test/GradeBook.sol\":1183:1197  _scores.length */\n      mload\n        /* \"test/GradeBook.sol\":1179:1180  i */\n      dup2\n        /* \"test/GradeBook.sol\":1179:1197  i < _scores.length */\n      lt\n        /* \"test/GradeBook.sol\":1162:1716  for (uint i = 0; i < _scores.length; i++) {... */\n      iszero\n      tag_18\n      jumpi\n        /* \"test/GradeBook.sol\":1226:1233  _scores */\n      dup7\n        /* \"test/GradeBook.sol\":1234:1235  i */\n      dup2\n        /* \"test/GradeBook.sol\":1226:1236  _scores[i] */\n      dup2\n      mload\n      dup2\n      lt\n      tag_20\n      jumpi\n      tag_21\n      tag_14\n      jump\t// in\n    tag_21:\n    tag_20:\n      0x20\n      mul\n      0x20\n      add\n      add\n      mload\n        /* \"test/GradeBook.sol\":1219:1236  sum += _scores[i] */\n      dup3\n      tag_22\n      swap2\n      swap1\n      tag_23\n      jump\t// in\n    tag_22:\n      swap2\n      pop\n        /* \"test/GradeBook.sol\":1327:1339  highestScore */\n      dup5\n        /* \"test/GradeBook.sol\":1314:1321  _scores */\n      dup8\n        /* \"test/GradeBook.sol\":1322:1323  i */\n      dup3\n        /* \"test/GradeBook.sol\":1314:1324  _scores[i] */\n      dup2\n      mload\n      dup2\n      lt\n      tag_24\n      jumpi\n      tag_25\n      tag_14\n      jump\t// in\n    tag_25:\n    tag_24:\n      0x20\n      mul\n      0x20\n      add\n      add\n      mload\n        /* \"test/GradeBook.sol\":1314:1339  _scores[i] > highestScore */\n      gt\n        /* \"test/GradeBook.sol\":1310:1401  if (_scores[i] > highestScore) {... */\n      iszero\n      tag_26\n      jumpi\n        /* \"test/GradeBook.sol\":1375:1382  _scores */\n      dup7\n        /* \"test/GradeBook.sol\":1383:1384  i */\n      dup2\n        /* \"test/GradeBook.sol\":1375:1385  _scores[i] */\n      dup2\n      mload\n      dup2\n      lt\n      tag_27\n      jumpi\n      tag_28\n      tag_14\n      jump\t// in\n    tag_28:\n    tag_27:\n      0x20\n      mul\n      0x20\n      add\n      add\n      mload\n        /* \"test/GradeBook.sol\":1360:1385  highestScore = _scores[i] */\n      swap5\n      pop\n        /* \"test/GradeBook.sol\":1310:1401  if (_scores[i] > highestScore) {... */\n    tag_26:\n        /* \"test/GradeBook.sol\":1475:1486  lowestScore */\n      dup4\n        /* \"test/GradeBook.sol\":1462:1469  _scores */\n      dup8\n        /* \"test/GradeBook.sol\":1470:1471  i */\n      dup3\n        /* \"test/GradeBook.sol\":1462:1472  _scores[i] */\n      dup2\n      mload\n      dup2\n      lt\n      tag_29\n      jumpi\n      tag_30\n      tag_14\n      jump\t// in\n    tag_30:\n    tag_29:\n      0x20\n      mul\n      0x20\n      add\n      add\n      mload\n        /* \"test/GradeBook.sol\":1462:1486  _scores[i] < lowestScore */\n      lt\n        /* \"test/GradeBook.sol\":1458:1547  if (_scores[i] < lowestScore) {... */\n      iszero\n      tag_31\n      jumpi\n        /* \"test/GradeBook.sol\":1521:1528  _scores */\n      dup7\n        /* \"test/GradeBook.sol\":1529:1530  i */\n      dup2\n        /* \"test/GradeBook.sol\":1521:1531  _scores[i] */\n      dup2\n      mload\n      dup2\n      lt\n      tag_32\n      jumpi\n      tag_33\n      tag_14\n      jump\t// in\n    tag_33:\n    tag_32:\n      0x20\n      mul\n      0x20\n      add\n      add\n      mload\n        /* \"test/GradeBook.sol\":1507:1531  lowestScore = _scores[i] */\n      swap4\n      pop\n        /* \"test/GradeBook.sol\":1458:1547  if (_scores[i] < lowestScore) {... */\n    tag_31:\n        /* \"test/GradeBook.sol\":1652:1654  60 */\n      0x3c\n        /* \"test/GradeBook.sol\":1638:1645  _scores */\n      dup8\n        /* \"test/GradeBook.sol\":1646:1647  i */\n      dup3\n        /* \"test/GradeBook.sol\":1638:1648  _scores[i] */\n      dup2\n      mload\n      dup2\n      lt\n      tag_34\n      jumpi\n      tag_35\n      tag_14\n      jump\t// in\n    tag_35:\n    tag_34:\n      0x20\n      mul\n      0x20\n      add\n      add\n      mload\n        /* \"test/GradeBook.sol\":1638:1654  _scores[i] >= 60 */\n      lt\n        /* \"test/GradeBook.sol\":1634:1705  if (_scores[i] >= 60) {... */\n      tag_36\n      jumpi\n        /* \"test/GradeBook.sol\":1675:1689  passingCount++ */\n      dup3\n      dup1\n      tag_37\n      swap1\n      tag_38\n      jump\t// in\n    tag_37:\n      swap4\n      pop\n      pop\n        /* \"test/GradeBook.sol\":1634:1705  if (_scores[i] >= 60) {... */\n    tag_36:\n        /* \"test/GradeBook.sol\":1199:1202  i++ */\n      dup1\n      dup1\n      0x01\n      add\n      swap2\n      pop\n      pop\n        /* \"test/GradeBook.sol\":1162:1716  for (uint i = 0; i < _scores.length; i++) {... */\n      jump(tag_17)\n    tag_18:\n      pop\n        /* \"test/GradeBook.sol\":1744:1751  _scores */\n      dup6\n        /* \"test/GradeBook.sol\":1744:1758  _scores.length */\n      mload\n        /* \"test/GradeBook.sol\":1738:1741  sum */\n      dup2\n        /* \"test/GradeBook.sol\":1738:1758  sum / _scores.length */\n      tag_39\n      swap2\n      swap1\n      tag_40\n      jump\t// in\n    tag_39:\n        /* \"test/GradeBook.sol\":1728:1758  average = sum / _scores.length */\n      swap5\n      pop\n        /* \"test/GradeBook.sol\":1788:1845  return (average, highestScore, lowestScore, passingCount) */\n      pop\n        /* \"test/GradeBook.sol\":638:1853  function processGrades(uint[] memory _scores) public pure returns (uint average, uint highestScore, uint lowestScore, uint passingCount) {... */\n    tag_10:\n      swap2\n      swap4\n      pop\n      swap2\n      swap4\n      jump\t// out\n        /* \"#utility.yul\":7:82   */\n    tag_41:\n        /* \"#utility.yul\":40:46   */\n      0x00\n        /* \"#utility.yul\":73:75   */\n      0x40\n        /* \"#utility.yul\":67:76   */\n      mload\n        /* \"#utility.yul\":57:76   */\n      swap1\n      pop\n        /* \"#utility.yul\":7:82   */\n      swap1\n      jump\t// out\n        /* \"#utility.yul\":88:205   */\n    tag_42:\n        /* \"#utility.yul\":197:198   */\n      0x00\n        /* \"#utility.yul\":194:195   */\n      0x00\n        /* \"#utility.yul\":187:199   */\n      revert\n        /* \"#utility.yul\":211:328   */\n    tag_43:\n        /* \"#utility.yul\":320:321   */\n      0x00\n        /* \"#utility.yul\":317:318   */\n      0x00\n        /* \"#utility.yul\":310:322   */\n      revert\n        /* \"#utility.yul\":334:451   */\n    tag_44:\n        /* \"#utility.yul\":443:444   */\n      0x00\n        /* \"#utility.yul\":440:441   */\n      0x00\n        /* \"#utility.yul\":433:445   */\n      revert\n        /* \"#utility.yul\":457:559   */\n    tag_45:\n        /* \"#utility.yul\":498:504   */\n      0x00\n        /* \"#utility.yul\":549:551   */\n      0x1f\n        /* \"#utility.yul\":545:552   */\n      not\n        /* \"#utility.yul\":540:542   */\n      0x1f\n        /* \"#utility.yul\":533:538   */\n      dup4\n        /* \"#utility.yul\":529:543   */\n      add\n        /* \"#utility.yul\":525:553   */\n      and\n        /* \"#utility.yul\":515:553   */\n      swap1\n      pop\n        /* \"#utility.yul\":457:559   */\n      swap2\n      swap1\n      pop\n      jump\t// out\n        /* \"#utility.yul\":565:745   */\n    tag_46:\n        /* \"#utility.yul\":613:690   */\n      0x4e487b7100000000000000000000000000000000000000000000000000000000\n        /* \"#utility.yul\":610:611   */\n      0x00\n        /* \"#utility.yul\":603:691   */\n      mstore\n        /* \"#utility.yul\":710:714   */\n      0x41\n        /* \"#utility.yul\":707:708   */\n      0x04\n        /* \"#utility.yul\":700:715   */\n      mstore\n        /* \"#utility.yul\":734:738   */\n      0x24\n        /* \"#utility.yul\":731:732   */\n      0x00\n        /* \"#utility.yul\":724:739   */\n      revert\n        /* \"#utility.yul\":751:1032   */\n    tag_47:\n        /* \"#utility.yul\":834:861   */\n      tag_67\n        /* \"#utility.yul\":856:860   */\n      dup3\n        /* \"#utility.yul\":834:861   */\n      tag_45\n      jump\t// in\n    tag_67:\n        /* \"#utility.yul\":826:832   */\n      dup2\n        /* \"#utility.yul\":822:862   */\n      add\n        /* \"#utility.yul\":964:970   */\n      dup2\n        /* \"#utility.yul\":952:962   */\n      dup2\n        /* \"#utility.yul\":949:971   */\n      lt\n        /* \"#utility.yul\":928:946   */\n      0xffffffffffffffff\n        /* \"#utility.yul\":916:926   */\n      dup3\n        /* \"#utility.yul\":913:947   */\n      gt\n        /* \"#utility.yul\":910:972   */\n      or\n        /* \"#utility.yul\":907:995   */\n      iszero\n      tag_68\n      jumpi\n        /* \"#utility.yul\":975:993   */\n      tag_69\n      tag_46\n      jump\t// in\n    tag_69:\n        /* \"#utility.yul\":907:995   */\n    tag_68:\n        /* \"#utility.yul\":1015:1025   */\n      dup1\n        /* \"#utility.yul\":1011:1013   */\n      0x40\n        /* \"#utility.yul\":1004:1026   */\n      mstore\n        /* \"#utility.yul\":794:1032   */\n      pop\n        /* \"#utility.yul\":751:1032   */\n      pop\n      pop\n      jump\t// out\n        /* \"#utility.yul\":1038:1167   */\n    tag_48:\n        /* \"#utility.yul\":1072:1078   */\n      0x00\n        /* \"#utility.yul\":1099:1119   */\n      tag_71\n      tag_41\n      jump\t// in\n    tag_71:\n        /* \"#utility.yul\":1089:1119   */\n      swap1\n      pop\n        /* \"#utility.yul\":1128:1161   */\n      tag_72\n        /* \"#utility.yul\":1156:1160   */\n      dup3\n        /* \"#utility.yul\":1148:1154   */\n      dup3\n        /* \"#utility.yul\":1128:1161   */\n      tag_47\n      jump\t// in\n    tag_72:\n        /* \"#utility.yul\":1038:1167   */\n      swap2\n      swap1\n      pop\n      jump\t// out\n        /* \"#utility.yul\":1173:1484   */\n    tag_49:\n        /* \"#utility.yul\":1250:1254   */\n      0x00\n        /* \"#utility.yul\":1340:1358   */\n      0xffffffffffffffff\n        /* \"#utility.yul\":1332:1338   */\n      dup3\n        /* \"#utility.yul\":1329:1359   */\n      gt\n        /* \"#utility.yul\":1326:1382   */\n      iszero\n      tag_74\n      jumpi\n        /* \"#utility.yul\":1362:1380   */\n      tag_75\n      tag_46\n      jump\t// in\n    tag_75:\n        /* \"#utility.yul\":1326:1382   */\n    tag_74:\n        /* \"#utility.yul\":1412:1416   */\n      0x20\n        /* \"#utility.yul\":1404:1410   */\n      dup3\n        /* \"#utility.yul\":1400:1417   */\n      mul\n        /* \"#utility.yul\":1392:1417   */\n      swap1\n      pop\n        /* \"#utility.yul\":1472:1476   */\n      0x20\n        /* \"#utility.yul\":1466:1470   */\n      dup2\n        /* \"#utility.yul\":1462:1477   */\n      add\n        /* \"#utility.yul\":1454:1477   */\n      swap1\n      pop\n        /* \"#utility.yul\":1173:1484   */\n      swap2\n      swap1\n      pop\n      jump\t// out\n        /* \"#utility.yul\":1490:1607   */\n    tag_50:\n        /* \"#utility.yul\":1599:1600   */\n      0x00\n        /* \"#utility.yul\":1596:1597   */\n      0x00\n        /* \"#utility.yul\":1589:1601   */\n      revert\n        /* \"#utility.yul\":1613:1690   */\n    tag_51:\n        /* \"#utility.yul\":1650:1657   */\n      0x00\n        /* \"#utility.yul\":1679:1684   */\n      dup2\n        /* \"#utility.yul\":1668:1684   */\n      swap1\n      pop\n        /* \"#utility.yul\":1613:1690   */\n      swap2\n      swap1\n      pop\n      jump\t// out\n        /* \"#utility.yul\":1696:1818   */\n    tag_52:\n        /* \"#utility.yul\":1769:1793   */\n      tag_79\n        /* \"#utility.yul\":1787:1792   */\n      dup2\n        /* \"#utility.yul\":1769:1793   */\n      tag_51\n      jump\t// in\n    tag_79:\n        /* \"#utility.yul\":1762:1767   */\n      dup2\n        /* \"#utility.yul\":1759:1794   */\n      eq\n        /* \"#utility.yul\":1749:1812   */\n      tag_80\n      jumpi\n        /* \"#utility.yul\":1808:1809   */\n      0x00\n        /* \"#utility.yul\":1805:1806   */\n      0x00\n        /* \"#utility.yul\":1798:1810   */\n      revert\n        /* \"#utility.yul\":1749:1812   */\n    tag_80:\n        /* \"#utility.yul\":1696:1818   */\n      pop\n      jump\t// out\n        /* \"#utility.yul\":1824:1963   */\n    tag_53:\n        /* \"#utility.yul\":1870:1875   */\n      0x00\n        /* \"#utility.yul\":1908:1914   */\n      dup2\n        /* \"#utility.yul\":1895:1915   */\n      calldataload\n        /* \"#utility.yul\":1886:1915   */\n      swap1\n      pop\n        /* \"#utility.yul\":1924:1957   */\n      tag_82\n        /* \"#utility.yul\":1951:1956   */\n      dup2\n        /* \"#utility.yul\":1924:1957   */\n      tag_52\n      jump\t// in\n    tag_82:\n        /* \"#utility.yul\":1824:1963   */\n      swap3\n      swap2\n      pop\n      pop\n      jump\t// out\n        /* \"#utility.yul\":1986:2696   */\n    tag_54:\n        /* \"#utility.yul\":2082:2087   */\n      0x00\n        /* \"#utility.yul\":2107:2188   */\n      tag_84\n        /* \"#utility.yul\":2123:2187   */\n      tag_85\n        /* \"#utility.yul\":2180:2186   */\n      dup5\n        /* \"#utility.yul\":2123:2187   */\n      tag_49\n      jump\t// in\n    tag_85:\n        /* \"#utility.yul\":2107:2188   */\n      tag_48\n      jump\t// in\n    tag_84:\n        /* \"#utility.yul\":2098:2188   */\n      swap1\n      pop\n        /* \"#utility.yul\":2208:2213   */\n      dup1\n        /* \"#utility.yul\":2237:2243   */\n      dup4\n        /* \"#utility.yul\":2230:2235   */\n      dup3\n        /* \"#utility.yul\":2223:2244   */\n      mstore\n        /* \"#utility.yul\":2271:2275   */\n      0x20\n        /* \"#utility.yul\":2264:2269   */\n      dup3\n        /* \"#utility.yul\":2260:2276   */\n      add\n        /* \"#utility.yul\":2253:2276   */\n      swap1\n      pop\n        /* \"#utility.yul\":2324:2328   */\n      0x20\n        /* \"#utility.yul\":2316:2322   */\n      dup5\n        /* \"#utility.yul\":2312:2329   */\n      mul\n        /* \"#utility.yul\":2304:2310   */\n      dup4\n        /* \"#utility.yul\":2300:2330   */\n      add\n        /* \"#utility.yul\":2353:2356   */\n      dup6\n        /* \"#utility.yul\":2345:2351   */\n      dup2\n        /* \"#utility.yul\":2342:2357   */\n      gt\n        /* \"#utility.yul\":2339:2461   */\n      iszero\n      tag_86\n      jumpi\n        /* \"#utility.yul\":2372:2451   */\n      tag_87\n      tag_50\n      jump\t// in\n    tag_87:\n        /* \"#utility.yul\":2339:2461   */\n    tag_86:\n        /* \"#utility.yul\":2487:2493   */\n      dup4\n        /* \"#utility.yul\":2470:2690   */\n    tag_88:\n        /* \"#utility.yul\":2504:2510   */\n      dup2\n        /* \"#utility.yul\":2499:2502   */\n      dup2\n        /* \"#utility.yul\":2496:2511   */\n      lt\n        /* \"#utility.yul\":2470:2690   */\n      iszero\n      tag_90\n      jumpi\n        /* \"#utility.yul\":2579:2582   */\n      dup1\n        /* \"#utility.yul\":2608:2645   */\n      tag_91\n        /* \"#utility.yul\":2641:2644   */\n      dup9\n        /* \"#utility.yul\":2629:2639   */\n      dup3\n        /* \"#utility.yul\":2608:2645   */\n      tag_53\n      jump\t// in\n    tag_91:\n        /* \"#utility.yul\":2603:2606   */\n      dup5\n        /* \"#utility.yul\":2596:2646   */\n      mstore\n        /* \"#utility.yul\":2675:2679   */\n      0x20\n        /* \"#utility.yul\":2670:2673   */\n      dup5\n        /* \"#utility.yul\":2666:2680   */\n      add\n        /* \"#utility.yul\":2659:2680   */\n      swap4\n      pop\n        /* \"#utility.yul\":2546:2690   */\n      pop\n        /* \"#utility.yul\":2530:2534   */\n      0x20\n        /* \"#utility.yul\":2525:2528   */\n      dup2\n        /* \"#utility.yul\":2521:2535   */\n      add\n        /* \"#utility.yul\":2514:2535   */\n      swap1\n      pop\n        /* \"#utility.yul\":2470:2690   */\n      jump(tag_88)\n    tag_90:\n        /* \"#utility.yul\":2474:2495   */\n      pop\n        /* \"#utility.yul\":2088:2696   */\n      pop\n      pop\n        /* \"#utility.yul\":1986:2696   */\n      swap4\n      swap3\n      pop\n      pop\n      pop\n      jump\t// out\n        /* \"#utility.yul\":2719:3089   */\n    tag_55:\n        /* \"#utility.yul\":2790:2795   */\n      0x00\n        /* \"#utility.yul\":2839:2842   */\n      dup3\n        /* \"#utility.yul\":2832:2836   */\n      0x1f\n        /* \"#utility.yul\":2824:2830   */\n      dup4\n        /* \"#utility.yul\":2820:2837   */\n      add\n        /* \"#utility.yul\":2816:2843   */\n      slt\n        /* \"#utility.yul\":2806:2928   */\n      tag_93\n      jumpi\n        /* \"#utility.yul\":2847:2926   */\n      tag_94\n      tag_44\n      jump\t// in\n    tag_94:\n        /* \"#utility.yul\":2806:2928   */\n    tag_93:\n        /* \"#utility.yul\":2964:2970   */\n      dup2\n        /* \"#utility.yul\":2951:2971   */\n      calldataload\n        /* \"#utility.yul\":2989:3083   */\n      tag_95\n        /* \"#utility.yul\":3079:3082   */\n      dup5\n        /* \"#utility.yul\":3071:3077   */\n      dup3\n        /* \"#utility.yul\":3064:3068   */\n      0x20\n        /* \"#utility.yul\":3056:3062   */\n      dup7\n        /* \"#utility.yul\":3052:3069   */\n      add\n        /* \"#utility.yul\":2989:3083   */\n      tag_54\n      jump\t// in\n    tag_95:\n        /* \"#utility.yul\":2980:3083   */\n      swap2\n      pop\n        /* \"#utility.yul\":2796:3089   */\n      pop\n        /* \"#utility.yul\":2719:3089   */\n      swap3\n      swap2\n      pop\n      pop\n      jump\t// out\n        /* \"#utility.yul\":3095:3634   */\n    tag_6:\n        /* \"#utility.yul\":3179:3185   */\n      0x00\n        /* \"#utility.yul\":3228:3230   */\n      0x20\n        /* \"#utility.yul\":3216:3225   */\n      dup3\n        /* \"#utility.yul\":3207:3214   */\n      dup5\n        /* \"#utility.yul\":3203:3226   */\n      sub\n        /* \"#utility.yul\":3199:3231   */\n      slt\n        /* \"#utility.yul\":3196:3315   */\n      iszero\n      tag_97\n      jumpi\n        /* \"#utility.yul\":3234:3313   */\n      tag_98\n      tag_42\n      jump\t// in\n    tag_98:\n        /* \"#utility.yul\":3196:3315   */\n    tag_97:\n        /* \"#utility.yul\":3382:3383   */\n      0x00\n        /* \"#utility.yul\":3371:3380   */\n      dup3\n        /* \"#utility.yul\":3367:3384   */\n      add\n        /* \"#utility.yul\":3354:3385   */\n      calldataload\n        /* \"#utility.yul\":3412:3430   */\n      0xffffffffffffffff\n        /* \"#utility.yul\":3404:3410   */\n      dup2\n        /* \"#utility.yul\":3401:3431   */\n      gt\n        /* \"#utility.yul\":3398:3515   */\n      iszero\n      tag_99\n      jumpi\n        /* \"#utility.yul\":3434:3513   */\n      tag_100\n      tag_43\n      jump\t// in\n    tag_100:\n        /* \"#utility.yul\":3398:3515   */\n    tag_99:\n        /* \"#utility.yul\":3539:3617   */\n      tag_101\n        /* \"#utility.yul\":3609:3616   */\n      dup5\n        /* \"#utility.yul\":3600:3606   */\n      dup3\n        /* \"#utility.yul\":3589:3598   */\n      dup6\n        /* \"#utility.yul\":3585:3607   */\n      add\n        /* \"#utility.yul\":3539:3617   */\n      tag_55\n      jump\t// in\n    tag_101:\n        /* \"#utility.yul\":3529:3617   */\n      swap2\n      pop\n        /* \"#utility.yul\":3325:3627   */\n      pop\n        /* \"#utility.yul\":3095:3634   */\n      swap3\n      swap2\n      pop\n      pop\n      jump\t// out\n        /* \"#utility.yul\":3640:3758   */\n    tag_56:\n        /* \"#utility.yul\":3727:3751   */\n      tag_103\n        /* \"#utility.yul\":3745:3750   */\n      dup2\n        /* \"#utility.yul\":3727:3751   */\n      tag_51\n      jump\t// in\n    tag_103:\n        /* \"#utility.yul\":3722:3725   */\n      dup3\n        /* \"#utility.yul\":3715:3752   */\n      mstore\n        /* \"#utility.yul\":3640:3758   */\n      pop\n      pop\n      jump\t// out\n        /* \"#utility.yul\":3764:4317   */\n    tag_9:\n        /* \"#utility.yul\":3941:3945   */\n      0x00\n        /* \"#utility.yul\":3979:3982   */\n      0x80\n        /* \"#utility.yul\":3968:3977   */\n      dup3\n        /* \"#utility.yul\":3964:3983   */\n      add\n        /* \"#utility.yul\":3956:3983   */\n      swap1\n      pop\n        /* \"#utility.yul\":3993:4064   */\n      tag_105\n        /* \"#utility.yul\":4061:4062   */\n      0x00\n        /* \"#utility.yul\":4050:4059   */\n      dup4\n        /* \"#utility.yul\":4046:4063   */\n      add\n        /* \"#utility.yul\":4037:4043   */\n      dup8\n        /* \"#utility.yul\":3993:4064   */\n      tag_56\n      jump\t// in\n    tag_105:\n        /* \"#utility.yul\":4074:4146   */\n      tag_106\n        /* \"#utility.yul\":4142:4144   */\n      0x20\n        /* \"#utility.yul\":4131:4140   */\n      dup4\n        /* \"#utility.yul\":4127:4145   */\n      add\n        /* \"#utility.yul\":4118:4124   */\n      dup7\n        /* \"#utility.yul\":4074:4146   */\n      tag_56\n      jump\t// in\n    tag_106:\n        /* \"#utility.yul\":4156:4228   */\n      tag_107\n        /* \"#utility.yul\":4224:4226   */\n      0x40\n        /* \"#utility.yul\":4213:4222   */\n      dup4\n        /* \"#utility.yul\":4209:4227   */\n      add\n        /* \"#utility.yul\":4200:4206   */\n      dup6\n        /* \"#utility.yul\":4156:4228   */\n      tag_56\n      jump\t// in\n    tag_107:\n        /* \"#utility.yul\":4238:4310   */\n      tag_108\n        /* \"#utility.yul\":4306:4308   */\n      0x60\n        /* \"#utility.yul\":4295:4304   */\n      dup4\n        /* \"#utility.yul\":4291:4309   */\n      add\n        /* \"#utility.yul\":4282:4288   */\n      dup5\n        /* \"#utility.yul\":4238:4310   */\n      tag_56\n      jump\t// in\n    tag_108:\n        /* \"#utility.yul\":3764:4317   */\n      swap6\n      swap5\n      pop\n      pop\n      pop\n      pop\n      pop\n      jump\t// out\n        /* \"#utility.yul\":4323:4503   */\n    tag_14:\n        /* \"#utility.yul\":4371:4448   */\n      0x4e487b7100000000000000000000000000000000000000000000000000000000\n        /* \"#utility.yul\":4368:4369   */\n      0x00\n        /* \"#utility.yul\":4361:4449   */\n      mstore\n        /* \"#utility.yul\":4468:4472   */\n      0x32\n        /* \"#utility.yul\":4465:4466   */\n      0x04\n        /* \"#utility.yul\":4458:4473   */\n      mstore\n        /* \"#utility.yul\":4492:4496   */\n      0x24\n        /* \"#utility.yul\":4489:4490   */\n      0x00\n        /* \"#utility.yul\":4482:4497   */\n      revert\n        /* \"#utility.yul\":4509:4689   */\n    tag_57:\n        /* \"#utility.yul\":4557:4634   */\n      0x4e487b7100000000000000000000000000000000000000000000000000000000\n        /* \"#utility.yul\":4554:4555   */\n      0x00\n        /* \"#utility.yul\":4547:4635   */\n      mstore\n        /* \"#utility.yul\":4654:4658   */\n      0x11\n        /* \"#utility.yul\":4651:4652   */\n      0x04\n        /* \"#utility.yul\":4644:4659   */\n      mstore\n        /* \"#utility.yul\":4678:4682   */\n      0x24\n        /* \"#utility.yul\":4675:4676   */\n      0x00\n        /* \"#utility.yul\":4668:4683   */\n      revert\n        /* \"#utility.yul\":4695:4886   */\n    tag_23:\n        /* \"#utility.yul\":4735:4738   */\n      0x00\n        /* \"#utility.yul\":4754:4774   */\n      tag_112\n        /* \"#utility.yul\":4772:4773   */\n      dup3\n        /* \"#utility.yul\":4754:4774   */\n      tag_51\n      jump\t// in\n    tag_112:\n        /* \"#utility.yul\":4749:4774   */\n      swap2\n      pop\n        /* \"#utility.yul\":4788:4808   */\n      tag_113\n        /* \"#utility.yul\":4806:4807   */\n      dup4\n        /* \"#utility.yul\":4788:4808   */\n      tag_51\n      jump\t// in\n    tag_113:\n        /* \"#utility.yul\":4783:4808   */\n      swap3\n      pop\n        /* \"#utility.yul\":4831:4832   */\n      dup3\n        /* \"#utility.yul\":4828:4829   */\n      dup3\n        /* \"#utility.yul\":4824:4833   */\n      add\n        /* \"#utility.yul\":4817:4833   */\n      swap1\n      pop\n        /* \"#utility.yul\":4852:4855   */\n      dup1\n        /* \"#utility.yul\":4849:4850   */\n      dup3\n        /* \"#utility.yul\":4846:4856   */\n      gt\n        /* \"#utility.yul\":4843:4879   */\n      iszero\n      tag_114\n      jumpi\n        /* \"#utility.yul\":4859:4877   */\n      tag_115\n      tag_57\n      jump\t// in\n    tag_115:\n        /* \"#utility.yul\":4843:4879   */\n    tag_114:\n        /* \"#utility.yul\":4695:4886   */\n      swap3\n      swap2\n      pop\n      pop\n      jump\t// out\n        /* \"#utility.yul\":4892:5125   */\n    tag_38:\n        /* \"#utility.yul\":4931:4934   */\n      0x00\n        /* \"#utility.yul\":4954:4978   */\n      tag_117\n        /* \"#utility.yul\":4972:4977   */\n      dup3\n        /* \"#utility.yul\":4954:4978   */\n      tag_51\n      jump\t// in\n    tag_117:\n        /* \"#utility.yul\":4945:4978   */\n      swap2\n      pop\n        /* \"#utility.yul\":5000:5066   */\n      0xffffffffffffffffffffffffffffffffffffffffffffffffffffffffffffffff\n        /* \"#utility.yul\":4993:4998   */\n      dup3\n        /* \"#utility.yul\":4990:5067   */\n      sub\n        /* \"#utility.yul\":4987:5090   */\n      tag_118\n      jumpi\n        /* \"#utility.yul\":5070:5088   */\n      tag_119\n      tag_57\n      jump\t// in\n    tag_119:\n        /* \"#utility.yul\":4987:5090   */\n    tag_118:\n        /* \"#utility.yul\":5117:5118   */\n      0x01\n        /* \"#utility.yul\":5110:5115   */\n      dup3\n        /* \"#utility.yul\":5106:5119   */\n      add\n        /* \"#utility.yul\":5099:5119   */\n      swap1\n      pop\n        /* \"#utility.yul\":4892:5125   */\n      swap2\n      swap1\n      pop\n      jump\t// out\n        /* \"#utility.yul\":5131:5311   */\n    tag_58:\n        /* \"#utility.yul\":5179:5256   */\n      0x4e487b7100000000000000000000000000000000000000000000000000000000\n        /* \"#utility.yul\":5176:5177   */\n      0x00\n        /* \"#utility.yul\":5169:5257   */\n      mstore\n        /* \"#utility.yul\":5276:5280   */\n      0x12\n        /* \"#utility.yul\":5273:5274   */\n      0x04\n        /* \"#utility.yul\":5266:5281   */\n      mstore\n        /* \"#utility.yul\":5300:5304   */\n      0x24\n        /* \"#utility.yul\":5297:5298   */\n      0x00\n        /* \"#utility.yul\":5290:5305   */\n      revert\n        /* \"#utility.yul\":5317:5502   */\n    tag_40:\n        /* \"#utility.yul\":5357:5358   */\n      0x00\n        /* \"#utility.yul\":5374:5394   */\n      tag_122\n        /* \"#utility.yul\":5392:5393   */\n      dup3\n        /* \"#utility.yul\":5374:5394   */\n      tag_51\n      jump\t// in\n    tag_122:\n        /* \"#utility.yul\":5369:5394   */\n      swap2\n      pop\n        /* \"#utility.yul\":5408:5428   */\n      tag_123\n        /* \"#utility.yul\":5426:5427   */\n      dup4\n        /* \"#utility.yul\":5408:5428   */\n      tag_51\n      jump\t// in\n    tag_123:\n        /* \"#utility.yul\":5403:5428   */\n      swap3\n      pop\n        /* \"#utility.yul\":5447:5448   */\n      dup3\n        /* \"#utility.yul\":5437:5472   */\n      tag_124\n      jumpi\n        /* \"#utility.yul\":5452:5470   */\n      tag_125\n      tag_58\n      jump\t// in\n    tag_125:\n        /* \"#utility.yul\":5437:5472   */\n    tag_124:\n        /* \"#utility.yul\":5494:5495   */\n      dup3\n        /* \"#utility.yul\":5491:5492   */\n      dup3\n        /* \"#utility.yul\":5487:5496   */\n      div\n        /* \"#utility.yul\":5482:5496   */\n      swap1\n      pop\n        /* \"#utility.yul\":5317:5502   */\n      swap3\n      swap2\n      pop\n      pop\n      jump\t// out\n\n    auxdata: 0xa26469706673582212207de19bb1b95454f4085bdbaec241fa7ce7488835a5abf8edb04cfafaf05305bf64736f6c634300081e0033\n}\n",
				"bytecode": {
					"linkReferences": {},
					"object": "6080604052348015600e575f5ffd5b5061055f8061001c5f395ff3fe608060405234801561000f575f5ffd5b5060043610610029575f3560e01c8063463952c31461002d575b5f5ffd5b6100476004803603810190610042919061035f565b610060565b60405161005794939291906103b5565b60405180910390f35b5f5f5f5f5f85510361007d575f5f5f5f93509350935093506101c4565b5f5f9050855f81518110610094576100936103f8565b5b60200260200101519350855f815181106100b1576100b06103f8565b5b602002602001015192505f91505f5f90505b86518110156101b2578681815181106100df576100de6103f8565b5b6020026020010151826100f29190610452565b915084878281518110610108576101076103f8565b5b6020026020010151111561013457868181518110610129576101286103f8565b5b602002602001015194505b83878281518110610148576101476103f8565b5b6020026020010151101561017457868181518110610169576101686103f8565b5b602002602001015193505b603c878281518110610189576101886103f8565b5b6020026020010151106101a55782806101a190610485565b9350505b80806001019150506100c3565b508551816101c091906104f9565b9450505b9193509193565b5f604051905090565b5f5ffd5b5f5ffd5b5f5ffd5b5f601f19601f8301169050919050565b7f4e487b71000000000000000000000000000000000000000000000000000000005f52604160045260245ffd5b610226826101e0565b810181811067ffffffffffffffff82111715610245576102446101f0565b5b80604052505050565b5f6102576101cb565b9050610263828261021d565b919050565b5f67ffffffffffffffff821115610282576102816101f0565b5b602082029050602081019050919050565b5f5ffd5b5f819050919050565b6102a981610297565b81146102b3575f5ffd5b50565b5f813590506102c4816102a0565b92915050565b5f6102dc6102d784610268565b61024e565b905080838252602082019050602084028301858111156102ff576102fe610293565b5b835b81811015610328578061031488826102b6565b845260208401935050602081019050610301565b5050509392505050565b5f82601f830112610346576103456101dc565b5b81356103568482602086016102ca565b91505092915050565b5f60208284031215610374576103736101d4565b5b5f82013567ffffffffffffffff811115610391576103906101d8565b5b61039d84828501610332565b91505092915050565b6103af81610297565b82525050565b5f6080820190506103c85f8301876103a6565b6103d560208301866103a6565b6103e260408301856103a6565b6103ef60608301846103a6565b95945050505050565b7f4e487b71000000000000000000000000000000000000000000000000000000005f52603260045260245ffd5b7f4e487b71000000000000000000000000000000000000000000000000000000005f52601160045260245ffd5b5f61045c82610297565b915061046783610297565b925082820190508082111561047f5761047e610425565b5b92915050565b5f61048f82610297565b91507fffffffffffffffffffffffffffffffffffffffffffffffffffffffffffffffff82036104c1576104c0610425565b5b600182019050919050565b7f4e487b71000000000000000000000000000000000000000000000000000000005f52601260045260245ffd5b5f61050382610297565b915061050e83610297565b92508261051e5761051d6104cc565b5b82820490509291505056fea26469706673582212207de19bb1b95454f4085bdbaec241fa7ce7488835a5abf8edb04cfafaf05305bf64736f6c634300081e0033",
					"opcodes": "PUSH1 0x80 PUSH1 0x40 MSTORE CALLVALUE DUP1 ISZERO PUSH1 0xE JUMPI PUSH0 PUSH0 REVERT JUMPDEST POP PUSH2 0x55F DUP1 PUSH2 0x1C PUSH0 CODECOPY PUSH0 RETURN INVALID PUSH1 0x80 PUSH1 0x40 MSTORE CALLVALUE DUP1 ISZERO PUSH2 0xF JUMPI PUSH0 PUSH0 REVERT JUMPDEST POP PUSH1 0x4 CALLDATASIZE LT PUSH2 0x29 JUMPI PUSH0 CALLDATALOAD PUSH1 0xE0 SHR DUP1 PUSH4 0x463952C3 EQ PUSH2 0x2D JUMPI JUMPDEST PUSH0 PUSH0 REVERT JUMPDEST PUSH2 0x47 PUSH1 0x4 DUP1 CALLDATASIZE SUB DUP2 ADD SWAP1 PUSH2 0x42 SWAP2 SWAP1 PUSH2 0x35F JUMP JUMPDEST PUSH2 0x60 JUMP JUMPDEST PUSH1 0x40 MLOAD PUSH2 0x57 SWAP5 SWAP4 SWAP3 SWAP2 SWAP1 PUSH2 0x3B5 JUMP JUMPDEST PUSH1 0x40 MLOAD DUP1 SWAP2 SUB SWAP1 RETURN JUMPDEST PUSH0 PUSH0 PUSH0 PUSH0 PUSH0 DUP6 MLOAD SUB PUSH2 0x7D JUMPI PUSH0 PUSH0 PUSH0 PUSH0 SWAP4 POP SWAP4 POP SWAP4 POP SWAP4 POP PUSH2 0x1C4 JUMP JUMPDEST PUSH0 PUSH0 SWAP1 POP DUP6 PUSH0 DUP2 MLOAD DUP2 LT PUSH2 0x94 JUMPI PUSH2 0x93 PUSH2 0x3F8 JUMP JUMPDEST JUMPDEST PUSH1 0x20 MUL PUSH1 0x20 ADD ADD MLOAD SWAP4 POP DUP6 PUSH0 DUP2 MLOAD DUP2 LT PUSH2 0xB1 JUMPI PUSH2 0xB0 PUSH2 0x3F8 JUMP JUMPDEST JUMPDEST PUSH1 0x20 MUL PUSH1 0x20 ADD ADD MLOAD SWAP3 POP PUSH0 SWAP2 POP PUSH0 PUSH0 SWAP1 POP JUMPDEST DUP7 MLOAD DUP2 LT ISZERO PUSH2 0x1B2 JUMPI DUP7 DUP2 DUP2 MLOAD DUP2 LT PUSH2 0xDF JUMPI PUSH2 0xDE PUSH2 0x3F8 JUMP JUMPDEST JUMPDEST PUSH1 0x20 MUL PUSH1 0x20 ADD ADD MLOAD DUP3 PUSH2 0xF2 SWAP2 SWAP1 PUSH2 0x452 JUMP JUMPDEST SWAP2 POP DUP5 DUP8 DUP3 DUP2 MLOAD DUP2 LT PUSH2 0x108 JUMPI PUSH2 0x107 PUSH2 0x3F8 JUMP JUMPDEST JUMPDEST PUSH1 0x20 MUL PUSH1 0x20 ADD ADD MLOAD GT ISZERO PUSH2 0x134 JUMPI DUP7 DUP2 DUP2 MLOAD DUP2 LT PUSH2 0x129 JUMPI PUSH2 0x128 PUSH2 0x3F8 JUMP JUMPDEST JUMPDEST PUSH1 0x20 MUL PUSH1 0x20 ADD ADD MLOAD SWAP5 POP JUMPDEST DUP4 DUP8 DUP3 DUP2 MLOAD DUP2 LT PUSH2 0x148 JUMPI PUSH2 0x147 PUSH2 0x3F8 JUMP JUMPDEST JUMPDEST PUSH1 0x20 MUL PUSH1 0x20 ADD ADD MLOAD LT ISZERO PUSH2 0x174 JUMPI DUP7 DUP2 DUP2 MLOAD DUP2 LT PUSH2 0x169 JUMPI PUSH2 0x168 PUSH2 0x3F8 JUMP JUMPDEST JUMPDEST PUSH1 0x20 MUL PUSH1 0x20 ADD ADD MLOAD SWAP4 POP JUMPDEST PUSH1 0x3C DUP8 DUP3 DUP2 MLOAD DUP2 LT PUSH2 0x189 JUMPI PUSH2 0x188 PUSH2 0x3F8 JUMP JUMPDEST JUMPDEST PUSH1 0x20 MUL PUSH1 0x20 ADD ADD MLOAD LT PUSH2 0x1A5 JUMPI DUP3 DUP1 PUSH2 0x1A1 SWAP1 PUSH2 0x485 JUMP JUMPDEST SWAP4 POP POP JUMPDEST DUP1 DUP1 PUSH1 0x1 ADD SWAP2 POP POP PUSH2 0xC3 JUMP JUMPDEST POP DUP6 MLOAD DUP2 PUSH2 0x1C0 SWAP2 SWAP1 PUSH2 0x4F9 JUMP JUMPDEST SWAP5 POP POP JUMPDEST SWAP2 SWAP4 POP SWAP2 SWAP4 JUMP JUMPDEST PUSH0 PUSH1 0x40 MLOAD SWAP1 POP SWAP1 JUMP JUMPDEST PUSH0 PUSH0 REVERT JUMPDEST PUSH0 PUSH0 REVERT JUMPDEST PUSH0 PUSH0 REVERT JUMPDEST PUSH0 PUSH1 0x1F NOT PUSH1 0x1F DUP4 ADD AND SWAP1 POP SWAP2 SWAP1 POP JUMP JUMPDEST PUSH32 0x4E487B7100000000000000000000000000000000000000000000000000000000 PUSH0 MSTORE PUSH1 0x41 PUSH1 0x4 MSTORE PUSH1 0x24 PUSH0 REVERT JUMPDEST PUSH2 0x226 DUP3 PUSH2 0x1E0 JUMP JUMPDEST DUP2 ADD DUP2 DUP2 LT PUSH8 0xFFFFFFFFFFFFFFFF DUP3 GT OR ISZERO PUSH2 0x245 JUMPI PUSH2 0x244 PUSH2 0x1F0 JUMP JUMPDEST JUMPDEST DUP1 PUSH1 0x40 MSTORE POP POP POP JUMP JUMPDEST PUSH0 PUSH2 0x257 PUSH2 0x1CB JUMP JUMPDEST SWAP1 POP PUSH2 0x263 DUP3 DUP3 PUSH2 0x21D JUMP JUMPDEST SWAP2 SWAP1 POP JUMP JUMPDEST PUSH0 PUSH8 0xFFFFFFFFFFFFFFFF DUP3 GT ISZERO PUSH2 0x282 JUMPI PUSH2 0x281 PUSH2 0x1F0 JUMP JUMPDEST JUMPDEST PUSH1 0x20 DUP3 MUL SWAP1 POP PUSH1 0x20 DUP2 ADD SWAP1 POP SWAP2 SWAP1 POP JUMP JUMPDEST PUSH0 PUSH0 REVERT JUMPDEST PUSH0 DUP2 SWAP1 POP SWAP2 SWAP1 POP JUMP JUMPDEST PUSH2 0x2A9 DUP2 PUSH2 0x297 JUMP JUMPDEST DUP2 EQ PUSH2 0x2B3 JUMPI PUSH0 PUSH0 REVERT JUMPDEST POP JUMP JUMPDEST PUSH0 DUP2 CALLDATALOAD SWAP1 POP PUSH2 0x2C4 DUP2 PUSH2 0x2A0 JUMP JUMPDEST SWAP3 SWAP2 POP POP JUMP JUMPDEST PUSH0 PUSH2 0x2DC PUSH2 0x2D7 DUP5 PUSH2 0x268 JUMP JUMPDEST PUSH2 0x24E JUMP JUMPDEST SWAP1 POP DUP1 DUP4 DUP3 MSTORE PUSH1 0x20 DUP3 ADD SWAP1 POP PUSH1 0x20 DUP5 MUL DUP4 ADD DUP6 DUP2 GT ISZERO PUSH2 0x2FF JUMPI PUSH2 0x2FE PUSH2 0x293 JUMP JUMPDEST JUMPDEST DUP4 JUMPDEST DUP2 DUP2 LT ISZERO PUSH2 0x328 JUMPI DUP1 PUSH2 0x314 DUP9 DUP3 PUSH2 0x2B6 JUMP JUMPDEST DUP5 MSTORE PUSH1 0x20 DUP5 ADD SWAP4 POP POP PUSH1 0x20 DUP2 ADD SWAP1 POP PUSH2 0x301 JUMP JUMPDEST POP POP POP SWAP4 SWAP3 POP POP POP JUMP JUMPDEST PUSH0 DUP3 PUSH1 0x1F DUP4 ADD SLT PUSH2 0x346 JUMPI PUSH2 0x345 PUSH2 0x1DC JUMP JUMPDEST JUMPDEST DUP2 CALLDATALOAD PUSH2 0x356 DUP5 DUP3 PUSH1 0x20 DUP7 ADD PUSH2 0x2CA JUMP JUMPDEST SWAP2 POP POP SWAP3 SWAP2 POP POP JUMP JUMPDEST PUSH0 PUSH1 0x20 DUP3 DUP5 SUB SLT ISZERO PUSH2 0x374 JUMPI PUSH2 0x373 PUSH2 0x1D4 JUMP JUMPDEST JUMPDEST PUSH0 DUP3 ADD CALLDATALOAD PUSH8 0xFFFFFFFFFFFFFFFF DUP2 GT ISZERO PUSH2 0x391 JUMPI PUSH2 0x390 PUSH2 0x1D8 JUMP JUMPDEST JUMPDEST PUSH2 0x39D DUP5 DUP3 DUP6 ADD PUSH2 0x332 JUMP JUMPDEST SWAP2 POP POP SWAP3 SWAP2 POP POP JUMP JUMPDEST PUSH2 0x3AF DUP2 PUSH2 0x297 JUMP JUMPDEST DUP3 MSTORE POP POP JUMP JUMPDEST PUSH0 PUSH1 0x80 DUP3 ADD SWAP1 POP PUSH2 0x3C8 PUSH0 DUP4 ADD DUP8 PUSH2 0x3A6 JUMP JUMPDEST PUSH2 0x3D5 PUSH1 0x20 DUP4 ADD DUP7 PUSH2 0x3A6 JUMP JUMPDEST PUSH2 0x3E2 PUSH1 0x40 DUP4 ADD DUP6 PUSH2 0x3A6 JUMP JUMPDEST PUSH2 0x3EF PUSH1 0x60 DUP4 ADD DUP5 PUSH2 0x3A6 JUMP JUMPDEST SWAP6 SWAP5 POP POP POP POP POP JUMP JUMPDEST PUSH32 0x4E487B7100000000000000000000000000000000000000000000000000000000 PUSH0 MSTORE PUSH1 0x32 PUSH1 0x4 MSTORE PUSH1 0x24 PUSH0 REVERT JUMPDEST PUSH32 0x4E487B7100000000000000000000000000000000000000000000000000000000 PUSH0 MSTORE PUSH1 0x11 PUSH1 0x4 MSTORE PUSH1 0x24 PUSH0 REVERT JUMPDEST PUSH0 PUSH2 0x45C DUP3 PUSH2 0x297 JUMP JUMPDEST SWAP2 POP PUSH2 0x467 DUP4 PUSH2 0x297 JUMP JUMPDEST SWAP3 POP DUP3 DUP3 ADD SWAP1 POP DUP1 DUP3 GT ISZERO PUSH2 0x47F JUMPI PUSH2 0x47E PUSH2 0x425 JUMP JUMPDEST JUMPDEST SWAP3 SWAP2 POP POP JUMP JUMPDEST PUSH0 PUSH2 0x48F DUP3 PUSH2 0x297 JUMP JUMPDEST SWAP2 POP PUSH32 0xFFFFFFFFFFFFFFFFFFFFFFFFFFFFFFFFFFFFFFFFFFFFFFFFFFFFFFFFFFFFFFFF DUP3 SUB PUSH2 0x4C1 JUMPI PUSH2 0x4C0 PUSH2 0x425 JUMP JUMPDEST JUMPDEST PUSH1 0x1 DUP3 ADD SWAP1 POP SWAP2 SWAP1 POP JUMP JUMPDEST PUSH32 0x4E487B7100000000000000000000000000000000000000000000000000000000 PUSH0 MSTORE PUSH1 0x12 PUSH1 0x4 MSTORE PUSH1 0x24 PUSH0 REVERT JUMPDEST PUSH0 PUSH2 0x503 DUP3 PUSH2 0x297 JUMP JUMPDEST SWAP2 POP PUSH2 0x50E DUP4 PUSH2 0x297 JUMP JUMPDEST SWAP3 POP DUP3 PUSH2 0x51E JUMPI PUSH2 0x51D PUSH2 0x4CC JUMP JUMPDEST JUMPDEST DUP3 DUP3 DIV SWAP1 POP SWAP3 SWAP2 POP POP JUMP INVALID LOG2 PUSH5 0x6970667358 0x22 SLT KECCAK256 PUSH30 0xE19BB1B95454F4085BDBAEC241FA7CE7488835A5ABF8EDB04CFAFAF05305 0xBF PUSH5 0x736F6C6343 STOP ADDMOD 0x1E STOP CALLER "
				},
				"gasEstimates": {
					"creation": {
						"codeDepositCost": "275000",
						"executionCost": "310",
						"totalCost": "275310"
					},
					"external": {
						"processGrades(uint256[])": "infinite"
					}
				},
				"methodIdentifiers": {
					"processGrades(uint256[])": "463952c3"
				}
			},
			"storageLayout": {
				"storage": [],
				"types": null
			},
			"userdoc": {
				"kind": "user",
				"methods": {},
				"version": 1
			}
		}
	}
}