{
	"chapter05/sample5-03.sol": {
		"Animal": {
			"abi": [
				{
					"inputs": [],
					"name": "buy",
					"outputs": [],
					"stateMutability": "nonpayable",
					"type": "function"
				},
				{
					"inputs": [],
					"name": "getName",
					"outputs": [
						{
							"internalType": "string",
							"name": "",
							"type": "string"
						}
					],
					"stateMutability": "view",
					"type": "function"
				},
				{
					"inputs": [],
					"name": "getOwner",
					"outputs": [
						{
							"internalType": "address",
							"name": "",
							"type": "address"
						}
					],
					"stateMutability": "view",
					"type": "function"
				},
				{
					"inputs": [],
					"name": "getPrice",
					"outputs": [
						{
							"internalType": "uint256",
							"name": "",
							"type": "uint256"
						}
					],
					"stateMutability": "view",
					"type": "function"
				},
				{
					"inputs": [],
					"name": "name",
					"outputs": [
						{
							"internalType": "string",
							"name": "",
							"type": "string"
						}
					],
					"stateMutability": "view",
					"type": "function"
				},
				{
					"inputs": [],
					"name": "price",
					"outputs": [
						{
							"internalType": "uint256",
							"name": "",
							"type": "uint256"
						}
					],
					"stateMutability": "view",
					"type": "function"
				},
				{
					"inputs": [
						{
							"internalType": "string",
							"name": "_name",
							"type": "string"
						}
					],
					"name": "setName",
					"outputs": [],
					"stateMutability": "nonpayable",
					"type": "function"
				},
				{
					"inputs": [
						{
							"internalType": "uint256",
							"name": "_price",
							"type": "uint256"
						}
					],
					"name": "setPrice",
					"outputs": [],
					"stateMutability": "nonpayable",
					"type": "function"
				}
			],
			"devdoc": {
				"kind": "dev",
				"methods": {},
				"version": 1
			},
			"evm": {
				"assembly": "    /* \"chapter05/sample5-03.sol\":58:649  contract Animal {... */\n  mstore(0x40, 0x80)\n  callvalue\n  dup1\n  iszero\n  tag_1\n  jumpi\n  0x00\n  dup1\n  revert\ntag_1:\n  pop\n  dataSize(sub_0)\n  dup1\n  dataOffset(sub_0)\n  0x00\n  codecopy\n  0x00\n  return\nstop\n\nsub_0: assembly {\n        /* \"chapter05/sample5-03.sol\":58:649  contract Animal {... */\n      mstore(0x40, 0x80)\n      callvalue\n      dup1\n      iszero\n      tag_1\n      jumpi\n      0x00\n      dup1\n      revert\n    tag_1:\n      pop\n      jumpi(tag_2, lt(calldatasize, 0x04))\n      shr(0xe0, calldataload(0x00))\n      dup1\n      0x98d5fdca\n      gt\n      tag_11\n      jumpi\n      dup1\n      0x98d5fdca\n      eq\n      tag_7\n      jumpi\n      dup1\n      0xa035b1fe\n      eq\n      tag_8\n      jumpi\n      dup1\n      0xa6f2ae3a\n      eq\n      tag_9\n      jumpi\n      dup1\n      0xc47f0027\n      eq\n      tag_10\n      jumpi\n      jump(tag_2)\n    tag_11:\n      dup1\n      0x06fdde03\n      eq\n      tag_3\n      jumpi\n      dup1\n      0x17d7de7c\n      eq\n      tag_4\n      jumpi\n      dup1\n      0x893d20e8\n      eq\n      tag_5\n      jumpi\n      dup1\n      0x91b7f5ed\n      eq\n      tag_6\n      jumpi\n    tag_2:\n      0x00\n      dup1\n      revert\n        /* \"chapter05/sample5-03.sol\":80:98  string public name */\n    tag_3:\n      tag_12\n      tag_13\n      jump\t// in\n    tag_12:\n      mload(0x40)\n      tag_14\n      swap2\n      swap1\n      tag_15\n      jump\t// in\n    tag_14:\n      mload(0x40)\n      dup1\n      swap2\n      sub\n      swap1\n      return\n        /* \"chapter05/sample5-03.sol\":259:342  function getName() public view returns (string memory) {... */\n    tag_4:\n      tag_16\n      tag_17\n      jump\t// in\n    tag_16:\n      mload(0x40)\n      tag_18\n      swap2\n      swap1\n      tag_15\n      jump\t// in\n    tag_18:\n      mload(0x40)\n      dup1\n      swap2\n      sub\n      swap1\n      return\n        /* \"chapter05/sample5-03.sol\":568:647  function getOwner() public view returns (address) {... */\n    tag_5:\n      tag_19\n      tag_20\n      jump\t// in\n    tag_19:\n      mload(0x40)\n      tag_21\n      swap2\n      swap1\n      tag_22\n      jump\t// in\n    tag_21:\n      mload(0x40)\n      dup1\n      swap2\n      sub\n      swap1\n      return\n        /* \"chapter05/sample5-03.sol\":348:417  function setPrice(uint _price) public {... */\n    tag_6:\n      tag_23\n      0x04\n      dup1\n      calldatasize\n      sub\n      dup2\n      add\n      swap1\n      tag_24\n      swap2\n      swap1\n      tag_25\n      jump\t// in\n    tag_24:\n      tag_26\n      jump\t// in\n    tag_23:\n      stop\n        /* \"chapter05/sample5-03.sol\":423:499  function getPrice() public view returns (uint) {... */\n    tag_7:\n      tag_27\n      tag_28\n      jump\t// in\n    tag_27:\n      mload(0x40)\n      tag_29\n      swap2\n      swap1\n      tag_30\n      jump\t// in\n    tag_29:\n      mload(0x40)\n      dup1\n      swap2\n      sub\n      swap1\n      return\n        /* \"chapter05/sample5-03.sol\":104:121  uint public price */\n    tag_8:\n      tag_31\n      tag_32\n      jump\t// in\n    tag_31:\n      mload(0x40)\n      tag_33\n      swap2\n      swap1\n      tag_30\n      jump\t// in\n    tag_33:\n      mload(0x40)\n      dup1\n      swap2\n      sub\n      swap1\n      return\n        /* \"chapter05/sample5-03.sol\":505:562  function buy() public {... */\n    tag_9:\n      tag_34\n      tag_35\n      jump\t// in\n    tag_34:\n      stop\n        /* \"chapter05/sample5-03.sol\":179:253  function setName(string memory _name) public {... */\n    tag_10:\n      tag_36\n      0x04\n      dup1\n      calldatasize\n      sub\n      dup2\n      add\n      swap1\n      tag_37\n      swap2\n      swap1\n      tag_38\n      jump\t// in\n    tag_37:\n      tag_39\n      jump\t// in\n    tag_36:\n      stop\n        /* \"chapter05/sample5-03.sol\":80:98  string public name */\n    tag_13:\n      0x00\n      dup1\n      sload\n      tag_40\n      swap1\n      tag_41\n      jump\t// in\n    tag_40:\n      dup1\n      0x1f\n      add\n      0x20\n      dup1\n      swap2\n      div\n      mul\n      0x20\n      add\n      mload(0x40)\n      swap1\n      dup2\n      add\n      0x40\n      mstore\n      dup1\n      swap3\n      swap2\n      swap1\n      dup2\n      dup2\n      mstore\n      0x20\n      add\n      dup3\n      dup1\n      sload\n      tag_42\n      swap1\n      tag_41\n      jump\t// in\n    tag_42:\n      dup1\n      iszero\n      tag_43\n      jumpi\n      dup1\n      0x1f\n      lt\n      tag_44\n      jumpi\n      0x0100\n      dup1\n      dup4\n      sload\n      div\n      mul\n      dup4\n      mstore\n      swap2\n      0x20\n      add\n      swap2\n      jump(tag_43)\n    tag_44:\n      dup3\n      add\n      swap2\n      swap1\n      0x00\n      mstore\n      keccak256(0x00, 0x20)\n      swap1\n    tag_45:\n      dup2\n      sload\n      dup2\n      mstore\n      swap1\n      0x01\n      add\n      swap1\n      0x20\n      add\n      dup1\n      dup4\n      gt\n      tag_45\n      jumpi\n      dup3\n      swap1\n      sub\n      0x1f\n      and\n      dup3\n      add\n      swap2\n    tag_43:\n      pop\n      pop\n      pop\n      pop\n      pop\n      dup2\n      jump\t// out\n        /* \"chapter05/sample5-03.sol\":259:342  function getName() public view returns (string memory) {... */\n    tag_17:\n        /* \"chapter05/sample5-03.sol\":299:312  string memory */\n      0x60\n        /* \"chapter05/sample5-03.sol\":331:335  name */\n      0x00\n        /* \"chapter05/sample5-03.sol\":324:335  return name */\n      dup1\n      sload\n      tag_47\n      swap1\n      tag_41\n      jump\t// in\n    tag_47:\n      dup1\n      0x1f\n      add\n      0x20\n      dup1\n      swap2\n      div\n      mul\n      0x20\n      add\n      mload(0x40)\n      swap1\n      dup2\n      add\n      0x40\n      mstore\n      dup1\n      swap3\n      swap2\n      swap1\n      dup2\n      dup2\n      mstore\n      0x20\n      add\n      dup3\n      dup1\n      sload\n      tag_48\n      swap1\n      tag_41\n      jump\t// in\n    tag_48:\n      dup1\n      iszero\n      tag_49\n      jumpi\n      dup1\n      0x1f\n      lt\n      tag_50\n      jumpi\n      0x0100\n      dup1\n      dup4\n      sload\n      div\n      mul\n      dup4\n      mstore\n      swap2\n      0x20\n      add\n      swap2\n      jump(tag_49)\n    tag_50:\n      dup3\n      add\n      swap2\n      swap1\n      0x00\n      mstore\n      keccak256(0x00, 0x20)\n      swap1\n    tag_51:\n      dup2\n      sload\n      dup2\n      mstore\n      swap1\n      0x01\n      add\n      swap1\n      0x20\n      add\n      dup1\n      dup4\n      gt\n      tag_51\n      jumpi\n      dup3\n      swap1\n      sub\n      0x1f\n      and\n      dup3\n      add\n      swap2\n    tag_49:\n      pop\n      pop\n      pop\n      pop\n      pop\n      swap1\n      pop\n        /* \"chapter05/sample5-03.sol\":259:342  function getName() public view returns (string memory) {... */\n      swap1\n      jump\t// out\n        /* \"chapter05/sample5-03.sol\":568:647  function getOwner() public view returns (address) {... */\n    tag_20:\n        /* \"chapter05/sample5-03.sol\":609:616  address */\n      0x00\n        /* \"chapter05/sample5-03.sol\":635:640  owner */\n      0x03\n      0x00\n      swap1\n      sload\n      swap1\n      0x0100\n      exp\n      swap1\n      div\n      0xffffffffffffffffffffffffffffffffffffffff\n      and\n        /* \"chapter05/sample5-03.sol\":628:640  return owner */\n      swap1\n      pop\n        /* \"chapter05/sample5-03.sol\":568:647  function getOwner() public view returns (address) {... */\n      swap1\n      jump\t// out\n        /* \"chapter05/sample5-03.sol\":348:417  function setPrice(uint _price) public {... */\n    tag_26:\n        /* \"chapter05/sample5-03.sol\":404:410  _price */\n      dup1\n        /* \"chapter05/sample5-03.sol\":396:401  price */\n      0x01\n        /* \"chapter05/sample5-03.sol\":396:410  price = _price */\n      dup2\n      swap1\n      sstore\n      pop\n        /* \"chapter05/sample5-03.sol\":348:417  function setPrice(uint _price) public {... */\n      pop\n      jump\t// out\n        /* \"chapter05/sample5-03.sol\":423:499  function getPrice() public view returns (uint) {... */\n    tag_28:\n        /* \"chapter05/sample5-03.sol\":464:468  uint */\n      0x00\n        /* \"chapter05/sample5-03.sol\":487:492  price */\n      sload(0x01)\n        /* \"chapter05/sample5-03.sol\":480:492  return price */\n      swap1\n      pop\n        /* \"chapter05/sample5-03.sol\":423:499  function getPrice() public view returns (uint) {... */\n      swap1\n      jump\t// out\n        /* \"chapter05/sample5-03.sol\":104:121  uint public price */\n    tag_32:\n      sload(0x01)\n      dup2\n      jump\t// out\n        /* \"chapter05/sample5-03.sol\":505:562  function buy() public {... */\n    tag_35:\n        /* \"chapter05/sample5-03.sol\":545:555  msg.sender */\n      caller\n        /* \"chapter05/sample5-03.sol\":537:542  owner */\n      0x03\n      0x00\n        /* \"chapter05/sample5-03.sol\":537:555  owner = msg.sender */\n      0x0100\n      exp\n      dup2\n      sload\n      dup2\n      0xffffffffffffffffffffffffffffffffffffffff\n      mul\n      not\n      and\n      swap1\n      dup4\n      0xffffffffffffffffffffffffffffffffffffffff\n      and\n      mul\n      or\n      swap1\n      sstore\n      pop\n        /* \"chapter05/sample5-03.sol\":505:562  function buy() public {... */\n      jump\t// out\n        /* \"chapter05/sample5-03.sol\":179:253  function setName(string memory _name) public {... */\n    tag_39:\n        /* \"chapter05/sample5-03.sol\":241:246  _name */\n      dup1\n        /* \"chapter05/sample5-03.sol\":234:238  name */\n      0x00\n        /* \"chapter05/sample5-03.sol\":234:246  name = _name */\n      swap1\n      dup2\n      tag_57\n      swap2\n      swap1\n      tag_58\n      jump\t// in\n    tag_57:\n      pop\n        /* \"chapter05/sample5-03.sol\":179:253  function setName(string memory _name) public {... */\n      pop\n      jump\t// out\n        /* \"#utility.yul\":7:106   */\n    tag_59:\n        /* \"#utility.yul\":59:65   */\n      0x00\n        /* \"#utility.yul\":93:98   */\n      dup2\n        /* \"#utility.yul\":87:99   */\n      mload\n        /* \"#utility.yul\":77:99   */\n      swap1\n      pop\n        /* \"#utility.yul\":7:106   */\n      swap2\n      swap1\n      pop\n      jump\t// out\n        /* \"#utility.yul\":112:281   */\n    tag_60:\n        /* \"#utility.yul\":196:207   */\n      0x00\n        /* \"#utility.yul\":230:236   */\n      dup3\n        /* \"#utility.yul\":225:228   */\n      dup3\n        /* \"#utility.yul\":218:237   */\n      mstore\n        /* \"#utility.yul\":270:274   */\n      0x20\n        /* \"#utility.yul\":265:268   */\n      dup3\n        /* \"#utility.yul\":261:275   */\n      add\n        /* \"#utility.yul\":246:275   */\n      swap1\n      pop\n        /* \"#utility.yul\":112:281   */\n      swap3\n      swap2\n      pop\n      pop\n      jump\t// out\n        /* \"#utility.yul\":287:533   */\n    tag_61:\n        /* \"#utility.yul\":368:369   */\n      0x00\n        /* \"#utility.yul\":378:491   */\n    tag_103:\n        /* \"#utility.yul\":392:398   */\n      dup4\n        /* \"#utility.yul\":389:390   */\n      dup2\n        /* \"#utility.yul\":386:399   */\n      lt\n        /* \"#utility.yul\":378:491   */\n      iszero\n      tag_105\n      jumpi\n        /* \"#utility.yul\":477:478   */\n      dup1\n        /* \"#utility.yul\":472:475   */\n      dup3\n        /* \"#utility.yul\":468:479   */\n      add\n        /* \"#utility.yul\":462:480   */\n      mload\n        /* \"#utility.yul\":458:459   */\n      dup2\n        /* \"#utility.yul\":453:456   */\n      dup5\n        /* \"#utility.yul\":449:460   */\n      add\n        /* \"#utility.yul\":442:481   */\n      mstore\n        /* \"#utility.yul\":414:416   */\n      0x20\n        /* \"#utility.yul\":411:412   */\n      dup2\n        /* \"#utility.yul\":407:417   */\n      add\n        /* \"#utility.yul\":402:417   */\n      swap1\n      pop\n        /* \"#utility.yul\":378:491   */\n      jump(tag_103)\n    tag_105:\n        /* \"#utility.yul\":525:526   */\n      0x00\n        /* \"#utility.yul\":516:522   */\n      dup5\n        /* \"#utility.yul\":511:514   */\n      dup5\n        /* \"#utility.yul\":507:523   */\n      add\n        /* \"#utility.yul\":500:527   */\n      mstore\n        /* \"#utility.yul\":349:533   */\n      pop\n        /* \"#utility.yul\":287:533   */\n      pop\n      pop\n      pop\n      jump\t// out\n        /* \"#utility.yul\":539:641   */\n    tag_62:\n        /* \"#utility.yul\":580:586   */\n      0x00\n        /* \"#utility.yul\":631:633   */\n      0x1f\n        /* \"#utility.yul\":627:634   */\n      not\n        /* \"#utility.yul\":622:624   */\n      0x1f\n        /* \"#utility.yul\":615:620   */\n      dup4\n        /* \"#utility.yul\":611:625   */\n      add\n        /* \"#utility.yul\":607:635   */\n      and\n        /* \"#utility.yul\":597:635   */\n      swap1\n      pop\n        /* \"#utility.yul\":539:641   */\n      swap2\n      swap1\n      pop\n      jump\t// out\n        /* \"#utility.yul\":647:1024   */\n    tag_63:\n        /* \"#utility.yul\":735:738   */\n      0x00\n        /* \"#utility.yul\":763:802   */\n      tag_108\n        /* \"#utility.yul\":796:801   */\n      dup3\n        /* \"#utility.yul\":763:802   */\n      tag_59\n      jump\t// in\n    tag_108:\n        /* \"#utility.yul\":818:889   */\n      tag_109\n        /* \"#utility.yul\":882:888   */\n      dup2\n        /* \"#utility.yul\":877:880   */\n      dup6\n        /* \"#utility.yul\":818:889   */\n      tag_60\n      jump\t// in\n    tag_109:\n        /* \"#utility.yul\":811:889   */\n      swap4\n      pop\n        /* \"#utility.yul\":898:963   */\n      tag_110\n        /* \"#utility.yul\":956:962   */\n      dup2\n        /* \"#utility.yul\":951:954   */\n      dup6\n        /* \"#utility.yul\":944:948   */\n      0x20\n        /* \"#utility.yul\":937:942   */\n      dup7\n        /* \"#utility.yul\":933:949   */\n      add\n        /* \"#utility.yul\":898:963   */\n      tag_61\n      jump\t// in\n    tag_110:\n        /* \"#utility.yul\":988:1017   */\n      tag_111\n        /* \"#utility.yul\":1010:1016   */\n      dup2\n        /* \"#utility.yul\":988:1017   */\n      tag_62\n      jump\t// in\n    tag_111:\n        /* \"#utility.yul\":983:986   */\n      dup5\n        /* \"#utility.yul\":979:1018   */\n      add\n        /* \"#utility.yul\":972:1018   */\n      swap2\n      pop\n        /* \"#utility.yul\":739:1024   */\n      pop\n        /* \"#utility.yul\":647:1024   */\n      swap3\n      swap2\n      pop\n      pop\n      jump\t// out\n        /* \"#utility.yul\":1030:1343   */\n    tag_15:\n        /* \"#utility.yul\":1143:1147   */\n      0x00\n        /* \"#utility.yul\":1181:1183   */\n      0x20\n        /* \"#utility.yul\":1170:1179   */\n      dup3\n        /* \"#utility.yul\":1166:1184   */\n      add\n        /* \"#utility.yul\":1158:1184   */\n      swap1\n      pop\n        /* \"#utility.yul\":1230:1239   */\n      dup2\n        /* \"#utility.yul\":1224:1228   */\n      dup2\n        /* \"#utility.yul\":1220:1240   */\n      sub\n        /* \"#utility.yul\":1216:1217   */\n      0x00\n        /* \"#utility.yul\":1205:1214   */\n      dup4\n        /* \"#utility.yul\":1201:1218   */\n      add\n        /* \"#utility.yul\":1194:1241   */\n      mstore\n        /* \"#utility.yul\":1258:1336   */\n      tag_113\n        /* \"#utility.yul\":1331:1335   */\n      dup2\n        /* \"#utility.yul\":1322:1328   */\n      dup5\n        /* \"#utility.yul\":1258:1336   */\n      tag_63\n      jump\t// in\n    tag_113:\n        /* \"#utility.yul\":1250:1336   */\n      swap1\n      pop\n        /* \"#utility.yul\":1030:1343   */\n      swap3\n      swap2\n      pop\n      pop\n      jump\t// out\n        /* \"#utility.yul\":1349:1475   */\n    tag_64:\n        /* \"#utility.yul\":1386:1393   */\n      0x00\n        /* \"#utility.yul\":1426:1468   */\n      0xffffffffffffffffffffffffffffffffffffffff\n        /* \"#utility.yul\":1419:1424   */\n      dup3\n        /* \"#utility.yul\":1415:1469   */\n      and\n        /* \"#utility.yul\":1404:1469   */\n      swap1\n      pop\n        /* \"#utility.yul\":1349:1475   */\n      swap2\n      swap1\n      pop\n      jump\t// out\n        /* \"#utility.yul\":1481:1577   */\n    tag_65:\n        /* \"#utility.yul\":1518:1525   */\n      0x00\n        /* \"#utility.yul\":1547:1571   */\n      tag_116\n        /* \"#utility.yul\":1565:1570   */\n      dup3\n        /* \"#utility.yul\":1547:1571   */\n      tag_64\n      jump\t// in\n    tag_116:\n        /* \"#utility.yul\":1536:1571   */\n      swap1\n      pop\n        /* \"#utility.yul\":1481:1577   */\n      swap2\n      swap1\n      pop\n      jump\t// out\n        /* \"#utility.yul\":1583:1701   */\n    tag_66:\n        /* \"#utility.yul\":1670:1694   */\n      tag_118\n        /* \"#utility.yul\":1688:1693   */\n      dup2\n        /* \"#utility.yul\":1670:1694   */\n      tag_65\n      jump\t// in\n    tag_118:\n        /* \"#utility.yul\":1665:1668   */\n      dup3\n        /* \"#utility.yul\":1658:1695   */\n      mstore\n        /* \"#utility.yul\":1583:1701   */\n      pop\n      pop\n      jump\t// out\n        /* \"#utility.yul\":1707:1929   */\n    tag_22:\n        /* \"#utility.yul\":1800:1804   */\n      0x00\n        /* \"#utility.yul\":1838:1840   */\n      0x20\n        /* \"#utility.yul\":1827:1836   */\n      dup3\n        /* \"#utility.yul\":1823:1841   */\n      add\n        /* \"#utility.yul\":1815:1841   */\n      swap1\n      pop\n        /* \"#utility.yul\":1851:1922   */\n      tag_120\n        /* \"#utility.yul\":1919:1920   */\n      0x00\n        /* \"#utility.yul\":1908:1917   */\n      dup4\n        /* \"#utility.yul\":1904:1921   */\n      add\n        /* \"#utility.yul\":1895:1901   */\n      dup5\n        /* \"#utility.yul\":1851:1922   */\n      tag_66\n      jump\t// in\n    tag_120:\n        /* \"#utility.yul\":1707:1929   */\n      swap3\n      swap2\n      pop\n      pop\n      jump\t// out\n        /* \"#utility.yul\":1935:2010   */\n    tag_67:\n        /* \"#utility.yul\":1968:1974   */\n      0x00\n        /* \"#utility.yul\":2001:2003   */\n      0x40\n        /* \"#utility.yul\":1995:2004   */\n      mload\n        /* \"#utility.yul\":1985:2004   */\n      swap1\n      pop\n        /* \"#utility.yul\":1935:2010   */\n      swap1\n      jump\t// out\n        /* \"#utility.yul\":2016:2133   */\n    tag_68:\n        /* \"#utility.yul\":2125:2126   */\n      0x00\n        /* \"#utility.yul\":2122:2123   */\n      dup1\n        /* \"#utility.yul\":2115:2127   */\n      revert\n        /* \"#utility.yul\":2139:2256   */\n    tag_69:\n        /* \"#utility.yul\":2248:2249   */\n      0x00\n        /* \"#utility.yul\":2245:2246   */\n      dup1\n        /* \"#utility.yul\":2238:2250   */\n      revert\n        /* \"#utility.yul\":2262:2339   */\n    tag_70:\n        /* \"#utility.yul\":2299:2306   */\n      0x00\n        /* \"#utility.yul\":2328:2333   */\n      dup2\n        /* \"#utility.yul\":2317:2333   */\n      swap1\n      pop\n        /* \"#utility.yul\":2262:2339   */\n      swap2\n      swap1\n      pop\n      jump\t// out\n        /* \"#utility.yul\":2345:2467   */\n    tag_71:\n        /* \"#utility.yul\":2418:2442   */\n      tag_126\n        /* \"#utility.yul\":2436:2441   */\n      dup2\n        /* \"#utility.yul\":2418:2442   */\n      tag_70\n      jump\t// in\n    tag_126:\n        /* \"#utility.yul\":2411:2416   */\n      dup2\n        /* \"#utility.yul\":2408:2443   */\n      eq\n        /* \"#utility.yul\":2398:2461   */\n      tag_127\n      jumpi\n        /* \"#utility.yul\":2457:2458   */\n      0x00\n        /* \"#utility.yul\":2454:2455   */\n      dup1\n        /* \"#utility.yul\":2447:2459   */\n      revert\n        /* \"#utility.yul\":2398:2461   */\n    tag_127:\n        /* \"#utility.yul\":2345:2467   */\n      pop\n      jump\t// out\n        /* \"#utility.yul\":2473:2612   */\n    tag_72:\n        /* \"#utility.yul\":2519:2524   */\n      0x00\n        /* \"#utility.yul\":2557:2563   */\n      dup2\n        /* \"#utility.yul\":2544:2564   */\n      calldataload\n        /* \"#utility.yul\":2535:2564   */\n      swap1\n      pop\n        /* \"#utility.yul\":2573:2606   */\n      tag_129\n        /* \"#utility.yul\":2600:2605   */\n      dup2\n        /* \"#utility.yul\":2573:2606   */\n      tag_71\n      jump\t// in\n    tag_129:\n        /* \"#utility.yul\":2473:2612   */\n      swap3\n      swap2\n      pop\n      pop\n      jump\t// out\n        /* \"#utility.yul\":2618:2947   */\n    tag_25:\n        /* \"#utility.yul\":2677:2683   */\n      0x00\n        /* \"#utility.yul\":2726:2728   */\n      0x20\n        /* \"#utility.yul\":2714:2723   */\n      dup3\n        /* \"#utility.yul\":2705:2712   */\n      dup5\n        /* \"#utility.yul\":2701:2724   */\n      sub\n        /* \"#utility.yul\":2697:2729   */\n      slt\n        /* \"#utility.yul\":2694:2813   */\n      iszero\n      tag_131\n      jumpi\n        /* \"#utility.yul\":2732:2811   */\n      tag_132\n      tag_68\n      jump\t// in\n    tag_132:\n        /* \"#utility.yul\":2694:2813   */\n    tag_131:\n        /* \"#utility.yul\":2852:2853   */\n      0x00\n        /* \"#utility.yul\":2877:2930   */\n      tag_133\n        /* \"#utility.yul\":2922:2929   */\n      dup5\n        /* \"#utility.yul\":2913:2919   */\n      dup3\n        /* \"#utility.yul\":2902:2911   */\n      dup6\n        /* \"#utility.yul\":2898:2920   */\n      add\n        /* \"#utility.yul\":2877:2930   */\n      tag_72\n      jump\t// in\n    tag_133:\n        /* \"#utility.yul\":2867:2930   */\n      swap2\n      pop\n        /* \"#utility.yul\":2823:2940   */\n      pop\n        /* \"#utility.yul\":2618:2947   */\n      swap3\n      swap2\n      pop\n      pop\n      jump\t// out\n        /* \"#utility.yul\":2953:3071   */\n    tag_73:\n        /* \"#utility.yul\":3040:3064   */\n      tag_135\n        /* \"#utility.yul\":3058:3063   */\n      dup2\n        /* \"#utility.yul\":3040:3064   */\n      tag_70\n      jump\t// in\n    tag_135:\n        /* \"#utility.yul\":3035:3038   */\n      dup3\n        /* \"#utility.yul\":3028:3065   */\n      mstore\n        /* \"#utility.yul\":2953:3071   */\n      pop\n      pop\n      jump\t// out\n        /* \"#utility.yul\":3077:3299   */\n    tag_30:\n        /* \"#utility.yul\":3170:3174   */\n      0x00\n        /* \"#utility.yul\":3208:3210   */\n      0x20\n        /* \"#utility.yul\":3197:3206   */\n      dup3\n        /* \"#utility.yul\":3193:3211   */\n      add\n        /* \"#utility.yul\":3185:3211   */\n      swap1\n      pop\n        /* \"#utility.yul\":3221:3292   */\n      tag_137\n        /* \"#utility.yul\":3289:3290   */\n      0x00\n        /* \"#utility.yul\":3278:3287   */\n      dup4\n        /* \"#utility.yul\":3274:3291   */\n      add\n        /* \"#utility.yul\":3265:3271   */\n      dup5\n        /* \"#utility.yul\":3221:3292   */\n      tag_73\n      jump\t// in\n    tag_137:\n        /* \"#utility.yul\":3077:3299   */\n      swap3\n      swap2\n      pop\n      pop\n      jump\t// out\n        /* \"#utility.yul\":3305:3422   */\n    tag_74:\n        /* \"#utility.yul\":3414:3415   */\n      0x00\n        /* \"#utility.yul\":3411:3412   */\n      dup1\n        /* \"#utility.yul\":3404:3416   */\n      revert\n        /* \"#utility.yul\":3428:3545   */\n    tag_75:\n        /* \"#utility.yul\":3537:3538   */\n      0x00\n        /* \"#utility.yul\":3534:3535   */\n      dup1\n        /* \"#utility.yul\":3527:3539   */\n      revert\n        /* \"#utility.yul\":3551:3731   */\n    tag_76:\n        /* \"#utility.yul\":3599:3676   */\n      0x4e487b7100000000000000000000000000000000000000000000000000000000\n        /* \"#utility.yul\":3596:3597   */\n      0x00\n        /* \"#utility.yul\":3589:3677   */\n      mstore\n        /* \"#utility.yul\":3696:3700   */\n      0x41\n        /* \"#utility.yul\":3693:3694   */\n      0x04\n        /* \"#utility.yul\":3686:3701   */\n      mstore\n        /* \"#utility.yul\":3720:3724   */\n      0x24\n        /* \"#utility.yul\":3717:3718   */\n      0x00\n        /* \"#utility.yul\":3710:3725   */\n      revert\n        /* \"#utility.yul\":3737:4018   */\n    tag_77:\n        /* \"#utility.yul\":3820:3847   */\n      tag_142\n        /* \"#utility.yul\":3842:3846   */\n      dup3\n        /* \"#utility.yul\":3820:3847   */\n      tag_62\n      jump\t// in\n    tag_142:\n        /* \"#utility.yul\":3812:3818   */\n      dup2\n        /* \"#utility.yul\":3808:3848   */\n      add\n        /* \"#utility.yul\":3950:3956   */\n      dup2\n        /* \"#utility.yul\":3938:3948   */\n      dup2\n        /* \"#utility.yul\":3935:3957   */\n      lt\n        /* \"#utility.yul\":3914:3932   */\n      0xffffffffffffffff\n        /* \"#utility.yul\":3902:3912   */\n      dup3\n        /* \"#utility.yul\":3899:3933   */\n      gt\n        /* \"#utility.yul\":3896:3958   */\n      or\n        /* \"#utility.yul\":3893:3981   */\n      iszero\n      tag_143\n      jumpi\n        /* \"#utility.yul\":3961:3979   */\n      tag_144\n      tag_76\n      jump\t// in\n    tag_144:\n        /* \"#utility.yul\":3893:3981   */\n    tag_143:\n        /* \"#utility.yul\":4001:4011   */\n      dup1\n        /* \"#utility.yul\":3997:3999   */\n      0x40\n        /* \"#utility.yul\":3990:4012   */\n      mstore\n        /* \"#utility.yul\":3780:4018   */\n      pop\n        /* \"#utility.yul\":3737:4018   */\n      pop\n      pop\n      jump\t// out\n        /* \"#utility.yul\":4024:4153   */\n    tag_78:\n        /* \"#utility.yul\":4058:4064   */\n      0x00\n        /* \"#utility.yul\":4085:4105   */\n      tag_146\n      tag_67\n      jump\t// in\n    tag_146:\n        /* \"#utility.yul\":4075:4105   */\n      swap1\n      pop\n        /* \"#utility.yul\":4114:4147   */\n      tag_147\n        /* \"#utility.yul\":4142:4146   */\n      dup3\n        /* \"#utility.yul\":4134:4140   */\n      dup3\n        /* \"#utility.yul\":4114:4147   */\n      tag_77\n      jump\t// in\n    tag_147:\n        /* \"#utility.yul\":4024:4153   */\n      swap2\n      swap1\n      pop\n      jump\t// out\n        /* \"#utility.yul\":4159:4467   */\n    tag_79:\n        /* \"#utility.yul\":4221:4225   */\n      0x00\n        /* \"#utility.yul\":4311:4329   */\n      0xffffffffffffffff\n        /* \"#utility.yul\":4303:4309   */\n      dup3\n        /* \"#utility.yul\":4300:4330   */\n      gt\n        /* \"#utility.yul\":4297:4353   */\n      iszero\n      tag_149\n      jumpi\n        /* \"#utility.yul\":4333:4351   */\n      tag_150\n      tag_76\n      jump\t// in\n    tag_150:\n        /* \"#utility.yul\":4297:4353   */\n    tag_149:\n        /* \"#utility.yul\":4371:4400   */\n      tag_151\n        /* \"#utility.yul\":4393:4399   */\n      dup3\n        /* \"#utility.yul\":4371:4400   */\n      tag_62\n      jump\t// in\n    tag_151:\n        /* \"#utility.yul\":4363:4400   */\n      swap1\n      pop\n        /* \"#utility.yul\":4455:4459   */\n      0x20\n        /* \"#utility.yul\":4449:4453   */\n      dup2\n        /* \"#utility.yul\":4445:4460   */\n      add\n        /* \"#utility.yul\":4437:4460   */\n      swap1\n      pop\n        /* \"#utility.yul\":4159:4467   */\n      swap2\n      swap1\n      pop\n      jump\t// out\n        /* \"#utility.yul\":4473:4619   */\n    tag_80:\n        /* \"#utility.yul\":4570:4576   */\n      dup3\n        /* \"#utility.yul\":4565:4568   */\n      dup2\n        /* \"#utility.yul\":4560:4563   */\n      dup4\n        /* \"#utility.yul\":4547:4577   */\n      calldatacopy\n        /* \"#utility.yul\":4611:4612   */\n      0x00\n        /* \"#utility.yul\":4602:4608   */\n      dup4\n        /* \"#utility.yul\":4597:4600   */\n      dup4\n        /* \"#utility.yul\":4593:4609   */\n      add\n        /* \"#utility.yul\":4586:4613   */\n      mstore\n        /* \"#utility.yul\":4473:4619   */\n      pop\n      pop\n      pop\n      jump\t// out\n        /* \"#utility.yul\":4625:5050   */\n    tag_81:\n        /* \"#utility.yul\":4703:4708   */\n      0x00\n        /* \"#utility.yul\":4728:4794   */\n      tag_154\n        /* \"#utility.yul\":4744:4793   */\n      tag_155\n        /* \"#utility.yul\":4786:4792   */\n      dup5\n        /* \"#utility.yul\":4744:4793   */\n      tag_79\n      jump\t// in\n    tag_155:\n        /* \"#utility.yul\":4728:4794   */\n      tag_78\n      jump\t// in\n    tag_154:\n        /* \"#utility.yul\":4719:4794   */\n      swap1\n      pop\n        /* \"#utility.yul\":4817:4823   */\n      dup3\n        /* \"#utility.yul\":4810:4815   */\n      dup2\n        /* \"#utility.yul\":4803:4824   */\n      mstore\n        /* \"#utility.yul\":4855:4859   */\n      0x20\n        /* \"#utility.yul\":4848:4853   */\n      dup2\n        /* \"#utility.yul\":4844:4860   */\n      add\n        /* \"#utility.yul\":4893:4896   */\n      dup5\n        /* \"#utility.yul\":4884:4890   */\n      dup5\n        /* \"#utility.yul\":4879:4882   */\n      dup5\n        /* \"#utility.yul\":4875:4891   */\n      add\n        /* \"#utility.yul\":4872:4897   */\n      gt\n        /* \"#utility.yul\":4869:4981   */\n      iszero\n      tag_156\n      jumpi\n        /* \"#utility.yul\":4900:4979   */\n      tag_157\n      tag_75\n      jump\t// in\n    tag_157:\n        /* \"#utility.yul\":4869:4981   */\n    tag_156:\n        /* \"#utility.yul\":4990:5044   */\n      tag_158\n        /* \"#utility.yul\":5037:5043   */\n      dup5\n        /* \"#utility.yul\":5032:5035   */\n      dup3\n        /* \"#utility.yul\":5027:5030   */\n      dup6\n        /* \"#utility.yul\":4990:5044   */\n      tag_80\n      jump\t// in\n    tag_158:\n        /* \"#utility.yul\":4709:5050   */\n      pop\n        /* \"#utility.yul\":4625:5050   */\n      swap4\n      swap3\n      pop\n      pop\n      pop\n      jump\t// out\n        /* \"#utility.yul\":5070:5410   */\n    tag_82:\n        /* \"#utility.yul\":5126:5131   */\n      0x00\n        /* \"#utility.yul\":5175:5178   */\n      dup3\n        /* \"#utility.yul\":5168:5172   */\n      0x1f\n        /* \"#utility.yul\":5160:5166   */\n      dup4\n        /* \"#utility.yul\":5156:5173   */\n      add\n        /* \"#utility.yul\":5152:5179   */\n      slt\n        /* \"#utility.yul\":5142:5264   */\n      tag_160\n      jumpi\n        /* \"#utility.yul\":5183:5262   */\n      tag_161\n      tag_74\n      jump\t// in\n    tag_161:\n        /* \"#utility.yul\":5142:5264   */\n    tag_160:\n        /* \"#utility.yul\":5300:5306   */\n      dup2\n        /* \"#utility.yul\":5287:5307   */\n      calldataload\n        /* \"#utility.yul\":5325:5404   */\n      tag_162\n        /* \"#utility.yul\":5400:5403   */\n      dup5\n        /* \"#utility.yul\":5392:5398   */\n      dup3\n        /* \"#utility.yul\":5385:5389   */\n      0x20\n        /* \"#utility.yul\":5377:5383   */\n      dup7\n        /* \"#utility.yul\":5373:5390   */\n      add\n        /* \"#utility.yul\":5325:5404   */\n      tag_81\n      jump\t// in\n    tag_162:\n        /* \"#utility.yul\":5316:5404   */\n      swap2\n      pop\n        /* \"#utility.yul\":5132:5410   */\n      pop\n        /* \"#utility.yul\":5070:5410   */\n      swap3\n      swap2\n      pop\n      pop\n      jump\t// out\n        /* \"#utility.yul\":5416:5925   */\n    tag_38:\n        /* \"#utility.yul\":5485:5491   */\n      0x00\n        /* \"#utility.yul\":5534:5536   */\n      0x20\n        /* \"#utility.yul\":5522:5531   */\n      dup3\n        /* \"#utility.yul\":5513:5520   */\n      dup5\n        /* \"#utility.yul\":5509:5532   */\n      sub\n        /* \"#utility.yul\":5505:5537   */\n      slt\n        /* \"#utility.yul\":5502:5621   */\n      iszero\n      tag_164\n      jumpi\n        /* \"#utility.yul\":5540:5619   */\n      tag_165\n      tag_68\n      jump\t// in\n    tag_165:\n        /* \"#utility.yul\":5502:5621   */\n    tag_164:\n        /* \"#utility.yul\":5688:5689   */\n      0x00\n        /* \"#utility.yul\":5677:5686   */\n      dup3\n        /* \"#utility.yul\":5673:5690   */\n      add\n        /* \"#utility.yul\":5660:5691   */\n      calldataload\n        /* \"#utility.yul\":5718:5736   */\n      0xffffffffffffffff\n        /* \"#utility.yul\":5710:5716   */\n      dup2\n        /* \"#utility.yul\":5707:5737   */\n      gt\n        /* \"#utility.yul\":5704:5821   */\n      iszero\n      tag_166\n      jumpi\n        /* \"#utility.yul\":5740:5819   */\n      tag_167\n      tag_69\n      jump\t// in\n    tag_167:\n        /* \"#utility.yul\":5704:5821   */\n    tag_166:\n        /* \"#utility.yul\":5845:5908   */\n      tag_168\n        /* \"#utility.yul\":5900:5907   */\n      dup5\n        /* \"#utility.yul\":5891:5897   */\n      dup3\n        /* \"#utility.yul\":5880:5889   */\n      dup6\n        /* \"#utility.yul\":5876:5898   */\n      add\n        /* \"#utility.yul\":5845:5908   */\n      tag_82\n      jump\t// in\n    tag_168:\n        /* \"#utility.yul\":5835:5908   */\n      swap2\n      pop\n        /* \"#utility.yul\":5631:5918   */\n      pop\n        /* \"#utility.yul\":5416:5925   */\n      swap3\n      swap2\n      pop\n      pop\n      jump\t// out\n        /* \"#utility.yul\":5931:6111   */\n    tag_83:\n        /* \"#utility.yul\":5979:6056   */\n      0x4e487b7100000000000000000000000000000000000000000000000000000000\n        /* \"#utility.yul\":5976:5977   */\n      0x00\n        /* \"#utility.yul\":5969:6057   */\n      mstore\n        /* \"#utility.yul\":6076:6080   */\n      0x22\n        /* \"#utility.yul\":6073:6074   */\n      0x04\n        /* \"#utility.yul\":6066:6081   */\n      mstore\n        /* \"#utility.yul\":6100:6104   */\n      0x24\n        /* \"#utility.yul\":6097:6098   */\n      0x00\n        /* \"#utility.yul\":6090:6105   */\n      revert\n        /* \"#utility.yul\":6117:6437   */\n    tag_41:\n        /* \"#utility.yul\":6161:6167   */\n      0x00\n        /* \"#utility.yul\":6198:6199   */\n      0x02\n        /* \"#utility.yul\":6192:6196   */\n      dup3\n        /* \"#utility.yul\":6188:6200   */\n      div\n        /* \"#utility.yul\":6178:6200   */\n      swap1\n      pop\n        /* \"#utility.yul\":6245:6246   */\n      0x01\n        /* \"#utility.yul\":6239:6243   */\n      dup3\n        /* \"#utility.yul\":6235:6247   */\n      and\n        /* \"#utility.yul\":6266:6284   */\n      dup1\n        /* \"#utility.yul\":6256:6337   */\n      tag_171\n      jumpi\n        /* \"#utility.yul\":6322:6326   */\n      0x7f\n        /* \"#utility.yul\":6314:6320   */\n      dup3\n        /* \"#utility.yul\":6310:6327   */\n      and\n        /* \"#utility.yul\":6300:6327   */\n      swap2\n      pop\n        /* \"#utility.yul\":6256:6337   */\n    tag_171:\n        /* \"#utility.yul\":6384:6386   */\n      0x20\n        /* \"#utility.yul\":6376:6382   */\n      dup3\n        /* \"#utility.yul\":6373:6387   */\n      lt\n        /* \"#utility.yul\":6353:6371   */\n      dup2\n        /* \"#utility.yul\":6350:6388   */\n      sub\n        /* \"#utility.yul\":6347:6431   */\n      tag_172\n      jumpi\n        /* \"#utility.yul\":6403:6421   */\n      tag_173\n      tag_83\n      jump\t// in\n    tag_173:\n        /* \"#utility.yul\":6347:6431   */\n    tag_172:\n        /* \"#utility.yul\":6168:6437   */\n      pop\n        /* \"#utility.yul\":6117:6437   */\n      swap2\n      swap1\n      pop\n      jump\t// out\n        /* \"#utility.yul\":6443:6584   */\n    tag_84:\n        /* \"#utility.yul\":6492:6496   */\n      0x00\n        /* \"#utility.yul\":6515:6518   */\n      dup2\n        /* \"#utility.yul\":6507:6518   */\n      swap1\n      pop\n        /* \"#utility.yul\":6538:6541   */\n      dup2\n        /* \"#utility.yul\":6535:6536   */\n      0x00\n        /* \"#utility.yul\":6528:6542   */\n      mstore\n        /* \"#utility.yul\":6572:6576   */\n      0x20\n        /* \"#utility.yul\":6569:6570   */\n      0x00\n        /* \"#utility.yul\":6559:6577   */\n      keccak256\n        /* \"#utility.yul\":6551:6577   */\n      swap1\n      pop\n        /* \"#utility.yul\":6443:6584   */\n      swap2\n      swap1\n      pop\n      jump\t// out\n        /* \"#utility.yul\":6590:6683   */\n    tag_85:\n        /* \"#utility.yul\":6627:6633   */\n      0x00\n        /* \"#utility.yul\":6674:6676   */\n      0x20\n        /* \"#utility.yul\":6669:6671   */\n      0x1f\n        /* \"#utility.yul\":6662:6667   */\n      dup4\n        /* \"#utility.yul\":6658:6672   */\n      add\n        /* \"#utility.yul\":6654:6677   */\n      div\n        /* \"#utility.yul\":6644:6677   */\n      swap1\n      pop\n        /* \"#utility.yul\":6590:6683   */\n      swap2\n      swap1\n      pop\n      jump\t// out\n        /* \"#utility.yul\":6689:6796   */\n    tag_86:\n        /* \"#utility.yul\":6733:6741   */\n      0x00\n        /* \"#utility.yul\":6783:6788   */\n      dup3\n        /* \"#utility.yul\":6777:6781   */\n      dup3\n        /* \"#utility.yul\":6773:6789   */\n      shl\n        /* \"#utility.yul\":6752:6789   */\n      swap1\n      pop\n        /* \"#utility.yul\":6689:6796   */\n      swap3\n      swap2\n      pop\n      pop\n      jump\t// out\n        /* \"#utility.yul\":6802:7195   */\n    tag_87:\n        /* \"#utility.yul\":6871:6877   */\n      0x00\n        /* \"#utility.yul\":6921:6922   */\n      0x08\n        /* \"#utility.yul\":6909:6919   */\n      dup4\n        /* \"#utility.yul\":6905:6923   */\n      mul\n        /* \"#utility.yul\":6944:7041   */\n      tag_178\n        /* \"#utility.yul\":6974:7040   */\n      0xffffffffffffffffffffffffffffffffffffffffffffffffffffffffffffffff\n        /* \"#utility.yul\":6963:6972   */\n      dup3\n        /* \"#utility.yul\":6944:7041   */\n      tag_86\n      jump\t// in\n    tag_178:\n        /* \"#utility.yul\":7062:7101   */\n      tag_179\n        /* \"#utility.yul\":7092:7100   */\n      dup7\n        /* \"#utility.yul\":7081:7090   */\n      dup4\n        /* \"#utility.yul\":7062:7101   */\n      tag_86\n      jump\t// in\n    tag_179:\n        /* \"#utility.yul\":7050:7101   */\n      swap6\n      pop\n        /* \"#utility.yul\":7134:7138   */\n      dup1\n        /* \"#utility.yul\":7130:7139   */\n      not\n        /* \"#utility.yul\":7123:7128   */\n      dup5\n        /* \"#utility.yul\":7119:7140   */\n      and\n        /* \"#utility.yul\":7110:7140   */\n      swap4\n      pop\n        /* \"#utility.yul\":7183:7187   */\n      dup1\n        /* \"#utility.yul\":7173:7181   */\n      dup7\n        /* \"#utility.yul\":7169:7188   */\n      and\n        /* \"#utility.yul\":7162:7167   */\n      dup5\n        /* \"#utility.yul\":7159:7189   */\n      or\n        /* \"#utility.yul\":7149:7189   */\n      swap3\n      pop\n        /* \"#utility.yul\":6878:7195   */\n      pop\n      pop\n        /* \"#utility.yul\":6802:7195   */\n      swap4\n      swap3\n      pop\n      pop\n      pop\n      jump\t// out\n        /* \"#utility.yul\":7201:7261   */\n    tag_88:\n        /* \"#utility.yul\":7229:7232   */\n      0x00\n        /* \"#utility.yul\":7250:7255   */\n      dup2\n        /* \"#utility.yul\":7243:7255   */\n      swap1\n      pop\n        /* \"#utility.yul\":7201:7261   */\n      swap2\n      swap1\n      pop\n      jump\t// out\n        /* \"#utility.yul\":7267:7409   */\n    tag_89:\n        /* \"#utility.yul\":7317:7326   */\n      0x00\n        /* \"#utility.yul\":7350:7403   */\n      tag_182\n        /* \"#utility.yul\":7368:7402   */\n      tag_183\n        /* \"#utility.yul\":7377:7401   */\n      tag_184\n        /* \"#utility.yul\":7395:7400   */\n      dup5\n        /* \"#utility.yul\":7377:7401   */\n      tag_70\n      jump\t// in\n    tag_184:\n        /* \"#utility.yul\":7368:7402   */\n      tag_88\n      jump\t// in\n    tag_183:\n        /* \"#utility.yul\":7350:7403   */\n      tag_70\n      jump\t// in\n    tag_182:\n        /* \"#utility.yul\":7337:7403   */\n      swap1\n      pop\n        /* \"#utility.yul\":7267:7409   */\n      swap2\n      swap1\n      pop\n      jump\t// out\n        /* \"#utility.yul\":7415:7490   */\n    tag_90:\n        /* \"#utility.yul\":7458:7461   */\n      0x00\n        /* \"#utility.yul\":7479:7484   */\n      dup2\n        /* \"#utility.yul\":7472:7484   */\n      swap1\n      pop\n        /* \"#utility.yul\":7415:7490   */\n      swap2\n      swap1\n      pop\n      jump\t// out\n        /* \"#utility.yul\":7496:7765   */\n    tag_91:\n        /* \"#utility.yul\":7606:7645   */\n      tag_187\n        /* \"#utility.yul\":7637:7644   */\n      dup4\n        /* \"#utility.yul\":7606:7645   */\n      tag_89\n      jump\t// in\n    tag_187:\n        /* \"#utility.yul\":7667:7758   */\n      tag_188\n        /* \"#utility.yul\":7716:7757   */\n      tag_189\n        /* \"#utility.yul\":7740:7756   */\n      dup3\n        /* \"#utility.yul\":7716:7757   */\n      tag_90\n      jump\t// in\n    tag_189:\n        /* \"#utility.yul\":7708:7714   */\n      dup5\n        /* \"#utility.yul\":7701:7705   */\n      dup5\n        /* \"#utility.yul\":7695:7706   */\n      sload\n        /* \"#utility.yul\":7667:7758   */\n      tag_87\n      jump\t// in\n    tag_188:\n        /* \"#utility.yul\":7661:7665   */\n      dup3\n        /* \"#utility.yul\":7654:7759   */\n      sstore\n        /* \"#utility.yul\":7572:7765   */\n      pop\n        /* \"#utility.yul\":7496:7765   */\n      pop\n      pop\n      pop\n      jump\t// out\n        /* \"#utility.yul\":7771:7844   */\n    tag_92:\n        /* \"#utility.yul\":7816:7819   */\n      0x00\n        /* \"#utility.yul\":7771:7844   */\n      swap1\n      jump\t// out\n        /* \"#utility.yul\":7850:8039   */\n    tag_93:\n        /* \"#utility.yul\":7927:7959   */\n      tag_192\n      tag_92\n      jump\t// in\n    tag_192:\n        /* \"#utility.yul\":7968:8033   */\n      tag_193\n        /* \"#utility.yul\":8026:8032   */\n      dup2\n        /* \"#utility.yul\":8018:8024   */\n      dup5\n        /* \"#utility.yul\":8012:8016   */\n      dup5\n        /* \"#utility.yul\":7968:8033   */\n      tag_91\n      jump\t// in\n    tag_193:\n        /* \"#utility.yul\":7903:8039   */\n      pop\n        /* \"#utility.yul\":7850:8039   */\n      pop\n      pop\n      jump\t// out\n        /* \"#utility.yul\":8045:8231   */\n    tag_94:\n        /* \"#utility.yul\":8105:8225   */\n    tag_195:\n        /* \"#utility.yul\":8122:8125   */\n      dup2\n        /* \"#utility.yul\":8115:8120   */\n      dup2\n        /* \"#utility.yul\":8112:8126   */\n      lt\n        /* \"#utility.yul\":8105:8225   */\n      iszero\n      tag_197\n      jumpi\n        /* \"#utility.yul\":8176:8215   */\n      tag_198\n        /* \"#utility.yul\":8213:8214   */\n      0x00\n        /* \"#utility.yul\":8206:8211   */\n      dup3\n        /* \"#utility.yul\":8176:8215   */\n      tag_93\n      jump\t// in\n    tag_198:\n        /* \"#utility.yul\":8149:8150   */\n      0x01\n        /* \"#utility.yul\":8142:8147   */\n      dup2\n        /* \"#utility.yul\":8138:8151   */\n      add\n        /* \"#utility.yul\":8129:8151   */\n      swap1\n      pop\n        /* \"#utility.yul\":8105:8225   */\n      jump(tag_195)\n    tag_197:\n        /* \"#utility.yul\":8045:8231   */\n      pop\n      pop\n      jump\t// out\n        /* \"#utility.yul\":8237:8780   */\n    tag_95:\n        /* \"#utility.yul\":8338:8340   */\n      0x1f\n        /* \"#utility.yul\":8333:8336   */\n      dup3\n        /* \"#utility.yul\":8330:8341   */\n      gt\n        /* \"#utility.yul\":8327:8773   */\n      iszero\n      tag_200\n      jumpi\n        /* \"#utility.yul\":8372:8410   */\n      tag_201\n        /* \"#utility.yul\":8404:8409   */\n      dup2\n        /* \"#utility.yul\":8372:8410   */\n      tag_84\n      jump\t// in\n    tag_201:\n        /* \"#utility.yul\":8456:8485   */\n      tag_202\n        /* \"#utility.yul\":8474:8484   */\n      dup5\n        /* \"#utility.yul\":8456:8485   */\n      tag_85\n      jump\t// in\n    tag_202:\n        /* \"#utility.yul\":8446:8454   */\n      dup2\n        /* \"#utility.yul\":8442:8486   */\n      add\n        /* \"#utility.yul\":8639:8641   */\n      0x20\n        /* \"#utility.yul\":8627:8637   */\n      dup6\n        /* \"#utility.yul\":8624:8642   */\n      lt\n        /* \"#utility.yul\":8621:8670   */\n      iszero\n      tag_203\n      jumpi\n        /* \"#utility.yul\":8660:8668   */\n      dup2\n        /* \"#utility.yul\":8645:8668   */\n      swap1\n      pop\n        /* \"#utility.yul\":8621:8670   */\n    tag_203:\n        /* \"#utility.yul\":8683:8763   */\n      tag_204\n        /* \"#utility.yul\":8739:8761   */\n      tag_205\n        /* \"#utility.yul\":8757:8760   */\n      dup6\n        /* \"#utility.yul\":8739:8761   */\n      tag_85\n      jump\t// in\n    tag_205:\n        /* \"#utility.yul\":8729:8737   */\n      dup4\n        /* \"#utility.yul\":8725:8762   */\n      add\n        /* \"#utility.yul\":8712:8723   */\n      dup3\n        /* \"#utility.yul\":8683:8763   */\n      tag_94\n      jump\t// in\n    tag_204:\n        /* \"#utility.yul\":8342:8773   */\n      pop\n      pop\n        /* \"#utility.yul\":8327:8773   */\n    tag_200:\n        /* \"#utility.yul\":8237:8780   */\n      pop\n      pop\n      pop\n      jump\t// out\n        /* \"#utility.yul\":8786:8903   */\n    tag_96:\n        /* \"#utility.yul\":8840:8848   */\n      0x00\n        /* \"#utility.yul\":8890:8895   */\n      dup3\n        /* \"#utility.yul\":8884:8888   */\n      dup3\n        /* \"#utility.yul\":8880:8896   */\n      shr\n        /* \"#utility.yul\":8859:8896   */\n      swap1\n      pop\n        /* \"#utility.yul\":8786:8903   */\n      swap3\n      swap2\n      pop\n      pop\n      jump\t// out\n        /* \"#utility.yul\":8909:9078   */\n    tag_97:\n        /* \"#utility.yul\":8953:8959   */\n      0x00\n        /* \"#utility.yul\":8986:9037   */\n      tag_208\n        /* \"#utility.yul\":9034:9035   */\n      0x00\n        /* \"#utility.yul\":9030:9036   */\n      not\n        /* \"#utility.yul\":9022:9027   */\n      dup5\n        /* \"#utility.yul\":9019:9020   */\n      0x08\n        /* \"#utility.yul\":9015:9028   */\n      mul\n        /* \"#utility.yul\":8986:9037   */\n      tag_96\n      jump\t// in\n    tag_208:\n        /* \"#utility.yul\":8982:9038   */\n      not\n        /* \"#utility.yul\":9067:9071   */\n      dup1\n        /* \"#utility.yul\":9061:9065   */\n      dup4\n        /* \"#utility.yul\":9057:9072   */\n      and\n        /* \"#utility.yul\":9047:9072   */\n      swap2\n      pop\n        /* \"#utility.yul\":8960:9078   */\n      pop\n        /* \"#utility.yul\":8909:9078   */\n      swap3\n      swap2\n      pop\n      pop\n      jump\t// out\n        /* \"#utility.yul\":9083:9378   */\n    tag_98:\n        /* \"#utility.yul\":9159:9163   */\n      0x00\n        /* \"#utility.yul\":9305:9334   */\n      tag_210\n        /* \"#utility.yul\":9330:9333   */\n      dup4\n        /* \"#utility.yul\":9324:9328   */\n      dup4\n        /* \"#utility.yul\":9305:9334   */\n      tag_97\n      jump\t// in\n    tag_210:\n        /* \"#utility.yul\":9297:9334   */\n      swap2\n      pop\n        /* \"#utility.yul\":9367:9370   */\n      dup3\n        /* \"#utility.yul\":9364:9365   */\n      0x02\n        /* \"#utility.yul\":9360:9371   */\n      mul\n        /* \"#utility.yul\":9354:9358   */\n      dup3\n        /* \"#utility.yul\":9351:9372   */\n      or\n        /* \"#utility.yul\":9343:9372   */\n      swap1\n      pop\n        /* \"#utility.yul\":9083:9378   */\n      swap3\n      swap2\n      pop\n      pop\n      jump\t// out\n        /* \"#utility.yul\":9383:10778   */\n    tag_58:\n        /* \"#utility.yul\":9500:9537   */\n      tag_212\n        /* \"#utility.yul\":9533:9536   */\n      dup3\n        /* \"#utility.yul\":9500:9537   */\n      tag_59\n      jump\t// in\n    tag_212:\n        /* \"#utility.yul\":9602:9620   */\n      0xffffffffffffffff\n        /* \"#utility.yul\":9594:9600   */\n      dup2\n        /* \"#utility.yul\":9591:9621   */\n      gt\n        /* \"#utility.yul\":9588:9644   */\n      iszero\n      tag_213\n      jumpi\n        /* \"#utility.yul\":9624:9642   */\n      tag_214\n      tag_76\n      jump\t// in\n    tag_214:\n        /* \"#utility.yul\":9588:9644   */\n    tag_213:\n        /* \"#utility.yul\":9668:9706   */\n      tag_215\n        /* \"#utility.yul\":9700:9704   */\n      dup3\n        /* \"#utility.yul\":9694:9705   */\n      sload\n        /* \"#utility.yul\":9668:9706   */\n      tag_41\n      jump\t// in\n    tag_215:\n        /* \"#utility.yul\":9753:9820   */\n      tag_216\n        /* \"#utility.yul\":9813:9819   */\n      dup3\n        /* \"#utility.yul\":9805:9811   */\n      dup3\n        /* \"#utility.yul\":9799:9803   */\n      dup6\n        /* \"#utility.yul\":9753:9820   */\n      tag_95\n      jump\t// in\n    tag_216:\n        /* \"#utility.yul\":9847:9848   */\n      0x00\n        /* \"#utility.yul\":9871:9875   */\n      0x20\n        /* \"#utility.yul\":9858:9875   */\n      swap1\n      pop\n        /* \"#utility.yul\":9903:9905   */\n      0x1f\n        /* \"#utility.yul\":9895:9901   */\n      dup4\n        /* \"#utility.yul\":9892:9906   */\n      gt\n        /* \"#utility.yul\":9920:9921   */\n      0x01\n        /* \"#utility.yul\":9915:10533   */\n      dup2\n      eq\n      tag_218\n      jumpi\n        /* \"#utility.yul\":10577:10578   */\n      0x00\n        /* \"#utility.yul\":10594:10600   */\n      dup5\n        /* \"#utility.yul\":10591:10668   */\n      iszero\n      tag_219\n      jumpi\n        /* \"#utility.yul\":10643:10652   */\n      dup3\n        /* \"#utility.yul\":10638:10641   */\n      dup8\n        /* \"#utility.yul\":10634:10653   */\n      add\n        /* \"#utility.yul\":10628:10654   */\n      mload\n        /* \"#utility.yul\":10619:10654   */\n      swap1\n      pop\n        /* \"#utility.yul\":10591:10668   */\n    tag_219:\n        /* \"#utility.yul\":10694:10761   */\n      tag_220\n        /* \"#utility.yul\":10754:10760   */\n      dup6\n        /* \"#utility.yul\":10747:10752   */\n      dup3\n        /* \"#utility.yul\":10694:10761   */\n      tag_98\n      jump\t// in\n    tag_220:\n        /* \"#utility.yul\":10688:10692   */\n      dup7\n        /* \"#utility.yul\":10681:10762   */\n      sstore\n        /* \"#utility.yul\":10550:10772   */\n      pop\n        /* \"#utility.yul\":9885:10772   */\n      jump(tag_217)\n        /* \"#utility.yul\":9915:10533   */\n    tag_218:\n        /* \"#utility.yul\":9967:9971   */\n      0x1f\n        /* \"#utility.yul\":9963:9972   */\n      not\n        /* \"#utility.yul\":9955:9961   */\n      dup5\n        /* \"#utility.yul\":9951:9973   */\n      and\n        /* \"#utility.yul\":10001:10038   */\n      tag_221\n        /* \"#utility.yul\":10033:10037   */\n      dup7\n        /* \"#utility.yul\":10001:10038   */\n      tag_84\n      jump\t// in\n    tag_221:\n        /* \"#utility.yul\":10060:10061   */\n      0x00\n        /* \"#utility.yul\":10074:10282   */\n    tag_222:\n        /* \"#utility.yul\":10088:10095   */\n      dup3\n        /* \"#utility.yul\":10085:10086   */\n      dup2\n        /* \"#utility.yul\":10082:10096   */\n      lt\n        /* \"#utility.yul\":10074:10282   */\n      iszero\n      tag_224\n      jumpi\n        /* \"#utility.yul\":10167:10176   */\n      dup5\n        /* \"#utility.yul\":10162:10165   */\n      dup10\n        /* \"#utility.yul\":10158:10177   */\n      add\n        /* \"#utility.yul\":10152:10178   */\n      mload\n        /* \"#utility.yul\":10144:10150   */\n      dup3\n        /* \"#utility.yul\":10137:10179   */\n      sstore\n        /* \"#utility.yul\":10218:10219   */\n      0x01\n        /* \"#utility.yul\":10210:10216   */\n      dup3\n        /* \"#utility.yul\":10206:10220   */\n      add\n        /* \"#utility.yul\":10196:10220   */\n      swap2\n      pop\n        /* \"#utility.yul\":10265:10267   */\n      0x20\n        /* \"#utility.yul\":10254:10263   */\n      dup6\n        /* \"#utility.yul\":10250:10268   */\n      add\n        /* \"#utility.yul\":10237:10268   */\n      swap5\n      pop\n        /* \"#utility.yul\":10111:10115   */\n      0x20\n        /* \"#utility.yul\":10108:10109   */\n      dup2\n        /* \"#utility.yul\":10104:10116   */\n      add\n        /* \"#utility.yul\":10099:10116   */\n      swap1\n      pop\n        /* \"#utility.yul\":10074:10282   */\n      jump(tag_222)\n    tag_224:\n        /* \"#utility.yul\":10310:10316   */\n      dup7\n        /* \"#utility.yul\":10301:10308   */\n      dup4\n        /* \"#utility.yul\":10298:10317   */\n      lt\n        /* \"#utility.yul\":10295:10474   */\n      iszero\n      tag_225\n      jumpi\n        /* \"#utility.yul\":10368:10377   */\n      dup5\n        /* \"#utility.yul\":10363:10366   */\n      dup10\n        /* \"#utility.yul\":10359:10378   */\n      add\n        /* \"#utility.yul\":10353:10379   */\n      mload\n        /* \"#utility.yul\":10411:10459   */\n      tag_226\n        /* \"#utility.yul\":10453:10457   */\n      0x1f\n        /* \"#utility.yul\":10445:10451   */\n      dup10\n        /* \"#utility.yul\":10441:10458   */\n      and\n        /* \"#utility.yul\":10430:10439   */\n      dup3\n        /* \"#utility.yul\":10411:10459   */\n      tag_97\n      jump\t// in\n    tag_226:\n        /* \"#utility.yul\":10403:10409   */\n      dup4\n        /* \"#utility.yul\":10396:10460   */\n      sstore\n        /* \"#utility.yul\":10318:10474   */\n      pop\n        /* \"#utility.yul\":10295:10474   */\n    tag_225:\n        /* \"#utility.yul\":10520:10521   */\n      0x01\n        /* \"#utility.yul\":10516:10517   */\n      0x02\n        /* \"#utility.yul\":10508:10514   */\n      dup9\n        /* \"#utility.yul\":10504:10518   */\n      mul\n        /* \"#utility.yul\":10500:10522   */\n      add\n        /* \"#utility.yul\":10494:10498   */\n      dup9\n        /* \"#utility.yul\":10487:10523   */\n      sstore\n        /* \"#utility.yul\":9922:10533   */\n      pop\n      pop\n      pop\n        /* \"#utility.yul\":9885:10772   */\n    tag_217:\n      pop\n        /* \"#utility.yul\":9475:10778   */\n      pop\n      pop\n      pop\n        /* \"#utility.yul\":9383:10778   */\n      pop\n      pop\n      jump\t// out\n\n    auxdata: 0xa2646970667358221220f8851f8d9f71ce56ede9d4459d36e65b80d2cd3470e19d3ac7346603435fb60364736f6c63430008180033\n}\n",
				"bytecode": {
					"linkReferences": {},
					"object": "608060405234801561000f575f80fd5b5061091c8061001d5f395ff3fe608060405234801561000f575f80fd5b5060043610610086575f3560e01c806398d5fdca1161005957806398d5fdca14610100578063a035b1fe1461011e578063a6f2ae3a1461013c578063c47f00271461014657610086565b806306fdde031461008a57806317d7de7c146100a8578063893d20e8146100c657806391b7f5ed146100e4575b5f80fd5b610092610162565b60405161009f919061039b565b60405180910390f35b6100b06101ed565b6040516100bd919061039b565b60405180910390f35b6100ce61027c565b6040516100db91906103fa565b60405180910390f35b6100fe60048036038101906100f99190610457565b6102a4565b005b6101086102ae565b6040516101159190610491565b60405180910390f35b6101266102b7565b6040516101339190610491565b60405180910390f35b6101446102bd565b005b610160600480360381019061015b91906105d6565b6102ff565b005b5f805461016e9061064a565b80601f016020809104026020016040519081016040528092919081815260200182805461019a9061064a565b80156101e55780601f106101bc576101008083540402835291602001916101e5565b820191905f5260205f20905b8154815290600101906020018083116101c857829003601f168201915b505050505081565b60605f80546101fb9061064a565b80601f01602080910402602001604051908101604052809291908181526020018280546102279061064a565b80156102725780601f1061024957610100808354040283529160200191610272565b820191905f5260205f20905b81548152906001019060200180831161025557829003601f168201915b5050505050905090565b5f60035f9054906101000a900473ffffffffffffffffffffffffffffffffffffffff16905090565b8060018190555050565b5f600154905090565b60015481565b3360035f6101000a81548173ffffffffffffffffffffffffffffffffffffffff021916908373ffffffffffffffffffffffffffffffffffffffff160217905550565b805f908161030d9190610817565b5050565b5f81519050919050565b5f82825260208201905092915050565b5f5b8381101561034857808201518184015260208101905061032d565b5f8484015250505050565b5f601f19601f8301169050919050565b5f61036d82610311565b610377818561031b565b935061038781856020860161032b565b61039081610353565b840191505092915050565b5f6020820190508181035f8301526103b38184610363565b905092915050565b5f73ffffffffffffffffffffffffffffffffffffffff82169050919050565b5f6103e4826103bb565b9050919050565b6103f4816103da565b82525050565b5f60208201905061040d5f8301846103eb565b92915050565b5f604051905090565b5f80fd5b5f80fd5b5f819050919050565b61043681610424565b8114610440575f80fd5b50565b5f813590506104518161042d565b92915050565b5f6020828403121561046c5761046b61041c565b5b5f61047984828501610443565b91505092915050565b61048b81610424565b82525050565b5f6020820190506104a45f830184610482565b92915050565b5f80fd5b5f80fd5b7f4e487b71000000000000000000000000000000000000000000000000000000005f52604160045260245ffd5b6104e882610353565b810181811067ffffffffffffffff82111715610507576105066104b2565b5b80604052505050565b5f610519610413565b905061052582826104df565b919050565b5f67ffffffffffffffff821115610544576105436104b2565b5b61054d82610353565b9050602081019050919050565b828183375f83830152505050565b5f61057a6105758461052a565b610510565b905082815260208101848484011115610596576105956104ae565b5b6105a184828561055a565b509392505050565b5f82601f8301126105bd576105bc6104aa565b5b81356105cd848260208601610568565b91505092915050565b5f602082840312156105eb576105ea61041c565b5b5f82013567ffffffffffffffff81111561060857610607610420565b5b610614848285016105a9565b91505092915050565b7f4e487b71000000000000000000000000000000000000000000000000000000005f52602260045260245ffd5b5f600282049050600182168061066157607f821691505b6020821081036106745761067361061d565b5b50919050565b5f819050815f5260205f209050919050565b5f6020601f8301049050919050565b5f82821b905092915050565b5f600883026106d67fffffffffffffffffffffffffffffffffffffffffffffffffffffffffffffffff8261069b565b6106e0868361069b565b95508019841693508086168417925050509392505050565b5f819050919050565b5f61071b61071661071184610424565b6106f8565b610424565b9050919050565b5f819050919050565b61073483610701565b61074861074082610722565b8484546106a7565b825550505050565b5f90565b61075c610750565b61076781848461072b565b505050565b5b8181101561078a5761077f5f82610754565b60018101905061076d565b5050565b601f8211156107cf576107a08161067a565b6107a98461068c565b810160208510156107b8578190505b6107cc6107c48561068c565b83018261076c565b50505b505050565b5f82821c905092915050565b5f6107ef5f19846008026107d4565b1980831691505092915050565b5f61080783836107e0565b9150826002028217905092915050565b61082082610311565b67ffffffffffffffff811115610839576108386104b2565b5b610843825461064a565b61084e82828561078e565b5f60209050601f83116001811461087f575f841561086d578287015190505b61087785826107fc565b8655506108de565b601f19841661088d8661067a565b5f5b828110156108b45784890151825560018201915060208501945060208101905061088f565b868310156108d157848901516108cd601f8916826107e0565b8355505b6001600288020188555050505b50505050505056fea2646970667358221220f8851f8d9f71ce56ede9d4459d36e65b80d2cd3470e19d3ac7346603435fb60364736f6c63430008180033",
					"opcodes": "PUSH1 0x80 PUSH1 0x40 MSTORE CALLVALUE DUP1 ISZERO PUSH2 0xF JUMPI PUSH0 DUP1 REVERT JUMPDEST POP PUSH2 0x91C DUP1 PUSH2 0x1D PUSH0 CODECOPY PUSH0 RETURN INVALID PUSH1 0x80 PUSH1 0x40 MSTORE CALLVALUE DUP1 ISZERO PUSH2 0xF JUMPI PUSH0 DUP1 REVERT JUMPDEST POP PUSH1 0x4 CALLDATASIZE LT PUSH2 0x86 JUMPI PUSH0 CALLDATALOAD PUSH1 0xE0 SHR DUP1 PUSH4 0x98D5FDCA GT PUSH2 0x59 JUMPI DUP1 PUSH4 0x98D5FDCA EQ PUSH2 0x100 JUMPI DUP1 PUSH4 0xA035B1FE EQ PUSH2 0x11E JUMPI DUP1 PUSH4 0xA6F2AE3A EQ PUSH2 0x13C JUMPI DUP1 PUSH4 0xC47F0027 EQ PUSH2 0x146 JUMPI PUSH2 0x86 JUMP JUMPDEST DUP1 PUSH4 0x6FDDE03 EQ PUSH2 0x8A JUMPI DUP1 PUSH4 0x17D7DE7C EQ PUSH2 0xA8 JUMPI DUP1 PUSH4 0x893D20E8 EQ PUSH2 0xC6 JUMPI DUP1 PUSH4 0x91B7F5ED EQ PUSH2 0xE4 JUMPI JUMPDEST PUSH0 DUP1 REVERT JUMPDEST PUSH2 0x92 PUSH2 0x162 JUMP JUMPDEST PUSH1 0x40 MLOAD PUSH2 0x9F SWAP2 SWAP1 PUSH2 0x39B JUMP JUMPDEST PUSH1 0x40 MLOAD DUP1 SWAP2 SUB SWAP1 RETURN JUMPDEST PUSH2 0xB0 PUSH2 0x1ED JUMP JUMPDEST PUSH1 0x40 MLOAD PUSH2 0xBD SWAP2 SWAP1 PUSH2 0x39B JUMP JUMPDEST PUSH1 0x40 MLOAD DUP1 SWAP2 SUB SWAP1 RETURN JUMPDEST PUSH2 0xCE PUSH2 0x27C JUMP JUMPDEST PUSH1 0x40 MLOAD PUSH2 0xDB SWAP2 SWAP1 PUSH2 0x3FA JUMP JUMPDEST PUSH1 0x40 MLOAD DUP1 SWAP2 SUB SWAP1 RETURN JUMPDEST PUSH2 0xFE PUSH1 0x4 DUP1 CALLDATASIZE SUB DUP2 ADD SWAP1 PUSH2 0xF9 SWAP2 SWAP1 PUSH2 0x457 JUMP JUMPDEST PUSH2 0x2A4 JUMP JUMPDEST STOP JUMPDEST PUSH2 0x108 PUSH2 0x2AE JUMP JUMPDEST PUSH1 0x40 MLOAD PUSH2 0x115 SWAP2 SWAP1 PUSH2 0x491 JUMP JUMPDEST PUSH1 0x40 MLOAD DUP1 SWAP2 SUB SWAP1 RETURN JUMPDEST PUSH2 0x126 PUSH2 0x2B7 JUMP JUMPDEST PUSH1 0x40 MLOAD PUSH2 0x133 SWAP2 SWAP1 PUSH2 0x491 JUMP JUMPDEST PUSH1 0x40 MLOAD DUP1 SWAP2 SUB SWAP1 RETURN JUMPDEST PUSH2 0x144 PUSH2 0x2BD JUMP JUMPDEST STOP JUMPDEST PUSH2 0x160 PUSH1 0x4 DUP1 CALLDATASIZE SUB DUP2 ADD SWAP1 PUSH2 0x15B SWAP2 SWAP1 PUSH2 0x5D6 JUMP JUMPDEST PUSH2 0x2FF JUMP JUMPDEST STOP JUMPDEST PUSH0 DUP1 SLOAD PUSH2 0x16E SWAP1 PUSH2 0x64A JUMP JUMPDEST DUP1 PUSH1 0x1F ADD PUSH1 0x20 DUP1 SWAP2 DIV MUL PUSH1 0x20 ADD PUSH1 0x40 MLOAD SWAP1 DUP2 ADD PUSH1 0x40 MSTORE DUP1 SWAP3 SWAP2 SWAP1 DUP2 DUP2 MSTORE PUSH1 0x20 ADD DUP3 DUP1 SLOAD PUSH2 0x19A SWAP1 PUSH2 0x64A JUMP JUMPDEST DUP1 ISZERO PUSH2 0x1E5 JUMPI DUP1 PUSH1 0x1F LT PUSH2 0x1BC JUMPI PUSH2 0x100 DUP1 DUP4 SLOAD DIV MUL DUP4 MSTORE SWAP2 PUSH1 0x20 ADD SWAP2 PUSH2 0x1E5 JUMP JUMPDEST DUP3 ADD SWAP2 SWAP1 PUSH0 MSTORE PUSH1 0x20 PUSH0 KECCAK256 SWAP1 JUMPDEST DUP2 SLOAD DUP2 MSTORE SWAP1 PUSH1 0x1 ADD SWAP1 PUSH1 0x20 ADD DUP1 DUP4 GT PUSH2 0x1C8 JUMPI DUP3 SWAP1 SUB PUSH1 0x1F AND DUP3 ADD SWAP2 JUMPDEST POP POP POP POP POP DUP2 JUMP JUMPDEST PUSH1 0x60 PUSH0 DUP1 SLOAD PUSH2 0x1FB SWAP1 PUSH2 0x64A JUMP JUMPDEST DUP1 PUSH1 0x1F ADD PUSH1 0x20 DUP1 SWAP2 DIV MUL PUSH1 0x20 ADD PUSH1 0x40 MLOAD SWAP1 DUP2 ADD PUSH1 0x40 MSTORE DUP1 SWAP3 SWAP2 SWAP1 DUP2 DUP2 MSTORE PUSH1 0x20 ADD DUP3 DUP1 SLOAD PUSH2 0x227 SWAP1 PUSH2 0x64A JUMP JUMPDEST DUP1 ISZERO PUSH2 0x272 JUMPI DUP1 PUSH1 0x1F LT PUSH2 0x249 JUMPI PUSH2 0x100 DUP1 DUP4 SLOAD DIV MUL DUP4 MSTORE SWAP2 PUSH1 0x20 ADD SWAP2 PUSH2 0x272 JUMP JUMPDEST DUP3 ADD SWAP2 SWAP1 PUSH0 MSTORE PUSH1 0x20 PUSH0 KECCAK256 SWAP1 JUMPDEST DUP2 SLOAD DUP2 MSTORE SWAP1 PUSH1 0x1 ADD SWAP1 PUSH1 0x20 ADD DUP1 DUP4 GT PUSH2 0x255 JUMPI DUP3 SWAP1 SUB PUSH1 0x1F AND DUP3 ADD SWAP2 JUMPDEST POP POP POP POP POP SWAP1 POP SWAP1 JUMP JUMPDEST PUSH0 PUSH1 0x3 PUSH0 SWAP1 SLOAD SWAP1 PUSH2 0x100 EXP SWAP1 DIV PUSH20 0xFFFFFFFFFFFFFFFFFFFFFFFFFFFFFFFFFFFFFFFF AND SWAP1 POP SWAP1 JUMP JUMPDEST DUP1 PUSH1 0x1 DUP2 SWAP1 SSTORE POP POP JUMP JUMPDEST PUSH0 PUSH1 0x1 SLOAD SWAP1 POP SWAP1 JUMP JUMPDEST PUSH1 0x1 SLOAD DUP2 JUMP JUMPDEST CALLER PUSH1 0x3 PUSH0 PUSH2 0x100 EXP DUP2 SLOAD DUP2 PUSH20 0xFFFFFFFFFFFFFFFFFFFFFFFFFFFFFFFFFFFFFFFF MUL NOT AND SWAP1 DUP4 PUSH20 0xFFFFFFFFFFFFFFFFFFFFFFFFFFFFFFFFFFFFFFFF AND MUL OR SWAP1 SSTORE POP JUMP JUMPDEST DUP1 PUSH0 SWAP1 DUP2 PUSH2 0x30D SWAP2 SWAP1 PUSH2 0x817 JUMP JUMPDEST POP POP JUMP JUMPDEST PUSH0 DUP2 MLOAD SWAP1 POP SWAP2 SWAP1 POP JUMP JUMPDEST PUSH0 DUP3 DUP3 MSTORE PUSH1 0x20 DUP3 ADD SWAP1 POP SWAP3 SWAP2 POP POP JUMP JUMPDEST PUSH0 JUMPDEST DUP4 DUP2 LT ISZERO PUSH2 0x348 JUMPI DUP1 DUP3 ADD MLOAD DUP2 DUP5 ADD MSTORE PUSH1 0x20 DUP2 ADD SWAP1 POP PUSH2 0x32D JUMP JUMPDEST PUSH0 DUP5 DUP5 ADD MSTORE POP POP POP POP JUMP JUMPDEST PUSH0 PUSH1 0x1F NOT PUSH1 0x1F DUP4 ADD AND SWAP1 POP SWAP2 SWAP1 POP JUMP JUMPDEST PUSH0 PUSH2 0x36D DUP3 PUSH2 0x311 JUMP JUMPDEST PUSH2 0x377 DUP2 DUP6 PUSH2 0x31B JUMP JUMPDEST SWAP4 POP PUSH2 0x387 DUP2 DUP6 PUSH1 0x20 DUP7 ADD PUSH2 0x32B JUMP JUMPDEST PUSH2 0x390 DUP2 PUSH2 0x353 JUMP JUMPDEST DUP5 ADD SWAP2 POP POP SWAP3 SWAP2 POP POP JUMP JUMPDEST PUSH0 PUSH1 0x20 DUP3 ADD SWAP1 POP DUP2 DUP2 SUB PUSH0 DUP4 ADD MSTORE PUSH2 0x3B3 DUP2 DUP5 PUSH2 0x363 JUMP JUMPDEST SWAP1 POP SWAP3 SWAP2 POP POP JUMP JUMPDEST PUSH0 PUSH20 0xFFFFFFFFFFFFFFFFFFFFFFFFFFFFFFFFFFFFFFFF DUP3 AND SWAP1 POP SWAP2 SWAP1 POP JUMP JUMPDEST PUSH0 PUSH2 0x3E4 DUP3 PUSH2 0x3BB JUMP JUMPDEST SWAP1 POP SWAP2 SWAP1 POP JUMP JUMPDEST PUSH2 0x3F4 DUP2 PUSH2 0x3DA JUMP JUMPDEST DUP3 MSTORE POP POP JUMP JUMPDEST PUSH0 PUSH1 0x20 DUP3 ADD SWAP1 POP PUSH2 0x40D PUSH0 DUP4 ADD DUP5 PUSH2 0x3EB JUMP JUMPDEST SWAP3 SWAP2 POP POP JUMP JUMPDEST PUSH0 PUSH1 0x40 MLOAD SWAP1 POP SWAP1 JUMP JUMPDEST PUSH0 DUP1 REVERT JUMPDEST PUSH0 DUP1 REVERT JUMPDEST PUSH0 DUP2 SWAP1 POP SWAP2 SWAP1 POP JUMP JUMPDEST PUSH2 0x436 DUP2 PUSH2 0x424 JUMP JUMPDEST DUP2 EQ PUSH2 0x440 JUMPI PUSH0 DUP1 REVERT JUMPDEST POP JUMP JUMPDEST PUSH0 DUP2 CALLDATALOAD SWAP1 POP PUSH2 0x451 DUP2 PUSH2 0x42D JUMP JUMPDEST SWAP3 SWAP2 POP POP JUMP JUMPDEST PUSH0 PUSH1 0x20 DUP3 DUP5 SUB SLT ISZERO PUSH2 0x46C JUMPI PUSH2 0x46B PUSH2 0x41C JUMP JUMPDEST JUMPDEST PUSH0 PUSH2 0x479 DUP5 DUP3 DUP6 ADD PUSH2 0x443 JUMP JUMPDEST SWAP2 POP POP SWAP3 SWAP2 POP POP JUMP JUMPDEST PUSH2 0x48B DUP2 PUSH2 0x424 JUMP JUMPDEST DUP3 MSTORE POP POP JUMP JUMPDEST PUSH0 PUSH1 0x20 DUP3 ADD SWAP1 POP PUSH2 0x4A4 PUSH0 DUP4 ADD DUP5 PUSH2 0x482 JUMP JUMPDEST SWAP3 SWAP2 POP POP JUMP JUMPDEST PUSH0 DUP1 REVERT JUMPDEST PUSH0 DUP1 REVERT JUMPDEST PUSH32 0x4E487B7100000000000000000000000000000000000000000000000000000000 PUSH0 MSTORE PUSH1 0x41 PUSH1 0x4 MSTORE PUSH1 0x24 PUSH0 REVERT JUMPDEST PUSH2 0x4E8 DUP3 PUSH2 0x353 JUMP JUMPDEST DUP2 ADD DUP2 DUP2 LT PUSH8 0xFFFFFFFFFFFFFFFF DUP3 GT OR ISZERO PUSH2 0x507 JUMPI PUSH2 0x506 PUSH2 0x4B2 JUMP JUMPDEST JUMPDEST DUP1 PUSH1 0x40 MSTORE POP POP POP JUMP JUMPDEST PUSH0 PUSH2 0x519 PUSH2 0x413 JUMP JUMPDEST SWAP1 POP PUSH2 0x525 DUP3 DUP3 PUSH2 0x4DF JUMP JUMPDEST SWAP2 SWAP1 POP JUMP JUMPDEST PUSH0 PUSH8 0xFFFFFFFFFFFFFFFF DUP3 GT ISZERO PUSH2 0x544 JUMPI PUSH2 0x543 PUSH2 0x4B2 JUMP JUMPDEST JUMPDEST PUSH2 0x54D DUP3 PUSH2 0x353 JUMP JUMPDEST SWAP1 POP PUSH1 0x20 DUP2 ADD SWAP1 POP SWAP2 SWAP1 POP JUMP JUMPDEST DUP3 DUP2 DUP4 CALLDATACOPY PUSH0 DUP4 DUP4 ADD MSTORE POP POP POP JUMP JUMPDEST PUSH0 PUSH2 0x57A PUSH2 0x575 DUP5 PUSH2 0x52A JUMP JUMPDEST PUSH2 0x510 JUMP JUMPDEST SWAP1 POP DUP3 DUP2 MSTORE PUSH1 0x20 DUP2 ADD DUP5 DUP5 DUP5 ADD GT ISZERO PUSH2 0x596 JUMPI PUSH2 0x595 PUSH2 0x4AE JUMP JUMPDEST JUMPDEST PUSH2 0x5A1 DUP5 DUP3 DUP6 PUSH2 0x55A JUMP JUMPDEST POP SWAP4 SWAP3 POP POP POP JUMP JUMPDEST PUSH0 DUP3 PUSH1 0x1F DUP4 ADD SLT PUSH2 0x5BD JUMPI PUSH2 0x5BC PUSH2 0x4AA JUMP JUMPDEST JUMPDEST DUP2 CALLDATALOAD PUSH2 0x5CD DUP5 DUP3 PUSH1 0x20 DUP7 ADD PUSH2 0x568 JUMP JUMPDEST SWAP2 POP POP SWAP3 SWAP2 POP POP JUMP JUMPDEST PUSH0 PUSH1 0x20 DUP3 DUP5 SUB SLT ISZERO PUSH2 0x5EB JUMPI PUSH2 0x5EA PUSH2 0x41C JUMP JUMPDEST JUMPDEST PUSH0 DUP3 ADD CALLDATALOAD PUSH8 0xFFFFFFFFFFFFFFFF DUP2 GT ISZERO PUSH2 0x608 JUMPI PUSH2 0x607 PUSH2 0x420 JUMP JUMPDEST JUMPDEST PUSH2 0x614 DUP5 DUP3 DUP6 ADD PUSH2 0x5A9 JUMP JUMPDEST SWAP2 POP POP SWAP3 SWAP2 POP POP JUMP JUMPDEST PUSH32 0x4E487B7100000000000000000000000000000000000000000000000000000000 PUSH0 MSTORE PUSH1 0x22 PUSH1 0x4 MSTORE PUSH1 0x24 PUSH0 REVERT JUMPDEST PUSH0 PUSH1 0x2 DUP3 DIV SWAP1 POP PUSH1 0x1 DUP3 AND DUP1 PUSH2 0x661 JUMPI PUSH1 0x7F DUP3 AND SWAP2 POP JUMPDEST PUSH1 0x20 DUP3 LT DUP2 SUB PUSH2 0x674 JUMPI PUSH2 0x673 PUSH2 0x61D JUMP JUMPDEST JUMPDEST POP SWAP2 SWAP1 POP JUMP JUMPDEST PUSH0 DUP2 SWAP1 POP DUP2 PUSH0 MSTORE PUSH1 0x20 PUSH0 KECCAK256 SWAP1 POP SWAP2 SWAP1 POP JUMP JUMPDEST PUSH0 PUSH1 0x20 PUSH1 0x1F DUP4 ADD DIV SWAP1 POP SWAP2 SWAP1 POP JUMP JUMPDEST PUSH0 DUP3 DUP3 SHL SWAP1 POP SWAP3 SWAP2 POP POP JUMP JUMPDEST PUSH0 PUSH1 0x8 DUP4 MUL PUSH2 0x6D6 PUSH32 0xFFFFFFFFFFFFFFFFFFFFFFFFFFFFFFFFFFFFFFFFFFFFFFFFFFFFFFFFFFFFFFFF DUP3 PUSH2 0x69B JUMP JUMPDEST PUSH2 0x6E0 DUP7 DUP4 PUSH2 0x69B JUMP JUMPDEST SWAP6 POP DUP1 NOT DUP5 AND SWAP4 POP DUP1 DUP7 AND DUP5 OR SWAP3 POP POP POP SWAP4 SWAP3 POP POP POP JUMP JUMPDEST PUSH0 DUP2 SWAP1 POP SWAP2 SWAP1 POP JUMP JUMPDEST PUSH0 PUSH2 0x71B PUSH2 0x716 PUSH2 0x711 DUP5 PUSH2 0x424 JUMP JUMPDEST PUSH2 0x6F8 JUMP JUMPDEST PUSH2 0x424 JUMP JUMPDEST SWAP1 POP SWAP2 SWAP1 POP JUMP JUMPDEST PUSH0 DUP2 SWAP1 POP SWAP2 SWAP1 POP JUMP JUMPDEST PUSH2 0x734 DUP4 PUSH2 0x701 JUMP JUMPDEST PUSH2 0x748 PUSH2 0x740 DUP3 PUSH2 0x722 JUMP JUMPDEST DUP5 DUP5 SLOAD PUSH2 0x6A7 JUMP JUMPDEST DUP3 SSTORE POP POP POP POP JUMP JUMPDEST PUSH0 SWAP1 JUMP JUMPDEST PUSH2 0x75C PUSH2 0x750 JUMP JUMPDEST PUSH2 0x767 DUP2 DUP5 DUP5 PUSH2 0x72B JUMP JUMPDEST POP POP POP JUMP JUMPDEST JUMPDEST DUP2 DUP2 LT ISZERO PUSH2 0x78A JUMPI PUSH2 0x77F PUSH0 DUP3 PUSH2 0x754 JUMP JUMPDEST PUSH1 0x1 DUP2 ADD SWAP1 POP PUSH2 0x76D JUMP JUMPDEST POP POP JUMP JUMPDEST PUSH1 0x1F DUP3 GT ISZERO PUSH2 0x7CF JUMPI PUSH2 0x7A0 DUP2 PUSH2 0x67A JUMP JUMPDEST PUSH2 0x7A9 DUP5 PUSH2 0x68C JUMP JUMPDEST DUP2 ADD PUSH1 0x20 DUP6 LT ISZERO PUSH2 0x7B8 JUMPI DUP2 SWAP1 POP JUMPDEST PUSH2 0x7CC PUSH2 0x7C4 DUP6 PUSH2 0x68C JUMP JUMPDEST DUP4 ADD DUP3 PUSH2 0x76C JUMP JUMPDEST POP POP JUMPDEST POP POP POP JUMP JUMPDEST PUSH0 DUP3 DUP3 SHR SWAP1 POP SWAP3 SWAP2 POP POP JUMP JUMPDEST PUSH0 PUSH2 0x7EF PUSH0 NOT DUP5 PUSH1 0x8 MUL PUSH2 0x7D4 JUMP JUMPDEST NOT DUP1 DUP4 AND SWAP2 POP POP SWAP3 SWAP2 POP POP JUMP JUMPDEST PUSH0 PUSH2 0x807 DUP4 DUP4 PUSH2 0x7E0 JUMP JUMPDEST SWAP2 POP DUP3 PUSH1 0x2 MUL DUP3 OR SWAP1 POP SWAP3 SWAP2 POP POP JUMP JUMPDEST PUSH2 0x820 DUP3 PUSH2 0x311 JUMP JUMPDEST PUSH8 0xFFFFFFFFFFFFFFFF DUP2 GT ISZERO PUSH2 0x839 JUMPI PUSH2 0x838 PUSH2 0x4B2 JUMP JUMPDEST JUMPDEST PUSH2 0x843 DUP3 SLOAD PUSH2 0x64A JUMP JUMPDEST PUSH2 0x84E DUP3 DUP3 DUP6 PUSH2 0x78E JUMP JUMPDEST PUSH0 PUSH1 0x20 SWAP1 POP PUSH1 0x1F DUP4 GT PUSH1 0x1 DUP2 EQ PUSH2 0x87F JUMPI PUSH0 DUP5 ISZERO PUSH2 0x86D JUMPI DUP3 DUP8 ADD MLOAD SWAP1 POP JUMPDEST PUSH2 0x877 DUP6 DUP3 PUSH2 0x7FC JUMP JUMPDEST DUP7 SSTORE POP PUSH2 0x8DE JUMP JUMPDEST PUSH1 0x1F NOT DUP5 AND PUSH2 0x88D DUP7 PUSH2 0x67A JUMP JUMPDEST PUSH0 JUMPDEST DUP3 DUP2 LT ISZERO PUSH2 0x8B4 JUMPI DUP5 DUP10 ADD MLOAD DUP3 SSTORE PUSH1 0x1 DUP3 ADD SWAP2 POP PUSH1 0x20 DUP6 ADD SWAP5 POP PUSH1 0x20 DUP2 ADD SWAP1 POP PUSH2 0x88F JUMP JUMPDEST DUP7 DUP4 LT ISZERO PUSH2 0x8D1 JUMPI DUP5 DUP10 ADD MLOAD PUSH2 0x8CD PUSH1 0x1F DUP10 AND DUP3 PUSH2 0x7E0 JUMP JUMPDEST DUP4 SSTORE POP JUMPDEST PUSH1 0x1 PUSH1 0x2 DUP9 MUL ADD DUP9 SSTORE POP POP POP JUMPDEST POP POP POP POP POP POP JUMP INVALID LOG2 PUSH5 0x6970667358 0x22 SLT KECCAK256 0xF8 DUP6 0x1F DUP14 SWAP16 PUSH18 0xCE56EDE9D4459D36E65B80D2CD3470E19D3A 0xC7 CALLVALUE PUSH7 0x3435FB6036473 PUSH16 0x6C634300081800330000000000000000 "
				},
				"gasEstimates": {
					"creation": {
						"codeDepositCost": "466400",
						"executionCost": "497",
						"totalCost": "466897"
					},
					"external": {
						"buy()": "24452",
						"getName()": "infinite",
						"getOwner()": "2560",
						"getPrice()": "2432",
						"name()": "infinite",
						"price()": "2447",
						"setName(string)": "infinite",
						"setPrice(uint256)": "22582"
					}
				},
				"methodIdentifiers": {
					"buy()": "a6f2ae3a",
					"getName()": "17d7de7c",
					"getOwner()": "893d20e8",
					"getPrice()": "98d5fdca",
					"name()": "06fdde03",
					"price()": "a035b1fe",
					"setName(string)": "c47f0027",
					"setPrice(uint256)": "91b7f5ed"
				}
			},
			"storageLayout": {
				"storage": [
					{
						"astId": 3,
						"contract": "chapter05/sample5-03.sol:Animal",
						"label": "name",
						"offset": 0,
						"slot": "0",
						"type": "t_string_storage"
					},
					{
						"astId": 5,
						"contract": "chapter05/sample5-03.sol:Animal",
						"label": "price",
						"offset": 0,
						"slot": "1",
						"type": "t_uint256"
					},
					{
						"astId": 7,
						"contract": "chapter05/sample5-03.sol:Animal",
						"label": "age",
						"offset": 0,
						"slot": "2",
						"type": "t_uint256"
					},
					{
						"astId": 9,
						"contract": "chapter05/sample5-03.sol:Animal",
						"label": "owner",
						"offset": 0,
						"slot": "3",
						"type": "t_address"
					}
				],
				"types": {
					"t_address": {
						"encoding": "inplace",
						"label": "address",
						"numberOfBytes": "20"
					},
					"t_string_storage": {
						"encoding": "bytes",
						"label": "string",
						"numberOfBytes": "32"
					},
					"t_uint256": {
						"encoding": "inplace",
						"label": "uint256",
						"numberOfBytes": "32"
					}
				}
			},
			"userdoc": {
				"kind": "user",
				"methods": {},
				"version": 1
			}
		}
	}
}