{
	"sample3-5.sol": {
		"Person": {
			"abi": [
				{
					"inputs": [],
					"name": "GetSex",
					"outputs": [
						{
							"internalType": "enum Person.Sex",
							"name": "",
							"type": "uint8"
						}
					],
					"stateMutability": "view",
					"type": "function"
				},
				{
					"inputs": [],
					"name": "SetFemale",
					"outputs": [],
					"stateMutability": "nonpayable",
					"type": "function"
				}
			],
			"devdoc": {
				"kind": "dev",
				"methods": {},
				"version": 1
			},
			"evm": {
				"assembly": "    /* \"sample3-5.sol\":61:309  contract Person{... */\n  mstore(0x40, 0x80)\n  callvalue\n  dup1\n  iszero\n  tag_1\n  jumpi\n  revert(0x00, 0x00)\ntag_1:\n  pop\n  dataSize(sub_0)\n  dup1\n  dataOffset(sub_0)\n  0x00\n  codecopy\n  0x00\n  return\nstop\n\nsub_0: assembly {\n        /* \"sample3-5.sol\":61:309  contract Person{... */\n      mstore(0x40, 0x80)\n      callvalue\n      dup1\n      iszero\n      tag_1\n      jumpi\n      revert(0x00, 0x00)\n    tag_1:\n      pop\n      jumpi(tag_2, lt(calldatasize, 0x04))\n      shr(0xe0, calldataload(0x00))\n      dup1\n      0x54398a67\n      eq\n      tag_3\n      jumpi\n      dup1\n      0xdf8fbdb1\n      eq\n      tag_4\n      jumpi\n    tag_2:\n      revert(0x00, 0x00)\n        /* \"sample3-5.sol\":166:229  function SetFemale() public {... */\n    tag_3:\n      tag_5\n      tag_6\n      jump\t// in\n    tag_5:\n      stop\n        /* \"sample3-5.sol\":235:306  function GetSex() public view returns(Sex){... */\n    tag_4:\n      tag_7\n      tag_8\n      jump\t// in\n    tag_7:\n      mload(0x40)\n      tag_9\n      swap2\n      swap1\n      tag_10\n      jump\t// in\n    tag_9:\n      mload(0x40)\n      dup1\n      swap2\n      sub\n      swap1\n      return\n        /* \"sample3-5.sol\":166:229  function SetFemale() public {... */\n    tag_6:\n        /* \"sample3-5.sol\":211:221  Sex.Female */\n      0x01\n        /* \"sample3-5.sol\":205:208  sex */\n      0x02\n      0x00\n        /* \"sample3-5.sol\":205:221  sex = Sex.Female */\n      0x0100\n      exp\n      dup2\n      sload\n      dup2\n      0xff\n      mul\n      not\n      and\n      swap1\n      dup4\n      0x01\n      dup2\n      gt\n      iszero\n      tag_12\n      jumpi\n      tag_13\n      tag_14\n      jump\t// in\n    tag_13:\n    tag_12:\n      mul\n      or\n      swap1\n      sstore\n      pop\n        /* \"sample3-5.sol\":166:229  function SetFemale() public {... */\n      jump\t// out\n        /* \"sample3-5.sol\":235:306  function GetSex() public view returns(Sex){... */\n    tag_8:\n        /* \"sample3-5.sol\":273:276  Sex */\n      0x00\n        /* \"sample3-5.sol\":295:298  sex */\n      0x02\n      0x00\n      swap1\n      sload\n      swap1\n      0x0100\n      exp\n      swap1\n      div\n      0xff\n      and\n        /* \"sample3-5.sol\":288:298  return sex */\n      swap1\n      pop\n        /* \"sample3-5.sol\":235:306  function GetSex() public view returns(Sex){... */\n      swap1\n      jump\t// out\n        /* \"#utility.yul\":7:187   */\n    tag_14:\n        /* \"#utility.yul\":55:132   */\n      0x4e487b7100000000000000000000000000000000000000000000000000000000\n        /* \"#utility.yul\":52:53   */\n      0x00\n        /* \"#utility.yul\":45:133   */\n      mstore\n        /* \"#utility.yul\":152:156   */\n      0x21\n        /* \"#utility.yul\":149:150   */\n      0x04\n        /* \"#utility.yul\":142:157   */\n      mstore\n        /* \"#utility.yul\":176:180   */\n      0x24\n        /* \"#utility.yul\":173:174   */\n      0x00\n        /* \"#utility.yul\":166:181   */\n      revert\n        /* \"#utility.yul\":193:303   */\n    tag_16:\n        /* \"#utility.yul\":271:272   */\n      0x02\n        /* \"#utility.yul\":264:269   */\n      dup2\n        /* \"#utility.yul\":261:273   */\n      lt\n        /* \"#utility.yul\":251:297   */\n      tag_23\n      jumpi\n        /* \"#utility.yul\":277:295   */\n      tag_24\n      tag_14\n      jump\t// in\n    tag_24:\n        /* \"#utility.yul\":251:297   */\n    tag_23:\n        /* \"#utility.yul\":193:303   */\n      pop\n      jump\t// out\n        /* \"#utility.yul\":309:430   */\n    tag_17:\n        /* \"#utility.yul\":351:358   */\n      0x00\n        /* \"#utility.yul\":380:385   */\n      dup2\n        /* \"#utility.yul\":369:385   */\n      swap1\n      pop\n        /* \"#utility.yul\":386:424   */\n      tag_26\n        /* \"#utility.yul\":418:423   */\n      dup3\n        /* \"#utility.yul\":386:424   */\n      tag_16\n      jump\t// in\n    tag_26:\n        /* \"#utility.yul\":309:430   */\n      swap2\n      swap1\n      pop\n      jump\t// out\n        /* \"#utility.yul\":436:557   */\n    tag_18:\n        /* \"#utility.yul\":489:498   */\n      0x00\n        /* \"#utility.yul\":522:551   */\n      tag_28\n        /* \"#utility.yul\":545:550   */\n      dup3\n        /* \"#utility.yul\":522:551   */\n      tag_17\n      jump\t// in\n    tag_28:\n        /* \"#utility.yul\":509:551   */\n      swap1\n      pop\n        /* \"#utility.yul\":436:557   */\n      swap2\n      swap1\n      pop\n      jump\t// out\n        /* \"#utility.yul\":563:700   */\n    tag_19:\n        /* \"#utility.yul\":653:693   */\n      tag_30\n        /* \"#utility.yul\":687:692   */\n      dup2\n        /* \"#utility.yul\":653:693   */\n      tag_18\n      jump\t// in\n    tag_30:\n        /* \"#utility.yul\":648:651   */\n      dup3\n        /* \"#utility.yul\":641:694   */\n      mstore\n        /* \"#utility.yul\":563:700   */\n      pop\n      pop\n      jump\t// out\n        /* \"#utility.yul\":706:934   */\n    tag_10:\n        /* \"#utility.yul\":802:806   */\n      0x00\n        /* \"#utility.yul\":840:842   */\n      0x20\n        /* \"#utility.yul\":829:838   */\n      dup3\n        /* \"#utility.yul\":825:843   */\n      add\n        /* \"#utility.yul\":817:843   */\n      swap1\n      pop\n        /* \"#utility.yul\":853:927   */\n      tag_32\n        /* \"#utility.yul\":924:925   */\n      0x00\n        /* \"#utility.yul\":913:922   */\n      dup4\n        /* \"#utility.yul\":909:926   */\n      add\n        /* \"#utility.yul\":900:906   */\n      dup5\n        /* \"#utility.yul\":853:927   */\n      tag_19\n      jump\t// in\n    tag_32:\n        /* \"#utility.yul\":706:934   */\n      swap3\n      swap2\n      pop\n      pop\n      jump\t// out\n\n    auxdata: 0xa264697066735822122088d647b73bffe2bf973783561decae5039bb968cb58eefef9a6745089254ce7f64736f6c634300081e0033\n}\n",
				"bytecode": {
					"linkReferences": {},
					"object": "6080604052348015600e575f5ffd5b506101638061001c5f395ff3fe608060405234801561000f575f5ffd5b5060043610610034575f3560e01c806354398a6714610038578063df8fbdb114610042575b5f5ffd5b610040610060565b005b61004a61008c565b6040516100579190610114565b60405180910390f35b600160025f6101000a81548160ff02191690836001811115610085576100846100a1565b5b0217905550565b5f60025f9054906101000a900460ff16905090565b7f4e487b71000000000000000000000000000000000000000000000000000000005f52602160045260245ffd5b600281106100df576100de6100a1565b5b50565b5f8190506100ef826100ce565b919050565b5f6100fe826100e2565b9050919050565b61010e816100f4565b82525050565b5f6020820190506101275f830184610105565b9291505056fea264697066735822122088d647b73bffe2bf973783561decae5039bb968cb58eefef9a6745089254ce7f64736f6c634300081e0033",
					"opcodes": "PUSH1 0x80 PUSH1 0x40 MSTORE CALLVALUE DUP1 ISZERO PUSH1 0xE JUMPI PUSH0 PUSH0 REVERT JUMPDEST POP PUSH2 0x163 DUP1 PUSH2 0x1C PUSH0 CODECOPY PUSH0 RETURN INVALID PUSH1 0x80 PUSH1 0x40 MSTORE CALLVALUE DUP1 ISZERO PUSH2 0xF JUMPI PUSH0 PUSH0 REVERT JUMPDEST POP PUSH1 0x4 CALLDATASIZE LT PUSH2 0x34 JUMPI PUSH0 CALLDATALOAD PUSH1 0xE0 SHR DUP1 PUSH4 0x54398A67 EQ PUSH2 0x38 JUMPI DUP1 PUSH4 0xDF8FBDB1 EQ PUSH2 0x42 JUMPI JUMPDEST PUSH0 PUSH0 REVERT JUMPDEST PUSH2 0x40 PUSH2 0x60 JUMP JUMPDEST STOP JUMPDEST PUSH2 0x4A PUSH2 0x8C JUMP JUMPDEST PUSH1 0x40 MLOAD PUSH2 0x57 SWAP2 SWAP1 PUSH2 0x114 JUMP JUMPDEST PUSH1 0x40 MLOAD DUP1 SWAP2 SUB SWAP1 RETURN JUMPDEST PUSH1 0x1 PUSH1 0x2 PUSH0 PUSH2 0x100 EXP DUP2 SLOAD DUP2 PUSH1 0xFF MUL NOT AND SWAP1 DUP4 PUSH1 0x1 DUP2 GT ISZERO PUSH2 0x85 JUMPI PUSH2 0x84 PUSH2 0xA1 JUMP JUMPDEST JUMPDEST MUL OR SWAP1 SSTORE POP JUMP JUMPDEST PUSH0 PUSH1 0x2 PUSH0 SWAP1 SLOAD SWAP1 PUSH2 0x100 EXP SWAP1 DIV PUSH1 0xFF AND SWAP1 POP SWAP1 JUMP JUMPDEST PUSH32 0x4E487B7100000000000000000000000000000000000000000000000000000000 PUSH0 MSTORE PUSH1 0x21 PUSH1 0x4 MSTORE PUSH1 0x24 PUSH0 REVERT JUMPDEST PUSH1 0x2 DUP2 LT PUSH2 0xDF JUMPI PUSH2 0xDE PUSH2 0xA1 JUMP JUMPDEST JUMPDEST POP JUMP JUMPDEST PUSH0 DUP2 SWAP1 POP PUSH2 0xEF DUP3 PUSH2 0xCE JUMP JUMPDEST SWAP2 SWAP1 POP JUMP JUMPDEST PUSH0 PUSH2 0xFE DUP3 PUSH2 0xE2 JUMP JUMPDEST SWAP1 POP SWAP2 SWAP1 POP JUMP JUMPDEST PUSH2 0x10E DUP2 PUSH2 0xF4 JUMP JUMPDEST DUP3 MSTORE POP POP JUMP JUMPDEST PUSH0 PUSH1 0x20 DUP3 ADD SWAP1 POP PUSH2 0x127 PUSH0 DUP4 ADD DUP5 PUSH2 0x105 JUMP JUMPDEST SWAP3 SWAP2 POP POP JUMP INVALID LOG2 PUSH5 0x6970667358 0x22 SLT KECCAK256 DUP9 0xD6 SELFBALANCE 0xB7 EXTCODESIZE SELFDESTRUCT 0xE2 0xBF SWAP8 CALLDATACOPY DUP4 JUMP SAR EOFCREATE 0xAE POP CODECOPY 0xBB SWAP7 DUP13 0xB5 DUP15 0xEF 0xEF SWAP11 PUSH8 0x45089254CE7F6473 PUSH16 0x6C634300081E00330000000000000000 "
				},
				"gasEstimates": {
					"creation": {
						"codeDepositCost": "71000",
						"executionCost": "121",
						"totalCost": "71121"
					},
					"external": {
						"GetSex()": "2561",
						"SetFemale()": "24407"
					}
				},
				"methodIdentifiers": {
					"GetSex()": "df8fbdb1",
					"SetFemale()": "54398a67"
				}
			},
			"storageLayout": {
				"storage": [
					{
						"astId": 6,
						"contract": "sample3-5.sol:Person",
						"label": "name",
						"offset": 0,
						"slot": "0",
						"type": "t_string_storage"
					},
					{
						"astId": 8,
						"contract": "sample3-5.sol:Person",
						"label": "age",
						"offset": 0,
						"slot": "1",
						"type": "t_uint256"
					},
					{
						"astId": 11,
						"contract": "sample3-5.sol:Person",
						"label": "sex",
						"offset": 0,
						"slot": "2",
						"type": "t_enum(Sex)4"
					}
				],
				"types": {
					"t_enum(Sex)4": {
						"encoding": "inplace",
						"label": "enum Person.Sex",
						"numberOfBytes": "1"
					},
					"t_string_storage": {
						"encoding": "bytes",
						"label": "string",
						"numberOfBytes": "32"
					},
					"t_uint256": {
						"encoding": "inplace",
						"label": "uint256",
						"numberOfBytes": "32"
					}
				}
			},
			"userdoc": {
				"kind": "user",
				"methods": {},
				"version": 1
			}
		}
	}
}