{
	"chapter04/review.sol": {
		"StudentRegistry": {
			"abi": [
				{
					"inputs": [],
					"stateMutability": "nonpayable",
					"type": "constructor"
				},
				{
					"inputs": [],
					"name": "SCHOOL_NAME",
					"outputs": [
						{
							"internalType": "string",
							"name": "",
							"type": "string"
						}
					],
					"stateMutability": "view",
					"type": "function"
				},
				{
					"inputs": [
						{
							"internalType": "uint256",
							"name": "_id",
							"type": "uint256"
						},
						{
							"internalType": "string",
							"name": "_name",
							"type": "string"
						},
						{
							"internalType": "uint256",
							"name": "_age",
							"type": "uint256"
						}
					],
					"name": "addStudent",
					"outputs": [],
					"stateMutability": "nonpayable",
					"type": "function"
				},
				{
					"inputs": [],
					"name": "getAllStudentIds",
					"outputs": [
						{
							"internalType": "uint256[]",
							"name": "",
							"type": "uint256[]"
						}
					],
					"stateMutability": "view",
					"type": "function"
				},
				{
					"inputs": [],
					"name": "owner",
					"outputs": [
						{
							"internalType": "address",
							"name": "",
							"type": "address"
						}
					],
					"stateMutability": "view",
					"type": "function"
				},
				{
					"inputs": [],
					"name": "studentCount",
					"outputs": [
						{
							"internalType": "uint256",
							"name": "",
							"type": "uint256"
						}
					],
					"stateMutability": "view",
					"type": "function"
				},
				{
					"inputs": [
						{
							"internalType": "uint256",
							"name": "",
							"type": "uint256"
						}
					],
					"name": "studentIds",
					"outputs": [
						{
							"internalType": "uint256",
							"name": "",
							"type": "uint256"
						}
					],
					"stateMutability": "view",
					"type": "function"
				},
				{
					"inputs": [
						{
							"internalType": "uint256",
							"name": "",
							"type": "uint256"
						}
					],
					"name": "studentsById",
					"outputs": [
						{
							"internalType": "uint256",
							"name": "id",
							"type": "uint256"
						},
						{
							"internalType": "string",
							"name": "name",
							"type": "string"
						},
						{
							"internalType": "uint256",
							"name": "age",
							"type": "uint256"
						},
						{
							"internalType": "bool",
							"name": "isEnrolled",
							"type": "bool"
						}
					],
					"stateMutability": "view",
					"type": "function"
				},
				{
					"inputs": [
						{
							"internalType": "uint256",
							"name": "_id",
							"type": "uint256"
						},
						{
							"internalType": "uint256",
							"name": "_newAge",
							"type": "uint256"
						}
					],
					"name": "updateStudentAge",
					"outputs": [],
					"stateMutability": "nonpayable",
					"type": "function"
				}
			],
			"devdoc": {
				"details": "这个合约用于管理学生信息，包括注册新学生、查询信息等。",
				"kind": "dev",
				"methods": {
					"addStudent(uint256,string,uint256)": {
						"details": "注册一个新学生",
						"params": {
							"_age": "学生年龄",
							"_id": "学生ID",
							"_name": "学生姓名"
						}
					},
					"getAllStudentIds()": {
						"details": "获取所有学生ID列表",
						"returns": {
							"_0": "uint[] 所有学生ID的数组"
						}
					},
					"updateStudentAge(uint256,uint256)": {
						"details": "更新一个学生的年龄",
						"params": {
							"_id": "学生ID",
							"_newAge": "新的年龄"
						}
					}
				},
				"title": "StudentRegistry",
				"version": 1
			},
			"evm": {
				"assembly": "    /* \"chapter04/review.sol\":189:5125  contract StudentRegistry {... */\n  mstore(0x40, 0x80)\n    /* \"chapter04/review.sol\":2261:2460  constructor() {... */\n  callvalue\n  dup1\n  iszero\n  tag_1\n  jumpi\n  0x00\n  dup1\n  revert\ntag_1:\n  pop\n    /* \"chapter04/review.sol\":2442:2452  msg.sender */\n  caller\n    /* \"chapter04/review.sol\":2434:2439  owner */\n  0x00\n  dup1\n    /* \"chapter04/review.sol\":2434:2452  owner = msg.sender */\n  0x0100\n  exp\n  dup2\n  sload\n  dup2\n  0xffffffffffffffffffffffffffffffffffffffff\n  mul\n  not\n  and\n  swap1\n  dup4\n  0xffffffffffffffffffffffffffffffffffffffff\n  and\n  mul\n  or\n  swap1\n  sstore\n  pop\n    /* \"chapter04/review.sol\":189:5125  contract StudentRegistry {... */\n  dataSize(sub_0)\n  dup1\n  dataOffset(sub_0)\n  0x00\n  codecopy\n  0x00\n  return\nstop\n\nsub_0: assembly {\n        /* \"chapter04/review.sol\":189:5125  contract StudentRegistry {... */\n      mstore(0x40, 0x80)\n      callvalue\n      dup1\n      iszero\n      tag_1\n      jumpi\n      0x00\n      dup1\n      revert\n    tag_1:\n      pop\n      jumpi(tag_2, lt(calldatasize, 0x04))\n      shr(0xe0, calldataload(0x00))\n      dup1\n      0x834d336c\n      gt\n      tag_11\n      jumpi\n      dup1\n      0x834d336c\n      eq\n      tag_7\n      jumpi\n      dup1\n      0x8da5cb5b\n      eq\n      tag_8\n      jumpi\n      dup1\n      0xc1bea1db\n      eq\n      tag_9\n      jumpi\n      dup1\n      0xe581f9ee\n      eq\n      tag_10\n      jumpi\n      jump(tag_2)\n    tag_11:\n      dup1\n      0x13a46f31\n      eq\n      tag_3\n      jumpi\n      dup1\n      0x30c25dfd\n      eq\n      tag_4\n      jumpi\n      dup1\n      0x6e9bac2a\n      eq\n      tag_5\n      jumpi\n      dup1\n      0x6f28c355\n      eq\n      tag_6\n      jumpi\n    tag_2:\n      0x00\n      dup1\n      revert\n        /* \"chapter04/review.sol\":4001:4651  function updateStudentAge(uint _id, uint _newAge) public {... */\n    tag_3:\n      tag_12\n      0x04\n      dup1\n      calldatasize\n      sub\n      dup2\n      add\n      swap1\n      tag_13\n      swap2\n      swap1\n      tag_14\n      jump\t// in\n    tag_13:\n      tag_15\n      jump\t// in\n    tag_12:\n      stop\n        /* \"chapter04/review.sol\":664:728  string constant public SCHOOL_NAME = \"Solidity Advanced Academy\" */\n    tag_4:\n      tag_16\n      tag_17\n      jump\t// in\n    tag_16:\n      mload(0x40)\n      tag_18\n      swap2\n      swap1\n      tag_19\n      jump\t// in\n    tag_18:\n      mload(0x40)\n      dup1\n      swap2\n      sub\n      swap1\n      return\n        /* \"chapter04/review.sol\":1964:2008  mapping(uint => Student) public studentsById */\n    tag_5:\n      tag_20\n      0x04\n      dup1\n      calldatasize\n      sub\n      dup2\n      add\n      swap1\n      tag_21\n      swap2\n      swap1\n      tag_22\n      jump\t// in\n    tag_21:\n      tag_23\n      jump\t// in\n    tag_20:\n      mload(0x40)\n      tag_24\n      swap5\n      swap4\n      swap3\n      swap2\n      swap1\n      tag_25\n      jump\t// in\n    tag_24:\n      mload(0x40)\n      dup1\n      swap2\n      sub\n      swap1\n      return\n        /* \"chapter04/review.sol\":2145:2169  uint[] public studentIds */\n    tag_6:\n      tag_26\n      0x04\n      dup1\n      calldatasize\n      sub\n      dup2\n      add\n      swap1\n      tag_27\n      swap2\n      swap1\n      tag_22\n      jump\t// in\n    tag_27:\n      tag_28\n      jump\t// in\n    tag_26:\n      mload(0x40)\n      tag_29\n      swap2\n      swap1\n      tag_30\n      jump\t// in\n    tag_29:\n      mload(0x40)\n      dup1\n      swap2\n      sub\n      swap1\n      return\n        /* \"chapter04/review.sol\":5022:5122  function getAllStudentIds() public view returns (uint[] memory) {... */\n    tag_7:\n      tag_31\n      tag_32\n      jump\t// in\n    tag_31:\n      mload(0x40)\n      tag_33\n      swap2\n      swap1\n      tag_34\n      jump\t// in\n    tag_33:\n      mload(0x40)\n      dup1\n      swap2\n      sub\n      swap1\n      return\n        /* \"chapter04/review.sol\":919:939  address public owner */\n    tag_8:\n      tag_35\n      tag_36\n      jump\t// in\n    tag_35:\n      mload(0x40)\n      tag_37\n      swap2\n      swap1\n      tag_38\n      jump\t// in\n    tag_37:\n      mload(0x40)\n      dup1\n      swap2\n      sub\n      swap1\n      return\n        /* \"chapter04/review.sol\":2812:3870  function addStudent(uint _id, string memory _name, uint _age) public {... */\n    tag_9:\n      tag_39\n      0x04\n      dup1\n      calldatasize\n      sub\n      dup2\n      add\n      swap1\n      tag_40\n      swap2\n      swap1\n      tag_41\n      jump\t// in\n    tag_40:\n      tag_42\n      jump\t// in\n    tag_39:\n      stop\n        /* \"chapter04/review.sol\":946:973  uint256 public studentCount */\n    tag_10:\n      tag_43\n      tag_44\n      jump\t// in\n    tag_43:\n      mload(0x40)\n      tag_45\n      swap2\n      swap1\n      tag_30\n      jump\t// in\n    tag_45:\n      mload(0x40)\n      dup1\n      swap2\n      sub\n      swap1\n      return\n        /* \"chapter04/review.sol\":4001:4651  function updateStudentAge(uint _id, uint _newAge) public {... */\n    tag_15:\n        /* \"chapter04/review.sol\":4091:4096  owner */\n      0x00\n      dup1\n      sload\n      swap1\n      0x0100\n      exp\n      swap1\n      div\n      0xffffffffffffffffffffffffffffffffffffffff\n      and\n        /* \"chapter04/review.sol\":4077:4096  msg.sender == owner */\n      0xffffffffffffffffffffffffffffffffffffffff\n      and\n        /* \"chapter04/review.sol\":4077:4087  msg.sender */\n      caller\n        /* \"chapter04/review.sol\":4077:4096  msg.sender == owner */\n      0xffffffffffffffffffffffffffffffffffffffff\n      and\n      eq\n        /* \"chapter04/review.sol\":4069:4136  require(msg.sender == owner, \"Only owner can perform this action.\") */\n      tag_47\n      jumpi\n      mload(0x40)\n      0x08c379a000000000000000000000000000000000000000000000000000000000\n      dup2\n      mstore\n      0x04\n      add\n      tag_48\n      swap1\n      tag_49\n      jump\t// in\n    tag_48:\n      mload(0x40)\n      dup1\n      swap2\n      sub\n      swap1\n      revert\n    tag_47:\n        /* \"chapter04/review.sol\":4426:4449  Student storage student */\n      0x00\n        /* \"chapter04/review.sol\":4452:4464  studentsById */\n      0x02\n        /* \"chapter04/review.sol\":4452:4469  studentsById[_id] */\n      0x00\n        /* \"chapter04/review.sol\":4465:4468  _id */\n      dup5\n        /* \"chapter04/review.sol\":4452:4469  studentsById[_id] */\n      dup2\n      mstore\n      0x20\n      add\n      swap1\n      dup2\n      mstore\n      0x20\n      add\n      0x00\n      keccak256\n        /* \"chapter04/review.sol\":4426:4469  Student storage student = studentsById[_id] */\n      swap1\n      pop\n        /* \"chapter04/review.sol\":4512:4513  0 */\n      0x00\n        /* \"chapter04/review.sol\":4498:4505  student */\n      dup2\n        /* \"chapter04/review.sol\":4498:4508  student.id */\n      0x00\n      add\n      sload\n        /* \"chapter04/review.sol\":4498:4513  student.id != 0 */\n      sub\n        /* \"chapter04/review.sol\":4490:4536  require(student.id != 0, \"Student not found.\") */\n      tag_50\n      jumpi\n      mload(0x40)\n      0x08c379a000000000000000000000000000000000000000000000000000000000\n      dup2\n      mstore\n      0x04\n      add\n      tag_51\n      swap1\n      tag_52\n      jump\t// in\n    tag_51:\n      mload(0x40)\n      dup1\n      swap2\n      sub\n      swap1\n      revert\n    tag_50:\n        /* \"chapter04/review.sol\":4636:4643  _newAge */\n      dup2\n        /* \"chapter04/review.sol\":4622:4629  student */\n      dup2\n        /* \"chapter04/review.sol\":4622:4633  student.age */\n      0x02\n      add\n        /* \"chapter04/review.sol\":4622:4643  student.age = _newAge */\n      dup2\n      swap1\n      sstore\n      pop\n        /* \"chapter04/review.sol\":4058:4651  {... */\n      pop\n        /* \"chapter04/review.sol\":4001:4651  function updateStudentAge(uint _id, uint _newAge) public {... */\n      pop\n      pop\n      jump\t// out\n        /* \"chapter04/review.sol\":664:728  string constant public SCHOOL_NAME = \"Solidity Advanced Academy\" */\n    tag_17:\n      mload(0x40)\n      dup1\n      0x40\n      add\n      0x40\n      mstore\n      dup1\n      0x19\n      dup2\n      mstore\n      0x20\n      add\n      0x536f6c696469747920416476616e6365642041636164656d7900000000000000\n      dup2\n      mstore\n      pop\n      dup2\n      jump\t// out\n        /* \"chapter04/review.sol\":1964:2008  mapping(uint => Student) public studentsById */\n    tag_23:\n      mstore(0x20, 0x02)\n      dup1\n      0x00\n      mstore\n      keccak256(0x00, 0x40)\n      0x00\n      swap2\n      pop\n      swap1\n      pop\n      dup1\n      0x00\n      add\n      sload\n      swap1\n      dup1\n      0x01\n      add\n      dup1\n      sload\n      tag_53\n      swap1\n      tag_54\n      jump\t// in\n    tag_53:\n      dup1\n      0x1f\n      add\n      0x20\n      dup1\n      swap2\n      div\n      mul\n      0x20\n      add\n      mload(0x40)\n      swap1\n      dup2\n      add\n      0x40\n      mstore\n      dup1\n      swap3\n      swap2\n      swap1\n      dup2\n      dup2\n      mstore\n      0x20\n      add\n      dup3\n      dup1\n      sload\n      tag_55\n      swap1\n      tag_54\n      jump\t// in\n    tag_55:\n      dup1\n      iszero\n      tag_56\n      jumpi\n      dup1\n      0x1f\n      lt\n      tag_57\n      jumpi\n      0x0100\n      dup1\n      dup4\n      sload\n      div\n      mul\n      dup4\n      mstore\n      swap2\n      0x20\n      add\n      swap2\n      jump(tag_56)\n    tag_57:\n      dup3\n      add\n      swap2\n      swap1\n      0x00\n      mstore\n      keccak256(0x00, 0x20)\n      swap1\n    tag_58:\n      dup2\n      sload\n      dup2\n      mstore\n      swap1\n      0x01\n      add\n      swap1\n      0x20\n      add\n      dup1\n      dup4\n      gt\n      tag_58\n      jumpi\n      dup3\n      swap1\n      sub\n      0x1f\n      and\n      dup3\n      add\n      swap2\n    tag_56:\n      pop\n      pop\n      pop\n      pop\n      pop\n      swap1\n      dup1\n      0x02\n      add\n      sload\n      swap1\n      dup1\n      0x03\n      add\n      0x00\n      swap1\n      sload\n      swap1\n      0x0100\n      exp\n      swap1\n      div\n      0xff\n      and\n      swap1\n      pop\n      dup5\n      jump\t// out\n        /* \"chapter04/review.sol\":2145:2169  uint[] public studentIds */\n    tag_28:\n      0x03\n      dup2\n      dup2\n      sload\n      dup2\n      lt\n      tag_59\n      jumpi\n      0x00\n      dup1\n      revert\n    tag_59:\n      swap1\n      0x00\n      mstore\n      keccak256(0x00, 0x20)\n      add\n      0x00\n      swap2\n      pop\n      swap1\n      pop\n      sload\n      dup2\n      jump\t// out\n        /* \"chapter04/review.sol\":5022:5122  function getAllStudentIds() public view returns (uint[] memory) {... */\n    tag_32:\n        /* \"chapter04/review.sol\":5071:5084  uint[] memory */\n      0x60\n        /* \"chapter04/review.sol\":5104:5114  studentIds */\n      0x03\n        /* \"chapter04/review.sol\":5097:5114  return studentIds */\n      dup1\n      sload\n      dup1\n      0x20\n      mul\n      0x20\n      add\n      mload(0x40)\n      swap1\n      dup2\n      add\n      0x40\n      mstore\n      dup1\n      swap3\n      swap2\n      swap1\n      dup2\n      dup2\n      mstore\n      0x20\n      add\n      dup3\n      dup1\n      sload\n      dup1\n      iszero\n      tag_62\n      jumpi\n      0x20\n      mul\n      dup3\n      add\n      swap2\n      swap1\n      0x00\n      mstore\n      keccak256(0x00, 0x20)\n      swap1\n    tag_63:\n      dup2\n      sload\n      dup2\n      mstore\n      0x20\n      add\n      swap1\n      0x01\n      add\n      swap1\n      dup1\n      dup4\n      gt\n      tag_63\n      jumpi\n    tag_62:\n      pop\n      pop\n      pop\n      pop\n      pop\n      swap1\n      pop\n        /* \"chapter04/review.sol\":5022:5122  function getAllStudentIds() public view returns (uint[] memory) {... */\n      swap1\n      jump\t// out\n        /* \"chapter04/review.sol\":919:939  address public owner */\n    tag_36:\n      0x00\n      dup1\n      sload\n      swap1\n      0x0100\n      exp\n      swap1\n      div\n      0xffffffffffffffffffffffffffffffffffffffff\n      and\n      dup2\n      jump\t// out\n        /* \"chapter04/review.sol\":2812:3870  function addStudent(uint _id, string memory _name, uint _age) public {... */\n    tag_42:\n        /* \"chapter04/review.sol\":3085:3090  owner */\n      0x00\n      dup1\n      sload\n      swap1\n      0x0100\n      exp\n      swap1\n      div\n      0xffffffffffffffffffffffffffffffffffffffff\n      and\n        /* \"chapter04/review.sol\":3071:3090  msg.sender == owner */\n      0xffffffffffffffffffffffffffffffffffffffff\n      and\n        /* \"chapter04/review.sol\":3071:3081  msg.sender */\n      caller\n        /* \"chapter04/review.sol\":3071:3090  msg.sender == owner */\n      0xffffffffffffffffffffffffffffffffffffffff\n      and\n      eq\n        /* \"chapter04/review.sol\":3063:3123  require(msg.sender == owner, \"Only owner can add students.\") */\n      tag_65\n      jumpi\n      mload(0x40)\n      0x08c379a000000000000000000000000000000000000000000000000000000000\n      dup2\n      mstore\n      0x04\n      add\n      tag_66\n      swap1\n      tag_67\n      jump\t// in\n    tag_66:\n      mload(0x40)\n      dup1\n      swap2\n      sub\n      swap1\n      revert\n    tag_65:\n        /* \"chapter04/review.sol\":3166:3167  0 */\n      0x00\n        /* \"chapter04/review.sol\":3142:3154  studentsById */\n      0x02\n        /* \"chapter04/review.sol\":3142:3159  studentsById[_id] */\n      0x00\n        /* \"chapter04/review.sol\":3155:3158  _id */\n      dup6\n        /* \"chapter04/review.sol\":3142:3159  studentsById[_id] */\n      dup2\n      mstore\n      0x20\n      add\n      swap1\n      dup2\n      mstore\n      0x20\n      add\n      0x00\n      keccak256\n        /* \"chapter04/review.sol\":3142:3162  studentsById[_id].id */\n      0x00\n      add\n      sload\n        /* \"chapter04/review.sol\":3142:3167  studentsById[_id].id == 0 */\n      eq\n        /* \"chapter04/review.sol\":3134:3208  require(studentsById[_id].id == 0, \"Student with this ID already exists.\") */\n      tag_68\n      jumpi\n      mload(0x40)\n      0x08c379a000000000000000000000000000000000000000000000000000000000\n      dup2\n      mstore\n      0x04\n      add\n      tag_69\n      swap1\n      tag_70\n      jump\t// in\n    tag_69:\n      mload(0x40)\n      dup1\n      swap2\n      sub\n      swap1\n      revert\n    tag_68:\n        /* \"chapter04/review.sol\":3493:3518  Student memory newStudent */\n      0x00\n        /* \"chapter04/review.sol\":3521:3644  Student({... */\n      mload(0x40)\n      dup1\n      0x80\n      add\n      0x40\n      mstore\n      dup1\n        /* \"chapter04/review.sol\":3548:3551  _id */\n      dup6\n        /* \"chapter04/review.sol\":3521:3644  Student({... */\n      dup2\n      mstore\n      0x20\n      add\n        /* \"chapter04/review.sol\":3572:3577  _name */\n      dup5\n        /* \"chapter04/review.sol\":3521:3644  Student({... */\n      dup2\n      mstore\n      0x20\n      add\n        /* \"chapter04/review.sol\":3597:3601  _age */\n      dup4\n        /* \"chapter04/review.sol\":3521:3644  Student({... */\n      dup2\n      mstore\n      0x20\n      add\n        /* \"chapter04/review.sol\":3628:3632  true */\n      0x01\n        /* \"chapter04/review.sol\":3521:3644  Student({... */\n      iszero\n      iszero\n      dup2\n      mstore\n      pop\n        /* \"chapter04/review.sol\":3493:3644  Student memory newStudent = Student({... */\n      swap1\n      pop\n        /* \"chapter04/review.sol\":3750:3760  newStudent */\n      dup1\n        /* \"chapter04/review.sol\":3730:3742  studentsById */\n      0x02\n        /* \"chapter04/review.sol\":3730:3747  studentsById[_id] */\n      0x00\n        /* \"chapter04/review.sol\":3743:3746  _id */\n      dup7\n        /* \"chapter04/review.sol\":3730:3747  studentsById[_id] */\n      dup2\n      mstore\n      0x20\n      add\n      swap1\n      dup2\n      mstore\n      0x20\n      add\n      0x00\n      keccak256\n        /* \"chapter04/review.sol\":3730:3760  studentsById[_id] = newStudent */\n      0x00\n      dup3\n      add\n      mload\n      dup2\n      0x00\n      add\n      sstore\n      0x20\n      dup3\n      add\n      mload\n      dup2\n      0x01\n      add\n      swap1\n      dup2\n      tag_71\n      swap2\n      swap1\n      tag_72\n      jump\t// in\n    tag_71:\n      pop\n      0x40\n      dup3\n      add\n      mload\n      dup2\n      0x02\n      add\n      sstore\n      0x60\n      dup3\n      add\n      mload\n      dup2\n      0x03\n      add\n      exp(0x0100, 0x00)\n      dup2\n      sload\n      dup2\n      0xff\n      mul\n      not\n      and\n      swap1\n      dup4\n      iszero\n      iszero\n      mul\n      or\n      swap1\n      sstore\n      pop\n      swap1\n      pop\n      pop\n        /* \"chapter04/review.sol\":3771:3781  studentIds */\n      0x03\n        /* \"chapter04/review.sol\":3787:3790  _id */\n      dup5\n        /* \"chapter04/review.sol\":3771:3791  studentIds.push(_id) */\n      swap1\n      dup1\n      0x01\n      dup2\n      sload\n      add\n      dup1\n      dup3\n      sstore\n      dup1\n      swap2\n      pop\n      pop\n      0x01\n      swap1\n      sub\n      swap1\n      0x00\n      mstore\n      keccak256(0x00, 0x20)\n      add\n      0x00\n      swap1\n      swap2\n      swap1\n      swap2\n      swap1\n      swap2\n      pop\n      sstore\n        /* \"chapter04/review.sol\":3848:3860  studentCount */\n      0x01\n      0x00\n        /* \"chapter04/review.sol\":3848:3862  studentCount++ */\n      dup2\n      sload\n      dup1\n      swap3\n      swap2\n      swap1\n      tag_74\n      swap1\n      tag_75\n      jump\t// in\n    tag_74:\n      swap2\n      swap1\n      pop\n      sstore\n      pop\n        /* \"chapter04/review.sol\":2881:3870  {... */\n      pop\n        /* \"chapter04/review.sol\":2812:3870  function addStudent(uint _id, string memory _name, uint _age) public {... */\n      pop\n      pop\n      pop\n      jump\t// out\n        /* \"chapter04/review.sol\":946:973  uint256 public studentCount */\n    tag_44:\n      sload(0x01)\n      dup2\n      jump\t// out\n        /* \"#utility.yul\":7:82   */\n    tag_76:\n        /* \"#utility.yul\":40:46   */\n      0x00\n        /* \"#utility.yul\":73:75   */\n      0x40\n        /* \"#utility.yul\":67:76   */\n      mload\n        /* \"#utility.yul\":57:76   */\n      swap1\n      pop\n        /* \"#utility.yul\":7:82   */\n      swap1\n      jump\t// out\n        /* \"#utility.yul\":88:205   */\n    tag_77:\n        /* \"#utility.yul\":197:198   */\n      0x00\n        /* \"#utility.yul\":194:195   */\n      dup1\n        /* \"#utility.yul\":187:199   */\n      revert\n        /* \"#utility.yul\":211:328   */\n    tag_78:\n        /* \"#utility.yul\":320:321   */\n      0x00\n        /* \"#utility.yul\":317:318   */\n      dup1\n        /* \"#utility.yul\":310:322   */\n      revert\n        /* \"#utility.yul\":334:411   */\n    tag_79:\n        /* \"#utility.yul\":371:378   */\n      0x00\n        /* \"#utility.yul\":400:405   */\n      dup2\n        /* \"#utility.yul\":389:405   */\n      swap1\n      pop\n        /* \"#utility.yul\":334:411   */\n      swap2\n      swap1\n      pop\n      jump\t// out\n        /* \"#utility.yul\":417:539   */\n    tag_80:\n        /* \"#utility.yul\":490:514   */\n      tag_140\n        /* \"#utility.yul\":508:513   */\n      dup2\n        /* \"#utility.yul\":490:514   */\n      tag_79\n      jump\t// in\n    tag_140:\n        /* \"#utility.yul\":483:488   */\n      dup2\n        /* \"#utility.yul\":480:515   */\n      eq\n        /* \"#utility.yul\":470:533   */\n      tag_141\n      jumpi\n        /* \"#utility.yul\":529:530   */\n      0x00\n        /* \"#utility.yul\":526:527   */\n      dup1\n        /* \"#utility.yul\":519:531   */\n      revert\n        /* \"#utility.yul\":470:533   */\n    tag_141:\n        /* \"#utility.yul\":417:539   */\n      pop\n      jump\t// out\n        /* \"#utility.yul\":545:684   */\n    tag_81:\n        /* \"#utility.yul\":591:596   */\n      0x00\n        /* \"#utility.yul\":629:635   */\n      dup2\n        /* \"#utility.yul\":616:636   */\n      calldataload\n        /* \"#utility.yul\":607:636   */\n      swap1\n      pop\n        /* \"#utility.yul\":645:678   */\n      tag_143\n        /* \"#utility.yul\":672:677   */\n      dup2\n        /* \"#utility.yul\":645:678   */\n      tag_80\n      jump\t// in\n    tag_143:\n        /* \"#utility.yul\":545:684   */\n      swap3\n      swap2\n      pop\n      pop\n      jump\t// out\n        /* \"#utility.yul\":690:1164   */\n    tag_14:\n        /* \"#utility.yul\":758:764   */\n      0x00\n        /* \"#utility.yul\":766:772   */\n      dup1\n        /* \"#utility.yul\":815:817   */\n      0x40\n        /* \"#utility.yul\":803:812   */\n      dup4\n        /* \"#utility.yul\":794:801   */\n      dup6\n        /* \"#utility.yul\":790:813   */\n      sub\n        /* \"#utility.yul\":786:818   */\n      slt\n        /* \"#utility.yul\":783:902   */\n      iszero\n      tag_145\n      jumpi\n        /* \"#utility.yul\":821:900   */\n      tag_146\n      tag_77\n      jump\t// in\n    tag_146:\n        /* \"#utility.yul\":783:902   */\n    tag_145:\n        /* \"#utility.yul\":941:942   */\n      0x00\n        /* \"#utility.yul\":966:1019   */\n      tag_147\n        /* \"#utility.yul\":1011:1018   */\n      dup6\n        /* \"#utility.yul\":1002:1008   */\n      dup3\n        /* \"#utility.yul\":991:1000   */\n      dup7\n        /* \"#utility.yul\":987:1009   */\n      add\n        /* \"#utility.yul\":966:1019   */\n      tag_81\n      jump\t// in\n    tag_147:\n        /* \"#utility.yul\":956:1019   */\n      swap3\n      pop\n        /* \"#utility.yul\":912:1029   */\n      pop\n        /* \"#utility.yul\":1068:1070   */\n      0x20\n        /* \"#utility.yul\":1094:1147   */\n      tag_148\n        /* \"#utility.yul\":1139:1146   */\n      dup6\n        /* \"#utility.yul\":1130:1136   */\n      dup3\n        /* \"#utility.yul\":1119:1128   */\n      dup7\n        /* \"#utility.yul\":1115:1137   */\n      add\n        /* \"#utility.yul\":1094:1147   */\n      tag_81\n      jump\t// in\n    tag_148:\n        /* \"#utility.yul\":1084:1147   */\n      swap2\n      pop\n        /* \"#utility.yul\":1039:1157   */\n      pop\n        /* \"#utility.yul\":690:1164   */\n      swap3\n      pop\n      swap3\n      swap1\n      pop\n      jump\t// out\n        /* \"#utility.yul\":1170:1269   */\n    tag_82:\n        /* \"#utility.yul\":1222:1228   */\n      0x00\n        /* \"#utility.yul\":1256:1261   */\n      dup2\n        /* \"#utility.yul\":1250:1262   */\n      mload\n        /* \"#utility.yul\":1240:1262   */\n      swap1\n      pop\n        /* \"#utility.yul\":1170:1269   */\n      swap2\n      swap1\n      pop\n      jump\t// out\n        /* \"#utility.yul\":1275:1444   */\n    tag_83:\n        /* \"#utility.yul\":1359:1370   */\n      0x00\n        /* \"#utility.yul\":1393:1399   */\n      dup3\n        /* \"#utility.yul\":1388:1391   */\n      dup3\n        /* \"#utility.yul\":1381:1400   */\n      mstore\n        /* \"#utility.yul\":1433:1437   */\n      0x20\n        /* \"#utility.yul\":1428:1431   */\n      dup3\n        /* \"#utility.yul\":1424:1438   */\n      add\n        /* \"#utility.yul\":1409:1438   */\n      swap1\n      pop\n        /* \"#utility.yul\":1275:1444   */\n      swap3\n      swap2\n      pop\n      pop\n      jump\t// out\n        /* \"#utility.yul\":1450:1696   */\n    tag_84:\n        /* \"#utility.yul\":1531:1532   */\n      0x00\n        /* \"#utility.yul\":1541:1654   */\n    tag_152:\n        /* \"#utility.yul\":1555:1561   */\n      dup4\n        /* \"#utility.yul\":1552:1553   */\n      dup2\n        /* \"#utility.yul\":1549:1562   */\n      lt\n        /* \"#utility.yul\":1541:1654   */\n      iszero\n      tag_154\n      jumpi\n        /* \"#utility.yul\":1640:1641   */\n      dup1\n        /* \"#utility.yul\":1635:1638   */\n      dup3\n        /* \"#utility.yul\":1631:1642   */\n      add\n        /* \"#utility.yul\":1625:1643   */\n      mload\n        /* \"#utility.yul\":1621:1622   */\n      dup2\n        /* \"#utility.yul\":1616:1619   */\n      dup5\n        /* \"#utility.yul\":1612:1623   */\n      add\n        /* \"#utility.yul\":1605:1644   */\n      mstore\n        /* \"#utility.yul\":1577:1579   */\n      0x20\n        /* \"#utility.yul\":1574:1575   */\n      dup2\n        /* \"#utility.yul\":1570:1580   */\n      add\n        /* \"#utility.yul\":1565:1580   */\n      swap1\n      pop\n        /* \"#utility.yul\":1541:1654   */\n      jump(tag_152)\n    tag_154:\n        /* \"#utility.yul\":1688:1689   */\n      0x00\n        /* \"#utility.yul\":1679:1685   */\n      dup5\n        /* \"#utility.yul\":1674:1677   */\n      dup5\n        /* \"#utility.yul\":1670:1686   */\n      add\n        /* \"#utility.yul\":1663:1690   */\n      mstore\n        /* \"#utility.yul\":1512:1696   */\n      pop\n        /* \"#utility.yul\":1450:1696   */\n      pop\n      pop\n      pop\n      jump\t// out\n        /* \"#utility.yul\":1702:1804   */\n    tag_85:\n        /* \"#utility.yul\":1743:1749   */\n      0x00\n        /* \"#utility.yul\":1794:1796   */\n      0x1f\n        /* \"#utility.yul\":1790:1797   */\n      not\n        /* \"#utility.yul\":1785:1787   */\n      0x1f\n        /* \"#utility.yul\":1778:1783   */\n      dup4\n        /* \"#utility.yul\":1774:1788   */\n      add\n        /* \"#utility.yul\":1770:1798   */\n      and\n        /* \"#utility.yul\":1760:1798   */\n      swap1\n      pop\n        /* \"#utility.yul\":1702:1804   */\n      swap2\n      swap1\n      pop\n      jump\t// out\n        /* \"#utility.yul\":1810:2187   */\n    tag_86:\n        /* \"#utility.yul\":1898:1901   */\n      0x00\n        /* \"#utility.yul\":1926:1965   */\n      tag_157\n        /* \"#utility.yul\":1959:1964   */\n      dup3\n        /* \"#utility.yul\":1926:1965   */\n      tag_82\n      jump\t// in\n    tag_157:\n        /* \"#utility.yul\":1981:2052   */\n      tag_158\n        /* \"#utility.yul\":2045:2051   */\n      dup2\n        /* \"#utility.yul\":2040:2043   */\n      dup6\n        /* \"#utility.yul\":1981:2052   */\n      tag_83\n      jump\t// in\n    tag_158:\n        /* \"#utility.yul\":1974:2052   */\n      swap4\n      pop\n        /* \"#utility.yul\":2061:2126   */\n      tag_159\n        /* \"#utility.yul\":2119:2125   */\n      dup2\n        /* \"#utility.yul\":2114:2117   */\n      dup6\n        /* \"#utility.yul\":2107:2111   */\n      0x20\n        /* \"#utility.yul\":2100:2105   */\n      dup7\n        /* \"#utility.yul\":2096:2112   */\n      add\n        /* \"#utility.yul\":2061:2126   */\n      tag_84\n      jump\t// in\n    tag_159:\n        /* \"#utility.yul\":2151:2180   */\n      tag_160\n        /* \"#utility.yul\":2173:2179   */\n      dup2\n        /* \"#utility.yul\":2151:2180   */\n      tag_85\n      jump\t// in\n    tag_160:\n        /* \"#utility.yul\":2146:2149   */\n      dup5\n        /* \"#utility.yul\":2142:2181   */\n      add\n        /* \"#utility.yul\":2135:2181   */\n      swap2\n      pop\n        /* \"#utility.yul\":1902:2187   */\n      pop\n        /* \"#utility.yul\":1810:2187   */\n      swap3\n      swap2\n      pop\n      pop\n      jump\t// out\n        /* \"#utility.yul\":2193:2506   */\n    tag_19:\n        /* \"#utility.yul\":2306:2310   */\n      0x00\n        /* \"#utility.yul\":2344:2346   */\n      0x20\n        /* \"#utility.yul\":2333:2342   */\n      dup3\n        /* \"#utility.yul\":2329:2347   */\n      add\n        /* \"#utility.yul\":2321:2347   */\n      swap1\n      pop\n        /* \"#utility.yul\":2393:2402   */\n      dup2\n        /* \"#utility.yul\":2387:2391   */\n      dup2\n        /* \"#utility.yul\":2383:2403   */\n      sub\n        /* \"#utility.yul\":2379:2380   */\n      0x00\n        /* \"#utility.yul\":2368:2377   */\n      dup4\n        /* \"#utility.yul\":2364:2381   */\n      add\n        /* \"#utility.yul\":2357:2404   */\n      mstore\n        /* \"#utility.yul\":2421:2499   */\n      tag_162\n        /* \"#utility.yul\":2494:2498   */\n      dup2\n        /* \"#utility.yul\":2485:2491   */\n      dup5\n        /* \"#utility.yul\":2421:2499   */\n      tag_86\n      jump\t// in\n    tag_162:\n        /* \"#utility.yul\":2413:2499   */\n      swap1\n      pop\n        /* \"#utility.yul\":2193:2506   */\n      swap3\n      swap2\n      pop\n      pop\n      jump\t// out\n        /* \"#utility.yul\":2512:2841   */\n    tag_22:\n        /* \"#utility.yul\":2571:2577   */\n      0x00\n        /* \"#utility.yul\":2620:2622   */\n      0x20\n        /* \"#utility.yul\":2608:2617   */\n      dup3\n        /* \"#utility.yul\":2599:2606   */\n      dup5\n        /* \"#utility.yul\":2595:2618   */\n      sub\n        /* \"#utility.yul\":2591:2623   */\n      slt\n        /* \"#utility.yul\":2588:2707   */\n      iszero\n      tag_164\n      jumpi\n        /* \"#utility.yul\":2626:2705   */\n      tag_165\n      tag_77\n      jump\t// in\n    tag_165:\n        /* \"#utility.yul\":2588:2707   */\n    tag_164:\n        /* \"#utility.yul\":2746:2747   */\n      0x00\n        /* \"#utility.yul\":2771:2824   */\n      tag_166\n        /* \"#utility.yul\":2816:2823   */\n      dup5\n        /* \"#utility.yul\":2807:2813   */\n      dup3\n        /* \"#utility.yul\":2796:2805   */\n      dup6\n        /* \"#utility.yul\":2792:2814   */\n      add\n        /* \"#utility.yul\":2771:2824   */\n      tag_81\n      jump\t// in\n    tag_166:\n        /* \"#utility.yul\":2761:2824   */\n      swap2\n      pop\n        /* \"#utility.yul\":2717:2834   */\n      pop\n        /* \"#utility.yul\":2512:2841   */\n      swap3\n      swap2\n      pop\n      pop\n      jump\t// out\n        /* \"#utility.yul\":2847:2965   */\n    tag_87:\n        /* \"#utility.yul\":2934:2958   */\n      tag_168\n        /* \"#utility.yul\":2952:2957   */\n      dup2\n        /* \"#utility.yul\":2934:2958   */\n      tag_79\n      jump\t// in\n    tag_168:\n        /* \"#utility.yul\":2929:2932   */\n      dup3\n        /* \"#utility.yul\":2922:2959   */\n      mstore\n        /* \"#utility.yul\":2847:2965   */\n      pop\n      pop\n      jump\t// out\n        /* \"#utility.yul\":2971:3061   */\n    tag_88:\n        /* \"#utility.yul\":3005:3012   */\n      0x00\n        /* \"#utility.yul\":3048:3053   */\n      dup2\n        /* \"#utility.yul\":3041:3054   */\n      iszero\n        /* \"#utility.yul\":3034:3055   */\n      iszero\n        /* \"#utility.yul\":3023:3055   */\n      swap1\n      pop\n        /* \"#utility.yul\":2971:3061   */\n      swap2\n      swap1\n      pop\n      jump\t// out\n        /* \"#utility.yul\":3067:3176   */\n    tag_89:\n        /* \"#utility.yul\":3148:3169   */\n      tag_171\n        /* \"#utility.yul\":3163:3168   */\n      dup2\n        /* \"#utility.yul\":3148:3169   */\n      tag_88\n      jump\t// in\n    tag_171:\n        /* \"#utility.yul\":3143:3146   */\n      dup3\n        /* \"#utility.yul\":3136:3170   */\n      mstore\n        /* \"#utility.yul\":3067:3176   */\n      pop\n      pop\n      jump\t// out\n        /* \"#utility.yul\":3182:3814   */\n    tag_25:\n        /* \"#utility.yul\":3373:3377   */\n      0x00\n        /* \"#utility.yul\":3411:3414   */\n      0x80\n        /* \"#utility.yul\":3400:3409   */\n      dup3\n        /* \"#utility.yul\":3396:3415   */\n      add\n        /* \"#utility.yul\":3388:3415   */\n      swap1\n      pop\n        /* \"#utility.yul\":3425:3496   */\n      tag_173\n        /* \"#utility.yul\":3493:3494   */\n      0x00\n        /* \"#utility.yul\":3482:3491   */\n      dup4\n        /* \"#utility.yul\":3478:3495   */\n      add\n        /* \"#utility.yul\":3469:3475   */\n      dup8\n        /* \"#utility.yul\":3425:3496   */\n      tag_87\n      jump\t// in\n    tag_173:\n        /* \"#utility.yul\":3543:3552   */\n      dup2\n        /* \"#utility.yul\":3537:3541   */\n      dup2\n        /* \"#utility.yul\":3533:3553   */\n      sub\n        /* \"#utility.yul\":3528:3530   */\n      0x20\n        /* \"#utility.yul\":3517:3526   */\n      dup4\n        /* \"#utility.yul\":3513:3531   */\n      add\n        /* \"#utility.yul\":3506:3554   */\n      mstore\n        /* \"#utility.yul\":3571:3649   */\n      tag_174\n        /* \"#utility.yul\":3644:3648   */\n      dup2\n        /* \"#utility.yul\":3635:3641   */\n      dup7\n        /* \"#utility.yul\":3571:3649   */\n      tag_86\n      jump\t// in\n    tag_174:\n        /* \"#utility.yul\":3563:3649   */\n      swap1\n      pop\n        /* \"#utility.yul\":3659:3731   */\n      tag_175\n        /* \"#utility.yul\":3727:3729   */\n      0x40\n        /* \"#utility.yul\":3716:3725   */\n      dup4\n        /* \"#utility.yul\":3712:3730   */\n      add\n        /* \"#utility.yul\":3703:3709   */\n      dup6\n        /* \"#utility.yul\":3659:3731   */\n      tag_87\n      jump\t// in\n    tag_175:\n        /* \"#utility.yul\":3741:3807   */\n      tag_176\n        /* \"#utility.yul\":3803:3805   */\n      0x60\n        /* \"#utility.yul\":3792:3801   */\n      dup4\n        /* \"#utility.yul\":3788:3806   */\n      add\n        /* \"#utility.yul\":3779:3785   */\n      dup5\n        /* \"#utility.yul\":3741:3807   */\n      tag_89\n      jump\t// in\n    tag_176:\n        /* \"#utility.yul\":3182:3814   */\n      swap6\n      swap5\n      pop\n      pop\n      pop\n      pop\n      pop\n      jump\t// out\n        /* \"#utility.yul\":3820:4042   */\n    tag_30:\n        /* \"#utility.yul\":3913:3917   */\n      0x00\n        /* \"#utility.yul\":3951:3953   */\n      0x20\n        /* \"#utility.yul\":3940:3949   */\n      dup3\n        /* \"#utility.yul\":3936:3954   */\n      add\n        /* \"#utility.yul\":3928:3954   */\n      swap1\n      pop\n        /* \"#utility.yul\":3964:4035   */\n      tag_178\n        /* \"#utility.yul\":4032:4033   */\n      0x00\n        /* \"#utility.yul\":4021:4030   */\n      dup4\n        /* \"#utility.yul\":4017:4034   */\n      add\n        /* \"#utility.yul\":4008:4014   */\n      dup5\n        /* \"#utility.yul\":3964:4035   */\n      tag_87\n      jump\t// in\n    tag_178:\n        /* \"#utility.yul\":3820:4042   */\n      swap3\n      swap2\n      pop\n      pop\n      jump\t// out\n        /* \"#utility.yul\":4048:4162   */\n    tag_90:\n        /* \"#utility.yul\":4115:4121   */\n      0x00\n        /* \"#utility.yul\":4149:4154   */\n      dup2\n        /* \"#utility.yul\":4143:4155   */\n      mload\n        /* \"#utility.yul\":4133:4155   */\n      swap1\n      pop\n        /* \"#utility.yul\":4048:4162   */\n      swap2\n      swap1\n      pop\n      jump\t// out\n        /* \"#utility.yul\":4168:4352   */\n    tag_91:\n        /* \"#utility.yul\":4267:4278   */\n      0x00\n        /* \"#utility.yul\":4301:4307   */\n      dup3\n        /* \"#utility.yul\":4296:4299   */\n      dup3\n        /* \"#utility.yul\":4289:4308   */\n      mstore\n        /* \"#utility.yul\":4341:4345   */\n      0x20\n        /* \"#utility.yul\":4336:4339   */\n      dup3\n        /* \"#utility.yul\":4332:4346   */\n      add\n        /* \"#utility.yul\":4317:4346   */\n      swap1\n      pop\n        /* \"#utility.yul\":4168:4352   */\n      swap3\n      swap2\n      pop\n      pop\n      jump\t// out\n        /* \"#utility.yul\":4358:4490   */\n    tag_92:\n        /* \"#utility.yul\":4425:4429   */\n      0x00\n        /* \"#utility.yul\":4448:4451   */\n      dup2\n        /* \"#utility.yul\":4440:4451   */\n      swap1\n      pop\n        /* \"#utility.yul\":4478:4482   */\n      0x20\n        /* \"#utility.yul\":4473:4476   */\n      dup3\n        /* \"#utility.yul\":4469:4483   */\n      add\n        /* \"#utility.yul\":4461:4483   */\n      swap1\n      pop\n        /* \"#utility.yul\":4358:4490   */\n      swap2\n      swap1\n      pop\n      jump\t// out\n        /* \"#utility.yul\":4496:4604   */\n    tag_93:\n        /* \"#utility.yul\":4573:4597   */\n      tag_183\n        /* \"#utility.yul\":4591:4596   */\n      dup2\n        /* \"#utility.yul\":4573:4597   */\n      tag_79\n      jump\t// in\n    tag_183:\n        /* \"#utility.yul\":4568:4571   */\n      dup3\n        /* \"#utility.yul\":4561:4598   */\n      mstore\n        /* \"#utility.yul\":4496:4604   */\n      pop\n      pop\n      jump\t// out\n        /* \"#utility.yul\":4610:4789   */\n    tag_94:\n        /* \"#utility.yul\":4679:4689   */\n      0x00\n        /* \"#utility.yul\":4700:4746   */\n      tag_185\n        /* \"#utility.yul\":4742:4745   */\n      dup4\n        /* \"#utility.yul\":4734:4740   */\n      dup4\n        /* \"#utility.yul\":4700:4746   */\n      tag_93\n      jump\t// in\n    tag_185:\n        /* \"#utility.yul\":4778:4782   */\n      0x20\n        /* \"#utility.yul\":4773:4776   */\n      dup4\n        /* \"#utility.yul\":4769:4783   */\n      add\n        /* \"#utility.yul\":4755:4783   */\n      swap1\n      pop\n        /* \"#utility.yul\":4610:4789   */\n      swap3\n      swap2\n      pop\n      pop\n      jump\t// out\n        /* \"#utility.yul\":4795:4908   */\n    tag_95:\n        /* \"#utility.yul\":4865:4869   */\n      0x00\n        /* \"#utility.yul\":4897:4901   */\n      0x20\n        /* \"#utility.yul\":4892:4895   */\n      dup3\n        /* \"#utility.yul\":4888:4902   */\n      add\n        /* \"#utility.yul\":4880:4902   */\n      swap1\n      pop\n        /* \"#utility.yul\":4795:4908   */\n      swap2\n      swap1\n      pop\n      jump\t// out\n        /* \"#utility.yul\":4944:5676   */\n    tag_96:\n        /* \"#utility.yul\":5063:5066   */\n      0x00\n        /* \"#utility.yul\":5092:5146   */\n      tag_188\n        /* \"#utility.yul\":5140:5145   */\n      dup3\n        /* \"#utility.yul\":5092:5146   */\n      tag_90\n      jump\t// in\n    tag_188:\n        /* \"#utility.yul\":5162:5248   */\n      tag_189\n        /* \"#utility.yul\":5241:5247   */\n      dup2\n        /* \"#utility.yul\":5236:5239   */\n      dup6\n        /* \"#utility.yul\":5162:5248   */\n      tag_91\n      jump\t// in\n    tag_189:\n        /* \"#utility.yul\":5155:5248   */\n      swap4\n      pop\n        /* \"#utility.yul\":5272:5328   */\n      tag_190\n        /* \"#utility.yul\":5322:5327   */\n      dup4\n        /* \"#utility.yul\":5272:5328   */\n      tag_92\n      jump\t// in\n    tag_190:\n        /* \"#utility.yul\":5351:5358   */\n      dup1\n        /* \"#utility.yul\":5382:5383   */\n      0x00\n        /* \"#utility.yul\":5367:5651   */\n    tag_191:\n        /* \"#utility.yul\":5392:5398   */\n      dup4\n        /* \"#utility.yul\":5389:5390   */\n      dup2\n        /* \"#utility.yul\":5386:5399   */\n      lt\n        /* \"#utility.yul\":5367:5651   */\n      iszero\n      tag_193\n      jumpi\n        /* \"#utility.yul\":5468:5474   */\n      dup2\n        /* \"#utility.yul\":5462:5475   */\n      mload\n        /* \"#utility.yul\":5495:5558   */\n      tag_194\n        /* \"#utility.yul\":5554:5557   */\n      dup9\n        /* \"#utility.yul\":5539:5552   */\n      dup3\n        /* \"#utility.yul\":5495:5558   */\n      tag_94\n      jump\t// in\n    tag_194:\n        /* \"#utility.yul\":5488:5558   */\n      swap8\n      pop\n        /* \"#utility.yul\":5581:5641   */\n      tag_195\n        /* \"#utility.yul\":5634:5640   */\n      dup4\n        /* \"#utility.yul\":5581:5641   */\n      tag_95\n      jump\t// in\n    tag_195:\n        /* \"#utility.yul\":5571:5641   */\n      swap3\n      pop\n        /* \"#utility.yul\":5427:5651   */\n      pop\n        /* \"#utility.yul\":5414:5415   */\n      0x01\n        /* \"#utility.yul\":5411:5412   */\n      dup2\n        /* \"#utility.yul\":5407:5416   */\n      add\n        /* \"#utility.yul\":5402:5416   */\n      swap1\n      pop\n        /* \"#utility.yul\":5367:5651   */\n      jump(tag_191)\n    tag_193:\n        /* \"#utility.yul\":5371:5385   */\n      pop\n        /* \"#utility.yul\":5667:5670   */\n      dup6\n        /* \"#utility.yul\":5660:5670   */\n      swap4\n      pop\n        /* \"#utility.yul\":5068:5676   */\n      pop\n      pop\n      pop\n        /* \"#utility.yul\":4944:5676   */\n      swap3\n      swap2\n      pop\n      pop\n      jump\t// out\n        /* \"#utility.yul\":5682:6055   */\n    tag_34:\n        /* \"#utility.yul\":5825:5829   */\n      0x00\n        /* \"#utility.yul\":5863:5865   */\n      0x20\n        /* \"#utility.yul\":5852:5861   */\n      dup3\n        /* \"#utility.yul\":5848:5866   */\n      add\n        /* \"#utility.yul\":5840:5866   */\n      swap1\n      pop\n        /* \"#utility.yul\":5912:5921   */\n      dup2\n        /* \"#utility.yul\":5906:5910   */\n      dup2\n        /* \"#utility.yul\":5902:5922   */\n      sub\n        /* \"#utility.yul\":5898:5899   */\n      0x00\n        /* \"#utility.yul\":5887:5896   */\n      dup4\n        /* \"#utility.yul\":5883:5900   */\n      add\n        /* \"#utility.yul\":5876:5923   */\n      mstore\n        /* \"#utility.yul\":5940:6048   */\n      tag_197\n        /* \"#utility.yul\":6043:6047   */\n      dup2\n        /* \"#utility.yul\":6034:6040   */\n      dup5\n        /* \"#utility.yul\":5940:6048   */\n      tag_96\n      jump\t// in\n    tag_197:\n        /* \"#utility.yul\":5932:6048   */\n      swap1\n      pop\n        /* \"#utility.yul\":5682:6055   */\n      swap3\n      swap2\n      pop\n      pop\n      jump\t// out\n        /* \"#utility.yul\":6061:6187   */\n    tag_97:\n        /* \"#utility.yul\":6098:6105   */\n      0x00\n        /* \"#utility.yul\":6138:6180   */\n      0xffffffffffffffffffffffffffffffffffffffff\n        /* \"#utility.yul\":6131:6136   */\n      dup3\n        /* \"#utility.yul\":6127:6181   */\n      and\n        /* \"#utility.yul\":6116:6181   */\n      swap1\n      pop\n        /* \"#utility.yul\":6061:6187   */\n      swap2\n      swap1\n      pop\n      jump\t// out\n        /* \"#utility.yul\":6193:6289   */\n    tag_98:\n        /* \"#utility.yul\":6230:6237   */\n      0x00\n        /* \"#utility.yul\":6259:6283   */\n      tag_200\n        /* \"#utility.yul\":6277:6282   */\n      dup3\n        /* \"#utility.yul\":6259:6283   */\n      tag_97\n      jump\t// in\n    tag_200:\n        /* \"#utility.yul\":6248:6283   */\n      swap1\n      pop\n        /* \"#utility.yul\":6193:6289   */\n      swap2\n      swap1\n      pop\n      jump\t// out\n        /* \"#utility.yul\":6295:6413   */\n    tag_99:\n        /* \"#utility.yul\":6382:6406   */\n      tag_202\n        /* \"#utility.yul\":6400:6405   */\n      dup2\n        /* \"#utility.yul\":6382:6406   */\n      tag_98\n      jump\t// in\n    tag_202:\n        /* \"#utility.yul\":6377:6380   */\n      dup3\n        /* \"#utility.yul\":6370:6407   */\n      mstore\n        /* \"#utility.yul\":6295:6413   */\n      pop\n      pop\n      jump\t// out\n        /* \"#utility.yul\":6419:6641   */\n    tag_38:\n        /* \"#utility.yul\":6512:6516   */\n      0x00\n        /* \"#utility.yul\":6550:6552   */\n      0x20\n        /* \"#utility.yul\":6539:6548   */\n      dup3\n        /* \"#utility.yul\":6535:6553   */\n      add\n        /* \"#utility.yul\":6527:6553   */\n      swap1\n      pop\n        /* \"#utility.yul\":6563:6634   */\n      tag_204\n        /* \"#utility.yul\":6631:6632   */\n      0x00\n        /* \"#utility.yul\":6620:6629   */\n      dup4\n        /* \"#utility.yul\":6616:6633   */\n      add\n        /* \"#utility.yul\":6607:6613   */\n      dup5\n        /* \"#utility.yul\":6563:6634   */\n      tag_99\n      jump\t// in\n    tag_204:\n        /* \"#utility.yul\":6419:6641   */\n      swap3\n      swap2\n      pop\n      pop\n      jump\t// out\n        /* \"#utility.yul\":6647:6764   */\n    tag_100:\n        /* \"#utility.yul\":6756:6757   */\n      0x00\n        /* \"#utility.yul\":6753:6754   */\n      dup1\n        /* \"#utility.yul\":6746:6758   */\n      revert\n        /* \"#utility.yul\":6770:6887   */\n    tag_101:\n        /* \"#utility.yul\":6879:6880   */\n      0x00\n        /* \"#utility.yul\":6876:6877   */\n      dup1\n        /* \"#utility.yul\":6869:6881   */\n      revert\n        /* \"#utility.yul\":6893:7073   */\n    tag_102:\n        /* \"#utility.yul\":6941:7018   */\n      0x4e487b7100000000000000000000000000000000000000000000000000000000\n        /* \"#utility.yul\":6938:6939   */\n      0x00\n        /* \"#utility.yul\":6931:7019   */\n      mstore\n        /* \"#utility.yul\":7038:7042   */\n      0x41\n        /* \"#utility.yul\":7035:7036   */\n      0x04\n        /* \"#utility.yul\":7028:7043   */\n      mstore\n        /* \"#utility.yul\":7062:7066   */\n      0x24\n        /* \"#utility.yul\":7059:7060   */\n      0x00\n        /* \"#utility.yul\":7052:7067   */\n      revert\n        /* \"#utility.yul\":7079:7360   */\n    tag_103:\n        /* \"#utility.yul\":7162:7189   */\n      tag_209\n        /* \"#utility.yul\":7184:7188   */\n      dup3\n        /* \"#utility.yul\":7162:7189   */\n      tag_85\n      jump\t// in\n    tag_209:\n        /* \"#utility.yul\":7154:7160   */\n      dup2\n        /* \"#utility.yul\":7150:7190   */\n      add\n        /* \"#utility.yul\":7292:7298   */\n      dup2\n        /* \"#utility.yul\":7280:7290   */\n      dup2\n        /* \"#utility.yul\":7277:7299   */\n      lt\n        /* \"#utility.yul\":7256:7274   */\n      0xffffffffffffffff\n        /* \"#utility.yul\":7244:7254   */\n      dup3\n        /* \"#utility.yul\":7241:7275   */\n      gt\n        /* \"#utility.yul\":7238:7300   */\n      or\n        /* \"#utility.yul\":7235:7323   */\n      iszero\n      tag_210\n      jumpi\n        /* \"#utility.yul\":7303:7321   */\n      tag_211\n      tag_102\n      jump\t// in\n    tag_211:\n        /* \"#utility.yul\":7235:7323   */\n    tag_210:\n        /* \"#utility.yul\":7343:7353   */\n      dup1\n        /* \"#utility.yul\":7339:7341   */\n      0x40\n        /* \"#utility.yul\":7332:7354   */\n      mstore\n        /* \"#utility.yul\":7122:7360   */\n      pop\n        /* \"#utility.yul\":7079:7360   */\n      pop\n      pop\n      jump\t// out\n        /* \"#utility.yul\":7366:7495   */\n    tag_104:\n        /* \"#utility.yul\":7400:7406   */\n      0x00\n        /* \"#utility.yul\":7427:7447   */\n      tag_213\n      tag_76\n      jump\t// in\n    tag_213:\n        /* \"#utility.yul\":7417:7447   */\n      swap1\n      pop\n        /* \"#utility.yul\":7456:7489   */\n      tag_214\n        /* \"#utility.yul\":7484:7488   */\n      dup3\n        /* \"#utility.yul\":7476:7482   */\n      dup3\n        /* \"#utility.yul\":7456:7489   */\n      tag_103\n      jump\t// in\n    tag_214:\n        /* \"#utility.yul\":7366:7495   */\n      swap2\n      swap1\n      pop\n      jump\t// out\n        /* \"#utility.yul\":7501:7809   */\n    tag_105:\n        /* \"#utility.yul\":7563:7567   */\n      0x00\n        /* \"#utility.yul\":7653:7671   */\n      0xffffffffffffffff\n        /* \"#utility.yul\":7645:7651   */\n      dup3\n        /* \"#utility.yul\":7642:7672   */\n      gt\n        /* \"#utility.yul\":7639:7695   */\n      iszero\n      tag_216\n      jumpi\n        /* \"#utility.yul\":7675:7693   */\n      tag_217\n      tag_102\n      jump\t// in\n    tag_217:\n        /* \"#utility.yul\":7639:7695   */\n    tag_216:\n        /* \"#utility.yul\":7713:7742   */\n      tag_218\n        /* \"#utility.yul\":7735:7741   */\n      dup3\n        /* \"#utility.yul\":7713:7742   */\n      tag_85\n      jump\t// in\n    tag_218:\n        /* \"#utility.yul\":7705:7742   */\n      swap1\n      pop\n        /* \"#utility.yul\":7797:7801   */\n      0x20\n        /* \"#utility.yul\":7791:7795   */\n      dup2\n        /* \"#utility.yul\":7787:7802   */\n      add\n        /* \"#utility.yul\":7779:7802   */\n      swap1\n      pop\n        /* \"#utility.yul\":7501:7809   */\n      swap2\n      swap1\n      pop\n      jump\t// out\n        /* \"#utility.yul\":7815:7961   */\n    tag_106:\n        /* \"#utility.yul\":7912:7918   */\n      dup3\n        /* \"#utility.yul\":7907:7910   */\n      dup2\n        /* \"#utility.yul\":7902:7905   */\n      dup4\n        /* \"#utility.yul\":7889:7919   */\n      calldatacopy\n        /* \"#utility.yul\":7953:7954   */\n      0x00\n        /* \"#utility.yul\":7944:7950   */\n      dup4\n        /* \"#utility.yul\":7939:7942   */\n      dup4\n        /* \"#utility.yul\":7935:7951   */\n      add\n        /* \"#utility.yul\":7928:7955   */\n      mstore\n        /* \"#utility.yul\":7815:7961   */\n      pop\n      pop\n      pop\n      jump\t// out\n        /* \"#utility.yul\":7967:8392   */\n    tag_107:\n        /* \"#utility.yul\":8045:8050   */\n      0x00\n        /* \"#utility.yul\":8070:8136   */\n      tag_221\n        /* \"#utility.yul\":8086:8135   */\n      tag_222\n        /* \"#utility.yul\":8128:8134   */\n      dup5\n        /* \"#utility.yul\":8086:8135   */\n      tag_105\n      jump\t// in\n    tag_222:\n        /* \"#utility.yul\":8070:8136   */\n      tag_104\n      jump\t// in\n    tag_221:\n        /* \"#utility.yul\":8061:8136   */\n      swap1\n      pop\n        /* \"#utility.yul\":8159:8165   */\n      dup3\n        /* \"#utility.yul\":8152:8157   */\n      dup2\n        /* \"#utility.yul\":8145:8166   */\n      mstore\n        /* \"#utility.yul\":8197:8201   */\n      0x20\n        /* \"#utility.yul\":8190:8195   */\n      dup2\n        /* \"#utility.yul\":8186:8202   */\n      add\n        /* \"#utility.yul\":8235:8238   */\n      dup5\n        /* \"#utility.yul\":8226:8232   */\n      dup5\n        /* \"#utility.yul\":8221:8224   */\n      dup5\n        /* \"#utility.yul\":8217:8233   */\n      add\n        /* \"#utility.yul\":8214:8239   */\n      gt\n        /* \"#utility.yul\":8211:8323   */\n      iszero\n      tag_223\n      jumpi\n        /* \"#utility.yul\":8242:8321   */\n      tag_224\n      tag_101\n      jump\t// in\n    tag_224:\n        /* \"#utility.yul\":8211:8323   */\n    tag_223:\n        /* \"#utility.yul\":8332:8386   */\n      tag_225\n        /* \"#utility.yul\":8379:8385   */\n      dup5\n        /* \"#utility.yul\":8374:8377   */\n      dup3\n        /* \"#utility.yul\":8369:8372   */\n      dup6\n        /* \"#utility.yul\":8332:8386   */\n      tag_106\n      jump\t// in\n    tag_225:\n        /* \"#utility.yul\":8051:8392   */\n      pop\n        /* \"#utility.yul\":7967:8392   */\n      swap4\n      swap3\n      pop\n      pop\n      pop\n      jump\t// out\n        /* \"#utility.yul\":8412:8752   */\n    tag_108:\n        /* \"#utility.yul\":8468:8473   */\n      0x00\n        /* \"#utility.yul\":8517:8520   */\n      dup3\n        /* \"#utility.yul\":8510:8514   */\n      0x1f\n        /* \"#utility.yul\":8502:8508   */\n      dup4\n        /* \"#utility.yul\":8498:8515   */\n      add\n        /* \"#utility.yul\":8494:8521   */\n      slt\n        /* \"#utility.yul\":8484:8606   */\n      tag_227\n      jumpi\n        /* \"#utility.yul\":8525:8604   */\n      tag_228\n      tag_100\n      jump\t// in\n    tag_228:\n        /* \"#utility.yul\":8484:8606   */\n    tag_227:\n        /* \"#utility.yul\":8642:8648   */\n      dup2\n        /* \"#utility.yul\":8629:8649   */\n      calldataload\n        /* \"#utility.yul\":8667:8746   */\n      tag_229\n        /* \"#utility.yul\":8742:8745   */\n      dup5\n        /* \"#utility.yul\":8734:8740   */\n      dup3\n        /* \"#utility.yul\":8727:8731   */\n      0x20\n        /* \"#utility.yul\":8719:8725   */\n      dup7\n        /* \"#utility.yul\":8715:8732   */\n      add\n        /* \"#utility.yul\":8667:8746   */\n      tag_107\n      jump\t// in\n    tag_229:\n        /* \"#utility.yul\":8658:8746   */\n      swap2\n      pop\n        /* \"#utility.yul\":8474:8752   */\n      pop\n        /* \"#utility.yul\":8412:8752   */\n      swap3\n      swap2\n      pop\n      pop\n      jump\t// out\n        /* \"#utility.yul\":8758:9557   */\n    tag_41:\n        /* \"#utility.yul\":8845:8851   */\n      0x00\n        /* \"#utility.yul\":8853:8859   */\n      dup1\n        /* \"#utility.yul\":8861:8867   */\n      0x00\n        /* \"#utility.yul\":8910:8912   */\n      0x60\n        /* \"#utility.yul\":8898:8907   */\n      dup5\n        /* \"#utility.yul\":8889:8896   */\n      dup7\n        /* \"#utility.yul\":8885:8908   */\n      sub\n        /* \"#utility.yul\":8881:8913   */\n      slt\n        /* \"#utility.yul\":8878:8997   */\n      iszero\n      tag_231\n      jumpi\n        /* \"#utility.yul\":8916:8995   */\n      tag_232\n      tag_77\n      jump\t// in\n    tag_232:\n        /* \"#utility.yul\":8878:8997   */\n    tag_231:\n        /* \"#utility.yul\":9036:9037   */\n      0x00\n        /* \"#utility.yul\":9061:9114   */\n      tag_233\n        /* \"#utility.yul\":9106:9113   */\n      dup7\n        /* \"#utility.yul\":9097:9103   */\n      dup3\n        /* \"#utility.yul\":9086:9095   */\n      dup8\n        /* \"#utility.yul\":9082:9104   */\n      add\n        /* \"#utility.yul\":9061:9114   */\n      tag_81\n      jump\t// in\n    tag_233:\n        /* \"#utility.yul\":9051:9114   */\n      swap4\n      pop\n        /* \"#utility.yul\":9007:9124   */\n      pop\n        /* \"#utility.yul\":9191:9193   */\n      0x20\n        /* \"#utility.yul\":9180:9189   */\n      dup5\n        /* \"#utility.yul\":9176:9194   */\n      add\n        /* \"#utility.yul\":9163:9195   */\n      calldataload\n        /* \"#utility.yul\":9222:9240   */\n      0xffffffffffffffff\n        /* \"#utility.yul\":9214:9220   */\n      dup2\n        /* \"#utility.yul\":9211:9241   */\n      gt\n        /* \"#utility.yul\":9208:9325   */\n      iszero\n      tag_234\n      jumpi\n        /* \"#utility.yul\":9244:9323   */\n      tag_235\n      tag_78\n      jump\t// in\n    tag_235:\n        /* \"#utility.yul\":9208:9325   */\n    tag_234:\n        /* \"#utility.yul\":9349:9412   */\n      tag_236\n        /* \"#utility.yul\":9404:9411   */\n      dup7\n        /* \"#utility.yul\":9395:9401   */\n      dup3\n        /* \"#utility.yul\":9384:9393   */\n      dup8\n        /* \"#utility.yul\":9380:9402   */\n      add\n        /* \"#utility.yul\":9349:9412   */\n      tag_108\n      jump\t// in\n    tag_236:\n        /* \"#utility.yul\":9339:9412   */\n      swap3\n      pop\n        /* \"#utility.yul\":9134:9422   */\n      pop\n        /* \"#utility.yul\":9461:9463   */\n      0x40\n        /* \"#utility.yul\":9487:9540   */\n      tag_237\n        /* \"#utility.yul\":9532:9539   */\n      dup7\n        /* \"#utility.yul\":9523:9529   */\n      dup3\n        /* \"#utility.yul\":9512:9521   */\n      dup8\n        /* \"#utility.yul\":9508:9530   */\n      add\n        /* \"#utility.yul\":9487:9540   */\n      tag_81\n      jump\t// in\n    tag_237:\n        /* \"#utility.yul\":9477:9540   */\n      swap2\n      pop\n        /* \"#utility.yul\":9432:9550   */\n      pop\n        /* \"#utility.yul\":8758:9557   */\n      swap3\n      pop\n      swap3\n      pop\n      swap3\n      jump\t// out\n        /* \"#utility.yul\":9563:9785   */\n    tag_109:\n        /* \"#utility.yul\":9703:9737   */\n      0x4f6e6c79206f776e65722063616e20706572666f726d20746869732061637469\n        /* \"#utility.yul\":9699:9700   */\n      0x00\n        /* \"#utility.yul\":9691:9697   */\n      dup3\n        /* \"#utility.yul\":9687:9701   */\n      add\n        /* \"#utility.yul\":9680:9738   */\n      mstore\n        /* \"#utility.yul\":9772:9777   */\n      0x6f6e2e0000000000000000000000000000000000000000000000000000000000\n        /* \"#utility.yul\":9767:9769   */\n      0x20\n        /* \"#utility.yul\":9759:9765   */\n      dup3\n        /* \"#utility.yul\":9755:9770   */\n      add\n        /* \"#utility.yul\":9748:9778   */\n      mstore\n        /* \"#utility.yul\":9563:9785   */\n      pop\n      jump\t// out\n        /* \"#utility.yul\":9791:10157   */\n    tag_110:\n        /* \"#utility.yul\":9933:9936   */\n      0x00\n        /* \"#utility.yul\":9954:10021   */\n      tag_240\n        /* \"#utility.yul\":10018:10020   */\n      0x23\n        /* \"#utility.yul\":10013:10016   */\n      dup4\n        /* \"#utility.yul\":9954:10021   */\n      tag_83\n      jump\t// in\n    tag_240:\n        /* \"#utility.yul\":9947:10021   */\n      swap2\n      pop\n        /* \"#utility.yul\":10030:10123   */\n      tag_241\n        /* \"#utility.yul\":10119:10122   */\n      dup3\n        /* \"#utility.yul\":10030:10123   */\n      tag_109\n      jump\t// in\n    tag_241:\n        /* \"#utility.yul\":10148:10150   */\n      0x40\n        /* \"#utility.yul\":10143:10146   */\n      dup3\n        /* \"#utility.yul\":10139:10151   */\n      add\n        /* \"#utility.yul\":10132:10151   */\n      swap1\n      pop\n        /* \"#utility.yul\":9791:10157   */\n      swap2\n      swap1\n      pop\n      jump\t// out\n        /* \"#utility.yul\":10163:10582   */\n    tag_49:\n        /* \"#utility.yul\":10329:10333   */\n      0x00\n        /* \"#utility.yul\":10367:10369   */\n      0x20\n        /* \"#utility.yul\":10356:10365   */\n      dup3\n        /* \"#utility.yul\":10352:10370   */\n      add\n        /* \"#utility.yul\":10344:10370   */\n      swap1\n      pop\n        /* \"#utility.yul\":10416:10425   */\n      dup2\n        /* \"#utility.yul\":10410:10414   */\n      dup2\n        /* \"#utility.yul\":10406:10426   */\n      sub\n        /* \"#utility.yul\":10402:10403   */\n      0x00\n        /* \"#utility.yul\":10391:10400   */\n      dup4\n        /* \"#utility.yul\":10387:10404   */\n      add\n        /* \"#utility.yul\":10380:10427   */\n      mstore\n        /* \"#utility.yul\":10444:10575   */\n      tag_243\n        /* \"#utility.yul\":10570:10574   */\n      dup2\n        /* \"#utility.yul\":10444:10575   */\n      tag_110\n      jump\t// in\n    tag_243:\n        /* \"#utility.yul\":10436:10575   */\n      swap1\n      pop\n        /* \"#utility.yul\":10163:10582   */\n      swap2\n      swap1\n      pop\n      jump\t// out\n        /* \"#utility.yul\":10588:10756   */\n    tag_111:\n        /* \"#utility.yul\":10728:10748   */\n      0x53747564656e74206e6f7420666f756e642e0000000000000000000000000000\n        /* \"#utility.yul\":10724:10725   */\n      0x00\n        /* \"#utility.yul\":10716:10722   */\n      dup3\n        /* \"#utility.yul\":10712:10726   */\n      add\n        /* \"#utility.yul\":10705:10749   */\n      mstore\n        /* \"#utility.yul\":10588:10756   */\n      pop\n      jump\t// out\n        /* \"#utility.yul\":10762:11128   */\n    tag_112:\n        /* \"#utility.yul\":10904:10907   */\n      0x00\n        /* \"#utility.yul\":10925:10992   */\n      tag_246\n        /* \"#utility.yul\":10989:10991   */\n      0x12\n        /* \"#utility.yul\":10984:10987   */\n      dup4\n        /* \"#utility.yul\":10925:10992   */\n      tag_83\n      jump\t// in\n    tag_246:\n        /* \"#utility.yul\":10918:10992   */\n      swap2\n      pop\n        /* \"#utility.yul\":11001:11094   */\n      tag_247\n        /* \"#utility.yul\":11090:11093   */\n      dup3\n        /* \"#utility.yul\":11001:11094   */\n      tag_111\n      jump\t// in\n    tag_247:\n        /* \"#utility.yul\":11119:11121   */\n      0x20\n        /* \"#utility.yul\":11114:11117   */\n      dup3\n        /* \"#utility.yul\":11110:11122   */\n      add\n        /* \"#utility.yul\":11103:11122   */\n      swap1\n      pop\n        /* \"#utility.yul\":10762:11128   */\n      swap2\n      swap1\n      pop\n      jump\t// out\n        /* \"#utility.yul\":11134:11553   */\n    tag_52:\n        /* \"#utility.yul\":11300:11304   */\n      0x00\n        /* \"#utility.yul\":11338:11340   */\n      0x20\n        /* \"#utility.yul\":11327:11336   */\n      dup3\n        /* \"#utility.yul\":11323:11341   */\n      add\n        /* \"#utility.yul\":11315:11341   */\n      swap1\n      pop\n        /* \"#utility.yul\":11387:11396   */\n      dup2\n        /* \"#utility.yul\":11381:11385   */\n      dup2\n        /* \"#utility.yul\":11377:11397   */\n      sub\n        /* \"#utility.yul\":11373:11374   */\n      0x00\n        /* \"#utility.yul\":11362:11371   */\n      dup4\n        /* \"#utility.yul\":11358:11375   */\n      add\n        /* \"#utility.yul\":11351:11398   */\n      mstore\n        /* \"#utility.yul\":11415:11546   */\n      tag_249\n        /* \"#utility.yul\":11541:11545   */\n      dup2\n        /* \"#utility.yul\":11415:11546   */\n      tag_112\n      jump\t// in\n    tag_249:\n        /* \"#utility.yul\":11407:11546   */\n      swap1\n      pop\n        /* \"#utility.yul\":11134:11553   */\n      swap2\n      swap1\n      pop\n      jump\t// out\n        /* \"#utility.yul\":11559:11739   */\n    tag_113:\n        /* \"#utility.yul\":11607:11684   */\n      0x4e487b7100000000000000000000000000000000000000000000000000000000\n        /* \"#utility.yul\":11604:11605   */\n      0x00\n        /* \"#utility.yul\":11597:11685   */\n      mstore\n        /* \"#utility.yul\":11704:11708   */\n      0x22\n        /* \"#utility.yul\":11701:11702   */\n      0x04\n        /* \"#utility.yul\":11694:11709   */\n      mstore\n        /* \"#utility.yul\":11728:11732   */\n      0x24\n        /* \"#utility.yul\":11725:11726   */\n      0x00\n        /* \"#utility.yul\":11718:11733   */\n      revert\n        /* \"#utility.yul\":11745:12065   */\n    tag_54:\n        /* \"#utility.yul\":11789:11795   */\n      0x00\n        /* \"#utility.yul\":11826:11827   */\n      0x02\n        /* \"#utility.yul\":11820:11824   */\n      dup3\n        /* \"#utility.yul\":11816:11828   */\n      div\n        /* \"#utility.yul\":11806:11828   */\n      swap1\n      pop\n        /* \"#utility.yul\":11873:11874   */\n      0x01\n        /* \"#utility.yul\":11867:11871   */\n      dup3\n        /* \"#utility.yul\":11863:11875   */\n      and\n        /* \"#utility.yul\":11894:11912   */\n      dup1\n        /* \"#utility.yul\":11884:11965   */\n      tag_252\n      jumpi\n        /* \"#utility.yul\":11950:11954   */\n      0x7f\n        /* \"#utility.yul\":11942:11948   */\n      dup3\n        /* \"#utility.yul\":11938:11955   */\n      and\n        /* \"#utility.yul\":11928:11955   */\n      swap2\n      pop\n        /* \"#utility.yul\":11884:11965   */\n    tag_252:\n        /* \"#utility.yul\":12012:12014   */\n      0x20\n        /* \"#utility.yul\":12004:12010   */\n      dup3\n        /* \"#utility.yul\":12001:12015   */\n      lt\n        /* \"#utility.yul\":11981:11999   */\n      dup2\n        /* \"#utility.yul\":11978:12016   */\n      sub\n        /* \"#utility.yul\":11975:12059   */\n      tag_253\n      jumpi\n        /* \"#utility.yul\":12031:12049   */\n      tag_254\n      tag_113\n      jump\t// in\n    tag_254:\n        /* \"#utility.yul\":11975:12059   */\n    tag_253:\n        /* \"#utility.yul\":11796:12065   */\n      pop\n        /* \"#utility.yul\":11745:12065   */\n      swap2\n      swap1\n      pop\n      jump\t// out\n        /* \"#utility.yul\":12071:12249   */\n    tag_114:\n        /* \"#utility.yul\":12211:12241   */\n      0x4f6e6c79206f776e65722063616e206164642073747564656e74732e00000000\n        /* \"#utility.yul\":12207:12208   */\n      0x00\n        /* \"#utility.yul\":12199:12205   */\n      dup3\n        /* \"#utility.yul\":12195:12209   */\n      add\n        /* \"#utility.yul\":12188:12242   */\n      mstore\n        /* \"#utility.yul\":12071:12249   */\n      pop\n      jump\t// out\n        /* \"#utility.yul\":12255:12621   */\n    tag_115:\n        /* \"#utility.yul\":12397:12400   */\n      0x00\n        /* \"#utility.yul\":12418:12485   */\n      tag_257\n        /* \"#utility.yul\":12482:12484   */\n      0x1c\n        /* \"#utility.yul\":12477:12480   */\n      dup4\n        /* \"#utility.yul\":12418:12485   */\n      tag_83\n      jump\t// in\n    tag_257:\n        /* \"#utility.yul\":12411:12485   */\n      swap2\n      pop\n        /* \"#utility.yul\":12494:12587   */\n      tag_258\n        /* \"#utility.yul\":12583:12586   */\n      dup3\n        /* \"#utility.yul\":12494:12587   */\n      tag_114\n      jump\t// in\n    tag_258:\n        /* \"#utility.yul\":12612:12614   */\n      0x20\n        /* \"#utility.yul\":12607:12610   */\n      dup3\n        /* \"#utility.yul\":12603:12615   */\n      add\n        /* \"#utility.yul\":12596:12615   */\n      swap1\n      pop\n        /* \"#utility.yul\":12255:12621   */\n      swap2\n      swap1\n      pop\n      jump\t// out\n        /* \"#utility.yul\":12627:13046   */\n    tag_67:\n        /* \"#utility.yul\":12793:12797   */\n      0x00\n        /* \"#utility.yul\":12831:12833   */\n      0x20\n        /* \"#utility.yul\":12820:12829   */\n      dup3\n        /* \"#utility.yul\":12816:12834   */\n      add\n        /* \"#utility.yul\":12808:12834   */\n      swap1\n      pop\n        /* \"#utility.yul\":12880:12889   */\n      dup2\n        /* \"#utility.yul\":12874:12878   */\n      dup2\n        /* \"#utility.yul\":12870:12890   */\n      sub\n        /* \"#utility.yul\":12866:12867   */\n      0x00\n        /* \"#utility.yul\":12855:12864   */\n      dup4\n        /* \"#utility.yul\":12851:12868   */\n      add\n        /* \"#utility.yul\":12844:12891   */\n      mstore\n        /* \"#utility.yul\":12908:13039   */\n      tag_260\n        /* \"#utility.yul\":13034:13038   */\n      dup2\n        /* \"#utility.yul\":12908:13039   */\n      tag_115\n      jump\t// in\n    tag_260:\n        /* \"#utility.yul\":12900:13039   */\n      swap1\n      pop\n        /* \"#utility.yul\":12627:13046   */\n      swap2\n      swap1\n      pop\n      jump\t// out\n        /* \"#utility.yul\":13052:13275   */\n    tag_116:\n        /* \"#utility.yul\":13192:13226   */\n      0x53747564656e742077697468207468697320494420616c726561647920657869\n        /* \"#utility.yul\":13188:13189   */\n      0x00\n        /* \"#utility.yul\":13180:13186   */\n      dup3\n        /* \"#utility.yul\":13176:13190   */\n      add\n        /* \"#utility.yul\":13169:13227   */\n      mstore\n        /* \"#utility.yul\":13261:13267   */\n      0x7374732e00000000000000000000000000000000000000000000000000000000\n        /* \"#utility.yul\":13256:13258   */\n      0x20\n        /* \"#utility.yul\":13248:13254   */\n      dup3\n        /* \"#utility.yul\":13244:13259   */\n      add\n        /* \"#utility.yul\":13237:13268   */\n      mstore\n        /* \"#utility.yul\":13052:13275   */\n      pop\n      jump\t// out\n        /* \"#utility.yul\":13281:13647   */\n    tag_117:\n        /* \"#utility.yul\":13423:13426   */\n      0x00\n        /* \"#utility.yul\":13444:13511   */\n      tag_263\n        /* \"#utility.yul\":13508:13510   */\n      0x24\n        /* \"#utility.yul\":13503:13506   */\n      dup4\n        /* \"#utility.yul\":13444:13511   */\n      tag_83\n      jump\t// in\n    tag_263:\n        /* \"#utility.yul\":13437:13511   */\n      swap2\n      pop\n        /* \"#utility.yul\":13520:13613   */\n      tag_264\n        /* \"#utility.yul\":13609:13612   */\n      dup3\n        /* \"#utility.yul\":13520:13613   */\n      tag_116\n      jump\t// in\n    tag_264:\n        /* \"#utility.yul\":13638:13640   */\n      0x40\n        /* \"#utility.yul\":13633:13636   */\n      dup3\n        /* \"#utility.yul\":13629:13641   */\n      add\n        /* \"#utility.yul\":13622:13641   */\n      swap1\n      pop\n        /* \"#utility.yul\":13281:13647   */\n      swap2\n      swap1\n      pop\n      jump\t// out\n        /* \"#utility.yul\":13653:14072   */\n    tag_70:\n        /* \"#utility.yul\":13819:13823   */\n      0x00\n        /* \"#utility.yul\":13857:13859   */\n      0x20\n        /* \"#utility.yul\":13846:13855   */\n      dup3\n        /* \"#utility.yul\":13842:13860   */\n      add\n        /* \"#utility.yul\":13834:13860   */\n      swap1\n      pop\n        /* \"#utility.yul\":13906:13915   */\n      dup2\n        /* \"#utility.yul\":13900:13904   */\n      dup2\n        /* \"#utility.yul\":13896:13916   */\n      sub\n        /* \"#utility.yul\":13892:13893   */\n      0x00\n        /* \"#utility.yul\":13881:13890   */\n      dup4\n        /* \"#utility.yul\":13877:13894   */\n      add\n        /* \"#utility.yul\":13870:13917   */\n      mstore\n        /* \"#utility.yul\":13934:14065   */\n      tag_266\n        /* \"#utility.yul\":14060:14064   */\n      dup2\n        /* \"#utility.yul\":13934:14065   */\n      tag_117\n      jump\t// in\n    tag_266:\n        /* \"#utility.yul\":13926:14065   */\n      swap1\n      pop\n        /* \"#utility.yul\":13653:14072   */\n      swap2\n      swap1\n      pop\n      jump\t// out\n        /* \"#utility.yul\":14078:14219   */\n    tag_118:\n        /* \"#utility.yul\":14127:14131   */\n      0x00\n        /* \"#utility.yul\":14150:14153   */\n      dup2\n        /* \"#utility.yul\":14142:14153   */\n      swap1\n      pop\n        /* \"#utility.yul\":14173:14176   */\n      dup2\n        /* \"#utility.yul\":14170:14171   */\n      0x00\n        /* \"#utility.yul\":14163:14177   */\n      mstore\n        /* \"#utility.yul\":14207:14211   */\n      0x20\n        /* \"#utility.yul\":14204:14205   */\n      0x00\n        /* \"#utility.yul\":14194:14212   */\n      keccak256\n        /* \"#utility.yul\":14186:14212   */\n      swap1\n      pop\n        /* \"#utility.yul\":14078:14219   */\n      swap2\n      swap1\n      pop\n      jump\t// out\n        /* \"#utility.yul\":14225:14318   */\n    tag_119:\n        /* \"#utility.yul\":14262:14268   */\n      0x00\n        /* \"#utility.yul\":14309:14311   */\n      0x20\n        /* \"#utility.yul\":14304:14306   */\n      0x1f\n        /* \"#utility.yul\":14297:14302   */\n      dup4\n        /* \"#utility.yul\":14293:14307   */\n      add\n        /* \"#utility.yul\":14289:14312   */\n      div\n        /* \"#utility.yul\":14279:14312   */\n      swap1\n      pop\n        /* \"#utility.yul\":14225:14318   */\n      swap2\n      swap1\n      pop\n      jump\t// out\n        /* \"#utility.yul\":14324:14431   */\n    tag_120:\n        /* \"#utility.yul\":14368:14376   */\n      0x00\n        /* \"#utility.yul\":14418:14423   */\n      dup3\n        /* \"#utility.yul\":14412:14416   */\n      dup3\n        /* \"#utility.yul\":14408:14424   */\n      shl\n        /* \"#utility.yul\":14387:14424   */\n      swap1\n      pop\n        /* \"#utility.yul\":14324:14431   */\n      swap3\n      swap2\n      pop\n      pop\n      jump\t// out\n        /* \"#utility.yul\":14437:14830   */\n    tag_121:\n        /* \"#utility.yul\":14506:14512   */\n      0x00\n        /* \"#utility.yul\":14556:14557   */\n      0x08\n        /* \"#utility.yul\":14544:14554   */\n      dup4\n        /* \"#utility.yul\":14540:14558   */\n      mul\n        /* \"#utility.yul\":14579:14676   */\n      tag_271\n        /* \"#utility.yul\":14609:14675   */\n      0xffffffffffffffffffffffffffffffffffffffffffffffffffffffffffffffff\n        /* \"#utility.yul\":14598:14607   */\n      dup3\n        /* \"#utility.yul\":14579:14676   */\n      tag_120\n      jump\t// in\n    tag_271:\n        /* \"#utility.yul\":14697:14736   */\n      tag_272\n        /* \"#utility.yul\":14727:14735   */\n      dup7\n        /* \"#utility.yul\":14716:14725   */\n      dup4\n        /* \"#utility.yul\":14697:14736   */\n      tag_120\n      jump\t// in\n    tag_272:\n        /* \"#utility.yul\":14685:14736   */\n      swap6\n      pop\n        /* \"#utility.yul\":14769:14773   */\n      dup1\n        /* \"#utility.yul\":14765:14774   */\n      not\n        /* \"#utility.yul\":14758:14763   */\n      dup5\n        /* \"#utility.yul\":14754:14775   */\n      and\n        /* \"#utility.yul\":14745:14775   */\n      swap4\n      pop\n        /* \"#utility.yul\":14818:14822   */\n      dup1\n        /* \"#utility.yul\":14808:14816   */\n      dup7\n        /* \"#utility.yul\":14804:14823   */\n      and\n        /* \"#utility.yul\":14797:14802   */\n      dup5\n        /* \"#utility.yul\":14794:14824   */\n      or\n        /* \"#utility.yul\":14784:14824   */\n      swap3\n      pop\n        /* \"#utility.yul\":14513:14830   */\n      pop\n      pop\n        /* \"#utility.yul\":14437:14830   */\n      swap4\n      swap3\n      pop\n      pop\n      pop\n      jump\t// out\n        /* \"#utility.yul\":14836:14896   */\n    tag_122:\n        /* \"#utility.yul\":14864:14867   */\n      0x00\n        /* \"#utility.yul\":14885:14890   */\n      dup2\n        /* \"#utility.yul\":14878:14890   */\n      swap1\n      pop\n        /* \"#utility.yul\":14836:14896   */\n      swap2\n      swap1\n      pop\n      jump\t// out\n        /* \"#utility.yul\":14902:15044   */\n    tag_123:\n        /* \"#utility.yul\":14952:14961   */\n      0x00\n        /* \"#utility.yul\":14985:15038   */\n      tag_275\n        /* \"#utility.yul\":15003:15037   */\n      tag_276\n        /* \"#utility.yul\":15012:15036   */\n      tag_277\n        /* \"#utility.yul\":15030:15035   */\n      dup5\n        /* \"#utility.yul\":15012:15036   */\n      tag_79\n      jump\t// in\n    tag_277:\n        /* \"#utility.yul\":15003:15037   */\n      tag_122\n      jump\t// in\n    tag_276:\n        /* \"#utility.yul\":14985:15038   */\n      tag_79\n      jump\t// in\n    tag_275:\n        /* \"#utility.yul\":14972:15038   */\n      swap1\n      pop\n        /* \"#utility.yul\":14902:15044   */\n      swap2\n      swap1\n      pop\n      jump\t// out\n        /* \"#utility.yul\":15050:15125   */\n    tag_124:\n        /* \"#utility.yul\":15093:15096   */\n      0x00\n        /* \"#utility.yul\":15114:15119   */\n      dup2\n        /* \"#utility.yul\":15107:15119   */\n      swap1\n      pop\n        /* \"#utility.yul\":15050:15125   */\n      swap2\n      swap1\n      pop\n      jump\t// out\n        /* \"#utility.yul\":15131:15400   */\n    tag_125:\n        /* \"#utility.yul\":15241:15280   */\n      tag_280\n        /* \"#utility.yul\":15272:15279   */\n      dup4\n        /* \"#utility.yul\":15241:15280   */\n      tag_123\n      jump\t// in\n    tag_280:\n        /* \"#utility.yul\":15302:15393   */\n      tag_281\n        /* \"#utility.yul\":15351:15392   */\n      tag_282\n        /* \"#utility.yul\":15375:15391   */\n      dup3\n        /* \"#utility.yul\":15351:15392   */\n      tag_124\n      jump\t// in\n    tag_282:\n        /* \"#utility.yul\":15343:15349   */\n      dup5\n        /* \"#utility.yul\":15336:15340   */\n      dup5\n        /* \"#utility.yul\":15330:15341   */\n      sload\n        /* \"#utility.yul\":15302:15393   */\n      tag_121\n      jump\t// in\n    tag_281:\n        /* \"#utility.yul\":15296:15300   */\n      dup3\n        /* \"#utility.yul\":15289:15394   */\n      sstore\n        /* \"#utility.yul\":15207:15400   */\n      pop\n        /* \"#utility.yul\":15131:15400   */\n      pop\n      pop\n      pop\n      jump\t// out\n        /* \"#utility.yul\":15406:15479   */\n    tag_126:\n        /* \"#utility.yul\":15451:15454   */\n      0x00\n        /* \"#utility.yul\":15406:15479   */\n      swap1\n      jump\t// out\n        /* \"#utility.yul\":15485:15674   */\n    tag_127:\n        /* \"#utility.yul\":15562:15594   */\n      tag_285\n      tag_126\n      jump\t// in\n    tag_285:\n        /* \"#utility.yul\":15603:15668   */\n      tag_286\n        /* \"#utility.yul\":15661:15667   */\n      dup2\n        /* \"#utility.yul\":15653:15659   */\n      dup5\n        /* \"#utility.yul\":15647:15651   */\n      dup5\n        /* \"#utility.yul\":15603:15668   */\n      tag_125\n      jump\t// in\n    tag_286:\n        /* \"#utility.yul\":15538:15674   */\n      pop\n        /* \"#utility.yul\":15485:15674   */\n      pop\n      pop\n      jump\t// out\n        /* \"#utility.yul\":15680:15866   */\n    tag_128:\n        /* \"#utility.yul\":15740:15860   */\n    tag_288:\n        /* \"#utility.yul\":15757:15760   */\n      dup2\n        /* \"#utility.yul\":15750:15755   */\n      dup2\n        /* \"#utility.yul\":15747:15761   */\n      lt\n        /* \"#utility.yul\":15740:15860   */\n      iszero\n      tag_290\n      jumpi\n        /* \"#utility.yul\":15811:15850   */\n      tag_291\n        /* \"#utility.yul\":15848:15849   */\n      0x00\n        /* \"#utility.yul\":15841:15846   */\n      dup3\n        /* \"#utility.yul\":15811:15850   */\n      tag_127\n      jump\t// in\n    tag_291:\n        /* \"#utility.yul\":15784:15785   */\n      0x01\n        /* \"#utility.yul\":15777:15782   */\n      dup2\n        /* \"#utility.yul\":15773:15786   */\n      add\n        /* \"#utility.yul\":15764:15786   */\n      swap1\n      pop\n        /* \"#utility.yul\":15740:15860   */\n      jump(tag_288)\n    tag_290:\n        /* \"#utility.yul\":15680:15866   */\n      pop\n      pop\n      jump\t// out\n        /* \"#utility.yul\":15872:16415   */\n    tag_129:\n        /* \"#utility.yul\":15973:15975   */\n      0x1f\n        /* \"#utility.yul\":15968:15971   */\n      dup3\n        /* \"#utility.yul\":15965:15976   */\n      gt\n        /* \"#utility.yul\":15962:16408   */\n      iszero\n      tag_293\n      jumpi\n        /* \"#utility.yul\":16007:16045   */\n      tag_294\n        /* \"#utility.yul\":16039:16044   */\n      dup2\n        /* \"#utility.yul\":16007:16045   */\n      tag_118\n      jump\t// in\n    tag_294:\n        /* \"#utility.yul\":16091:16120   */\n      tag_295\n        /* \"#utility.yul\":16109:16119   */\n      dup5\n        /* \"#utility.yul\":16091:16120   */\n      tag_119\n      jump\t// in\n    tag_295:\n        /* \"#utility.yul\":16081:16089   */\n      dup2\n        /* \"#utility.yul\":16077:16121   */\n      add\n        /* \"#utility.yul\":16274:16276   */\n      0x20\n        /* \"#utility.yul\":16262:16272   */\n      dup6\n        /* \"#utility.yul\":16259:16277   */\n      lt\n        /* \"#utility.yul\":16256:16305   */\n      iszero\n      tag_296\n      jumpi\n        /* \"#utility.yul\":16295:16303   */\n      dup2\n        /* \"#utility.yul\":16280:16303   */\n      swap1\n      pop\n        /* \"#utility.yul\":16256:16305   */\n    tag_296:\n        /* \"#utility.yul\":16318:16398   */\n      tag_297\n        /* \"#utility.yul\":16374:16396   */\n      tag_298\n        /* \"#utility.yul\":16392:16395   */\n      dup6\n        /* \"#utility.yul\":16374:16396   */\n      tag_119\n      jump\t// in\n    tag_298:\n        /* \"#utility.yul\":16364:16372   */\n      dup4\n        /* \"#utility.yul\":16360:16397   */\n      add\n        /* \"#utility.yul\":16347:16358   */\n      dup3\n        /* \"#utility.yul\":16318:16398   */\n      tag_128\n      jump\t// in\n    tag_297:\n        /* \"#utility.yul\":15977:16408   */\n      pop\n      pop\n        /* \"#utility.yul\":15962:16408   */\n    tag_293:\n        /* \"#utility.yul\":15872:16415   */\n      pop\n      pop\n      pop\n      jump\t// out\n        /* \"#utility.yul\":16421:16538   */\n    tag_130:\n        /* \"#utility.yul\":16475:16483   */\n      0x00\n        /* \"#utility.yul\":16525:16530   */\n      dup3\n        /* \"#utility.yul\":16519:16523   */\n      dup3\n        /* \"#utility.yul\":16515:16531   */\n      shr\n        /* \"#utility.yul\":16494:16531   */\n      swap1\n      pop\n        /* \"#utility.yul\":16421:16538   */\n      swap3\n      swap2\n      pop\n      pop\n      jump\t// out\n        /* \"#utility.yul\":16544:16713   */\n    tag_131:\n        /* \"#utility.yul\":16588:16594   */\n      0x00\n        /* \"#utility.yul\":16621:16672   */\n      tag_301\n        /* \"#utility.yul\":16669:16670   */\n      0x00\n        /* \"#utility.yul\":16665:16671   */\n      not\n        /* \"#utility.yul\":16657:16662   */\n      dup5\n        /* \"#utility.yul\":16654:16655   */\n      0x08\n        /* \"#utility.yul\":16650:16663   */\n      mul\n        /* \"#utility.yul\":16621:16672   */\n      tag_130\n      jump\t// in\n    tag_301:\n        /* \"#utility.yul\":16617:16673   */\n      not\n        /* \"#utility.yul\":16702:16706   */\n      dup1\n        /* \"#utility.yul\":16696:16700   */\n      dup4\n        /* \"#utility.yul\":16692:16707   */\n      and\n        /* \"#utility.yul\":16682:16707   */\n      swap2\n      pop\n        /* \"#utility.yul\":16595:16713   */\n      pop\n        /* \"#utility.yul\":16544:16713   */\n      swap3\n      swap2\n      pop\n      pop\n      jump\t// out\n        /* \"#utility.yul\":16718:17013   */\n    tag_132:\n        /* \"#utility.yul\":16794:16798   */\n      0x00\n        /* \"#utility.yul\":16940:16969   */\n      tag_303\n        /* \"#utility.yul\":16965:16968   */\n      dup4\n        /* \"#utility.yul\":16959:16963   */\n      dup4\n        /* \"#utility.yul\":16940:16969   */\n      tag_131\n      jump\t// in\n    tag_303:\n        /* \"#utility.yul\":16932:16969   */\n      swap2\n      pop\n        /* \"#utility.yul\":17002:17005   */\n      dup3\n        /* \"#utility.yul\":16999:17000   */\n      0x02\n        /* \"#utility.yul\":16995:17006   */\n      mul\n        /* \"#utility.yul\":16989:16993   */\n      dup3\n        /* \"#utility.yul\":16986:17007   */\n      or\n        /* \"#utility.yul\":16978:17007   */\n      swap1\n      pop\n        /* \"#utility.yul\":16718:17013   */\n      swap3\n      swap2\n      pop\n      pop\n      jump\t// out\n        /* \"#utility.yul\":17018:18413   */\n    tag_72:\n        /* \"#utility.yul\":17135:17172   */\n      tag_305\n        /* \"#utility.yul\":17168:17171   */\n      dup3\n        /* \"#utility.yul\":17135:17172   */\n      tag_82\n      jump\t// in\n    tag_305:\n        /* \"#utility.yul\":17237:17255   */\n      0xffffffffffffffff\n        /* \"#utility.yul\":17229:17235   */\n      dup2\n        /* \"#utility.yul\":17226:17256   */\n      gt\n        /* \"#utility.yul\":17223:17279   */\n      iszero\n      tag_306\n      jumpi\n        /* \"#utility.yul\":17259:17277   */\n      tag_307\n      tag_102\n      jump\t// in\n    tag_307:\n        /* \"#utility.yul\":17223:17279   */\n    tag_306:\n        /* \"#utility.yul\":17303:17341   */\n      tag_308\n        /* \"#utility.yul\":17335:17339   */\n      dup3\n        /* \"#utility.yul\":17329:17340   */\n      sload\n        /* \"#utility.yul\":17303:17341   */\n      tag_54\n      jump\t// in\n    tag_308:\n        /* \"#utility.yul\":17388:17455   */\n      tag_309\n        /* \"#utility.yul\":17448:17454   */\n      dup3\n        /* \"#utility.yul\":17440:17446   */\n      dup3\n        /* \"#utility.yul\":17434:17438   */\n      dup6\n        /* \"#utility.yul\":17388:17455   */\n      tag_129\n      jump\t// in\n    tag_309:\n        /* \"#utility.yul\":17482:17483   */\n      0x00\n        /* \"#utility.yul\":17506:17510   */\n      0x20\n        /* \"#utility.yul\":17493:17510   */\n      swap1\n      pop\n        /* \"#utility.yul\":17538:17540   */\n      0x1f\n        /* \"#utility.yul\":17530:17536   */\n      dup4\n        /* \"#utility.yul\":17527:17541   */\n      gt\n        /* \"#utility.yul\":17555:17556   */\n      0x01\n        /* \"#utility.yul\":17550:18168   */\n      dup2\n      eq\n      tag_311\n      jumpi\n        /* \"#utility.yul\":18212:18213   */\n      0x00\n        /* \"#utility.yul\":18229:18235   */\n      dup5\n        /* \"#utility.yul\":18226:18303   */\n      iszero\n      tag_312\n      jumpi\n        /* \"#utility.yul\":18278:18287   */\n      dup3\n        /* \"#utility.yul\":18273:18276   */\n      dup8\n        /* \"#utility.yul\":18269:18288   */\n      add\n        /* \"#utility.yul\":18263:18289   */\n      mload\n        /* \"#utility.yul\":18254:18289   */\n      swap1\n      pop\n        /* \"#utility.yul\":18226:18303   */\n    tag_312:\n        /* \"#utility.yul\":18329:18396   */\n      tag_313\n        /* \"#utility.yul\":18389:18395   */\n      dup6\n        /* \"#utility.yul\":18382:18387   */\n      dup3\n        /* \"#utility.yul\":18329:18396   */\n      tag_132\n      jump\t// in\n    tag_313:\n        /* \"#utility.yul\":18323:18327   */\n      dup7\n        /* \"#utility.yul\":18316:18397   */\n      sstore\n        /* \"#utility.yul\":18185:18407   */\n      pop\n        /* \"#utility.yul\":17520:18407   */\n      jump(tag_310)\n        /* \"#utility.yul\":17550:18168   */\n    tag_311:\n        /* \"#utility.yul\":17602:17606   */\n      0x1f\n        /* \"#utility.yul\":17598:17607   */\n      not\n        /* \"#utility.yul\":17590:17596   */\n      dup5\n        /* \"#utility.yul\":17586:17608   */\n      and\n        /* \"#utility.yul\":17636:17673   */\n      tag_314\n        /* \"#utility.yul\":17668:17672   */\n      dup7\n        /* \"#utility.yul\":17636:17673   */\n      tag_118\n      jump\t// in\n    tag_314:\n        /* \"#utility.yul\":17695:17696   */\n      0x00\n        /* \"#utility.yul\":17709:17917   */\n    tag_315:\n        /* \"#utility.yul\":17723:17730   */\n      dup3\n        /* \"#utility.yul\":17720:17721   */\n      dup2\n        /* \"#utility.yul\":17717:17731   */\n      lt\n        /* \"#utility.yul\":17709:17917   */\n      iszero\n      tag_317\n      jumpi\n        /* \"#utility.yul\":17802:17811   */\n      dup5\n        /* \"#utility.yul\":17797:17800   */\n      dup10\n        /* \"#utility.yul\":17793:17812   */\n      add\n        /* \"#utility.yul\":17787:17813   */\n      mload\n        /* \"#utility.yul\":17779:17785   */\n      dup3\n        /* \"#utility.yul\":17772:17814   */\n      sstore\n        /* \"#utility.yul\":17853:17854   */\n      0x01\n        /* \"#utility.yul\":17845:17851   */\n      dup3\n        /* \"#utility.yul\":17841:17855   */\n      add\n        /* \"#utility.yul\":17831:17855   */\n      swap2\n      pop\n        /* \"#utility.yul\":17900:17902   */\n      0x20\n        /* \"#utility.yul\":17889:17898   */\n      dup6\n        /* \"#utility.yul\":17885:17903   */\n      add\n        /* \"#utility.yul\":17872:17903   */\n      swap5\n      pop\n        /* \"#utility.yul\":17746:17750   */\n      0x20\n        /* \"#utility.yul\":17743:17744   */\n      dup2\n        /* \"#utility.yul\":17739:17751   */\n      add\n        /* \"#utility.yul\":17734:17751   */\n      swap1\n      pop\n        /* \"#utility.yul\":17709:17917   */\n      jump(tag_315)\n    tag_317:\n        /* \"#utility.yul\":17945:17951   */\n      dup7\n        /* \"#utility.yul\":17936:17943   */\n      dup4\n        /* \"#utility.yul\":17933:17952   */\n      lt\n        /* \"#utility.yul\":17930:18109   */\n      iszero\n      tag_318\n      jumpi\n        /* \"#utility.yul\":18003:18012   */\n      dup5\n        /* \"#utility.yul\":17998:18001   */\n      dup10\n        /* \"#utility.yul\":17994:18013   */\n      add\n        /* \"#utility.yul\":17988:18014   */\n      mload\n        /* \"#utility.yul\":18046:18094   */\n      tag_319\n        /* \"#utility.yul\":18088:18092   */\n      0x1f\n        /* \"#utility.yul\":18080:18086   */\n      dup10\n        /* \"#utility.yul\":18076:18093   */\n      and\n        /* \"#utility.yul\":18065:18074   */\n      dup3\n        /* \"#utility.yul\":18046:18094   */\n      tag_131\n      jump\t// in\n    tag_319:\n        /* \"#utility.yul\":18038:18044   */\n      dup4\n        /* \"#utility.yul\":18031:18095   */\n      sstore\n        /* \"#utility.yul\":17953:18109   */\n      pop\n        /* \"#utility.yul\":17930:18109   */\n    tag_318:\n        /* \"#utility.yul\":18155:18156   */\n      0x01\n        /* \"#utility.yul\":18151:18152   */\n      0x02\n        /* \"#utility.yul\":18143:18149   */\n      dup9\n        /* \"#utility.yul\":18139:18153   */\n      mul\n        /* \"#utility.yul\":18135:18157   */\n      add\n        /* \"#utility.yul\":18129:18133   */\n      dup9\n        /* \"#utility.yul\":18122:18158   */\n      sstore\n        /* \"#utility.yul\":17557:18168   */\n      pop\n      pop\n      pop\n        /* \"#utility.yul\":17520:18407   */\n    tag_310:\n      pop\n        /* \"#utility.yul\":17110:18413   */\n      pop\n      pop\n      pop\n        /* \"#utility.yul\":17018:18413   */\n      pop\n      pop\n      jump\t// out\n        /* \"#utility.yul\":18419:18599   */\n    tag_133:\n        /* \"#utility.yul\":18467:18544   */\n      0x4e487b7100000000000000000000000000000000000000000000000000000000\n        /* \"#utility.yul\":18464:18465   */\n      0x00\n        /* \"#utility.yul\":18457:18545   */\n      mstore\n        /* \"#utility.yul\":18564:18568   */\n      0x11\n        /* \"#utility.yul\":18561:18562   */\n      0x04\n        /* \"#utility.yul\":18554:18569   */\n      mstore\n        /* \"#utility.yul\":18588:18592   */\n      0x24\n        /* \"#utility.yul\":18585:18586   */\n      0x00\n        /* \"#utility.yul\":18578:18593   */\n      revert\n        /* \"#utility.yul\":18605:18838   */\n    tag_75:\n        /* \"#utility.yul\":18644:18647   */\n      0x00\n        /* \"#utility.yul\":18667:18691   */\n      tag_322\n        /* \"#utility.yul\":18685:18690   */\n      dup3\n        /* \"#utility.yul\":18667:18691   */\n      tag_79\n      jump\t// in\n    tag_322:\n        /* \"#utility.yul\":18658:18691   */\n      swap2\n      pop\n        /* \"#utility.yul\":18713:18779   */\n      0xffffffffffffffffffffffffffffffffffffffffffffffffffffffffffffffff\n        /* \"#utility.yul\":18706:18711   */\n      dup3\n        /* \"#utility.yul\":18703:18780   */\n      sub\n        /* \"#utility.yul\":18700:18803   */\n      tag_323\n      jumpi\n        /* \"#utility.yul\":18783:18801   */\n      tag_324\n      tag_133\n      jump\t// in\n    tag_324:\n        /* \"#utility.yul\":18700:18803   */\n    tag_323:\n        /* \"#utility.yul\":18830:18831   */\n      0x01\n        /* \"#utility.yul\":18823:18828   */\n      dup3\n        /* \"#utility.yul\":18819:18832   */\n      add\n        /* \"#utility.yul\":18812:18832   */\n      swap1\n      pop\n        /* \"#utility.yul\":18605:18838   */\n      swap2\n      swap1\n      pop\n      jump\t// out\n\n    auxdata: 0xa2646970667358221220b093e90a5a361e391ff427b151b61ad9deadf2f12db218a44cbf35dee69bf6f564736f6c63430008180033\n}\n",
				"bytecode": {
					"linkReferences": {},
					"object": "608060405234801561000f575f80fd5b50335f806101000a81548173ffffffffffffffffffffffffffffffffffffffff021916908373ffffffffffffffffffffffffffffffffffffffff160217905550610fd88061005c5f395ff3fe608060405234801561000f575f80fd5b5060043610610086575f3560e01c8063834d336c11610059578063834d336c146101275780638da5cb5b14610145578063c1bea1db14610163578063e581f9ee1461017f57610086565b806313a46f311461008a57806330c25dfd146100a65780636e9bac2a146100c45780636f28c355146100f7575b5f80fd5b6100a4600480360381019061009f9190610613565b61019d565b005b6100ae610291565b6040516100bb91906106db565b60405180910390f35b6100de60048036038101906100d991906106fb565b6102ca565b6040516100ee949392919061074f565b60405180910390f35b610111600480360381019061010c91906106fb565b610388565b60405161011e9190610799565b60405180910390f35b61012f6103a8565b60405161013c9190610869565b60405180910390f35b61014d6103fe565b60405161015a91906108c8565b60405180910390f35b61017d60048036038101906101789190610a0d565b610421565b005b6101876105c9565b6040516101949190610799565b60405180910390f35b5f8054906101000a900473ffffffffffffffffffffffffffffffffffffffff1673ffffffffffffffffffffffffffffffffffffffff163373ffffffffffffffffffffffffffffffffffffffff161461022a576040517f08c379a000000000000000000000000000000000000000000000000000000000815260040161022190610ae9565b60405180910390fd5b5f60025f8481526020019081526020015f2090505f815f015403610283576040517f08c379a000000000000000000000000000000000000000000000000000000000815260040161027a90610b51565b60405180910390fd5b818160020181905550505050565b6040518060400160405280601981526020017f536f6c696469747920416476616e6365642041636164656d790000000000000081525081565b6002602052805f5260405f205f91509050805f0154908060010180546102ef90610b9c565b80601f016020809104026020016040519081016040528092919081815260200182805461031b90610b9c565b80156103665780601f1061033d57610100808354040283529160200191610366565b820191905f5260205f20905b81548152906001019060200180831161034957829003601f168201915b505050505090806002015490806003015f9054906101000a900460ff16905084565b60038181548110610397575f80fd5b905f5260205f20015f915090505481565b606060038054806020026020016040519081016040528092919081815260200182805480156103f457602002820191905f5260205f20905b8154815260200190600101908083116103e0575b5050505050905090565b5f8054906101000a900473ffffffffffffffffffffffffffffffffffffffff1681565b5f8054906101000a900473ffffffffffffffffffffffffffffffffffffffff1673ffffffffffffffffffffffffffffffffffffffff163373ffffffffffffffffffffffffffffffffffffffff16146104ae576040517f08c379a00000000000000000000000000000000000000000000000000000000081526004016104a590610c16565b60405180910390fd5b5f60025f8581526020019081526020015f205f015414610503576040517f08c379a00000000000000000000000000000000000000000000000000000000081526004016104fa90610ca4565b60405180910390fd5b5f60405180608001604052808581526020018481526020018381526020016001151581525090508060025f8681526020019081526020015f205f820151815f015560208201518160010190816105599190610e5f565b50604082015181600201556060820151816003015f6101000a81548160ff021916908315150217905550905050600384908060018154018082558091505060019003905f5260205f20015f909190919091505560015f8154809291906105be90610f5b565b919050555050505050565b60015481565b5f604051905090565b5f80fd5b5f80fd5b5f819050919050565b6105f2816105e0565b81146105fc575f80fd5b50565b5f8135905061060d816105e9565b92915050565b5f8060408385031215610629576106286105d8565b5b5f610636858286016105ff565b9250506020610647858286016105ff565b9150509250929050565b5f81519050919050565b5f82825260208201905092915050565b5f5b8381101561068857808201518184015260208101905061066d565b5f8484015250505050565b5f601f19601f8301169050919050565b5f6106ad82610651565b6106b7818561065b565b93506106c781856020860161066b565b6106d081610693565b840191505092915050565b5f6020820190508181035f8301526106f381846106a3565b905092915050565b5f602082840312156107105761070f6105d8565b5b5f61071d848285016105ff565b91505092915050565b61072f816105e0565b82525050565b5f8115159050919050565b61074981610735565b82525050565b5f6080820190506107625f830187610726565b818103602083015261077481866106a3565b90506107836040830185610726565b6107906060830184610740565b95945050505050565b5f6020820190506107ac5f830184610726565b92915050565b5f81519050919050565b5f82825260208201905092915050565b5f819050602082019050919050565b6107e4816105e0565b82525050565b5f6107f583836107db565b60208301905092915050565b5f602082019050919050565b5f610817826107b2565b61082181856107bc565b935061082c836107cc565b805f5b8381101561085c57815161084388826107ea565b975061084e83610801565b92505060018101905061082f565b5085935050505092915050565b5f6020820190508181035f830152610881818461080d565b905092915050565b5f73ffffffffffffffffffffffffffffffffffffffff82169050919050565b5f6108b282610889565b9050919050565b6108c2816108a8565b82525050565b5f6020820190506108db5f8301846108b9565b92915050565b5f80fd5b5f80fd5b7f4e487b71000000000000000000000000000000000000000000000000000000005f52604160045260245ffd5b61091f82610693565b810181811067ffffffffffffffff8211171561093e5761093d6108e9565b5b80604052505050565b5f6109506105cf565b905061095c8282610916565b919050565b5f67ffffffffffffffff82111561097b5761097a6108e9565b5b61098482610693565b9050602081019050919050565b828183375f83830152505050565b5f6109b16109ac84610961565b610947565b9050828152602081018484840111156109cd576109cc6108e5565b5b6109d8848285610991565b509392505050565b5f82601f8301126109f4576109f36108e1565b5b8135610a0484826020860161099f565b91505092915050565b5f805f60608486031215610a2457610a236105d8565b5b5f610a31868287016105ff565b935050602084013567ffffffffffffffff811115610a5257610a516105dc565b5b610a5e868287016109e0565b9250506040610a6f868287016105ff565b9150509250925092565b7f4f6e6c79206f776e65722063616e20706572666f726d207468697320616374695f8201527f6f6e2e0000000000000000000000000000000000000000000000000000000000602082015250565b5f610ad360238361065b565b9150610ade82610a79565b604082019050919050565b5f6020820190508181035f830152610b0081610ac7565b9050919050565b7f53747564656e74206e6f7420666f756e642e00000000000000000000000000005f82015250565b5f610b3b60128361065b565b9150610b4682610b07565b602082019050919050565b5f6020820190508181035f830152610b6881610b2f565b9050919050565b7f4e487b71000000000000000000000000000000000000000000000000000000005f52602260045260245ffd5b5f6002820490506001821680610bb357607f821691505b602082108103610bc657610bc5610b6f565b5b50919050565b7f4f6e6c79206f776e65722063616e206164642073747564656e74732e000000005f82015250565b5f610c00601c8361065b565b9150610c0b82610bcc565b602082019050919050565b5f6020820190508181035f830152610c2d81610bf4565b9050919050565b7f53747564656e742077697468207468697320494420616c7265616479206578695f8201527f7374732e00000000000000000000000000000000000000000000000000000000602082015250565b5f610c8e60248361065b565b9150610c9982610c34565b604082019050919050565b5f6020820190508181035f830152610cbb81610c82565b9050919050565b5f819050815f5260205f209050919050565b5f6020601f8301049050919050565b5f82821b905092915050565b5f60088302610d1e7fffffffffffffffffffffffffffffffffffffffffffffffffffffffffffffffff82610ce3565b610d288683610ce3565b95508019841693508086168417925050509392505050565b5f819050919050565b5f610d63610d5e610d59846105e0565b610d40565b6105e0565b9050919050565b5f819050919050565b610d7c83610d49565b610d90610d8882610d6a565b848454610cef565b825550505050565b5f90565b610da4610d98565b610daf818484610d73565b505050565b5b81811015610dd257610dc75f82610d9c565b600181019050610db5565b5050565b601f821115610e1757610de881610cc2565b610df184610cd4565b81016020851015610e00578190505b610e14610e0c85610cd4565b830182610db4565b50505b505050565b5f82821c905092915050565b5f610e375f1984600802610e1c565b1980831691505092915050565b5f610e4f8383610e28565b9150826002028217905092915050565b610e6882610651565b67ffffffffffffffff811115610e8157610e806108e9565b5b610e8b8254610b9c565b610e96828285610dd6565b5f60209050601f831160018114610ec7575f8415610eb5578287015190505b610ebf8582610e44565b865550610f26565b601f198416610ed586610cc2565b5f5b82811015610efc57848901518255600182019150602085019450602081019050610ed7565b86831015610f195784890151610f15601f891682610e28565b8355505b6001600288020188555050505b505050505050565b7f4e487b71000000000000000000000000000000000000000000000000000000005f52601160045260245ffd5b5f610f65826105e0565b91507fffffffffffffffffffffffffffffffffffffffffffffffffffffffffffffffff8203610f9757610f96610f2e565b5b60018201905091905056fea2646970667358221220b093e90a5a361e391ff427b151b61ad9deadf2f12db218a44cbf35dee69bf6f564736f6c63430008180033",
					"opcodes": "PUSH1 0x80 PUSH1 0x40 MSTORE CALLVALUE DUP1 ISZERO PUSH2 0xF JUMPI PUSH0 DUP1 REVERT JUMPDEST POP CALLER PUSH0 DUP1 PUSH2 0x100 EXP DUP2 SLOAD DUP2 PUSH20 0xFFFFFFFFFFFFFFFFFFFFFFFFFFFFFFFFFFFFFFFF MUL NOT AND SWAP1 DUP4 PUSH20 0xFFFFFFFFFFFFFFFFFFFFFFFFFFFFFFFFFFFFFFFF AND MUL OR SWAP1 SSTORE POP PUSH2 0xFD8 DUP1 PUSH2 0x5C PUSH0 CODECOPY PUSH0 RETURN INVALID PUSH1 0x80 PUSH1 0x40 MSTORE CALLVALUE DUP1 ISZERO PUSH2 0xF JUMPI PUSH0 DUP1 REVERT JUMPDEST POP PUSH1 0x4 CALLDATASIZE LT PUSH2 0x86 JUMPI PUSH0 CALLDATALOAD PUSH1 0xE0 SHR DUP1 PUSH4 0x834D336C GT PUSH2 0x59 JUMPI DUP1 PUSH4 0x834D336C EQ PUSH2 0x127 JUMPI DUP1 PUSH4 0x8DA5CB5B EQ PUSH2 0x145 JUMPI DUP1 PUSH4 0xC1BEA1DB EQ PUSH2 0x163 JUMPI DUP1 PUSH4 0xE581F9EE EQ PUSH2 0x17F JUMPI PUSH2 0x86 JUMP JUMPDEST DUP1 PUSH4 0x13A46F31 EQ PUSH2 0x8A JUMPI DUP1 PUSH4 0x30C25DFD EQ PUSH2 0xA6 JUMPI DUP1 PUSH4 0x6E9BAC2A EQ PUSH2 0xC4 JUMPI DUP1 PUSH4 0x6F28C355 EQ PUSH2 0xF7 JUMPI JUMPDEST PUSH0 DUP1 REVERT JUMPDEST PUSH2 0xA4 PUSH1 0x4 DUP1 CALLDATASIZE SUB DUP2 ADD SWAP1 PUSH2 0x9F SWAP2 SWAP1 PUSH2 0x613 JUMP JUMPDEST PUSH2 0x19D JUMP JUMPDEST STOP JUMPDEST PUSH2 0xAE PUSH2 0x291 JUMP JUMPDEST PUSH1 0x40 MLOAD PUSH2 0xBB SWAP2 SWAP1 PUSH2 0x6DB JUMP JUMPDEST PUSH1 0x40 MLOAD DUP1 SWAP2 SUB SWAP1 RETURN JUMPDEST PUSH2 0xDE PUSH1 0x4 DUP1 CALLDATASIZE SUB DUP2 ADD SWAP1 PUSH2 0xD9 SWAP2 SWAP1 PUSH2 0x6FB JUMP JUMPDEST PUSH2 0x2CA JUMP JUMPDEST PUSH1 0x40 MLOAD PUSH2 0xEE SWAP5 SWAP4 SWAP3 SWAP2 SWAP1 PUSH2 0x74F JUMP JUMPDEST PUSH1 0x40 MLOAD DUP1 SWAP2 SUB SWAP1 RETURN JUMPDEST PUSH2 0x111 PUSH1 0x4 DUP1 CALLDATASIZE SUB DUP2 ADD SWAP1 PUSH2 0x10C SWAP2 SWAP1 PUSH2 0x6FB JUMP JUMPDEST PUSH2 0x388 JUMP JUMPDEST PUSH1 0x40 MLOAD PUSH2 0x11E SWAP2 SWAP1 PUSH2 0x799 JUMP JUMPDEST PUSH1 0x40 MLOAD DUP1 SWAP2 SUB SWAP1 RETURN JUMPDEST PUSH2 0x12F PUSH2 0x3A8 JUMP JUMPDEST PUSH1 0x40 MLOAD PUSH2 0x13C SWAP2 SWAP1 PUSH2 0x869 JUMP JUMPDEST PUSH1 0x40 MLOAD DUP1 SWAP2 SUB SWAP1 RETURN JUMPDEST PUSH2 0x14D PUSH2 0x3FE JUMP JUMPDEST PUSH1 0x40 MLOAD PUSH2 0x15A SWAP2 SWAP1 PUSH2 0x8C8 JUMP JUMPDEST PUSH1 0x40 MLOAD DUP1 SWAP2 SUB SWAP1 RETURN JUMPDEST PUSH2 0x17D PUSH1 0x4 DUP1 CALLDATASIZE SUB DUP2 ADD SWAP1 PUSH2 0x178 SWAP2 SWAP1 PUSH2 0xA0D JUMP JUMPDEST PUSH2 0x421 JUMP JUMPDEST STOP JUMPDEST PUSH2 0x187 PUSH2 0x5C9 JUMP JUMPDEST PUSH1 0x40 MLOAD PUSH2 0x194 SWAP2 SWAP1 PUSH2 0x799 JUMP JUMPDEST PUSH1 0x40 MLOAD DUP1 SWAP2 SUB SWAP1 RETURN JUMPDEST PUSH0 DUP1 SLOAD SWAP1 PUSH2 0x100 EXP SWAP1 DIV PUSH20 0xFFFFFFFFFFFFFFFFFFFFFFFFFFFFFFFFFFFFFFFF AND PUSH20 0xFFFFFFFFFFFFFFFFFFFFFFFFFFFFFFFFFFFFFFFF AND CALLER PUSH20 0xFFFFFFFFFFFFFFFFFFFFFFFFFFFFFFFFFFFFFFFF AND EQ PUSH2 0x22A JUMPI PUSH1 0x40 MLOAD PUSH32 0x8C379A000000000000000000000000000000000000000000000000000000000 DUP2 MSTORE PUSH1 0x4 ADD PUSH2 0x221 SWAP1 PUSH2 0xAE9 JUMP JUMPDEST PUSH1 0x40 MLOAD DUP1 SWAP2 SUB SWAP1 REVERT JUMPDEST PUSH0 PUSH1 0x2 PUSH0 DUP5 DUP2 MSTORE PUSH1 0x20 ADD SWAP1 DUP2 MSTORE PUSH1 0x20 ADD PUSH0 KECCAK256 SWAP1 POP PUSH0 DUP2 PUSH0 ADD SLOAD SUB PUSH2 0x283 JUMPI PUSH1 0x40 MLOAD PUSH32 0x8C379A000000000000000000000000000000000000000000000000000000000 DUP2 MSTORE PUSH1 0x4 ADD PUSH2 0x27A SWAP1 PUSH2 0xB51 JUMP JUMPDEST PUSH1 0x40 MLOAD DUP1 SWAP2 SUB SWAP1 REVERT JUMPDEST DUP2 DUP2 PUSH1 0x2 ADD DUP2 SWAP1 SSTORE POP POP POP POP JUMP JUMPDEST PUSH1 0x40 MLOAD DUP1 PUSH1 0x40 ADD PUSH1 0x40 MSTORE DUP1 PUSH1 0x19 DUP2 MSTORE PUSH1 0x20 ADD PUSH32 0x536F6C696469747920416476616E6365642041636164656D7900000000000000 DUP2 MSTORE POP DUP2 JUMP JUMPDEST PUSH1 0x2 PUSH1 0x20 MSTORE DUP1 PUSH0 MSTORE PUSH1 0x40 PUSH0 KECCAK256 PUSH0 SWAP2 POP SWAP1 POP DUP1 PUSH0 ADD SLOAD SWAP1 DUP1 PUSH1 0x1 ADD DUP1 SLOAD PUSH2 0x2EF SWAP1 PUSH2 0xB9C JUMP JUMPDEST DUP1 PUSH1 0x1F ADD PUSH1 0x20 DUP1 SWAP2 DIV MUL PUSH1 0x20 ADD PUSH1 0x40 MLOAD SWAP1 DUP2 ADD PUSH1 0x40 MSTORE DUP1 SWAP3 SWAP2 SWAP1 DUP2 DUP2 MSTORE PUSH1 0x20 ADD DUP3 DUP1 SLOAD PUSH2 0x31B SWAP1 PUSH2 0xB9C JUMP JUMPDEST DUP1 ISZERO PUSH2 0x366 JUMPI DUP1 PUSH1 0x1F LT PUSH2 0x33D JUMPI PUSH2 0x100 DUP1 DUP4 SLOAD DIV MUL DUP4 MSTORE SWAP2 PUSH1 0x20 ADD SWAP2 PUSH2 0x366 JUMP JUMPDEST DUP3 ADD SWAP2 SWAP1 PUSH0 MSTORE PUSH1 0x20 PUSH0 KECCAK256 SWAP1 JUMPDEST DUP2 SLOAD DUP2 MSTORE SWAP1 PUSH1 0x1 ADD SWAP1 PUSH1 0x20 ADD DUP1 DUP4 GT PUSH2 0x349 JUMPI DUP3 SWAP1 SUB PUSH1 0x1F AND DUP3 ADD SWAP2 JUMPDEST POP POP POP POP POP SWAP1 DUP1 PUSH1 0x2 ADD SLOAD SWAP1 DUP1 PUSH1 0x3 ADD PUSH0 SWAP1 SLOAD SWAP1 PUSH2 0x100 EXP SWAP1 DIV PUSH1 0xFF AND SWAP1 POP DUP5 JUMP JUMPDEST PUSH1 0x3 DUP2 DUP2 SLOAD DUP2 LT PUSH2 0x397 JUMPI PUSH0 DUP1 REVERT JUMPDEST SWAP1 PUSH0 MSTORE PUSH1 0x20 PUSH0 KECCAK256 ADD PUSH0 SWAP2 POP SWAP1 POP SLOAD DUP2 JUMP JUMPDEST PUSH1 0x60 PUSH1 0x3 DUP1 SLOAD DUP1 PUSH1 0x20 MUL PUSH1 0x20 ADD PUSH1 0x40 MLOAD SWAP1 DUP2 ADD PUSH1 0x40 MSTORE DUP1 SWAP3 SWAP2 SWAP1 DUP2 DUP2 MSTORE PUSH1 0x20 ADD DUP3 DUP1 SLOAD DUP1 ISZERO PUSH2 0x3F4 JUMPI PUSH1 0x20 MUL DUP3 ADD SWAP2 SWAP1 PUSH0 MSTORE PUSH1 0x20 PUSH0 KECCAK256 SWAP1 JUMPDEST DUP2 SLOAD DUP2 MSTORE PUSH1 0x20 ADD SWAP1 PUSH1 0x1 ADD SWAP1 DUP1 DUP4 GT PUSH2 0x3E0 JUMPI JUMPDEST POP POP POP POP POP SWAP1 POP SWAP1 JUMP JUMPDEST PUSH0 DUP1 SLOAD SWAP1 PUSH2 0x100 EXP SWAP1 DIV PUSH20 0xFFFFFFFFFFFFFFFFFFFFFFFFFFFFFFFFFFFFFFFF AND DUP2 JUMP JUMPDEST PUSH0 DUP1 SLOAD SWAP1 PUSH2 0x100 EXP SWAP1 DIV PUSH20 0xFFFFFFFFFFFFFFFFFFFFFFFFFFFFFFFFFFFFFFFF AND PUSH20 0xFFFFFFFFFFFFFFFFFFFFFFFFFFFFFFFFFFFFFFFF AND CALLER PUSH20 0xFFFFFFFFFFFFFFFFFFFFFFFFFFFFFFFFFFFFFFFF AND EQ PUSH2 0x4AE JUMPI PUSH1 0x40 MLOAD PUSH32 0x8C379A000000000000000000000000000000000000000000000000000000000 DUP2 MSTORE PUSH1 0x4 ADD PUSH2 0x4A5 SWAP1 PUSH2 0xC16 JUMP JUMPDEST PUSH1 0x40 MLOAD DUP1 SWAP2 SUB SWAP1 REVERT JUMPDEST PUSH0 PUSH1 0x2 PUSH0 DUP6 DUP2 MSTORE PUSH1 0x20 ADD SWAP1 DUP2 MSTORE PUSH1 0x20 ADD PUSH0 KECCAK256 PUSH0 ADD SLOAD EQ PUSH2 0x503 JUMPI PUSH1 0x40 MLOAD PUSH32 0x8C379A000000000000000000000000000000000000000000000000000000000 DUP2 MSTORE PUSH1 0x4 ADD PUSH2 0x4FA SWAP1 PUSH2 0xCA4 JUMP JUMPDEST PUSH1 0x40 MLOAD DUP1 SWAP2 SUB SWAP1 REVERT JUMPDEST PUSH0 PUSH1 0x40 MLOAD DUP1 PUSH1 0x80 ADD PUSH1 0x40 MSTORE DUP1 DUP6 DUP2 MSTORE PUSH1 0x20 ADD DUP5 DUP2 MSTORE PUSH1 0x20 ADD DUP4 DUP2 MSTORE PUSH1 0x20 ADD PUSH1 0x1 ISZERO ISZERO DUP2 MSTORE POP SWAP1 POP DUP1 PUSH1 0x2 PUSH0 DUP7 DUP2 MSTORE PUSH1 0x20 ADD SWAP1 DUP2 MSTORE PUSH1 0x20 ADD PUSH0 KECCAK256 PUSH0 DUP3 ADD MLOAD DUP2 PUSH0 ADD SSTORE PUSH1 0x20 DUP3 ADD MLOAD DUP2 PUSH1 0x1 ADD SWAP1 DUP2 PUSH2 0x559 SWAP2 SWAP1 PUSH2 0xE5F JUMP JUMPDEST POP PUSH1 0x40 DUP3 ADD MLOAD DUP2 PUSH1 0x2 ADD SSTORE PUSH1 0x60 DUP3 ADD MLOAD DUP2 PUSH1 0x3 ADD PUSH0 PUSH2 0x100 EXP DUP2 SLOAD DUP2 PUSH1 0xFF MUL NOT AND SWAP1 DUP4 ISZERO ISZERO MUL OR SWAP1 SSTORE POP SWAP1 POP POP PUSH1 0x3 DUP5 SWAP1 DUP1 PUSH1 0x1 DUP2 SLOAD ADD DUP1 DUP3 SSTORE DUP1 SWAP2 POP POP PUSH1 0x1 SWAP1 SUB SWAP1 PUSH0 MSTORE PUSH1 0x20 PUSH0 KECCAK256 ADD PUSH0 SWAP1 SWAP2 SWAP1 SWAP2 SWAP1 SWAP2 POP SSTORE PUSH1 0x1 PUSH0 DUP2 SLOAD DUP1 SWAP3 SWAP2 SWAP1 PUSH2 0x5BE SWAP1 PUSH2 0xF5B JUMP JUMPDEST SWAP2 SWAP1 POP SSTORE POP POP POP POP POP JUMP JUMPDEST PUSH1 0x1 SLOAD DUP2 JUMP JUMPDEST PUSH0 PUSH1 0x40 MLOAD SWAP1 POP SWAP1 JUMP JUMPDEST PUSH0 DUP1 REVERT JUMPDEST PUSH0 DUP1 REVERT JUMPDEST PUSH0 DUP2 SWAP1 POP SWAP2 SWAP1 POP JUMP JUMPDEST PUSH2 0x5F2 DUP2 PUSH2 0x5E0 JUMP JUMPDEST DUP2 EQ PUSH2 0x5FC JUMPI PUSH0 DUP1 REVERT JUMPDEST POP JUMP JUMPDEST PUSH0 DUP2 CALLDATALOAD SWAP1 POP PUSH2 0x60D DUP2 PUSH2 0x5E9 JUMP JUMPDEST SWAP3 SWAP2 POP POP JUMP JUMPDEST PUSH0 DUP1 PUSH1 0x40 DUP4 DUP6 SUB SLT ISZERO PUSH2 0x629 JUMPI PUSH2 0x628 PUSH2 0x5D8 JUMP JUMPDEST JUMPDEST PUSH0 PUSH2 0x636 DUP6 DUP3 DUP7 ADD PUSH2 0x5FF JUMP JUMPDEST SWAP3 POP POP PUSH1 0x20 PUSH2 0x647 DUP6 DUP3 DUP7 ADD PUSH2 0x5FF JUMP JUMPDEST SWAP2 POP POP SWAP3 POP SWAP3 SWAP1 POP JUMP JUMPDEST PUSH0 DUP2 MLOAD SWAP1 POP SWAP2 SWAP1 POP JUMP JUMPDEST PUSH0 DUP3 DUP3 MSTORE PUSH1 0x20 DUP3 ADD SWAP1 POP SWAP3 SWAP2 POP POP JUMP JUMPDEST PUSH0 JUMPDEST DUP4 DUP2 LT ISZERO PUSH2 0x688 JUMPI DUP1 DUP3 ADD MLOAD DUP2 DUP5 ADD MSTORE PUSH1 0x20 DUP2 ADD SWAP1 POP PUSH2 0x66D JUMP JUMPDEST PUSH0 DUP5 DUP5 ADD MSTORE POP POP POP POP JUMP JUMPDEST PUSH0 PUSH1 0x1F NOT PUSH1 0x1F DUP4 ADD AND SWAP1 POP SWAP2 SWAP1 POP JUMP JUMPDEST PUSH0 PUSH2 0x6AD DUP3 PUSH2 0x651 JUMP JUMPDEST PUSH2 0x6B7 DUP2 DUP6 PUSH2 0x65B JUMP JUMPDEST SWAP4 POP PUSH2 0x6C7 DUP2 DUP6 PUSH1 0x20 DUP7 ADD PUSH2 0x66B JUMP JUMPDEST PUSH2 0x6D0 DUP2 PUSH2 0x693 JUMP JUMPDEST DUP5 ADD SWAP2 POP POP SWAP3 SWAP2 POP POP JUMP JUMPDEST PUSH0 PUSH1 0x20 DUP3 ADD SWAP1 POP DUP2 DUP2 SUB PUSH0 DUP4 ADD MSTORE PUSH2 0x6F3 DUP2 DUP5 PUSH2 0x6A3 JUMP JUMPDEST SWAP1 POP SWAP3 SWAP2 POP POP JUMP JUMPDEST PUSH0 PUSH1 0x20 DUP3 DUP5 SUB SLT ISZERO PUSH2 0x710 JUMPI PUSH2 0x70F PUSH2 0x5D8 JUMP JUMPDEST JUMPDEST PUSH0 PUSH2 0x71D DUP5 DUP3 DUP6 ADD PUSH2 0x5FF JUMP JUMPDEST SWAP2 POP POP SWAP3 SWAP2 POP POP JUMP JUMPDEST PUSH2 0x72F DUP2 PUSH2 0x5E0 JUMP JUMPDEST DUP3 MSTORE POP POP JUMP JUMPDEST PUSH0 DUP2 ISZERO ISZERO SWAP1 POP SWAP2 SWAP1 POP JUMP JUMPDEST PUSH2 0x749 DUP2 PUSH2 0x735 JUMP JUMPDEST DUP3 MSTORE POP POP JUMP JUMPDEST PUSH0 PUSH1 0x80 DUP3 ADD SWAP1 POP PUSH2 0x762 PUSH0 DUP4 ADD DUP8 PUSH2 0x726 JUMP JUMPDEST DUP2 DUP2 SUB PUSH1 0x20 DUP4 ADD MSTORE PUSH2 0x774 DUP2 DUP7 PUSH2 0x6A3 JUMP JUMPDEST SWAP1 POP PUSH2 0x783 PUSH1 0x40 DUP4 ADD DUP6 PUSH2 0x726 JUMP JUMPDEST PUSH2 0x790 PUSH1 0x60 DUP4 ADD DUP5 PUSH2 0x740 JUMP JUMPDEST SWAP6 SWAP5 POP POP POP POP POP JUMP JUMPDEST PUSH0 PUSH1 0x20 DUP3 ADD SWAP1 POP PUSH2 0x7AC PUSH0 DUP4 ADD DUP5 PUSH2 0x726 JUMP JUMPDEST SWAP3 SWAP2 POP POP JUMP JUMPDEST PUSH0 DUP2 MLOAD SWAP1 POP SWAP2 SWAP1 POP JUMP JUMPDEST PUSH0 DUP3 DUP3 MSTORE PUSH1 0x20 DUP3 ADD SWAP1 POP SWAP3 SWAP2 POP POP JUMP JUMPDEST PUSH0 DUP2 SWAP1 POP PUSH1 0x20 DUP3 ADD SWAP1 POP SWAP2 SWAP1 POP JUMP JUMPDEST PUSH2 0x7E4 DUP2 PUSH2 0x5E0 JUMP JUMPDEST DUP3 MSTORE POP POP JUMP JUMPDEST PUSH0 PUSH2 0x7F5 DUP4 DUP4 PUSH2 0x7DB JUMP JUMPDEST PUSH1 0x20 DUP4 ADD SWAP1 POP SWAP3 SWAP2 POP POP JUMP JUMPDEST PUSH0 PUSH1 0x20 DUP3 ADD SWAP1 POP SWAP2 SWAP1 POP JUMP JUMPDEST PUSH0 PUSH2 0x817 DUP3 PUSH2 0x7B2 JUMP JUMPDEST PUSH2 0x821 DUP2 DUP6 PUSH2 0x7BC JUMP JUMPDEST SWAP4 POP PUSH2 0x82C DUP4 PUSH2 0x7CC JUMP JUMPDEST DUP1 PUSH0 JUMPDEST DUP4 DUP2 LT ISZERO PUSH2 0x85C JUMPI DUP2 MLOAD PUSH2 0x843 DUP9 DUP3 PUSH2 0x7EA JUMP JUMPDEST SWAP8 POP PUSH2 0x84E DUP4 PUSH2 0x801 JUMP JUMPDEST SWAP3 POP POP PUSH1 0x1 DUP2 ADD SWAP1 POP PUSH2 0x82F JUMP JUMPDEST POP DUP6 SWAP4 POP POP POP POP SWAP3 SWAP2 POP POP JUMP JUMPDEST PUSH0 PUSH1 0x20 DUP3 ADD SWAP1 POP DUP2 DUP2 SUB PUSH0 DUP4 ADD MSTORE PUSH2 0x881 DUP2 DUP5 PUSH2 0x80D JUMP JUMPDEST SWAP1 POP SWAP3 SWAP2 POP POP JUMP JUMPDEST PUSH0 PUSH20 0xFFFFFFFFFFFFFFFFFFFFFFFFFFFFFFFFFFFFFFFF DUP3 AND SWAP1 POP SWAP2 SWAP1 POP JUMP JUMPDEST PUSH0 PUSH2 0x8B2 DUP3 PUSH2 0x889 JUMP JUMPDEST SWAP1 POP SWAP2 SWAP1 POP JUMP JUMPDEST PUSH2 0x8C2 DUP2 PUSH2 0x8A8 JUMP JUMPDEST DUP3 MSTORE POP POP JUMP JUMPDEST PUSH0 PUSH1 0x20 DUP3 ADD SWAP1 POP PUSH2 0x8DB PUSH0 DUP4 ADD DUP5 PUSH2 0x8B9 JUMP JUMPDEST SWAP3 SWAP2 POP POP JUMP JUMPDEST PUSH0 DUP1 REVERT JUMPDEST PUSH0 DUP1 REVERT JUMPDEST PUSH32 0x4E487B7100000000000000000000000000000000000000000000000000000000 PUSH0 MSTORE PUSH1 0x41 PUSH1 0x4 MSTORE PUSH1 0x24 PUSH0 REVERT JUMPDEST PUSH2 0x91F DUP3 PUSH2 0x693 JUMP JUMPDEST DUP2 ADD DUP2 DUP2 LT PUSH8 0xFFFFFFFFFFFFFFFF DUP3 GT OR ISZERO PUSH2 0x93E JUMPI PUSH2 0x93D PUSH2 0x8E9 JUMP JUMPDEST JUMPDEST DUP1 PUSH1 0x40 MSTORE POP POP POP JUMP JUMPDEST PUSH0 PUSH2 0x950 PUSH2 0x5CF JUMP JUMPDEST SWAP1 POP PUSH2 0x95C DUP3 DUP3 PUSH2 0x916 JUMP JUMPDEST SWAP2 SWAP1 POP JUMP JUMPDEST PUSH0 PUSH8 0xFFFFFFFFFFFFFFFF DUP3 GT ISZERO PUSH2 0x97B JUMPI PUSH2 0x97A PUSH2 0x8E9 JUMP JUMPDEST JUMPDEST PUSH2 0x984 DUP3 PUSH2 0x693 JUMP JUMPDEST SWAP1 POP PUSH1 0x20 DUP2 ADD SWAP1 POP SWAP2 SWAP1 POP JUMP JUMPDEST DUP3 DUP2 DUP4 CALLDATACOPY PUSH0 DUP4 DUP4 ADD MSTORE POP POP POP JUMP JUMPDEST PUSH0 PUSH2 0x9B1 PUSH2 0x9AC DUP5 PUSH2 0x961 JUMP JUMPDEST PUSH2 0x947 JUMP JUMPDEST SWAP1 POP DUP3 DUP2 MSTORE PUSH1 0x20 DUP2 ADD DUP5 DUP5 DUP5 ADD GT ISZERO PUSH2 0x9CD JUMPI PUSH2 0x9CC PUSH2 0x8E5 JUMP JUMPDEST JUMPDEST PUSH2 0x9D8 DUP5 DUP3 DUP6 PUSH2 0x991 JUMP JUMPDEST POP SWAP4 SWAP3 POP POP POP JUMP JUMPDEST PUSH0 DUP3 PUSH1 0x1F DUP4 ADD SLT PUSH2 0x9F4 JUMPI PUSH2 0x9F3 PUSH2 0x8E1 JUMP JUMPDEST JUMPDEST DUP2 CALLDATALOAD PUSH2 0xA04 DUP5 DUP3 PUSH1 0x20 DUP7 ADD PUSH2 0x99F JUMP JUMPDEST SWAP2 POP POP SWAP3 SWAP2 POP POP JUMP JUMPDEST PUSH0 DUP1 PUSH0 PUSH1 0x60 DUP5 DUP7 SUB SLT ISZERO PUSH2 0xA24 JUMPI PUSH2 0xA23 PUSH2 0x5D8 JUMP JUMPDEST JUMPDEST PUSH0 PUSH2 0xA31 DUP7 DUP3 DUP8 ADD PUSH2 0x5FF JUMP JUMPDEST SWAP4 POP POP PUSH1 0x20 DUP5 ADD CALLDATALOAD PUSH8 0xFFFFFFFFFFFFFFFF DUP2 GT ISZERO PUSH2 0xA52 JUMPI PUSH2 0xA51 PUSH2 0x5DC JUMP JUMPDEST JUMPDEST PUSH2 0xA5E DUP7 DUP3 DUP8 ADD PUSH2 0x9E0 JUMP JUMPDEST SWAP3 POP POP PUSH1 0x40 PUSH2 0xA6F DUP7 DUP3 DUP8 ADD PUSH2 0x5FF JUMP JUMPDEST SWAP2 POP POP SWAP3 POP SWAP3 POP SWAP3 JUMP JUMPDEST PUSH32 0x4F6E6C79206F776E65722063616E20706572666F726D20746869732061637469 PUSH0 DUP3 ADD MSTORE PUSH32 0x6F6E2E0000000000000000000000000000000000000000000000000000000000 PUSH1 0x20 DUP3 ADD MSTORE POP JUMP JUMPDEST PUSH0 PUSH2 0xAD3 PUSH1 0x23 DUP4 PUSH2 0x65B JUMP JUMPDEST SWAP2 POP PUSH2 0xADE DUP3 PUSH2 0xA79 JUMP JUMPDEST PUSH1 0x40 DUP3 ADD SWAP1 POP SWAP2 SWAP1 POP JUMP JUMPDEST PUSH0 PUSH1 0x20 DUP3 ADD SWAP1 POP DUP2 DUP2 SUB PUSH0 DUP4 ADD MSTORE PUSH2 0xB00 DUP2 PUSH2 0xAC7 JUMP JUMPDEST SWAP1 POP SWAP2 SWAP1 POP JUMP JUMPDEST PUSH32 0x53747564656E74206E6F7420666F756E642E0000000000000000000000000000 PUSH0 DUP3 ADD MSTORE POP JUMP JUMPDEST PUSH0 PUSH2 0xB3B PUSH1 0x12 DUP4 PUSH2 0x65B JUMP JUMPDEST SWAP2 POP PUSH2 0xB46 DUP3 PUSH2 0xB07 JUMP JUMPDEST PUSH1 0x20 DUP3 ADD SWAP1 POP SWAP2 SWAP1 POP JUMP JUMPDEST PUSH0 PUSH1 0x20 DUP3 ADD SWAP1 POP DUP2 DUP2 SUB PUSH0 DUP4 ADD MSTORE PUSH2 0xB68 DUP2 PUSH2 0xB2F JUMP JUMPDEST SWAP1 POP SWAP2 SWAP1 POP JUMP JUMPDEST PUSH32 0x4E487B7100000000000000000000000000000000000000000000000000000000 PUSH0 MSTORE PUSH1 0x22 PUSH1 0x4 MSTORE PUSH1 0x24 PUSH0 REVERT JUMPDEST PUSH0 PUSH1 0x2 DUP3 DIV SWAP1 POP PUSH1 0x1 DUP3 AND DUP1 PUSH2 0xBB3 JUMPI PUSH1 0x7F DUP3 AND SWAP2 POP JUMPDEST PUSH1 0x20 DUP3 LT DUP2 SUB PUSH2 0xBC6 JUMPI PUSH2 0xBC5 PUSH2 0xB6F JUMP JUMPDEST JUMPDEST POP SWAP2 SWAP1 POP JUMP JUMPDEST PUSH32 0x4F6E6C79206F776E65722063616E206164642073747564656E74732E00000000 PUSH0 DUP3 ADD MSTORE POP JUMP JUMPDEST PUSH0 PUSH2 0xC00 PUSH1 0x1C DUP4 PUSH2 0x65B JUMP JUMPDEST SWAP2 POP PUSH2 0xC0B DUP3 PUSH2 0xBCC JUMP JUMPDEST PUSH1 0x20 DUP3 ADD SWAP1 POP SWAP2 SWAP1 POP JUMP JUMPDEST PUSH0 PUSH1 0x20 DUP3 ADD SWAP1 POP DUP2 DUP2 SUB PUSH0 DUP4 ADD MSTORE PUSH2 0xC2D DUP2 PUSH2 0xBF4 JUMP JUMPDEST SWAP1 POP SWAP2 SWAP1 POP JUMP JUMPDEST PUSH32 0x53747564656E742077697468207468697320494420616C726561647920657869 PUSH0 DUP3 ADD MSTORE PUSH32 0x7374732E00000000000000000000000000000000000000000000000000000000 PUSH1 0x20 DUP3 ADD MSTORE POP JUMP JUMPDEST PUSH0 PUSH2 0xC8E PUSH1 0x24 DUP4 PUSH2 0x65B JUMP JUMPDEST SWAP2 POP PUSH2 0xC99 DUP3 PUSH2 0xC34 JUMP JUMPDEST PUSH1 0x40 DUP3 ADD SWAP1 POP SWAP2 SWAP1 POP JUMP JUMPDEST PUSH0 PUSH1 0x20 DUP3 ADD SWAP1 POP DUP2 DUP2 SUB PUSH0 DUP4 ADD MSTORE PUSH2 0xCBB DUP2 PUSH2 0xC82 JUMP JUMPDEST SWAP1 POP SWAP2 SWAP1 POP JUMP JUMPDEST PUSH0 DUP2 SWAP1 POP DUP2 PUSH0 MSTORE PUSH1 0x20 PUSH0 KECCAK256 SWAP1 POP SWAP2 SWAP1 POP JUMP JUMPDEST PUSH0 PUSH1 0x20 PUSH1 0x1F DUP4 ADD DIV SWAP1 POP SWAP2 SWAP1 POP JUMP JUMPDEST PUSH0 DUP3 DUP3 SHL SWAP1 POP SWAP3 SWAP2 POP POP JUMP JUMPDEST PUSH0 PUSH1 0x8 DUP4 MUL PUSH2 0xD1E PUSH32 0xFFFFFFFFFFFFFFFFFFFFFFFFFFFFFFFFFFFFFFFFFFFFFFFFFFFFFFFFFFFFFFFF DUP3 PUSH2 0xCE3 JUMP JUMPDEST PUSH2 0xD28 DUP7 DUP4 PUSH2 0xCE3 JUMP JUMPDEST SWAP6 POP DUP1 NOT DUP5 AND SWAP4 POP DUP1 DUP7 AND DUP5 OR SWAP3 POP POP POP SWAP4 SWAP3 POP POP POP JUMP JUMPDEST PUSH0 DUP2 SWAP1 POP SWAP2 SWAP1 POP JUMP JUMPDEST PUSH0 PUSH2 0xD63 PUSH2 0xD5E PUSH2 0xD59 DUP5 PUSH2 0x5E0 JUMP JUMPDEST PUSH2 0xD40 JUMP JUMPDEST PUSH2 0x5E0 JUMP JUMPDEST SWAP1 POP SWAP2 SWAP1 POP JUMP JUMPDEST PUSH0 DUP2 SWAP1 POP SWAP2 SWAP1 POP JUMP JUMPDEST PUSH2 0xD7C DUP4 PUSH2 0xD49 JUMP JUMPDEST PUSH2 0xD90 PUSH2 0xD88 DUP3 PUSH2 0xD6A JUMP JUMPDEST DUP5 DUP5 SLOAD PUSH2 0xCEF JUMP JUMPDEST DUP3 SSTORE POP POP POP POP JUMP JUMPDEST PUSH0 SWAP1 JUMP JUMPDEST PUSH2 0xDA4 PUSH2 0xD98 JUMP JUMPDEST PUSH2 0xDAF DUP2 DUP5 DUP5 PUSH2 0xD73 JUMP JUMPDEST POP POP POP JUMP JUMPDEST JUMPDEST DUP2 DUP2 LT ISZERO PUSH2 0xDD2 JUMPI PUSH2 0xDC7 PUSH0 DUP3 PUSH2 0xD9C JUMP JUMPDEST PUSH1 0x1 DUP2 ADD SWAP1 POP PUSH2 0xDB5 JUMP JUMPDEST POP POP JUMP JUMPDEST PUSH1 0x1F DUP3 GT ISZERO PUSH2 0xE17 JUMPI PUSH2 0xDE8 DUP2 PUSH2 0xCC2 JUMP JUMPDEST PUSH2 0xDF1 DUP5 PUSH2 0xCD4 JUMP JUMPDEST DUP2 ADD PUSH1 0x20 DUP6 LT ISZERO PUSH2 0xE00 JUMPI DUP2 SWAP1 POP JUMPDEST PUSH2 0xE14 PUSH2 0xE0C DUP6 PUSH2 0xCD4 JUMP JUMPDEST DUP4 ADD DUP3 PUSH2 0xDB4 JUMP JUMPDEST POP POP JUMPDEST POP POP POP JUMP JUMPDEST PUSH0 DUP3 DUP3 SHR SWAP1 POP SWAP3 SWAP2 POP POP JUMP JUMPDEST PUSH0 PUSH2 0xE37 PUSH0 NOT DUP5 PUSH1 0x8 MUL PUSH2 0xE1C JUMP JUMPDEST NOT DUP1 DUP4 AND SWAP2 POP POP SWAP3 SWAP2 POP POP JUMP JUMPDEST PUSH0 PUSH2 0xE4F DUP4 DUP4 PUSH2 0xE28 JUMP JUMPDEST SWAP2 POP DUP3 PUSH1 0x2 MUL DUP3 OR SWAP1 POP SWAP3 SWAP2 POP POP JUMP JUMPDEST PUSH2 0xE68 DUP3 PUSH2 0x651 JUMP JUMPDEST PUSH8 0xFFFFFFFFFFFFFFFF DUP2 GT ISZERO PUSH2 0xE81 JUMPI PUSH2 0xE80 PUSH2 0x8E9 JUMP JUMPDEST JUMPDEST PUSH2 0xE8B DUP3 SLOAD PUSH2 0xB9C JUMP JUMPDEST PUSH2 0xE96 DUP3 DUP3 DUP6 PUSH2 0xDD6 JUMP JUMPDEST PUSH0 PUSH1 0x20 SWAP1 POP PUSH1 0x1F DUP4 GT PUSH1 0x1 DUP2 EQ PUSH2 0xEC7 JUMPI PUSH0 DUP5 ISZERO PUSH2 0xEB5 JUMPI DUP3 DUP8 ADD MLOAD SWAP1 POP JUMPDEST PUSH2 0xEBF DUP6 DUP3 PUSH2 0xE44 JUMP JUMPDEST DUP7 SSTORE POP PUSH2 0xF26 JUMP JUMPDEST PUSH1 0x1F NOT DUP5 AND PUSH2 0xED5 DUP7 PUSH2 0xCC2 JUMP JUMPDEST PUSH0 JUMPDEST DUP3 DUP2 LT ISZERO PUSH2 0xEFC JUMPI DUP5 DUP10 ADD MLOAD DUP3 SSTORE PUSH1 0x1 DUP3 ADD SWAP2 POP PUSH1 0x20 DUP6 ADD SWAP5 POP PUSH1 0x20 DUP2 ADD SWAP1 POP PUSH2 0xED7 JUMP JUMPDEST DUP7 DUP4 LT ISZERO PUSH2 0xF19 JUMPI DUP5 DUP10 ADD MLOAD PUSH2 0xF15 PUSH1 0x1F DUP10 AND DUP3 PUSH2 0xE28 JUMP JUMPDEST DUP4 SSTORE POP JUMPDEST PUSH1 0x1 PUSH1 0x2 DUP9 MUL ADD DUP9 SSTORE POP POP POP JUMPDEST POP POP POP POP POP POP JUMP JUMPDEST PUSH32 0x4E487B7100000000000000000000000000000000000000000000000000000000 PUSH0 MSTORE PUSH1 0x11 PUSH1 0x4 MSTORE PUSH1 0x24 PUSH0 REVERT JUMPDEST PUSH0 PUSH2 0xF65 DUP3 PUSH2 0x5E0 JUMP JUMPDEST SWAP2 POP PUSH32 0xFFFFFFFFFFFFFFFFFFFFFFFFFFFFFFFFFFFFFFFFFFFFFFFFFFFFFFFFFFFFFFFF DUP3 SUB PUSH2 0xF97 JUMPI PUSH2 0xF96 PUSH2 0xF2E JUMP JUMPDEST JUMPDEST PUSH1 0x1 DUP3 ADD SWAP1 POP SWAP2 SWAP1 POP JUMP INVALID LOG2 PUSH5 0x6970667358 0x22 SLT KECCAK256 0xB0 SWAP4 0xE9 EXP GAS CALLDATASIZE 0x1E CODECOPY 0x1F DELEGATECALL 0x27 0xB1 MLOAD 0xB6 BYTE 0xD9 0xDE 0xAD CALLCODE CALL 0x2D 0xB2 XOR LOG4 0x4C 0xBF CALLDATALOAD 0xDE 0xE6 SWAP12 0xF6 CREATE2 PUSH5 0x736F6C6343 STOP ADDMOD XOR STOP CALLER "
				},
				"gasEstimates": {
					"creation": {
						"codeDepositCost": "811200",
						"executionCost": "25107",
						"totalCost": "836307"
					},
					"external": {
						"SCHOOL_NAME()": "infinite",
						"addStudent(uint256,string,uint256)": "infinite",
						"getAllStudentIds()": "infinite",
						"owner()": "2527",
						"studentCount()": "2491",
						"studentIds(uint256)": "infinite",
						"studentsById(uint256)": "infinite",
						"updateStudentAge(uint256,uint256)": "infinite"
					}
				},
				"methodIdentifiers": {
					"SCHOOL_NAME()": "30c25dfd",
					"addStudent(uint256,string,uint256)": "c1bea1db",
					"getAllStudentIds()": "834d336c",
					"owner()": "8da5cb5b",
					"studentCount()": "e581f9ee",
					"studentIds(uint256)": "6f28c355",
					"studentsById(uint256)": "6e9bac2a",
					"updateStudentAge(uint256,uint256)": "13a46f31"
				}
			},
			"storageLayout": {
				"storage": [
					{
						"astId": 7,
						"contract": "chapter04/review.sol:StudentRegistry",
						"label": "owner",
						"offset": 0,
						"slot": "0",
						"type": "t_address"
					},
					{
						"astId": 9,
						"contract": "chapter04/review.sol:StudentRegistry",
						"label": "studentCount",
						"offset": 0,
						"slot": "1",
						"type": "t_uint256"
					},
					{
						"astId": 23,
						"contract": "chapter04/review.sol:StudentRegistry",
						"label": "studentsById",
						"offset": 0,
						"slot": "2",
						"type": "t_mapping(t_uint256,t_struct(Student)18_storage)"
					},
					{
						"astId": 26,
						"contract": "chapter04/review.sol:StudentRegistry",
						"label": "studentIds",
						"offset": 0,
						"slot": "3",
						"type": "t_array(t_uint256)dyn_storage"
					}
				],
				"types": {
					"t_address": {
						"encoding": "inplace",
						"label": "address",
						"numberOfBytes": "20"
					},
					"t_array(t_uint256)dyn_storage": {
						"base": "t_uint256",
						"encoding": "dynamic_array",
						"label": "uint256[]",
						"numberOfBytes": "32"
					},
					"t_bool": {
						"encoding": "inplace",
						"label": "bool",
						"numberOfBytes": "1"
					},
					"t_mapping(t_uint256,t_struct(Student)18_storage)": {
						"encoding": "mapping",
						"key": "t_uint256",
						"label": "mapping(uint256 => struct StudentRegistry.Student)",
						"numberOfBytes": "32",
						"value": "t_struct(Student)18_storage"
					},
					"t_string_storage": {
						"encoding": "bytes",
						"label": "string",
						"numberOfBytes": "32"
					},
					"t_struct(Student)18_storage": {
						"encoding": "inplace",
						"label": "struct StudentRegistry.Student",
						"members": [
							{
								"astId": 11,
								"contract": "chapter04/review.sol:StudentRegistry",
								"label": "id",
								"offset": 0,
								"slot": "0",
								"type": "t_uint256"
							},
							{
								"astId": 13,
								"contract": "chapter04/review.sol:StudentRegistry",
								"label": "name",
								"offset": 0,
								"slot": "1",
								"type": "t_string_storage"
							},
							{
								"astId": 15,
								"contract": "chapter04/review.sol:StudentRegistry",
								"label": "age",
								"offset": 0,
								"slot": "2",
								"type": "t_uint256"
							},
							{
								"astId": 17,
								"contract": "chapter04/review.sol:StudentRegistry",
								"label": "isEnrolled",
								"offset": 0,
								"slot": "3",
								"type": "t_bool"
							}
						],
						"numberOfBytes": "128"
					},
					"t_uint256": {
						"encoding": "inplace",
						"label": "uint256",
						"numberOfBytes": "32"
					}
				}
			},
			"userdoc": {
				"kind": "user",
				"methods": {},
				"version": 1
			}
		}
	}
}