{
	"data": {
		"bytecode": {
			"linkReferences": {},
			"object": "608060405234801561000f575f80fd5b5061014e8061001d5f395ff3fe608060405234801561000f575f80fd5b5060043610610029575f3560e01c8063d96073cf1461002d575b5f80fd5b610047600480360381019061004291906100a4565b61005e565b6040516100559291906100f1565b60405180910390f35b5f808284915091509250929050565b5f80fd5b5f819050919050565b61008381610071565b811461008d575f80fd5b50565b5f8135905061009e8161007a565b92915050565b5f80604083850312156100ba576100b961006d565b5b5f6100c785828601610090565b92505060206100d885828601610090565b9150509250929050565b6100eb81610071565b82525050565b5f6040820190506101045f8301856100e2565b61011160208301846100e2565b939250505056fea2646970667358221220b8ffe13ff2f794d3b11d42848a38fa83a22f2f633f6d7debb38b82e2613b35a864736f6c63430008180033",
			"opcodes": "PUSH1 0x80 PUSH1 0x40 MSTORE CALLVALUE DUP1 ISZERO PUSH2 0xF JUMPI PUSH0 DUP1 REVERT JUMPDEST POP PUSH2 0x14E DUP1 PUSH2 0x1D PUSH0 CODECOPY PUSH0 RETURN INVALID PUSH1 0x80 PUSH1 0x40 MSTORE CALLVALUE DUP1 ISZERO PUSH2 0xF JUMPI PUSH0 DUP1 REVERT JUMPDEST POP PUSH1 0x4 CALLDATASIZE LT PUSH2 0x29 JUMPI PUSH0 CALLDATALOAD PUSH1 0xE0 SHR DUP1 PUSH4 0xD96073CF EQ PUSH2 0x2D JUMPI JUMPDEST PUSH0 DUP1 REVERT JUMPDEST PUSH2 0x47 PUSH1 0x4 DUP1 CALLDATASIZE SUB DUP2 ADD SWAP1 PUSH2 0x42 SWAP2 SWAP1 PUSH2 0xA4 JUMP JUMPDEST PUSH2 0x5E JUMP JUMPDEST PUSH1 0x40 MLOAD PUSH2 0x55 SWAP3 SWAP2 SWAP1 PUSH2 0xF1 JUMP JUMPDEST PUSH1 0x40 MLOAD DUP1 SWAP2 SUB SWAP1 RETURN JUMPDEST PUSH0 DUP1 DUP3 DUP5 SWAP2 POP SWAP2 POP SWAP3 POP SWAP3 SWAP1 POP JUMP JUMPDEST PUSH0 DUP1 REVERT JUMPDEST PUSH0 DUP2 SWAP1 POP SWAP2 SWAP1 POP JUMP JUMPDEST PUSH2 0x83 DUP2 PUSH2 0x71 JUMP JUMPDEST DUP2 EQ PUSH2 0x8D JUMPI PUSH0 DUP1 REVERT JUMPDEST POP JUMP JUMPDEST PUSH0 DUP2 CALLDATALOAD SWAP1 POP PUSH2 0x9E DUP2 PUSH2 0x7A JUMP JUMPDEST SWAP3 SWAP2 POP POP JUMP JUMPDEST PUSH0 DUP1 PUSH1 0x40 DUP4 DUP6 SUB SLT ISZERO PUSH2 0xBA JUMPI PUSH2 0xB9 PUSH2 0x6D JUMP JUMPDEST JUMPDEST PUSH0 PUSH2 0xC7 DUP6 DUP3 DUP7 ADD PUSH2 0x90 JUMP JUMPDEST SWAP3 POP POP PUSH1 0x20 PUSH2 0xD8 DUP6 DUP3 DUP7 ADD PUSH2 0x90 JUMP JUMPDEST SWAP2 POP POP SWAP3 POP SWAP3 SWAP1 POP JUMP JUMPDEST PUSH2 0xEB DUP2 PUSH2 0x71 JUMP JUMPDEST DUP3 MSTORE POP POP JUMP JUMPDEST PUSH0 PUSH1 0x40 DUP3 ADD SWAP1 POP PUSH2 0x104 PUSH0 DUP4 ADD DUP6 PUSH2 0xE2 JUMP JUMPDEST PUSH2 0x111 PUSH1 0x20 DUP4 ADD DUP5 PUSH2 0xE2 JUMP JUMPDEST SWAP4 SWAP3 POP POP POP JUMP INVALID LOG2 PUSH5 0x6970667358 0x22 SLT KECCAK256 0xB8 SELFDESTRUCT 0xE1 EXTCODEHASH CALLCODE 0xF7 SWAP5 0xD3 0xB1 SAR TIMESTAMP DUP5 DUP11 CODESIZE STATICCALL DUP4 LOG2 0x2F 0x2F PUSH4 0x3F6D7DEB 0xB3 DUP12 DUP3 0xE2 PUSH2 0x3B35 0xA8 PUSH5 0x736F6C6343 STOP ADDMOD XOR STOP CALLER "
		},
		"gasEstimates": {
			"creation": {
				"codeDepositCost": "66800",
				"executionCost": "115",
				"totalCost": "66915"
			},
			"external": {
				"swap(uint256,uint256)": "infinite"
			}
		},
		"methodIdentifiers": {
			"swap(uint256,uint256)": "d96073cf"
		}
	},
	"abi": [
		{
			"inputs": [
				{
					"internalType": "uint256",
					"name": "_x",
					"type": "uint256"
				},
				{
					"internalType": "uint256",
					"name": "_y",
					"type": "uint256"
				}
			],
			"name": "swap",
			"outputs": [
				{
					"internalType": "uint256",
					"name": "",
					"type": "uint256"
				},
				{
					"internalType": "uint256",
					"name": "",
					"type": "uint256"
				}
			],
			"stateMutability": "pure",
			"type": "function"
		}
	]
}