{
	"data": {
		"bytecode": {
			"linkReferences": {},
			"object": "6080604052348015600e575f5ffd5b506101338061001c5f395ff3fe6080604052348015600e575f5ffd5b50600436106026575f3560e01c8063d96073cf14602a575b5f5ffd5b60406004803603810190603c91906096565b6055565b604051604c92919060da565b60405180910390f35b5f5f8284915091509250929050565b5f5ffd5b5f819050919050565b6078816068565b81146081575f5ffd5b50565b5f813590506090816071565b92915050565b5f5f6040838503121560a95760a86064565b5b5f60b4858286016084565b925050602060c3858286016084565b9150509250929050565b60d4816068565b82525050565b5f60408201905060eb5f83018560cd565b60f6602083018460cd565b939250505056fea2646970667358221220584e16234846d8bdd18e5bd67fe614e9db2633057ed3ee49b89b5ee8241f2db164736f6c634300081e0033",
			"opcodes": "PUSH1 0x80 PUSH1 0x40 MSTORE CALLVALUE DUP1 ISZERO PUSH1 0xE JUMPI PUSH0 PUSH0 REVERT JUMPDEST POP PUSH2 0x133 DUP1 PUSH2 0x1C PUSH0 CODECOPY PUSH0 RETURN INVALID PUSH1 0x80 PUSH1 0x40 MSTORE CALLVALUE DUP1 ISZERO PUSH1 0xE JUMPI PUSH0 PUSH0 REVERT JUMPDEST POP PUSH1 0x4 CALLDATASIZE LT PUSH1 0x26 JUMPI PUSH0 CALLDATALOAD PUSH1 0xE0 SHR DUP1 PUSH4 0xD96073CF EQ PUSH1 0x2A JUMPI JUMPDEST PUSH0 PUSH0 REVERT JUMPDEST PUSH1 0x40 PUSH1 0x4 DUP1 CALLDATASIZE SUB DUP2 ADD SWAP1 PUSH1 0x3C SWAP2 SWAP1 PUSH1 0x96 JUMP JUMPDEST PUSH1 0x55 JUMP JUMPDEST PUSH1 0x40 MLOAD PUSH1 0x4C SWAP3 SWAP2 SWAP1 PUSH1 0xDA JUMP JUMPDEST PUSH1 0x40 MLOAD DUP1 SWAP2 SUB SWAP1 RETURN JUMPDEST PUSH0 PUSH0 DUP3 DUP5 SWAP2 POP SWAP2 POP SWAP3 POP SWAP3 SWAP1 POP JUMP JUMPDEST PUSH0 PUSH0 REVERT JUMPDEST PUSH0 DUP2 SWAP1 POP SWAP2 SWAP1 POP JUMP JUMPDEST PUSH1 0x78 DUP2 PUSH1 0x68 JUMP JUMPDEST DUP2 EQ PUSH1 0x81 JUMPI PUSH0 PUSH0 REVERT JUMPDEST POP JUMP JUMPDEST PUSH0 DUP2 CALLDATALOAD SWAP1 POP PUSH1 0x90 DUP2 PUSH1 0x71 JUMP JUMPDEST SWAP3 SWAP2 POP POP JUMP JUMPDEST PUSH0 PUSH0 PUSH1 0x40 DUP4 DUP6 SUB SLT ISZERO PUSH1 0xA9 JUMPI PUSH1 0xA8 PUSH1 0x64 JUMP JUMPDEST JUMPDEST PUSH0 PUSH1 0xB4 DUP6 DUP3 DUP7 ADD PUSH1 0x84 JUMP JUMPDEST SWAP3 POP POP PUSH1 0x20 PUSH1 0xC3 DUP6 DUP3 DUP7 ADD PUSH1 0x84 JUMP JUMPDEST SWAP2 POP POP SWAP3 POP SWAP3 SWAP1 POP JUMP JUMPDEST PUSH1 0xD4 DUP2 PUSH1 0x68 JUMP JUMPDEST DUP3 MSTORE POP POP JUMP JUMPDEST PUSH0 PUSH1 0x40 DUP3 ADD SWAP1 POP PUSH1 0xEB PUSH0 DUP4 ADD DUP6 PUSH1 0xCD JUMP JUMPDEST PUSH1 0xF6 PUSH1 0x20 DUP4 ADD DUP5 PUSH1 0xCD JUMP JUMPDEST SWAP4 SWAP3 POP POP POP JUMP INVALID LOG2 PUSH5 0x6970667358 0x22 SLT KECCAK256 PC 0x4E AND 0x23 BASEFEE CHAINID 0xD8 0xBD DATALOADN 0x8E5B 0xD6 PUSH32 0xE614E9DB2633057ED3EE49B89B5EE8241F2DB164736F6C634300081E00330000 "
		},
		"gasEstimates": {
			"creation": {
				"codeDepositCost": "61400",
				"executionCost": "109",
				"totalCost": "61509"
			},
			"external": {
				"swap(uint256,uint256)": "infinite"
			}
		},
		"methodIdentifiers": {
			"swap(uint256,uint256)": "d96073cf"
		}
	},
	"abi": [
		{
			"inputs": [
				{
					"internalType": "uint256",
					"name": "_x",
					"type": "uint256"
				},
				{
					"internalType": "uint256",
					"name": "_y",
					"type": "uint256"
				}
			],
			"name": "swap",
			"outputs": [
				{
					"internalType": "uint256",
					"name": "",
					"type": "uint256"
				},
				{
					"internalType": "uint256",
					"name": "",
					"type": "uint256"
				}
			],
			"stateMutability": "pure",
			"type": "function"
		}
	]
}