{
	"data": {
		"bytecode": {
			"linkReferences": {},
			"object": "608060405260645f55670de0b6b3a7640000600155348015601e575f5ffd5b5061051a8061002c5f395ff3fe60806040526004361061003e575f3560e01c806318160ddd1461004257806327e235e31461006c578063a035b1fe146100a8578063efef39a1146100d2575b5f5ffd5b34801561004d575f5ffd5b506100566100ee565b604051610063919061024d565b60405180910390f35b348015610077575f5ffd5b50610092600480360381019061008d91906102c4565b6100f3565b60405161009f919061024d565b60405180910390f35b3480156100b3575f5ffd5b506100bc610108565b6040516100c9919061024d565b60405180910390f35b6100ec60048036038101906100e79190610319565b61010e565b005b5f5481565b6002602052805f5260405f205f915090505481565b60015481565b6001548161011c9190610371565b341461015d576040517f08c379a00000000000000000000000000000000000000000000000000000000081526004016101549061040c565b60405180910390fd5b5f548111156101a657805f546040517ff984d91400000000000000000000000000000000000000000000000000000000815260040161019d92919061042a565b60405180910390fd5b5f5f5490508160025f3373ffffffffffffffffffffffffffffffffffffffff1673ffffffffffffffffffffffffffffffffffffffff1681526020019081526020015f205f8282546101f79190610451565b92505081905550815f5f82825461020e9190610484565b9250508190555081816102219190610484565b5f5414610231576102306104b7565b5b5050565b5f819050919050565b61024781610235565b82525050565b5f6020820190506102605f83018461023e565b92915050565b5f5ffd5b5f73ffffffffffffffffffffffffffffffffffffffff82169050919050565b5f6102938261026a565b9050919050565b6102a381610289565b81146102ad575f5ffd5b50565b5f813590506102be8161029a565b92915050565b5f602082840312156102d9576102d8610266565b5b5f6102e6848285016102b0565b91505092915050565b6102f881610235565b8114610302575f5ffd5b50565b5f81359050610313816102ef565b92915050565b5f6020828403121561032e5761032d610266565b5b5f61033b84828501610305565b91505092915050565b7f4e487b71000000000000000000000000000000000000000000000000000000005f52601160045260245ffd5b5f61037b82610235565b915061038683610235565b925082820261039481610235565b915082820484148315176103ab576103aa610344565b5b5092915050565b5f82825260208201905092915050565b7f4572726f723a20496e636f72726563742045544820616d6f756e742073656e745f82015250565b5f6103f66020836103b2565b9150610401826103c2565b602082019050919050565b5f6020820190508181035f830152610423816103ea565b9050919050565b5f60408201905061043d5f83018561023e565b61044a602083018461023e565b9392505050565b5f61045b82610235565b915061046683610235565b925082820190508082111561047e5761047d610344565b5b92915050565b5f61048e82610235565b915061049983610235565b92508282039050818111156104b1576104b0610344565b5b92915050565b7f4e487b71000000000000000000000000000000000000000000000000000000005f52600160045260245ffdfea26469706673582212201ed4f0f2a081a87458df4bae366057692f73b7e99b171c6af3c1d273c3d17f2564736f6c634300081e0033",
			"opcodes": "PUSH1 0x80 PUSH1 0x40 MSTORE PUSH1 0x64 PUSH0 SSTORE PUSH8 0xDE0B6B3A7640000 PUSH1 0x1 SSTORE CALLVALUE DUP1 ISZERO PUSH1 0x1E JUMPI PUSH0 PUSH0 REVERT JUMPDEST POP PUSH2 0x51A DUP1 PUSH2 0x2C PUSH0 CODECOPY PUSH0 RETURN INVALID PUSH1 0x80 PUSH1 0x40 MSTORE PUSH1 0x4 CALLDATASIZE LT PUSH2 0x3E JUMPI PUSH0 CALLDATALOAD PUSH1 0xE0 SHR DUP1 PUSH4 0x18160DDD EQ PUSH2 0x42 JUMPI DUP1 PUSH4 0x27E235E3 EQ PUSH2 0x6C JUMPI DUP1 PUSH4 0xA035B1FE EQ PUSH2 0xA8 JUMPI DUP1 PUSH4 0xEFEF39A1 EQ PUSH2 0xD2 JUMPI JUMPDEST PUSH0 PUSH0 REVERT JUMPDEST CALLVALUE DUP1 ISZERO PUSH2 0x4D JUMPI PUSH0 PUSH0 REVERT JUMPDEST POP PUSH2 0x56 PUSH2 0xEE JUMP JUMPDEST PUSH1 0x40 MLOAD PUSH2 0x63 SWAP2 SWAP1 PUSH2 0x24D JUMP JUMPDEST PUSH1 0x40 MLOAD DUP1 SWAP2 SUB SWAP1 RETURN JUMPDEST CALLVALUE DUP1 ISZERO PUSH2 0x77 JUMPI PUSH0 PUSH0 REVERT JUMPDEST POP PUSH2 0x92 PUSH1 0x4 DUP1 CALLDATASIZE SUB DUP2 ADD SWAP1 PUSH2 0x8D SWAP2 SWAP1 PUSH2 0x2C4 JUMP JUMPDEST PUSH2 0xF3 JUMP JUMPDEST PUSH1 0x40 MLOAD PUSH2 0x9F SWAP2 SWAP1 PUSH2 0x24D JUMP JUMPDEST PUSH1 0x40 MLOAD DUP1 SWAP2 SUB SWAP1 RETURN JUMPDEST CALLVALUE DUP1 ISZERO PUSH2 0xB3 JUMPI PUSH0 PUSH0 REVERT JUMPDEST POP PUSH2 0xBC PUSH2 0x108 JUMP JUMPDEST PUSH1 0x40 MLOAD PUSH2 0xC9 SWAP2 SWAP1 PUSH2 0x24D JUMP JUMPDEST PUSH1 0x40 MLOAD DUP1 SWAP2 SUB SWAP1 RETURN JUMPDEST PUSH2 0xEC PUSH1 0x4 DUP1 CALLDATASIZE SUB DUP2 ADD SWAP1 PUSH2 0xE7 SWAP2 SWAP1 PUSH2 0x319 JUMP JUMPDEST PUSH2 0x10E JUMP JUMPDEST STOP JUMPDEST PUSH0 SLOAD DUP2 JUMP JUMPDEST PUSH1 0x2 PUSH1 0x20 MSTORE DUP1 PUSH0 MSTORE PUSH1 0x40 PUSH0 KECCAK256 PUSH0 SWAP2 POP SWAP1 POP SLOAD DUP2 JUMP JUMPDEST PUSH1 0x1 SLOAD DUP2 JUMP JUMPDEST PUSH1 0x1 SLOAD DUP2 PUSH2 0x11C SWAP2 SWAP1 PUSH2 0x371 JUMP JUMPDEST CALLVALUE EQ PUSH2 0x15D JUMPI PUSH1 0x40 MLOAD PUSH32 0x8C379A000000000000000000000000000000000000000000000000000000000 DUP2 MSTORE PUSH1 0x4 ADD PUSH2 0x154 SWAP1 PUSH2 0x40C JUMP JUMPDEST PUSH1 0x40 MLOAD DUP1 SWAP2 SUB SWAP1 REVERT JUMPDEST PUSH0 SLOAD DUP2 GT ISZERO PUSH2 0x1A6 JUMPI DUP1 PUSH0 SLOAD PUSH1 0x40 MLOAD PUSH32 0xF984D91400000000000000000000000000000000000000000000000000000000 DUP2 MSTORE PUSH1 0x4 ADD PUSH2 0x19D SWAP3 SWAP2 SWAP1 PUSH2 0x42A JUMP JUMPDEST PUSH1 0x40 MLOAD DUP1 SWAP2 SUB SWAP1 REVERT JUMPDEST PUSH0 PUSH0 SLOAD SWAP1 POP DUP2 PUSH1 0x2 PUSH0 CALLER PUSH20 0xFFFFFFFFFFFFFFFFFFFFFFFFFFFFFFFFFFFFFFFF AND PUSH20 0xFFFFFFFFFFFFFFFFFFFFFFFFFFFFFFFFFFFFFFFF AND DUP2 MSTORE PUSH1 0x20 ADD SWAP1 DUP2 MSTORE PUSH1 0x20 ADD PUSH0 KECCAK256 PUSH0 DUP3 DUP3 SLOAD PUSH2 0x1F7 SWAP2 SWAP1 PUSH2 0x451 JUMP JUMPDEST SWAP3 POP POP DUP2 SWAP1 SSTORE POP DUP2 PUSH0 PUSH0 DUP3 DUP3 SLOAD PUSH2 0x20E SWAP2 SWAP1 PUSH2 0x484 JUMP JUMPDEST SWAP3 POP POP DUP2 SWAP1 SSTORE POP DUP2 DUP2 PUSH2 0x221 SWAP2 SWAP1 PUSH2 0x484 JUMP JUMPDEST PUSH0 SLOAD EQ PUSH2 0x231 JUMPI PUSH2 0x230 PUSH2 0x4B7 JUMP JUMPDEST JUMPDEST POP POP JUMP JUMPDEST PUSH0 DUP2 SWAP1 POP SWAP2 SWAP1 POP JUMP JUMPDEST PUSH2 0x247 DUP2 PUSH2 0x235 JUMP JUMPDEST DUP3 MSTORE POP POP JUMP JUMPDEST PUSH0 PUSH1 0x20 DUP3 ADD SWAP1 POP PUSH2 0x260 PUSH0 DUP4 ADD DUP5 PUSH2 0x23E JUMP JUMPDEST SWAP3 SWAP2 POP POP JUMP JUMPDEST PUSH0 PUSH0 REVERT JUMPDEST PUSH0 PUSH20 0xFFFFFFFFFFFFFFFFFFFFFFFFFFFFFFFFFFFFFFFF DUP3 AND SWAP1 POP SWAP2 SWAP1 POP JUMP JUMPDEST PUSH0 PUSH2 0x293 DUP3 PUSH2 0x26A JUMP JUMPDEST SWAP1 POP SWAP2 SWAP1 POP JUMP JUMPDEST PUSH2 0x2A3 DUP2 PUSH2 0x289 JUMP JUMPDEST DUP2 EQ PUSH2 0x2AD JUMPI PUSH0 PUSH0 REVERT JUMPDEST POP JUMP JUMPDEST PUSH0 DUP2 CALLDATALOAD SWAP1 POP PUSH2 0x2BE DUP2 PUSH2 0x29A JUMP JUMPDEST SWAP3 SWAP2 POP POP JUMP JUMPDEST PUSH0 PUSH1 0x20 DUP3 DUP5 SUB SLT ISZERO PUSH2 0x2D9 JUMPI PUSH2 0x2D8 PUSH2 0x266 JUMP JUMPDEST JUMPDEST PUSH0 PUSH2 0x2E6 DUP5 DUP3 DUP6 ADD PUSH2 0x2B0 JUMP JUMPDEST SWAP2 POP POP SWAP3 SWAP2 POP POP JUMP JUMPDEST PUSH2 0x2F8 DUP2 PUSH2 0x235 JUMP JUMPDEST DUP2 EQ PUSH2 0x302 JUMPI PUSH0 PUSH0 REVERT JUMPDEST POP JUMP JUMPDEST PUSH0 DUP2 CALLDATALOAD SWAP1 POP PUSH2 0x313 DUP2 PUSH2 0x2EF JUMP JUMPDEST SWAP3 SWAP2 POP POP JUMP JUMPDEST PUSH0 PUSH1 0x20 DUP3 DUP5 SUB SLT ISZERO PUSH2 0x32E JUMPI PUSH2 0x32D PUSH2 0x266 JUMP JUMPDEST JUMPDEST PUSH0 PUSH2 0x33B DUP5 DUP3 DUP6 ADD PUSH2 0x305 JUMP JUMPDEST SWAP2 POP POP SWAP3 SWAP2 POP POP JUMP JUMPDEST PUSH32 0x4E487B7100000000000000000000000000000000000000000000000000000000 PUSH0 MSTORE PUSH1 0x11 PUSH1 0x4 MSTORE PUSH1 0x24 PUSH0 REVERT JUMPDEST PUSH0 PUSH2 0x37B DUP3 PUSH2 0x235 JUMP JUMPDEST SWAP2 POP PUSH2 0x386 DUP4 PUSH2 0x235 JUMP JUMPDEST SWAP3 POP DUP3 DUP3 MUL PUSH2 0x394 DUP2 PUSH2 0x235 JUMP JUMPDEST SWAP2 POP DUP3 DUP3 DIV DUP5 EQ DUP4 ISZERO OR PUSH2 0x3AB JUMPI PUSH2 0x3AA PUSH2 0x344 JUMP JUMPDEST JUMPDEST POP SWAP3 SWAP2 POP POP JUMP JUMPDEST PUSH0 DUP3 DUP3 MSTORE PUSH1 0x20 DUP3 ADD SWAP1 POP SWAP3 SWAP2 POP POP JUMP JUMPDEST PUSH32 0x4572726F723A20496E636F72726563742045544820616D6F756E742073656E74 PUSH0 DUP3 ADD MSTORE POP JUMP JUMPDEST PUSH0 PUSH2 0x3F6 PUSH1 0x20 DUP4 PUSH2 0x3B2 JUMP JUMPDEST SWAP2 POP PUSH2 0x401 DUP3 PUSH2 0x3C2 JUMP JUMPDEST PUSH1 0x20 DUP3 ADD SWAP1 POP SWAP2 SWAP1 POP JUMP JUMPDEST PUSH0 PUSH1 0x20 DUP3 ADD SWAP1 POP DUP2 DUP2 SUB PUSH0 DUP4 ADD MSTORE PUSH2 0x423 DUP2 PUSH2 0x3EA JUMP JUMPDEST SWAP1 POP SWAP2 SWAP1 POP JUMP JUMPDEST PUSH0 PUSH1 0x40 DUP3 ADD SWAP1 POP PUSH2 0x43D PUSH0 DUP4 ADD DUP6 PUSH2 0x23E JUMP JUMPDEST PUSH2 0x44A PUSH1 0x20 DUP4 ADD DUP5 PUSH2 0x23E JUMP JUMPDEST SWAP4 SWAP3 POP POP POP JUMP JUMPDEST PUSH0 PUSH2 0x45B DUP3 PUSH2 0x235 JUMP JUMPDEST SWAP2 POP PUSH2 0x466 DUP4 PUSH2 0x235 JUMP JUMPDEST SWAP3 POP DUP3 DUP3 ADD SWAP1 POP DUP1 DUP3 GT ISZERO PUSH2 0x47E JUMPI PUSH2 0x47D PUSH2 0x344 JUMP JUMPDEST JUMPDEST SWAP3 SWAP2 POP POP JUMP JUMPDEST PUSH0 PUSH2 0x48E DUP3 PUSH2 0x235 JUMP JUMPDEST SWAP2 POP PUSH2 0x499 DUP4 PUSH2 0x235 JUMP JUMPDEST SWAP3 POP DUP3 DUP3 SUB SWAP1 POP DUP2 DUP2 GT ISZERO PUSH2 0x4B1 JUMPI PUSH2 0x4B0 PUSH2 0x344 JUMP JUMPDEST JUMPDEST SWAP3 SWAP2 POP POP JUMP JUMPDEST PUSH32 0x4E487B7100000000000000000000000000000000000000000000000000000000 PUSH0 MSTORE PUSH1 0x1 PUSH1 0x4 MSTORE PUSH1 0x24 PUSH0 REVERT INVALID LOG2 PUSH5 0x6970667358 0x22 SLT KECCAK256 0x1E 0xD4 CREATE CALLCODE LOG0 DUP2 0xA8 PUSH21 0x58DF4BAE366057692F73B7E99B171C6AF3C1D273C3 DATALOADN 0x7F25 PUSH5 0x736F6C6343 STOP ADDMOD 0x1E STOP CALLER "
		},
		"gasEstimates": {
			"creation": {
				"codeDepositCost": "261200",
				"executionCost": "44509",
				"totalCost": "305709"
			},
			"external": {
				"balances(address)": "2802",
				"price()": "2447",
				"purchase(uint256)": "infinite",
				"totalSupply()": "2402"
			}
		},
		"methodIdentifiers": {
			"balances(address)": "27e235e3",
			"price()": "a035b1fe",
			"purchase(uint256)": "efef39a1",
			"totalSupply()": "18160ddd"
		}
	},
	"abi": [
		{
			"inputs": [
				{
					"internalType": "uint256",
					"name": "requestedAmount",
					"type": "uint256"
				},
				{
					"internalType": "uint256",
					"name": "availableAmount",
					"type": "uint256"
				}
			],
			"name": "InsufficientStock",
			"type": "error"
		},
		{
			"inputs": [
				{
					"internalType": "address",
					"name": "",
					"type": "address"
				}
			],
			"name": "balances",
			"outputs": [
				{
					"internalType": "uint256",
					"name": "",
					"type": "uint256"
				}
			],
			"stateMutability": "view",
			"type": "function"
		},
		{
			"inputs": [],
			"name": "price",
			"outputs": [
				{
					"internalType": "uint256",
					"name": "",
					"type": "uint256"
				}
			],
			"stateMutability": "view",
			"type": "function"
		},
		{
			"inputs": [
				{
					"internalType": "uint256",
					"name": "_amount",
					"type": "uint256"
				}
			],
			"name": "purchase",
			"outputs": [],
			"stateMutability": "payable",
			"type": "function"
		},
		{
			"inputs": [],
			"name": "totalSupply",
			"outputs": [
				{
					"internalType": "uint256",
					"name": "",
					"type": "uint256"
				}
			],
			"stateMutability": "view",
			"type": "function"
		}
	]
}