{
	"data": {
		"bytecode": {
			"linkReferences": {},
			"object": "6080604052348015600e575f5ffd5b506106ed8061001c5f395ff3fe608060405234801561000f575f5ffd5b506004361061003f575f3560e01c806373d4a13a1461004357806389a8e2a714610061578063e21f37ce1461007d575b5f5ffd5b61004b61009b565b60405161005891906101b3565b60405180910390f35b61007b6004803603810190610076919061025f565b6100a0565b005b61008561010f565b604051610092919061032c565b60405180910390f35b5f5481565b825f819055508181600191826100b7929190610580565b503373ffffffffffffffffffffffffffffffffffffffff167f2c59ca8ece54c6eb184cf50feb693388ef0257b266adc345b1404ee1165a71da84848460405161010293929190610687565b60405180910390a2505050565b6001805461011c906103b0565b80601f0160208091040260200160405190810160405280929190818152602001828054610148906103b0565b80156101935780601f1061016a57610100808354040283529160200191610193565b820191905f5260205f20905b81548152906001019060200180831161017657829003601f168201915b505050505081565b5f819050919050565b6101ad8161019b565b82525050565b5f6020820190506101c65f8301846101a4565b92915050565b5f5ffd5b5f5ffd5b6101dd8161019b565b81146101e7575f5ffd5b50565b5f813590506101f8816101d4565b92915050565b5f5ffd5b5f5ffd5b5f5ffd5b5f5f83601f84011261021f5761021e6101fe565b5b8235905067ffffffffffffffff81111561023c5761023b610202565b5b60208301915083600182028301111561025857610257610206565b5b9250929050565b5f5f5f60408486031215610276576102756101cc565b5b5f610283868287016101ea565b935050602084013567ffffffffffffffff8111156102a4576102a36101d0565b5b6102b08682870161020a565b92509250509250925092565b5f81519050919050565b5f82825260208201905092915050565b8281835e5f83830152505050565b5f601f19601f8301169050919050565b5f6102fe826102bc565b61030881856102c6565b93506103188185602086016102d6565b610321816102e4565b840191505092915050565b5f6020820190508181035f83015261034481846102f4565b905092915050565b5f82905092915050565b7f4e487b71000000000000000000000000000000000000000000000000000000005f52604160045260245ffd5b7f4e487b71000000000000000000000000000000000000000000000000000000005f52602260045260245ffd5b5f60028204905060018216806103c757607f821691505b6020821081036103da576103d9610383565b5b50919050565b5f819050815f5260205f209050919050565b5f6020601f8301049050919050565b5f82821b905092915050565b5f6008830261043c7fffffffffffffffffffffffffffffffffffffffffffffffffffffffffffffffff82610401565b6104468683610401565b95508019841693508086168417925050509392505050565b5f819050919050565b5f61048161047c6104778461019b565b61045e565b61019b565b9050919050565b5f819050919050565b61049a83610467565b6104ae6104a682610488565b84845461040d565b825550505050565b5f5f905090565b6104c56104b6565b6104d0818484610491565b505050565b5b818110156104f3576104e85f826104bd565b6001810190506104d6565b5050565b601f82111561053857610509816103e0565b610512846103f2565b81016020851015610521578190505b61053561052d856103f2565b8301826104d5565b50505b505050565b5f82821c905092915050565b5f6105585f198460080261053d565b1980831691505092915050565b5f6105708383610549565b9150826002028217905092915050565b61058a838361034c565b67ffffffffffffffff8111156105a3576105a2610356565b5b6105ad82546103b0565b6105b88282856104f7565b5f601f8311600181146105e5575f84156105d3578287013590505b6105dd8582610565565b865550610644565b601f1984166105f3866103e0565b5f5b8281101561061a578489013582556001820191506020850194506020810190506105f5565b868310156106375784890135610633601f891682610549565b8355505b6001600288020188555050505b50505050505050565b828183375f83830152505050565b5f61066683856102c6565b935061067383858461064d565b61067c836102e4565b840190509392505050565b5f60408201905061069a5f8301866101a4565b81810360208301526106ad81848661065b565b905094935050505056fea26469706673582212201267836329b328eda6dcf613ac8fd80d7c0c739bf3e28d3d58e860c01005c69864736f6c634300081e0033",
			"opcodes": "PUSH1 0x80 PUSH1 0x40 MSTORE CALLVALUE DUP1 ISZERO PUSH1 0xE JUMPI PUSH0 PUSH0 REVERT JUMPDEST POP PUSH2 0x6ED DUP1 PUSH2 0x1C PUSH0 CODECOPY PUSH0 RETURN INVALID PUSH1 0x80 PUSH1 0x40 MSTORE CALLVALUE DUP1 ISZERO PUSH2 0xF JUMPI PUSH0 PUSH0 REVERT JUMPDEST POP PUSH1 0x4 CALLDATASIZE LT PUSH2 0x3F JUMPI PUSH0 CALLDATALOAD PUSH1 0xE0 SHR DUP1 PUSH4 0x73D4A13A EQ PUSH2 0x43 JUMPI DUP1 PUSH4 0x89A8E2A7 EQ PUSH2 0x61 JUMPI DUP1 PUSH4 0xE21F37CE EQ PUSH2 0x7D JUMPI JUMPDEST PUSH0 PUSH0 REVERT JUMPDEST PUSH2 0x4B PUSH2 0x9B JUMP JUMPDEST PUSH1 0x40 MLOAD PUSH2 0x58 SWAP2 SWAP1 PUSH2 0x1B3 JUMP JUMPDEST PUSH1 0x40 MLOAD DUP1 SWAP2 SUB SWAP1 RETURN JUMPDEST PUSH2 0x7B PUSH1 0x4 DUP1 CALLDATASIZE SUB DUP2 ADD SWAP1 PUSH2 0x76 SWAP2 SWAP1 PUSH2 0x25F JUMP JUMPDEST PUSH2 0xA0 JUMP JUMPDEST STOP JUMPDEST PUSH2 0x85 PUSH2 0x10F JUMP JUMPDEST PUSH1 0x40 MLOAD PUSH2 0x92 SWAP2 SWAP1 PUSH2 0x32C JUMP JUMPDEST PUSH1 0x40 MLOAD DUP1 SWAP2 SUB SWAP1 RETURN JUMPDEST PUSH0 SLOAD DUP2 JUMP JUMPDEST DUP3 PUSH0 DUP2 SWAP1 SSTORE POP DUP2 DUP2 PUSH1 0x1 SWAP2 DUP3 PUSH2 0xB7 SWAP3 SWAP2 SWAP1 PUSH2 0x580 JUMP JUMPDEST POP CALLER PUSH20 0xFFFFFFFFFFFFFFFFFFFFFFFFFFFFFFFFFFFFFFFF AND PUSH32 0x2C59CA8ECE54C6EB184CF50FEB693388EF0257B266ADC345B1404EE1165A71DA DUP5 DUP5 DUP5 PUSH1 0x40 MLOAD PUSH2 0x102 SWAP4 SWAP3 SWAP2 SWAP1 PUSH2 0x687 JUMP JUMPDEST PUSH1 0x40 MLOAD DUP1 SWAP2 SUB SWAP1 LOG2 POP POP POP JUMP JUMPDEST PUSH1 0x1 DUP1 SLOAD PUSH2 0x11C SWAP1 PUSH2 0x3B0 JUMP JUMPDEST DUP1 PUSH1 0x1F ADD PUSH1 0x20 DUP1 SWAP2 DIV MUL PUSH1 0x20 ADD PUSH1 0x40 MLOAD SWAP1 DUP2 ADD PUSH1 0x40 MSTORE DUP1 SWAP3 SWAP2 SWAP1 DUP2 DUP2 MSTORE PUSH1 0x20 ADD DUP3 DUP1 SLOAD PUSH2 0x148 SWAP1 PUSH2 0x3B0 JUMP JUMPDEST DUP1 ISZERO PUSH2 0x193 JUMPI DUP1 PUSH1 0x1F LT PUSH2 0x16A JUMPI PUSH2 0x100 DUP1 DUP4 SLOAD DIV MUL DUP4 MSTORE SWAP2 PUSH1 0x20 ADD SWAP2 PUSH2 0x193 JUMP JUMPDEST DUP3 ADD SWAP2 SWAP1 PUSH0 MSTORE PUSH1 0x20 PUSH0 KECCAK256 SWAP1 JUMPDEST DUP2 SLOAD DUP2 MSTORE SWAP1 PUSH1 0x1 ADD SWAP1 PUSH1 0x20 ADD DUP1 DUP4 GT PUSH2 0x176 JUMPI DUP3 SWAP1 SUB PUSH1 0x1F AND DUP3 ADD SWAP2 JUMPDEST POP POP POP POP POP DUP2 JUMP JUMPDEST PUSH0 DUP2 SWAP1 POP SWAP2 SWAP1 POP JUMP JUMPDEST PUSH2 0x1AD DUP2 PUSH2 0x19B JUMP JUMPDEST DUP3 MSTORE POP POP JUMP JUMPDEST PUSH0 PUSH1 0x20 DUP3 ADD SWAP1 POP PUSH2 0x1C6 PUSH0 DUP4 ADD DUP5 PUSH2 0x1A4 JUMP JUMPDEST SWAP3 SWAP2 POP POP JUMP JUMPDEST PUSH0 PUSH0 REVERT JUMPDEST PUSH0 PUSH0 REVERT JUMPDEST PUSH2 0x1DD DUP2 PUSH2 0x19B JUMP JUMPDEST DUP2 EQ PUSH2 0x1E7 JUMPI PUSH0 PUSH0 REVERT JUMPDEST POP JUMP JUMPDEST PUSH0 DUP2 CALLDATALOAD SWAP1 POP PUSH2 0x1F8 DUP2 PUSH2 0x1D4 JUMP JUMPDEST SWAP3 SWAP2 POP POP JUMP JUMPDEST PUSH0 PUSH0 REVERT JUMPDEST PUSH0 PUSH0 REVERT JUMPDEST PUSH0 PUSH0 REVERT JUMPDEST PUSH0 PUSH0 DUP4 PUSH1 0x1F DUP5 ADD SLT PUSH2 0x21F JUMPI PUSH2 0x21E PUSH2 0x1FE JUMP JUMPDEST JUMPDEST DUP3 CALLDATALOAD SWAP1 POP PUSH8 0xFFFFFFFFFFFFFFFF DUP2 GT ISZERO PUSH2 0x23C JUMPI PUSH2 0x23B PUSH2 0x202 JUMP JUMPDEST JUMPDEST PUSH1 0x20 DUP4 ADD SWAP2 POP DUP4 PUSH1 0x1 DUP3 MUL DUP4 ADD GT ISZERO PUSH2 0x258 JUMPI PUSH2 0x257 PUSH2 0x206 JUMP JUMPDEST JUMPDEST SWAP3 POP SWAP3 SWAP1 POP JUMP JUMPDEST PUSH0 PUSH0 PUSH0 PUSH1 0x40 DUP5 DUP7 SUB SLT ISZERO PUSH2 0x276 JUMPI PUSH2 0x275 PUSH2 0x1CC JUMP JUMPDEST JUMPDEST PUSH0 PUSH2 0x283 DUP7 DUP3 DUP8 ADD PUSH2 0x1EA JUMP JUMPDEST SWAP4 POP POP PUSH1 0x20 DUP5 ADD CALLDATALOAD PUSH8 0xFFFFFFFFFFFFFFFF DUP2 GT ISZERO PUSH2 0x2A4 JUMPI PUSH2 0x2A3 PUSH2 0x1D0 JUMP JUMPDEST JUMPDEST PUSH2 0x2B0 DUP7 DUP3 DUP8 ADD PUSH2 0x20A JUMP JUMPDEST SWAP3 POP SWAP3 POP POP SWAP3 POP SWAP3 POP SWAP3 JUMP JUMPDEST PUSH0 DUP2 MLOAD SWAP1 POP SWAP2 SWAP1 POP JUMP JUMPDEST PUSH0 DUP3 DUP3 MSTORE PUSH1 0x20 DUP3 ADD SWAP1 POP SWAP3 SWAP2 POP POP JUMP JUMPDEST DUP3 DUP2 DUP4 MCOPY PUSH0 DUP4 DUP4 ADD MSTORE POP POP POP JUMP JUMPDEST PUSH0 PUSH1 0x1F NOT PUSH1 0x1F DUP4 ADD AND SWAP1 POP SWAP2 SWAP1 POP JUMP JUMPDEST PUSH0 PUSH2 0x2FE DUP3 PUSH2 0x2BC JUMP JUMPDEST PUSH2 0x308 DUP2 DUP6 PUSH2 0x2C6 JUMP JUMPDEST SWAP4 POP PUSH2 0x318 DUP2 DUP6 PUSH1 0x20 DUP7 ADD PUSH2 0x2D6 JUMP JUMPDEST PUSH2 0x321 DUP2 PUSH2 0x2E4 JUMP JUMPDEST DUP5 ADD SWAP2 POP POP SWAP3 SWAP2 POP POP JUMP JUMPDEST PUSH0 PUSH1 0x20 DUP3 ADD SWAP1 POP DUP2 DUP2 SUB PUSH0 DUP4 ADD MSTORE PUSH2 0x344 DUP2 DUP5 PUSH2 0x2F4 JUMP JUMPDEST SWAP1 POP SWAP3 SWAP2 POP POP JUMP JUMPDEST PUSH0 DUP3 SWAP1 POP SWAP3 SWAP2 POP POP JUMP JUMPDEST PUSH32 0x4E487B7100000000000000000000000000000000000000000000000000000000 PUSH0 MSTORE PUSH1 0x41 PUSH1 0x4 MSTORE PUSH1 0x24 PUSH0 REVERT JUMPDEST PUSH32 0x4E487B7100000000000000000000000000000000000000000000000000000000 PUSH0 MSTORE PUSH1 0x22 PUSH1 0x4 MSTORE PUSH1 0x24 PUSH0 REVERT JUMPDEST PUSH0 PUSH1 0x2 DUP3 DIV SWAP1 POP PUSH1 0x1 DUP3 AND DUP1 PUSH2 0x3C7 JUMPI PUSH1 0x7F DUP3 AND SWAP2 POP JUMPDEST PUSH1 0x20 DUP3 LT DUP2 SUB PUSH2 0x3DA JUMPI PUSH2 0x3D9 PUSH2 0x383 JUMP JUMPDEST JUMPDEST POP SWAP2 SWAP1 POP JUMP JUMPDEST PUSH0 DUP2 SWAP1 POP DUP2 PUSH0 MSTORE PUSH1 0x20 PUSH0 KECCAK256 SWAP1 POP SWAP2 SWAP1 POP JUMP JUMPDEST PUSH0 PUSH1 0x20 PUSH1 0x1F DUP4 ADD DIV SWAP1 POP SWAP2 SWAP1 POP JUMP JUMPDEST PUSH0 DUP3 DUP3 SHL SWAP1 POP SWAP3 SWAP2 POP POP JUMP JUMPDEST PUSH0 PUSH1 0x8 DUP4 MUL PUSH2 0x43C PUSH32 0xFFFFFFFFFFFFFFFFFFFFFFFFFFFFFFFFFFFFFFFFFFFFFFFFFFFFFFFFFFFFFFFF DUP3 PUSH2 0x401 JUMP JUMPDEST PUSH2 0x446 DUP7 DUP4 PUSH2 0x401 JUMP JUMPDEST SWAP6 POP DUP1 NOT DUP5 AND SWAP4 POP DUP1 DUP7 AND DUP5 OR SWAP3 POP POP POP SWAP4 SWAP3 POP POP POP JUMP JUMPDEST PUSH0 DUP2 SWAP1 POP SWAP2 SWAP1 POP JUMP JUMPDEST PUSH0 PUSH2 0x481 PUSH2 0x47C PUSH2 0x477 DUP5 PUSH2 0x19B JUMP JUMPDEST PUSH2 0x45E JUMP JUMPDEST PUSH2 0x19B JUMP JUMPDEST SWAP1 POP SWAP2 SWAP1 POP JUMP JUMPDEST PUSH0 DUP2 SWAP1 POP SWAP2 SWAP1 POP JUMP JUMPDEST PUSH2 0x49A DUP4 PUSH2 0x467 JUMP JUMPDEST PUSH2 0x4AE PUSH2 0x4A6 DUP3 PUSH2 0x488 JUMP JUMPDEST DUP5 DUP5 SLOAD PUSH2 0x40D JUMP JUMPDEST DUP3 SSTORE POP POP POP POP JUMP JUMPDEST PUSH0 PUSH0 SWAP1 POP SWAP1 JUMP JUMPDEST PUSH2 0x4C5 PUSH2 0x4B6 JUMP JUMPDEST PUSH2 0x4D0 DUP2 DUP5 DUP5 PUSH2 0x491 JUMP JUMPDEST POP POP POP JUMP JUMPDEST JUMPDEST DUP2 DUP2 LT ISZERO PUSH2 0x4F3 JUMPI PUSH2 0x4E8 PUSH0 DUP3 PUSH2 0x4BD JUMP JUMPDEST PUSH1 0x1 DUP2 ADD SWAP1 POP PUSH2 0x4D6 JUMP JUMPDEST POP POP JUMP JUMPDEST PUSH1 0x1F DUP3 GT ISZERO PUSH2 0x538 JUMPI PUSH2 0x509 DUP2 PUSH2 0x3E0 JUMP JUMPDEST PUSH2 0x512 DUP5 PUSH2 0x3F2 JUMP JUMPDEST DUP2 ADD PUSH1 0x20 DUP6 LT ISZERO PUSH2 0x521 JUMPI DUP2 SWAP1 POP JUMPDEST PUSH2 0x535 PUSH2 0x52D DUP6 PUSH2 0x3F2 JUMP JUMPDEST DUP4 ADD DUP3 PUSH2 0x4D5 JUMP JUMPDEST POP POP JUMPDEST POP POP POP JUMP JUMPDEST PUSH0 DUP3 DUP3 SHR SWAP1 POP SWAP3 SWAP2 POP POP JUMP JUMPDEST PUSH0 PUSH2 0x558 PUSH0 NOT DUP5 PUSH1 0x8 MUL PUSH2 0x53D JUMP JUMPDEST NOT DUP1 DUP4 AND SWAP2 POP POP SWAP3 SWAP2 POP POP JUMP JUMPDEST PUSH0 PUSH2 0x570 DUP4 DUP4 PUSH2 0x549 JUMP JUMPDEST SWAP2 POP DUP3 PUSH1 0x2 MUL DUP3 OR SWAP1 POP SWAP3 SWAP2 POP POP JUMP JUMPDEST PUSH2 0x58A DUP4 DUP4 PUSH2 0x34C JUMP JUMPDEST PUSH8 0xFFFFFFFFFFFFFFFF DUP2 GT ISZERO PUSH2 0x5A3 JUMPI PUSH2 0x5A2 PUSH2 0x356 JUMP JUMPDEST JUMPDEST PUSH2 0x5AD DUP3 SLOAD PUSH2 0x3B0 JUMP JUMPDEST PUSH2 0x5B8 DUP3 DUP3 DUP6 PUSH2 0x4F7 JUMP JUMPDEST PUSH0 PUSH1 0x1F DUP4 GT PUSH1 0x1 DUP2 EQ PUSH2 0x5E5 JUMPI PUSH0 DUP5 ISZERO PUSH2 0x5D3 JUMPI DUP3 DUP8 ADD CALLDATALOAD SWAP1 POP JUMPDEST PUSH2 0x5DD DUP6 DUP3 PUSH2 0x565 JUMP JUMPDEST DUP7 SSTORE POP PUSH2 0x644 JUMP JUMPDEST PUSH1 0x1F NOT DUP5 AND PUSH2 0x5F3 DUP7 PUSH2 0x3E0 JUMP JUMPDEST PUSH0 JUMPDEST DUP3 DUP2 LT ISZERO PUSH2 0x61A JUMPI DUP5 DUP10 ADD CALLDATALOAD DUP3 SSTORE PUSH1 0x1 DUP3 ADD SWAP2 POP PUSH1 0x20 DUP6 ADD SWAP5 POP PUSH1 0x20 DUP2 ADD SWAP1 POP PUSH2 0x5F5 JUMP JUMPDEST DUP7 DUP4 LT ISZERO PUSH2 0x637 JUMPI DUP5 DUP10 ADD CALLDATALOAD PUSH2 0x633 PUSH1 0x1F DUP10 AND DUP3 PUSH2 0x549 JUMP JUMPDEST DUP4 SSTORE POP JUMPDEST PUSH1 0x1 PUSH1 0x2 DUP9 MUL ADD DUP9 SSTORE POP POP POP JUMPDEST POP POP POP POP POP POP POP JUMP JUMPDEST DUP3 DUP2 DUP4 CALLDATACOPY PUSH0 DUP4 DUP4 ADD MSTORE POP POP POP JUMP JUMPDEST PUSH0 PUSH2 0x666 DUP4 DUP6 PUSH2 0x2C6 JUMP JUMPDEST SWAP4 POP PUSH2 0x673 DUP4 DUP6 DUP5 PUSH2 0x64D JUMP JUMPDEST PUSH2 0x67C DUP4 PUSH2 0x2E4 JUMP JUMPDEST DUP5 ADD SWAP1 POP SWAP4 SWAP3 POP POP POP JUMP JUMPDEST PUSH0 PUSH1 0x40 DUP3 ADD SWAP1 POP PUSH2 0x69A PUSH0 DUP4 ADD DUP7 PUSH2 0x1A4 JUMP JUMPDEST DUP2 DUP2 SUB PUSH1 0x20 DUP4 ADD MSTORE PUSH2 0x6AD DUP2 DUP5 DUP7 PUSH2 0x65B JUMP JUMPDEST SWAP1 POP SWAP5 SWAP4 POP POP POP POP JUMP INVALID LOG2 PUSH5 0x6970667358 0x22 SLT KECCAK256 SLT PUSH8 0x836329B328EDA6DC 0xF6 SGT 0xAC DUP16 0xD8 0xD PUSH29 0xC739BF3E28D3D58E860C01005C69864736F6C634300081E0033000000 "
		},
		"gasEstimates": {
			"creation": {
				"codeDepositCost": "354600",
				"executionCost": "391",
				"totalCost": "354991"
			},
			"external": {
				"data()": "2402",
				"message()": "infinite",
				"updateData(uint256,string)": "infinite"
			}
		},
		"methodIdentifiers": {
			"data()": "73d4a13a",
			"message()": "e21f37ce",
			"updateData(uint256,string)": "89a8e2a7"
		}
	},
	"abi": [
		{
			"anonymous": false,
			"inputs": [
				{
					"indexed": true,
					"internalType": "address",
					"name": "sender",
					"type": "address"
				},
				{
					"indexed": false,
					"internalType": "uint256",
					"name": "newValue",
					"type": "uint256"
				},
				{
					"indexed": false,
					"internalType": "string",
					"name": "message",
					"type": "string"
				}
			],
			"name": "DataChanged",
			"type": "event"
		},
		{
			"inputs": [],
			"name": "data",
			"outputs": [
				{
					"internalType": "uint256",
					"name": "",
					"type": "uint256"
				}
			],
			"stateMutability": "view",
			"type": "function"
		},
		{
			"inputs": [],
			"name": "message",
			"outputs": [
				{
					"internalType": "string",
					"name": "",
					"type": "string"
				}
			],
			"stateMutability": "view",
			"type": "function"
		},
		{
			"inputs": [
				{
					"internalType": "uint256",
					"name": "_data",
					"type": "uint256"
				},
				{
					"internalType": "string",
					"name": "_message",
					"type": "string"
				}
			],
			"name": "updateData",
			"outputs": [],
			"stateMutability": "nonpayable",
			"type": "function"
		}
	]
}