{
	"data": {
		"bytecode": {
			"linkReferences": {},
			"object": "608060405234801561000f575f80fd5b5060b98061001c5f395ff3fe6080604052348015600e575f80fd5b50600436106026575f3560e01c8063a26857a814602a575b5f80fd5b60306045565b604051603c9291906060565b60405180910390f35b5f8091565b5f819050919050565b605a81604a565b82525050565b5f60408201905060715f8301856053565b607c60208301846053565b939250505056fea2646970667358221220243107c8f9cdc72e9e6d608cf2a1d280a67116e0f4a89d3408ee0bb5b160e7d164736f6c63430008180033",
			"opcodes": "PUSH1 0x80 PUSH1 0x40 MSTORE CALLVALUE DUP1 ISZERO PUSH2 0xF JUMPI PUSH0 DUP1 REVERT JUMPDEST POP PUSH1 0xB9 DUP1 PUSH2 0x1C PUSH0 CODECOPY PUSH0 RETURN INVALID PUSH1 0x80 PUSH1 0x40 MSTORE CALLVALUE DUP1 ISZERO PUSH1 0xE JUMPI PUSH0 DUP1 REVERT JUMPDEST POP PUSH1 0x4 CALLDATASIZE LT PUSH1 0x26 JUMPI PUSH0 CALLDATALOAD PUSH1 0xE0 SHR DUP1 PUSH4 0xA26857A8 EQ PUSH1 0x2A JUMPI JUMPDEST PUSH0 DUP1 REVERT JUMPDEST PUSH1 0x30 PUSH1 0x45 JUMP JUMPDEST PUSH1 0x40 MLOAD PUSH1 0x3C SWAP3 SWAP2 SWAP1 PUSH1 0x60 JUMP JUMPDEST PUSH1 0x40 MLOAD DUP1 SWAP2 SUB SWAP1 RETURN JUMPDEST PUSH0 DUP1 SWAP2 JUMP JUMPDEST PUSH0 DUP2 SWAP1 POP SWAP2 SWAP1 POP JUMP JUMPDEST PUSH1 0x5A DUP2 PUSH1 0x4A JUMP JUMPDEST DUP3 MSTORE POP POP JUMP JUMPDEST PUSH0 PUSH1 0x40 DUP3 ADD SWAP1 POP PUSH1 0x71 PUSH0 DUP4 ADD DUP6 PUSH1 0x53 JUMP JUMPDEST PUSH1 0x7C PUSH1 0x20 DUP4 ADD DUP5 PUSH1 0x53 JUMP JUMPDEST SWAP4 SWAP3 POP POP POP JUMP INVALID LOG2 PUSH5 0x6970667358 0x22 SLT KECCAK256 0x24 BALANCE SMOD 0xC8 0xF9 0xCD 0xC7 0x2E SWAP15 PUSH14 0x608CF2A1D280A67116E0F4A89D34 ADDMOD 0xEE SIGNEXTEND 0xB5 0xB1 PUSH1 0xE7 0xD1 PUSH5 0x736F6C6343 STOP ADDMOD XOR STOP CALLER "
		},
		"gasEstimates": {
			"creation": {
				"codeDepositCost": "37000",
				"executionCost": "85",
				"totalCost": "37085"
			},
			"external": {
				"testFixed()": "infinite"
			}
		},
		"methodIdentifiers": {
			"testFixed()": "a26857a8"
		}
	},
	"abi": [
		{
			"inputs": [],
			"name": "testFixed",
			"outputs": [
				{
					"internalType": "uint256",
					"name": "",
					"type": "uint256"
				},
				{
					"internalType": "uint256",
					"name": "",
					"type": "uint256"
				}
			],
			"stateMutability": "pure",
			"type": "function"
		}
	]
}