{
	"data": {
		"bytecode": {
			"linkReferences": {},
			"object": "608060405260025f553480156012575f5ffd5b5061010f806100205f395ff3fe6080604052348015600e575f5ffd5b50600436106026575f3560e01c8063595536bf14602a575b5f5ffd5b60406004803603810190603c9190608f565b6054565b604051604b919060c2565b60405180910390f35b5f819050919050565b5f5ffd5b5f819050919050565b6071816061565b8114607a575f5ffd5b50565b5f81359050608981606a565b92915050565b5f6020828403121560a15760a0605d565b5b5f60ac84828501607d565b91505092915050565b60bc816061565b82525050565b5f60208201905060d35f83018460b5565b9291505056fea264697066735822122071df27897eaaaa694cedd954bce1f8c6d2488aa3d7db2124077d96eff709cb0364736f6c634300081e0033",
			"opcodes": "PUSH1 0x80 PUSH1 0x40 MSTORE PUSH1 0x2 PUSH0 SSTORE CALLVALUE DUP1 ISZERO PUSH1 0x12 JUMPI PUSH0 PUSH0 REVERT JUMPDEST POP PUSH2 0x10F DUP1 PUSH2 0x20 PUSH0 CODECOPY PUSH0 RETURN INVALID PUSH1 0x80 PUSH1 0x40 MSTORE CALLVALUE DUP1 ISZERO PUSH1 0xE JUMPI PUSH0 PUSH0 REVERT JUMPDEST POP PUSH1 0x4 CALLDATASIZE LT PUSH1 0x26 JUMPI PUSH0 CALLDATALOAD PUSH1 0xE0 SHR DUP1 PUSH4 0x595536BF EQ PUSH1 0x2A JUMPI JUMPDEST PUSH0 PUSH0 REVERT JUMPDEST PUSH1 0x40 PUSH1 0x4 DUP1 CALLDATASIZE SUB DUP2 ADD SWAP1 PUSH1 0x3C SWAP2 SWAP1 PUSH1 0x8F JUMP JUMPDEST PUSH1 0x54 JUMP JUMPDEST PUSH1 0x40 MLOAD PUSH1 0x4B SWAP2 SWAP1 PUSH1 0xC2 JUMP JUMPDEST PUSH1 0x40 MLOAD DUP1 SWAP2 SUB SWAP1 RETURN JUMPDEST PUSH0 DUP2 SWAP1 POP SWAP2 SWAP1 POP JUMP JUMPDEST PUSH0 PUSH0 REVERT JUMPDEST PUSH0 DUP2 SWAP1 POP SWAP2 SWAP1 POP JUMP JUMPDEST PUSH1 0x71 DUP2 PUSH1 0x61 JUMP JUMPDEST DUP2 EQ PUSH1 0x7A JUMPI PUSH0 PUSH0 REVERT JUMPDEST POP JUMP JUMPDEST PUSH0 DUP2 CALLDATALOAD SWAP1 POP PUSH1 0x89 DUP2 PUSH1 0x6A JUMP JUMPDEST SWAP3 SWAP2 POP POP JUMP JUMPDEST PUSH0 PUSH1 0x20 DUP3 DUP5 SUB SLT ISZERO PUSH1 0xA1 JUMPI PUSH1 0xA0 PUSH1 0x5D JUMP JUMPDEST JUMPDEST PUSH0 PUSH1 0xAC DUP5 DUP3 DUP6 ADD PUSH1 0x7D JUMP JUMPDEST SWAP2 POP POP SWAP3 SWAP2 POP POP JUMP JUMPDEST PUSH1 0xBC DUP2 PUSH1 0x61 JUMP JUMPDEST DUP3 MSTORE POP POP JUMP JUMPDEST PUSH0 PUSH1 0x20 DUP3 ADD SWAP1 POP PUSH1 0xD3 PUSH0 DUP4 ADD DUP5 PUSH1 0xB5 JUMP JUMPDEST SWAP3 SWAP2 POP POP JUMP INVALID LOG2 PUSH5 0x6970667358 0x22 SLT KECCAK256 PUSH18 0xDF27897EAAAA694CEDD954BCE1F8C6D2488A LOG3 0xD7 0xDB 0x21 0x24 SMOD PUSH30 0x96EFF709CB0364736F6C634300081E003300000000000000000000000000 "
		},
		"gasEstimates": {
			"creation": {
				"codeDepositCost": "54200",
				"executionCost": "22208",
				"totalCost": "76408"
			},
			"external": {
				"show(int256)": "infinite"
			}
		},
		"methodIdentifiers": {
			"show(int256)": "595536bf"
		}
	},
	"abi": [
		{
			"inputs": [
				{
					"internalType": "int256",
					"name": "i",
					"type": "int256"
				}
			],
			"name": "show",
			"outputs": [
				{
					"internalType": "int256",
					"name": "",
					"type": "int256"
				}
			],
			"stateMutability": "pure",
			"type": "function"
		}
	]
}