{
	"data": {
		"bytecode": {
			"linkReferences": {},
			"object": "608060405234801561000f575f80fd5b506103e85f803373ffffffffffffffffffffffffffffffffffffffff1673ffffffffffffffffffffffffffffffffffffffff1681526020019081526020015f20819055506107ee806100605f395ff3fe608060405234801561000f575f80fd5b5060043610610055575f3560e01c8063095ea7b31461005957806327e235e31461008957806355bbef67146100b957806370a08231146100e9578063a9059cbb14610119575b5f80fd5b610073600480360381019061006e9190610407565b610149565b604051610080919061045f565b60405180910390f35b6100a3600480360381019061009e9190610478565b610154565b6040516100b091906104b2565b60405180910390f35b6100d360048036038101906100ce9190610607565b610168565b6040516100e0919061045f565b60405180910390f35b61010360048036038101906100fe9190610478565b6101ed565b60405161011091906104b2565b60405180910390f35b610133600480360381019061012e9190610407565b610232565b604051610140919061045f565b60405180910390f35b5f6001905092915050565b5f602052805f5260405f205f915090505481565b5f3073ffffffffffffffffffffffffffffffffffffffff1663095ea7b385856040518363ffffffff1660e01b81526004016101a4929190610682565b6020604051808303815f875af11580156101c0573d5f803e3d5ffd5b505050506040513d601f19601f820116820180604052508101906101e491906106d3565b90509392505050565b5f805f8373ffffffffffffffffffffffffffffffffffffffff1673ffffffffffffffffffffffffffffffffffffffff1681526020019081526020015f20549050919050565b5f805f803373ffffffffffffffffffffffffffffffffffffffff1673ffffffffffffffffffffffffffffffffffffffff1681526020019081526020015f20549050828110156102ba5782816040517fcf4791810000000000000000000000000000000000000000000000000000000081526004016102b19291906106fe565b60405180910390fd5b825f803373ffffffffffffffffffffffffffffffffffffffff1673ffffffffffffffffffffffffffffffffffffffff1681526020019081526020015f205f8282546103059190610752565b92505081905550825f808673ffffffffffffffffffffffffffffffffffffffff1673ffffffffffffffffffffffffffffffffffffffff1681526020019081526020015f205f8282546103579190610785565b92505081905550600191505092915050565b5f604051905090565b5f80fd5b5f80fd5b5f73ffffffffffffffffffffffffffffffffffffffff82169050919050565b5f6103a38261037a565b9050919050565b6103b381610399565b81146103bd575f80fd5b50565b5f813590506103ce816103aa565b92915050565b5f819050919050565b6103e6816103d4565b81146103f0575f80fd5b50565b5f81359050610401816103dd565b92915050565b5f806040838503121561041d5761041c610372565b5b5f61042a858286016103c0565b925050602061043b858286016103f3565b9150509250929050565b5f8115159050919050565b61045981610445565b82525050565b5f6020820190506104725f830184610450565b92915050565b5f6020828403121561048d5761048c610372565b5b5f61049a848285016103c0565b91505092915050565b6104ac816103d4565b82525050565b5f6020820190506104c55f8301846104a3565b92915050565b5f80fd5b5f80fd5b5f601f19601f8301169050919050565b7f4e487b71000000000000000000000000000000000000000000000000000000005f52604160045260245ffd5b610519826104d3565b810181811067ffffffffffffffff82111715610538576105376104e3565b5b80604052505050565b5f61054a610369565b90506105568282610510565b919050565b5f67ffffffffffffffff821115610575576105746104e3565b5b61057e826104d3565b9050602081019050919050565b828183375f83830152505050565b5f6105ab6105a68461055b565b610541565b9050828152602081018484840111156105c7576105c66104cf565b5b6105d284828561058b565b509392505050565b5f82601f8301126105ee576105ed6104cb565b5b81356105fe848260208601610599565b91505092915050565b5f805f6060848603121561061e5761061d610372565b5b5f61062b868287016103c0565b935050602061063c868287016103f3565b925050604084013567ffffffffffffffff81111561065d5761065c610376565b5b610669868287016105da565b9150509250925092565b61067c81610399565b82525050565b5f6040820190506106955f830185610673565b6106a260208301846104a3565b9392505050565b6106b281610445565b81146106bc575f80fd5b50565b5f815190506106cd816106a9565b92915050565b5f602082840312156106e8576106e7610372565b5b5f6106f5848285016106bf565b91505092915050565b5f6040820190506107115f8301856104a3565b61071e60208301846104a3565b9392505050565b7f4e487b71000000000000000000000000000000000000000000000000000000005f52601160045260245ffd5b5f61075c826103d4565b9150610767836103d4565b925082820390508181111561077f5761077e610725565b5b92915050565b5f61078f826103d4565b915061079a836103d4565b92508282019050808211156107b2576107b1610725565b5b9291505056fea26469706673582212200efa674beebe7049a6308ff21dd5ca00b0c60e339ba1c52cb374ed46f70cbeb664736f6c63430008180033",
			"opcodes": "PUSH1 0x80 PUSH1 0x40 MSTORE CALLVALUE DUP1 ISZERO PUSH2 0xF JUMPI PUSH0 DUP1 REVERT JUMPDEST POP PUSH2 0x3E8 PUSH0 DUP1 CALLER PUSH20 0xFFFFFFFFFFFFFFFFFFFFFFFFFFFFFFFFFFFFFFFF AND PUSH20 0xFFFFFFFFFFFFFFFFFFFFFFFFFFFFFFFFFFFFFFFF AND DUP2 MSTORE PUSH1 0x20 ADD SWAP1 DUP2 MSTORE PUSH1 0x20 ADD PUSH0 KECCAK256 DUP2 SWAP1 SSTORE POP PUSH2 0x7EE DUP1 PUSH2 0x60 PUSH0 CODECOPY PUSH0 RETURN INVALID PUSH1 0x80 PUSH1 0x40 MSTORE CALLVALUE DUP1 ISZERO PUSH2 0xF JUMPI PUSH0 DUP1 REVERT JUMPDEST POP PUSH1 0x4 CALLDATASIZE LT PUSH2 0x55 JUMPI PUSH0 CALLDATALOAD PUSH1 0xE0 SHR DUP1 PUSH4 0x95EA7B3 EQ PUSH2 0x59 JUMPI DUP1 PUSH4 0x27E235E3 EQ PUSH2 0x89 JUMPI DUP1 PUSH4 0x55BBEF67 EQ PUSH2 0xB9 JUMPI DUP1 PUSH4 0x70A08231 EQ PUSH2 0xE9 JUMPI DUP1 PUSH4 0xA9059CBB EQ PUSH2 0x119 JUMPI JUMPDEST PUSH0 DUP1 REVERT JUMPDEST PUSH2 0x73 PUSH1 0x4 DUP1 CALLDATASIZE SUB DUP2 ADD SWAP1 PUSH2 0x6E SWAP2 SWAP1 PUSH2 0x407 JUMP JUMPDEST PUSH2 0x149 JUMP JUMPDEST PUSH1 0x40 MLOAD PUSH2 0x80 SWAP2 SWAP1 PUSH2 0x45F JUMP JUMPDEST PUSH1 0x40 MLOAD DUP1 SWAP2 SUB SWAP1 RETURN JUMPDEST PUSH2 0xA3 PUSH1 0x4 DUP1 CALLDATASIZE SUB DUP2 ADD SWAP1 PUSH2 0x9E SWAP2 SWAP1 PUSH2 0x478 JUMP JUMPDEST PUSH2 0x154 JUMP JUMPDEST PUSH1 0x40 MLOAD PUSH2 0xB0 SWAP2 SWAP1 PUSH2 0x4B2 JUMP JUMPDEST PUSH1 0x40 MLOAD DUP1 SWAP2 SUB SWAP1 RETURN JUMPDEST PUSH2 0xD3 PUSH1 0x4 DUP1 CALLDATASIZE SUB DUP2 ADD SWAP1 PUSH2 0xCE SWAP2 SWAP1 PUSH2 0x607 JUMP JUMPDEST PUSH2 0x168 JUMP JUMPDEST PUSH1 0x40 MLOAD PUSH2 0xE0 SWAP2 SWAP1 PUSH2 0x45F JUMP JUMPDEST PUSH1 0x40 MLOAD DUP1 SWAP2 SUB SWAP1 RETURN JUMPDEST PUSH2 0x103 PUSH1 0x4 DUP1 CALLDATASIZE SUB DUP2 ADD SWAP1 PUSH2 0xFE SWAP2 SWAP1 PUSH2 0x478 JUMP JUMPDEST PUSH2 0x1ED JUMP JUMPDEST PUSH1 0x40 MLOAD PUSH2 0x110 SWAP2 SWAP1 PUSH2 0x4B2 JUMP JUMPDEST PUSH1 0x40 MLOAD DUP1 SWAP2 SUB SWAP1 RETURN JUMPDEST PUSH2 0x133 PUSH1 0x4 DUP1 CALLDATASIZE SUB DUP2 ADD SWAP1 PUSH2 0x12E SWAP2 SWAP1 PUSH2 0x407 JUMP JUMPDEST PUSH2 0x232 JUMP JUMPDEST PUSH1 0x40 MLOAD PUSH2 0x140 SWAP2 SWAP1 PUSH2 0x45F JUMP JUMPDEST PUSH1 0x40 MLOAD DUP1 SWAP2 SUB SWAP1 RETURN JUMPDEST PUSH0 PUSH1 0x1 SWAP1 POP SWAP3 SWAP2 POP POP JUMP JUMPDEST PUSH0 PUSH1 0x20 MSTORE DUP1 PUSH0 MSTORE PUSH1 0x40 PUSH0 KECCAK256 PUSH0 SWAP2 POP SWAP1 POP SLOAD DUP2 JUMP JUMPDEST PUSH0 ADDRESS PUSH20 0xFFFFFFFFFFFFFFFFFFFFFFFFFFFFFFFFFFFFFFFF AND PUSH4 0x95EA7B3 DUP6 DUP6 PUSH1 0x40 MLOAD DUP4 PUSH4 0xFFFFFFFF AND PUSH1 0xE0 SHL DUP2 MSTORE PUSH1 0x4 ADD PUSH2 0x1A4 SWAP3 SWAP2 SWAP1 PUSH2 0x682 JUMP JUMPDEST PUSH1 0x20 PUSH1 0x40 MLOAD DUP1 DUP4 SUB DUP2 PUSH0 DUP8 GAS CALL ISZERO DUP1 ISZERO PUSH2 0x1C0 JUMPI RETURNDATASIZE PUSH0 DUP1 RETURNDATACOPY RETURNDATASIZE PUSH0 REVERT JUMPDEST POP POP POP POP PUSH1 0x40 MLOAD RETURNDATASIZE PUSH1 0x1F NOT PUSH1 0x1F DUP3 ADD AND DUP3 ADD DUP1 PUSH1 0x40 MSTORE POP DUP2 ADD SWAP1 PUSH2 0x1E4 SWAP2 SWAP1 PUSH2 0x6D3 JUMP JUMPDEST SWAP1 POP SWAP4 SWAP3 POP POP POP JUMP JUMPDEST PUSH0 DUP1 PUSH0 DUP4 PUSH20 0xFFFFFFFFFFFFFFFFFFFFFFFFFFFFFFFFFFFFFFFF AND PUSH20 0xFFFFFFFFFFFFFFFFFFFFFFFFFFFFFFFFFFFFFFFF AND DUP2 MSTORE PUSH1 0x20 ADD SWAP1 DUP2 MSTORE PUSH1 0x20 ADD PUSH0 KECCAK256 SLOAD SWAP1 POP SWAP2 SWAP1 POP JUMP JUMPDEST PUSH0 DUP1 PUSH0 DUP1 CALLER PUSH20 0xFFFFFFFFFFFFFFFFFFFFFFFFFFFFFFFFFFFFFFFF AND PUSH20 0xFFFFFFFFFFFFFFFFFFFFFFFFFFFFFFFFFFFFFFFF AND DUP2 MSTORE PUSH1 0x20 ADD SWAP1 DUP2 MSTORE PUSH1 0x20 ADD PUSH0 KECCAK256 SLOAD SWAP1 POP DUP3 DUP2 LT ISZERO PUSH2 0x2BA JUMPI DUP3 DUP2 PUSH1 0x40 MLOAD PUSH32 0xCF47918100000000000000000000000000000000000000000000000000000000 DUP2 MSTORE PUSH1 0x4 ADD PUSH2 0x2B1 SWAP3 SWAP2 SWAP1 PUSH2 0x6FE JUMP JUMPDEST PUSH1 0x40 MLOAD DUP1 SWAP2 SUB SWAP1 REVERT JUMPDEST DUP3 PUSH0 DUP1 CALLER PUSH20 0xFFFFFFFFFFFFFFFFFFFFFFFFFFFFFFFFFFFFFFFF AND PUSH20 0xFFFFFFFFFFFFFFFFFFFFFFFFFFFFFFFFFFFFFFFF AND DUP2 MSTORE PUSH1 0x20 ADD SWAP1 DUP2 MSTORE PUSH1 0x20 ADD PUSH0 KECCAK256 PUSH0 DUP3 DUP3 SLOAD PUSH2 0x305 SWAP2 SWAP1 PUSH2 0x752 JUMP JUMPDEST SWAP3 POP POP DUP2 SWAP1 SSTORE POP DUP3 PUSH0 DUP1 DUP7 PUSH20 0xFFFFFFFFFFFFFFFFFFFFFFFFFFFFFFFFFFFFFFFF AND PUSH20 0xFFFFFFFFFFFFFFFFFFFFFFFFFFFFFFFFFFFFFFFF AND DUP2 MSTORE PUSH1 0x20 ADD SWAP1 DUP2 MSTORE PUSH1 0x20 ADD PUSH0 KECCAK256 PUSH0 DUP3 DUP3 SLOAD PUSH2 0x357 SWAP2 SWAP1 PUSH2 0x785 JUMP JUMPDEST SWAP3 POP POP DUP2 SWAP1 SSTORE POP PUSH1 0x1 SWAP2 POP POP SWAP3 SWAP2 POP POP JUMP JUMPDEST PUSH0 PUSH1 0x40 MLOAD SWAP1 POP SWAP1 JUMP JUMPDEST PUSH0 DUP1 REVERT JUMPDEST PUSH0 DUP1 REVERT JUMPDEST PUSH0 PUSH20 0xFFFFFFFFFFFFFFFFFFFFFFFFFFFFFFFFFFFFFFFF DUP3 AND SWAP1 POP SWAP2 SWAP1 POP JUMP JUMPDEST PUSH0 PUSH2 0x3A3 DUP3 PUSH2 0x37A JUMP JUMPDEST SWAP1 POP SWAP2 SWAP1 POP JUMP JUMPDEST PUSH2 0x3B3 DUP2 PUSH2 0x399 JUMP JUMPDEST DUP2 EQ PUSH2 0x3BD JUMPI PUSH0 DUP1 REVERT JUMPDEST POP JUMP JUMPDEST PUSH0 DUP2 CALLDATALOAD SWAP1 POP PUSH2 0x3CE DUP2 PUSH2 0x3AA JUMP JUMPDEST SWAP3 SWAP2 POP POP JUMP JUMPDEST PUSH0 DUP2 SWAP1 POP SWAP2 SWAP1 POP JUMP JUMPDEST PUSH2 0x3E6 DUP2 PUSH2 0x3D4 JUMP JUMPDEST DUP2 EQ PUSH2 0x3F0 JUMPI PUSH0 DUP1 REVERT JUMPDEST POP JUMP JUMPDEST PUSH0 DUP2 CALLDATALOAD SWAP1 POP PUSH2 0x401 DUP2 PUSH2 0x3DD JUMP JUMPDEST SWAP3 SWAP2 POP POP JUMP JUMPDEST PUSH0 DUP1 PUSH1 0x40 DUP4 DUP6 SUB SLT ISZERO PUSH2 0x41D JUMPI PUSH2 0x41C PUSH2 0x372 JUMP JUMPDEST JUMPDEST PUSH0 PUSH2 0x42A DUP6 DUP3 DUP7 ADD PUSH2 0x3C0 JUMP JUMPDEST SWAP3 POP POP PUSH1 0x20 PUSH2 0x43B DUP6 DUP3 DUP7 ADD PUSH2 0x3F3 JUMP JUMPDEST SWAP2 POP POP SWAP3 POP SWAP3 SWAP1 POP JUMP JUMPDEST PUSH0 DUP2 ISZERO ISZERO SWAP1 POP SWAP2 SWAP1 POP JUMP JUMPDEST PUSH2 0x459 DUP2 PUSH2 0x445 JUMP JUMPDEST DUP3 MSTORE POP POP JUMP JUMPDEST PUSH0 PUSH1 0x20 DUP3 ADD SWAP1 POP PUSH2 0x472 PUSH0 DUP4 ADD DUP5 PUSH2 0x450 JUMP JUMPDEST SWAP3 SWAP2 POP POP JUMP JUMPDEST PUSH0 PUSH1 0x20 DUP3 DUP5 SUB SLT ISZERO PUSH2 0x48D JUMPI PUSH2 0x48C PUSH2 0x372 JUMP JUMPDEST JUMPDEST PUSH0 PUSH2 0x49A DUP5 DUP3 DUP6 ADD PUSH2 0x3C0 JUMP JUMPDEST SWAP2 POP POP SWAP3 SWAP2 POP POP JUMP JUMPDEST PUSH2 0x4AC DUP2 PUSH2 0x3D4 JUMP JUMPDEST DUP3 MSTORE POP POP JUMP JUMPDEST PUSH0 PUSH1 0x20 DUP3 ADD SWAP1 POP PUSH2 0x4C5 PUSH0 DUP4 ADD DUP5 PUSH2 0x4A3 JUMP JUMPDEST SWAP3 SWAP2 POP POP JUMP JUMPDEST PUSH0 DUP1 REVERT JUMPDEST PUSH0 DUP1 REVERT JUMPDEST PUSH0 PUSH1 0x1F NOT PUSH1 0x1F DUP4 ADD AND SWAP1 POP SWAP2 SWAP1 POP JUMP JUMPDEST PUSH32 0x4E487B7100000000000000000000000000000000000000000000000000000000 PUSH0 MSTORE PUSH1 0x41 PUSH1 0x4 MSTORE PUSH1 0x24 PUSH0 REVERT JUMPDEST PUSH2 0x519 DUP3 PUSH2 0x4D3 JUMP JUMPDEST DUP2 ADD DUP2 DUP2 LT PUSH8 0xFFFFFFFFFFFFFFFF DUP3 GT OR ISZERO PUSH2 0x538 JUMPI PUSH2 0x537 PUSH2 0x4E3 JUMP JUMPDEST JUMPDEST DUP1 PUSH1 0x40 MSTORE POP POP POP JUMP JUMPDEST PUSH0 PUSH2 0x54A PUSH2 0x369 JUMP JUMPDEST SWAP1 POP PUSH2 0x556 DUP3 DUP3 PUSH2 0x510 JUMP JUMPDEST SWAP2 SWAP1 POP JUMP JUMPDEST PUSH0 PUSH8 0xFFFFFFFFFFFFFFFF DUP3 GT ISZERO PUSH2 0x575 JUMPI PUSH2 0x574 PUSH2 0x4E3 JUMP JUMPDEST JUMPDEST PUSH2 0x57E DUP3 PUSH2 0x4D3 JUMP JUMPDEST SWAP1 POP PUSH1 0x20 DUP2 ADD SWAP1 POP SWAP2 SWAP1 POP JUMP JUMPDEST DUP3 DUP2 DUP4 CALLDATACOPY PUSH0 DUP4 DUP4 ADD MSTORE POP POP POP JUMP JUMPDEST PUSH0 PUSH2 0x5AB PUSH2 0x5A6 DUP5 PUSH2 0x55B JUMP JUMPDEST PUSH2 0x541 JUMP JUMPDEST SWAP1 POP DUP3 DUP2 MSTORE PUSH1 0x20 DUP2 ADD DUP5 DUP5 DUP5 ADD GT ISZERO PUSH2 0x5C7 JUMPI PUSH2 0x5C6 PUSH2 0x4CF JUMP JUMPDEST JUMPDEST PUSH2 0x5D2 DUP5 DUP3 DUP6 PUSH2 0x58B JUMP JUMPDEST POP SWAP4 SWAP3 POP POP POP JUMP JUMPDEST PUSH0 DUP3 PUSH1 0x1F DUP4 ADD SLT PUSH2 0x5EE JUMPI PUSH2 0x5ED PUSH2 0x4CB JUMP JUMPDEST JUMPDEST DUP2 CALLDATALOAD PUSH2 0x5FE DUP5 DUP3 PUSH1 0x20 DUP7 ADD PUSH2 0x599 JUMP JUMPDEST SWAP2 POP POP SWAP3 SWAP2 POP POP JUMP JUMPDEST PUSH0 DUP1 PUSH0 PUSH1 0x60 DUP5 DUP7 SUB SLT ISZERO PUSH2 0x61E JUMPI PUSH2 0x61D PUSH2 0x372 JUMP JUMPDEST JUMPDEST PUSH0 PUSH2 0x62B DUP7 DUP3 DUP8 ADD PUSH2 0x3C0 JUMP JUMPDEST SWAP4 POP POP PUSH1 0x20 PUSH2 0x63C DUP7 DUP3 DUP8 ADD PUSH2 0x3F3 JUMP JUMPDEST SWAP3 POP POP PUSH1 0x40 DUP5 ADD CALLDATALOAD PUSH8 0xFFFFFFFFFFFFFFFF DUP2 GT ISZERO PUSH2 0x65D JUMPI PUSH2 0x65C PUSH2 0x376 JUMP JUMPDEST JUMPDEST PUSH2 0x669 DUP7 DUP3 DUP8 ADD PUSH2 0x5DA JUMP JUMPDEST SWAP2 POP POP SWAP3 POP SWAP3 POP SWAP3 JUMP JUMPDEST PUSH2 0x67C DUP2 PUSH2 0x399 JUMP JUMPDEST DUP3 MSTORE POP POP JUMP JUMPDEST PUSH0 PUSH1 0x40 DUP3 ADD SWAP1 POP PUSH2 0x695 PUSH0 DUP4 ADD DUP6 PUSH2 0x673 JUMP JUMPDEST PUSH2 0x6A2 PUSH1 0x20 DUP4 ADD DUP5 PUSH2 0x4A3 JUMP JUMPDEST SWAP4 SWAP3 POP POP POP JUMP JUMPDEST PUSH2 0x6B2 DUP2 PUSH2 0x445 JUMP JUMPDEST DUP2 EQ PUSH2 0x6BC JUMPI PUSH0 DUP1 REVERT JUMPDEST POP JUMP JUMPDEST PUSH0 DUP2 MLOAD SWAP1 POP PUSH2 0x6CD DUP2 PUSH2 0x6A9 JUMP JUMPDEST SWAP3 SWAP2 POP POP JUMP JUMPDEST PUSH0 PUSH1 0x20 DUP3 DUP5 SUB SLT ISZERO PUSH2 0x6E8 JUMPI PUSH2 0x6E7 PUSH2 0x372 JUMP JUMPDEST JUMPDEST PUSH0 PUSH2 0x6F5 DUP5 DUP3 DUP6 ADD PUSH2 0x6BF JUMP JUMPDEST SWAP2 POP POP SWAP3 SWAP2 POP POP JUMP JUMPDEST PUSH0 PUSH1 0x40 DUP3 ADD SWAP1 POP PUSH2 0x711 PUSH0 DUP4 ADD DUP6 PUSH2 0x4A3 JUMP JUMPDEST PUSH2 0x71E PUSH1 0x20 DUP4 ADD DUP5 PUSH2 0x4A3 JUMP JUMPDEST SWAP4 SWAP3 POP POP POP JUMP JUMPDEST PUSH32 0x4E487B7100000000000000000000000000000000000000000000000000000000 PUSH0 MSTORE PUSH1 0x11 PUSH1 0x4 MSTORE PUSH1 0x24 PUSH0 REVERT JUMPDEST PUSH0 PUSH2 0x75C DUP3 PUSH2 0x3D4 JUMP JUMPDEST SWAP2 POP PUSH2 0x767 DUP4 PUSH2 0x3D4 JUMP JUMPDEST SWAP3 POP DUP3 DUP3 SUB SWAP1 POP DUP2 DUP2 GT ISZERO PUSH2 0x77F JUMPI PUSH2 0x77E PUSH2 0x725 JUMP JUMPDEST JUMPDEST SWAP3 SWAP2 POP POP JUMP JUMPDEST PUSH0 PUSH2 0x78F DUP3 PUSH2 0x3D4 JUMP JUMPDEST SWAP2 POP PUSH2 0x79A DUP4 PUSH2 0x3D4 JUMP JUMPDEST SWAP3 POP DUP3 DUP3 ADD SWAP1 POP DUP1 DUP3 GT ISZERO PUSH2 0x7B2 JUMPI PUSH2 0x7B1 PUSH2 0x725 JUMP JUMPDEST JUMPDEST SWAP3 SWAP2 POP POP JUMP INVALID LOG2 PUSH5 0x6970667358 0x22 SLT KECCAK256 0xE STATICCALL PUSH8 0x4BEEBE7049A6308F CALLCODE SAR 0xD5 0xCA STOP 0xB0 0xC6 0xE CALLER SWAP12 LOG1 0xC5 0x2C 0xB3 PUSH21 0xED46F70CBEB664736F6C6343000818003300000000 "
		},
		"gasEstimates": {
			"creation": {
				"codeDepositCost": "406000",
				"executionCost": "22642",
				"totalCost": "428642"
			},
			"external": {
				"approve(address,uint256)": "796",
				"approve(address,uint256,string)": "infinite",
				"balanceOf(address)": "2873",
				"balances(address)": "2801",
				"transfer(address,uint256)": "infinite"
			}
		},
		"methodIdentifiers": {
			"approve(address,uint256)": "095ea7b3",
			"approve(address,uint256,string)": "55bbef67",
			"balanceOf(address)": "70a08231",
			"balances(address)": "27e235e3",
			"transfer(address,uint256)": "a9059cbb"
		}
	},
	"abi": [
		{
			"inputs": [],
			"stateMutability": "nonpayable",
			"type": "constructor"
		},
		{
			"inputs": [
				{
					"internalType": "uint256",
					"name": "requested",
					"type": "uint256"
				},
				{
					"internalType": "uint256",
					"name": "available",
					"type": "uint256"
				}
			],
			"name": "InsufficientBalance",
			"type": "error"
		},
		{
			"inputs": [
				{
					"internalType": "address",
					"name": "spender",
					"type": "address"
				},
				{
					"internalType": "uint256",
					"name": "amount",
					"type": "uint256"
				}
			],
			"name": "approve",
			"outputs": [
				{
					"internalType": "bool",
					"name": "",
					"type": "bool"
				}
			],
			"stateMutability": "nonpayable",
			"type": "function"
		},
		{
			"inputs": [
				{
					"internalType": "address",
					"name": "spender",
					"type": "address"
				},
				{
					"internalType": "uint256",
					"name": "amount",
					"type": "uint256"
				},
				{
					"internalType": "string",
					"name": "_note",
					"type": "string"
				}
			],
			"name": "approve",
			"outputs": [
				{
					"internalType": "bool",
					"name": "",
					"type": "bool"
				}
			],
			"stateMutability": "nonpayable",
			"type": "function"
		},
		{
			"inputs": [
				{
					"internalType": "address",
					"name": "account",
					"type": "address"
				}
			],
			"name": "balanceOf",
			"outputs": [
				{
					"internalType": "uint256",
					"name": "",
					"type": "uint256"
				}
			],
			"stateMutability": "view",
			"type": "function"
		},
		{
			"inputs": [
				{
					"internalType": "address",
					"name": "",
					"type": "address"
				}
			],
			"name": "balances",
			"outputs": [
				{
					"internalType": "uint256",
					"name": "",
					"type": "uint256"
				}
			],
			"stateMutability": "view",
			"type": "function"
		},
		{
			"inputs": [
				{
					"internalType": "address",
					"name": "to",
					"type": "address"
				},
				{
					"internalType": "uint256",
					"name": "amount",
					"type": "uint256"
				}
			],
			"name": "transfer",
			"outputs": [
				{
					"internalType": "bool",
					"name": "",
					"type": "bool"
				}
			],
			"stateMutability": "nonpayable",
			"type": "function"
		}
	]
}