{
	"data": {
		"bytecode": {
			"linkReferences": {},
			"object": "608060405234801561000f575f80fd5b5061045e8061001d5f395ff3fe608060405234801561000f575f80fd5b506004361061004a575f3560e01c8063023eb9a01461004e5780630d7015ae1461006c57806339a1491c1461008a578063c8b67885146100a8575b5f80fd5b6100566100d8565b604051610063919061021a565b60405180910390f35b6100746100dd565b604051610081919061021a565b60405180910390f35b6100926100e2565b60405161009f919061021a565b60405180910390f35b6100c260048036038101906100bd9190610261565b6100e7565b6040516100cf9190610316565b60405180910390f35b605481565b606481565b602a81565b60605f821161012b576040517f08c379a000000000000000000000000000000000000000000000000000000000815260040161012290610380565b60405180910390fd5b5f5b606481116101e057602a8114806101445750605481145b15610187576040518060400160405280601581526020017f4f6f70732120596f7520686974206120747261702100000000000000000000008152509150506101fd565b606481036101cd576040518060400160405280602081526020017f537563636573732120596f7520666f756e6420746865207472656173757265218152509150506101fd565b82816101d991906103cb565b905061012d565b6040518060600160405280602a81526020016103ff602a91399150505b919050565b5f819050919050565b61021481610202565b82525050565b5f60208201905061022d5f83018461020b565b92915050565b5f80fd5b61024081610202565b811461024a575f80fd5b50565b5f8135905061025b81610237565b92915050565b5f6020828403121561027657610275610233565b5b5f6102838482850161024d565b91505092915050565b5f81519050919050565b5f82825260208201905092915050565b5f5b838110156102c35780820151818401526020810190506102a8565b5f8484015250505050565b5f601f19601f8301169050919050565b5f6102e88261028c565b6102f28185610296565b93506103028185602086016102a6565b61030b816102ce565b840191505092915050565b5f6020820190508181035f83015261032e81846102de565b905092915050565b7f53746570206d7573742062652067726561746572207468616e207a65726f2e005f82015250565b5f61036a601f83610296565b915061037582610336565b602082019050919050565b5f6020820190508181035f8301526103978161035e565b9050919050565b7f4e487b71000000000000000000000000000000000000000000000000000000005f52601160045260245ffd5b5f6103d582610202565b91506103e083610202565b92508282019050808211156103f8576103f761039e565b5b9291505056fe4d6973736564212054686520747265617375726520776173206e6f74206f6e207468697320706174682ea264697066735822122015d800c0f8860a38b868790ff76099eeaa3ad49cf6d9d32ddf1be51dd13b6d5064736f6c63430008180033",
			"opcodes": "PUSH1 0x80 PUSH1 0x40 MSTORE CALLVALUE DUP1 ISZERO PUSH2 0xF JUMPI PUSH0 DUP1 REVERT JUMPDEST POP PUSH2 0x45E DUP1 PUSH2 0x1D PUSH0 CODECOPY PUSH0 RETURN INVALID PUSH1 0x80 PUSH1 0x40 MSTORE CALLVALUE DUP1 ISZERO PUSH2 0xF JUMPI PUSH0 DUP1 REVERT JUMPDEST POP PUSH1 0x4 CALLDATASIZE LT PUSH2 0x4A JUMPI PUSH0 CALLDATALOAD PUSH1 0xE0 SHR DUP1 PUSH4 0x23EB9A0 EQ PUSH2 0x4E JUMPI DUP1 PUSH4 0xD7015AE EQ PUSH2 0x6C JUMPI DUP1 PUSH4 0x39A1491C EQ PUSH2 0x8A JUMPI DUP1 PUSH4 0xC8B67885 EQ PUSH2 0xA8 JUMPI JUMPDEST PUSH0 DUP1 REVERT JUMPDEST PUSH2 0x56 PUSH2 0xD8 JUMP JUMPDEST PUSH1 0x40 MLOAD PUSH2 0x63 SWAP2 SWAP1 PUSH2 0x21A JUMP JUMPDEST PUSH1 0x40 MLOAD DUP1 SWAP2 SUB SWAP1 RETURN JUMPDEST PUSH2 0x74 PUSH2 0xDD JUMP JUMPDEST PUSH1 0x40 MLOAD PUSH2 0x81 SWAP2 SWAP1 PUSH2 0x21A JUMP JUMPDEST PUSH1 0x40 MLOAD DUP1 SWAP2 SUB SWAP1 RETURN JUMPDEST PUSH2 0x92 PUSH2 0xE2 JUMP JUMPDEST PUSH1 0x40 MLOAD PUSH2 0x9F SWAP2 SWAP1 PUSH2 0x21A JUMP JUMPDEST PUSH1 0x40 MLOAD DUP1 SWAP2 SUB SWAP1 RETURN JUMPDEST PUSH2 0xC2 PUSH1 0x4 DUP1 CALLDATASIZE SUB DUP2 ADD SWAP1 PUSH2 0xBD SWAP2 SWAP1 PUSH2 0x261 JUMP JUMPDEST PUSH2 0xE7 JUMP JUMPDEST PUSH1 0x40 MLOAD PUSH2 0xCF SWAP2 SWAP1 PUSH2 0x316 JUMP JUMPDEST PUSH1 0x40 MLOAD DUP1 SWAP2 SUB SWAP1 RETURN JUMPDEST PUSH1 0x54 DUP2 JUMP JUMPDEST PUSH1 0x64 DUP2 JUMP JUMPDEST PUSH1 0x2A DUP2 JUMP JUMPDEST PUSH1 0x60 PUSH0 DUP3 GT PUSH2 0x12B JUMPI PUSH1 0x40 MLOAD PUSH32 0x8C379A000000000000000000000000000000000000000000000000000000000 DUP2 MSTORE PUSH1 0x4 ADD PUSH2 0x122 SWAP1 PUSH2 0x380 JUMP JUMPDEST PUSH1 0x40 MLOAD DUP1 SWAP2 SUB SWAP1 REVERT JUMPDEST PUSH0 JUMPDEST PUSH1 0x64 DUP2 GT PUSH2 0x1E0 JUMPI PUSH1 0x2A DUP2 EQ DUP1 PUSH2 0x144 JUMPI POP PUSH1 0x54 DUP2 EQ JUMPDEST ISZERO PUSH2 0x187 JUMPI PUSH1 0x40 MLOAD DUP1 PUSH1 0x40 ADD PUSH1 0x40 MSTORE DUP1 PUSH1 0x15 DUP2 MSTORE PUSH1 0x20 ADD PUSH32 0x4F6F70732120596F752068697420612074726170210000000000000000000000 DUP2 MSTORE POP SWAP2 POP POP PUSH2 0x1FD JUMP JUMPDEST PUSH1 0x64 DUP2 SUB PUSH2 0x1CD JUMPI PUSH1 0x40 MLOAD DUP1 PUSH1 0x40 ADD PUSH1 0x40 MSTORE DUP1 PUSH1 0x20 DUP2 MSTORE PUSH1 0x20 ADD PUSH32 0x537563636573732120596F7520666F756E642074686520747265617375726521 DUP2 MSTORE POP SWAP2 POP POP PUSH2 0x1FD JUMP JUMPDEST DUP3 DUP2 PUSH2 0x1D9 SWAP2 SWAP1 PUSH2 0x3CB JUMP JUMPDEST SWAP1 POP PUSH2 0x12D JUMP JUMPDEST PUSH1 0x40 MLOAD DUP1 PUSH1 0x60 ADD PUSH1 0x40 MSTORE DUP1 PUSH1 0x2A DUP2 MSTORE PUSH1 0x20 ADD PUSH2 0x3FF PUSH1 0x2A SWAP2 CODECOPY SWAP2 POP POP JUMPDEST SWAP2 SWAP1 POP JUMP JUMPDEST PUSH0 DUP2 SWAP1 POP SWAP2 SWAP1 POP JUMP JUMPDEST PUSH2 0x214 DUP2 PUSH2 0x202 JUMP JUMPDEST DUP3 MSTORE POP POP JUMP JUMPDEST PUSH0 PUSH1 0x20 DUP3 ADD SWAP1 POP PUSH2 0x22D PUSH0 DUP4 ADD DUP5 PUSH2 0x20B JUMP JUMPDEST SWAP3 SWAP2 POP POP JUMP JUMPDEST PUSH0 DUP1 REVERT JUMPDEST PUSH2 0x240 DUP2 PUSH2 0x202 JUMP JUMPDEST DUP2 EQ PUSH2 0x24A JUMPI PUSH0 DUP1 REVERT JUMPDEST POP JUMP JUMPDEST PUSH0 DUP2 CALLDATALOAD SWAP1 POP PUSH2 0x25B DUP2 PUSH2 0x237 JUMP JUMPDEST SWAP3 SWAP2 POP POP JUMP JUMPDEST PUSH0 PUSH1 0x20 DUP3 DUP5 SUB SLT ISZERO PUSH2 0x276 JUMPI PUSH2 0x275 PUSH2 0x233 JUMP JUMPDEST JUMPDEST PUSH0 PUSH2 0x283 DUP5 DUP3 DUP6 ADD PUSH2 0x24D JUMP JUMPDEST SWAP2 POP POP SWAP3 SWAP2 POP POP JUMP JUMPDEST PUSH0 DUP2 MLOAD SWAP1 POP SWAP2 SWAP1 POP JUMP JUMPDEST PUSH0 DUP3 DUP3 MSTORE PUSH1 0x20 DUP3 ADD SWAP1 POP SWAP3 SWAP2 POP POP JUMP JUMPDEST PUSH0 JUMPDEST DUP4 DUP2 LT ISZERO PUSH2 0x2C3 JUMPI DUP1 DUP3 ADD MLOAD DUP2 DUP5 ADD MSTORE PUSH1 0x20 DUP2 ADD SWAP1 POP PUSH2 0x2A8 JUMP JUMPDEST PUSH0 DUP5 DUP5 ADD MSTORE POP POP POP POP JUMP JUMPDEST PUSH0 PUSH1 0x1F NOT PUSH1 0x1F DUP4 ADD AND SWAP1 POP SWAP2 SWAP1 POP JUMP JUMPDEST PUSH0 PUSH2 0x2E8 DUP3 PUSH2 0x28C JUMP JUMPDEST PUSH2 0x2F2 DUP2 DUP6 PUSH2 0x296 JUMP JUMPDEST SWAP4 POP PUSH2 0x302 DUP2 DUP6 PUSH1 0x20 DUP7 ADD PUSH2 0x2A6 JUMP JUMPDEST PUSH2 0x30B DUP2 PUSH2 0x2CE JUMP JUMPDEST DUP5 ADD SWAP2 POP POP SWAP3 SWAP2 POP POP JUMP JUMPDEST PUSH0 PUSH1 0x20 DUP3 ADD SWAP1 POP DUP2 DUP2 SUB PUSH0 DUP4 ADD MSTORE PUSH2 0x32E DUP2 DUP5 PUSH2 0x2DE JUMP JUMPDEST SWAP1 POP SWAP3 SWAP2 POP POP JUMP JUMPDEST PUSH32 0x53746570206D7573742062652067726561746572207468616E207A65726F2E00 PUSH0 DUP3 ADD MSTORE POP JUMP JUMPDEST PUSH0 PUSH2 0x36A PUSH1 0x1F DUP4 PUSH2 0x296 JUMP JUMPDEST SWAP2 POP PUSH2 0x375 DUP3 PUSH2 0x336 JUMP JUMPDEST PUSH1 0x20 DUP3 ADD SWAP1 POP SWAP2 SWAP1 POP JUMP JUMPDEST PUSH0 PUSH1 0x20 DUP3 ADD SWAP1 POP DUP2 DUP2 SUB PUSH0 DUP4 ADD MSTORE PUSH2 0x397 DUP2 PUSH2 0x35E JUMP JUMPDEST SWAP1 POP SWAP2 SWAP1 POP JUMP JUMPDEST PUSH32 0x4E487B7100000000000000000000000000000000000000000000000000000000 PUSH0 MSTORE PUSH1 0x11 PUSH1 0x4 MSTORE PUSH1 0x24 PUSH0 REVERT JUMPDEST PUSH0 PUSH2 0x3D5 DUP3 PUSH2 0x202 JUMP JUMPDEST SWAP2 POP PUSH2 0x3E0 DUP4 PUSH2 0x202 JUMP JUMPDEST SWAP3 POP DUP3 DUP3 ADD SWAP1 POP DUP1 DUP3 GT ISZERO PUSH2 0x3F8 JUMPI PUSH2 0x3F7 PUSH2 0x39E JUMP JUMPDEST JUMPDEST SWAP3 SWAP2 POP POP JUMP INVALID 0x4D PUSH10 0x73736564212054686520 PUSH21 0x7265617375726520776173206E6F74206F6E207468 PUSH10 0x7320706174682EA26469 PUSH17 0x66735822122015D800C0F8860A38B86879 0xF 0xF7 PUSH1 0x99 0xEE 0xAA GASPRICE 0xD4 SWAP13 0xF6 0xD9 0xD3 0x2D 0xDF SHL 0xE5 SAR 0xD1 EXTCODESIZE PUSH14 0x5064736F6C634300081800330000 "
		},
		"gasEstimates": {
			"creation": {
				"codeDepositCost": "223600",
				"executionCost": "261",
				"totalCost": "223861"
			},
			"external": {
				"TRAP_NUMBER_1()": "347",
				"TRAP_NUMBER_2()": "303",
				"TREASURE_NUMBER()": "325",
				"findTreasure(uint256)": "infinite"
			}
		},
		"methodIdentifiers": {
			"TRAP_NUMBER_1()": "39a1491c",
			"TRAP_NUMBER_2()": "023eb9a0",
			"TREASURE_NUMBER()": "0d7015ae",
			"findTreasure(uint256)": "c8b67885"
		}
	},
	"abi": [
		{
			"inputs": [],
			"name": "TRAP_NUMBER_1",
			"outputs": [
				{
					"internalType": "uint256",
					"name": "",
					"type": "uint256"
				}
			],
			"stateMutability": "view",
			"type": "function"
		},
		{
			"inputs": [],
			"name": "TRAP_NUMBER_2",
			"outputs": [
				{
					"internalType": "uint256",
					"name": "",
					"type": "uint256"
				}
			],
			"stateMutability": "view",
			"type": "function"
		},
		{
			"inputs": [],
			"name": "TREASURE_NUMBER",
			"outputs": [
				{
					"internalType": "uint256",
					"name": "",
					"type": "uint256"
				}
			],
			"stateMutability": "view",
			"type": "function"
		},
		{
			"inputs": [
				{
					"internalType": "uint256",
					"name": "_step",
					"type": "uint256"
				}
			],
			"name": "findTreasure",
			"outputs": [
				{
					"internalType": "string",
					"name": "result",
					"type": "string"
				}
			],
			"stateMutability": "pure",
			"type": "function"
		}
	]
}