{
	"data": {
		"bytecode": {
			"linkReferences": {},
			"object": "608060405260015f553480156012575f5ffd5b5061019c806100205f395ff3fe608060405234801561000f575f5ffd5b5060043610610034575f3560e01c80633fa4f245146100385780638269267914610056575b5f5ffd5b610040610060565b60405161004d91906100ac565b60405180910390f35b61005e610065565b005b5f5481565b60055f5461007391906100f2565b5f81905550600a5f8190555060025f5461008d9190610125565b5f81905550565b5f819050919050565b6100a681610094565b82525050565b5f6020820190506100bf5f83018461009d565b92915050565b7f4e487b71000000000000000000000000000000000000000000000000000000005f52601160045260245ffd5b5f6100fc82610094565b915061010783610094565b925082820190508082111561011f5761011e6100c5565b5b92915050565b5f61012f82610094565b915061013a83610094565b925082820261014881610094565b9150828204841483151761015f5761015e6100c5565b5b509291505056fea264697066735822122036d180ff2d7cb42545b0c2c5c3eaa3f095ef996fc6c8ce28579ab35a12d8fb0c64736f6c634300081e0033",
			"opcodes": "PUSH1 0x80 PUSH1 0x40 MSTORE PUSH1 0x1 PUSH0 SSTORE CALLVALUE DUP1 ISZERO PUSH1 0x12 JUMPI PUSH0 PUSH0 REVERT JUMPDEST POP PUSH2 0x19C DUP1 PUSH2 0x20 PUSH0 CODECOPY PUSH0 RETURN INVALID PUSH1 0x80 PUSH1 0x40 MSTORE CALLVALUE DUP1 ISZERO PUSH2 0xF JUMPI PUSH0 PUSH0 REVERT JUMPDEST POP PUSH1 0x4 CALLDATASIZE LT PUSH2 0x34 JUMPI PUSH0 CALLDATALOAD PUSH1 0xE0 SHR DUP1 PUSH4 0x3FA4F245 EQ PUSH2 0x38 JUMPI DUP1 PUSH4 0x82692679 EQ PUSH2 0x56 JUMPI JUMPDEST PUSH0 PUSH0 REVERT JUMPDEST PUSH2 0x40 PUSH2 0x60 JUMP JUMPDEST PUSH1 0x40 MLOAD PUSH2 0x4D SWAP2 SWAP1 PUSH2 0xAC JUMP JUMPDEST PUSH1 0x40 MLOAD DUP1 SWAP2 SUB SWAP1 RETURN JUMPDEST PUSH2 0x5E PUSH2 0x65 JUMP JUMPDEST STOP JUMPDEST PUSH0 SLOAD DUP2 JUMP JUMPDEST PUSH1 0x5 PUSH0 SLOAD PUSH2 0x73 SWAP2 SWAP1 PUSH2 0xF2 JUMP JUMPDEST PUSH0 DUP2 SWAP1 SSTORE POP PUSH1 0xA PUSH0 DUP2 SWAP1 SSTORE POP PUSH1 0x2 PUSH0 SLOAD PUSH2 0x8D SWAP2 SWAP1 PUSH2 0x125 JUMP JUMPDEST PUSH0 DUP2 SWAP1 SSTORE POP JUMP JUMPDEST PUSH0 DUP2 SWAP1 POP SWAP2 SWAP1 POP JUMP JUMPDEST PUSH2 0xA6 DUP2 PUSH2 0x94 JUMP JUMPDEST DUP3 MSTORE POP POP JUMP JUMPDEST PUSH0 PUSH1 0x20 DUP3 ADD SWAP1 POP PUSH2 0xBF PUSH0 DUP4 ADD DUP5 PUSH2 0x9D JUMP JUMPDEST SWAP3 SWAP2 POP POP JUMP JUMPDEST PUSH32 0x4E487B7100000000000000000000000000000000000000000000000000000000 PUSH0 MSTORE PUSH1 0x11 PUSH1 0x4 MSTORE PUSH1 0x24 PUSH0 REVERT JUMPDEST PUSH0 PUSH2 0xFC DUP3 PUSH2 0x94 JUMP JUMPDEST SWAP2 POP PUSH2 0x107 DUP4 PUSH2 0x94 JUMP JUMPDEST SWAP3 POP DUP3 DUP3 ADD SWAP1 POP DUP1 DUP3 GT ISZERO PUSH2 0x11F JUMPI PUSH2 0x11E PUSH2 0xC5 JUMP JUMPDEST JUMPDEST SWAP3 SWAP2 POP POP JUMP JUMPDEST PUSH0 PUSH2 0x12F DUP3 PUSH2 0x94 JUMP JUMPDEST SWAP2 POP PUSH2 0x13A DUP4 PUSH2 0x94 JUMP JUMPDEST SWAP3 POP DUP3 DUP3 MUL PUSH2 0x148 DUP2 PUSH2 0x94 JUMP JUMPDEST SWAP2 POP DUP3 DUP3 DIV DUP5 EQ DUP4 ISZERO OR PUSH2 0x15F JUMPI PUSH2 0x15E PUSH2 0xC5 JUMP JUMPDEST JUMPDEST POP SWAP3 SWAP2 POP POP JUMP INVALID LOG2 PUSH5 0x6970667358 0x22 SLT KECCAK256 CALLDATASIZE DATALOADN 0x80FF 0x2D PUSH29 0xB42545B0C2C5C3EAA3F095EF996FC6C8CE28579AB35A12D8FB0C64736F PUSH13 0x634300081E0033000000000000 "
		},
		"gasEstimates": {
			"creation": {
				"codeDepositCost": "82400",
				"executionCost": "22232",
				"totalCost": "104632"
			},
			"external": {
				"doSomething()": "infinite",
				"value()": "2402"
			}
		},
		"methodIdentifiers": {
			"doSomething()": "82692679",
			"value()": "3fa4f245"
		}
	},
	"abi": [
		{
			"inputs": [],
			"name": "doSomething",
			"outputs": [],
			"stateMutability": "nonpayable",
			"type": "function"
		},
		{
			"inputs": [],
			"name": "value",
			"outputs": [
				{
					"internalType": "uint256",
					"name": "",
					"type": "uint256"
				}
			],
			"stateMutability": "view",
			"type": "function"
		}
	]
}